:020000040800F2
:10000000A8200020D1850008012000080320000856
:1000100005200008092000080D200008000000004D
:100020000000000000000000000000001120000897
:100030001320000800000000152000081720000809
:10004000EB850008EB850008EB850008EB850008D0
:10005000EB850008EB850008EB850008EB850008C0
:10006000EB850008EB850008EB850008EB850008B0
:10007000EB850008EB850008EB850008EB850008A0
:10008000EB850008EB850008EB850008EB85000890
:10009000EB850008EB850008EB850008EB85000880
:1000A000EB850008EB850008EB850008EB85000870
:1000B000EB850008EB850008BD310008EB850008E2
:1000C000EB850008EB850008EB850008EB85000850
:1000D000EB850008EB850008EB850008EB85000840
:1000E000EB850008EB850008EB850008EB85000830
:1000F000EB850008EB850008EB850008EB85000820
:10010000EB850008EB8500088B300008EB850008C4
:10011000EB850008EB850008EB850008EB850008FF
:10012000EB850008EB850008EB850008EB850008EF
:1001300000F002F800F06DF80AA090E8000C82448C
:100140008344AAF10107DA4501D100F062F8AFF269
:10015000090EBAE80F0013F0010F18BFFB1A43F0A5
:1001600001031847E8E6000008E700000A444FF0E2
:10017000000C10F8013B13F0070408BF10F8014B06
:100180001D1108BF10F8015B641E05D010F8016B4B
:10019000641E01F8016BF9D113F0080F1EBF10F8AF
:1001A000014BAD1C0C1B09D16D1E58BF01F801CBD2
:1001B000FAD505E014F8016B01F8016B6D1EF9D555
:1001C0009142D6D37047000000230024002500266A
:1001D000103A28BF78C1FBD8520728BF30C148BFAA
:1001E0000B60704766290DF01C8364290AF0F080CB
:1001F00078290AF02981002070471FB50AF040FDD8
:100200000400002000210CF073F9E0601FBD10B560
:1002100010BD0AF079FE1146FFF7EFFF00F008F875
:100220000AF097FE03B4FFF7F2FF03BC07F0A8FF44
:10023000A2B00020219020901F901E9001201890C5
:100240000020179016901590149013901290119012
:10025000109001200F9001F054FF4FF4A06008F0BF
:100260005BFF07F023FF472144F61F6003F03EF9D0
:100270004FF4FA61FE4809F085FE4FF4FA61FC483C
:1002800009F082FE4FF4FA61F94809F07FFE4FF45D
:10029000FA61F74809F07CFE41F2883007F043FF2D
:1002A0004FF47A71F24809F06DFE4FF47A71F0481C
:1002B00009F06AFE4FF47A71ED4809F067FE4FF4D9
:1002C0007A71EB4809F064FE40F6B83007F02BFF76
:1002D00003F0E5FE05E0C82007F025FFC82007F081
:1002E00022FF06F00FF90028F5D14FF47A7007F0DD
:1002F0001AFF03F011FD642007F015FF03F05CF90D
:10030000642007F010FF03F067F94FF4967007F0D0
:100310000AFF00201990AFE0D64AD749D74803F02A
:1003200060FF00284DD1D548B0F900000DF03CF831
:100330000890D348016808980CF090FE09900CF0E2
:1003400061FE0022CF4BCDE90A010CF081FBCDE923
:100350000C010CF0E3F8CA490860C748B0F9000086
:100360000DF022F80890C848016808980CF076FE55
:1003700009900CF047FE0022C24BCDE90A010CF0B7
:1003800067FBCDE90C010CF0C9F8BF490860B9481A
:10039000B0F900000DF008F80890BC480168089812
:1003A0000CF05CFE09900CF02DFE0022B54BCDE95F
:1003B0000A010CF04DFBCDE90C010CF0AFF8B3498C
:1003C0000860B34AB349B44803F033FF00284FD163
:1003D000B148B0F900000CF0E7FF0890AF480168A1
:1003E00008980CF03BFE09900CF00CFE0022A54B87
:1003F000CDE90A010CF02CFBCDE90C010CF08EF8D4
:10040000A6490860A348B0F900000CF0CDFF0890A1
:10041000A348016808980CF021FE09900CF0F2FD49
:100420000022984BCDE90A010CF012FBCDE90C013A
:100430000CF074F89A4908609548B0F900000CF087
:10044000B3FF08909748016808980CF007FE0990E0
:100450000CF0D8FD00228B4BCDE90A010CF0F8FA24
:10046000CDE90C010CF05AF88E49086002F0A8FBA7
:100470001998401CC0B2199019986428FFF64CAF27
:100480007F4800680CF054FF00B2874908807E481E
:1004900000680CF04DFF00B2834948807B4800683B
:1004A0000CF046FF00B2804988807C4800680CF060
:1004B0003FFF00B27D490880794800680CF038FFA2
:1004C00000B27B4908807B4800680CF031FF00B225
:1004D000794908800020199021E0642007F023FE6C
:1004E00003F003F9754800680CF05EFF089074484B
:1004F000016808980CF0B2FD09900CF083FD002211
:10050000604BCDE90A010CF0A3FACDE90C010CF027
:1005100005F86B4908601998401CC0B219901998E9
:100520001428DADB664800680CF002FF65490860B1
:10053000084600680CF038FF07900CF063FD0022BD
:10054000614BCDE908010CF0D7F84FF0C0425F4B8A
:10055000CDE90A010CF014F8CDE90C010BF0DEFF37
:100560005B490860189818B15A4807F01BFE05E06F
:10057000179818B14FF4E13007F014FE0A2007F085
:10058000D2FD47214FF6FF7002F08FFD40F2CF21E0
:10059000092002F04DFD0A2007F0C5FD07F088FB99
:1005A0000A2007F0C0FD0BE04B48006808B90120A5
:1005B00000E00020484908604FF4FA7007F0B3FDEE
:1005C00007F056FB4EF616718842EDD101F01AFE87
:1005D00001204149086000204049C1F888010A20F3
:1005E00007F0A1FD3E4800680CF026FF3D490D9044
:1005F0000CF06AFF0E900CF0B7FE3B4908603848DB
:1006000000680CF019FF39490D900CF05DFF0E9059
:100610000CF0AAFE36490860314800680CF00CFF67
:1006200034490D900CF050FF0E900CF09DFE3249B5
:1006300008602B4800680CF0FFFE30490D900CF06C
:1006400043FF0E900CF090FE2D490860244800688E
:100650000CF0F2FE2B490D900CF036FF0E900CF0D2
:1006600083FE294908601E4800680CF0E5FE4DE055
:10067000000400407600002074000020720000207A
:100680008C0000200000E03F90000020940000203B
:10069000700000206E0000206C000020A0000020F0
:1006A000A4000020A8000020860000209800002060
:1006B0009A000020DC0100209C000020F4000020B3
:1006C00000010020FC00002000005940661271402B
:1006D0008401002020A10700A001214200802242C5
:1006E00000000020CDCCCC3D04000020CDCC4C3D02
:1006F000080000200AD7A33C0C0000200AD7233CA6
:10070000100000200AD7A33B14000020FE490D90E2
:100710000CF0DAFE0E900CF027FEFC490860FC4855
:1007200000680CF089FEFB490D900CF0CDFE0E9098
:100730000CF01AFEF8490860F54800680CF07CFEE1
:10074000F4490D900CF0C0FE0E900CF00DFEF34934
:100750000860EF4800680CF06FFEF1490D900CF056
:10076000B3FE0E900CF000FEEE490860E848006809
:100770000CF062FEEC490D900CF0A6FE0E900CF011
:10078000F3FDEA490860E24800680CF055FEE849CC
:100790000D900CF099FE0E900CF0E6FDE549086016
:1007A000DB4800680CF048FEE3490D900CF08CFE2D
:1007B0000E900CF0D9FDE1490860D54800680CF0B6
:1007C0003BFEDF490D900CF07FFE0E900CF0CCFD4F
:1007D000DC490860CE4800680CF02EFEDA490D9026
:1007E0000CF072FE0E900CF0BFFDD8490860C848AE
:1007F00000680CF021FED6490D900CF065FE0E90BD
:100800000CF0B2FDD3490860C14800680CF014FE3A
:10081000D1490D900CF058FE0E900CF0A5FDCF497B
:100820000860BB4800680CF007FECD490D900CF045
:100830004BFE0E900CF098FDCA490860B448006861
:100840000CF0FAFDC8490D900CF03EFE0E900CF035
:100850008BFDC649086001F083BBC5480068401C99
:100860000CF0EAFD0E90AA4800680CF0E5FDC149C5
:100870000C900CF029FE0D900E990CF0F1FE3FD279
:10088000A34800680CF0D8FDBA490D900CF01CFE8E
:100890000E900CF069FDB6490860B7480068401C2E
:1008A000B5490860B54A911E881E03F09AFC38BB12
:1008B00002F040F8B2480088B2490880B048408849
:1008C0004880AF48808888801698C8B102F0CFFA77
:1008D000AD4800680E900CF02BFD00B2A9490880CD
:1008E000A94840680E900CF023FD00B2A54948804D
:1008F000A54880680E900CF01BFD00B2A1498880CD
:10090000A2480068401C0CF097FD0E9080480068DB
:100910000CF092FD9E490C900CF0D6FD0D900E99B6
:100920000CF09EFE11D27A4800680CF085FD9849C3
:100930000D900CF0C9FD0E900CF016FD9349086067
:100940008D484068401C8C49486092480068401CB3
:100950000CF072FD0E906E4800680CF06DFD8E4933
:100960000C900CF0B1FD0D900E990CF079FE7CD23C
:10097000674800680CF060FD87490D900CF0A4FDFD
:100980000E900CF0F1FC834908607B488068401CA5
:1009900079498860814A8249824805F000FE02F068
:1009A00071F881480168814800680CF0C5FE8049F3
:1009B000086080480168804800680CF0BDFE7F49EF
:1009C00008607F4801687F4800680CF0B5FE7E49EA
:1009D00008601598002848D02198002845D10F9824
:1009E00030B101286AD002287DD003287CD11AE2D8
:1009F00076491398884260D2139800EB400000219A
:100A000001EB80000C2201460E90714807F0AAF914
:100A10006F4800786E49497840EA01206D490880A6
:100A20006B4880786A49C97840EA01206949488062
:100A3000674800796649497940EA0120654988801C
:100A4000634880796249C97940EA01206149C880D8
:100A50005F48007A5E49497A40EA01205D49088191
:100A60005B48807A5A49C97A00E042E240EA0120B4
:100A70005849488100200290039004900590084650
:100A8000408900B2098909B2CDE900105148C088F7
:100A900000B20E904F48808800B20D904D484088BB
:100AA00000B20C904B48008800B20B900CA90EC904
:100AB00006F0D5FE1398401C139019E24349139891
:100AC00088421FD21398C0EBC000002101EB400008
:100AD0000E2201460E90404807F044F93E48007847
:100AE0003D49497801E0DBE001E240EA01203B4971
:100AF0000880394880783849C97840EA0120374968
:100B000048806DE0CBE000006F12033B180000202E
:100B1000000000206F12833A1C00002020000020FB
:100B200017B7D1382400002017B75138280000200B
:100B3000ACC5A7372C000020ACC5273730000020FB
:100B4000ACC5A73634000020BD370636380000207B
:100B5000BD3786353C000020BD37063540000020FB
:100B600095BF56344400002095BFD633480000207E
:100B700004000020CDCCCC3D180400207C000020D7
:100B80001C010020240100200C040020080000208B
:100B9000CDCC4C3D0C0000200AD7A33C68000020BF
:100BA000600000206400002010010020AC00002044
:100BB0000401002014010020B000002008010020E2
:100BC00018010020B40000200C01002078AA0A00BF
:100BD00000050020F0050020FC050020F80600209C
:100BE000FE480079FD49497940EA0120FC498880A6
:100BF000FA488079F949C97940EA0120F849C88062
:100C0000F648007AF549497A40EA0120F44908811A
:100C1000F248807AF149C97A40EA0120F0494881D6
:100C2000EE48007BED49497B40EA0120EC49888190
:100C3000084680880B900CF0FFFB0E90E848408837
:100C40000B900CF0F9FB0D90E54800880B900CF030
:100C5000F3FB0C9000200090034601900CA807C8FD
:100C600006F05DFD0021DE48808900B2CDE9020179
:100C70000491DB480591408900B2D949098909B23C
:100C8000CDE90010D648C08800B2034600221146C4
:100C90000E90104606F0E3FD1398401C139027E1D8
:100CA000D049139888427DD2139800EB800101EB64
:100CB000C000002101EB40001A2201460E90CA48F4
:100CC00007F050F8C8480078C749497840EA012041
:100CD000C6490880C4488078C349C97840EA0120E1
:100CE000C2494880C0480079BF49497940EA01209B
:100CF000BE498880BC488079BB49C97940EA012057
:100D0000BA49C880B848007AB749497A40EA012010
:100D1000B6490881B448807AB349C97A40EA0120CB
:100D2000B2494881B048007BAF49497B40EA012085
:100D3000AE498881AC48807BAB49C97B40EA012041
:100D4000AA49C881A848007CA749497C40EA0120FB
:100D5000A6490882A448807CA349C97C40EA0120B6
:100D6000A2494882A048007D9F49497D40EA012070
:100D70009E4988829C48807D9B49C97D40EA01202C
:100D80009A49C8829848007E9749497E40EA0120E6
:100D90009649088300230846008A00B2C98909B22F
:100DA000924A00E03EE0928912B2CDE90403CDE917
:100DB00002218E48408900B28C49098909B2CDE9E7
:100DC00000108A48C08800B20E908848808800B21F
:100DD0000D908648408800B20C908448008800B28C
:100DE0000B900CA90EC906F03AFD8048C08A0B9002
:100DF0000CF022FB0E907D48808A0B900CF01CFBBF
:100E00000D907A48408A0B900CF016FB0C90002055
:100E10000090034601900CA807C806F080FC1398C8
:100E2000401C139064E06F49139888425ED2139877
:100E300000EB4000002101EB80000C2201460E90E7
:100E40006B4806F08FFF6A4800786949497840EAA4
:100E5000012068490880664880786549C97840EA79
:100E6000012064494880624800796149497940EA33
:100E70000120604988805E4880795D49C97940EAEF
:100E800001205C49C8805A48007A5949497A40EAA9
:100E90000120584908815648807A5549C97A40EA64
:100EA000012054494881002002900390049005904D
:100EB0000846408900B2098909B2CDE900104D48C1
:100EC000C08800B20E904B48808800B20D9049480F
:100ED000408800B20C904748008800B20B900CA9E3
:100EE0000EC906F0BCFC1398401C139000E000BF34
:100EF00000BF41480068401C0CF09EFA0E903F482D
:100F000000680CF099FA3E490C900CF0DDFA0D9057
:100F10000E990CF0A5FB5FD2384800680CF08CFAF3
:100F200037490D900CF0D0FA0E900CF01DFA3249B2
:100F300008603448C068401C3249C86021980028C5
:100F40004BD03148006840F24C4188426AD92E4863
:100F5000008800B21B902D48B0F9000040F2E35128
:100F6000081A2B490968884208D82848B0F90000B7
:100F700000F2E35026490968884218D224480088C4
:100F8000A0F2E35000B21D901D980CF00DFA0990EC
:100F90000CF038F81F4A204BCDE90A010BF058FD40
:100FA000CDE90C010BF0BAFA1C49086002E0002000
:100FB0001A4908601548B0F9000040F2E451081AD7
:100FC00017490968884230D81048B0F9000000F28B
:100FD000E4501349096826E0D3E0D6E0FC05002080
:100FE000F806002078AA0A0006070020F007002073
:100FF00000050020F0050020100000200000002067
:101000000AD7233C1804002054000020B800002018
:101010004C000020F49FDA858B81A23F1001002054
:101020005000002051E0884219D2FD48008840F26B
:10103000E451081A00B21C901C980CF0B5F9099004
:101040000BF0E0FFF74AF84BCDE90A010BF000FD89
:10105000CDE90C010BF062FAF449086002E00020CF
:10106000F2490860F248B0F9000040F2E351081A72
:10107000F0490968884208D8ED48B0F9000000F24C
:10108000E350EC49096888421BD2EA48008840F2E4
:10109000E351081A00B21A901A980CF085F90990D9
:1010A0000BF0B0FFDF4AE04BCDE90A010BF0D0FCBA
:1010B000CDE90C010BF032FADF490860002008602E
:1010C00012E00020DC4908600EE00020DB490880C7
:1010D000DB490880DB490880DB49088000231A4689
:1010E0001946184601F0CAF8D848006840F24C4149
:1010F00088421AD2CF480068884216D21F9818B981
:10110000D348008880B21F90D14801681F98081A00
:1011100008280CD300202190CE4908600120CE4938
:10112000C1F8A00100201F9001E000201F90C748D7
:10113000006840F24C41884224D2BE48006840F228
:101140006C7188421ED9209818B9C148008880B2B5
:101150002090BF4801682098081A0D2872D30020FB
:101160002190BC490860BC49C1F8A00106F0EAFE24
:101170000020B84908600120B749C1F8A00100204B
:1011800020905FE0002020905CE00020AB490880C8
:10119000AB490880AB490880AB49088000231A4658
:1011A0001946184601F06AF8A848006840F24C4118
:1011B00088421BD29F48006840F26C71884215D962
:1011C000209818B9A248008880B22090A0480168F1
:1011D0002098081A05280BD3012021909D4908600A
:1011E00000209D49C1F8A001209001E0002020903E
:1011F0009648006840F24C41884221D28D480068F0
:1012000088421DD21F9818B99148008880B21F905B
:101210008F4801681F98081A082813D3159818B129
:1012200000208C49086002E001208A490860159876
:1012300008B9012000E00020159000201F9001E077
:1012400000201F9085480068401C0CF0F5F80E90B7
:10125000834800680CF0F0F882490C900CF034F9E7
:101260000D900E990CF0FCF972D27D4800680CF0DC
:10127000E3F87C490D900CF027F90E900CF074F80F
:101280007649086078480069401C774908616F48D2
:10129000006840F24C41884215D9219898B17348B2
:1012A000007840B901F0D3F901F03FF901F0A0FD59
:1012B00001F04FFD04E001F036FE00206B4908709C
:1012C0001B9801F00DF86A480078E8BB2198D8B364
:1012D000684800685D490968884239D25B480068FF
:1012E00065490968884233D26448007880B9644807
:1012F0000168644800680CF0B3F809D253480068EC
:101300006149096808446149086001205B49087027
:101310005F48007878B95948007860B15B48006848
:1013200059490968401A5B490968401A5A490860D6
:101330000120574908705148007828B15448007876
:1013400010B101204A4900E002E0087053490860EA
:1013500053480068401C0CF06FF80E90404800683D
:101360000CF06AF84F490C900CF0AEF80D900E9905
:101370000CF076F953D23A4800680CF05DF8494910
:101380000D900CF0A1F80E900BF0EEFF44490860B0
:1013900035484069401C344948611898F0B31498A6
:1013A000E0BB1598D0BB404800680BF0C1FF0E9021
:1013B00021991E98CDE900013C480E9B02683C48EB
:1013C00001683C48006806F0AAF900222848017824
:1013D0002F480078294B1B78CDE90030CDE9021267
:1013E0001948008880B20E901648008880B20D908F
:1013F0001348008880B20C901048008880B20B908F
:101400000CA90EC906F0EEFA002002900390049099
:1014100005902148008880B21C494DE0A0E031E1F0
:1014200050000020F49FDA858B81A23F1401002038
:10143000B80000205800002018010020740200208D
:1014400076020020780200207A020020540000205A
:101450002400002088812242000021421400002044
:10146000000000200AD7A33B18040020E40000205D
:101470009A020020840200208002002098020020AE
:10148000C4010020940200209C0200208802002059
:1014900099020020A00200208C020020A00121421D
:1014A000180000206F12033BE8000020B400002069
:1014B000B0000020AC000020098889B2CDE90010FE
:1014C000FE48008880B20E90FD48008880B20D90E2
:1014D000FC48008880B20C90FB48008880B20B90DA
:1014E0000CA90EC906F012FBF84800680BF020FFAB
:1014F0000E90F74800680BF01BFF00B20D90F54806
:1015000000680BF015FF00B20C90F34800680BF078
:101510000FFF00B20B90DDE90B23DDE90D10CDE9E3
:101520000223CDE90410ED48B0F90400EB49B1F90C
:101530000210CDE90010E948B0F900000A90E8482F
:10154000B0F904000990E648B0F902000890E448B8
:10155000B0F90000079008A90EC906F080F910E064
:10156000179870B1149860B9159850B9D7480068A9
:101570000BF048FD02460B46CDE90C01D9A008F05E
:10158000F3FE219800287DD014980028FBD00F98F6
:1015900030B1012877D0022876D0032875D15DE3D9
:1015A000D7491298884271D2D6480178109800EB3A
:1015B0004000002202EB8000D34A1154D148008839
:1015C000C0F30721109800EB4000012202EB8000DD
:1015D000CD4A1154CD480178109800EB400002220A
:1015E00002EB8000C84A1154C8480088C0F30721A4
:1015F000109800EB4000032202EB8000C24A115415
:10160000C3480178109800EB4000042202EB8000F0
:10161000BD4A1154BE480088C0F30721109800EB62
:101620004000052202EB8000B74A1154B948017806
:10163000109800EB4000062202EB8000B24A1154E1
:10164000B4480088C0F30721109800EB400007223F
:1016500002EB8000AC4A1154AE488178109800EB40
:101660004000082202EB8000A74A1154A948408894
:10167000C0F30721109800EB4000092202EB800024
:10168000A14A04E0C3E334E002E1BEE330E01154D8
:10169000A0480179109800EB40000A2202EB80007C
:1016A000994A11549B488088C0F30721109800EB99
:1016B00040000B2202EB8000934A11541298401C08
:1016C00012901098401C10901098142810D1119866
:1016D000C0EB0010002101EB0010F02201460E903B
:1016E000894806F05FFC1198401C11900020109072
:1016F0008CE38349129888427ED2874800680BF0B9
:1017000017FEC1B21098C0EBC000002202EB4000EF
:10171000824A1154804800680BF00AFEC0F307218A
:101720001098C0EBC000012202EB40007B4A11542C
:101730007B4800680BF0FCFDC1B21098C0EBC00004
:10174000022202EB4000754A1154754800680BF004
:10175000EFFDC0F307211098C0EBC000032202EB9D
:1017600040006E4A11546F4800680BF0E1FDC1B2B1
:101770001098C0EBC000042202EB4000674A1154ED
:10178000684800680BF0D4FDC0F307211098C0EB47
:10179000C000052202EB4000604A11544F48017816
:1017A0001098C0EBC000062202EB40005B4A1154C7
:1017B0004A480088C0F307211098C0EBC0000722F8
:1017C00002EB4000554A1154444881781098C0EB10
:1017D000C000082202EB4000504A11543F484088A4
:1017E000C0F307211098C0EBC000092202EB4000B3
:1017F0004A4A1154394800E049E001791098C0EB99
:10180000C0000A2202EB4000444A11543348808849
:10181000C0F307211098C0EBC0000B2202EB400080
:101820003E4A11542B4800680BF082FDC1B210985B
:10183000C0EBC0000C2202EB4000384A115425488E
:1018400000680BF075FDC0F307211098C0EBC000D5
:101850000D2202EB4000314A11541298401C1290A4
:101860001098401C10901098122810D11198C0EBBD
:101870008010002101EB8000FC2201460E902748D9
:1018800006F090FB1198401C119000201090BDE2D2
:101890001B49129888427DD2234800680E900BF0B5
:1018A00047FDC1B2109800EB800202EBC00000229D
:1018B00002EB40001D4A11541B4839E05000002043
:1018C0004C0000205800002054000020E8000020B8
:1018D000BC010020C4010020A40100201C01002044
:1018E0002401002020204D53353631315F416C7486
:1018F0006974756465203D25666D0D0A0000000061
:1019000078AA0A006C000020000500206E0000206C
:101910007000002078000020AC000020FC050020B2
:10192000B0000020B40000200C04002006070020B6
:1019300000680E900BF0FCFCC0F30721109800EB40
:10194000800202EBC000012202EB4000FE4A11546B
:10195000FE4840680E900BF0EBFCC1B2109800EB13
:10196000800202EBC000022202EB4000F64A115452
:10197000F64840680E900BF0DBFCC0F3072110988E
:1019800000EB800202EBC000032202EB4000EE4AB3
:10199000115400E061E1ED4880680E900BF0C8FC46
:1019A000C1B2109800EB800202EBC000042202EBEF
:1019B0004000E54A1154E54880680E900BF0B8FCF1
:1019C000C0F30721109800EB800202EBC000052253
:1019D00002EB4000DC4A1154DD480178109800EB1E
:1019E000800202EBC000062202EB4000D64A1154EE
:1019F000D7480088C0F30721109800EB800202EB63
:101A0000C000072202EB4000CF4A1154D048817831
:101A1000109800EB800202EBC000082202EB4000AD
:101A2000C94A1154CA484088C0F30721109800EBF6
:101A3000800202EBC000092202EB4000C24A1154AE
:101A4000C3480179109800EB800202EBC0000A2223
:101A500002EB4000BC4A1154BD488088C0F3072106
:101A6000109800EB800202EBC0000B2202EB40005A
:101A7000B54A1154B74800680BF05AFCC1B210982F
:101A800000EB800202EBC0000C2202EB4000AE4AE9
:101A90001154B04800680BF04BFCC0F307211098BC
:101AA00000EB800202EBC0000D2202EB4000A64AD0
:101AB0001154A94800680BF03BFCC1B2109800EB30
:101AC000800202EBC0000E2202EB40009E4A11543D
:101AD000A14800680BF02CFCC0F30721109800EB24
:101AE000800202EBC0000F2202EB4000964A115424
:101AF0009A4800680BF01CFCC1B2109800EB800201
:101B000002EBC000102202EB40008F4A11549348B0
:101B100000680BF00DFCC0F30721109800EB800269
:101B200002EBC000112202EB4000874A11548C489E
:101B300000680BF0FDFBC1B2109800EB800202EBD5
:101B4000C000122202EB40007F4A11548448006812
:101B50000BF0EEFBC0F30721109800EB800202EBC4
:101B6000C000132202EB4000774A11547D48006800
:101B70000BF0DEFBC1B2109800EB800202EBC0005C
:101B8000142202EB4000704A1154764800680BF0B2
:101B9000CFFBC0F30721109800EB800202EBC000DE
:101BA000152202EB4000684A11546F4800680BF0A0
:101BB000BFFBC1B2109800EB800202EBC0001622FE
:101BC00002EB4000604A1154674800680BF0B0FB1C
:101BD000C0F30721109800EB800202EBC00017222F
:101BE00002EB4000584A1154604800680BF0A0FB1B
:101BF000C1B2109800EB800202EBC000182202EB89
:101C00004000514A1154594800680BF091FBC0F351
:101C10000721109800EB800202EBC000192202EBB2
:101C20004000494A11541298401C12901098401CD0
:101C300010901098092810D175211198484300215F
:101C400001EB4000EA2201460E903F4806F0AAF957
:101C50001198401C119000201090D7E04449129830
:101C600088426FD2434800680E900BF061FBC1B20E
:101C7000109800EB4000002202EB80003E4A115415
:101C80003C4800680E900BF053FBC0F307211098FE
:101C900000EB4000012202EB8000374A1154354826
:101CA00040680E900BF044FBC1B2109800EB40006E
:101CB000022202EB8000304A11542E4840680E90F8
:101CC0000BF036FBC0F30721109800EB4000032215
:101CD00002EB8000284A1154264880680E900BF0D1
:101CE00027FBC1B2109800EB4000042202EB8000F9
:101CF000214A11541F4880680E900BF019FBC0F365
:101D00000721109800EB4000052202EB80001A4AE0
:101D100011541A480178109800EB4000062202EB9B
:101D20008000154A115415480088C0F30721109807
:101D300000EB4000072202EB80000F4A11540F48CD
:101D400081781DE060E00000060700200C04002000
:101D50001C010020100100201401002018010020A7
:101D6000AC000020B0000020B4000020C40100201E
:101D700078AA0A004C04002000050020780000200A
:101D8000109800EB4000082202EB8000754A1154C5
:101D900075484088C0F30721109800EB40000922E5
:101DA00002EB80006F4A11546F480179109800EBE4
:101DB00040000A2202EB80006A4A11546A48808877
:101DC000C0F30721109800EB40000B2202EB8000CB
:101DD000644A11541298401C12901098401C1090A4
:101DE0001098142810D11198C0EB0010002101EBBD
:101DF0000010F02201460E905A4806F0D3F81198D0
:101E0000401C11900020109000E000BF00BF574818
:101E10000068401C0BF010FB0E90554800680BF05A
:101E20000BFB54490C900BF04FFB0D900E990BF0EF
:101E300017FC66D24E4800680BF0FEFA4D490D9033
:101E40000BF042FB0E900BF08FFA484908604A48AD
:101E50008069401C4849886101F063FC4348006880
:101E6000642815D245480168454800680BF0F6F82B
:101E700009900BF0C7F80022424BCDE90A010AF0A5
:101E8000E7FDCDE90C010AF049FB3D49086038E067
:101E90003B480168394800680BF054F90E9001F096
:101EA00011FD3949086001F02FFD384800683849B4
:101EB000384A127841F822002D4800680BF0BCFA2D
:101EC00035490E900BF000FB3449324A127841F844
:101ED000220030480078401C2E49087008460078DF
:101EE000072807D1002008702D48007810B901207C
:101EF0002B4908702A48007818B101F008FE01F05B
:101F000041FD28480068401C0BF096FA0E901848D6
:101F100000680BF091FA20490C900BF0D5FA0D9067
:101F20000E990BF09DFB1BD2114800680BF084FA50
:101F300019490D900BF0C8FA0E900BF015FA1949DB
:101F400008600D48C069401C0B49C861159838B13C
:101F50001548006808B9012000E000201249086017
:101F6000FEF77BBC00050020780000201C0000204C
:101F7000000000206F12833A18040020F0000020B7
:101F8000F80000200000E03FEC000020A401002049
:101F9000580400207C02002017B7D13874040020B8
:101FA0007D020020240000208881224200BF1A48C0
:101FB00001684FF0E0208269174800688142F6D13D
:101FC0001648006800EB4003C3EBC010C2EBC00032
:101FD000124B1B68B0FBF3F001EB4103C3EBC113E1
:101FE00000EBC300704700B585B0684606F0BFFD42
:101FF0000B490098B0FBF1F00849086005B000BD3E
:102000007047704700BFFEE700BFFEE700BFFEE776
:102010007047704770477047AC020020B002002044
:1020200040420F000CB50020019000906C48006801
:1020300040F480306A49086000BF6948006800F4D5
:10204000003000900198401C0190009818B9019848
:10205000B0F5A06FF1D16248006800F4003010B113
:102060000120009001E0002000900098012843D159
:102070005C48006840F010005A4908600846006853
:1020800020F0030008600846006840F00200086085
:1020900053484068524948600846406848600846CE
:1020A000406840F4806048600846406820F47C1036
:1020B00048600846406840F4E810486008460068F8
:1020C00040F08070086000BF4548006800F0007074
:1020D0000028F9D04248406820F003004049486099
:1020E0000846406840F00200486000BF3C48406835
:1020F00000F00C000828F9D10CBD10B5FFF792FFD5
:1021000010BD10B53648006840F001003449086041
:10211000084640683449084031494860084600682C
:10212000324908402E4908600846006820F48020A3
:1021300008600846406820F4FE0048604FF41F0025
:102140008860FFF7DAFF4FF000602949086010BD92
:1021500010B5002100200022214B5B6803F00C0128
:1021600021B1042906D0082928D107E0214B224CAF
:10217000236027E01F4B204C236023E0184B5B6853
:1021800003F47010164B5B6803F48032022303EBF8
:10219000904022B9194B4343174C23600DE0104B7C
:1021A0005B6803F4003323B1144B4343124C2360A8
:1021B00003E0104B4343104C236003E00D4B0E4CE7
:1021C000236000BF00BF064B5B68C3F303130C4CD6
:1021D000E15C094B1B68CB40074C236010BD00003D
:1021E00000100240002002400000FFF8FFFFF6FE52
:1021F00008ED00E000127A00B402002000093D0062
:10220000B802002008B50121242006F01DFD4FF47E
:102210008070ADF8000010208DF8030003208DF8C9
:1022200002006946094806F053FA4FF480710748E6
:1022300006F0FBFA0420ADF800006946044806F0F9
:1022400047FA0421024806F0F0FA08BD00080140F0
:102250000014014002468A4201DD084670471046DC
:10226000FCE703469A4203DA8B4201DA18467047CC
:10227000994201DC0846FAE71046F8E730B5B0F5B8
:10228000FA6F01DD4FF4FA60B1F5FA6F01DD4FF43A
:10229000FA61B2F5FA6F01DD4FF4FA62B3F5FA6F45
:1022A00001DD4FF4FA63B0F57A7F01DA4FF47A700A
:1022B000B1F57A7F01DA4FF47A71B2F57A7F01DAFB
:1022C0004FF47A72B3F57A7F01DA4FF47A73FE4DE8
:1022D00028802D1D29802D1D2A802D1D2B8030BD8D
:1022E00070B5044640F2DC512046FFF7B3FF0546C7
:1022F0006FF00E020F21F548B0F90000FFF7B1FFB3
:1023000005446FF081028221F148B0F90000FFF727
:10231000A8FF05446FF03B023C21EE48B0F90000F5
:10232000FFF79FFF2E18EC4800680BF001F805B28C
:102330006FF0160217212846FFF793FF0644E7487F
:1023400000680AF0F5FF05B26FF009020A2128467D
:10235000FFF787FF35186FF01D021E21E048B0F926
:102360000000FFF77EFF284400B2DE49088040F2FB
:10237000DC512046FFF76EFF05466FF00E020F217D
:10238000D948B0F90000FFF76CFF05446FF08102F7
:102390008221D648B0F90000FFF763FF05446FF0D3
:1023A0003B023C21D248B0F90000FFF75AFF2E183B
:1023B000C94800680AF0BCFF05B26FF01602172189
:1023C0002846FFF74EFF0644C44800680AF0B0FFF5
:1023D00005B26FF009020A212846FFF742FF3518BF
:1023E0006FF01D021E21C348B0F90000FFF739FF4E
:1023F000284400B2C049088040F2DC512046FFF773
:1024000029FF05466FF00E020F21BC48B0F900000D
:10241000FFF727FF05446FF081028221B848B0F929
:102420000000FFF71EFF05446FF03B023C21B5485A
:10243000B0F90000FFF715FF2E18A74800680AF052
:1024400077FF05B26FF0160217212846FFF709FF44
:102450000644A24800680AF06BFF05B26FF009025B
:102460000A212846FFF7FDFE35186FF01D021E21D8
:10247000A548B0F90000FFF7F4FE284400B2A349D4
:10248000088040F2DC512046FFF7E4FE05466FF07D
:102490000E020F219E48B0F90000FFF7E2FE05444E
:1024A0006FF0810282219B48B0F90000FFF7D9FE4E
:1024B00005446FF03B023C219748B0F90000FFF75C
:1024C000D0FE2E18844800680AF032FF05B26FF083
:1024D000160217212846FFF7C4FE06447F4800680D
:1024E0000AF026FF05B26FF009020A212846FFF71D
:1024F000B8FE35186FF01D021E218848B0F90000A3
:10250000FFF7AFFE284400B2854908800846B0F9BD
:1025100000307E48B0F900207748B0F900107148CB
:10252000B0F90000FFF7AAFE70BD2DE9F0477D4825
:1025300001687D4800680AF0C7FF06467B480168CD
:102540007B4800680AF0C0FF80467A4801687A48F4
:1025500000680AF0B9FF074641460AF07FFD0546CC
:1025600031460AF07BFD04460AF0E2FE00B259490A
:1025700008806C4801686C4800680AF0A5FF804636
:102580006A4801686A4800680AF09EFF81466A4806
:10259000006880F000476748016838460AF094FFF9
:1025A000064649460BF0C8F8054641460AF056FD76
:1025B00004460AF0BDFE00B24D4908805948016842
:1025C000594800680AF080FF80465848016858481A
:1025D00000680AF079FF81465748006880F000479C
:1025E0005448016838460AF06FFF064649460AF02B
:1025F00035FD054641460BF09FF804460AF098FE6B
:1026000000B24049088047480168474800680AF01E
:102610005BFF064645480168454800680AF054FFDC
:10262000074644480168444800680AF04DFF804668
:1026300039460BF081F8054631460BF07DF804462B
:102640000AF076FE00B234490880BDE8F0872DE933
:10265000F0473A49B1F904000AF0A6FE07463848A7
:10266000016838460AF030FF05463449B1F90200E6
:102670000AF09AFE81463348016848460AF024FF72
:1026800007462E49B1F900000AF08EFE81462E4819
:10269000016848460AF018FF804639460AF0DEFC19
:1026A000064629460AF0DAFC04460AF041FE00B26A
:1026B000074908802149B1F904000AF075FE074670
:1026C0001F480168384641E034040040CA00002039
:1026D000C2000020BA000020700200206C0200201E
:1026E000D200002074020020CC000020C400002092
:1026F000BC000020D400002076020020CE00002084
:10270000C6000020BE000020D60000207802002075
:10271000D0000020C8000020C0000020D800002009
:102720007A020020E40200200C010020E0020020D8
:1027300008010020DC020020040100202401002008
:10274000FC020020F8020020F40200200AF0BCFE87
:102750000546F649B1F902000AF026FE8146F44822
:10276000016848460AF0B0FE0746F049B1F900108A
:1027700048420AF019FE8146EE48016848460AF0D0
:10278000A3FE804639460AF0D7FF064629460AF0DE
:1027900065FC04460AF0CCFD00B2E7490880E34935
:1027A000B1F904000AF000FE0746E4480168384623
:1027B0000AF08AFE0546DD49B1F902000AF0F4FD8F
:1027C0008146DB48016848460AF07EFE0746D74945
:1027D000B1F9001048420AF0E7FD8146D54801688A
:1027E00048460AF071FE804639460AF037FC064634
:1027F00029460AF0A1FF04460AF09AFD00B2D0492A
:102800000880CA49B1F904000AF0CEFD0746CB485A
:10281000016838460AF058FE0546C449B1F902007D
:102820000AF0C2FD8146C248016848460AF04CFEE3
:102830000746BE49B1F900000AF0B6FD8146BD4821
:10284000016848460AF040FE804639460AF074FFA7
:10285000064629460AF070FF04460AF069FD00B2F8
:10286000B8490880BDE8F0872DE9F041B6494868CD
:10287000B64909680AF028FE0546B3490868B44914
:1028800009680AF021FE064629460AF0E7FB0446DD
:102890000AF04EFD00B2AF490880AB494868AB4929
:1028A00009680AF011FE0746A748006880F0004654
:1028B000A748016830460AF007FE054639460AF087
:1028C0003BFF04460AF034FD00B2A34908809E494C
:1028D00048689E4909680AF0F7FD07469A4800686B
:1028E00080F000469A48016830460AF0EDFD054642
:1028F00039460AF0B3FB04460AF01AFD00B29749C4
:10290000088091494868914909680AF0DDFD05464B
:102910008D4908688E4909680AF0D6FD06462946A1
:102920000AF00AFF04460AF003FD00B28C49088051
:10293000BDE8F0812DE9F0410025002600278949F6
:10294000B1F90010884AB2F90020881A0AF02CFD6B
:102950008649874A127841F822008249B1F902106B
:10296000814AB2F90220881A0AF01EFD8149804A84
:10297000127841F822007B49B1F904107A4AB2F981
:102980000420881A0AF010FD7B49794A127841F830
:102990002200002416E0754850F8241028460AF05A
:1029A0005DFB0546734850F8241030460AF056FB8C
:1029B0000646714850F8241038460AF04FFB074687
:1029C000601CC4B2062CE6DB6C4928460AF0BAFB50
:1029D00080460AF0ADFC00B269490880674930467C
:1029E0000AF0B0FB80460AF0A3FC00B264494880BC
:1029F000624938460AF0A6FB80460AF099FC00B20C
:102A00005F4988805A480078401C59490870084638
:102A10000078062801D100200870BDE8F08170B56B
:102A200000255849B1F90010574AB2F90020881A18
:102A30000AF0BAFC5549564A127841F8220000249F
:102A400008E0524850F8241028460AF007FB0546D3
:102A5000601CC4B2062CF4DB484928460AF072FB1D
:102A600006460AF065FC00B24A49088048480078EA
:102A7000401C4749087008460078062801D100200C
:102A8000087070BD2DE9F04100250026002742485E
:102A900000684249424A127841F8220041480068E1
:102AA00041493F4A127841F82200404800684049B5
:102AB0003B4A127841F82200002416E0374850F8CB
:102AC000241028460AF0CAFA0546374850F8241060
:102AD00030460AF0C3FA0646354850F82410384606
:102AE0000AF0BCFA0746601CC4B2062CE6DB234998
:102AF00028460AF027FB2F490860204930460AF093
:102B000021FB2D4908601D4938460AF01BFB2B4963
:102B1000086023480078401C214908700846007866
:102B2000062801D100200870BDE8F08124010020B2
:102B3000F8020020F4020020C4000020FC02002063
:102B4000C6000020C80000204C0400201003002014
:102B50000C030020CA000020CC000020CE00002082
:102B6000D000002078000020860000200C08002003
:102B700028030020240800203C0800200000C0405A
:102B80001C010020700000209C0000205408002040
:102B90002903002022010020600000206C08002092
:102BA0002A03002064000020840800206800002020
:102BB0009C080020AC000020B0000020B4000020E1
:102BC00070B5E8480068E8490860E8480168E848E6
:102BD00000680AF043FAE6490860E6480168E448FC
:102BE00000680AF03BFA04462146E14800680AF012
:102BF000A9FAE1490860E148B0F900000AF0D4FB05
:102C00000646D948016830460AF096FD0546DA487E
:102C1000016828460AF058FC0446D348016820465B
:102C20000AF01CFACF490860D34801684FF07E5083
:102C30000AF082FD0446CE48016820460AF044FCB2
:102C4000CB49086070BD70B5CD480068CD490860BB
:102C5000CD480168CD4800680AF000FACB49086009
:102C6000CB480168C94800680AF0F8F904462146D3
:102C7000C64800680AF066FAC6490860C648B0F956
:102C800000000AF091FB0646BE48016830460AF093
:102C900053FD0546BF48016828460AF015FC044666
:102CA000B848016820460AF0D9F9B5490860B94822
:102CB00001684FF07E500AF03FFD0446B3480168BA
:102CC00020460AF001FCB149086070BD70B5B348F8
:102CD0000068B3490860B3480168B34800680AF067
:102CE000BDF9B1490860B1480168AF4800680AF011
:102CF000B5F904462146AC4800680AF023FAAC490D
:102D00000860AC48B0F900000AF04EFB0646A44843
:102D1000016830460AF010FD0546A54801682846BE
:102D20000AF0D2FB04469E48016820460AF096F954
:102D30009A4908609E4801684FF07E500AF0FCFCFA
:102D400004469948016820460AF0BEFB964908608F
:102D500070BD70B598480078002845D09748006845
:102D600020F0004420460AF04DF905460022944B1D
:102D700009F032FE38D29348006820F00044204623
:102D80000AF040F9054600228D4B09F025FE2BD2B2
:102D90008D48006820F000444FF07E5120460AF034
:102DA0005FFB21D28948006820F000444FF07E513B
:102DB00020460AF055FB17D28548006885490988E6
:102DC000884211D2834800888349096888420BD21F
:102DD0008248006880F000448148016820460AF07B
:102DE00073FB8049086002E000207E49086070BDE6
:102DF0002DE9FE4F77490988A1F57A700AF0D4FAD7
:102E00000290704800680AF0FDF80746764A774B52
:102E100009F01EFE054609F081FB834609F004F91E
:102E20000090664800680AF0EDF807466E4A6F4B5E
:102E300009F00EFE054609F071FB834609F0F4F82F
:102E4000044600990AF040FB814662490988A1F5D1
:102E50007A700AF0A9FA494601900AF073F982469D
:102E600002990AF069FC62490860BDE8FE8F2DE90D
:102E7000F041002400BF52E05E4850F824005E4953
:102E800041F824005D4A52F824105D4A52F82400AB
:102E90000AF0E4F85A4941F824005A4A52F824103A
:102EA000574A52F824000AF0D9F80546544951F817
:102EB000240029460AF046F9534941F824005349B1
:102EC00031F914000AF070FA07464B4850F8241004
:102ED00038460AF031FC06464B4850F8241030467C
:102EE0000AF0F2FA0546444850F8241028460AF041
:102EF000B5F8404941F82400434850F824104FF0F9
:102F00007E500AF019FC05463D4850F8241028462A
:102F10000AF0DAFA3A4941F82400601CC4B2032CE2
:102F2000AADBBDE8F0813A48B0F9000039490880D1
:102F30003948B0F90000394908803948B0F9000033
:102F4000384908803848B0F9000038490880002026
:102F50002F4908803049088031490880324908806B
:102F600070470000DC010020E0010020D4010020B7
:102F7000E4010020D0010020D801002070000020D2
:102F8000FC01002000020020F401002004020020C7
:102F9000F0010020F80100206E0000201C0200203B
:102FA0002002002014020020240200201002002031
:102FB000180200206C0000209A020020100100205E
:102FC0000000E03F140100206400002060000020A9
:102FD0008C02002054000020880200201C030020E6
:102FE000C40100206C0200205F40D42247DF913FE3
:102FF00070020020000400200C0400205402002075
:103000006002002048020020F40300201C01002080
:10301000DA000020D2000020DC000020D4000020D4
:10302000DE000020D6000020E0000020D8000020B4
:103030007FB505460C460121082005F012FEADF8CB
:103040000850ADF804400020ADF80A00ADF80600C5
:1030500001A9F94806F0A2F901221146F64806F046
:1030600014FD32208DF8000001208DF801000020B1
:103070008DF8020001208DF80300684606F051F833
:103080000121ED4806F0E6FC7FBD10B50121EA48BC
:1030900006F0A9FF40B10121E74806F0B5FFE74877
:1030A0000068401CE549086010BD30B589B0054690
:1030B0000C460121042005F0D4FD0121082005F073
:1030C000C3FD4FF47070ADF8140028208DF8170080
:1030D00005A9DB4805F0FCFA4FF47071D84805F0FB
:1030E000A6FBADF80C50ADF808400020ADF80E007E
:1030F000ADF80A0002A9D34806F050F90020ADF857
:103100001800ADF81A000120ADF81C000020ADF841
:103110001E00ADF8200006A9CA4806F0D2FB042024
:10312000ADF818000020ADF81A000120ADF81C0021
:103130000020ADF81E00ADF8200006A9C14806F039
:10314000C0FB0820ADF818000020ADF81A000120DF
:10315000ADF81C000020ADF81E00ADF8200006A957
:10316000B84806F0AEFB0C20ADF818000020ADF812
:103170001A000120ADF81C000020ADF81E00ADF8CB
:10318000200006A9AF4806F09CFB1E208DF8040025
:1031900000208DF805008DF8060001208DF807004D
:1031A00001A805F0BEFF01221E21A64806F06DFC15
:1031B0000121A44806F04EFC09B030BD10B5A2486C
:1031C000007800F0800000284FD102219D4806F0D1
:1031D0000AFF002849D002219A4806F015FF9A48B4
:1031E000007800F0400080B3964806F0DDFE974975
:1031F00008800846008896490988884204DA4FF614
:10320000FF709449086002E00020924908608F48EE
:1032100000888F490988401A8E49096808448E49F8
:10322000086008460068B0F5FA6F02D208460068E8
:1032300001E08A48006889490860002082490870D6
:103240000021804806F0B8FD0FE0FFE77D4806F05A
:10325000ABFE7F4908807C48007840F040007A4906
:1032600008700221774806F0A7FD7D48007800F03D
:10327000800000284FD10421724806F0B4FE0028D7
:1032800049D004216F4806F0BFFE7548007800F071
:10329000400080B36B4806F08AFE724908800846F9
:1032A000008871490988884204DA4FF6FF706F4937
:1032B000086002E000206D4908606A4800886A4999
:1032C0000988401A6949096808446949086008463C
:1032D0000068B0F5FA6F02D20846006801E0654860
:1032E00000686449086000205D4908700021554865
:1032F00006F074FD0FE0FFE7524806F058FE5A4909
:1033000008805748007840F0400055490870022175
:103310004C4806F063FD5848007800F08000002813
:103320004FD10821474806F05EFE002849D0082109
:10333000444806F069FE5048007800F0400080B331
:10334000404806F037FE4D490880084600884C4941
:103350000988884204DA4FF6FF704A49086002E0A3
:103360000020484908604548008845490988401AB6
:103370004449096808444449086008460068B0F5B3
:10338000FA6F02D20846006801E0404800683F49F1
:10339000086000203849087000212A4806F038FDEE
:1033A0000FE0FFE7274806F005FE35490880324860
:1033B000007840F04000304908700221214806F0B2
:1033C00027FD3348007800F08000002832D110211A
:1033D0001C4806F008FE68B310211A4806F014FED7
:1033E0002B48007800F0400028B3164806F0E5FDB1
:1033F000284908800846008827490988884204DA55
:103400004FF6FF702549086002E00020234908605C
:103410002048008820490988401A20490968084442
:103420001F49086008460068B0F5FA6F3AD20846AE
:10343000006839E051E041E0000C0040000000204D
:10344000000C0140000800402C0300203003002045
:103450002E03002054030020440300204C000020D1
:1034600032030020360300203403002058030020DC
:103470004803002050000020380300203C030020B7
:103480003A0300205C0300204C030020540000207D
:103490003E03002042030020400300206003002080
:1034A000500300200D4800680C49086000200C49BA
:1034B000087000210B4806F0C5FC0EE0094806F034
:1034C0007CFD094908800648007840F04000044926
:1034D00008700221034806F0B5FC10BD580000201A
:1034E0003E030020000800404003002030B589B0B2
:1034F00005460C460121022005F0B3FB01211120F5
:1035000005F0A2FB0121294805F0B3F94FF47070D2
:10351000ADF8200018208DF8230003208DF822003C
:1035200008A9234805F0D4F8ADF81850ADF81440B8
:103530000020ADF81A00ADF8160005A91D4805F0E9
:103540002DFF6020ADF804000120ADF8060000203A
:10355000ADF80A00ADF80C0001A9164805F05BFFB4
:103560000821144806F0A6FB01A9124805F095FFB2
:103570000821104806F0A7FB01A90E4805F0DAFF64
:1035800008210C4806F0ACFB01A90A4806F01DF81A
:103590000821084806F0ADFB0121064806F05AFB59
:1035A0000121044806F056FA09B030BD000C1A009B
:1035B000001001400004004010B500F0C7FBEE20F1
:1035C00000F07CFC00F007FC1E2000F077FC00F00F
:1035D00002FC00F0DFFB10BD70B5012433E000F009
:1035E000B5FBEE2000F06AFC00F0F5FBA02101EB3A
:1035F0004401C8B200F062FC00F0EDFB00F0CAFB31
:10360000052004F06CFD00F0A1FBEF2000F056FC5B
:10361000012004F064FD00F0DEFB012000F07DFCE1
:103620000546012004F05BFD002000F076FC064614
:1036300000F0B0FB052004F076FD46EA0520FE49C7
:1036400021F81400641C062CC9DDFB48008808B969
:10365000012070BD0020FCE738B50446002500F0CD
:1036600075FBEE2000F02AFC00F0B5FB204600F0D0
:1036700025FC00F0B0FB00F08DFB092004F053FDA9
:10368000282004F02CFD00F061FBEE2000F016FC79
:1036900000F0A1FB002000F011FC00F09CFB00F00A
:1036A00079FB00F053FBEF2000F008FC00F093FBE7
:1036B000012000F032FC8DF80000012000F02DFC0C
:1036C0008DF80100002000F028FC8DF8020000F0C9
:1036D00061FB9DF8000001049DF8010001EB002052
:1036E0009DF802104518284638BD10B55820FFF740
:1036F000B3FFD2490860052004F0F1FCCE484089B0
:10370000CE490968A1EB0020CD490860CA488089EC
:10371000096848434FF4FA6101EBD050C949086089
:1037200010BD2DE9F0414820FFF796FFC64908601B
:10373000052004F0D4FCC04880880104BE480089FC
:10374000BF4A1268504301EBD0100021BF4A03C2A8
:10375000B9484088C103B848C088B94A1268504384
:1037600001EB10200021BA4A03C2B7480068083AAA
:1037700018CAA0FB032501FB035100FB0411500DE7
:1037800040EAC1234815B149D1E900219A1A60EBFA
:103790000100410441EAD230AE490860A9480068FE
:1037A000B0F5FA6F46DAA64800684043C017C11763
:1037B000A94A03C2A3480068A0F5FA60404340103C
:1037C00000EB8000C117A54A03C29E480068A0F51F
:1037D000FA604043801000EB8000C117A04A03C28A
:1037E000984800689F4988422FDA9648006800F29E
:1037F000DC50C0EBC0009349096801F2DC5148433A
:10380000C117964AD2E90032C0185141934A03C207
:103810008C48006800F2DC504043401000EB40014F
:1038200001EBC000C1178E4B0CCB801859418C4A5C
:1038300003C20AE00021884A116051600020874AD3
:1038400010605060864A116051607E48006882496D
:103850000968401A7B4908607C48D0E900207F490C
:10386000D1E90031D21A60EB01007849C1E90020AA
:103870007748D0E900307A49D1E900219A1A60EB03
:1038800001007349C1E900206F480068002550C954
:10389000A0FB041705FB047400FB0644480D40EA36
:1038A000C4256015694C12CC6D1A60EB0401E80B5D
:1038B00040EA4142C913104609F091FD6A49086087
:1038C000BDE8F0812DE9F0470446204608F022FDCE
:1038D0008146664909F0F8FD074608F063FC064694
:1038E0004FF07E5109F01EFF0546614801686148AE
:1038F00009F0EAFD8046294609F0E6FD5E490860C8
:1039000008460068BDE8F08770B55C4800685C490F
:1039100008605C4801685C48006809F09FFB5A49F0
:1039200008605A4801685848006809F097FB044647
:1039300021465548006809F005FC55490860504883
:1039400001684D48006809F0F7FE054650480168D7
:10395000284609F0B9FD044649480168204609F0A7
:103960007DFB464908604A4801684FF07E5009F0E7
:10397000E3FE044644480168204609F0A5FD42499B
:10398000086070BD70B5434800684349086043480B
:1039900001684348006809F061FB414908604148FB
:1039A00001683F48006809F059FB044621463C483D
:1039B000006809F0C7FB3C490860374801683B488C
:1039C000006809F0B9FE054637480168284609F045
:1039D0007BFD044630480168204609F03FFB2D4935
:1039E0000860314801684FF07E5009F0A5FE04469A
:1039F0002B480168204609F067FD2949086070BD21
:103A000070B52B4800682B4908602B4801682B488B
:103A1000006809F023FB2949086029480168274804
:103A2000006809F01BFB044621462448006809F0A1
:103A300089FB2449086047E0E40300203C010020A2
:103A400040010020F4000020380100203001002057
:103A5000500100205801002060010020700100206A
:103A60007801002024FAFFFFF000002041D3423EFD
:103A7000840100207B627046E8000020A001002045
:103A8000A401002098010020A8010020940100203A
:103A90009C010020B8010020BC010020B0010020E2
:103AA000C0010020AC010020B4010020C4010020AE
:103AB0003C0200204002002034020020440200208A
:103AC00030020020380200208448016884480068E1
:103AD00009F032FE054683480168284609F0F4FCE7
:103AE00004467E480168204609F0B8FA7E4908601D
:103AF0007C4801684FF07E5009F01EFE04467B486A
:103B00000168204609F0E0FC7849086070BD2DE9A5
:103B1000F05F774A5168106809F00EFE8046754ADA
:103B20005168106809F008FE8146734909F0CCFC21
:103B30000746414609F006FB05466D4A91689069C3
:103B400009F0FAFD82466B4A9168906909F0F4FD2C
:103B500083464FF0834109F0B7FC8146514609F096
:103B6000F1FA0746624AD168506909F0E5FD8246DC
:103B7000604AD168506909F0DFFD83465F4909F06A
:103B8000A3FC8146514609F0DDFA8046394609F02A
:103B900065FA0646294609F061FA04464FF0745169
:103BA00009F092FC56490860BDE8F09F2DE9F05FEE
:103BB000544A5168106809F0BFFD8046524A516866
:103BC000106809F0B9FD81464B4909F07DFC0746B4
:103BD000414609F0B7FA05464A4A9168906909F0EA
:103BE000ABFD8246484A9168906909F0A5FD83467D
:103BF0004FF0834109F068FC8146514609F0A2FA72
:103C00000746404AD168506909F096FD82463E4A0F
:103C1000D168506909F090FD8346384909F054FC99
:103C20008146514609F08EFA8046394609F016FA67
:103C30000646294609F012FA0446344909F044FCC4
:103C4000334908602F4A5168106809F075FD06462F
:103C5000304A5168106809F06FFD8146264909F025
:103C600033FC0546314609F06DFA8046254A9168D5
:103C7000906909F061FD8246264A9168906909F0D1
:103C80005BFD83464FF0834109F01EFC814651469F
:103C900009F058FA05461B4AD168506909F04CFDF5
:103CA00082461C4AD168506909F046FD8346134993
:103CB00009F00AFC8146514609F044FA06462946B5
:103CC00009F0CCF90446414609F0C8F907460F4906
:103CD00009F0FAFB0E494860BDE8F09F4002002061
:103CE000F0000020380200203C02002044020020A6
:103CF00074040020580400200000C040000020414F
:103D0000C4010020E4040020900400200AD7A33955
:103D100040040020AC04002008B50121042004F078
:103D200093FF4FF4C050ADF8000010208DF8030051
:103D300003208DF802006946914804F0C9FC012077
:103D4000904908609049C1F8AC0108BD10B58C4895
:103D5000001D006820F470408949091D086008466C
:103D6000006840F44050086001208649091F08603F
:103D70008549C1F8B001042004F0B1F9002081495F
:103D8000091F0860042004F0AAF900207E49C1F848
:103D9000B00110BD10B57A48001D006820F47040D5
:103DA0007749091D08600846006840F440500860E3
:103DB0000020744908607449C1F8AC01042004F083
:103DC0008EF901206F4908606F49C1F8AC010420E9
:103DD00004F085F910BD10B500246948001D006885
:103DE00020F470406649091D08600846006840F4E8
:103DF0000040086001206349091F086004F06FF962
:103E000001206149C1F8B00104F069F907E0601CC4
:103E1000C4B2FA2C03DDFFF7BDFF012010BD5948E5
:103E2000843800680028F2D15649086000BFF5E7E1
:103E300010B50020534908605148001D006820F467
:103E400070404F49091D08600846006840F4405022
:103E5000086000204C49C1F8AC01022004F03FF991
:103E6000012048490860022004F039F90020464941
:103E7000C1F8B00110BD10B50020424908604048AB
:103E8000001D006820F470403D49091D0860084687
:103E9000006840F44050086001203B49C1F8AC0183
:103EA000022004F01CF9012036490860022004F0C9
:103EB00016F900203449C1F8B00110BD70B50446B0
:103EC0002F48001D006820F470402D49091D08602E
:103ED0000846006840F44050086000202949086006
:103EE000002517E0E0092749091F08606006040E55
:103EF000022004F0F4F801202349C1F8B0010220A7
:103F000004F0EDF800201F490860022004F0E7F8F3
:103F1000681CC5B2082DE5DB70BD70B505460024F0
:103F20001748001D006820F470401549091D0860FD
:103F30000846006840F400400860002616E00020B3
:103F400010490860022004F0CAF801200E49C1F8A7
:103F5000B0016006040E0B488438006808B1601C8C
:103F6000C4B2012004F0BBF8701CC6B2082EE6DB18
:103F700015B9FFF780FF01E0FFF75AFF204670BD3B
:103F800000080140B00121420000214270B5054601
:103F90000C4600F0CDF9D02000F074FA00F005FADC
:103FA00018B100F0E3F9012070BD284600F06AFA6C
:103FB00000F0FBF9204600F065FA00F0F6F918B1C0
:103FC00000F0D4F90120EFE700F0D0F90020EBE792
:103FD00070B504460025BC2C01DB012510E0622CE5
:103FE00001DB02250CE02A2C01DB032508E0142C60
:103FF00001DB042504E00A2C01DB052500E0062591
:1040000029461A20FFF7C2FF70BD70B50446B4F50B
:104010007A7F01DD4FF47A74042C00DA04244FF423
:104020007A7090FBF4F0401EC5B229461920FFF7C4
:10403000ADFF0546264604EBD671C1F34F00FFF7EE
:10404000C7FF70BD70B5044600F072F9D02000F0D3
:1040500019FA00F0AAF9204600F014FA00F0A5F9C8
:1040600000F066F9D12000F00DFA00F09EF9002072
:1040700000F031FA054600F079F9284670BD10B518
:104080000446E006010E1C20FFF780FF10BD10B5AE
:104090000446E006010E1B20FFF778FF10BD10B5A7
:1040A00000F02DF980216B20FFF770FF642004F0F1
:1040B0003AF800216B20FFF769FF0320FFF7E7FFC5
:1040C0000020FFF7DCFF3220FFF79FFF00213820A0
:1040D000FFF75CFF00216A20FFF758FF0021232033
:1040E000FFF754FF80213720FFF750FF7520FFF7BF
:1040F000A9FF0446682C0BD101216B20FFF746FF76
:1041000000216C20FFF742FF3220FFF77EFF01E025
:10411000012010BD0020FCE72DE9F04106460F46C6
:1041200014461D4600F004F9002141EA4601C8B2D8
:1041300000F0A8F900F039F920B100F017F90120DA
:10414000BDE8F081384600F09DF900F02EF900F04E
:10415000EFF8012101EB4601C8B200F093F900F03D
:1041600024F90DE0012C04D1002000F0B4F92870EE
:1041700003E0012000F0AFF92870601EC4B26D1C8E
:10418000002CEFD100F0F2F80020D9E72DE9F84F2C
:104190006B46022241216820FFF7BEFF9DF8010017
:1041A0009DF8001040EA01200FFA80FA504608F00E
:1041B000FBFB804600224B4B08F09EFA06464A4A1B
:1041C0004A4B08F0DDF9044608F0A8F9834648494F
:1041D000584609F079F9044609F0AAF800B2BDE89A
:1041E000F88F2DE9FC4104460D4616466B46062223
:1041F00043216820FFF790FF0746BFB99DF80100F3
:104200009DF8001040EA012000B220809DF80300D4
:104210009DF8021040EA012000B228809DF80500B8
:104220009DF8041040EA012000B230803846BDE815
:10423000FC812DE9FC4104460D4616466B460622DC
:104240003B216820FFF768FF0746BFB99DF80100D2
:104250009DF8001040EA012000B220809DF8030084
:104260009DF8021040EA012000B228809DF8050068
:104270009DF8041040EA012000B230803846BDE8C5
:10428000FC812DE9F04105460E461746984600F0A0
:104290004FF8002141EA4501C8B200F0F3F800F000
:1042A00084F820B100F062F80120BDE8F0813046CA
:1042B00000F0E8F800F079F800240CE018F80400A9
:1042C00000F0E0F800F071F818B100F04FF80120AC
:1042D000EBE7601CC4B2BC42F0DB00F047F8002002
:1042E000E3E7000000407540A4703D0AD743424018
:1042F0000000C84210B5022003F0F1FE10BD08B561
:104300000121102004F0A0FC4FF4C050ADF80000D3
:1043100010208DF8030003208DF8020069468648BE
:1043200004F0D6F94FF4C051834804F07EFA08BD7A
:1043300010B58148406820F470407F4948600846C5
:10434000406840F44050486001207C4908607C4946
:10435000C1F8B001FFF7CEFF002078490860FFF7F1
:10436000C9FF00207649C1F8B00110BD10B57248F0
:10437000406820F47040704948600846406840F446
:104380004050486000206D49091D08606C49C1F823
:10439000AC01FFF7AFFF01206849091D08606849BB
:1043A000C1F8AC01FFF7A6FF10BD10B500246248AC
:1043B000406820F47040604948600846406840F416
:1043C0000040486001205D490860FFF793FF01202D
:1043D0005B49C1F8B001FFF78DFF07E0601CC4B274
:1043E000FA2C03DDFFF7C2FF012010BD53488038CF
:1043F00000680028F2D15149091D086000BFF4E7A8
:1044000010B500204D49091D08604B48406820F454
:104410007040494948600846406840F44050486050
:1044200000204749C1F8AC01FFF764FF0120434970
:10443000091D0860FFF75EFF00204149C1F8B00187
:1044400010BD10B500203D49091D08603A4840687C
:1044500020F47040384948600846406840F44050B5
:10446000486001203649C1F8AC01FFF743FF012045
:104470003249091D0860FFF73DFF00203049C1F8AF
:10448000B00110BD70B504462B48406820F4704060
:10449000294948600846406840F440504860002080
:1044A0002649091D0860002512E0E009234908603B
:1044B0006006040E01202249C1F8B001FFF71AFF7F
:1044C00000201E49091D0860FFF714FF681CC5B2D3
:1044D000082DEADB70BD70B505460024164840681B
:1044E00020F47040144948600846406840F4004099
:1044F0004860002615E000201049091D0860FFF7FC
:10450000F9FE01200E49C1F8B0016006040E0B4807
:104510008038006808B1601CC4B2FFF7EBFE701C65
:10452000C6B2082EE7DB15B9FFF78BFF01E0FFF7F6
:1045300067FF204670BD000000100140AC01224220
:104540000000224238B50446F74890F82400C0B174
:1045500014B10220009001E000200090F24A12689D
:10456000D17BF14A526810786B460122FFF789FE31
:1045700010B14FF0FF3038BD9DF80010EA4841748B
:1045800023E0E948807A10B94FF0FF30F3E724B117
:10459000E548407C08B10020EDE714B1012000900F
:1045A00001E000200090E04A1268D17BDE4A5268A8
:1045B00010786B460122FFF764FE10B14FF0FF3018
:1045C000D9E79DF80010D84841740020D3E738B5EA
:1045D00000241FE0D4480068C07AA04204D0D2482A
:1045E0000068407DA04200D112E0CF4949680878B8
:1045F0006B4601222146FFF78FFD10B14FF0FF30CF
:1046000038BD9DF800202146C8A005F0ADFE00BFD2
:10461000601CC4B2C44840680079A042DADC0020C3
:10462000EEE770B504460D46BF480068C07AA04268
:1046300004D0BD480068407DA04202D14FF0FF3059
:1046400070BDB94840680079A04202DC4FF0FF30ED
:10465000F6E7B549496808782B4601222146FFF75D
:104660005BFDEDE738B50446AF4890F82300A04263
:1046700001D1002038BD14B13020009001E00020AD
:104680000090A948807C20B19DF8000040F0020015
:104690000090A54890F8220020B19DF8000040F05D
:1046A00080000090A04A1268117D9F4A52681078DD
:1046B0006B460122FFF7E5FD10B14FF0FF30D9E75F
:1046C000994880F823400020D4E738B5044604F028
:1046D000700010B10120009005E014B1002000909E
:1046E00001E040200090904A1268917C8E4A526806
:1046F00010786B460122FFF7C4FD20B100218A48E3
:104700008172481E38BD9DF8000020F040018648A7
:1047100001730020009004F0400020B99DF80000D3
:1047200040F00400009004F0200020B99DF8000043
:1047300040F00200009004F0100020B99DF8000045
:1047400040F00100009004F0080020B99DF800003E
:1047500040F038000090744A1268D17C724A526866
:1047600010786B460122FFF78CFD20B100216E48C6
:104770008172481EC6E724B1082C02D00020FFF742
:1047800071FF6948847200210175322003F0CBFC6F
:104790000020B7E738B504466348807CA04201D1C9
:1047A000002038BD002C46D05F4A126811795E4A5D
:1047B000526810786B460122FFF7AEFC10B14FF043
:1047C000FF30EEE79DF8000020F020000090564AF0
:1047D00012681179544A526810786B460122FFF72B
:1047E00050FD10B14FF0FF30DBE7032003F09BFCDE
:1047F000022000904C4890F8220020B19DF8000063
:1048000040F080000090484890F8230020B19DF8C7
:10481000000040F030000090434A1268117D424A87
:10482000526810786B460122FFF72BFD002851D00B
:104830004FF0FF30B5E73C4A126811793A4A5268A6
:1048400010786B460122FFF767FC10B14FF0FF3084
:10485000A7E73548807A00F0010028B19DF80000F4
:1048600040F02000009004E09DF8000020F02000BF
:1048700000902D4A126811792B4A526810786B46C5
:104880000122FFF7FEFC10B14FF0FF3089E7032053
:1048900003F049FC244890F8220010B180200090D9
:1048A00001E000200090204890F8230020B19DF8FE
:1048B000000040F0300000901B4A1268117D1A4A37
:1048C000526810786B460122FFF7DBFC10B14FF005
:1048D000FF3066E714488474002062E708B5124888
:1048E000807A10B94FF0FF3008BD002000900E4ACA
:1048F0001268D17B0C4A526810786B460122FFF790
:10490000C0FC10B14FF0FF30EEE7074A1268517952
:10491000054A526810786B460122FFF7B2FC68B175
:104920004FF0FF30E0E700006403002025233578D6
:104930003A20252335780D0A00000000FB4A126852
:104940001179FA4A526810786B460122FFF799FCF8
:1049500010B14FF0FF30C7E7F44890F8240000286A
:1049600050D00C200090F14A12681179EF4A526839
:1049700010786B460122FFF784FC10B14FF0FF3036
:10498000B2E7C0200090E948807A00F0010020B131
:104990009DF8000040F020000090E44A1268117970
:1049A000E24A526810786B460122FFF76AFC10B1A8
:1049B0004FF0FF3098E7DD48407C10B102200090B6
:1049C00001E000200090D94A1268D17BD74A526892
:1049D00010786B460122FFF754FC10B14FF0FF3006
:1049E00082E700200090D14A12685179CF4A52687C
:1049F00010786B460122FFF744FC002855D04FF099
:104A0000FF3071E704200090C84A12681179C74A44
:104A1000526810786B460122FFF733FC10B14FF05B
:104A2000FF3061E7C148807C20B9C048807A00F03F
:104A3000010010B94020009001E060200090BB4AC6
:104A400012681179B94A526810786B460122FFF753
:104A500018FC10B14FF0FF3046E7322003F063FB43
:104A6000B248407C10B10120009001E0002000908D
:104A7000AE4A1268D17BAD4A526810786B4601226B
:104A8000FFF7FFFB10B14FF0FF302DE7A74A126888
:104A90005179A64A52681078A44B10330122FFF7CF
:104AA000F0FB10B14FF0FF301EE700201CE770B59F
:104AB0000446002624F001049C4890F8240008B124
:104AC000002070BD9948807A10B94FF0FF30F8E7A8
:104AD0009648057C807A2040944908740846007CFA
:104AE000A04202D04FF0FF3600E0002614B98F48F4
:104AF000007D18B10120FFF725FD02E00020FFF73F
:104B000021FD3CB1FFF7EAFE20B1884805744FF063
:104B1000FF30D6E73046D4E738B504468348807A7C
:104B200010B94FF0FF3038BDBC2C02DB01200090E3
:104B300015E0622C02DB0220009010E02A2C02DB40
:104B4000032000900BE0142C02DB0420009006E010
:104B50000A2C02DB0520009001E00620009073483B
:104B6000C07A9DF80010884201D10020DBE76F4A2F
:104B7000126891786D4A526810786B460122FFF7EF
:104B800080FB10B14FF0FF30CDE79DF80010674873
:104B9000C1720020C7E738B50446282C02DD4FF06B
:104BA000FF3038BDDCB90020FFF75CFD00208DF838
:104BB000000007208DF801005C4A1268917C5B4A76
:104BC000526810786B460222FFF75BFB10B14FF082
:104BD000FF30E6E70021554801750020E1E701209C
:104BE000FFF740FD20208DF80000012C06D10020A9
:104BF0008DF801000520FFF78FFF17E0052C06DC7C
:104C000001208DF801000520FFF786FF0EE0142C2F
:104C100006DC02208DF801000A20FFF77DFF05E089
:104C200003208DF801001420FFF776FF9DF80100A6
:104C3000072101EB8010C0B28DF801003B4A1268D9
:104C4000917C3A4A526810786B460222FFF719FBB2
:104C500010B14FF0FF30A4E70821344881720021E1
:104C60000173012101750020FFF721FF002098E763
:104C700038B504462D48807A10B94FF0FF3038BD62
:104C80002A4890F8240010B14FF0FF30F7E727488A
:104C9000007D50B134B1282C04DCE0B2FFF77BFF7B
:104CA0000020ECE70020FFF776FF042C01DA042453
:104CB00004E0B4F57A7F01DD4FF47A744FF47A7032
:104CC00090FBF4F0401EC0B20090184A1268517870
:104CD000164A526810786B460122FFF7D2FA10B1DB
:104CE0004FF0FF30CBE79DF80000401C4FF47A7185
:104CF00091FBF0F081B20D48C1810146C98948108D
:104D0000FFF70AFF0020BAE738B504460748807A63
:104D100010B94FF0FF3038BD022C09D0042C0AD056
:104D2000082C0BD0102C0FD10BE0000064030020E6
:104D3000002000900BE00820009008E01020009078
:104D400005E01820009002E04FF0FF30E3E700BFDD
:104D5000F848407A9DF80010B0EBE10F01D1002037
:104D6000D9E7F44A1268D179F24A526810786B4652
:104D70000122FFF786FA10B14FF0FF30CBE79DF824
:104D80000000C110EB4841720020C4E738B504466A
:104D9000E848807A10B94FF0FF3038BDFA2C09D0BE
:104DA000B4F5FA7F09D0B4F57A7F09D0B4F5FA6F7B
:104DB0000CD108E0002000900BE00820009008E0F3
:104DC0001020009005E01820009002E04FF0FF3026
:104DD000E3E700BFD748007A9DF80010B0EBE10F81
:104DE00001D10020D9E7D34A12689179D14A52689B
:104DF00010786B460122FFF744FA10B14FF0FF30F4
:104E0000CBE79DF80000C010CA4908720020C4E733
:104E10001CB580208DF80000C64A1268917CC54AF6
:104E2000526810786B460122FFF72BFA10B14FF051
:104E3000FF301CBD642003F076F900208DF80000DF
:104E4000BC4A1268917CBB4A526810786B460122BA
:104E5000FFF717FA10B14FF0FF30EAE7B54A1268D2
:104E6000917DB44A526810786B460622FFF754F9D8
:104E700010B14FF0FF30DCE79DF80500C007400F90
:104E80009DF8031001F0010140EA41009DF8011076
:104E900001F0010140EA010494B1012C03D1012188
:104EA000A448C17431E0022C03D10021A148C1748F
:104EB0002BE02146A0A005F057FA4FF0FF30B8E7ED
:104EC0009C4A1268D1789B4A526810786B4601223E
:104ED000FFF722F910B14FF0FF30AAE79DF800006C
:104EE00000F00F042CB99E4805F03EFA4FF0FF3059
:104EF0009FE7042C06D19BA005F036FA01218D48CE
:104F0000C17402E000218B48C174FF21894881727D
:104F1000FF2088490872FF2186484172C1724FF60E
:104F2000FF71C181FF21017481740121017380F837
:104F30002210002180F823104175017516300160A0
:104F400041608160163880F8241080F82510C184F3
:104F50004FF4FA60FFF71AFF10B14FF0FF3068E727
:104F60000220FFF7D1FE10B14FF0FF3061E72A2099
:104F7000FFF7D2FD10B14FF0FF305AE73220FFF7B4
:104F800077FE10B14FF0FF3053E70020FFF78FFDA1
:104F900010B14FF0FF304CE70020FFF7FBFB10B1E2
:104FA0004FF0FF3045E70020FFF78FFB002040E780
:104FB00070477CB504460D465E48807A00F070006C
:104FC00010B94FF0FF307CBD5A4A1268117B594A24
:104FD000526810786B460622FFF79EF810B14FF02A
:104FE000FF30F0E79DF801009DF8001040EA012035
:104FF00000B220809DF803009DF8021040EA0120D5
:1050000000B260809DF805009DF8041040EA012080
:1050100000B2A08015B12846FFF7CAFF0020D2E7F2
:105020007CB504460D464348807A00F0080010B96C
:105030004FF0FF307CBD3F4A1268517B3D4A5268B9
:1050400010786B460622FFF767F810B14FF0FF307B
:10505000F0E79DF801009DF8001040EA012000B241
:1050600020809DF803009DF8021040EA012000B264
:1050700060809DF805009DF8041040EA012000B210
:10508000A08015B12846FFF793FF0020D2E72DE955
:10509000FE4F05460C462748807A18B94FF0FF307E
:1050A000BDE8FE8F234A1268917B224A526810782D
:1050B00002AB0222FFF730F810B14FF0FF30EFE7FC
:1050C0009DF809009DF8081040EA012006B214B1CD
:1050D0002046FFF76DFF17494968C88808F0ACF90A
:1050E000144901904968B1F9080008F05DF9834658
:1050F000304608F059F95946009008F01DFB8246E9
:10510000019908F01FF881461E4907F0A7FF804665
:105110004FF08F4108F0D8F9074608F009F92860E8
:105120000020BDE710B588B004466CBB4FF0FF30DF
:1051300008B010BD64030020556E737570706F72F7
:1051400074656420736F6674776172652070726F26
:1051500064756374207265762025642E0A00000051
:10516000FCE7000848616C662073656E73697469BA
:1051700076697479207061727420666F756E642E22
:105180000A00000000000C42FFE7206830B96068A8
:1051900020B9A06810B9002008B010BDFA494968CC
:1051A000087806AB03221146FEF7B6FF10B14FF0A8
:1051B000FF30F1E79DF81800082101EB201000F006
:1051C0000F00ADF800009DF8190001EB201000F071
:1051D0000F00ADF802009DF81A0001EB201000F05E
:1051E0000F00ADF8040020684100BDF90000403018
:1051F00091FBF0F000B2ADF8100060684100BDF91D
:105200000200403091FBF0F000B2ADF81200A0684F
:105210004100BDF90400403091FBF0F000B2ADF860
:105220001400D9494968087806AB06221146FEF7F2
:1052300073FF10B14FF0FF30AEE79DF819009DF8F5
:10524000181040EA012000B2ADF808009DF81B00DC
:105250009DF81A1040EA012000B2ADF80A009DF84E
:105260001D009DF81C1040EA012000B2ADF80C00B2
:10527000BDF81000BDF80810084400B2ADF81000E9
:10528000BDF81200BDF80A10084400B2ADF81200D3
:10529000BDF81400BDF80C10084400B2ADF81400BD
:1052A000BDF81000000A8DF81800BDF81000C0B25B
:1052B0008DF81900BDF81200000A8DF81A00BDF82B
:1052C0001200C0B28DF81B00BDF81400000A8DF862
:1052D0001C00BDF81400C0B28DF81D00AA49496831
:1052E000087806AB06221146FEF7CBFF10B14FF04F
:1052F000FF3051E700204FE70146A348007A30B164
:10530000012807D0022809D003280FD10AE0FA208B
:1053100008800EE04FF4FA7008800AE04FF47A70CB
:10532000088006E04FF4FA60088002E00020088060
:1053300000BF00BF0020704701469348407A30B15B
:10534000012807D0022808D003280CD108E0022049
:1053500008700BE00420087008E00820087005E0E1
:105360001020087002E04FF0FF30704700BF864801
:10537000C07C18B108784006000E08700020F4E7E1
:1053800001468148C07A082817D2DFE800F01704E8
:10539000070A0D101318BC20088013E06220088053
:1053A00010E02A2008800DE0142008800AE00A207E
:1053B000088007E00520088004E000BF00BF00204F
:1053C000088000BF00BF0020704701466E4890F87B
:1053D000240010B14FF0FF3070476B48C08908803F
:1053E0000020F9E7014600200880401E7047014672
:1053F0004FF0FF30704701466348007A30B1012812
:1054000007D0022808D003280CD108E05F480860C4
:105410000BE05F48086008E05E48086005E05E4811
:10542000086002E04FF0FF30704700BF0020FBE74C
:1054300001465548407A30B1012808D002280AD0E8
:10544000032810D10BE04FF4804008800EE041F6B5
:105450009C7008800AE04FF48050088006E04FF40A
:105460000060088002E04FF0FF30704700BF464800
:10547000C07C10B10888401008800020F5E7014684
:105480004148007C08700020704701463E48807A01
:1054900010B10120087001E0002008700020704762
:1054A00038B504463848807A10B94FF0FF3038BD1F
:1054B000354A1268117C344A526810786B460222D1
:1054C000FEF72AFE10B14FF0FF30F0E79DF8010023
:1054D0009DF8001040EA012000B220800020E6E79D
:1054E0002DE9FE4F0746884692461D46DDF830B04E
:1054F00000260024244890F8240010B1601EBDE866
:10550000FE8F002028702048807A10B94FF0FF30BD
:10551000F5E71D48007C10B94FF0FF30EFE71A485F
:10552000007C00F0400008B1B01CC6B21648007CF8
:1055300000F0200008B1B01CC6B21348007C00F097
:10554000100008B1B01CC6B20F48007C00F0080083
:1055500008B1B01DC6B20C4A1268917A0A4A526864
:1055600010786B460222FEF7D7FD10B14FF0FF30E6
:10557000C5E79DF801009DF8001040EA0129B145FA
:105580000CDA0020BBE700006403002000000343A6
:10559000000083423333034233338341FC48406885
:1055A0004088B9EB600F17DDF94A1268517CF84A60
:1055B000526810786B460122FEF7AEFD10B14FF035
:1055C000FF309CE79DF8000000F0100020B1FFF7CD
:1055D00085F96FF0010092E75046FFF7E9FCEC4ACD
:1055E0001268D17AEA4A526810786B463246FEF762
:1055F00093FD10B14FF0FF3081E799FBF6F0401EAC
:105600008BF8000000202870B4422AD0E048007CCB
:1056100000F0080028B3601C1DF800001DF80410FD
:1056200040EA012000B2A8F80000E01C1DF80010BC
:10563000A01C1DF8000041EA002000B2A8F80200FA
:10564000601D1DF80010201D1DF8000041EA00201B
:1056500000B2A8F80400287840F008002870A01DC7
:1056600084B2B44213D0CA48007C00F0400070B14C
:10567000601C1DF800001DF8041040EA012000B273
:105680003880287840F040002870A01C84B2B442D2
:1056900013D0BF48007C00F0200070B1601C1DF8E2
:1056A00000001DF8041040EA012000B2788028783C
:1056B00040F020002870A01C84B2B44213D0B4483B
:1056C000007C00F0100070B1601C1DF800001DF897
:1056D000041040EA012000B2B880287840F01000A1
:1056E0002870A01C84B2002009E7F8B504460F46D4
:1056F0001646A74890F8240010B94FF0FF30F8BDC7
:10570000A348807A10B94FF0FF30F8E7A04A12683A
:10571000917A9F4A526810786B460222FEF7FCFC91
:1057200010B14FF0FF30EAE79DF801009DF800103E
:1057300040EA0125A54203DA00203070401EDEE772
:10574000934840684088B5EB600F17DD904A1268B7
:10575000517C8F4A526810786B460122FEF7DCFCC0
:1057600010B14FF0FF30CAE79DF8000000F01000C4
:1057700020B1FFF7B3F86FF00100C0E7E2B2844B4D
:105780001B68D97A824B5B6818783B46FEF7C4FCED
:1057900010B14FF0FF30B2E795FBF4F0401E3070CF
:1057A0000020ACE701467A4880F8221000207047BC
:1057B0007CB5054676494968087801AB04220D217D
:1057C000FEF7AAFC08B107207CBD9DF80700C0F3D6
:1057D00001109DF8041001F0E00140EAE1008DF8AD
:1057E00000009DF80700C0F381009DF8051001F04E
:1057F000E00140EAE1008DF801009DF8070000F0AB
:1058000003009DF8061001F0E00140EAE1008DF888
:10581000020000241CE01DF8040018B9002045F81F
:10582000240013E05B4845F8240006E055F8240006
:10583000594907F049FE45F824001DF80400401EB0
:10584000C0B20DF804000028F0D100BF601CC4B243
:10585000032CE0DB0020B7E72DE9FE4F06460F469C
:1058600000256846FFF7A4FF002442E056F8240014
:1058700057F82410A0EB010ABAF1000F01DB5146E2
:1058800001E0CAF10001084607F08EFD83464FF0A3
:105890008F4107F057FC80465DF82400002107F097
:1058A00013FD16D05DF82410404607F04BFC8246ED
:1058B0004FF07E5107F040FF814629F0004A3748FB
:1058C000416A504607F0CCFE12D20120A0400543A9
:1058D0000EE03248C169404607F0C2FD05D32F48AB
:1058E000016A404607F0BCFE02D20120A0400543F9
:1058F000641C032CBADB2846BDE8FE8F2DE9FC5F53
:1059000006460F46002522494968087801AB032264
:105910000D21FEF701FC10B10720BDE8FC9F9DF8AA
:10592000040000F01F008DF804009DF8050000F051
:105930001F008DF805009DF8060000F01F008DF88F
:105940000600002462E056F8240057F82410A0EB6B
:10595000010BBBF1000F01DB594601E0CBF1000167
:10596000084607F021FD4FF08F41009007F0EAFB59
:10597000814601A8005DC0B30849086807F05CFDD6
:1059800083465946064807F0DDFB80460FE00000DD
:10599000640300207B14AE3E1D5A843F8CD900085E
:1059A00000B04C45FE49404607F08EFD804601A8F8
:1059B000005D401EC0B201A908550028F2D1414641
:1059C000484607F0BFFB83464FF07E5107F0B4FE18
:1059D00082462AF0004BF3488169584607F040FEA2
:1059E00013D20120A04005430FE0FFE7ED48016915
:1059F000484607F035FD05D3EA484169484607F0B7
:105A00002FFE02D20120A0400543641C032C9ADB28
:105A1000284682E72DE9F04F87B005460C469146AF
:105A200001208DF8100000208DF81100DE4A126868
:105A3000917CDD4A5268107804AB0222FEF721FC0B
:105A400020B14FF0FF3007B0BDE8F08FC82002F062
:105A50006AFB00208DF81000D34A1268D17BD24A2D
:105A60005268107804AB0122FEF70BFC10B14FF026
:105A7000FF30E8E7CC4A12685179CB4A5268107877
:105A800004AB0122FEF7FDFB10B14FF0FF30DAE767
:105A9000C54A1268917CC44A5268107804AB01224E
:105AA000FEF7EFFB10B14FF0FF30CCE7BE4A1268B3
:105AB000D17DBD4A5268107804AB0122FEF7E1FBAC
:105AC00010B14FF0FF30BEE7B74A12681179B64AFD
:105AD0005268107804AB0122FEF7D3FB10B14FF0EF
