:020000040800F2
:10000000D80C0020FD7600083111000833110008DB
:1000100035110008391100083D11000800000000EA
:100020000000000000000000000000004111000876
:1000300043110008000000004511000847110008A6
:100040000D260008177700081777000817770008B3
:100050001777000817770008177700081777000848
:100060001777000817770008177700081777000838
:100070001777000817770008177700081777000828
:100080001777000817770008177700081777000818
:100090001777000817770008177700081777000808
:1000A00017770008177700081777000817770008F8
:1000B0001777000817770008AD22000817770008A7
:1000C00017770008177700081777000817770008D8
:1000D00017770008177700081777000817770008C8
:1000E00017770008177700081777000817770008B8
:1000F00017770008177700081777000817770008A8
:100100001777000817770008A32100081777000861
:100110001777000817770008177700081777000887
:100120001777000817770008177700081777000877
:1001300000F002F800F062F80AA090E8000C824497
:100140008344AAF10107DA4501D100F057F8AFF274
:10015000090EBAE80F0013F0010F18BFFB1A43F0A5
:10016000010318479CC60000BCC600000A444FF0BB
:10017000000C10F8013B13F0070408BF10F8014B06
:100180001D1108BF10F8015B641E05D010F8016B4B
:10019000641E01F8016BF9D113F0080F1EBF10F8AF
:1001A000014BAD1C0C1B09D16D1E58BF01F801CBD2
:1001B000FAD505E014F8016B01F8016B6D1EF9D555
:1001C0009142D6D37047000000230024002500266A
:1001D000103A28BF78C1FBD8520728BF30C148BFAA
:1001E0000B607047642909F06780782909F0A080C6
:1001F000002070471FB51FBD10B510BD09F0F4FAFF
:100200001146FFF7F7FF00F009F809F012FB03B4FD
:10021000FFF7F2FF03BC07F049F800009AB0002096
:1002200018901790169010900F900E9001F001F812
:100230004FF4A06008F006F806F0CEFF472144F620
:100240001F6002F0EBF94FF4FA61FE4808F050FF2E
:100250004FF4FA61FB4808F04DFF4FF4FA61F9489A
:1002600008F04AFF4FF4FA61F64808F047FF41F200
:10027000883006F0EEFF4FF47A71F24808F038FF4C
:100280004FF47A71EF4808F035FF4FF47A71ED487A
:1002900008F032FF4FF47A71EA4808F02FFF40F679
:1002A000B83006F0D6FF02F09EFE05E0C82006F04A
:1002B000D0FFC82006F0CDFF05F0C8F80028F5D122
:1002C0004FF47A7006F0C5FF02F0CAFC642006F015
:1002D000C0FF02F009FA642006F0BBFF02F014FA36
:1002E0004FF47A7006F0B5FF47214FF6FF7001F02A
:1002F00068FF40F2CF21092001F026FF4FF49670ED
:1003000006F0A7FFD0480068D0490860ABE0D04AAB
:10031000D049D14802F009FF00284DD1CE48B0F9AC
:1003200000000BF069F80890CC48016808980AF0C2
:10033000BDFE09900AF08EFE0022C94BCDE90A01EC
:100340000AF0AEFBCDE90C010AF046F9C34908609A
:10035000C048B0F900000BF04FF80890C1480168A0
:1003600008980AF0A3FE09900AF074FE0022BC4B24
:10037000CDE90A010AF094FBCDE90C010AF02CF951
:10038000B8490860B248B0F900000BF035F80890A1
:10039000B548016808980AF089FE09900AF05AFEEB
:1003A0000022AF4BCDE90A010AF07AFBCDE90C013E
:1003B0000AF012F9AC490860AC4AAD49AD4802F008
:1003C000DCFE00284FD1AB48B0F900000BF014F868
:1003D0000890A948016808980AF068FE09900AF098
:1003E00039FE00229E4BCDE90A010AF059FBCDE906
:1003F0000C010AF0F1F8A04908609D48B0F900002E
:100400000AF0FAFF08909D48016808980AF04EFE2D
:1004100009900AF01FFE0022914BCDE90A010AF073
:100420003FFBCDE90C010AF0D7F8944908608F48EA
:10043000B0F900000AF0E0FF0890914801680898C0
:100440000AF034FE09900AF005FE0022844BCDE943
:100450000A010AF025FBCDE90C010AF0BDF8884934
:10046000086001F07BFC794800680BF00DF88549C5
:100470000A900BF051F884490B900AF017FE0D908A
:10048000714800680BF000F87E490B900BF044F8BF
:100490000C900D990BF00CF8FFF439AF6F48006821
:1004A0000AF06EFF00B2794908806E4800680AF0D1
:1004B00067FF00B2754948806B4800680AF060FF2A
:1004C00000B2724988806C4800680AF059FF00B297
:1004D0006F490880694800680AF052FF00B26D4910
:1004E00008806D4800680AF04BFF00B26B49088035
:1004F0000020119021E0642006F0ABFE02F08DF99F
:10050000674800680AF078FF089066480168089814
:100510000AF0CCFD09900AF09DFD0022504BCDE978
:100520000A010AF0BDFACDE90C010AF055F85D495F
:1005300008601198401CC0B2119011981428DADBA1
:10054000584800680AF01CFF5749086008460068D0
:100550000AF052FF07900AF07DFD0022534BCDE9CF
:1005600008010AF01BF94FF0C042514BCDE90A01D6
:100570000AF064F8CDE90C010AF02EF84D49086044
:10058000002011900AE0642006F063FE02F061F999
:1005900002F01AFB1198401CC0B211901198142857
:1005A000F1DB454800684549086008460168424853
:1005B00000680AF0EFFD4249086002F01BFA41486A
:1005C000006841490860109818B1404806F080FE64
:1005D00005E00F9818B14FF4E13006F079FE00F015
:1005E000A9FE01203A49086000203A49C1F8880173
:1005F000154800680AF048FF37490C900AF08CFF54
:100600000D900AF0D9FE354908600F4800680AF0DD
:100610003BFF33490C900AF07FFF0D900AF0CCFEAF
:1006200030490860084800680AF02EFF2E490C90F7
:100630000AF072FF0D900AF0BFFE2C4908600248D4
:10064000006855E00004004010000020A8000020D1
:100650004A000020480000204600002060000020E2
:100660000000E03F640000206800002044000020FB
:10067000420000204000002074000020780000208C
:100680007C0000206F12833A000040405A00002096
:100690006C0000206E000020A801002070000020E7
:1006A000B4000020C4000020BC000020000059401D
:1006B000661271404C01002018020020B800002092
:1006C00048010020AC0000205401002020A10700B8
:1006D000A001214200802242CDCCCC3D140000205C
:1006E000CDCC4C3D180000200AD7A33C1C000020B4
:1006F0000AF0CAFEFE490C900AF00EFF0D900AF0B7
:100700005BFEFC490860FC4800680AF0BDFEFB493E
:100710000C900AF001FF0D900AF04EFEF8490860B7
:10072000F54800680AF0B0FEF6490C900AF0F4FEB5
:100730000D900AF041FEF4490860EF4800680AF0A5
:10074000A3FEF2490C900AF0E7FE0D900AF034FE89
:10075000EF490860E84800680AF096FEED490C9001
:100760000AF0DAFE0D900AF027FEEB490860FCE380
:10077000EA480068401C0AF087FE0D90DE480068D9
:100780000AF082FEE6490B900AF0C6FE0C900D9925
:100790000AF08EFF7ED2D84800680AF075FEE04964
:1007A0000C900AF0B9FE0D900AF006FEDB490860D5
:1007B000DC480068401CDB490860DB4ADB49DC4858
:1007C00002F0DBFC002856D101F0C8FACA480068E4
:1007D000D8490968401A08900AF056FE09900AF0B4
:1007E00039FCD54AD54BCDE90A010AF059F9CDE9D2
:1007F0000C0109F0F1FED2490860BF480068CD49FC
:100800000860CF4800680AF025FCCDE90601CD4814
:10081000B0F900000AF0F0FD0090CB4801680098A4
:100820000AF0A8FF01900AF015FCC84AC84BCDE9B0
:1008300002010AF035F9CDE90401DDE906230AF0E9
:100840002FF9CDE90A01C34800680AF003FCCDE99D
:100850000801DDE90A2309F0F1FECDE90C0109F0F8
:10086000BBFEBC490860BC480168BA4800680AF091
:100870008BFFBA490860BA4A911E881E02F055FCE7
:1008800000287ED101F0F0F89B480068B54909685E
:10089000401A00E075E009900AF0EFF8A64AA74B6D
:1008A000CDE90A010AF0FCF8CDE90C0109F094FE4B
:1008B000AD49086090480068AA490860AB48B0F9A3
:1008C0000000AB49B1F90010401A0C900AF094FDF9
:1008D0000D90A54801680D980AF05CFCA5490860D8
:1008E000A548B0F90000A549B1F90010401A0C90D4
:1008F0000AF082FD0D909C4801680D980AF04AFCB0
:100900009F4908609F48B0F900009F49B1F9001065
:10091000401A0C900AF070FD0D90934801680D98F4
:100920000AF038FC9949086001F019F98F48B0F9CC
:1009300000008F4908809048B0F900008F49088076
:100940009048B0F90000904908800E98C8B101F0B5
:1009500046FB8F4800680D900AF012FD00B28349F3
:1009600008808B4840680D900AF00AFD00B2824969
:100970000880874880680D900AF002FD00B2814926
:10098000088084480068401C0AF07EFD0D905A489B
:1009900000680AF079FD80490B900AF0BDFD0C90CB
:1009A0000D990AF085FE11D2534800680AF06CFDDB
:1009B00079490C900AF0B0FD0D900AF0FDFC7549E4
:1009C000086058484068401C5649486073480068B1
:1009D000401C0AF059FD0D90474800680AF054FD8C
:1009E0006F490B900AF098FD0C900D990AF060FE8B
:1009F0002ED2414800680AF047FD69490C900AF080
:100A00008BFD0D900AF0D8FC644908604548806869
:100A1000401C44498860634A6349644804F063FDAC
:100A200063480168604800680AF0AEFE61490860EA
:100A3000614801685D4800680AF0A6FE5F490860E9
:100A40005F480168574800680AF09EFE5D490860EB
:100A500028480068401C0AF017FD0D9026480068E1
:100A60000AF012FD22490B900AF056FD0C900D99E8
:100A70000AF01EFE38D2204800680AF005FD1C4925
:100A80000C900AF049FD0D900AF096FC1949086097
:100A90002448C068401C2349C8601898002824D006
:100AA0004948006840F24C4188421FD946480088B6
:100AB00000B213904548B0F9000040F2E351081A23
:100AC00043490968884208D84048B0F9000000F25C
:100AD000E3503F490968884209D23D480088A0F2A6
:100AE000E35000B2159075E05FE11DE1EBE084E0BA
:100AF0000AD7233C20000020100000200AD7A33B87
:100B0000240000206F12033B280000206F12833A5C
:100B10002C00002017B7D13830000020140000202E
:100B2000CDCCCC3D6C0400204400002042000020CD
:100B300040000020980100202D431CEBE2361A3FB4
:100B40009401002070000020AC010020A9D08AB9D7
:100B5000B596433FB4010020B8010020BC0100203D
:100B6000500000208000002084000020E0000020D1
:100B70008800002054020020E20000208A000020AB
:100B800058020020E40000208C0000205C020020BD
:100B90006004002018000020CDCC4C3D1C0000203B
:100BA0000AD7A33C3C00002034000020380000207D
:100BB000D4000020C8000020D8000020CC00002075
:100BC000DC000020D0000020080000208E00002063
:100BD0000000002015980AF00FFC09900AF03AFA7C
:100BE000FD4AFE4BCDE90A0109F05AFFCDE90C019F
:100BF00009F0F2FCFA49086002E00020F8490860B8
:100C0000F848B0F9000040F2E451081AF6490968C2
:100C1000884208D8F348B0F9000000F2E450F249E5
:100C20000968884219D2F048008840F2E451081A55
:100C300000B2149014980AF0DFFB09900AF00AFA47
:100C4000E54AE64BCDE90A0109F02AFFCDE90C019E
:100C500009F0C2FCE549086002E00020E3490860B1
:100C6000E048B0F9000040F2E351081AE049096891
:100C7000884208D8DB48B0F9000000F2E350DC49B4
:100C8000096888421BD2DA48008840F2E351081A0A
:100C900000B2129012980AF0AFFB09900AF0DAF94C
:100CA000CD4ACE4BCDE90A0109F0FAFECDE90C019F
:100CB00009F092FCCF4908600020086012E0002093
:100CC000CC4908600EE00020CB490880CB49088061
:100CD000CB490880CB49088000231A46194618469C
:100CE00000F064FBC848006840F24C41884218D2CA
:100CF000BF480068884214D2169818B9C3480088C3
:100D000080B21690C14801681698081A08283DD389
:100D100000201890BE4908600120BE49C1F8A0011A
:100D200034E00020169031E00020B3490880B34938
:100D30000880B3490880B349088000231A46194641
:100D4000184600F033FBB048006840F24C4188423E
:100D50001AD2A748006840F26C71884214D91798DB
:100D600018B9AA48008880B21790A8480168179857
:100D7000081A05280AD301201890A5490860002008
:100D8000A449C1F8A00101E0002017909E48006826
:100D900040F24C41884208D900F037FC00F0C7FC13
:100DA00001F0DCF8139800F033FB9B480068401C0E
:100DB0000AF06AFB0D90994800680AF065FB9849B3
:100DC0000B900AF0A9FB0C900D990AF071FC11D25E
:100DD000924800680AF058FB91490C900AF09CFB7D
:100DE0000D900AF0E9FA8C4908608E480069401CB1
:100DF0008C4908618C480068401C0AF045FB0D9046
:100E0000864800680AF040FB88490B900AF084FB92
:100E10000C900D990AF04CFC7ED2804800680AF0D4
:100E200033FB82490C900AF077FB0D900AF0C4FA6C
:100E30007D4908607B484069401C7A4948611098A8
:100E4000002874D07A4800680AF09AFA0D900020C1
:100E50000090019077480D9B0268774801687748B9
:100E6000006805F000FC7648008880B27549098862
:100E700089B2754A128892B2744B1B889BB2CDE935
:100E80000032CDE902107248008880B20D9071489E
:100E9000008880B20C907048008880B20B906F4838
:100EA000008880B20A900BA90EC905F03FFD002012
:100EB0000290039004900590009001904A480088A9
:100EC00080B20D906648008880B20C904848008837
:100ED00080B20B904C48008880B20A900BA90EC9D2
:100EE00005F0B8FD00205A4AB2F90020594BB3F979
:100EF0000030CDE90320029305905748B0F9000077
:100F00005649B1F90010CDE900104D48B0F9003054
:100F10004C48B0F9002001E00AE008E04A48B0F986
:100F200000104A48B0F9000005F03DFC00E000BFA9
:100F30004C480068401C0AF0A7FA0D90374800683A
:100F40000AF0A2FA48490B900AF0E6FA0C900D99C3
:100F50000AF0AEFB3BD2314800680AF095FA4249EC
:100F60000C900AF0D9FA0D9000E0ADE00AF024FAF6
:100F70003C4908602B488069401C2A49886101F07F
:100F800068FC01F021FE39480168394800680AF020
:100F900001F93849086001F02DFD20480068364904
:100FA0000968401A0C900AF06FFA2F490D900AF068
:100FB000B3FA32490860194800682F49086001F007
:100FC00077FD06F0EEF81A4800682D4908600F48D2
:100FD0000068401C56E00000F49FDA858B81A23F38
:100FE000D40000208E00002004000020D800002043
:100FF0000C000020DC0000204C0200204E020020EB
:101000005002002052020020080000203000002082
:10101000888122420000214224000020100000208C
:101020000AD7A33B6C040020280000206F12033B6A
:10103000AC0000203C0000203800002034000020DC
:10104000A6000020A4000020A2000020A000002094
:101050009E0000209C0000209A00002098000020A4
:10106000000000202C0000206F12833AB8000020FE
:101070001802002048010020600100205C010020CF
:10108000580100200AF000FA0D90104800680AF09C
:10109000FBF90F490B900AF03FFA0C900D990AF0FA
:1010A00007FB11D2094800680AF0EEF908490C90D4
:1010B0000AF032FA0D900AF07FF9064908600648F6
:1010C000C069401C0449C861FFF752BB10000020F2
:1010D00017B7D138300000206C04002000BF1A4838
:1010E00001684FF0E0208269174800688142F6D11C
:1010F0001648006800EB4003C3EBC010C2EBC00011
:10110000124B1B68B0FBF3F001EB4103C3EBC113BF
:1011100000EBC300704700B585B0684606F0BDFD22
:101120000B490098B0FBF1F00849086005B000BD1C
:101130007047704700BFFEE700BFFEE700BFFEE755
:1011400070477047704770476C02002070020020A3
:1011500040420F000CB50020019000906C480068E0
:1011600040F480306A49086000BF6948006800F4B4
:10117000003000900198401C0190009818B9019827
:10118000B0F5A06FF1D16248006800F4003010B1F2
:101190000120009001E0002000900098012843D138
:1011A0005C48006840F010005A4908600846006832
:1011B00020F0030008600846006840F00200086064
:1011C00053484068524948600846406848600846AD
:1011D000406840F4806048600846406820F47C1015
:1011E00048600846406840F4E810486008460068D7
:1011F00040F08070086000BF4548006800F0007053
:101200000028F9D04248406820F003004049486077
:101210000846406840F00200486000BF3C48406813
:1012200000F00C000828F9D10CBD10B5FFF792FFB3
:1012300010BD10B53648006840F001003449086020
:10124000084640683449084031494860084600680B
:10125000324908402E4908600846006820F4802082
:1012600008600846406820F4FE0048604FF41F0004
:101270008860FFF7DAFF4FF000602949086010BD71
:1012800010B5002100200022214B5B6803F00C0107
:1012900021B1042906D0082928D107E0214B224C8E
:1012A000236027E01F4B204C236023E0184B5B6832
:1012B00003F47010164B5B6803F48032022303EBD7
:1012C000904022B9194B4343174C23600DE0104B5B
:1012D0005B6803F4003323B1144B4343124C236087
:1012E00003E0104B4343104C236003E00D4B0E4CC6
:1012F000236000BF00BF064B5B68C3F303130C4CB5
:10130000E15C094B1B68CB40074C236010BD00001B
:1013100000100240002002400000FFF8FFFFF6FE30
:1013200008ED00E000127A007402002000093D0080
:101330007802002008B50121242006F01BFD4FF49F
:101340008070ADF8000010208DF8030003208DF8A8
:1013500002006946094806F051FA4FF480710748C7
:1013600006F0F9FA0420ADF800006946044806F0DA
:1013700045FA0421024806F0EEFA08BD00080140D3
:101380000014014002468A4201DD084670471046BB
:10139000FCE703469A4203DA8B4201DA18467047AB
:1013A000994201DC0846FAE71046F8E730B5B0F597
:1013B000FA6F01DD4FF4FA60B1F5FA6F01DD4FF419
:1013C000FA61B2F5FA6F01DD4FF4FA62B3F5FA6F24
:1013D00001DD4FF4FA63B0F57A7F01DA4FF47A70E9
:1013E000B1F57A7F01DA4FF47A71B2F57A7F01DADA
:1013F0004FF47A72B3F57A7F01DA4FF47A73FE4DC7
:1014000028802D1D29802D1D2A802D1D2B8030BD6B
:1014100070B5044640F2F4612046FFF7B3FF05467D
:101420006FF031023221F548B0F90000FFF7B1FF4B
:101430000544F34A5142F348B0F90000FFF7A9FF11
:1014400005446FF01D021E21EF48B0F90000FFF7C0
:10145000A0FF2E18ED48006809F092FF05B26FF06A
:101460001D021E212846FFF794FF0644E848006845
:1014700009F086FF05B26FF01D021E212846FFF716
:1014800088FF304400B2E349088040F2F46120460E
:10149000FFF778FF05466FF031023221DE48B0F9E0
:1014A0000000FFF776FF0544D54A5142DB48B0F90A
:1014B0000000FFF76EFF05446FF01D021E21D848A3
:1014C000B0F90000FFF765FF2E18D048006809F05A
:1014D00057FF05B26FF01D021E212846FFF759FF86
:1014E0000644CB48006809F04BFF05B26FF01D02BF
:1014F0001E212846FFF74DFF304400B2C94908803D
:1015000040F2F4612046FFF73DFF05466FF03102DF
:101510003221C548B0F90000FFF73BFF0544B84A47
:101520005142C248B0F90000FFF733FF05446FF0A5
:101530001D021E21BE48B0F90000FFF72AFF2E1839
:10154000B248006809F01CFF05B26FF01D021E21B1
:101550002846FFF71EFF0644AD48006809F010FF5B
:1015600005B26FF01D021E212846FFF712FF30441E
:1015700000B2B049088040F2F4612046FFF702FF54
:1015800005466FF031023221AB48B0F90000FFF799
:1015900000FF05449A4A5142A848B0F90000FFF7FD
:1015A000F8FE05446FF01D021E21A548B0F90000A9
:1015B000FFF7EFFE2E189548006809F0E1FE05B22E
:1015C0006FF01D021E212846FFF7E3FE06449048F7
:1015D000006809F0D5FE05B26FF01D021E212846F5
:1015E000FFF7D7FE304400B2964908800846B0F9AC
:1015F00000309048B0F900208A48B0F900108548C2
:10160000B0F90000FFF7D2FE70BD2DE9F0478E481B
:1016100001688E48006809F07FFF06468C48016823
:101620008C48006809F078FF80468B4801688B4839
:10163000006809F071FF0746414609F037FD05468D
:10164000314609F033FD044609F09AFE00B26B49B9
:1016500008807D4801687D48006809F05DFF80468C
:101660007B4801687B48006809F056FF81467B484B
:10167000006880F0004778480168384609F04CFF60
:10168000064649460AF080F80546414609F00EFD37
:10169000044609F075FE00B25F4908806A48016897
:1016A0006A48006809F038FF80466948016869485F
:1016B000006809F031FF81466848006880F0004703
:1016C00065480168384609F027FF0646494609F093
:1016D000EDFC054641460AF057F8044609F050FE75
:1016E00000B251490880584801685848006809F01C
:1016F00013FF0646564801685648006809F00CFF7B
:101700000746554801685548006809F005FF8046BE
:1017100039460AF039F8054631460AF035F80446EC
:1017200009F02EFE00B244490880BDE8F0872DE99B
:10173000F0474B48B0F9000009F05EFE0746494803
:101740000168384609F0E8FE05464748B0F9000050
:1017500009F052FE814645480168484609F0DCFE22
:1017600007464348B0F9000009F046FE814641486B
:101770000168484609F0D0FE8046394609F096FCDB
:101780000646294609F092FC044609F0F9FD00B22C
:101790001C4908803248B0F9000009F02DFE0746C8
:1017A00030480168384609F0B7FE05462E48B0F9C2
:1017B000000009F021FE81462C480168484609F0E6
:1017C000ABFE07462A48B0F90000404209F014FE7B
:1017D000814628480168484609F09EFE8046394601
:1017E00009F0D2FF0646294609F060FC044609F0DC
:1017F000C7FD00B209493FE03404004090000020DA
:10180000D4FEFFFF98000020A0000020440200202A
:10181000480200204C020020920000209A00002084
:10182000A20000204E020020940000209C00002016
:10183000A400002050020020960000209E000020FE
:10184000A600002052020020A4020020D0000020A8
:10185000A0020020CC0000209C020020C800002034
:10186000E4000020BC020020E2000020B8020020BA
:10187000E0000020B40200200880FE48B0F900001B
:1018800009F0BAFD0746FC480168384609F044FEF5
:101890000546FA48B0F9000009F0AEFD8146F84867
:1018A0000168484609F038FE0746F648B0F90000DE
:1018B000404209F0A1FD8146F3480168484609F01D
:1018C0002BFE8046394609F0F1FB0646294609F011
:1018D0005BFF044609F054FD00B2EC490880E5487E
:1018E000B0F9000009F088FD0746E3480168384672
:1018F00009F012FE0446E148B0F9000009F07CFD51
:101900008146DF480168484609F006FE0746DD4883
:10191000B0F9000009F070FD8146DB4801684846D7
:1019200009F0FAFD8046394609F02EFF06462146A9
:1019300009F02AFF054609F023FD00B2D4490880CA
:10194000BDE8F0872DE9F047D2480168D248006829
:1019500009F0E2FD0646D1480168D148006809F067
:10196000DBFD8046CF480168CF48006809F0D4FD10
:101970000746414609F09AFB0546314609F096FBB9
:10198000044609F0FDFC00B2C8490880C14801685E
:10199000C148006809F0C0FD8046C0480168C048E1
:1019A000006809F0B9FD8146BF48006880F0004733
:1019B000BC480168384609F0AFFD0646494609F0C3
:1019C000E3FE0546414609F071FB044609F0D8FCE8
:1019D00000B2B7490880AF480168AF48006809F015
:1019E0009BFD8046AD480168AD48006809F094FD54
:1019F0008146AD48006880F00047AA480168384633
:101A000009F08AFD0646494609F050FB0546414665
:101A100009F0BAFE044609F0B3FC00B2A5490880FB
:101A20009C4801689C48006809F076FD06469B4882
:101A300001689B48006809F06FFD074699480168F6
:101A40009948006809F068FD8046394609F09CFE17
:101A50000546314609F098FE044609F091FC00B2B3
:101A600095490880BDE8F08770B500210022002369
:101A7000924C2488924D2D88641B24B2914D924E35
:101A8000367825F816408D4C64888D4D6D88641B22
:101A900024B28E4D8C4E367825F81640874CA4889B
:101AA000874DAD88641B25B2894C874E367824F863
:101AB000165000200DE0834C34F910402144834C33
:101AC00034F910402244824C34F910402344441C21
:101AD000E0B20628EFDB062491FBF4F424B2694D52
:101AE0002C80062492FBF4F424B2644D2C8006244E
:101AF00093FBF4F424B25F4D2C80734C2478641C67
:101B0000714D2C702C462478062C01D100242C70A9
:101B100070BD10B500216F4AB2F900206E4B6F4CBA
:101B2000247823F81420002005E06B4A32F91020B5
:101B30001144421CD0B20628F7DB062291FBF2F2D8
:101B400012B2674B1A80654A1278521C634B1A70A6
:101B50001A461278062A01D100221A7010BD2DE90A
:101B6000F0410025002600275E48006809F008FCC7
:101B700000B25D495D4A127821F812005C480068A5
:101B800009F0FEFB00B25B49584A127821F81200B6
:101B90005948006809F0F4FB00B25849534A1278DA
:101BA00021F8120000240DE04F4830F914000544DC
:101BB000504830F914000644504830F914000744E6
:101BC000601CC4B2062CEFDB062095FBF0F8404603
:101BD00009F012FC34490860062096FBF0F84046F4
:101BE00009F00AFC2E490860062097FBF0F84046F1
:101BF00009F002FC284908603C480078401C3B4939
:101C0000087008460078062801D100200870BDE859
:101C1000F0812DE9F04F89B083468A46504609F09D
:101C200019FA8046364A374B08F03AFF02460B460F
:101C3000CDE900010020344908F0B0FD06460F460A
:101C4000584609F007FA32463B46CDE9020108F052
:101C5000F5FCCDE90601584609F0FCF9CDE904018F
:101C6000DDE9062308F09AFD044608F0B5FC274993
:101C700008604DE0E4000020BC020020E2000020EB
:101C8000B8020020E0000020B40200209C000020E8
:101C90009E000020D402002068020020D002002014
:101CA00064020020CC02002060020020A00000207E
:101CB000A2000020A4000020A60000204C0000206C
:101CC0005A00002094040020E8020020A004002014
:101CD000AC04002044000020B8040020E9020020E9
:101CE000E600002054020020C4040020EA02002084
:101CF00058020020D00400205C020020DC040020F8
:101D000097D17E5AFB2119400000F03FE8000020E7
:101D100009B0BDE8F08F2DE9F041E149B1F90010BB
:101D2000E04AB2F90020881A09F066FB0746DE484F
:101D30000168384609F0F0FB0546DA48B0F90000C2
:101D400009F05AFB0646294609F0B0F9044609F0A5
:101D500017FB00B2D3490880BDE8F08170B5D348C5
:101D60000068D3490860D3480168D348006809F087
:101D70009DF9D1490860D1480168CF48006809F051
:101D800095F904462146CC48006809F003FACC498D
:101D90000860C348B0F9000009F02EFB0646C448AD
:101DA0000168304609F0F0FC0546C5480168284640
:101DB00009F0B2FB0446BE480168204609F076F9F6
:101DC000BA490860BE4801684FF07E5009F0DCFC5B
:101DD0000446B9480168204609F09EFBB6490860F0
:101DE00070BD70B5B7480068B7490860B74801686A
:101DF000B748006809F05AF9B5490860B548016864
:101E0000B348006809F052F904462146B04800681A
:101E100009F0C0F9B0490860B048B0F9000009F015
:101E2000EBFA0646A8480168304609F0ADFC0546C5
:101E3000A9480168284609F06FFB0446A2480168DA
:101E4000204609F033F99F490860A34801684FF024
:101E50007E5009F099FC04469D480168204609F02F
:101E60005BFB9B49086070BD70B59D4800689D494B
:101E700008609D4801689D48006809F017F99B4972
:101E800008609B4801689948006809F00FF904460A
:101E900021469648006809F07DF996490860964801
:101EA000B0F9000009F0A8FA06468E4801683046ED
:101EB00009F06AFC05468F480168284609F02CFBAA
:101EC000044688480168204609F0F0F88449086013
:101ED000884801684FF07E5009F056FC044683485C
:101EE0000168204609F018FB8049086070BD2DE9A3
:101EF000F0418248008840F2DC51884201DD012037
:101F000000E0002040F20E61884222DA7C48B0F9FD
:101F1000000009F071FA074665480168384609F083
:101F200029FC064677480168304609F0F5FA044670
:101F30007548006880F0004674480168304609F032
:101F4000EBFA0546214609F01FFC714908600020A4
:101F5000086000206E490860BDE8F0812DE9FE4F61
:101F600066490988A1F57A7009F046FA0290694835
:101F7000006809F06FF80746674A684B08F090FD63
:101F8000054608F029FB834608F0C2F80090644833
:101F9000006809F05FF807465F4A604B08F080FD73
:101FA000054608F019FB834608F0B2F8044600998C
:101FB00009F0B2FA814651490988A1F57A7009F011
:101FC0001BFA4946019009F0E5F88246029909F0AA
:101FD000DBFB5449086000200860BDE8FE8F2DE956
:101FE000F041002400BF56E04F4850F824004F490C
:101FF00041F824004E4A52F824104E4A52F8240068
:1020000009F054F84B4941F824004B4A52F8241087
:10201000484A52F8240009F049F80546454951F864
:102020002400294609F0B6F8444941F824004449FF
:1020300031F91410434A32F91420881A09F0DCF9F6
:1020400007463A4850F82410384609F09DFB0646EA
:102050003A4850F82410304609F05EFA05463348F5
:1020600050F82410284609F021F82F4941F824009F
:10207000324850F824104FF07E5009F085FB054699
:102080002C4850F82410284609F046FA294941F80E
:102090002400601CC4B2032CA6DBBDE8F081000064
:1020A00044000020E6000020E8000020A8010020F5
:1020B000AC010020A0010020B00100209C01002004
:1020C000A4010020D4010020D8010020CC01002070
:1020D000DC010020C8010020D001002042000020C7
:1020E000F4010020F8010020EC010020FC01002098
:1020F000E8010020F001002040000020080000203E
:1021000070000020E4020020E0020020BC0100205A
:1021100044020020D80000205F40D42247DF913FD6
:10212000D400002048020020540400206004002055
:102130002C02002038020020200200204804002049
:102140004C0000205A0000207FB505460C460121B6
:10215000082005F01CFEADF80850ADF80440002042
:10216000ADF80A00ADF8060001A9EA4806F0CCF97E
:1021700001221146E74806F03EFD32208DF80000AE
:1021800001208DF8010000208DF8020001208DF85B
:102190000300684606F05BF80121DE4806F010FDFA
:1021A0007FBD10B50121DB4806F0D3FF40B101210E
:1021B000D84806F0DFFFD8480068401CD6490860C0
:1021C00010BD30B585B005460C460121042005F050
:1021D000DEFD0121082005F0CDFD4FF47070ADF853
:1021E000100028208DF8130004A9CC4805F006FB48
:1021F0004FF47071C94805F0B0FBADF80850ADF868
:1022000004400020ADF80A00ADF8060001A9C4485A
:1022100006F07AF90020C3490880488001208880B0
:102220000020C8800881BE4806F001FC0420BD499A
:10223000088000204880012088800020C880088114
:10224000B74806F0F4FB0820B64908800020488013
:10225000012088800020C8800881B14806F0E7FB93
:102260000C20B04908800020488001208880002090
:10227000C8800881AA4806F0DAFB1E208DF800000D
:1022800000208DF801008DF8020001208DF8030078
:10229000684605F0DCFF01221E21A14806F0ABFCD8
:1022A00001219F4806F08CFC05B030BD10B59E485A
:1022B000007800F08000002846D10221984806F0FE
:1022C00048FF002840D00221954806F053FF964869
:1022D000007800F0400040B3914806F01BFF93499E
:1022E00008800846008892490988884204DA4FF637
:1022F000FF709049086002E000208E4908608B481A
:1023000000888B490988401A8A49096808448A4923
:102310000860084600688949086000208249087002
:1023200000217F4806F0FEFD0EE07D4806F0F2FE3B
:102330007F4908807C48007840F040007A49087066
:102340000221774806F0EEFD7D48007800F080001D
:10235000002846D10421724806F0FBFE002840D038
:1023600004216F4806F006FF7548007800F0400031
:1023700040B36B4806F0D1FE7249088008460088D9
:1023800071490988884204DA4FF6FF706F49086086
:1023900002E000206D4908606A4800886A4909889F
:1023A000401A6A4909680844694908600846006893
:1023B000684908600020624908700021584806F00A
:1023C000C3FD0EE0564806F0A8FE5F4908805C4851
:1023D000007840F040005A4908700221504806F049
:1023E000B3FD5D48007800F08000002845D1082149
:1023F0004B4806F0AEFE80B30821494806F0BAFE0D
:102400005548007800F0400040B3454806F088FE8B
:10241000524908800846008851490988884204DAF0
:102420004FF6FF704F49086002E000204D490860F8
:102430004A4800884A490988401A4A4909680844B4
:102440004949086008460068484908600020424938
:1024500008700021324806F091FD0EE0304806F089
:102460005FFE3F4908803C48007840F040003A4910
:10247000087002212A4806F081FD3D48007800F0EE
:102480008000A8BB1021264806F063FE80B310210F
:10249000234806F06FFE3648007800F0400040B355
:1024A0001F4806F040FE334908800846008832493C
:1024B0000988884204DA4FF6FF703049086002E06C
:1024C00000202E4908602B4800882B490988401AB3
:1024D0002A49096808442A490860084600682949C9
:1024E000086000202249087000210D4806F060FDB8
:1024F0000EE00B4806F017FE1F4908801C480078C4
:1025000040F040001A4908700221054806F050FDCD
:1025100010BD0000000C004010000020000C014025
:1025200000080040E8040020EC020020F002002037
:10253000EE0200201403002004030020000000200D
:10254000F2020020F6020020F4020020180300200E
:102550000803002004000020F8020020FC020020F4
:10256000FA0200201C0300200C03002008000020B9
:10257000FE020020020300200003002020030020B0
:10258000100300200C00002070B505460C4645F2F3
:10259000555005F0C5FE284605F0C5FE204605F05D
:1025A000C5FE05F0C6FE05F0C9FE70BD10B505F00C
:1025B000C0FE10BD08B500208DF8000002208DF887
:1025C000010003208DF80200684605F040FE08BDBA
:1025D00070B506460C4615460121C80205F0D7FB2A
:1025E000284606F0D6FD204606F0DCFD304606F013
:1025F000F4FD06F0FDFDFFF7DDFF06F0E4FD70BD24
:1026000010B50446204606F0E8FD10BD10B57F2049
:1026100006F0DDFD06F0ECFD10BD000030B589B020
:1026200005460C460121022005F0B1FB01211120D5
:1026300005F0A0FB0121294805F0B1F94FF47070B5
:10264000ADF8200018208DF8230003208DF822001B
:1026500008A9234805F0D2F8ADF81850ADF8144099
:102660000020ADF81A00ADF8160005A91D4805F0C8
:102670004BFF6020ADF804000120ADF806000020FB
:10268000ADF80A00ADF80C0001A9164805F079FF75
:102690000821144806F0C4FB01A9124805F0B3FF55
:1026A0000821104806F0C5FB01A90E4805F0F8FF07
:1026B00008210C4806F0CAFB01A90A4806F03BF8BD
:1026C0000821084806F0CBFB0121064806F078FBFC
:1026D0000121044806F074FA09B030BD000C1A005C
:1026E000001001400004004010B500F0D3FAEE20C5
:1026F00000F088FB00F013FB1E2000F083FB00F0CD
:102700000EFB00F0EBFA10BD70B5012433E000F0D1
:10271000C1FAEE2000F076FB00F001FBA02101EBF6
:102720004401C8B200F06EFB00F0F9FA00F0D6FAEE
:10273000052004F06AFD00F0ADFAEF2000F062FB26
:10274000012004F062FD00F0EAFA012000F089FBAC
:102750000546012004F059FD002000F082FB0646EA
:1027600000F0BCFA052004F074FD46EA0520F649A5
:1027700021F81400641C062CC9DDF348008808B950
:10278000012070BD0020FCE738B50446002500F0AC
:1027900081FAEE2000F036FB00F0C1FA204600F08E
:1027A00031FB00F0BCFA00F099FA092004F051FD69
:1027B000642004F02AFD00F06DFAEE2000F022FB08
:1027C00000F0ADFA002000F01DFB00F0A8FA00F0C8
:1027D00085FA00F05FFAEF2000F014FB00F09FFA9A
:1027E000012000F03EFB8DF80000012000F039FBD5
:1027F0008DF80100002000F034FB8DF8020000F09D
:102800006DFA9DF8000001049DF8010001EB002025
:102810009DF802104518284638BD10B55820FFF71E
:10282000B3FFCA490860052004F0EFFCC6484089A0
:10283000C6490968A1EB0020C5490860C2488089E3
:10284000096848434FF4FA6101EBD050C149086070
:1028500010BD2DE9F0414820FFF796FFBE49086002
:10286000052004F0D2FCB84880880104B6480089ED
:10287000B74A1268504301EBD0100021B74A03C297
:10288000B1484088C103B048C088B14A126850437B
:1028900001EB10200021B24A03C2AF480068083A99
:1028A00018CAA0FB032501FB035100FB0411500DC6
:1028B00040EAC1234815A949D1E900219A1A60EBE1
:1028C0000100410441EAD230A6490860A1480068ED
:1028D000B0F5FA6F46DA9E4800684043C017C1174A
:1028E000A14A03C29B480068A0F5FA60404340102B
:1028F00000EB8000C1179D4A03C296480068A0F50E
:10290000FA604043801000EB8000C117984A03C270
:1029100090480068974988422FDA8E48006800F294
:10292000DC50C0EBC0008B49096801F2DC51484320
:10293000C1178E4AD2E90032C01851418B4A03C2F6
:102940008448006800F2DC504043401000EB400136
:1029500001EBC000C117864B0CCB80185941844A4B
:1029600003C20AE00021804A1160516000207F4AC2
:10297000106050607E4A11605160764800687A4964
:102980000968401A734908607448D0E90020774903
:10299000D1E90031D21A60EB01007049C1E9002091
:1029A0006F48D0E900307249D1E900219A1A60EBF2
:1029B00001006B49C1E9002067480068002550C943
:1029C000A0FB041705FB047400FB0644480D40EA15
:1029D000C4256015614C12CC6D1A60EB0401E80B44
:1029E00040EA4142C913104608F021FD62490860DF
:1029F000BDE8F0812DE9F0416048006807F0FEFC79
:102A000080465F4908F088FD064607F03FFC054612
:102A10004FF07E5108F0AEFE04465A4801685A480D
:102A200008F07AFD0746214608F076FD5749086010
:102A3000BDE8F08170B556480068564908605648B0
:102A400001685648006808F031FB54490860544852
:102A500001685248006808F029FB044621464F48A7
:102A6000006808F097FB4F4908604A4801684748EA
:102A7000006808F089FE05464A480168284608F0C3
:102A80004BFD044643480168204608F00FFB4049CF
:102A90000860444801684FF07E5008F075FE044617
:102AA0003E480168204608F037FD3C49086070BD8B
:102AB0002DE9F0413C4800683C4908603C48016809
:102AC0003C48006808F0F2FA3A4908603A48016860
:102AD0003848006808F0EAFA04462146354800689C
:102AE00008F058FB354908603548016827480068F8
:102AF00008F04AFE074633480168384608F04AFBAA
:102B000006462A480168304608F03EFE05462B4836
:102B10000168284608F000FD044624480168204664
:102B200008F0C4FA20490860244801684FF07E503C
:102B300008F02AFE04461F480168204608F0ECFC15
:102B40001C490860BDE8F081C0030020FC000020A3
:102B500000010020B4000020F8000020F000002058
:102B60001001002018010020280100203801002059
:102B70004001002024FAFFFFB0000020480100209F
:102B800041D3423E4C010020A1D81943AC000020A3
:102B900070010020740100206801002078010020ED
:102BA000640100206C010020880100208C010020BD
:102BB00080010020900100207C0100208401002081
:102BC000580100205C01002070B51E4800681E49B5
:102BD00008601E4801681E48006808F067FA1C4932
:102BE00008601C4801681A48006808F05FFA04464B
:102BF00021461748006808F0CDFA174908601248C6
:102C000001681648006808F0BFFD054612480168D3
:102C1000284608F081FC04460B480168204608F06D
:102C200045FA084908600C4801684FF07E5008F0EA
:102C3000ABFD044606480168204608F06DFC0449D7
:102C4000086070BD14020020180200200C02002051
:102C50001C0200200802002010020020B00000200A
:102C600008B50121042005F085F84FF4C050ADF8F7
:102C7000000010208DF8030003208DF80200694643
:102C8000914804F0BBFD0120904908609049C1F8CB
:102C9000AC0108BD10B58C48001D006820F47040E0
:102CA0008949091D08600846006840F440500860E2
:102CB00001208649091F08608549C1F8B001042038
:102CC00004F0A3FA00208149091F0860042004F0E1
:102CD0009CFA00207E49C1F8B00110BD10B57A48B9
:102CE000001D006820F470407749091D08600846FF
:102CF000006840F44050086000207449086074493E
:102D0000C1F8AC01042004F080FA01206F4908608A
:102D10006F49C1F8AC01042004F077FA10BD10B57A
:102D200000246948001D006820F470406649091DB0
:102D300008600846006840F40040086001206349CC
:102D4000091F086004F061FA01206149C1F8B0016F
:102D500004F05BFA07E0601CC4B2FA2C03DDFFF755
:102D6000BDFF012010BD5948843800680028F2D109
:102D70005649086000BFF5E710B5002053490860C8
:102D80005148001D006820F470404F49091D08603B
:102D90000846006840F44050086000204C49C1F8E3
:102DA000AC01022004F031FA0120484908600220F9
:102DB00004F02BFA00204649C1F8B00110BD10B54F
:102DC0000020424908604048001D006820F470401F
:102DD0003D49091D08600846006840F440500860FD
:102DE00001203B49C1F8AC01022004F00EFA012099
:102DF00036490860022004F008FA00203449C1F87E
:102E0000B00110BD70B504462F48001D006820F4C5
:102E100070402D49091D08600846006840F4405084
:102E20000860002029490860002517E0E0092749CB
:102E3000091F08606006040E022004F0E6F9012074
:102E40002349C1F8B001022004F0DFF900201F4936
:102E50000860022004F0D9F9681CC5B2082DE5DB32
:102E600070BD70B5054600241748001D006820F4A9
:102E700070401549091D08600846006840F400408C
:102E80000860002616E0002010490860022004F0C7
:102E9000BCF901200E49C1F8B0016006040E0B48D0
:102EA0008438006808B1601CC4B2012004F0ADF998
:102EB000701CC6B2082EE6DB15B9FFF780FF01E0F3
:102EC000FFF75AFF204670BD00080140B0012142C3
:102ED0000000214270B505460C4600F0CDF9D02027
:102EE00000F074FA00F005FA18B100F0E3F90120DF
:102EF00070BD284600F06AFA00F0FBF9204600F0A9
:102F000065FA00F0F6F918B100F0D4F90120EFE706
:102F100000F0D0F90020EBE770B504460025BC2C8A
:102F200001DB012510E0622C01DB02250CE02A2CDC
:102F300001DB032508E0142C01DB042504E00A2C46
:102F400001DB052500E0062529461A20FFF7C2FF10
:102F500070BD70B50446B4F57A7F01DD4FF47A7424
:102F6000042C00DA04244FF47A7090FBF4F0401E35
:102F7000C5B229461920FFF7ADFF0546264604EBEA
:102F8000D671C1F34F00FFF7C7FF70BD70B504469F
:102F900000F072F9D02000F019FA00F0AAF92046EA
:102FA00000F014FA00F0A5F900F066F9D12000F065
:102FB0000DFA00F09EF9002000F031FA054600F00D
:102FC00079F9284670BD10B50446E006010E1C20B4
:102FD000FFF780FF10BD10B50446E006010E1B2070
:102FE000FFF778FF10BD10B500F02DF980216B20A0
:102FF000FFF770FF642004F02CF900216B20FFF72D
:1030000069FF0320FFF7E7FF0020FFF7DCFF322016
:10301000FFF79FFF00213820FFF75CFF00216A20A7
:10302000FFF758FF00212320FFF754FF80213720AE
:10303000FFF750FF7520FFF7A9FF0446682C0BD15E
:1030400001216B20FFF746FF00216C20FFF742FFB4
:103050003220FFF77EFF01E0012010BD0020FCE7D9
:103060002DE9F04106460F4614461D4600F004F9CE
:10307000002141EA4601C8B200F0A8F900F039F990
:1030800020B100F017F90120BDE8F081384600F0CA
:103090009DF900F02EF900F0EFF8012101EB460157
:1030A000C8B200F093F900F024F90DE0012C04D12E
:1030B000002000F0B4F9287003E0012000F0AFF91F
:1030C0002870601EC4B26D1C002CEFD100F0F2F825
:1030D0000020D9E72DE9F84F6B46022241216820F4
:1030E000FFF7BEFF9DF801009DF8001040EA0120A7
:1030F0000FFA80FA504607F0A9FC804600224B4B9D
:1031000007F04CFB06464A4A4A4B07F097FA04463A
:1031100007F062FA83464849584608F0FDF904462C
:1031200008F02EF900B2BDE8F88F2DE9FC41044605
:103130000D4616466B46062243216820FFF790FF96
:103140000746BFB99DF801009DF8001040EA012034
:1031500000B220809DF803009DF8021040EA012093
:1031600000B228809DF805009DF8041040EA012077
:1031700000B230803846BDE8FC812DE9FC410446B0
:103180000D4616466B4606223B216820FFF768FF76
:103190000746BFB99DF801009DF8001040EA0120E4
:1031A00000B220809DF803009DF8021040EA012043
:1031B00000B228809DF805009DF8041040EA012027
:1031C00000B230803846BDE8FC812DE9F04105466B
:1031D0000E461746984600F04FF8002141EA450197
:1031E000C8B200F0F3F800F084F820B100F062F803
:1031F0000120BDE8F081304600F0E8F800F079F8F1
:1032000000240CE018F8040000F0E0F800F071F879
:1032100018B100F04FF80120EBE7601CC4B2BC42CB
:10322000F0DB00F047F80020E3E7000000407540C5
:10323000A4703D0AD74342400000C84210B50220A6
:1032400003F0E3FF10BD08B50121102004F092FD4A
:103250004FF4C050ADF8000010208DF8030003209B
:103260008DF802006946864804F0C8FA4FF4C05150
:10327000834804F070FB08BD10B58148406820F415
:1032800070407F4948600846406840F440504860BC
:1032900001207C4908607C49C1F8B001FFF7CEFFEE
:1032A000002078490860FFF7C9FF00207649C1F87F
:1032B000B00110BD10B57248406820F470407049EC
:1032C00048600846406840F44050486000206D491E
:1032D000091D08606C49C1F8AC01FFF7AFFF012080
:1032E0006849091D08606849C1F8AC01FFF7A6FFED
:1032F00010BD10B500246248406820F47040604959
:1033000048600846406840F40040486001205D493C
:103310000860FFF793FF01205B49C1F8B001FFF798
:103320008DFF07E0601CC4B2FA2C03DDFFF7C2FF7B
:10333000012010BD5348803800680028F2D151495F
:10334000091D086000BFF4E710B500204D49091DB4
:1033500008604B48406820F470404949486008467E
:10336000406840F44050486000204749C1F8AC0133
:10337000FFF764FF01204349091D0860FFF75EFF66
:1033800000204149C1F8B00110BD10B500203D49F1
:10339000091D08603A48406820F470403849486088
:1033A0000846406840F44050486001203649C1F862
:1033B000AC01FFF743FF01203249091D0860FFF708
:1033C0003DFF00203049C1F8B00110BD70B5044682
:1033D0002B48406820F470402949486008464068FE
:1033E00040F44050486000202649091D086000252F
:1033F00012E0E009234908606006040E012022491A
:10340000C1F8B001FFF71AFF00201E49091D08602E
:10341000FFF714FF681CC5B2082DEADB70BD70B55C
:10342000054600241648406820F47040144948605E
:103430000846406840F400404860002615E000203F
:103440001049091D0860FFF7F9FE01200E49C1F877
:10345000B0016006040E0B488038006808B1601C9B
:10346000C4B2FFF7EBFE701CC6B2082EE7DB15B93D
:10347000FFF78BFF01E0FFF767FF204670BD0000FC
:1034800000100140AC0122420000224238B504463F
:10349000F74890F82400C0B114B10220009001E078
:1034A00000200090F24A1268D17BF14A52681078ED
:1034B0006B460122FFF789FE10B14FF0FF3038BD97
:1034C0009DF80010EA48417423E0E948807A10B979
:1034D0004FF0FF30F3E724B1E548407C08B100200D
:1034E000EDE714B10120009001E000200090E04AD7
:1034F0001268D17BDE4A526810786B460122FFF7D2
:1035000064FE10B14FF0FF30D9E79DF80010D848A5
:1035100041740020D3E738B500241FE0D448006888
:10352000C07AA04204D0D2480068407DA04200D1B9
:1035300012E0CF49496808786B4601222146FFF71F
:103540008FFD10B14FF0FF3038BD9DF800202146AF
:10355000C8A005F07DFE00BF601CC4B2C44840682E
:103560000079A042DADC0020EEE770B504460D4693
:10357000BF480068C07AA04204D0BD480068407DC2
:10358000A04202D14FF0FF3070BDB94840680079C9
:10359000A04202DC4FF0FF30F6E7B54949680878F1
:1035A0002B4601222146FFF75BFDEDE738B50446C7
:1035B000AF4890F82300A04201D1002038BD14B1DB
:1035C0003020009001E000200090A948807C20B1CC
:1035D0009DF8000040F002000090A54890F82200FD
:1035E00020B19DF8000040F080000090A04A1268D1
:1035F000117D9F4A526810786B460122FFF7E5FD66
:1036000010B14FF0FF30D9E7994880F823400020EF
:10361000D4E738B5044604F0700010B101200090E2
:1036200005E014B10020009001E040200090904A95
:103630001268917C8E4A526810786B460122FFF71F
:10364000C4FD20B100218A488172481E38BD9DF812
:10365000000020F04001864801730020009004F033
:10366000400020B99DF8000040F00400009004F0F4
:10367000200020B99DF8000040F00200009004F006
:10368000100020B99DF8000040F00100009004F007
:10369000080020B99DF8000040F038000090744AFE
:1036A0001268D17C724A526810786B460122FFF78B
:1036B0008CFD20B100216E488172481EC6E724B1FE
:1036C000082C02D00020FFF771FF694884720021A6
:1036D0000175322003F0BDFD0020B7E738B5044680
:1036E0006348807CA04201D1002038BD002C46D028
:1036F0005F4A126811795E4A526810786B4601225F
:10370000FFF7AEFC10B14FF0FF30EEE79DF8000080
:1037100020F020000090564A12681179544A5268ED
:1037200010786B460122FFF750FD10B14FF0FF30CB
:10373000DBE7032003F08DFD022000904C4890F859
:10374000220020B19DF8000040F080000090484821
:1037500090F8230020B19DF8000040F03000009068
:10376000434A1268117D424A526810786B46012222
:10377000FFF72BFD002851D04FF0FF30B5E73C4A52
:10378000126811793A4A526810786B460122FFF7A5
:1037900067FC10B14FF0FF30A7E73548807A00F0A2
:1037A000010028B19DF8000040F02000009004E0E6
:1037B0009DF8000020F0200000902D4A1268117939
:1037C0002B4A526810786B460122FFF7FEFC10B1BD
:1037D0004FF0FF3089E7032003F03BFD244890F8C9
:1037E000220010B18020009001E0002000902048CD
:1037F00090F8230020B19DF8000040F030000090C8
:103800001B4A1268117D1A4A526810786B460122D1
:10381000FFF7DBFC10B14FF0FF3066E7144884740B
:10382000002062E708B51248807A10B94FF0FF30E7
:1038300008BD002000900E4A1268D17B0C4A5268E5
:1038400010786B460122FFF7C0FC10B14FF0FF303B
:10385000EEE7074A12685179054A526810786B46BC
:103860000122FFF7B2FC68B14FF0FF30E0E7000043
:1038700024030020252335783A20252335780D0AA6
:1038800000000000FB4A12681179FA4A5268107869
:103890006B460122FFF799FC10B14FF0FF30C7E7EC
:1038A000F44890F82400002850D00C200090F14AF1
:1038B00012681179EF4A526810786B460122FFF7BF
:1038C00084FC10B14FF0FF30B2E7C0200090E9480F
:1038D000807A00F0010020B19DF8000040F0200047
:1038E0000090E44A12681179E24A526810786B46F7
:1038F0000122FFF76AFC10B14FF0FF3098E7DD4876
:10390000407C10B10220009001E000200090D94AD4
:103910001268D17BD74A526810786B460122FFF7B4
:1039200054FC10B14FF0FF3082E700200090D14AE4
:1039300012685179CF4A526810786B460122FFF71E
:1039400044FC002855D04FF0FF3071E70420009070
:10395000C84A12681179C74A526810786B4601222A
:10396000FFF733FC10B14FF0FF3061E7C148807CB6
:1039700020B9C048807A00F0010010B940200090C2
:1039800001E060200090BB4A12681179B94A526880
:1039900010786B460122FFF718FC10B14FF0FF3092
:1039A00046E7322003F055FCB248407C10B10120BC
:1039B000009001E000200090AE4A1268D17BAD4A31
:1039C000526810786B460122FFF7FFFB10B14FF0F1
:1039D000FF302DE7A74A12685179A64A526810783D
:1039E000A44B10330122FFF7F0FB10B14FF0FF3072
:1039F0001EE700201CE770B50446002624F00104F1
:103A00009C4890F8240008B1002070BD9948807A45
:103A100010B94FF0FF30F8E79648057C807A2040D7
:103A2000944908740846007CA04202D04FF0FF364B
:103A300000E0002614B98F48007D18B10120FFF77F
:103A400025FD02E00020FFF721FD3CB1FFF7EAFE73
:103A500020B1884805744FF0FF30D6E73046D4E7F0
:103A600038B504468348807A10B94FF0FF3038BD2E
:103A7000BC2C02DB0120009015E0622C02DB02204E
:103A8000009010E02A2C02DB032000900BE0142CA5
:103A900002DB0420009006E00A2C02DB05200090E7
:103AA00001E0062000907348C07A9DF8001088421B
:103AB00001D10020DBE76F4A126891786D4A5268A5
:103AC00010786B460122FFF780FB10B14FF0FF30FA
:103AD000CDE79DF800106748C1720020C7E738B5F0
:103AE0000446282C02DD4FF0FF3038BDDCB9002041
:103AF000FFF75CFD00208DF8000007208DF8010025
:103B00005C4A1268917C5B4A526810786B460222CC
:103B1000FFF75BFB10B14FF0FF30E6E7002155489F
:103B200001750020E1E70120FFF740FD20208DF81E
:103B30000000012C06D100208DF801000520FFF7C0
:103B40008FFF17E0052C06DC01208DF80100052011
:103B5000FFF786FF0EE0142C06DC02208DF8010032
:103B60000A20FFF77DFF05E003208DF801001420F7
:103B7000FFF776FF9DF80100072101EB8010C0B22E
:103B80008DF801003B4A1268917C3A4A52681078DD
:103B90006B460222FFF719FB10B14FF0FF30A4E78C
:103BA0000821344881720021017301210175002030
:103BB000FFF721FF002098E738B504462D48807AAA
:103BC00010B94FF0FF3038BD2A4890F8240010B1EA
:103BD0004FF0FF30F7E72748007D50B134B1282C73
:103BE00004DCE0B2FFF77BFF0020ECE70020FFF7EA
:103BF00076FF042C01DA042404E0B4F57A7F01DDB9
:103C00004FF47A744FF47A7090FBF4F0401EC0B217
:103C10000090184A12685178164A526810786B461C
:103C20000122FFF7D2FA10B14FF0FF30CBE79DF839
:103C30000000401C4FF47A7191FBF0F081B20D4806
:103C4000C1810146C9894810FFF70AFF0020BAE781
:103C500038B504460748807A10B94FF0FF3038BDB8
:103C6000022C09D0042C0AD0082C0BD0102C0FD118
:103C70000BE0000024030020002000900BE008204F
:103C8000009008E01020009005E01820009002E06D
:103C90004FF0FF30E3E700BFF848407A9DF800108E
:103CA000B0EBE10F01D10020D9E7F44A1268D179D5
:103CB000F24A526810786B460122FFF786FA10B17B
:103CC0004FF0FF30CBE79DF80000C110EB48417288
:103CD0000020C4E738B50446E848807A10B94FF0B0
:103CE000FF3038BDFA2C09D0B4F5FA7F09D0B4F50D
:103CF0007A7F09D0B4F5FA6F0CD108E0002000906B
:103D00000BE00820009008E01020009005E018204B
:103D1000009002E04FF0FF30E3E700BFD748007AA1
:103D20009DF80010B0EBE10F01D10020D9E7D34A94
:103D300012689179D14A526810786B460122FFF7D8
:103D400044FA10B14FF0FF30CBE79DF80000C010EF
:103D5000CA4908720020C4E71CB580208DF8000015
:103D6000C64A1268917CC54A526810786B46012297
:103D7000FFF72BFA10B14FF0FF301CBD642003F0A9
:103D800068FA00208DF80000BC4A1268917CBB4A9A
:103D9000526810786B460122FFF717FA10B14FF006
:103DA000FF30EAE7B54A1268917DB44A526810784C
:103DB0006B460622FFF754F910B14FF0FF30DCE7F5
:103DC0009DF80500C007400F9DF8031001F00101A8
:103DD00040EA41009DF8011001F0010140EA0104B0
:103DE00094B1012C03D10121A448C17431E0022C0B
:103DF00003D10021A148C1742BE02146A0A005F009
:103E000027FA4FF0FF30B8E79C4A1268D1789B4AF6
:103E1000526810786B460122FFF722F910B14FF07B
:103E2000FF30AAE79DF8000000F00F042CB99E486F
:103E300005F00EFA4FF0FF309FE7042C06D19BA04F
:103E400005F006FA01218D48C17402E000218B487B
:103E5000C174FF2189488172FF2088490872FF21BF
:103E600086484172C1724FF6FF71C181FF21017412
:103E700081740121017380F82210002180F8231041
:103E8000417501751630016041608160163880F817
:103E9000241080F82510C1844FF4FA60FFF71AFF50
:103EA00010B14FF0FF3068E70220FFF7D1FE10B1EC
:103EB0004FF0FF3061E72A20FFF7D2FD10B14FF03D
:103EC000FF305AE73220FFF777FE10B14FF0FF3096
:103ED00053E70020FFF78FFD10B14FF0FF304CE7A4
:103EE0000020FFF7FBFB10B14FF0FF3045E700204B
:103EF000FFF78FFB002040E770477CB504460D4676
:103F00005E48807A00F0700010B94FF0FF307CBD41
:103F10005A4A1268117B594A526810786B46062239
:103F2000FFF79EF810B14FF0FF30F0E79DF8010069
:103F30009DF8001040EA012000B220809DF80300A7
:103F40009DF8021040EA012000B260809DF8050053
:103F50009DF8041040EA012000B2A08015B1284667
:103F6000FFF7CAFF0020D2E77CB504460D46434860
:103F7000807A00F0080010B94FF0FF307CBD3F4A56
:103F80001268517B3D4A526810786B460622FFF753
:103F900067F810B14FF0FF30F0E79DF801009DF891
:103FA000001040EA012000B220809DF803009DF837
:103FB000021040EA012000B260809DF805009DF8E3
:103FC000041040EA012000B2A08015B12846FFF796
:103FD00093FF0020D2E72DE9FE4F05460C46274807
:103FE000807A18B94FF0FF30BDE8FE8F234A12687F
:103FF000917B224A5268107802AB0222FFF730F818
:1040000010B14FF0FF30EFE79DF809009DF8081060
:1040100040EA012006B214B12046FFF76DFF1749B0
:104020004968C88807F030FA144901904968B1F925
:10403000080007F0E1F98346304607F0DDF95946FC
:10404000009007F0A1FB8246019907F0A3F8814692
:104050001E4907F02BF880464FF08F4107F05CFABD
:10406000074607F08DF928600020BDE710B588B03D
:1040700004466CBB4FF0FF3008B010BD2403002095
:10408000556E737570706F7274656420736F6674AB
:10409000776172652070726F6475637420726576E3
:1040A0002025642E0A000000B0C7000848616C6635
:1040B0002073656E736974697669747920706172B2
:1040C0007420666F756E642E0A00000000000C42BA
:1040D000FFE7206830B9606820B9A06810B90020F7
:1040E00008B010BDFA494968087806AB03221146AA
:1040F000FEF7B6FF10B14FF0FF30F1E79DF8180062
:10410000082101EB201000F00F00ADF800009DF831
:10411000190001EB201000F00F00ADF802009DF82F
:104120001A0001EB201000F00F00ADF80400206829
:104130004100BDF90000403091FBF0F000B2ADF855
:10414000100060684100BDF90200403091FBF0F0C2
:1041500000B2ADF81200A0684100BDF90400403083
:1041600091FBF0F000B2ADF81400D9494968087825
:1041700006AB06221146FEF773FF10B14FF0FF3079
:10418000AEE79DF819009DF8181040EA012000B232
:10419000ADF808009DF81B009DF81A1040EA0120B8
:1041A00000B2ADF80A009DF81D009DF81C1040EA11
:1041B000012000B2ADF80C00BDF81000BDF80810E9
:1041C000084400B2ADF81000BDF81200BDF80A10A6
:1041D000084400B2ADF81200BDF81400BDF80C1090
:1041E000084400B2ADF81400BDF81000000A8DF8C4
:1041F0001800BDF81000C0B28DF81900BDF812000B
:10420000000A8DF81A00BDF81200C0B28DF81B002C
:10421000BDF81400000A8DF81C00BDF81400C0B2EF
:104220008DF81D00AA494968087806AB0622114698
:10423000FEF7CBFF10B14FF0FF3051E700204FE702
:104240000146A348007A30B1012807D0022809D0DE
:1042500003280FD10AE0FA2008800EE04FF4FA702C
:1042600008800AE04FF47A70088006E04FF4FA60A4
:10427000088002E00020088000BF00BF00207047D7
:1042800001469348407A30B1012807D0022808D06F
:1042900003280CD108E0022008700BE0042008700D
:1042A00008E00820087005E01020087002E04FF0D8
:1042B000FF30704700BF8648C07C18B108784006C0
:1042C000000E08700020F4E701468148C07A0828F3
:1042D00017D2DFE800F01704070A0D101318BC20EE
:1042E000088013E06220088010E02A2008800DE09A
:1042F000142008800AE00A20088007E005200880D2
:1043000004E000BF00BF0020088000BF00BF002005
:10431000704701466E4890F8240010B14FF0FF300E
:1043200070476B48C08908800020F9E701460020EB
:104330000880401E704701464FF0FF30704701462D
:104340006348007A30B1012807D0022808D003283A
:104350000CD108E05F4808600BE05F48086008E0A7
:104360005E48086005E05E48086002E04FF0FF30FC
:10437000704700BF0020FBE701465548407A30B146
:10438000012808D002280AD0032810D10BE04FF4EE
:10439000804008800EE041F69C7008800AE04FF4EF
:1043A0008050088006E04FF40060088002E04FF083
:1043B000FF30704700BF4648C07C10B108884010ED
:1043C00008800020F5E701464148007C0870002085
:1043D000704701463E48807A10B10120087001E024
:1043E000002008700020704738B504463848807AAD
:1043F00010B94FF0FF3038BD354A1268117C344A8D
:10440000526810786B460222FEF72AFE10B14FF078
:10441000FF30F0E79DF801009DF8001040EA012010
:1044200000B220800020E6E72DE9FE4F07468846CF
:1044300092461D46DDF830B000260024244890F84E
:10444000240010B1601EBDE8FE8F002028702048B7
:10445000807A10B94FF0FF30F5E71D48007C10B9A5
:104460004FF0FF30EFE71A48007C00F0400008B141
:10447000B01CC6B21648007C00F0200008B1B01C89
:10448000C6B21348007C00F0100008B1B01CC6B2E0
:104490000F48007C00F0080008B1B01DC6B20C4AFD
:1044A0001268917A0A4A526810786B460222FEF727
:1044B000D7FD10B14FF0FF30C5E79DF801009DF822
:1044C000001040EA0129B1450CDA0020BBE70000EA
:1044D00024030020000003430000834233330342DF
:1044E00033338341FC4840684088B9EB600F17DDE7
:1044F000F94A1268517CF84A526810786B460122DA
:10450000FEF7AEFD10B14FF0FF309CE79DF80000C4
:1045100000F0100020B1FFF785F96FF0010092E77D
:104520005046FFF7E9FCEC4A1268D17AEA4A526831
:1045300010786B463246FEF793FD10B14FF0FF3016
:1045400081E799FBF6F0401E8BF8000000202870F0
:10455000B4422AD0E048007C00F0080028B3601C78
:104560001DF800001DF8041040EA012000B2A8F870
:104570000000E01C1DF80010A01C1DF8000041EA1E
:10458000002000B2A8F80200601D1DF80010201DD8
:104590001DF8000041EA002000B2A8F804002878C5
:1045A00040F008002870A01D84B2B44213D0CA485D
:1045B000007C00F0400070B1601C1DF800001DF888
:1045C000041040EA012000B23880287840F0400012
:1045D0002870A01C84B2B44213D0BF48007C00F005
:1045E000200070B1601C1DF800001DF8041040EAA6
:1045F000012000B27880287840F020002870A01CAC
:1046000084B2B44213D0B448007C00F0100070B102
:10461000601C1DF800001DF8041040EA012000B2E3
:10462000B880287840F010002870A01C84B20020C8
:1046300009E7F8B504460F461646A74890F8240047
:1046400010B94FF0FF30F8BDA348807A10B94FF091
:10465000FF30F8E7A04A1268917A9F4A52681078B2
:104660006B460222FEF7FCFC10B14FF0FF30EAE788
:104670009DF801009DF8001040EA0125A54203DAEB
:1046800000203070401EDEE7934840684088B5EB5C
:10469000600F17DD904A1268517C8F4A526810787B
:1046A0006B460122FEF7DCFC10B14FF0FF30CAE789
:1046B0009DF8000000F0100020B1FFF7B3F86FF094
:1046C0000100C0E7E2B2844B1B68D97A824B5B6879
:1046D00018783B46FEF7C4FC10B14FF0FF30B2E74C
:1046E00095FBF4F0401E30700020ACE701467A489C
:1046F00080F82210002070477CB50546764949684D
:10470000087801AB04220D21FEF7AAFC08B10720AE
:104710007CBD9DF80700C0F301109DF8041001F066
:10472000E00140EAE1008DF800009DF80700C0F3C9
:1047300081009DF8051001F0E00140EAE1008DF8EC
:1047400001009DF8070000F003009DF8061001F03D
:10475000E00140EAE1008DF8020000241CE01DF8B1
:10476000040018B9002045F8240013E05B4845F820
:10477000240006E055F82400594906F0CDFE45F81E
:1047800024001DF80400401EC0B20DF804000028EB
:10479000F0D100BF601CC4B2032CE0DB0020B7E7FF
:1047A0002DE9FE4F06460F4600256846FFF7A4FF99
:1047B000002442E056F8240057F82410A0EB010A28
:1047C000BAF1000F01DB514601E0CAF100010846D1
:1047D00006F012FE83464FF08F4106F0DBFC804668
:1047E0005DF82400002106F097FD16D05DF8241036
:1047F000404606F0CFFC82464FF07E5106F0C4FFE3
:10480000814629F0004A3748416A504606F050FF79
:1048100012D20120A04005430EE03248C169404653
:1048200006F046FE05D32F48016A404606F040FFD9
:1048300002D20120A0400543641C032CBADB2846A9
:10484000BDE8FE8F2DE9FC5F06460F460025224994
:104850004968087801AB03220D21FEF701FC10B175
:104860000720BDE8FC9F9DF8040000F01F008DF8B4
:1048700004009DF8050000F01F008DF805009DF86C
:10488000060000F01F008DF80600002462E056F8D4
:10489000240057F82410A0EB010BBBF1000F01DB43
:1048A000594601E0CBF10001084606F0A5FD4FF0A6
:1048B0008F41009006F06EFC814601A8005DC0B3F8
:1048C0000849086806F0E0FD83465946064806F0A8
:1048D00061FC80460FE00000240300207B14AE3E04
:1048E0001D5A843FD8B9000800B04C45FE494046E7
:1048F00006F012FE804601A8005D401EC0B201A96C
:1049000008550028F2D14146484606F043FC83464C
:104910004FF07E5106F038FF82462AF0004BF348F4
:104920008169584606F0C4FE13D20120A040054319
:104930000FE0FFE7ED480169484606F0B9FD05D3F1
:10494000EA484169484606F0B3FE02D20120A04081
:104950000543641C032C9ADB284682E72DE9F04FBF
:1049600087B005460C46914601208DF810000020C6
:104970008DF81100DE4A1268917CDD4A5268107889
:1049800004AB0222FEF721FC20B14FF0FF3007B04C
:10499000BDE8F08FC82002F05CFC00208DF810000C
:1049A000D34A1268D17BD24A5268107804AB0122F4
:1049B000FEF70BFC10B14FF0FF30E8E7CC4A12686D
:1049C0005179CB4A5268107804AB0122FEF7FDFB07
:1049D00010B14FF0FF30DAE7C54A1268917CC44A43
:1049E0005268107804AB0122FEF7EFFB10B14FF0D4
:1049F000FF30CCE7BE4A1268D17DBD4A52681078BC
:104A000004AB0122FEF7E1FB10B14FF0FF30BEE72F
:104A1000B74A12681179B64A5268107804AB01227D
:104A2000FEF7D3FB10B14FF0FF30B0E70C208DF84C
:104A30001000AF4A12681179AD4A5268107804AB81
:104A40000122FEF7C2FB10B14FF0FF309FE70F20AD
:104A500002F0FFFBA648806A407A8DF81000A44A55
:104A600012689178A24A5268107804AB0122FEF7CE
:104A7000ACFB10B14FF0FF3089E79D48806A007AA7
:104A80008DF810009A4A12685178994A5268107845
:104A900004AB0122FEF799FB10B14FF0FF3076E72F
:104AA000B9F1000F07D09248806A807A40F0E000A8
:104AB0008DF8100004E08E48806A807A8DF810002E
:104AC0008B4A126891798A4A5268107804AB0122A5
:104AD000FEF77BFB10B14FF0FF3058E7B9F1000F44
:104AE00007D08348806AC07A40F0E0008DF810005B
:104AF00003E07E48C07A8DF810007D4A1268D179B3
:104B00007B4A5268107804AB0122FEF75EFB10B1BD
:104B10004FF0FF303BE7B9F1000F02D0C82002F0A0
:104B200098FB40208DF81000714A12681179704A84
:104B30005268107804AB0122FEF747FB10B14FF02A
:104B4000FF3024E778208DF81000694A1268517907
:104B5000674A5268107804AB0122FEF736FB10B1A9
:104B60004FF0FF3013E76149888902F072FB0020A3
:104B70008DF810005E4A126851795D4A52681078CB
:104B800004AB0122FEF721FB10B14FF0FF30FEE62F
:104B9000574A1268917A564A5268107804AB02223A
:104BA000FEF75EFA10B14FF0FF30F0E69DF811000D
:104BB0009DF8101040EA012B0C209BFBF0F0C6B2D0
:104BC0000020A86068602860A06060602060824665
:104BD00065E0474A1268D17A454A5268107804ABBA
:104BE0000C22FEF73DFA10B14FF0FF30CFE69DF8F2
:104BF00011009DF8101040EA012000B2ADF8080045
:104C00009DF813009DF8121040EA012000B2ADF8A3
:104C10000A009DF815009DF8141040EA012000B22A
:104C2000ADF80C00BDF90810206808442060BDF9FB
:104C30000A10606808446060BDF90C10A068084460
:104C4000A0609DF817009DF8161040EA012000B200
:104C5000ADF800009DF819009DF8181040EA0120F9
:104C600000B2ADF802009DF81B009DF81A1040EA52
:104C7000012000B2ADF80400BDF900102868084416
:104C80002860BDF90210686808446860BDF9041026
:104C9000A8680844A8600AF1010000F0FF0AB245C4
:104CA00097DB1248D0F800C02868C117090441EA10
:104CB0001041070462460023384604F0A4FA324645
:104CC0000023CDE9020104F09EFA28600748D0F8DD
:104CD00000C06868C117090441EA10410704624630
:104CE0000023384606E0000054E3853FD8B90008A9
:104CF0002403002004F087FA32460023CDE90201A4
:104D000004F081FA6860FE48D0F800C0A868C117B6
:104D1000090441EA1041070462460023384604F0C2
:104D200072FA32460023CDE9020104F06CFAA86061
:104D3000F348D0F804C02168C817000440EA1148BD
:104D40000F04624600233846414604F05CFA3246BE
:104D50000023CDE9020104F056FA2060E848D0F8BB
:104D600004C06068C117090441EA104107046246A3
:104D70000023384604F047FA32460023CDE9020109
:104D800004F041FA6060DE48D0F804C0A068C117A2
:104D9000090441EA1041070462460023384604F042
:104DA00032FA32460023CDE9020104F02CFAA06069
:104DB000A068002804DDA068A0F58030A06003E0B2
:104DC000A06800F58030A0600020E0E538B504461A
:104DD000CC4890F82400A04201D1002038BD24B373
:104DE000C84890F8250010B94FF0FF30F6E70020D2
:104DF000FEF74CFB0020FEF771FCC249C88CFEF7A1
:104E0000DBFE00200090BF49496808786B4601220C
:104E10002321FEF7DAF90121BA4880F82410012095
:104E2000FEF734FBFEF7FEFC13E00020FEF72EFB3E
:104E3000B448007C0090B349496808786B46012269
:104E40002321FEF7C2F90021AE4880F82410FEF7B6
:104E5000E9FC0020C2E72DE9F04F8DB083460F46F4
:104E600002200C90A74890F8240020B10020FFF702
:104E7000ADFF012600E0002603A8FFF7E1F905A831
:104E8000FFF7FEF901A8FFF71FFA02A8FFF741FAA2
:104E90009C4890F80AA004A8FFF795FA002407E0C0
:104EA000002239465846FFF759FD00B902E0641C5C
:104EB000022CF5DB00BF022C01D1002528E00024E4
:104EC00007E0012206A909A8FFF748FD00B902E0A2
:104ED000641C022CF5DB00BF022C01D1002517E079
:104EE00006A93846FFF75CFC00F0FF0809A9584600
:104EF000FFF7A8FC00F0FF090025B9F1000F01D170
:104F000045F00105B8F1000F01D145F0020500BFE1
:104F1000FF207C490872FF217A484172C1724FF626
:104F2000FF71C181FF218172017401210173BDF8FC
:104F30000C00FEF7CFFE9DF81400FEF789FEBDF8C9
:104F40000400FEF78DFDBDF80800FEF735FE504663
:104F5000FEF75FFB9DF81000FEF74DFD16B1012036
:104F6000FFF734FF28460DB0BDE8F08FF8B50446D2
:104F70000D46164616B94FF0FF30F8BD6148807AED
:104F800010B94FF0FF30F8E720128DF80000E0B2C2
:104F90008DF801009DF8010028445A494968498963
:104FA000884202DD4FF0FF30E7E7564A1268117E73
:104FB000544A526810786B460222FEF706F910B187
:104FC0004FF0FF30D9E7EAB24E4B1B68597D4D4B8D
:104FD0005B6818783346FEF7F8F810B14FF0FF30F1
:104FE000CBE70020C9E7F8B504460D46164616B9CA
:104FF0004FF0FF30F8BD4348807A10B94FF0FF30D2
:10500000F8E720128DF80000E0B28DF801009DF85D
:10501000010028443B4949684989884202DD4FF034
:10502000FF30E7E7374A1268117E364A5268107837
:105030006B460222FEF7C9F810B14FF0FF30D9E7F6
:10504000EAB2304B1B68597D2E4B5B6818783346AB
:10505000FEF706F810B14FF0FF30CBE70020C9E7AC
:105060002DE9F04385B005460E4690469946254801
:1050700090F8250020B14FF0FF3005B0BDE8F08377
:1050800016B94FF0FF30F8E7002423E0281B102862
:1050900001DD102000E0281B87B232193946204676
:1050A000FFF764FF10B14FF0FF30E6E701AA394681
:1050B0002046FFF798FF10B14FF0FF30DDE73019C1
:1050C0003A4601A904F0FCF910B16FF00100D4E7F1
:1050D000E01984B2AC42D9DB4FEA28208DF80000F9
:1050E00008F0FF008DF80100064A1268917E054A1B
:1050F000526810786B460222FEF767F838B103E079
:10510000D8B90008240300204FF0FF30B5E7012193
:10511000FE4880F82510A0F826900020ADE7014653
:10512000FA4890F824000870002070474FF0FF30D4
:10513000704702464FF0FF30704701464FF0FF3096
:105140007047F8B505460F461446002C70D0B5F5EB
:10515000FF5F01DDFF2605E0202D01DA012601E0D9
:10516000C5F3471607B90127282C02DD4FF0FF30A1
:10517000F8BDE648407D28BBE44890F8240038B1EB
:105180000020FFF723FE0121E04880F8201003E013
:105190000021DE4880F82010DC481630FFF750F878
:1051A000DA481830FFF76CF8D8481A30FFF78CF857
:1051B000D6481C30FFF7ADF8D448817A81771F308C
:1051C000FFF701F90020FEF761F90020FEF787FCE8
:1051D00000208DF80000CD4A12689178CB4A5268C1
:1051E00010786B460122FDF7F0FF10B14FF0FF3051
:1051F000BEE740208DF80000C44A1268D17BC34A44
:10520000526810786B460122FDF7DFFF00B165E0C0
:105210008DF800608DF80170BC4A1268117ABB4AA3
:10522000526810786B460222FDF7CFFF08B155E0B7
:1052300047E0052002F00DF8B448407A072101EB61
:10524000C000C0B28DF80000B04A1268D179AF4AF0
:10525000526810786B460122FDF7B7FF00B13DE0C0
:1052600020208DF80000012C03D100208DF80100D2
:105270000EE0052C03DC01208DF8010008E0142C61
:1052800003DC02208DF8010002E003208DF801000C
:105290009DF80100072101EB8010C0B28DF80100DC
:1052A0009A4A1268917C994A526810786B46022299
:1052B000FDF78BFF00B111E00121944841750020FA
:1052C00056E7924A1632002103E0505C00B105E037
:1052D000491C0C29F9D34FF0FF3049E7FF208B49D7
:1052E0000872FF2189484172C1724FF6FF71C18176
:1052F000FF2181720174012101730146887FFEF74D
:1053000088F98249C88AFEF7E5FC8049087EFEF7E5
:105310009FFC7E49488BFEF7A3FB7C49888BFEF7F8
:105320004BFC7A49C87FFEF766FB784890F820006E
:1053300010B10120FFF74AFD00217448417500209B
:1053400016E770B588B002A905A8FFF784FD0446EA
:10535000032C3ED101A8FEF7F2FF059806F04CF8A9
:105360000646019906F0D8F8054606F009F80590BA
:10537000069806F041F80646019906F0CDF8054674
:1053800005F0FEFF0690079806F036F806460199EC
:1053900006F0C2F8054605F0F3FF079005A800F0F7
:1053A00054FA6846FEF7E8FFBDF80010029848433B
:1053B0000290BDF80010039848430390BDF8001018
:1053C00004984843049002A800F0D2FA002008B0E4
:1053D00070BD0120FBE7014691F90020002A01DDA4
:1053E00000201EE091F90020002A01DA042018E0D4
:1053F00091F90120002A01DD012012E091F901203C
:10540000002A01DA05200CE091F90220002A01DDD2
:10541000022006E091F90220002A01DA062000E0CD
:105420000720704710B504462046FFF7D4FF034617
:10543000E01CFFF7D0FF43EAC00083B2A01DFFF7D6
:10544000CAFF43EA801083B2184610BD70B500242D
:10545000FDF7F9FEFEF780FC002840D17820FEF72A
:10546000D8F8C4B20CB1012070BD7820FEF7C3FAA1
:10547000C4B20CB10220F7E76420FEF79DFBC4B272
:105480000CB10320F0E700F045F9C4B20CB10420E0
:10549000EAE71F48FFF7C6FF054600F045F9C4B22A
:1054A0000CB10520E0E740F2731000F07EFDC4B2BD
:1054B0000CB10620D8E7642000F0F0FAC4B20CB1B9
:1054C0000720D1E7FFF73DFF04460CB10820CBE7EA
:1054D0000120FFF77BFCC4B21CB10920C4E70A20FD
:1054E000C2E70020C0E72DE9F04F99B004460D4611
:1054F00016464FF07E574FF000084FF000094FF06E
:10550000000A12A813A918AB0EAA03E02403002076
:1055100050030020CDE9001014A916A800F0A4FE45
:1055200018B1012019B0BDE8F08FBDF84C0000F4AF
:10553000807000287ED00E9805F05EFF83464FF005
:105540009D4105F027FE07460F9805F055FF83465D
:105550004FF09D4105F01EFE8046109805F04CFF6F
:1055600083464FF09D4105F015FE8146119805F0E8
:1055700043FF83464FF09D4105F00CFE82463946BD
:105580004FF0804005F0C8FF4946059005F0C4FF84
:10559000414607904FF0404005F0BEFF5146059050
:1055A00005F0BAFF0690079905F080FD834605F0E7
:1055B00051FDCDE9080104F0A3FA4FF06632544BD7
:1055C000CDE90A0105F06CFACDE90C0105F004F80B
:1055D000206049464FF0804005F09EFF494602900A
:1055E00005F09AFF414604904FF0404005F094FFCB
:1055F0004146029005F090FF0390049906F0C4F82C
:1056000083464FF07E5105F051FD059005F022FDD7
:10561000CDE9080139464FF0804005F07DFF414655
:10562000039005F079FF494604904FF0804005F063
:1056300073FF00E068E05146039005F06DFF83467C
:10564000049905F033FD059005F004FDCDE9060150
:10565000DDE9082304F09CFC4FF066322C4BCDE9C9
:105660000A0105F01DFACDE90C0104F0B5FF286030
:105670005146504605F050FF49460490484605F013
:105680004BFF41460390404605F046FF39460190E6
:10569000384605F041FF0090019905F007FD0290A2
:1056A000039906F071F88346049906F06DF80590A9
:1056B00005F0D0FCCDE908015146384605F02CFF35
:1056C00049460490404605F027FF0390049905F0F1
:1056D000EDFC4FF08041059005F01EFF834605F07C
:1056E000B9FCCDE90601DDE9082304F051FC4FF0D7
:1056F0006632074BCDE90A0105F0D2F9CDE90C017C
:1057000004F06AFF306001E002200BE7002009E7A7
:1057100066A64C4010B5C8234FF48062F74940F6A6
:10572000F630FFF79DFC10BD10B586B00446F4A01E
:1057300000680390F3A000680290F3A00068019055
:10574000F2A00068009004F0030003A9085C8DF843
:10575000140003A8C4F3C101405C8DF8150003A830
:10576000C4F38111405C8DF8160004F0030002A917
:10577000085C8DF8100002A8C4F3C101405C8DF8EC
:10578000110002A8C4F38111405C8DF8120005AA33
:10579000032140F22640FFF7E9FB18B14FF0FF303C
:1057A00006B010BD04AA032140F22A40FFF7DEFB39
:1057B00010B14FF0FF30F3E7019805900098049086
:1057C00004F0040058B19DF8140040F001008DF879
:1057D00014009DF8100040F001008DF8100004F056
:1057E000200058B19DF8150040F001008DF815001B
:1057F0009DF8110040F001008DF8110004F4807054
:1058000058B19DF8160040F001008DF816009DF883
:10581000120040F001008DF8120005AA03214FF498
:105820008860FFF7A3FB10B14FF0FF30B8E704AA80
:10583000032140F23140FFF799FB10B14FF0FF30E8
:10584000AEE7B34804810020AAE71FB50446B0487C
:10585000007A00F0030054F820000190AC48007A70
:1058600000F0040010B1019840420190A848007A6D
:10587000C0F3C10054F820000290A548007A00F05F
:10588000200010B1029840420290A148007AC0F373
:10589000811054F8200003909D48008900F4807026
:1058A00010B10398404203909A49019880FB01018E
:1058B000800F40EA810001909649029880FB011018
:1058C000820042EA917002909249039880FB011095
:1058D000820042EA917003900198000E8DF800005A
:1058E0000198000C8DF801000198000A8DF8020063
:1058F0000198C0B28DF803006A4604214FF4747019
:10590000FFF734FB18B14FF0FF3004B010BD029820
:10591000000E8DF800000298000C8DF8010002982E
:10592000000A8DF802000298C0B28DF803006A46A2
:1059300004214FF47570FFF719FB10B14FF0FF30E1
:10594000E3E70398000E8DF800000398000C8DF833
:1059500001000398000A8DF802000398C0B28DF888
:1059600003006A4604214FF47670FFF7FFFACCE794
:1059700070B588B0064601A8FEF7FEFCBDF804002D
:105980000021C90341EA5045C4036148007A00F090
:10599000030056F8200005905D48007A00F00400EE
:1059A00010B10598404205905948007AC0F3C100F3
:1059B00056F8200006905648007A00F0200010B1FA
:1059C0000698404206905248007AC0F3811056F87B
:1059D000200007904E48008900F4807010B10798AD
:1059E000404207900598C117A0FB042301FB043136
:1059F00000FB0510810041EA927005900698C117DE
:105A0000A0FB042301FB043100FB0510810041EAE7
:105A1000927006900798C117A0FB042301FB043184
:105A200000FB0510810041EA927007900598000E76
:105A30008DF808000598000C8DF809000598000AFB
:105A40008DF80A000598C0B28DF80B000698000E7C
:105A50008DF80C000698000C8DF80D000698000AD1
:105A60008DF80E000698C0B28DF80F000798000E52
:105A70008DF810000798000C8DF811000798000AA7
:105A80008DF812000798C0B28DF8130002AA0C21FD
:105A90004FF42570FFF76AFA08B070BD30B585B0D5
:105AA00004461DA207CA02AB07C3C82C03DD4FF092
:105AB000FF3005B030BDC82090FBF4F0401E85B229
:105AC000280A8DF80000E8B28DF801006A4602212C
:105AD00040F21620FFF74AFA10B14FF0FF30E8E726
