:020000040800F2
:10000000D020002021860008B1200008B32000087D
:10001000B5200008B9200008BD200008000000003D
:10002000000000000000000000000000C1200008E7
:10003000C320000800000000C5200008C7200008F9
:100040003B8600083B8600083B8600083B8600088C
:100050003B8600083B8600083B8600083B8600087C
:100060003B8600083B8600083B8600083B8600086C
:100070003B8600083B8600083B8600083B8600085C
:100080003B8600083B8600083B8600083B8600084C
:100090003B8600083B8600083B8600083B8600083C
:1000A0003B8600083B8600083B8600083B8600082C
:1000B0003B8600083B860008613200083B8600084A
:1000C0003B8600083B8600083B8600083B8600080C
:1000D0003B8600083B8600083B8600083B860008FC
:1000E0003B8600083B8600083B8600083B860008EC
:1000F0003B8600083B8600083B8600083B860008DC
:100100003B8600083B860008573100083B86000804
:100110003B8600083B8600083B8600083B860008BB
:100120003B8600083B8600083B8600083B860008AB
:1001300000F002F800F06DF80AA090E8000C82448C
:100140008344AAF10107DA4501D100F062F8AFF269
:10015000090EBAE80F0013F0010F18BFFB1A43F0A5
:100160000103184738E7000058E700000A444FF041
:10017000000C10F8013B13F0070408BF10F8014B06
:100180001D1108BF10F8015B641E05D010F8016B4B
:10019000641E01F8016BF9D113F0080F1EBF10F8AF
:1001A000014BAD1C0C1B09D16D1E58BF01F801CBD2
:1001B000FAD505E014F8016B01F8016B6D1EF9D555
:1001C0009142D6D37047000000230024002500266A
:1001D000103A28BF78C1FBD8520728BF30C148BFAA
:1001E0000B60704766290DF0448364290AF018817A
:1001F00078290AF05181002070471FB50AF068FD88
:100200000400002000210CF09BF9E0601FBD10B538
:1002100010BD0AF0A1FE1146FFF7EFFF00F008F84D
:100220000AF0BFFE03B4FFF7F2FF03BC07F0D0FFF4
:10023000A2B00020219020901F901E9001201890C5
:100240000020179001201690002015900120149096
:100250000020139012901190109003200F9001F045
:10026000A8FF4FF4A06008F07FFF07F047FF472189
:1002700044F61F6003F062F94FF4FA61FE4809F09A
:10028000A9FE4FF4FA61FC4809F0A6FE4FF4FA61AA
:10029000F94809F0A3FE4FF4FA61F74809F0A0FE0F
:1002A00041F2883007F067FF4FF47A71F24809F0A5
:1002B00091FE4FF47A71F04809F08EFE4FF47A7196
:1002C000ED4809F08BFE4FF47A71EB4809F088FE97
:1002D00040F6B83007F04FFF03F009FF05E0C820F3
:1002E00007F049FFC82007F046FF06F033F9002861
:1002F000F5D14FF47A7007F03EFF03F035FD64202E
:1003000007F039FF03F080F9642007F034FF03F0B1
:100310008BF94FF4967007F02EFF00201990AFE094
:10032000D64AD749D74803F084FF00284DD1D54895
:10033000B0F900000DF060F80890D3480168089803
:100340000CF0B4FE09900CF085FE0022CF4BCDE9F5
:100350000A010CF0A5FBCDE90C010CF007F9CA4924
:100360000860C748B0F900000DF046F80890C8488A
:10037000016808980CF09AFE09900CF06BFE0022C0
:10038000C24BCDE90A010CF08BFBCDE90C010CF05E
:10039000EDF8BF490860B948B0F900000DF02CF83D
:1003A0000890BC48016808980CF080FE09900CF099
:1003B00051FE0022B54BCDE90A010CF071FBCDE9ED
:1003C0000C010CF0D3F8B3490860B34AB349B44800
:1003D00003F057FF00284FD1B148B0F900000DF0ED
:1003E0000BF80890AF48016808980CF05FFE099080
:1003F0000CF030FE0022A54BCDE90A010CF050FBB9
:10040000CDE90C010CF0B2F8A6490860A348B0F998
:1004100000000CF0F1FF0890A348016808980CF068
:1004200045FE09900CF016FE0022984BCDE90A011A
:100430000CF036FBCDE90C010CF098F89A490860F5
:100440009548B0F900000CF0D7FF08909748016874
:1004500008980CF02BFE09900CF0FCFD00228B4B51
:10046000CDE90A010CF01CFBCDE90C010CF07EF883
:100470008E49086002F032FC1998401CC0B21990F5
:1004800019986428FFF64CAF7F4800680CF078FF9D
:1004900000B2874908807E4800680CF071FF00B206
:1004A000834948807B4800680CF06AFF00B28049AD
:1004B00088807C4800680CF063FF00B27D490880AA
:1004C000794800680CF05CFF00B27B4908807B48EB
:1004D00000680CF055FF00B279490880002019909F
:1004E00021E0642007F047FE03F027F97548006813
:1004F0000CF082FF08907448016808980CF0D6FD53
:1005000009900CF0A7FD0022604BCDE90A010CF028
:10051000C7FACDE90C010CF029F86B49086019986D
:10052000401CC0B2199019981428DADB664800689C
:100530000CF026FF65490860084600680CF05CFF77
:1005400007900CF087FD0022614BCDE908010CF00B
:10055000FBF84FF0C0425F4BCDE90A010CF038F8D0
:10056000CDE90C010CF002F85B490860189818B14D
:100570005A4807F03FFE05E0179818B14FF4E130F4
:1005800007F038FE0A2007F0F6FD47214FF6FF700E
:1005900002F0F1FD40F2CF21092002F0AFFD0A2068
:1005A00007F0E9FD07F0ACFB0A2007F0E4FD0BE0E3
:1005B0004B48006808B9012000E000204849086065
:1005C0004FF4FA7007F0D7FD07F07AFB4EF616717C
:1005D0008842EDD101F06EFE012041490860002003
:1005E0004049C1F888010A2007F0C5FD3E4800686F
:1005F0000CF04AFF3D490D900CF08EFF0E900CF070
:10060000DBFE3B490860384800680CF03DFF394983
:100610000D900CF081FF0E900CF0CEFE3649086074
:10062000314800680CF030FF34490D900CF074FF35
:100630000E900CF0C1FE324908602B4800680CF0A7
:1006400023FF30490D900CF067FF0E900CF0B4FEC4
:100650002D490860244800680CF016FF2B490D90C6
:100660000CF05AFF0E900CF0A7FE294908601E48B6
:1006700000680CF009FF4DE0000400407600002007
:1006800074000020720000208C0000200000E03F79
:100690009000002094000020700000206E000020D8
:1006A0006C000020A0000020A4000020A800002072
:1006B00086000020980000209A000020E801002019
:1006C0009C000020F800002008010020000100200C
:1006D00000005940661271408C01002020A10700E3
:1006E000A00121420080224200000020CDCCCC3D60
:1006F00004000020CDCC4C3D080000200AD7A33CCC
:100700000C0000200AD7233C100000200AD7A33B8E
:1007100014000020FE490D900CF0FEFE0E900CF02F
:100720004BFEFC490860FC4800680CF0ADFEFB493C
:100730000D900CF0F1FE0E900CF03EFEF8490860B2
:10074000F54800680CF0A0FEF4490D900CF0E4FEB2
:100750000E900CF031FEF3490860EF4800680CF091
:1007600093FEF1490D900CF0D7FE0E900CF024FE94
:10077000EE490860E84800680CF086FEEC490D90F0
:100780000CF0CAFE0E900CF017FEEA490860E24831
:1007900000680CF079FEE8490D900CF0BDFE0E905B
:1007A0000CF00AFEE5490860DB4800680CF06CFEBE
:1007B000E3490D900CF0B0FE0E900CF0FDFDE14908
:1007C0000860D54800680CF05FFEDF490D900CF022
:1007D000A3FE0E900CF0F0FDDC490860CE480068E6
:1007E0000CF052FEDA490D900CF096FE0E900CF0D3
:1007F000E3FDD8490860C84800680CF045FED649BA
:100800000D900CF089FE0E900CF0D6FDD3490860D7
:10081000C14800680CF038FED1490D900CF07CFE08
:100820000E900CF0C9FDCF490860BB4800680CF081
:100830002BFECD490D900CF06FFE0E900CF0BCFD20
:10084000CA490860B44800680CF01EFEC8490D9003
:100850000CF062FE0E900CF0AFFDC649086001F08E
:10086000D4BBC5480068401C0CF00EFE0E90AA4890
:1008700000680CF009FEC1490C900CF04DFE0D9083
:100880000E990CF015FF76D2A34800680CF0FCFD21
:10089000BA490D900CF040FE0E900CF08DFDB6495B
:1008A0000860B7480068401CB5490860B54AB649B9
:1008B000B64803F0E6FC08B902F0DDF8B44A911E30
:1008C000881E03F0B6FC002855D102F05FF8169898
:1008D00008B102F05DFBAF4800680E900CF050FDCF
:1008E00000B2AD490880AB4840680E900CF048FD5E
:1008F00000B2A9494880A74880680E900CF040FDDE
:1009000000B2A5498880A3480168A448A44A127887
:1009100040F822109F484068A249A14A127841F845
:1009200022007D4800680CF0AFFD7F490E900CF06E
:10093000F3FD9D499A4A127841F8220098480078C0
:10094000401C9749087008460078072807D1002006
:1009500008709648007810B90120944908709348AF
:10096000007840B103F04AF9914800689149086065
:100970008F484068486090480068401C0CF084FD37
:100980000E90654800680CF07FFD8C490C900CF0CF
:10099000C3FD0D900E990CF08BFE11D25E480068DD
:1009A0000CF072FD85490D900CF0B6FD0E900CF028
:1009B00003FD8149086072484068401C70494860E6
:1009C0007F480068401C0CF05FFD0E9052480068A4
:1009D0000CF05AFD7B490C900CF09EFD0D900E9989
:1009E0000CF066FE7ED24C4800680CF04DFD754957
:1009F0000D900CF091FD0E900CF0DEFC704908603B
:100A00005F488068401C5E4988606F4A6F49704843
:100A100005F0EDFD02F062F86E4801686E4800686E
:100A20000CF0B2FE6D4908606D4801686D480068C1
:100A30000CF0AAFE6C4908606C4801686C480068BC
:100A40000CF0A2FE6B490860159800284AD0219846
:100A5000002847D10F9830B1012855D0022854D032
:100A6000032853D127E26449139888424FD2139840
:100A700000EB4000002101EB80000C2201460E90AB
:100A80005E4807F097F95D4800785C49497840EA8C
:100A900001205B490880594880785849C97840EA64
:100AA000012057494880554800795449497940EA1E
:100AB000012053498880514880795049C97940EADA
:100AC00001204F49C8804D48007A4C49497A40EA94
:100AD00001204B4908814948807A4849C97A40EA4F
:100AE000012000E04DE24649488100200290039039
:100AF000049005900846408900B2098909B2CDE901
:100B000000103F48C0887DE092E011E137E28EE0BE
:100B10006F12033B18000020000000206F12833A80
:100B20001C0000202000002017B7D138240000202E
:100B300017B7513828000020ACC5A7372C0000207B
:100B4000ACC5273730000020ACC5A73634000020E4
:100B5000BD37063638000020BD3786353C00002002
:100B6000BD3706354000002095BF563444000020B4
:100B700095BFD6334800002004000020CDCCCC3DEA
:100B80004C040020700000206E0000206C0000204B
:100B90007C000020400400202C010020C404002020
:100BA000AA020020E004002018050020AB0200206B
:100BB000740400208004002008000020CDCC4C3DAF
:100BC0000C0000200AD7A33C680000206000002031
:100BD0006400002018010020B80000200C01002053
:100BE0001C010020BC00002010010020200100207A
:100BF000C00000201401002078AA0A00340500205B
:100C00002406002000B20E90FE48808800B20D90AD
:100C1000FC48408800B20C90FA48008800B20B9063
:100C20000CA90EC906F043FE1398401C1390A7E1CF
:100C3000F549139888427AD21398C0EBC00000217E
:100C400001EB40000E2201460E90F04807F0B2F88A
:100C5000EE480078ED49497840EA0120EC490880E7
:100C6000EA488078E949C97840EA0120E8494880A3
:100C7000E6480079E549497940EA0120E44988805D
:100C8000E2488079E149C97940EA0120E049C88019
:100C9000DE48007ADD49497A40EA0120DC490881D2
:100CA000DA48807AD949C97A40EA0120D84948818E
:100CB000D648007BD549497B40EA0120D449888148
:100CC000084680880B900CF0DFFB0E90D0484088DF
:100CD0000B900CF0D9FB0D90CD4800880B900CF0D8
:100CE000D3FB0C9000200090034601900CA807C88D
:100CF00006F03DFD0021C648808900B2CDE9020121
:100D00000491C3480591408900B2C149098909B2DB
:100D1000CDE90010BE48C08800B20346002211464B
:100D20000E90104606F0C3FD1398401C139027E167
:100D3000B549139888427DD2139800EB800101EBEE
:100D4000C000002101EB40001A2201460E90B1487C
:100D500007F030F8AF480078AE49497840EA012002
:100D6000AD490880AB488078AA49C97840EA01209B
:100D7000A9494880A7480079A649497940EA012055
:100D8000A5498880A3488079A249C97940EA012011
:100D9000A149C8809F48007A9E49497A40EA0120CB
:100DA0009D4908819B48807A9A49C97A40EA012086
:100DB000994948819748007B9649497B40EA012040
:100DC000954988819348807B9249C97B40EA0120FC
:100DD0009149C8818F48007C8E49497C40EA0120B6
:100DE0008D4908828B48807C8A49C97C40EA012071
:100DF000894948828748007D8649497D40EA01202B
:100E0000854988828348807D8249C97D40EA0120E6
:100E10008149C8827F48007E7E49497E40EA0120A0
:100E20007D49088300230846008A00B2C98909B2B7
:100E3000794A00E03EE0928912B2CDE90403CDE99F
:100E400002217548408900B27349098909B2CDE988
:100E500000107148C08800B20E906F48808800B2C0
:100E60000D906D48408800B20C906B48008800B22D
:100E70000B900CA90EC906F01AFD6748C08A0B90AA
:100E80000CF002FB0E906448808A0B900CF0FCFA88
:100E90000D906148408A0B900CF0F6FA0C900020FF
:100EA0000090034601900CA807C806F060FC139858
:100EB000401C139064E05449139888425ED2139802
:100EC00000EB4000002101EB80000C2201460E9057
:100ED000524806F06FFF514800785049497840EA7F
:100EE0000120484908804D4880784C49C97840EA3B
:100EF000012044494880494800794849497940EAF5
:100F0000012040498880454880794449C97940EAB0
:100F100001203C49C8804148007A4049497A40EA6A
:100F20000120384908813D48807A3C49C97A40EA25
:100F300001203449488100200290039004900590DC
:100F40000846408900B2098909B2CDE900102D4850
:100F5000C08800B20E902B48808800B20D902948BE
:100F6000408800B20C902748008800B20B900CA972
:100F70000EC906F09CFC1398401C139000E000BFC3
:100F800000BF27480068401C0CF07EFA0E902548F0
:100F900000680CF079FA24490C900CF0BDFA0D9021
:100FA0000E990CF085FB7DD21E4800680CF06CFA9F
:100FB0001D490D900CF0B0FA0E900CF0FDF9184997
:100FC00008601A48C068401C1849C8602198002869
:100FD00069D01748006840F24C4188427ED91448D5
:100FE000008800B21B901348B0F9000040F2E351B2
:100FF000081A11490968884226D80E48B0F900003D
:101000001CE000002406002078AA0A003006002018
:101010002C0700203A070020240800203405002077
:1010200010000020000000200AD7233C4C040020C0
:1010300054000020D20000204C00002000F2E350B9
:10104000FE490968884218D2FC480088A0F2E350A3
:1010500000B21D901D980CF0CFF909900BF0FAFF2B
:10106000F74AF84BCDE90A010BF01AFDCDE90C0166
:101070000BF07CFAF449086002E00020F2490860B5
:10108000F248B0F9000040F2E451081AF04909684A
:1010900088420BD8ED48B0F9000000F2E450EC496A
:1010A000096801E0B0E0B3E088421BD2E84800885C
:1010B00040F2E451081A00B21C901C980CF09CF904
:1010C00009900BF0C7FFDE4ADE4BCDE90A010BF0B9
:1010D000E7FCCDE90C010BF049FA00E038E0DD490E
:1010E000086002E00020DB490860D848B0F9000041
:1010F00040F2E351081AD8490968884208D8D34811
:10110000B0F9000000F2E350D349096888421BD2CD
:10111000D148008840F2E351081A00B21A901A9898
:101120000CF06AF909900BF095FFC54AC54BCDE963
:101130000A010BF0B5FCCDE90C010BF017FAC74919
:1011400008600020086012E00020C44908600EE03A
:101150000020C3490880C3490880C3490880C349A7
:10116000088000231A461946184601F0DFF8C048E7
:10117000006840F24C4188421AD2B7480068884261
:1011800016D21F9818B9BB48008880B21F90B94882
:1011900001681F98081A08280CD300202190B6492E
:1011A00008600120B549C1F8A00100201F9001E0AE
:1011B00000201F90AE48006840F24C41884224D283
:1011C000A548006840F26C7188421ED9209818B971
:1011D000A848008880B22090A64801682098081A84
:1011E0000D2872D300202190A3490860A349C1F8BB
:1011F000A00106F0CFFE00209F49086001209F4912
:10120000C1F8A001002020905FE0002020905CE069
:1012100000209349088093490880934908809349A6
:10122000088000231A461946184601F07FF89048B6
:10123000006840F24C4188421BD28748006840F267
:101240006C71884215D9209818B98A48008880B2F4
:101250002090884801682098081A05280BD301209F
:1012600021908549086000208449C1F8A0012090A0
:1012700001E0002020907E48006840F24C41884206
:1012800021D27548006888421DD21F9818B9794844
:10129000008880B21F90774801681F98081A0828B4
:1012A00013D3159818B100207349086002E001209B
:1012B00071490860159808B9012000E000201590D8
:1012C00000201F9001E000201F906D480068401C26
:1012D0000CF0DAF80E906B4800680CF0D5F86A490B
:1012E0000C900CF019F90D900E990CF0E1F96BD2FD
:1012F000644800680CF0C8F863490D900CF00CF9D4
:101300000E900CF059F85E49086060480069401C76
:101310005E4908615648006840F24C4188420ED947
:10132000219860B101F0CCFA01F0C5F901F031F972
:1013300001F0EFFD01F09BFD1B9801F029F85448E6
:101340000078E8BB2198D8B352480068484909683A
:10135000884239D2464800684F490968884233D2EA
:101360004E48007880B94E4801684E4800680CF03D
:101370009FF809D23E4800684B49096808444B4928
:1013800008600120454908704948007878B9434809
:10139000007860B14548006843490968401A4549EA
:1013A0000968401A444908600120414908703B48D7
:1013B000007828B13E48007810B10120344900E09F
:1013C00002E008703D4908603D480068401C0CF090
:1013D0005BF80E902B4800680CF056F839490C90D9
:1013E0000CF09AF80D900E990CF062F970D2254825
:1013F00000680CF049F833490D900CF08DF80E9010
:101400000BF0DAFF2E49086020484069401C1F4954
:101410004861189800287DD0149800287AD1159832
:10142000002877D1284800680BF0AAFF0E90219978
:101430001E98CDE9000125480E9B4AE04C00002093
:10144000F49FDA858B81A23F18010020D200002092
:10145000500000201C010020580000202001002026
:10146000A0020020A2020020A4020020A602002068
:1014700054000020240000208881224200002142E4
:1014800014000020000000200AD7A33B4C040020D9
:10149000CA020020B4020020B0020020C8020020CE
:1014A000FC010020C4020020CC020020B802002071
:1014B000C9020020D0020020BC020020A00121426D
:1014C000180000206F12033BEC000020C000002039
:1014D00020E10268FE480168FE48006806F047F90E
:1014E0000021FD480078FD4A1278FD4B1B78CDE9BC
:1014F0000032CDE90201FB48008880B20E90FA4824
:10150000008880B20D90F948008880B20C90F848AD
:10151000008800E06CE080B20B900CA90EC906F0C8
:1015200089FA00200290039004900590F148008809
:1015300080B2F149098889B2CDE90010EF480088EE
:1015400080B20E90EE48008880B20D90ED48008881
:1015500080B20C90EC48008880B20B900CA90EC9A8
:1015600006F0FCFAE94800680BF00AFF0E90E84824
:1015700000680BF005FF00B20D90E64800680BF024
:10158000FFFE00B20C90E44800680BF0F9FE00B2D8
:101590000B90E248806807900BF0F2FE00B20A90D0
:1015A000DE48406807900BF0EBFE00B20990DB4884
:1015B000006807900BF0E4FE00B20890DDE90B2311
:1015C000DDE90D10CDE90223CDE90410D448B0F9CE
:1015D0000400D349B1F90210CDE90010D048B0F9A8
:1015E00000000346079008A807C806F060F910E05D
:1015F000179870B1149860B9159850B9C34800682D
:101600000BF028FD02460B46CDE90C01C5A008F001
:10161000D3FE219800287DD00F9830B101287AD0D0
:10162000022879D0032878D16CE3C5491298884202
:1016300074D2C4480178109800EB4000002202EBFD
:101640008000C14A1154BF480088C0F30721109898
:1016500000EB4000012202EB8000BB4A1154BB4862
:101660000178109800EB4000022202EB8000B64A9D
:101670001154B6480088C0F30721109800EB4000D1
:10168000032202EB8000B04A1154B148017810984F
:1016900000EB4000042202EB8000AB4A1154AC483E
:1016A0000088C0F30721109800EB4000052202EBF0
:1016B0008000A54A1154A7480178109800EB40001B
:1016C000062202EB8000A04A1154A2480088C0F311
:1016D0000721109800EB4000072202EB80009A4A95
:1016E00011549C488178109800EB4000082202EBCE
:1016F0008000954A115497484088C0F307211098FC
:1017000000EB4000092202EB80008F4A11549148FF
:10171000017904E0D0E331E049E1CBE32DE010981A
:1017200000EB40000A2202EB8000874A11548948EE
:101730008088C0F30721109800EB40000B2202EBD9
:101740008000814A11541298401C12901098401C3D
:1017500010901098142810D11198C0EB001000219F
:1017600001EB0010F02201460E90774806F042FC93
:101770001198401C1190002010909CE37049129821
:1017800088427DD2534800680BF0FAFDC1B2109830
:10179000C0EBC000002202EB40006F4A11544D48DC
:1017A00000680BF0EDFDC0F307211098C0EBC000FE
:1017B000012202EB4000684A1154454800680BF0D2
:1017C000DFFDC1B21098C0EBC000022202EB400066
:1017D000614A11543E4800680BF0D2FDC0F3072166
:1017E0001098C0EBC000032202EB40005A4A11548B
:1017F0005A4800680BF0C4FDC1B21098C0EBC0009D
:10180000042202EB4000544A1154544800680BF083
:10181000B7FDC0F307211098C0EBC000052202EB12
:1018200040004D4A11543E4801781098C0EBC0006A
:10183000062202EB4000484A115439480088C0F3A0
:1018400007211098C0EBC000072202EB4000424A7B
:101850001154334881781098C0EBC000082202EB85
:1018600040003D4A11542E484088C0F3072110988B
:10187000C0EBC000092202EB4000374A115400E0DF
:1018800094E0274801791098C0EBC0000A2202EBCF
:101890004000314A115422488088C0F30721109833
:1018A000C0EBC0000B2202EB40002B4A1154194838
:1018B00000680BF065FDC1B21098C0EBC0000C22AF
:1018C00002EB4000244A11541248006848E000002E
:1018D000BC000020B8000020CA020020C90200207D
:1018E000C8020020A6020020A4020020A2020020BC
:1018F000A0020020BC020020B802002050000020FE
:101900004C0000205800002054000020EC00002073
:10191000CC010020FC010020B40100204004002084
:101920002401002020204D53353631315F416C7445
:101930006974756465203D25666D0D0A0000000020
:1019400078AA0A006C000020340500206E000020F8
:10195000700000207800002030060020C000002029
:101960000BF00EFDC0F307211098C0EBC0000D2254
:1019700002EB4000FE4A11541298401C129010983D
:10198000401C10901098122810D11198C0EB8010B4
:10199000002101EB8000FC2201460E90F44806F085
:1019A00029FB1198401C11900020109083E2F1490E
:1019B000129888427ED2F04800680E900BF0E0FC4E
:1019C000C1B2109800EB800202EBC000002202EBD3
:1019D0004000EA4A1154E84800680E900BF0D0FC31
:1019E000C0F30721109800EB800202EBC000012237
:1019F00002EB4000E14A1154DF4840680E900BF0C2
:101A0000BFFCC1B2109800EB800202EBC0000222C2
:101A100002EB4000D94A1154D74840680E900BF0B1
:101A2000AFFCC0F30721109800EB800202EBC0006E
:101A3000032202EB4000D14A1154CF4880680E9037
:101A40000BF09EFCC1B2109800EB800202EBC000CC
:101A5000042202EB4000C94A1154C74880680E9026
:101A60000BF08EFCC0F30721109800EB800202EB14
:101A7000C000052202EB4000C04A1154C048017862
:101A8000109800EB800202EBC000062202EB40003F
:101A9000BA4A1154BA480088C0F30721109800EBE5
:101AA000800202EBC000072202EB4000B34A11544F
:101AB000B34800E025E18178109800EB800202EB4A
:101AC000C000082202EB4000AC4A1154AC484088E8
:101AD000C0F30721109800EB800202EBC00009223E
:101AE00002EB4000A54A1154A5480179109800EB7B
:101AF000800202EBC0000A2202EB40009F4A115410
:101B00009F488088C0F30721109800EB800202EB09
:101B1000C0000B2202EB4000984A1154994800681B
:101B20000BF02EFCC1B2109800EB800202EBC0005B
:101B30000C2202EB4000914A1154924800680BF0CD
:101B40001FFCC0F30721109800EB800202EBC000DD
:101B50000D2202EB4000894A11548B4800680BF0BB
:101B60000FFCC1B2109800EB800202EBC0000E2205
:101B700002EB4000814A1154834800680BF000FCDE
:101B8000C0F30721109800EB800202EBC0000F2287
:101B900002EB4000794A11547C4800680BF0F0FBDE
:101BA000C1B2109800EB800202EBC000102202EBE1
:101BB0004000724A1154754800680BF0E1FBC0F315
:101BC0000721109800EB800202EBC000112202EB0B
:101BD00040006A4A11546E4800680BF0D1FBC1B254
:101BE000109800EB800202EBC000122202EB4000D2
:101BF000624A1154664800680BF0C2FBC0F307212B
:101C0000109800EB800202EBC000132202EB4000B0
:101C10005A4A11545F4800680BF0B2FBC1B21098E9
:101C200000EB800202EBC000142202EB4000534A9A
:101C30001154584800680BF0A3FBC0F3072110981B
:101C400000EB800202EBC000152202EB40004B4A81
:101C50001154514800680BF093FBC1B2109800EB8F
:101C6000800202EBC000162202EB4000434A1154EE
:101C7000494800680BF084FBC0F30721109800EB83
:101C8000800202EBC000172202EB40003B4A1154D5
:101C9000424800680BF074FBC1B2109800EB800260
:101CA00002EBC000182202EB4000344A11543B48BA
:101CB00000680BF065FBC0F30721109800EB800271
:101CC00002EBC000192202EB40002C4A115412987A
:101CD000401C12901098401C10901098092810D1A8
:101CE000752111984843002101EB4000EA2201468A
:101CF0000E90224806F07EF91198401C11900020A9
:101D00001090D8E01B49129888427DD22448006880
:101D10000E900BF035FBC1B2109800EB4000002292
:101D200002EB80001F4A11541D4800680E900BF012
:101D300027FBC0F30721109800EB4000012202EBC3
:101D40008000184A1154164840680E900BF018FB9A
:101D5000C1B2109800EB4000022202EB8000114A51
:101D600011540F4840680E900BF00AFB1CE0000075
:101D70003006002078AA0A00400400203A0700201C
:101D800024010020180100201C0100202001002057
:101D9000B8000020BC000020C0000020FC01002092
:101DA0008004002034050020C0F30721109800EBC8
:101DB0004000032202EB8000954A11549548806848
:101DC0000E900BF0DDFAC1B2109800EB4000042237
:101DD00002EB80008E4A11548E4880680E900BF002
:101DE000CFFAC0F30721109800EB4000052202EB68
:101DF0008000874A115488480178109800EB400011
:101E0000062202EB800000E053E0814A1154824830
:101E10000088C0F30721109800EB4000072202EB76
:101E200080007B4A11547C488178109800EB400078
:101E3000082202EB8000764A115477484088C0F3AC
:101E40000721109800EB4000092202EB8000704A45
:101E5000115471480179109800EB40000A2202EBFE
:101E600080006B4A11546C488088C0F30721109899
:101E700000EB40000B2202EB8000654A11541298DF
:101E8000401C12901098401C10901098142810D1EB
:101E90001198C0EB0010002101EB0010F022014668
:101EA0000E905B4806F0A6F81198401C1190002097
:101EB000109000E000BF00BF58480068401C0BF0C5
:101EC000E3FA0E90564800680BF0DEFA55490C9084
:101ED0000BF022FB0D900E990BF0EAFB66D25048F6
:101EE00000680BF0D1FA4F490D900BF015FB0E90E6
:101EF0000BF062FA494908604B488069401C4A4926
:101F0000886101F036FC45480068642815D24748CE
:101F10000168474800680BF0C9F809900BF09AF87F
:101F20000022444BCDE90A010AF0BAFDCDE90C01CB
:101F30000AF01CFB3E49086038E03D4801683B4818
:101F400000680BF027F90E9001F0E4FC3A490860B4
:101F500001F002FD3948016839483A4A127840F8E0
:101F600022102F4800680BF08FFA37490E900BF0C3
:101F7000D3FA3649334A127841F8220031480078C2
:101F8000401C3049087008460078072807D1002017
:101F900008702F48007810B901202D4908702C488E
:101FA000007818B101F0DBFD01F014FD294800684C
:101FB000401C0BF069FA0E90194800680BF064FAA7
:101FC00021490C900BF0A8FA0D900E990BF070FBC4
:101FD0001BD2134800680BF057FA1B490D900BF009
:101FE0009BFA0E900BF0E8F91A4908600E48C06998
:101FF000401C0D49C861159838B11748006808B9E8
:10200000012000E0002014490860FEF72ABC00000F
:102010003405002080040020780000201C000020EF
:10202000000000206F12833A4C040020F4000020CE
:10203000FC0000200000E03FF0000020B401002080
:102040008C040020A802002017B7D138A804002073
:10205000A9020020240000208881224200BF1A48E3
:1020600001684FF0E0208269174800688142F6D18C
:102070001648006800EB4003C3EBC010C2EBC00081
:10208000124B1B68B0FBF3F001EB4103C3EBC11330
:1020900000EBC300704700B585B0684606F08FFDC1
:1020A0000B490098B0FBF1F00849086005B000BD8D
:1020B0007047704700BFFEE700BFFEE700BFFEE7C6
:1020C0007047704770477047E0020020E40200202C
:1020D00040420F000CB50020019000906C48006851
:1020E00040F480306A49086000BF6948006800F425
:1020F000003000900198401C0190009818B9019898
:10210000B0F5A06FF1D16248006800F4003010B162
:102110000120009001E0002000900098012843D1A8
:102120005C48006840F010005A49086008460068A2
:1021300020F0030008600846006840F002000860D4
:10214000534840685249486008464068486008461D
:10215000406840F4806048600846406820F47C1085
:1021600048600846406840F4E81048600846006847
:1021700040F08070086000BF4548006800F00070C3
:102180000028F9D04248406820F0030040494860E8
:102190000846406840F00200486000BF3C48406884
:1021A00000F00C000828F9D10CBD10B5FFF792FF24
:1021B00010BD10B53648006840F001003449086091
:1021C000084640683449084031494860084600687C
:1021D000324908402E4908600846006820F48020F3
:1021E00008600846406820F4FE0048604FF41F0075
:1021F0008860FFF7DAFF4FF000602949086010BDE2
:1022000010B5002100200022214B5B6803F00C0177
:1022100021B1042906D0082928D107E0214B224CFE
:10222000236027E01F4B204C236023E0184B5B68A2
:1022300003F47010164B5B6803F48032022303EB47
:10224000904022B9194B4343174C23600DE0104BCB
:102250005B6803F4003323B1144B4343124C2360F7
:1022600003E0104B4343104C236003E00D4B0E4C36
:10227000236000BF00BF064B5B68C3F303130C4C25
:10228000E15C094B1B68CB40074C236010BD00008C
:1022900000100240002002400000FFF8FFFFF6FEA1
:1022A00008ED00E000127A00E802002000093D007D
:1022B000EC02002008B50121242006F0EDFC4FF4CB
:1022C0008070ADF8000010208DF8030003208DF819
:1022D00002006946094806F023FA4FF48071074866
:1022E00006F0CBFA0420ADF800006946044806F079
:1022F00017FA0421024806F0C0FA08BD00080140A0
:102300000014014002468A4201DD0846704710462B
:10231000FCE703469A4203DA8B4201DA184670471B
:10232000994201DC0846FAE71046F8E730B5B0F507
:10233000FA6F01DD4FF4FA60B1F5FA6F01DD4FF489
:10234000FA61B2F5FA6F01DD4FF4FA62B3F5FA6F94
:1023500001DD4FF4FA63B0F57A7F01DA4FF47A7059
:10236000B1F57A7F01DA4FF47A71B2F57A7F01DA4A
:102370004FF47A72B3F57A7F01DA4FF47A73FE4D37
:1023800028802D1D29802D1D2A802D1D2B8030BDDC
:1023900070B5044640F2DC512046FFF7B3FF054616
:1023A0006FF00E020F21F548B0F90000FFF7B1FF02
:1023B00005446FF081028221F148B0F90000FFF777
:1023C000A8FF05446FF03B023C21EE48B0F9000045
:1023D000FFF79FFF2E18EC4800680AF0D1FF05B206
:1023E0006FF0160217212846FFF793FF0644E748CF
:1023F00000680AF0C5FF05B26FF009020A212846FD
:10240000FFF787FF304400B2E149088040F2DC5119
:102410002046FFF777FF05466FF00E020F21DD48DB
:10242000B0F90000FFF775FF05446FF081028221CB
:10243000D948B0F90000FFF76CFF05446FF03B028C
:102440003C21D648B0F90000FFF763FF2E18CE48B4
:1024500000680AF095FF05B26FF0160217212846B2
:10246000FFF757FF0644C94800680AF089FF05B224
:102470006FF009020A212846FFF74BFF304400B2F3
:10248000C749088040F2DC512046FFF73BFF054674
:102490006FF00E020F21C348B0F90000FFF739FFBB
:1024A00005446FF081028221BF48B0F90000FFF7B8
:1024B00030FF05446FF03B023C21BC48B0F90000FE
:1024C000FFF727FF2E18B04800680AF059FF05B241
:1024D0006FF0160217212846FFF71BFF0644AB4892
:1024E00000680AF04DFF05B26FF009020A21284684
:1024F000FFF70FFF304400B2AD49088040F2DC51D5
:102500002046FFF7FFFE05466FF00E020F21A94897
:10251000B0F90000FFF7FDFE05446FF08102822153
:10252000A548B0F90000FFF7F4FE05446FF03B0248
:102530003C21A248B0F90000FFF7EBFE2E189248AC
:1025400000680AF01DFF05B26FF016021721284639
:10255000FFF7DFFE06448D4800680AF011FF05B260
:102560006FF009020A212846FFF7D3FE304400B27B
:10257000934908800846B0F900308D48B0F9002032
:102580008748B0F900108248B0F90000FFF7CEFE8E
:1025900070BD2DE9F0478B4801688B4800680AF050
:1025A000BBFF064689480168894800680AF0B4FF05
:1025B000804688480168884800680AF0ADFF0746F1
:1025C00041460AF073FD054631460AF06FFD0446A8
:1025D0000AF0D6FE00B26B4908807A4801687A4852
:1025E00000680AF099FF80467848016878480068DA
:1025F0000AF092FF81467848006880F000477548ED
:10260000016838460AF088FF064649460BF0BCF8D8
:10261000054641460AF04AFD04460AF0B1FE00B202
:102620005E49088067480168674800680AF074FFDF
:10263000804666480168664800680AF06DFF81467A
:102640006548006880F000476248016838460AF033
:1026500063FF064649460AF029FD054641460BF050
:1026600093F804460AF08CFE00B2504908805548A1
:102670000168554800680AF04FFF06465348016854
:10268000534800680AF048FF07465248016852481C
:1026900000680AF041FF804639460BF075F80546A0
:1026A00031460BF071F804460AF06AFE00B2434965
:1026B0000880BDE8F0872DE9F0474849B1F90400EA
:1026C0000AF09AFE07464648016838460AF024FF99
:1026D00005464249B1F902000AF08EFE81464148A2
:1026E000016848460AF018FF07463C49B1F9000066
:1026F0000AF082FE81463C48016848460AF00CFF19
:10270000804639460AF0D2FC064629460AF0CEFC3D
:1027100004460AF035FE00B2194908802F49B1F984
:1027200004000AF069FE07462D48016838460AF0A1
:10273000F3FE05462949B1F902000AF05DFE814623
:102740002848016848460AF0E7FE07462349B1F9E0
:10275000001048420AF050FE81462348016848466E
:102760000AF0DAFE804639460BF00EF80646294696
:102770000AF09CFC044639E034040040E4000020E8
:10278000DC000020D40000209C02002098020020E1
:10279000A0020020E6000020DE000020D60000207D
:1027A000A2020020E8000020E0000020D800002065
:1027B000A4020020EA000020E2000020DA0000204D
:1027C000A60200201803002014010020140300209A
:1027D00010010020100300200C0100202C0100201B
:1027E000300300202C030020280300200AF0C8FD3D
:1027F00000B2FE490880FE49B1F904000AF0FCFD70
:102800000746FC48016838460AF086FE0546F84946
:10281000B1F902000AF0F0FD8146F7480168484628
:102820000AF07AFE0746F249B1F9001048420AF070
:10283000E3FD8146F148016848460AF06DFE804696
:1028400039460AF033FC064629460AF09DFF044645
:102850000AF096FD00B2EA490880E549B1F90400A2
:102860000AF0CAFD0746E348016838460AF054FEFC
:102870000546DF49B1F902000AF0BEFD8146DE4897
:10288000016848460AF048FE0746D949B1F90000F8
:102890000AF0B2FD8146D948016848460AF03CFE7C
:1028A000804639460AF070FF064629460AF06CFF5A
:1028B00004460AF065FD00B2D2490880BDE8F08701
:1028C0002DE9F041D0494868D04909680AF024FE52
:1028D0000546CD490868CE4909680AF01DFE06463E
:1028E00029460AF0E3FB04460AF04AFD00B2C94952
:1028F0000880C5494868C54909680AF00DFE0746C1
:10290000C148006880F00046C148016830460AF0BE
:1029100003FE054639460AF037FF04460AF030FD4B
:1029200000B2BD490880B8494868B84909680AF04A
:10293000F3FD0746B448006880F00046B4480168DB
:1029400030460AF0E9FD054639460AF0AFFB044679
:102950000AF016FD00B2B1490880AB494868AB499E
:1029600009680AF0D9FD0546A7490868A849096819
:102970000AF0D2FD064629460AF006FF04460AF090
:10298000FFFC00B2A6490880BDE8F0812DE9F041C6
:10299000002500260027A349B1F90010A24AB2F988
:1029A0000020881A0AF028FDA049A14A127841F8AF
:1029B00022009C49B1F902109B4AB2F90220881A00
:1029C0000AF01AFD9B499A4A127841F8220095496B
:1029D000B1F90410944AB2F90420881A0AF00CFDE7
:1029E0009549934A127841F82200002416E08F4856
:1029F00050F8241028460AF059FB05468D4850F837
:102A0000241030460AF052FB06468B4850F824103A
:102A100038460AF04BFB0746601CC4B2062CE6DBC6
:102A2000864928460AF0B6FB80460AF0A9FC00B2A7
:102A300083490880814930460AF0ACFB80460AF0A1
:102A40009FFC00B27E4948807C4938460AF0A2FBD0
:102A500080460AF095FC00B2794988807448007875
:102A6000401C7349087008460078062801D10020F0
:102A70000870BDE8F08170B500257249B1F9001009
:102A8000714AB2F90020881A0AF0B6FC6F49704A00
:102A9000127841F82200002408E06C4850F8241015
:102AA00028460AF003FB0546601CC4B2062CF4DB82
:102AB000624928460AF06EFB06460AF061FC00B245
:102AC0006449088062480078401C614908700846E3
:102AD0000078062801D10020087070BD2DE9F04172
:102AE0000025002600275C4800685C495C4A127893
:102AF00041F822005B4800685B49594A127841F866
:102B000022005A4800685A49554A127841F8220072
:102B1000002416E0514850F8241028460AF0C6FA5E
:102B20000546514850F8241030460AF0BFFA0646D0
:102B30004F4850F8241038460AF0B8FA0746601C8F
:102B4000C4B2042CE6DB4FF0814128460AF022FB98
:102B5000484908604FF0814130460AF01BFB464966
:102B600008604FF0814138460AF014FB4349086081
:102B70003B480078401C3A49087008460078042811
:102B800001D100200870BDE8F0812DE9F04F89B037
:102B900083468A4650460AF05DFA8046384A394BE9
:102BA00009F07EFF02460B46CDE9000100203649C0
:102BB00009F0CAFD06460F4658460AF04BFA32465F
:102BC0003B46CDE9020109F003FDCDE90601584677
:102BD0000AF040FACDE90401DDE9062309F0B4FD6D
:102BE000044609F0C3FC2949086051E0DE000020DA
:102BF0002C010020300300202C030020280300209B
:102C0000E0000020E20000208004002044030020B7
:102C100040030020E4000020E6000020E80000203F
:102C2000EA000020780000208600002040080020F4
:102C30005C03002058080020700800200000C040FD
:102C400024010020700000209C0000208808002043
:102C50005D0300202A01002060000020A008002061
:102C60005E03002064000020B008002068000020FF
:102C7000C0080020B8000020BC000020C0000020D8
:102C800097D17E5AFB2119400000F03F340100200B
:102C900009B0BDE8F08F2DE9F041EB49B1F9001022
:102CA000EA4AB2F90020881A0AF0A6FB0746E8486B
:102CB000016838460AF030FC0546E448B0F90000E7
:102CC0000AF09AFB064629460AF0F0F904460AF093
:102CD00057FB00B2DD490880BDE8F08170B5DD48E2
:102CE0000068DD490860DD480168DD4800680AF0D9
:102CF000DDF9DB490860DB480168D94800680AF063
:102D0000D5F904462146D64800680AF043FAD64968
:102D10000860CD48B0F900000AF06EFB0646CE48C8
:102D2000016830460AF030FD0546CF480168284664
:102D30000AF0F2FB0446C848016820460AF0B6F9DA
:102D4000C4490860C84801684FF07E500AF01CFD75
:102D50000446C348016820460AF0DEFBC04908600B
:102D600070BD70B5C1480068C1490860C1480168BC
:102D7000C14800680AF09AF9BF490860BF48016875
:102D8000BD4800680AF092F904462146BA48006836
:102D90000AF000FABA490860BA48B0F900000AF02F
:102DA0002BFB0646B248016830460AF0EDFC0546AA
:102DB000B348016828460AF0AFFB0446AC480168F6
:102DC00020460AF073F9A9490860AD4801684FF040
:102DD0007E500AF0D9FC0446A748016820460AF054
:102DE0009BFBA549086070BD70B5A7480068A7495E
:102DF0000860A7480168A74800680AF057F9A54984
:102E00000860A5480168A34800680AF04FF9044625
:102E10002146A04800680AF0BDF9A0490860A04812
:102E2000B0F900000AF0E8FA064698480168304612
:102E30000AF0AAFC05469948016828460AF06CFB8E
:102E400004469248016820460AF030F98E4908602D
:102E5000924801684FF07E500AF096FC04468D4877
:102E6000016820460AF058FB8A49086070BD70B5B9
:102E70008C480078002845D08B48006820F000443A
:102E800020460AF0E7F805460022884B09F0CCFD01
:102E900038D28748006820F0004420460AF0DAF86B
:102EA00005460022814B09F0BFFD2BD28148006806
:102EB00020F000444FF07E5120460AF0F9FA21D26A
:102EC0007D48006820F000444FF07E5120460AF013
:102ED000EFFA17D27948006879490988884211D2F7
:102EE000774800887749096888420BD2764800689D
:102EF00080F000447548016820460AF00DFB7449D3
:102F0000086002E0002072490860002070490860F3
:102F100070BD2DE9FE4F6A490988A1F57A700AF063
:102F20006BFA0290624800680AF094F80746694A12
:102F3000694B09F0B5FD054609F018FB834609F019
:102F40009BF80090584800680AF084F80746614AE8
:102F5000614B09F0A5FD054609F008FB834609F021
:102F60008BF8044600990AF0D7FA8146544909883B
:102F7000A1F57A700AF040FA494601900AF00AF980
:102F8000824602990AF000FC54490860BDE8FE8FB1
:102F90002DE9F041002400BF52E0514850F82400D0
:102FA000504941F82400504A52F824104F4A52F830
:102FB00024000AF07BF84D4941F824004C4A52F8AD
:102FC00024104A4A52F824000AF070F8054647498E
:102FD00051F8240029460AF0DDF8464941F824005A
:102FE000454931F914000AF007FA07463D4850F800
:102FF000241038460AF0C8FB06463E4850F8241014
:1030000030460AF089FA0546364850F8241028461A
:103010000AF04CF8324941F82400364850F82410A0
:103020004FF07E500AF0B0FB0546304850F82410AF
:1030300028460AF071FA2D4941F82400601CC4B2F8
:10304000032CAADBBDE8F081700000202A010020DB
:1030500034010020E8010020EC010020E001002004
:10306000F0010020DC010020E40100202802002003
:103070002C02002020020020300200201C02002030
:10308000240200206E000020480200204C02002094
:1030900040020020500200203C0200204402002098
:1030A0006C000020CA020020180100200000E03F50
:1030B0001C0100206400002060000020BC020020F1
:1030C00054000020B802002050030020FC01002022
:1030D000980200205F40D42247DF913F9C020020ED
:1030E0003404002040040020800200208C020020D4
:1030F0007402002028040020240100207FB505462A
:103100000C460121082005F0D4FDADF80850ADF8BB
:1031100004400020ADF80A00ADF8060001A9EA4815
:1031200006F064F901221146E74806F0D6FC322089
:103130008DF8000001208DF8010000208DF80200BC
:1031400001208DF80300684606F013F80121DE48DF
:1031500006F0A8FC7FBD10B50121DB4806F06BFF2F
:1031600040B10121D84806F077FFD8480068401CDC
:10317000D649086010BD30B585B005460C46012122
:10318000042005F096FD0121082005F085FD4FF48F
:103190007070ADF8100028208DF8130004A9CC48F9
:1031A00005F0BEFA4FF47071C94805F068FBADF840
:1031B0000850ADF804400020ADF80A00ADF8060054
:1031C00001A9C44806F012F90020C34908804880CC
:1031D000012088800020C8800881BE4806F099FB45
:1031E0000420BD49088000204880012088800020FC
:1031F000C8800881B74806F08CFB0820B6490880D3
:1032000000204880012088800020C8800881B148C3
:1032100006F07FFB0C20B049088000204880012088
:1032200088800020C8800881AA4806F072FB1E2012
:103230008DF8000000208DF801008DF802000120BB
:103240008DF80300684605F094FF01221E21A14875
:1032500006F043FC01219F4806F024FC05B030BD78
:1032600010B59E48007800F08000002846D1022169
:10327000984806F0E0FE002840D00221954806F06C
:10328000EBFE9648007800F0400040B3914806F00D
:10329000B3FE93490880084600889249098888420D
:1032A00004DA4FF6FF709049086002E000208E4972
:1032B00008608B4800888B490988401A8A49096848
:1032C00008448A4908600846006889490860002067
:1032D0008249087000217F4806F096FD0EE07D4887
:1032E00006F08AFE7F4908807C48007840F0400064
:1032F0007A4908700221774806F086FD7D480078FB
:1033000000F08000002846D10421724806F093FEA8
:10331000002840D004216F4806F09EFE75480078D2
:1033200000F0400040B36B4806F069FE7249088027
:103330000846008871490988884204DA4FF6FF7010
:103340006F49086002E000206D4908606A48008803
:103350006A490988401A6A49096808446949086045
:10336000084600686849086000206249087000212A
:10337000584806F05BFD0EE0564806F040FE5F49F7
:1033800008805C48007840F040005A4908700221EB
:10339000504806F04BFD5D48007800F080000028A2
:1033A00045D108214B4806F046FE80B30821494824
:1033B00006F052FE5548007800F0400040B3454802
:1033C00006F020FE524908800846008851490988C5
:1033D000884204DA4FF6FF704F49086002E000208F
:1033E0004D4908604A4800884A490988401A4A49B4
:1033F0000968084449490860084600684849086067
:103400000020424908700021324806F029FD0EE0F4
:10341000304806F0F7FD3F4908803C48007840F00E
:1034200040003A49087002212A4806F019FD3D483B
:10343000007800F08000A8BB1021264806F0FBFDB4
:1034400080B31021234806F007FE3648007800F0CC
:10345000400040B31F4806F0D8FD334908800846B5
:10346000008832490988884204DA4FF6FF703049F3
:10347000086002E000202E4908602B4800882B4994
:103480000988401A2A49096808442A4908600846F8
:1034900000682949086000202249087000210D4871
:1034A00006F0F8FC0EE00B4806F0AFFD1F4908805F
:1034B0001C48007840F040001A4908700221054875
:1034C00006F0E8FC10BD0000000C004000000020E9
:1034D000000C014000080040D008002060030020DC
:1034E000640300206203002088030020780300208A
:1034F0004C000020660300206A03002068030020BF
:103500008C0300207C030020500000206C0300206E
:10351000700300206E030020900300208003002031
:103520005400002072030020760300207403002062
:1035300094030020840300205800002030B589B097
:1035400005460C460121022005F0B3FB01211120A4
:1035500005F0A2FB0121294805F0B3F94FF4707082
:10356000ADF8200018208DF8230003208DF82200EC
:1035700008A9234805F0D4F8ADF81850ADF8144068
:103580000020ADF81A00ADF8160005A91D4805F099
:103590002DFF6020ADF804000120ADF806000020EA
:1035A000ADF80A00ADF80C0001A9164805F05BFF64
:1035B0000821144806F0A6FB01A9124805F095FF62
:1035C0000821104806F0A7FB01A90E4805F0DAFF14
:1035D00008210C4806F0ACFB01A90A4806F01DF8CA
:1035E0000821084806F0ADFB0121064806F05AFB09
:1035F0000121044806F056FA09B030BD000C1A004B
:10360000001001400004004010B500F0C7FBEE20A0
:1036100000F07CFC00F007FC1E2000F077FC00F0BE
:1036200002FC00F0DFFB10BD70B5012433E000F0B8
:10363000B5FBEE2000F06AFC00F0F5FBA02101EBE9
:103640004401C8B200F062FC00F0EDFB00F0CAFBE0
:10365000052004F06CFD00F0A1FBEF2000F056FC0B
:10366000012004F064FD00F0DEFB012000F07DFC91
:103670000546012004F05BFD002000F076FC0646C4
:1036800000F0B0FB052004F076FD46EA0520FE4977
:1036900021F81400641C062CC9DDFB48008808B919
:1036A000012070BD0020FCE738B50446002500F07D
:1036B00075FBEE2000F02AFC00F0B5FB204600F080
:1036C00025FC00F0B0FB00F08DFB092004F053FD59
:1036D000282004F02CFD00F061FBEE2000F016FC29
:1036E00000F0A1FB002000F011FC00F09CFB00F0BA
:1036F00079FB00F053FBEF2000F008FC00F093FB97
:10370000012000F032FC8DF80000012000F02DFCBB
:103710008DF80100002000F028FC8DF8020000F078
:1037200061FB9DF8000001049DF8010001EB002001
:103730009DF802104518284638BD10B55820FFF7EF
:10374000B3FFD2490860052004F0F1FCCE4840895F
:10375000CE490968A1EB0020CD490860CA4880899C
:10376000096848434FF4FA6101EBD050C949086039
:1037700010BD2DE9F0414820FFF796FFC6490860CB
:10378000052004F0D4FCC04880880104BE480089AC
:10379000BF4A1268504301EBD0100021BF4A03C258
:1037A000B9484088C103B848C088B94A1268504334
:1037B00001EB10200021BA4A03C2B7480068083A5A
:1037C00018CAA0FB032501FB035100FB0411500D97
:1037D00040EAC1234815B149D1E900219A1A60EBAA
:1037E0000100410441EAD230AE490860A9480068AE
:1037F000B0F5FA6F46DAA64800684043C017C11713
:10380000A94A03C2A3480068A0F5FA6040434010EB
:1038100000EB8000C117A54A03C29E480068A0F5CE
:10382000FA604043801000EB8000C117A04A03C239
:10383000984800689F4988422FDA9648006800F24D
:10384000DC50C0EBC0009349096801F2DC514843E9
:10385000C117964AD2E90032C0185141934A03C2B7
:103860008C48006800F2DC504043401000EB4001FF
:1038700001EBC000C1178E4B0CCB801859418C4A0C
:1038800003C20AE00021884A116051600020874A83
:1038900010605060864A116051607E48006882491D
:1038A0000968401A7B4908607C48D0E900207F49BC
:1038B000D1E90031D21A60EB01007849C1E900205A
:1038C0007748D0E900307A49D1E900219A1A60EBB3
:1038D00001007349C1E900206F480068002550C904
:1038E000A0FB041705FB047400FB0644480D40EAE6
:1038F000C4256015694C12CC6D1A60EB0401E80B0D
:1039000040EA4142C913104609F091FD6A49086036
:10391000BDE8F0812DE9F0470446204608F022FD7D
:103920008146664909F0F8FD074608F063FC064643
:103930004FF07E5109F01EFF05466148016861485D
:1039400009F0EAFD8046294609F0E6FD5E49086077
:1039500008460068BDE8F08770B55C4800685C49BF
:1039600008605C4801685C48006809F09FFB5A49A0
:1039700008605A4801685848006809F097FB0446F7
:1039800021465548006809F005FC55490860504833
:1039900001684D48006809F0F7FE05465048016887
:1039A000284609F0B9FD044649480168204609F057
:1039B0007DFB464908604A4801684FF07E5009F097
:1039C000E3FE044644480168204609F0A5FD42494B
:1039D000086070BD70B543480068434908604348BB
:1039E00001684348006809F061FB414908604148AB
:1039F00001683F48006809F059FB044621463C48ED
:103A0000006809F0C7FB3C490860374801683B483B
:103A1000006809F0B9FE054637480168284609F0F4
:103A20007BFD044630480168204609F03FFB2D49E4
:103A30000860314801684FF07E5009F0A5FE044649
:103A40002B480168204609F067FD2949086070BDD0
:103A500070B52B4800682B4908602B4801682B483B
:103A6000006809F023FB29490860294801682748B4
:103A7000006809F01BFB044621462448006809F051
:103A800089FB2449086047E0180400204401002015
:103A900048010020F80000204001002038010020EB
:103AA00058010020600100206801002078010020FA
:103AB0008001002024FAFFFFF400002041D3423EA1
:103AC0008C0100207B627046EC000020B0010020D9
:103AD000B4010020A8010020B8010020A4010020AA
:103AE000AC010020C8010020CC010020C001002052
:103AF000D0010020BC010020C4010020FC010020F6
:103B0000680200206C020020600200207002002089
:103B10005C02002064020020844801688448006838
:103B200009F032FE054683480168284609F0F4FC96
:103B300004467E480168204609F0B8FA7E490860CC
:103B40007C4801684FF07E5009F01EFE04467B4819
:103B50000168204609F0E0FC7849086070BD2DE955
:103B6000F05F774A5168106809F00EFE8046754A8A
:103B70005168106809F008FE8146734909F0CCFCD1
:103B80000746414609F006FB05466D4A9168906973
:103B900009F0FAFD82466B4A9168906909F0F4FDDC
:103BA00083464FF0834109F0B7FC8146514609F046
:103BB000F1FA0746624AD168506909F0E5FD82468C
:103BC000604AD168506909F0DFFD83465F4909F01A
:103BD000A3FC8146514609F0DDFA8046394609F0DA
:103BE00065FA0646294609F061FA04464FF0745119
:103BF00009F092FC56490860BDE8F09F2DE9F05F9E
:103C0000544A5168106809F0BFFD8046524A516815
:103C1000106809F0B9FD81464B4909F07DFC074663
:103C2000414609F0B7FA05464A4A9168906909F099
:103C3000ABFD8246484A9168906909F0A5FD83462C
:103C40004FF0834109F068FC8146514609F0A2FA21
:103C50000746404AD168506909F096FD82463E4ABF
:103C6000D168506909F090FD8346384909F054FC49
:103C70008146514609F08EFA8046394609F016FA17
:103C80000646294609F012FA0446344909F044FC74
:103C9000334908602F4A5168106809F075FD0646DF
:103CA000304A5168106809F06FFD8146264909F0D5
:103CB00033FC0546314609F06DFA8046254A916885
:103CC000906909F061FD8246264A9168906909F081
:103CD0005BFD83464FF0834109F01EFC814651464F
:103CE00009F058FA05461B4AD168506909F04CFDA5
:103CF00082461C4AD168506909F046FD8346134943
:103D000009F00AFC8146514609F044FA0646294664
:103D100009F0CCF90446414609F0C8F907460F49B5
:103D200009F0FAFB0E494860BDE8F09F6C020020E4
:103D3000F4000020640200206802002070020020CD
:103D4000A80400208C0400200000C0400000204196
:103D5000FC01002018050020C40400200AD7A33964
:103D600074040020E004002008B50121042004F0C0
:103D700093FF4FF4C050ADF8000010208DF8030001
:103D800003208DF802006946914804F0C9FC012027
:103D9000904908609049C1F8AC0108BD10B58C4845
:103DA000001D006820F470408949091D086008461C
:103DB000006840F44050086001208649091F0860EF
:103DC0008549C1F8B001042004F0B1F9002081490F
:103DD000091F0860042004F0AAF900207E49C1F8F8
:103DE000B00110BD10B57A48001D006820F4704085
:103DF0007749091D08600846006840F44050086093
:103E00000020744908607449C1F8AC01042004F032
:103E10008EF901206F4908606F49C1F8AC01042098
:103E200004F085F910BD10B500246948001D006834
:103E300020F470406649091D08600846006840F497
:103E40000040086001206349091F086004F06FF911
:103E500001206149C1F8B00104F069F907E0601C74
:103E6000C4B2FA2C03DDFFF7BDFF012010BD594895
:103E7000843800680028F2D15649086000BFF5E791
:103E800010B50020534908605148001D006820F417
:103E900070404F49091D08600846006840F44050D2
:103EA000086000204C49C1F8AC01022004F03FF941
:103EB000012048490860022004F039F900204649F1
:103EC000C1F8B00110BD10B500204249086040485B
:103ED000001D006820F470403D49091D0860084637
:103EE000006840F44050086001203B49C1F8AC0133
:103EF000022004F01CF9012036490860022004F079
:103F000016F900203449C1F8B00110BD70B504465F
:103F10002F48001D006820F470402D49091D0860DD
:103F20000846006840F440500860002029490860B5
:103F3000002517E0E0092749091F08606006040E04
:103F4000022004F0F4F801202349C1F8B001022056
:103F500004F0EDF800201F490860022004F0E7F8A3
:103F6000681CC5B2082DE5DB70BD70B505460024A0
:103F70001748001D006820F470401549091D0860AD
:103F80000846006840F400400860002616E0002063
:103F900010490860022004F0CAF801200E49C1F857
:103FA000B0016006040E0B488438006808B1601C3C
:103FB000C4B2012004F0BBF8701CC6B2082EE6DBC8
:103FC00015B9FFF780FF01E0FFF75AFF204670BDEB
:103FD00000080140B00121420000214270B50546B1
:103FE0000C4600F0CDF9D02000F074FA00F005FA8C
:103FF00018B100F0E3F9012070BD284600F06AFA1C
:1040000000F0FBF9204600F065FA00F0F6F918B16F
:1040100000F0D4F90120EFE700F0D0F90020EBE741
:1040200070B504460025BC2C01DB012510E0622C94
:1040300001DB02250CE02A2C01DB032508E0142C0F
:1040400001DB042504E00A2C01DB052500E0062540
:1040500029461A20FFF7C2FF70BD70B50446B4F5BB
:104060007A7F01DD4FF47A74042C00DA04244FF4D3
:104070007A7090FBF4F0401EC5B229461920FFF774
:10408000ADFF0546264604EBD671C1F34F00FFF79E
:10409000C7FF70BD70B5044600F072F9D02000F083
:1040A00019FA00F0AAF9204600F014FA00F0A5F978
:1040B00000F066F9D12000F00DFA00F09EF9002022
:1040C00000F031FA054600F079F9284670BD10B5C8
:1040D0000446E006010E1C20FFF780FF10BD10B55E
:1040E0000446E006010E1B20FFF778FF10BD10B557
:1040F00000F02DF980216B20FFF770FF642004F0A1
:104100003AF800216B20FFF769FF0320FFF7E7FF74
:104110000020FFF7DCFF3220FFF79FFF002138204F
:10412000FFF75CFF00216A20FFF758FF00212320E2
:10413000FFF754FF80213720FFF750FF7520FFF76E
:10414000A9FF0446682C0BD101216B20FFF746FF25
:1041500000216C20FFF742FF3220FFF77EFF01E0D5
:10416000012010BD0020FCE72DE9F04106460F4676
:1041700014461D4600F004F9002141EA4601C8B288
:1041800000F0A8F900F039F920B100F017F901208A
:10419000BDE8F081384600F09DF900F02EF900F0FE
:1041A000EFF8012101EB4601C8B200F093F900F0ED
:1041B00024F90DE0012C04D1002000F0B4F928709E
:1041C00003E0012000F0AFF92870601EC4B26D1C3E
:1041D000002CEFD100F0F2F80020D9E72DE9F84FDC
:1041E0006B46022241216820FFF7BEFF9DF80100C7
:1041F0009DF8001040EA01200FFA80FA504608F0BE
:10420000FBFB804600224B4B08F09EFA06464A4ACA
:104210004A4B08F0DDF9044608F0A8F983464849FE
:10422000584609F079F9044609F0AAF800B2BDE849
:10423000F88F2DE9FC4104460D4616466B460622D2
:1042400043216820FFF790FF0746BFB99DF80100A2
:104250009DF8001040EA012000B220809DF8030084
:104260009DF8021040EA012000B228809DF8050068
:104270009DF8041040EA012000B230803846BDE8C5
:10428000FC812DE9FC4104460D4616466B4606228C
:104290003B216820FFF768FF0746BFB99DF8010082
:1042A0009DF8001040EA012000B220809DF8030034
:1042B0009DF8021040EA012000B228809DF8050018
:1042C0009DF8041040EA012000B230803846BDE875
:1042D000FC812DE9F04105460E461746984600F050
:1042E0004FF8002141EA4501C8B200F0F3F800F0B0
:1042F00084F820B100F062F80120BDE8F08130467A
:1043000000F0E8F800F079F800240CE018F8040058
:1043100000F0E0F800F071F818B100F04FF801205B
:10432000EBE7601CC4B2BC42F0DB00F047F80020B1
:10433000E3E7000000407540A4703D0AD7434240C7
:104340000000C84210B5022003F0F1FE10BD08B510
:104350000121102004F0A0FC4FF4C050ADF8000083
:1043600010208DF8030003208DF80200694686486E
:1043700004F0D6F94FF4C051834804F07EFA08BD2A
:1043800010B58148406820F470407F494860084675
:10439000406840F44050486001207C4908607C49F6
:1043A000C1F8B001FFF7CEFF002078490860FFF7A1
:1043B000C9FF00207649C1F8B00110BD10B57248A0
:1043C000406820F47040704948600846406840F4F6
:1043D0004050486000206D49091D08606C49C1F8D3
:1043E000AC01FFF7AFFF01206849091D086068496B
:1043F000C1F8AC01FFF7A6FF10BD10B5002462485C
:10440000406820F47040604948600846406840F4C5
:104410000040486001205D490860FFF793FF0120DC
:104420005B49C1F8B001FFF78DFF07E0601CC4B223
:10443000FA2C03DDFFF7C2FF012010BD534880387E
:1044400000680028F2D15149091D086000BFF4E757
:1044500010B500204D49091D08604B48406820F404
:104460007040494948600846406840F44050486000
:1044700000204749C1F8AC01FFF764FF0120434920
:10448000091D0860FFF75EFF00204149C1F8B00137
:1044900010BD10B500203D49091D08603A4840682C
:1044A00020F47040384948600846406840F4405065
:1044B000486001203649C1F8AC01FFF743FF0120F5
:1044C0003249091D0860FFF73DFF00203049C1F85F
:1044D000B00110BD70B504462B48406820F4704010
:1044E000294948600846406840F440504860002030
:1044F0002649091D0860002512E0E00923490860EB
:104500006006040E01202249C1F8B001FFF71AFF2E
:1045100000201E49091D0860FFF714FF681CC5B282
:10452000082DEADB70BD70B50546002416484068CA
:1045300020F47040144948600846406840F4004048
:104540004860002615E000201049091D0860FFF7AB
:10455000F9FE01200E49C1F8B0016006040E0B48B7
:104560008038006808B1601CC4B2FFF7EBFE701C15
:10457000C6B2082EE7DB15B9FFF78BFF01E0FFF7A6
:1045800067FF204670BD000000100140AC012242D0
:104590000000224238B50446F74890F82400C0B124
:1045A00014B10220009001E000200090F24A12684D
:1045B000D17BF14A526810786B460122FFF789FEE1
:1045C00010B14FF0FF3038BD9DF80010EA4841743B
:1045D00023E0E948807A10B94FF0FF30F3E724B1C7
:1045E000E548407C08B10020EDE714B101200090BF
:1045F00001E000200090E04A1268D17BDE4A526858
:1046000010786B460122FFF764FE10B14FF0FF30C7
:10461000D9E79DF80010D84841740020D3E738B599
:1046200000241FE0D4480068C07AA04204D0D248D9
:104630000068407DA04200D112E0CF494968087867
:104640006B4601222146FFF78FFD10B14FF0FF307E
:1046500038BD9DF800202146C8A005F0ADFE00BF82
:10466000601CC4B2C44840680079A042DADC002073
:10467000EEE770B504460D46BF480068C07AA04218
:1046800004D0BD480068407DA04202D14FF0FF3009
:1046900070BDB94840680079A04202DC4FF0FF309D
:1046A000F6E7B549496808782B4601222146FFF70D
:1046B0005BFDEDE738B50446AF4890F82300A04213
:1046C00001D1002038BD14B13020009001E000205D
:1046D0000090A948807C20B19DF8000040F00200C5
:1046E0000090A54890F8220020B19DF8000040F00D
:1046F00080000090A04A1268117D9F4A526810788D
:104700006B460122FFF7E5FD10B14FF0FF30D9E70E
:10471000994880F823400020D4E738B5044604F0D7
:10472000700010B10120009005E014B1002000904D
:1047300001E040200090904A1268917C8E4A5268B5
:1047400010786B460122FFF7C4FD20B100218A4892
:104750008172481E38BD9DF8000020F04001864857
:1047600001730020009004F0400020B99DF8000083
:1047700040F00400009004F0200020B99DF80000F3
:1047800040F00200009004F0100020B99DF80000F5
:1047900040F00100009004F0080020B99DF80000EE
:1047A00040F038000090744A1268D17C724A526816
:1047B00010786B460122FFF78CFD20B100216E4876
:1047C0008172481EC6E724B1082C02D00020FFF7F2
:1047D00071FF6948847200210175322003F0CBFC1F
:1047E0000020B7E738B504466348807CA04201D179
:1047F000002038BD002C46D05F4A126811795E4A0D
:10480000526810786B460122FFF7AEFC10B14FF0F2
:10481000FF30EEE79DF8000020F020000090564A9F
:1048200012681179544A526810786B460122FFF7DA
:1048300050FD10B14FF0FF30DBE7032003F09BFC8D
:10484000022000904C4890F8220020B19DF8000012
:1048500040F080000090484890F8230020B19DF877
:10486000000040F030000090434A1268117D424A37
:10487000526810786B460122FFF72BFD002851D0BB
:104880004FF0FF30B5E73C4A126811793A4A526856
:1048900010786B460122FFF767FC10B14FF0FF3034
:1048A000A7E73548807A00F0010028B19DF80000A4
:1048B00040F02000009004E09DF8000020F020006F
:1048C00000902D4A126811792B4A526810786B4675
:1048D0000122FFF7FEFC10B14FF0FF3089E7032003
:1048E00003F049FC244890F8220010B18020009089
:1048F00001E000200090204890F8230020B19DF8AE
:10490000000040F0300000901B4A1268117D1A4AE6
:10491000526810786B460122FFF7DBFC10B14FF0B4
:10492000FF3066E714488474002062E708B5124837
:10493000807A10B94FF0FF3008BD002000900E4A79
:104940001268D17B0C4A526810786B460122FFF73F
:10495000C0FC10B14FF0FF30EEE7074A1268517902
:10496000054A526810786B460122FFF7B2FC68B125
:104970004FF0FF30E0E70000980300202523357852
:104980003A20252335780D0A00000000FB4A126802
:104990001179FA4A526810786B460122FFF799FCA8
:1049A00010B14FF0FF30C7E7F44890F8240000281A
:1049B00050D00C200090F14A12681179EF4A5268E9
:1049C00010786B460122FFF784FC10B14FF0FF30E6
:1049D000B2E7C0200090E948807A00F0010020B1E1
:1049E0009DF8000040F020000090E44A1268117920
:1049F000E24A526810786B460122FFF76AFC10B158
:104A00004FF0FF3098E7DD48407C10B10220009065
:104A100001E000200090D94A1268D17BD74A526841
:104A200010786B460122FFF754FC10B14FF0FF30B5
:104A300082E700200090D14A12685179CF4A52682B
:104A400010786B460122FFF744FC002855D04FF048
:104A5000FF3071E704200090C84A12681179C74AF4
:104A6000526810786B460122FFF733FC10B14FF00B
:104A7000FF3061E7C148807C20B9C048807A00F0EF
:104A8000010010B94020009001E060200090BB4A76
:104A900012681179B94A526810786B460122FFF703
:104AA00018FC10B14FF0FF3046E7322003F063FBF3
:104AB000B248407C10B10120009001E0002000903D
:104AC000AE4A1268D17BAD4A526810786B4601221B
:104AD000FFF7FFFB10B14FF0FF302DE7A74A126838
:104AE0005179A64A52681078A44B10330122FFF77F
:104AF000F0FB10B14FF0FF301EE700201CE770B54F
:104B00000446002624F001049C4890F8240008B1D3
:104B1000002070BD9948807A10B94FF0FF30F8E757
:104B20009648057C807A2040944908740846007CA9
:104B3000A04202D04FF0FF3600E0002614B98F48A3
:104B4000007D18B10120FFF725FD02E00020FFF7EE
:104B500021FD3CB1FFF7EAFE20B1884805744FF013
:104B6000FF30D6E73046D4E738B504468348807A2C
:104B700010B94FF0FF3038BDBC2C02DB0120009093
:104B800015E0622C02DB0220009010E02A2C02DBF0
:104B9000032000900BE0142C02DB0420009006E0C0
:104BA0000A2C02DB0520009001E0062000907348EB
:104BB000C07A9DF80010884201D10020DBE76F4ADF
:104BC000126891786D4A526810786B460122FFF79F
:104BD00080FB10B14FF0FF30CDE79DF80010674823
:104BE000C1720020C7E738B50446282C02DD4FF01B
:104BF000FF3038BDDCB90020FFF75CFD00208DF8E8
:104C0000000007208DF801005C4A1268917C5B4A25
:104C1000526810786B460222FFF75BFB10B14FF031
:104C2000FF30E6E70021554801750020E1E701204B
:104C3000FFF740FD20208DF80000012C06D1002058
:104C40008DF801000520FFF78FFF17E0052C06DC2B
:104C500001208DF801000520FFF786FF0EE0142CDF
:104C600006DC02208DF801000A20FFF77DFF05E039
:104C700003208DF801001420FFF776FF9DF8010056
:104C8000072101EB8010C0B28DF801003B4A126889
:104C9000917C3A4A526810786B460222FFF719FB62
:104CA00010B14FF0FF30A4E7082134488172002191
:104CB0000173012101750020FFF721FF002098E713
:104CC00038B504462D48807A10B94FF0FF3038BD12
:104CD0002A4890F8240010B14FF0FF30F7E727483A
:104CE000007D50B134B1282C04DCE0B2FFF77BFF2B
:104CF0000020ECE70020FFF776FF042C01DA042403
:104D000004E0B4F57A7F01DD4FF47A744FF47A70E1
:104D100090FBF4F0401EC0B20090184A126851781F
:104D2000164A526810786B460122FFF7D2FA10B18A
:104D30004FF0FF30CBE79DF80000401C4FF47A7134
:104D400091FBF0F081B20D48C1810146C98948103C
:104D5000FFF70AFF0020BAE738B504460748807A13
:104D600010B94FF0FF3038BD022C09D0042C0AD006
:104D7000082C0BD0102C0FD10BE000009803002062
:104D8000002000900BE00820009008E01020009028
:104D900005E01820009002E04FF0FF30E3E700BF8D
:104DA000F848407A9DF80010B0EBE10F01D10020E7
:104DB000D9E7F44A1268D179F24A526810786B4602
:104DC0000122FFF786FA10B14FF0FF30CBE79DF8D4
:104DD0000000C110EB4841720020C4E738B504461A
:104DE000E848807A10B94FF0FF3038BDFA2C09D06E
:104DF000B4F5FA7F09D0B4F57A7F09D0B4F5FA6F2B
:104E00000CD108E0002000900BE00820009008E0A2
:104E10001020009005E01820009002E04FF0FF30D5
:104E2000E3E700BFD748007A9DF80010B0EBE10F30
:104E300001D10020D9E7D34A12689179D14A52684A
:104E400010786B460122FFF744FA10B14FF0FF30A3
:104E5000CBE79DF80000C010CA4908720020C4E7E3
:104E60001CB580208DF80000C64A1268917CC54AA6
:104E7000526810786B460122FFF72BFA10B14FF001
:104E8000FF301CBD642003F076F900208DF800008F
:104E9000BC4A1268917CBB4A526810786B4601226A
:104EA000FFF717FA10B14FF0FF30EAE7B54A126882
:104EB000917DB44A526810786B460622FFF754F988
:104EC00010B14FF0FF30DCE79DF80500C007400F40
:104ED0009DF8031001F0010140EA41009DF8011026
:104EE00001F0010140EA010494B1012C03D1012138
:104EF000A448C17431E0022C03D10021A148C1743F
:104F00002BE02146A0A005F057FA4FF0FF30B8E79C
:104F10009C4A1268D1789B4A526810786B460122ED
:104F2000FFF722F910B14FF0FF30AAE79DF800001B
:104F300000F00F042CB99E4805F03EFA4FF0FF3008
:104F40009FE7042C06D19BA005F036FA01218D487D
:104F5000C17402E000218B48C174FF21894881722D
:104F6000FF2088490872FF2186484172C1724FF6BE
:104F7000FF71C181FF21017481740121017380F8E7
:104F80002210002180F82310417501751630016050
:104F900041608160163880F8241080F82510C184A3
:104FA0004FF4FA60FFF71AFF10B14FF0FF3068E7D7
:104FB0000220FFF7D1FE10B14FF0FF3061E72A2049
:104FC000FFF7D2FD10B14FF0FF305AE73220FFF764
:104FD00077FE10B14FF0FF3053E70020FFF78FFD51
:104FE00010B14FF0FF304CE70020FFF7FBFB10B192
:104FF0004FF0FF3045E70020FFF78FFB002040E730
:1050000070477CB504460D465E48807A00F070001B
:1050100010B94FF0FF307CBD5A4A1268117B594AD3
:10502000526810786B460622FFF79EF810B14FF0D9
:10503000FF30F0E79DF801009DF8001040EA0120E4
:1050400000B220809DF803009DF8021040EA012084
:1050500000B260809DF805009DF8041040EA012030
:1050600000B2A08015B12846FFF7CAFF0020D2E7A2
:105070007CB504460D464348807A00F0080010B91C
:105080004FF0FF307CBD3F4A1268517B3D4A526869
:1050900010786B460622FFF767F810B14FF0FF302B
:1050A000F0E79DF801009DF8001040EA012000B2F1
:1050B00020809DF803009DF8021040EA012000B214
:1050C00060809DF805009DF8041040EA012000B2C0
:1050D000A08015B12846FFF793FF0020D2E72DE905
:1050E000FE4F05460C462748807A18B94FF0FF302E
:1050F000BDE8FE8F234A1268917B224A52681078DD
:1051000002AB0222FFF730F810B14FF0FF30EFE7AB
:105110009DF809009DF8081040EA012006B214B17C
:105120002046FFF76DFF17494968C88808F0ACF9B9
:10513000144901904968B1F9080008F05DF9834607
:10514000304608F059F95946009008F01DFB824698
:10515000019908F01FF881461E4907F0A7FF804615
:105160004FF08F4108F0D8F9074608F009F9286098
:105170000020BDE710B588B004466CBB4FF0FF308F
:1051800008B010BD98030020556E737570706F7273
:1051900074656420736F6674776172652070726FD6
:1051A00064756374207265762025642E0A00000001
:1051B0004CE8000848616C662073656E7369746919
:1051C00076697479207061727420666F756E642ED2
:1051D0000A00000000000C42FFE7206830B9606858
:1051E00020B9A06810B9002008B010BDFA4949687C
:1051F000087806AB03221146FEF7B6FF10B14FF058
:10520000FF30F1E79DF81800082101EB201000F0B5
:105210000F00ADF800009DF8190001EB201000F020
:105220000F00ADF802009DF81A0001EB201000F00D
:105230000F00ADF8040020684100BDF900004030C7
:1052400091FBF0F000B2ADF8100060684100BDF9CC
:105250000200403091FBF0F000B2ADF81200A068FF
:105260004100BDF90400403091FBF0F000B2ADF810
:105270001400D9494968087806AB06221146FEF7A2
:1052800073FF10B14FF0FF30AEE79DF819009DF8A5
:10529000181040EA012000B2ADF808009DF81B008C
:1052A0009DF81A1040EA012000B2ADF80A009DF8FE
:1052B0001D009DF81C1040EA012000B2ADF80C0062
:1052C000BDF81000BDF80810084400B2ADF8100099
:1052D000BDF81200BDF80A10084400B2ADF8120083
:1052E000BDF81400BDF80C10084400B2ADF814006D
:1052F000BDF81000000A8DF81800BDF81000C0B20B
:105300008DF81900BDF81200000A8DF81A00BDF8DA
:105310001200C0B28DF81B00BDF81400000A8DF811
:105320001C00BDF81400C0B28DF81D00AA494968E0
:10533000087806AB06221146FEF7CBFF10B14FF0FE
:10534000FF3051E700204FE70146A348007A30B113
:10535000012807D0022809D003280FD10AE0FA203B
:1053600008800EE04FF4FA7008800AE04FF47A707B
:10537000088006E04FF4FA60088002E00020088010
:1053800000BF00BF0020704701469348407A30B10B
:10539000012807D0022808D003280CD108E00220F9
:1053A00008700BE00420087008E00820087005E091
:1053B0001020087002E04FF0FF30704700BF8648B1
:1053C000C07C18B108784006000E08700020F4E791
:1053D00001468148C07A082817D2DFE800F0170498
:1053E000070A0D101318BC20088013E06220088003
:1053F00010E02A2008800DE0142008800AE00A202E
:10540000088007E00520088004E000BF00BF0020FE
:10541000088000BF00BF0020704701466E4890F82A
:10542000240010B14FF0FF3070476B48C0890880EE
:105430000020F9E7014600200880401E7047014621
:105440004FF0FF30704701466348007A30B10128C1
:1054500007D0022808D003280CD108E05F48086074
:105460000BE05F48086008E05E48086005E05E48C1
:10547000086002E04FF0FF30704700BF0020FBE7FC
:1054800001465548407A30B1012808D002280AD098
:10549000032810D10BE04FF4804008800EE041F665
:1054A0009C7008800AE04FF48050088006E04FF4BA
:1054B0000060088002E04FF0FF30704700BF4648B0
:1054C000C07C10B10888401008800020F5E7014634
:1054D0004148007C08700020704701463E48807AB1
:1054E00010B10120087001E0002008700020704712
:1054F00038B504463848807A10B94FF0FF3038BDCF
:10550000354A1268117C344A526810786B46022280
:10551000FEF72AFE10B14FF0FF30F0E79DF80100D2
:105520009DF8001040EA012000B220800020E6E74C
:105530002DE9FE4F0746884692461D46DDF830B0FD
:1055400000260024244890F8240010B1601EBDE815
:10555000FE8F002028702048807A10B94FF0FF306D
:10556000F5E71D48007C10B94FF0FF30EFE71A480F
:10557000007C00F0400008B1B01CC6B21648007CA8
:1055800000F0200008B1B01CC6B21348007C00F047
:10559000100008B1B01CC6B20F48007C00F0080033
:1055A00008B1B01DC6B20C4A1268917A0A4A526814
:1055B00010786B460222FEF7D7FD10B14FF0FF3096
:1055C000C5E79DF801009DF8001040EA0129B145AA
:1055D0000CDA0020BBE70000980300200000034322
:1055E000000083423333034233338341FC48406835
:1055F0004088B9EB600F17DDF94A1268517CF84A10
:10560000526810786B460122FEF7AEFD10B14FF0E4
:10561000FF309CE79DF8000000F0100020B1FFF77C
:1056200085F96FF0010092E75046FFF7E9FCEC4A7C
:105630001268D17AEA4A526810786B463246FEF711
:1056400093FD10B14FF0FF3081E799FBF6F0401E5B
:105650008BF8000000202870B4422AD0E048007C7B
:1056600000F0080028B3601C1DF800001DF80410AD
:1056700040EA012000B2A8F80000E01C1DF800106C
:10568000A01C1DF8000041EA002000B2A8F80200AA
:10569000601D1DF80010201D1DF8000041EA0020CB
:1056A00000B2A8F80400287840F008002870A01D77
:1056B00084B2B44213D0CA48007C00F0400070B1FC
:1056C000601C1DF800001DF8041040EA012000B223
:1056D0003880287840F040002870A01C84B2B44282
:1056E00013D0BF48007C00F0200070B1601C1DF892
:1056F00000001DF8041040EA012000B278802878EC
:1057000040F020002870A01C84B2B44213D0B448EA
:10571000007C00F0100070B1601C1DF800001DF846
:10572000041040EA012000B2B880287840F0100050
:105730002870A01C84B2002009E7F8B504460F4683
:105740001646A74890F8240010B94FF0FF30F8BD76
:10575000A348807A10B94FF0FF30F8E7A04A1268EA
:10576000917A9F4A526810786B460222FEF7FCFC41
:1057700010B14FF0FF30EAE79DF801009DF80010EE
:1057800040EA0125A54203DA00203070401EDEE722
:10579000934840684088B5EB600F17DD904A126867
:1057A000517C8F4A526810786B460122FEF7DCFC70
:1057B00010B14FF0FF30CAE79DF8000000F0100074
:1057C00020B1FFF7B3F86FF00100C0E7E2B2844BFD
:1057D0001B68D97A824B5B6818783B46FEF7C4FC9D
:1057E00010B14FF0FF30B2E795FBF4F0401E30707F
:1057F0000020ACE701467A4880F82210002070476C
:105800007CB5054676494968087801AB04220D212C
:10581000FEF7AAFC08B107207CBD9DF80700C0F385
:1058200001109DF8041001F0E00140EAE1008DF85C
:1058300000009DF80700C0F381009DF8051001F0FD
:10584000E00140EAE1008DF801009DF8070000F05A
:1058500003009DF8061001F0E00140EAE1008DF838
:10586000020000241CE01DF8040018B9002045F8CF
:10587000240013E05B4845F8240006E055F82400B6
:10588000594907F049FE45F824001DF80400401E60
:10589000C0B20DF804000028F0D100BF601CC4B2F3
:1058A000032CE0DB0020B7E72DE9FE4F06460F464C
:1058B00000256846FFF7A4FF002442E056F82400C4
:1058C00057F82410A0EB010ABAF1000F01DB514692
:1058D00001E0CAF10001084607F08EFD83464FF053
:1058E0008F4107F057FC80465DF82400002107F047
:1058F00013FD16D05DF82410404607F04BFC82469D
:105900004FF07E5107F040FF814629F0004A3748AA
:10591000416A504607F0CCFE12D20120A040054358
:105920000EE03248C169404607F0C2FD05D32F485A
:10593000016A404607F0BCFE02D20120A0400543A8
:10594000641C032CBADB2846BDE8FE8F2DE9FC5F02
:1059500006460F46002522494968087801AB032214
:105960000D21FEF701FC10B10720BDE8FC9F9DF85A
:10597000040000F01F008DF804009DF8050000F001
:105980001F008DF805009DF8060000F01F008DF83F
:105990000600002462E056F8240057F82410A0EB1B
:1059A000010BBBF1000F01DB594601E0CBF1000117
:1059B000084607F021FD4FF08F41009007F0EAFB09
:1059C000814601A8005DC0B30849086807F05CFD86
:1059D00083465946064807F0DDFB80460FE000008D
:1059E000980300207B14AE3E1D5A843FDCD900088A
:1059F00000B04C45FE49404607F08EFD804601A8A8
:105A0000005D401EC0B201A908550028F2D14146F0
:105A1000484607F0BFFB83464FF07E5107F0B4FEC7
:105A200082462AF0004BF3488169584607F040FE51
:105A300013D20120A04005430FE0FFE7ED480169C4
:105A4000484607F035FD05D3EA484169484607F066
:105A50002FFE02D20120A0400543641C032C9ADBD8
:105A6000284682E72DE9F04F87B005460C4691465F
:105A700001208DF8100000208DF81100DE4A126818
:105A8000917CDD4A5268107804AB0222FEF721FCBB
:105A900020B14FF0FF3007B0BDE8F08FC82002F012
:105AA0006AFB00208DF81000D34A1268D17BD24ADD
:105AB0005268107804AB0122FEF70BFC10B14FF0D6
:105AC000FF30E8E7CC4A12685179CB4A5268107827
:105AD00004AB0122FEF7FDFB10B14FF0FF30DAE717
