:020000040800F2
:10000000600D0020617A0008851200088712000840
:10001000891200088D1200089112000800000000EB
:100020000000000000000000000000009512000821
:100030009712000800000000991200089B120008A7
:10004000DD2800087B7A00087B7A00087B7A0008AC
:100050007B7A00087B7A00087B7A00087B7A0008AC
:100060007B7A00087B7A00087B7A00087B7A00089C
:100070007B7A00087B7A00087B7A00087B7A00088C
:100080007B7A00087B7A00087B7A00087B7A00087C
:100090007B7A00087B7A00087B7A00087B7A00086C
:1000A0007B7A00087B7A00087B7A00087B7A00085C
:1000B0007B7A00087B7A00087D2500087B7A00089F
:1000C0007B7A00087B7A00087B7A00087B7A00083C
:1000D0007B7A00087B7A00087B7A00087B7A00082C
:1000E0007B7A00087B7A00087B7A00087B7A00081C
:1000F0007B7A00087B7A00087B7A00087B7A00080C
:100100007B7A00087B7A0008732400087B7A000859
:100110007B7A00087B7A00087B7A00087B7A0008EB
:100120007B7A00087B7A00087B7A00087B7A0008DB
:1001300000F002F800F062F80AA090E8000C824497
:100140008344AAF10107DA4501D100F057F8AFF274
:10015000090EBAE80F0013F0010F18BFFB1A43F0A5
:1001600001031847F4CA000014CB00000A444FF002
:10017000000C10F8013B13F0070408BF10F8014B06
:100180001D1108BF10F8015B641E05D010F8016B4B
:10019000641E01F8016BF9D113F0080F1EBF10F8AF
:1001A000014BAD1C0C1B09D16D1E58BF01F801CBD2
:1001B000FAD505E014F8016B01F8016B6D1EF9D555
:1001C0009142D6D37047000000230024002500266A
:1001D000103A28BF78C1FBD8520728BF30C148BFAA
:1001E0000B607047642909F01982782909F052825E
:1001F000002070471FB51FBD10B510BD09F0A6FC4B
:100200001146FFF7F7FF00F009F809F0C4FC03B44A
:10021000FFF7F2FF03BC07F0FBF900009CB00020E1
:100220001A901990189017900120119000201090AA
:100230000F900E9001F0A7F84FF4A06008F0B4F909
:1002400007F07CF9472144F61F6002F04FFB4FF4A2
:10025000FA61FE4809F0FEF84FF4FA61FB4809F034
:10026000FBF84FF4FA61F94809F0F8F84FF4FA6135
:10027000F64809F0F5F841F2883007F09CF94FF4A0
:100280007A71F24809F0E6F84FF47A71EF4809F014
:10029000E3F84FF47A71ED4809F0E0F84FF47A7121
:1002A000EA4809F0DDF840F6B83007F084F903F0C9
:1002B00054F805E0C82007F07EF9C82007F07BF964
:1002C00005F07EFA0028F5D14FF47A7007F073F943
:1002D00002F080FE642007F06EF902F06DFB6420EE
:1002E00007F069F902F078FB4FF4967007F063F9B4
:1002F00000201290AFE0D64AD649D74803F0CFF895
:1003000000284DD1D448B0F900000BF09FFA0890B6
:10031000D248016808980BF0F3F809900BF0C4F884
:100320000022CF4BCDE90A010AF0E4FDCDE90C0132
:100330000AF004FBC9490860C648B0F900000BF098
:1003400085FA0890C748016808980BF0D9F8099019
:100350000BF0AAF80022C24BCDE90A010AF0CAFD4F
:10036000CDE90C010AF0EAFABE490860B848B0F9D4
:1003700000000BF06BFA0890BB48016808980BF07E
:10038000BFF809900BF090F80022B54BCDE90A01B7
:100390000AF0B0FDCDE90C010AF0D0FAB2490860CC
:1003A000B24AB349B34803F0A2F800284FD1B1488C
:1003B000B0F900000BF04AFA0890AF4801680898BD
:1003C0000BF09EF809900BF06FF80022A44BCDE9DA
:1003D0000A010AF08FFDCDE90C010AF0AFFAA64937
:1003E0000860A348B0F900000BF030FA0890A34869
:1003F000016808980BF084F809900BF055F800227A
:10040000974BCDE90A010AF075FDCDE90C010AF020
:1004100095FA9A4908609548B0F900000BF016FA71
:1004200008909748016808980BF06AF809900BF05B
:100430003BF800228A4BCDE90A010AF05BFDCDE9C9
:100440000C010AF07BFA8E49086001F0C8FD129891
:10045000401CC0B2129012986428FFF64CAF7F483F
:1004600000680BF0B7F900B2864908807D48006843
:100470000BF0B0F901B2834841807B4800680BF073
:10048000A9F900B27F4988807B4800680BF0A2F987
:1004900001B27D480180794800680BF09BF900B2F9
:1004A0007A4908807A4800680BF094F900B27949DB
:1004B00008800020129021E0642007F07CF802F010
:1004C00014FB754800680BF0C1F908907348016887
:1004D00008980BF015F809900AF0E6FF0022604B2F
:1004E000CDE90A010AF006FDCDE90C010AF026FA71
:1004F0006A4908601298401CC0B2129012981428E1
:10050000DADB664800680BF065F965490860084663
:1005100000680BF09BF907900AF0C6FF0022614BC0
:10052000CDE908010AF0F8FA4FF0C0425E4BCDE980
:100530000A010AF035FACDE90C010AF0FFF95B492E
:100540000860119818B15A4807F074F805E010983F
:1005500018B14FF4E13007F06DF80A2007F02BF8DE
:1005600047214FF6FF7001F094FF40F2CF210920A0
:1005700001F052FF0A2007F01EF800F085FF01206D
:100580004C49086000204C49C1F888010A2007F056
:1005900012F84A4800680BF0A1F949490C900BF099
:1005A000E5F90D900BF032F94649086043480068C0
:1005B0000BF094F944490C900BF0D8F90D900BF026
:1005C00025F9424908603D4800680BF087F9404929
:1005D0000C900BF0CBF90D900BF018F93D49086029
:1005E000364800680BF07AF93B490C900BF0BEF9E5
:1005F0000D900BF00BF939490860304800680BF09A
:100600006DF937490C900BF0B1F90D900BF0FEF835
:1006100034490860294800680BF060F932490C90B1
:100620000BF0A4F90D900BF0F1F830490860234865
:1006300000680BF053F92E490C900BF097F90D90D0
:100640000BF0E4F82B4908601C4855E0000400401A
:100650007600002074000020720000208C00002032
:100660000000E03F90000020940000207000002077
:100670006E0000206C000020A0000020A4000020DC
:10068000A800002086000020980000209A0000208A
:10069000D00100209C000020E0000020F00000209D
:1006A000E8000020000059406612714074010020EB
:1006B00020A10700A001214200802242000000206A
:1006C000CDCCCC3D04000020CDCC4C3D080000201A
:1006D0000AD7A33C0C0000200AD7233C10000020BE
:1006E0000AD7A33B140000206F12033B1800002020
:1006F0006F12833A1C00002000680BF0EFF8FE49EF
:100700000C900BF033F90D900BF080F8FB4908606A
:10071000FB4800680BF0E2F8FA490C900BF026F960
:100720000D900BF073F8F8490860F54800680BF07D
:10073000D5F8F6490C900BF019F90D900BF066F80E
:10074000F3490860EE4800680BF0C8F8F1490C90D6
:100750000BF00CF90D900BF059F8EF490860E848E0
:1007600000680BF0BBF8ED490C900BF0FFF80D9012
:100770000BF04CF8EA490860E14800680BF0AEF86D
:10078000E8490C900BF0F2F80D900BF03FF8E649B9
:100790000860DB4800680BF0A1F8E4490C900BF00E
:1007A000E5F80D900BF032F8E1490860D448006894
:1007B0000BF094F8DF490C900BF0D8F80D900BF08B
:1007C00025F8DD490860CE4800680BF087F8DB4962
:1007D0000C900BF0CBF80D900BF018F8D84908608E
:1007E000C74800680BF07AF8D6490C900BF0BEF8B9
:1007F0000D900BF00BF8D4490860C14800680BF06D
:100800006DF8D2490C900BF0B1F80D900AF0FEFF94
:10081000CF490860EAE3CF480068401C0BF05EF85F
:100820000D90B74800680BF059F8CB490B900BF0CE
:100830009DF80C900D990BF065F97DD2B0480068D9
:100840000BF04CF8C4490C900BF090F80D900AF0A6
:10085000DDFFC0490860C1480068401CBF4908600E
:10086000BF4AC049C04802F042FE00287ED101F0D4
:1008700004FB01F0B4FBA2480068BC490968401AB7
:1008800009900AF0E7FABA4ABA4BCDE90A010AF030
:1008900031FBCDE90C010AF051F8B74908609848DE
:1008A0000068B2490860B548006820F000400B902D
:1008B0000AF0FAFD0022B24BCDE90C010AF0DEFA93
:1008C00054D2B048006820F000400B900AF0ECFDD4
:1008D0000022AB4BCDE90C010AF0D0FA46D2AA486F
:1008E000006820F00040A9490D900BF00BF83DD2B4
:1008F000A748006820F00040A4490D900BF002F8D2
:1009000034D29D4800680AF0CFFDCDE90601A14828
:10091000B0F900000AF09AFF00909F480168009823
:100920000BF052F901900AF0BFFD9C4A9C4BCDE9B7
:1009300002010AF0DFFA01E03CE017E0CDE9040132
:10094000DDE906230AF0D6FACDE90A0195480068E8
:100950000AF0AAFDCDE90801DDE90A230AF020F832
:10096000CDE90C0109F0EAFF8E4908608E4A911E1C
:10097000881E02F094FDE8B901F0D3F90F98C8B1D0
:1009800001F0D5FC894800680D900AF023FF00B201
:1009900087490880854840680D900AF01BFF00B227
:1009A00084490880814880680D900AF013FF00B2E6
:1009B0008149088081480068401C0AF08FFF0D9033
:1009C0004F4800680AF08AFF7D490B900AF0CEFF7D
:1009D0000C900D990BF096F82ED2494800680AF059
:1009E0007DFF77490C900AF0C1FF0D900AF00EFFD1
:1009F0007249086059488068401C58498860714AAB
:100A00006349614804F029FF5C4801686048006858
:100A10000BF0E4F86C4908605A4801685A480068CD
:100A20000BF0DCF8694908606948016865480068AE
:100A30000BF0D4F86749086067480068401C0AF06A
:100A40004DFF0D902E4800680AF048FF63490B9057
:100A50000AF08CFF0C900D990BF054F848D22848FE
:100A600000680AF03BFF5D490C900AF07FFF0D9093
:100A70000AF0CCFE584908603848C068401C374925
:100A8000C8601A98002834D05548006840F24C419C
:100A900088422FD95248008800B214905148B0F9CA
:100AA000000040F2E351081A4F490968884208D80B
:100AB0004C48B0F9000000F2E3504B490968884205
:100AC00019D249480088A0F2E35000B21690169857
:100AD0000AF0BCFE09900AF0E7FC444A444BCDE919
:100AE0000A010AF007FACDE90C0109F027FF81E0BD
:100AF0005DE119E1E7E080E06F12833A2000002019
:100B00000000002017B7D1382400002017B7513853
:100B100028000020ACC5A7372C000020ACC5273723
:100B200030000020ACC5A73634000020BD370636A3
:100B300038000020BD3786353C000020BD37063523
:100B40004000002095BF56344400002095BFD633A6
:100B50004800002004000020CDCCCC3DB004002093
:100B6000700000206E0000206C000020C0010020FA
:100B70002D431CEBE2361A3FBC010020000100208F
:100B80000000E03F0401002064000020000040401D
:100B9000600000209C000020D40100207C9285F998
:100BA0003C90AE3FDC0100207C000020A40400202B
:100BB0000C0100200E010020100100200C0000207C
:100BC0000AD7A33C68000020F4000020F8000020B1
:100BD00008010020FC000020100000200AD7233C60
:100BE00054000020BA0000204C000020F49FDA8559
:100BF0008B81A23FFE49086002E00020FC490860AA
:100C0000FC48B0F9000040F2E451081AFA490968BA
:100C1000884208D8F748B0F9000000F2E450F649DD
:100C20000968884219D2F448008840F2E451081A51
:100C300000B2159015980AF009FE09900AF034FCEC
:100C4000EE4AEF4BCDE90A010AF054F9CDE90C0167
:100C500009F074FEEB49086002E00020E9490860F1
:100C6000E448B0F9000040F2E351081AE649096887
:100C7000884208D8DF48B0F9000000F2E350E249AA
:100C8000096888421BD2E048008840F2E351081A04
:100C900000B2139013980AF0D9FD09900AF004FCF1
:100CA000D64AD74BCDE90A010AF024F9CDE90C0167
:100CB00009F044FED54908600020086012E00020D9
:100CC000D24908600EE00020D1490880D14908804F
:100CD000D1490880D149088000231A461946184690
:100CE00000F00EFCCE48006840F24C41884218D219
:100CF000C5480068884214D2189818B9C9480088B5
:100D000080B21890C74801681898081A08283DD37F
:100D100000201A90C44908600120C449C1F8A0010C
:100D200034E00020189031E00020B9490880B9492A
:100D30000880B9490880B949088000231A46194635
:100D4000184600F0DDFBB648006840F24C4188428E
:100D50001AD2AD48006840F26C71884214D91998D3
:100D600018B9B048008880B21990AE480168199847
:100D7000081A05280AD301201A90AB490860002000
:100D8000AA49C1F8A00101E000201990A448006818
:100D900040F24C4188420AD91A9840B100F04DFD0A
:100DA00000F0B9FC01F021FA149800F0DBFBA04838
:100DB0000068401C0AF092FD0D909E4800680AF001
:100DC0008DFD9D490B900AF0D1FD0C900D990AF014
:100DD00099FE1BD2974800680AF080FD96490C9056
:100DE0000AF0C4FD0D900AF011FD91490860934886
:100DF0000069401C914908618948006840F24C41F3
:100E0000884203D91A9808B101F0B2F98C480068F9
:100E1000401C0AF063FD0D90864800680AF05EFDF4
:100E200088490B900AF0A2FD0C900D990AF06AFE19
:100E30007ED2804800680AF051FD82490C900AF089
:100E400095FD0D900AF0E2FC7D4908607B48406901
:100E5000401C7A494861119800286AD07A48006895
:100E60000AF0B8FC0D901A991798CDE9000177485F
:100E70000D9B0268764801687648006805F0ADFD74
:100E8000002000900190029003906448008880B296
:100E90000D906148008880B20C905E48008880B256
:100EA0000B905B48008880B20A900BA90EC905F030
:100EB000F7FE0020029003900490059000900190AE
:100EC0004D48008880B20D906348008880B20C9035
:100ED0004D48008880B20B905148008880B20A903B
:100EE0000BA90EC905F070FF574800680AF072FCA4
:100EF0000D905A4800680AF06DFC00B20C905848FA
:100F000000680AF067FC00B20B90564800680AF0CF
:100F100061FC00B20A90544800680AF05BFC00B221
:100F200009905248B0F900000AF090FC019001E0ED
:100F300034E032E04E48016801980AF045FE029024
:100F40000AF048FC00B2039009F06DFF494A4A4B91
:100F5000CDE9040109F0CEFFCDE9060109F034FF27
:100F600000B20890DDE90A23DDE90C10CDE9022387
:100F7000CDE904104149B1F900100998CDE90010FC
:100F80003F48B0F900303F48B0F900103E48B0F992
:100F90000000089A05F0C1FD00E000BF3B48006872
:100FA000401C0AF09BFC0D90224800680AF096FC59
:100FB00037490B900AF0DAFC0C900D990AF0A2FD6B
:100FC00015D21C4800680AF089FC31490C900AF0DF
:100FD000CDFC0D900AF01AFC2C4908601748806976
:100FE000401C1649886101F09CFD53E0F3E0A4E049
:100FF00000010020BA00002050000020F49FDA8594
:101000008B81A23F0401002058000020080100202D
:10101000880200208A0200208C0200208E0200201C
:101020005400002024000020888122420000214238
:1010300014000020000000200AD7A33BB0040020C9
:10104000180000206F12033BD4000020680000202D
:1010500064000020600000204C000020E40100201B
:10106000DC010020B40100209C0100209C00002035
:10107000D401002008E6E8F17B9BAE3F0E01002082
:101080000C0100206E0000206C0000201C000020DD
:101090006F12833A54480068642815D25348016897
:1010A000534800680AF02CFA09900AF0FDF9002272
:1010B000504BCDE90A0109F01DFFCDE90C0109F003
:1010C0003DFC4B49086038E04948016847480068E2
:1010D0000AF08AFA0D9001F0F5FD4749086001F029
:1010E00013FE464800684649464A127841F82200F5
:1010F000454800680AF0F2FB44490D900AF036FCBE
:101100004349404A127841F822003E480078401C8A
:101110003C49087008460078072807D1002008706D
:101120003C48007810B901203A49087039480078E5
:1011300018B101F0ECFE01F025FE37480068401CB4
:101140000AF0CCFB0D90304800680AF0C7FB2F492D
:101150000B900AF00BFC0C900D990AF0D3FC40D2D6
:10116000294800680AF0BAFB28490C900AF0FEFBF7
:101170000D900AF04BFB284908602848C069401CC4
:101180002649C861244800680321B0FBF1F10E989C
:10119000401C814225D90E98401C0E9020480168C1
:1011A000204800680AF01AFD20F000401E4908603F
:1011B0001E480068C0EB00100C900AF08FFB0D90E9
:1011C000194801680D980AF09DFB05D21748006880
:1011D000401C1649086004E006F09DF901201349FF
:1011E0000860FFF718BB00001C000020DC00002096
:1011F000E40000200000E03FD80000209C01002017
:10120000D8040020A80200200000002017B7D13821
:10121000F4040020A902002024000020B0040020D3
:10122000E4010020DC010020E0010020AC020020ED
:1012300000BF1A4801684FF0E02082691748006833
:101240008142F6D11648006800EB4003C3EBC010A2
:10125000C2EBC000124B1B68B0FBF3F001EB410383
:10126000C3EBC11300EBC300704700B585B06846FF
:1012700006F0C5FE0B490098B0FBF1F00849086084
:1012800005B000BD7047704700BFFEE700BFFEE736
:1012900000BFFEE77047704770477047B0020020FC
:1012A000B402002040420F000CB5002001900090D5
:1012B0006C48006840F480306A49086000BF6948A3
:1012C000006800F4003000900198401C01900098E4
:1012D00018B90198B0F5A06FF1D16248006800F428
:1012E000003010B10120009001E000200090009833
:1012F000012843D15C48006840F010005A4908605A
:101300000846006820F0030008600846006840F0C6
:1013100002000860534840685249486008464068E7
:1013200048600846406840F480604860084640686D
:1013300020F47C1048600846406840F4E81048609B
:101340000846006840F08070086000BF45480068AB
:1013500000F000700028F9D04248406820F00300F7
:10136000404948600846406840F00200486000BFBD
:101370003C48406800F00C000828F9D10CBD10B5BD
:10138000FFF792FF10BD10B53648006840F001002D
:10139000344908600846406834490840314948608B
:1013A00008460068324908402E490860084600682F
:1013B00020F4802008600846406820F4FE00486061
:1013C0004FF41F008860FFF7DAFF4FF000602949F3
:1013D000086010BD10B5002100200022214B5B6881
:1013E00003F00C0121B1042906D0082928D107E017
:1013F000214B224C236027E01F4B204C236023E02D
:10140000184B5B6803F47010164B5B6803F4803272
:10141000022303EB904022B9194B4343174C23603E
:101420000DE0104B5B6803F4003323B1144B4343CE
:10143000124C236003E0104B4343104C236003E045
:101440000D4B0E4C236000BF00BF064B5B68C3F31F
:1014500003130C4CE15C094B1B68CB40074C236029
:1014600010BD000000100240002002400000FFF804
:10147000FFFFF6FE08ED00E000127A00B80200203F
:1014800000093D00BC02002008B50121242006F01F
:1014900023FE4FF48070ADF8000010208DF803009B
:1014A00003208DF802006946094806F059FB4FF405
:1014B0008071074806F001FC0420ADF80000694681
:1014C000044806F04DFB0421024806F0F6FB08BD77
:1014D000000801400014014002468A4201DD08462E
:1014E00070471046FCE703469A4203DA8B4201DA62
:1014F00018467047994201DC0846FAE71046F8E7BB
:1015000030B5B0F5FA6F01DD4FF4FA60B1F5FA6F5E
:1015100001DD4FF4FA61B2F5FA6F01DD4FF4FA62C2
:10152000B3F5FA6F01DD4FF4FA63B0F57A7F01DAB3
:101530004FF47A70B1F57A7F01DA4FF47A71B2F52F
:101540007A7F01DA4FF47A72B3F57A7F01DA4FF4D9
:101550007A73FE4D28802D1D29802D1D2A802D1D7A
:101560002B8030BD70B5044640F2F4612046FFF791
:10157000B3FF05466FF031023221F548B0F90000A3
:10158000FFF7B1FF0544F34A5142F348B0F90000B8
:10159000FFF7A9FF2E18F14800680AF01BF905B201
:1015A0006FF00E020F212846FFF79DFF0644EC481E
:1015B00000680AF00FF905B26FF009020A21284607
:1015C000FFF791FF304400B2E649088040F2F46131
:1015D0002046FFF781FF05466FF031023221E248D5
:1015E000B0F90000FFF77FFF0544DA4A5142DF48B7
:1015F000B0F90000FFF777FF2E18D84800680AF00E
:10160000E9F805B26FF00E020F212846FFF76BFFD5
:101610000644D34800680AF0DDF805B26FF009020D
:101620000A212846FFF75FFF304400B2D049088006
:1016300040F2F4612046FFF74FFF05466FF031029C
:101640003221CC48B0F90000FFF74DFF0544C14AF4
:101650005142C948B0F90000FFF745FF2E18BF48B6
:1016600000680AF0B7F805B26FF00E020F212846A5
:10167000FFF739FF0644BA4800680AF0ABF805B234
:101680006FF009020A212846FFF72DFF304400B20F
:10169000BA49088040F2F4612046FFF71DFF054675
:1016A0006FF031023221B648B0F90000FFF71BFF9E
:1016B0000544A84A5142B348B0F90000FFF713FFB0
:1016C0002E18A64800680AF085F805B26FF00E02E1
:1016D0000F212846FFF707FF0644A14800680AF0DB
:1016E00079F805B26FF009020A212846FFF7FBFEE0
:1016F000304400B2A44908800846B0F900309F4841
:10170000B0F900209A48B0F900109648B0F90000EE
:10171000FFF7F6FE70BD2DE9F0479C4801689C4834
:1017200000680AF023F906469A4801689A4800685A
:101730000AF01CF9804699480168994800680AF047
:1017400015F90746414609F0DBFE0546314609F02A
:10175000D7FE04460AF03EF800B27D4908808B4867
:1017600001688B4800680AF001F9804689480168E1
:10177000894800680AF0FAF881468948006880F0D4
:1017800000478648016838460AF0F0F806464946A0
:101790000AF024FA0546414609F0B2FE04460AF072
:1017A00019F800B2704908807848016878480068E4
:1017B0000AF0DCF8804677480168774800680AF04C
:1017C000D5F881467648006880F000477348016884
:1017D00038460AF0CBF80646494609F091FE054620
:1017E00041460AF0FBF9044609F0F4FF00B26149F2
:1017F000088066480168664800680AF0B7F806463F
:1018000064480168644800680AF0B0F80746634815
:101810000168634800680AF0A9F8804639460AF072
:10182000DDF9054631460AF0D9F9044609F0D2FF40
:1018300000B253490880BDE8F0872DE9F0475948C8
:10184000B0F900000AF002F8074657480168384628
:101850000AF08CF805465548B0F9000009F0F6FF8B
:1018600081465348016848460AF080F807465148C7
:10187000B0F9000009F0EAFF81464F480168484688
:101880000AF074F88046394609F03AFE06462946C1
:1018900009F036FE044609F09DFF00B22E4908808B
:1018A0004048B0F9000009F0D1FF07463E48016802
:1018B00038460AF05BF805463C48B0F9000009F0EC
:1018C000C5FF81463A48016848460AF04FF8074686
:1018D0003848B0F90000404209F0B8FF8146364868
:1018E000016848460AF042F8804639460AF076F91F
:1018F0000646294609F004FE044609F06BFF00B2D3
:101900001A4908802748B0F9000009F09FFF0746F0
:101910002548016838460AF029F805462348B0F9F9
:10192000000009F093FF81462148016848460AF00B
:101930001DF807461F48B0F90000404209F086FF35
:1019400081461D480168484638E0000034040040E4
:10195000BC000020D4FEFFFFC40000208402002051
:101960008002002088020020BE000020C600002067
:101970008A020020C0000020C80000208C02002045
:10198000C2000020CA0000208E020020E8020020D1
:10199000FC000020E4020020F8000020E00200200B
:1019A000F400002010010020000300200E010020A0
:1019B000FC0200200C010020F802002009F0D6FFF4
:1019C0008046394609F09CFD064629460AF006F98C
:1019D000044609F0FFFE00B2FE490880FE48B0F957
:1019E000000009F033FF0746FC480168384609F05B
:1019F000BDFF0446FA48B0F9000009F027FF814610
:101A0000F8480168484609F0B1FF0746F648B0F9C2
:101A1000000009F01BFF8146F4480168484609F0C0
:101A2000A5FF804639460AF0D9F8064621460AF055
:101A3000D5F8054609F0CEFE00B2ED490880BDE8B4
:101A4000F0872DE9F041EB49B1F900104942EA4A2B
:101A5000B2F900201144DF4AB2F90020891AE44AA1
:101A6000B2F900201144E54AB2F90020891AE44A8B
:101A7000B2F900201144E34AB2F90020891AE24A7F
:101A8000B2F90020881809F0E1FE0746DF48016836
:101A9000384609F06BFF0546D649B1F900104942B6
:101AA000D54AB2F900201144CA4AB2F900201144C3
:101AB000CF4AB2F90020891AD04AB2F90020891A17
:101AC000CF4AB2F900201144CE4AB2F900201144A5
:101AD000CD4AB2F90020881A09F0B8FE0746CC4872
:101AE0000168384609F042FF0646294609F008FD1C
:101AF000044609F06FFE00B2C6490880BD49B1F93D
:101B000000104942BC4AB2F900201144B14AB2F96E
:101B10000020891AB64AB2F900201144B74AB2F936
:101B20000020891AB64AB2F900201144B54AB2F928
:101B30000020891AB44AB2F90020881809F086FEFC
:101B40000746B2480168384609F010FF0546A94922
:101B5000B1F900104942A84AB2F9002011449D4A47
:101B6000B2F900201144A24AB2F90020891AA34A0E
:101B7000B2F90020891AA24AB2F900201144A14A00
:101B8000B2F900201144A04AB2F90020501A09F01D
:101B90005DFE07469E480168384609F0E7FE0646A6
:101BA00029460AF01BF8044609F014FE00B29A49CF
:101BB00008809049B1F9001049428F4AB2F90020DB
:101BC0001144844AB2F90020891A894AB2F90020E6
:101BD00011448A4AB2F90020891A894AB2F90020D0
:101BE0001144884AB2F90020891A874AB2F90020C4
:101BF000881809F02BFE074684480168384609F02A
:101C0000B5FE05467B49B1F9001049427A4AB2F95E
:101C1000002011446F4AB2F900201144744AB2F90D
:101C20000020891A754AB2F90020891A744AB2F95B
:101C300000201144734AB2F900201144724AB2F9EB
:101C40000020501A09F002FE074671480168384624
:101C500009F08CFE0646294609F052FC044609F0BC
:101C6000B9FD00B26D4908806249B1F900104942DE
:101C7000614AB2F900201144564AB2F90020891A8B
:101C80005B4AB2F9002011445C4AB2F90020891A7B
:101C90005B4AB2F9002011445A4AB2F90020891A6D
:101CA000594AB2F90020881809F0D0FD0746574874
:101CB0000168384609F05AFE05464E49B1F9001050
:101CC00049424D4AB2F900201144424AB2F900207B
:101CD0001144474AB2F90020891A484AB2F9002053
:101CE000891A474AB2F900201144464AB2F9002045
:101CF0001144454AB2F90020881A09F0A7FD0746A9
:101D000043480168384609F031FE0646294609F085
:101D100065FF044609F05EFD00B241490880BDE858
:101D2000F0812DE9F0410025002600273D49B1F959
:101D300000103D4AB2F90020881A09F087FD3B499E
:101D40003B4A127841F822003649B1F90210364A6E
:101D5000B2F90220881A09F079FD3649344A12781E
:101D600041F822002F49B1F904102F4AB2F904209A
:101D7000881A09F06BFD30492D4A127841F822008B
:101D8000002416E0294850F82410284609F0B8FB32
:101D90000546284850F82410304609F0B1FB0646A5
:101DA000254850F82410384609F0AAFB0746601C65
:101DB000C4B2062CE6DB2149284609F015FC804612
:101DC00009F008FD00B2084908801C49304609F0B6
:101DD0000BFC35E0C80000201001002000030020AB
:101DE0000E010020FC0200200C010020F80200205F
:101DF000CA000020C4000020C6000020BC00002053
:101E0000BE000020C0000020C200002014030020FB
:101E100010030020CC000020CE000020D0000020C5
:101E2000D20000207800002086000020100500204D
:101E30002403002028050020400500200000C040A9
:101E4000804609F0C7FC00B2FE490880FE493846CA
:101E500009F0CAFB804609F0BDFC00B2FB490880CE
:101E6000FB480078401CFA490870084600780628AC
:101E700001D100200870BDE8F08170B50025F5495A
:101E8000B1F90010F44AB2F90020881A09F0DEFC1A
:101E9000F249F34A127841F82200002408E0EF48A2
:101EA00050F82410284609F02BFB0546601CC4B2EC
:101EB000062CF4DBE449284609F096FB064609F0B7
:101EC00089FC00B2E7490880E5480078401CE449F5
:101ED000087008460078062801D10020087070BDFF
:101EE00070B50025E0480068E049E14A127841F801
:101EF0002200002408E0DD4850F82410284609F0AC
:101F0000FFFA0546601CC4B2012CF4DB4FF07E5191
:101F1000284609F069FBD7490860D5480078401C7D
:101F2000D349087008460078012801D100200870C4
:101F300070BD2DE9F04F89B083468A46504609F0BE
:101F4000B3FA8046CC4ACD4B08F0D4FF02460B468C
:101F5000CDE900010020CA4908F0DEFD06460F4623
:101F6000584609F0A1FA32463B46CDE9020108F095
:101F700017FDCDE90601584609F096FACDE90401AE
:101F8000DDE9062308F0C8FD044608F0D7FCBD498A
:101F9000086009B0BDE8F08F2DE9F041AD49B1F915
:101FA0000010B04AB2F90020881A09F04FFC074629
:101FB000B4480168384609F0D9FC0546A948B0F98B
:101FC000000009F043FC0646294609F099FA044648
:101FD00009F000FC00B2A3490880BDE8F08170B5AB
:101FE000A9480068A9490860A9480168A94800688B
:101FF00009F086FAA7490860A7480168A548006863
:1020000009F07EFA04462146A248006809F0ECFA7D
:10201000A24908608F48B0F9000009F017FC064695
:102020009A480168304609F0D9FD05469B48016889
:10203000284609F09BFC044694480168204609F0B4
:102040005FFA91490860954801684FF07E5009F0A9
:10205000C5FD04468F480168204609F087FC8D497C
:10206000086070BD70B58E4800688E4908608E4863
:1020700001688E48006809F043FA8C4908608C4872
:1020800001688A48006809F03BFA044621468748FF
:10209000006809F0A9FA874908608748B0F900008C
:1020A00009F0D4FB06467F480168304609F096FDEA
:1020B000054680480168284609F058FC04467948DE
:1020C0000168204609F01CFA7549086079480168E2
:1020D0004FF07E5009F082FD0446744801682046A6
:1020E00009F044FC7149086070BD70B57348006820
:1020F00073490860734801687348006809F000FA82
:1021000071490860714801686F48006809F0F8F982
:10211000044621466C48006809F066FA6C4908607C
:102120006C48B0F9000009F091FB0646644801686C
:10213000304609F053FD054665480168284609F018
:1021400015FC04465E480168204609F0D9F95B4950
:1021500008605F4801684FF07E5009F03FFD04467B
:1021600059480168204609F001FC5749086070BDD4
:1021700070B55948006820F00044204609F094F9F1
:1021800005460022554B08F079FE2AD254480068D3
:1021900020F00044204609F087F9054600224F4B05
:1021A00008F06CFE1DD24F48006820F000444E49F4
:1021B000204609F0A7FB14D24C48006820F00044E8
:1021C0004949204609F09EFB0BD24948006880F03F
:1021D000004448480168204609F0C8FB46490860A9
:1021E00002E000204449086070BD2DE9FE4F4349DC
:1021F0000988A1F57A7009F029FB02903848006837
:1022000009F052F907463E4A3E4B08F073FE054678
:1022100008F094FB834608F02DF900902E480068E2
:1022200009F042F90746364A364B08F063FE054688
:1022300008F084FB834608F01DF90446009909F074
:1022400095FB61E00E0100200000C040100100205D
:1022500024030020700000209C000020580500206E
:102260002503002012010020D400002028030020B4
:102270002C030020D800002097D17E5AFB21194062
:102280000000F03F14010020D0010020D401002004
:10229000C8010020D8010020C4010020CC0100208A
:1022A0001002002014020020080200201802002062
:1022B000040200200C0200206E00002030020020EA
:1022C00034020020280200203802002024020020CE
:1022D0002C0200206C000020000100200000E03FE4
:1022E0000401002064000020000040406000002045
:1022F00020030020DC010020800200205400002088
:102300005F40D42247DF913F814639490988A1F5D2
:102310007A7009F09BFA4946019009F065F9824606
:10232000029909F05BFC33490860BDE8FE8F2DE996
:10233000F041002400BF56E02F4850F824002F49F8
:1023400041F824002E4A52F824102E4A52F8240054
:1023500009F0D6F82B4941F824002B4A52F82410F2
:10236000284A52F8240009F0CBF80546254951F8CF
:102370002400294609F038F9244941F82400244969
:1023800031F91410234A32F91420881A09F05EFA40
:1023900007461A4850F82410384609F01FFC064634
:1023A0001A4850F82410304609F0E0FA0546134860
:1023B00050F82410284609F0A3F80F4941F82400EA
:1023C000124850F824104FF07E5009F007FC0546E3
:1023D0000C4850F82410284609F0C8FA094941F879
:1023E0002400601CC4B2032CA6DBBDE8F081000011
:1023F000540000208402002098040020A40400203F
:1024000068020020740200205C0200208C0400207E
:1024100078000020860000207FB505460C4601218B
:10242000082005F066FEADF80850ADF80440002025
:10243000ADF80A00ADF8060001A9EA4806F016FA60
:1024400001221146E74806F088FD32208DF8000091
:1024500001208DF8010000208DF8020001208DF888
:102460000300684606F0A5F80121DE4806F05AFD93
:102470007FBD10B50121DB4807F01DF840B10121F7
:10248000D84807F029F8D8480068401CD6490860A9
:1024900010BD30B585B005460C460121042005F07D
:1024A00028FE0121082005F017FE4FF47070ADF8EA
:1024B000100028208DF8130004A9CC4805F050FB2B
:1024C0004FF47071C94805F0FAFBADF80850ADF84B
:1024D00004400020ADF80A00ADF8060001A9C44888
:1024E00006F0C4F90020C349088048800120888094
:1024F0000020C8800881BE4806F04BFC0420BD497E
:10250000088000204880012088800020C880088141
:10251000B74806F03EFC0820B649088000204880F5
:10252000012088800020C8800881B14806F031FC75
:102530000C20B049088000204880012088800020BD
:10254000C8800881AA4806F024FC1E208DF80000EF
:1025500000208DF801008DF8020001208DF80300A5
:10256000684606F026F801221E21A14806F0F5FC77
:1025700001219F4806F0D6FC05B030BD10B59E483D
:10258000007800F08000002846D10221984806F02B
:1025900092FF002840D00221954806F09DFF964802
:1025A000007800F0400040B3914806F065FF934981
:1025B00008800846008892490988884204DA4FF664
:1025C000FF709049086002E000208E4908608B4847
:1025D00000888B490988401A8A49096808448A4951
:1025E0000860084600688949086000208249087030
:1025F00000217F4806F048FE0EE07D4806F03CFFD3
:102600007F4908807C48007840F040007A49087093
:102610000221774806F038FE7D48007800F08000FF
:10262000002846D10421724806F045FF002840D01A
:1026300004216F4806F050FF7548007800F0400014
:1026400040B36B4806F01BFF7249088008460088BB
:1026500071490988884204DA4FF6FF706F490860B3
:1026600002E000206D4908606A4800886A490988CC
:10267000401A6A49096808446949086008460068C0
:10268000684908600020624908700021584806F037
:102690000DFE0EE0564806F0F2FE5F4908805C48E9
:1026A000007840F040005A4908700221504806F076
:1026B000FDFD5D48007800F08000002845D108212C
:1026C0004B4806F0F8FE80B30821494806F004FFA5
:1026D0005548007800F0400040B3454806F0D2FE6F
:1026E000524908800846008851490988884204DA1E
:1026F0004FF6FF704F49086002E000204D49086026
:102700004A4800884A490988401A4A4909680844E1
:102710004949086008460068484908600020424965
:1027200008700021324806F0DBFD0EE0304806F06C
:10273000A9FE3F4908803C48007840F040003A49F3
:10274000087002212A4806F0CBFD3D48007800F0D1
:102750008000A8BB1021264806F0ADFE80B31021F2
:10276000234806F0B9FE3648007800F0400040B338
:102770001F4806F08AFE334908800846008832491F
:102780000988884204DA4FF6FF703049086002E099
:1027900000202E4908602B4800882B490988401AE0
:1027A0002A49096808442A490860084600682949F6
:1027B000086000202249087000210D4806F0AAFD9B
:1027C0000EE00B4806F061FE1F4908801C480078A7
:1027D00040F040001A4908700221054806F09AFDB1
:1027E00010BD0000000C004000000020000C014063
:1027F0000008004070050020300300203403002052
:102800003203002058030020480300204C00002021
:10281000360300203A030020380300205C03002028
:102820004C030020500000203C0300204003002007
:102830003E030020600300205003002054000020CD
:1028400042030020460300204403002064030020CC
:10285000540300205800002070B505460C4645F290
:10286000555005F00FFF284605F00FFF204605F0F4
:102870000FFF05F010FF05F013FF70BD10B505F058
:102880000AFF10BD08B500208DF8000002208DF869
:10289000010003208DF80200684605F08AFE08BD9D
:1028A00070B506460C4615460121C80205F021FC0C
:1028B000284606F020FE204606F026FE304606F0AA
:1028C0003EFE06F047FEFFF7DDFF06F02EFE70BD70
:1028D00010B50446204606F032FE10BD10B57F202C
:1028E00006F027FE06F036FE10BD000030B589B0B8
:1028F00005460C460121022005F0FBFB01211120B9
:1029000005F0EAFB0121294805F0FBF94FF470704E
:10291000ADF8200018208DF8230003208DF8220048
:1029200008A9234805F01CF9ADF81850ADF814407B
:102930000020ADF81A00ADF8160005A91D4805F0F5
:1029400095FF6020ADF804000120ADF806000020DE
:10295000ADF80A00ADF80C0001A9164805F0C3FF58
:102960000821144806F00EFC01A9124805F0FDFFED
:102970000821104806F00FFC01A90E4806F042F8A5
:1029800008210C4806F014FC01A90A4806F085F855
:102990000821084806F015FC0121064806F0C2FB94
:1029A0000121044806F0BEFA09B030BD000C1A003F
:1029B000001001400004004010B500F025FBEE209F
:1029C00000F0DAFB00F065FB1E2000F0D5FB00F004
:1029D00060FB00F03DFB10BD70B5012433E000F05A
:1029E00013FBEE2000F0C8FB00F053FBA02101EB2D
:1029F0004401C8B200F0C0FB00F04BFB00F028FB24
:102A0000052004F0B4FD00F0FFFAEF2000F0B4FB65
:102A1000012004F0ACFD00F03CFB012000F0DBFBEA
:102A20000546012004F0A3FD002000F0D4FB06467B
:102A300000F00EFB052004F0BEFD46EA0520FE492D
:102A400021F81400641C062CC9DDFB48008808B975
:102A5000012070BD0020FCE738B50446002500F0D9
:102A6000D3FAEE2000F088FB00F013FB204600F0C4
:102A700083FB00F00EFB00F0EBFA092004F09BFD55
:102A8000642004F074FD00F0BFFAEE2000F074FB47
:102A900000F0FFFA002000F06FFB00F0FAFA00F0FF
:102AA000D7FA00F0B1FAEF2000F066FB00F0F1FA7F
:102AB000012000F090FB8DF80000012000F08BFB5E
:102AC0008DF80100002000F086FB8DF8020000F078
:102AD000BFFA9DF8000001049DF8010001EB002001
:102AE0009DF802104518284638BD10B55820FFF74C
:102AF000B3FFD2490860052004F039FDCE48408973
:102B0000CE490968A1EB0020CD490860CA488089F8
:102B1000096848434FF4FA6101EBD050C949086095
:102B200010BD2DE9F0414820FFF796FFC649086027
:102B3000052004F01CFDC04880880104BE480089BF
:102B4000BF4A1268504301EBD0100021BF4A03C2B4
:102B5000B9484088C103B848C088B94A1268504390
:102B600001EB10200021BA4A03C2B7480068083AB6
:102B700018CAA0FB032501FB035100FB0411500DF3
:102B800040EAC1234815B149D1E900219A1A60EB06
:102B90000100410441EAD230AE490860A94800680A
:102BA000B0F5FA6F46DAA64800684043C017C1176F
:102BB000A94A03C2A3480068A0F5FA604043401048
:102BC00000EB8000C117A54A03C29E480068A0F52B
:102BD000FA604043801000EB8000C117A04A03C296
:102BE000984800689F4988422FDA9648006800F2AA
:102BF000DC50C0EBC0009349096801F2DC51484346
:102C0000C117964AD2E90032C0185141934A03C213
:102C10008C48006800F2DC504043401000EB40015B
:102C200001EBC000C1178E4B0CCB801859418C4A68
:102C300003C20AE00021884A116051600020874ADF
:102C400010605060864A116051607E480068824979
:102C50000968401A7B4908607C48D0E900207F4918
:102C6000D1E90031D21A60EB01007849C1E90020B6
:102C70007748D0E900307A49D1E900219A1A60EB0F
:102C800001007349C1E900206F480068002550C960
:102C9000A0FB041705FB047400FB0644480D40EA42
:102CA000C4256015694C12CC6D1A60EB0401E80B69
:102CB00040EA4142C913104608F0E3FD6A49086042
:102CC000BDE8F0812DE9F0470446204607F048FDB5
:102CD0008146664908F04AFE074607F089FC064629
:102CE0004FF07E5108F070FF054661480168614869
:102CF00008F03CFE8046294608F038FE5E49086030
:102D000008460068BDE8F08770B55C4800685C491B
:102D100008605C4801685C48006808F0F1FB5A49AB
:102D200008605A4801685848006808F0E9FB044602
:102D300021465548006808F057FC5549086050483E
:102D400001684D48006808F049FF05465048016891
:102D5000284608F00BFE044649480168204608F062
:102D6000CFFB464908604A4801684FF07E5008F0A2
:102D700035FF044644480168204608F0F7FD424903
:102D8000086070BD70B54348006843490860434817
:102D900001684348006808F0B3FB414908604148B6
:102DA00001683F48006808F0ABFB044621463C48F8
:102DB000006808F019FC3C490860374801683B4846
:102DC000006808F00BFF054637480168284608F000
:102DD000CDFD044630480168204608F091FB2D499E
:102DE0000860314801684FF07E5008F0F7FE044655
:102DF0002B480168204608F0B9FD2949086070BDDC
:102E000070B52B4800682B4908602B4801682B4897
:102E1000006808F075FB29490860294801682748BF
:102E2000006808F06DFB044621462448006808F05D
:102E3000DBFB2449086047E0040400202401002053
:102E400028010020E00000202001002018010020BF
:102E500038010020400100205001002060010020C6
:102E60006801002024FAFFFFDC00002041D3423E2D
:102E7000740100207B627046D4000020980100207D
:102E80009C01002090010020A00100208C01002066
:102E900094010020B0010020B4010020A80100200E
:102EA000B8010020A4010020AC010020E4010020B2
:102EB0005002002054020020480200205802002046
:102EC000440200204C02002038480168384800685D
:102ED00008F084FE054637480168284608F046FD9C
:102EE000044632480168204608F00AFB324908606F
:102EF000304801684FF07E5008F070FE04462F48BD
:102F00000168204608F032FD2C49086070BD2DE9AB
:102F1000F05F2B4A5168106808F060FE8046294A2D
:102F20005168106808F05AFE8146274908F01EFDD6
:102F30000746414608F058FB0546214A91689069CA
:102F400008F04CFE82461F4A9168906908F046FEE0
:102F500083464FF0834108F009FD8146514608F051
:102F600043FB0746164AD168506908F037FE82468F
:102F7000144AD168506908F031FE8346134908F0BD
:102F8000F5FC8146514608F02FFB8046394608F093
:102F9000B7FA0646294608F0B3FA04464FF07451D2
:102FA00008F0E4FC0A490860BDE8F09F54020020E4
:102FB000DC0000204C0200205002002058020020BB
:102FC000F4040020D80400200000C040000020418C
:102FD000E401002008B50121042005F07DF84FF43C
:102FE000C050ADF8000010208DF8030003208DF8CC
:102FF00002006946914804F0B3FD01209049086041
:103000009049C1F8AC0108BD10B58C48001D00689E
:1030100020F470408949091D08600846006840F4A2
:103020004050086001208649091F08608549C1F8A1
:10303000B001042004F09BFA00208149091F0860B8
:10304000042004F094FA00207E49C1F8B00110BDBC
:1030500010B57A48001D006820F470407749091DBA
:1030600008600846006840F4405008600020744939
:1030700008607449C1F8AC01042004F078FA01201A
:103080006F4908606F49C1F8AC01042004F06FFA81
:1030900010BD10B500246948001D006820F4704080
:1030A0006649091D08600846006840F40040086051
:1030B00001206349091F086004F059FA01206149A1
:1030C000C1F8B00104F053FA07E0601CC4B2FA2C56
:1030D00003DDFFF7BDFF012010BD594884380068AB
:1030E0000028F2D15649086000BFF5E710B500206E
:1030F000534908605148001D006820F470404F4952
:10310000091D08600846006840F44050086000202F
:103110004C49C1F8AC01022004F029FA01204849C9
:103120000860022004F023FA00204649C1F8B001EB
:1031300010BD10B50020424908604048001D0068DD
:1031400020F470403D49091D08600846006840F4BD
:103150004050086001203B49C1F8AC01022004F056
:1031600006FA012036490860022004F000FA002027
:103170003449C1F8B00110BD70B504462F48001D98
:10318000006820F470402D49091D08600846006859
:1031900040F440500860002029490860002517E0ED
:1031A000E0092749091F08606006040E022004F0A8
:1031B000DEF901202349C1F8B001022004F0D7F95B
:1031C00000201F490860022004F0D1F9681CC5B234
:1031D000082DE5DB70BD70B5054600241748001DBD
:1031E000006820F470401549091D08600846006811
:1031F00040F400400860002616E0002010490860F6
:10320000022004F0B4F901200E49C1F8B0016006B3
:10321000040E0B488438006808B1601CC4B2012059
:1032200004F0A5F9701CC6B2082EE6DB15B9FFF74D
:1032300080FF01E0FFF75AFF204670BD0008014003
:10324000B00121420000214270B505460C4600F055
:10325000CDF9D02000F074FA00F005FA18B100F0B2
:10326000E3F9012070BD284600F06AFA00F0FBF98E
:10327000204600F065FA00F0F6F918B100F0D4F934
:103280000120EFE700F0D0F90020EBE770B504462D
:103290000025BC2C01DB012510E0622C01DB02259E
:1032A0000CE02A2C01DB032508E0142C01DB0425AB
:1032B00004E00A2C01DB052500E0062529461A203A
:1032C000FFF7C2FF70BD70B50446B4F57A7F01DD2B
:1032D0004FF47A74042C00DA04244FF47A7090FBD3
:1032E000F4F0401EC5B229461920FFF7ADFF054690
:1032F000264604EBD671C1F34F00FFF7C7FF70BD40
:1033000070B5044600F072F9D02000F019FA00F010
:10331000AAF9204600F014FA00F0A5F900F066F9C9
:10332000D12000F00DFA00F09EF9002000F031FAF3
:10333000054600F079F9284670BD10B50446E00650
:10334000010E1C20FFF780FF10BD10B50446E006FB
:10335000010E1B20FFF778FF10BD10B500F02DF90E
:1033600080216B20FFF770FF642004F024F9002116
:103370006B20FFF769FF0320FFF7E7FF0020FFF74F
:10338000DCFF3220FFF79FFF00213820FFF75CFFB2
:1033900000216A20FFF758FF00212320FFF754FF88
:1033A00080213720FFF750FF7520FFF7A9FF044663
:1033B000682C0BD101216B20FFF746FF00216C2008
:1033C000FFF742FF3220FFF77EFF01E0012010BD32
:1033D0000020FCE72DE9F04106460F4614461D4645
:1033E00000F004F9002141EA4601C8B200F0A8F952
:1033F00000F039F920B100F017F90120BDE8F081A3
:10340000384600F09DF900F02EF900F0EFF80121A8
:1034100001EB4601C8B200F093F900F024F90DE089
:10342000012C04D1002000F0B4F9287003E0012041
:1034300000F0AFF92870601EC4B26D1C002CEFD1F3
:1034400000F0F2F80020D9E72DE9F84F6B46022290
:1034500041216820FFF7BEFF9DF801009DF8001094
:1034600040EA01200FFA80FA504607F0DCFC804663
:1034700000224B4B07F050FB06464A4A4A4B07F0E6
:103480008FFA044607F05AFA83464849584608F02E
:103490006DFA044608F09EF900B2BDE8F88F2DE9F8
:1034A000FC4104460D4616466B4606224321682021
:1034B000FFF790FF0746BFB99DF801009DF8001087
:1034C00040EA012000B220809DF803009DF8021020
:1034D00040EA012000B228809DF805009DF8041004
:1034E00040EA012000B230803846BDE8FC812DE979
:1034F000FC4104460D4616466B4606223B216820D9
:10350000FFF768FF0746BFB99DF801009DF800105E
:1035100040EA012000B220809DF803009DF80210CF
:1035200040EA012000B228809DF805009DF80410B3
:1035300040EA012000B230803846BDE8FC812DE928
:10354000F04105460E461746984600F04FF8002118
:1035500041EA4501C8B200F0F3F800F084F820B168
:1035600000F062F80120BDE8F081304600F0E8F894
:1035700000F079F800240CE018F8040000F0E0F8FE
:1035800000F071F818B100F04FF80120EBE7601C73
:10359000C4B2BC42F0DB00F047F80020E3E70000D3
:1035A00000407540A4703D0AD74342400000C84225
:1035B00010B5022003F0DBFF10BD08B5012110207B
:1035C00004F08AFD4FF4C050ADF8000010208DF8D3
:1035D000030003208DF802006946864804F0C0FA13
:1035E0004FF4C051834804F068FB08BD10B5814812
:1035F000406820F470407F4948600846406840F4C5
:103600004050486001207C4908607C49C1F8B00105
:10361000FFF7CEFF002078490860FFF7C9FF0020C0
:103620007649C1F8B00110BD10B57248406820F469
:103630007040704948600846406840F44050486017
:1036400000206D49091D08606C49C1F8AC01FFF705
:10365000AFFF01206849091D08606849C1F8AC0145
:10366000FFF7A6FF10BD10B500246248406820F4A3
:103670007040604948600846406840F40040486037
:1036800001205D490860FFF793FF01205B49C1F805
:10369000B001FFF78DFF07E0601CC4B2FA2C03DD18
:1036A000FFF7C2FF012010BD534880380068002892
:1036B000F2D15149091D086000BFF4E710B50020A0
:1036C0004D49091D08604B48406820F47040494945
:1036D00048600846406840F4405048600020474930
:1036E000C1F8AC01FFF764FF01204349091D0860E0
:1036F000FFF75EFF00204149C1F8B00110BD10B5D1
:1037000000203D49091D08603A48406820F4704097
:10371000384948600846406840F4405048600120FD
:103720003649C1F8AC01FFF743FF01203249091DBA
:103730000860FFF73DFF00203049C1F8B00110BD1F
:1037400070B504462B48406820F470402949486011
:103750000846406840F44050486000202649091D52
:103760000860002512E0E009234908606006040EA5
:1037700001202249C1F8B001FFF71AFF00201E49BD
:10378000091D0860FFF714FF681CC5B2082DEADBAD
:1037900070BD70B5054600241648406820F470409E
:1037A000144948600846406840F4004048600026DC
:1037B00015E000201049091D0860FFF7F9FE0120FF
:1037C0000E49C1F8B0016006040E0B48803800684D
:1037D00008B1601CC4B2FFF7EBFE701CC6B2082E25
:1037E000E7DB15B9FFF78BFF01E0FFF767FF204626
:1037F00070BD000000100140AC01224200002242D6
:1038000038B50446F74890F82400C0B114B102203E
:10381000009001E000200090F24A1268D17BF14A4A
:10382000526810786B460122FFF789FE10B14FF005
:10383000FF3038BD9DF80010EA48417423E0E948A4
:10384000807A10B94FF0FF30F3E724B1E548407CAF
:1038500008B10020EDE714B10120009001E0002044
:103860000090E04A1268D17BDE4A526810786B46BD
:103870000122FFF764FE10B14FF0FF30D9E79DF849
:103880000010D84841740020D3E738B500241FE069
:10389000D4480068C07AA04204D0D2480068407D75
:1038A000A04200D112E0CF49496808786B46012256
:1038B0002146FFF78FFD10B14FF0FF3038BD9DF866
:1038C00000202146C8A005F075FE00BF601CC4B2F0
:1038D000C44840680079A042DADC0020EEE770B509
:1038E00004460D46BF480068C07AA04204D0BD48D7
:1038F0000068407DA04202D14FF0FF3070BDB94852
:1039000040680079A04202DC4FF0FF30F6E7B5498D
:10391000496808782B4601222146FFF75BFDEDE759
:1039200038B50446AF4890F82300A04201D10020EA
:1039300038BD14B13020009001E000200090A9486B
:10394000807C20B19DF8000040F002000090A54866
:1039500090F8220020B19DF8000040F08000009017
:10396000A04A1268117D9F4A526810786B46012266
:10397000FFF7E5FD10B14FF0FF30D9E7994880F827
:1039800023400020D4E738B5044604F0700010B19D
:103990000120009005E014B10020009001E04020DB
:1039A0000090904A1268917C8E4A526810786B465B
:1039B0000122FFF7C4FD20B100218A488172481E10
:1039C00038BD9DF8000020F04001864801730020BA
:1039D000009004F0400020B99DF8000040F0040081
:1039E000009004F0200020B99DF8000040F0020093
:1039F000009004F0100020B99DF8000040F0010094
:103A0000009004F0080020B99DF8000040F0380054
:103A10000090744A1268D17C724A526810786B46E2
:103A20000122FFF78CFD20B100216E488172481EF3
:103A3000C6E724B1082C02D00020FFF771FF6948C7
:103A4000847200210175322003F0B5FD0020B7E734
:103A500038B504466348807CA04201D1002038BDBF
:103A6000002C46D05F4A126811795E4A526810787D
:103A70006B460122FFF7AEFC10B14FF0FF30EEE7CE
:103A80009DF8000020F020000090564A126811793D
:103A9000544A526810786B460122FFF750FD10B16E
:103AA0004FF0FF30DBE7032003F085FD022000909C
:103AB0004C4890F8220020B19DF8000040F08000B2
:103AC0000090484890F8230020B19DF8000040F095
:103AD00030000090434A1268117D424A52681078C3
:103AE0006B460122FFF72BFD002851D04FF0FF302D
:103AF000B5E73C4A126811793A4A526810786B4629
:103B00000122FFF767FC10B14FF0FF30A7E73548FF
:103B1000807A00F0010028B19DF8000040F02000FC
:103B2000009004E09DF8000020F0200000902D4A55
:103B3000126811792B4A526810786B460122FFF700
:103B4000FEFC10B14FF0FF3089E7032003F033FD96
:103B5000244890F8220010B18020009001E000205D
:103B60000090204890F8230020B19DF8000040F01C
:103B7000300000901B4A1268117D1A4A5268107872
:103B80006B460122FFF7DBFC10B14FF0FF3066E718
:103B900014488474002062E708B51248807A10B98E
:103BA0004FF0FF3008BD002000900E4A1268D17B14
:103BB0000C4A526810786B460122FFF7C0FC10B126
:103BC0004FF0FF30EEE7074A12685179054A526814
:103BD00010786B460122FFF7B2FC68B14FF0FF305E
:103BE000E0E7000068030020252335783A202523EC
:103BF00035780D0A00000000FB4A12681179FA4A74
:103C0000526810786B460122FFF799FC10B14FF013
:103C1000FF30C7E7F44890F82400002850D00C206B
:103C20000090F14A12681179EF4A526810786B4699
:103C30000122FFF784FC10B14FF0FF30B2E7C02043
:103C40000090E948807A00F0010020B19DF8000062
:103C500040F020000090E44A12681179E24A52686C
:103C600010786B460122FFF76AFC10B14FF0FF306D
:103C700098E7DD48407C10B10220009001E0002070
:103C80000090D94A1268D17BD74A526810786B46A7
:103C90000122FFF754FC10B14FF0FF3082E7002003
:103CA0000090D14A12685179CF4A526810786B4619
:103CB0000122FFF744FC002855D04FF0FF3071E798
:103CC00004200090C84A12681179C74A52681078D7
:103CD0006B460122FFF733FC10B14FF0FF3061E774
:103CE000C148807C20B9C048807A00F0010010B93A
:103CF0004020009001E060200090BB4A12681179DA
:103D0000B94A526810786B460122FFF718FC10B1CF
:103D10004FF0FF3046E7322003F04DFCB248407CC4
:103D200010B10120009001E000200090AE4A12681E
:103D3000D17BAD4A526810786B460122FFF7FFFB3A
:103D400010B14FF0FF302DE7A74A12685179A64A0B
:103D500052681078A44B10330122FFF7F0FB10B12A
:103D60004FF0FF301EE700201CE770B50446002628
:103D700024F001049C4890F8240008B1002070BD94
:103D80009948807A10B94FF0FF30F8E79648057CE3
:103D9000807A2040944908740846007CA04202D0F2
:103DA0004FF0FF3600E0002614B98F48007D18B1AF
:103DB0000120FFF725FD02E00020FFF721FD3CB1C7
:103DC000FFF7EAFE20B1884805744FF0FF30D6E7D0
:103DD0003046D4E738B504468348807A10B94FF0AE
:103DE000FF3038BDBC2C02DB0120009015E0622CB6
:103DF00002DB0220009010E02A2C02DB032000905E
:103E00000BE0142C02DB0420009006E00A2C02DBFD
:103E10000520009001E0062000907348C07A9DF8CC
:103E20000010884201D10020DBE76F4A12689178C8
:103E30006D4A526810786B460122FFF780FB10B183
:103E40004FF0FF30CDE79DF800106748C1720020A9
:103E5000C7E738B50446282C02DD4FF0FF3038BDE7
:103E6000DCB90020FFF75CFD00208DF80000072082
:103E70008DF801005C4A1268917C5B4A52681078A8
:103E80006B460222FFF75BFB10B14FF0FF30E6E715
:103E90000021554801750020E1E70120FFF740FDB2
:103EA00020208DF80000012C06D100208DF80100A3
:103EB0000520FFF78FFF17E0052C06DC01208DF8A9
:103EC00001000520FFF786FF0EE0142C06DC02201F
:103ED0008DF801000A20FFF77DFF05E003208DF833
:103EE00001001420FFF776FF9DF80100072101EB88
:103EF0008010C0B28DF801003B4A1268917C3A4AAA
:103F0000526810786B460222FFF719FB10B14FF090
:103F1000FF30A4E708213448817200210173012198
:103F200001750020FFF721FF002098E738B504460F
:103F30002D48807A10B94FF0FF3038BD2A4890F8EC
:103F4000240010B14FF0FF30F7E72748007D50B153
:103F500034B1282C04DCE0B2FFF77BFF0020ECE753
:103F60000020FFF776FF042C01DA042404E0B4F506
:103F70007A7F01DD4FF47A744FF47A7090FBF4F09D
:103F8000401EC0B20090184A12685178164A526812
:103F900010786B460122FFF7D2FA10B14FF0FF30D4
:103FA000CBE79DF80000401C4FF47A7191FBF0F0D4
:103FB00081B20D48C1810146C9894810FFF70AFF47
:103FC0000020BAE738B504460748807A10B94FF0A8
:103FD000FF3038BD022C09D0042C0AD0082C0BD09D
:103FE000102C0FD10BE0000068030020002000908F
:103FF0000BE00820009008E01020009005E0182059
:10400000009002E04FF0FF30E3E700BFF848407A4D
:104010009DF80010B0EBE10F01D10020D9E7F44A80
:104020001268D179F24A526810786B460122FFF784
:1040300086FA10B14FF0FF30CBE79DF80000C110B9
:10404000EB4841720020C4E738B50446E848807A5E
:1040500010B94FF0FF3038BDFA2C09D0B4F5FA7F13
:1040600009D0B4F57A7F09D0B4F5FA6F0CD108E025
:10407000002000900BE00820009008E01020009045
:1040800005E01820009002E04FF0FF30E3E700BFAA
:10409000D748007A9DF80010B0EBE10F01D1002065
:1040A000D9E7D34A12689179D14A526810786B46A1
:1040B0000122FFF744FA10B14FF0FF30CBE79DF833
:1040C0000000C010CA4908720020C4E71CB5802057
:1040D0008DF80000C64A1268917CC54A5268107873
:1040E0006B460122FFF72BFA10B14FF0FF301CBDD9
:1040F000642003F060FA00208DF80000BC4A1268CA
:10410000917CBB4A526810786B460122FFF717FA80
:1041100010B14FF0FF30EAE7B54A1268917DB44A1A
:10412000526810786B460622FFF754F910B14FF031
:10413000FF30DCE79DF80500C007400F9DF8031035
:1041400001F0010140EA41009DF8011001F0010178
:1041500040EA010494B1012C03D10121A448C174A7
:1041600031E0022C03D10021A148C1742BE021468B
:10417000A0A005F01FFA4FF0FF30B8E79C4A126884
:10418000D1789B4A526810786B460122FFF722F9DA
:1041900010B14FF0FF30AAE79DF8000000F00F04C7
:1041A0002CB99E4805F006FA4FF0FF309FE7042C2B
:1041B00006D19BA005F0FEF901218D48C17402E0F3
:1041C00000218B48C174FF2189488172FF208849F2
:1041D0000872FF2186484172C1724FF6FF71C1819A
:1041E000FF21017481740121017380F822100021E4
:1041F00080F82310417501751630016041608160BF
:10420000163880F8241080F82510C1844FF4FA6025
:10421000FFF71AFF10B14FF0FF3068E70220FFF7F9
:10422000D1FE10B14FF0FF3061E72A20FFF7D2FD39
:1042300010B14FF0FF305AE73220FFF777FE10B190
:104240004FF0FF3053E70020FFF78FFD10B14FF024
:10425000FF304CE70020FFF7FBFB10B14FF0FF30C1
:1042600045E70020FFF78FFB002040E770477CB553
:1042700004460D465E48807A00F0700010B94FF099
:10428000FF307CBD5A4A1268117B594A5268107837
:104290006B460622FFF79EF810B14FF0FF30F0E7B3
:1042A0009DF801009DF8001040EA012000B2208036
:1042B0009DF803009DF8021040EA012000B26080E2
:1042C0009DF805009DF8041040EA012000B2A0808E
:1042D00015B12846FFF7CAFF0020D2E77CB5044697
:1042E0000D464348807A00F0080010B94FF0FF30C7
:1042F0007CBD3F4A1268517B3D4A526810786B463C
:104300000622FFF767F810B14FF0FF30F0E79DF895
:1043100001009DF8001040EA012000B220809DF8C5
:1043200003009DF8021040EA012000B260809DF871
:1043300005009DF8041040EA012000B2A08015B1EC
:104340002846FFF793FF0020D2E72DE9FE4F0546F0
:104350000C462748807A18B94FF0FF30BDE8FE8F31
:10436000234A1268917B224A5268107802AB0222DB
:10437000FFF730F810B14FF0FF30EFE79DF809007C
:104380009DF8081040EA012006B214B12046FFF75C
:104390006DFF17494968C88807F0A0FA14490190D1
:1043A0004968B1F9080007F051FA8346304607F032
:1043B0004DFA5946009007F011FC8246019907F02A
:1043C00013F981461E4907F09BF880464FF08F4154
:1043D00007F0CCFA074607F0FDF928600020BDE79A
:1043E00010B588B004466CBB4FF0FF3008B010BD6C
:1043F00068030020556E737570706F727465642069
:10440000736F6674776172652070726F6475637420
:10441000207265762025642E0A00000008CC000872
:1044200048616C662073656E736974697669747926
:10443000207061727420666F756E642E0A00000031
:1044400000000C42FFE7206830B9606820B9A0681E
:1044500010B9002008B010BDFA494968087806ABC9
:1044600003221146FEF7B6FF10B14FF0FF30F1E71F
:104470009DF81800082101EB201000F00F00ADF8A6
:1044800000009DF8190001EB201000F00F00ADF8BE
:1044900002009DF81A0001EB201000F00F00ADF8AB
:1044A000040020684100BDF90000403091FBF0F0AD
:1044B00000B2ADF8100060684100BDF90200403064
:1044C00091FBF0F000B2ADF81200A0684100BDF918
:1044D0000400403091FBF0F000B2ADF81400D9496F
:1044E0004968087806AB06221146FEF773FF10B143
:1044F0004FF0FF30AEE79DF819009DF8181040EA24
:10450000012000B2ADF808009DF81B009DF81A10BC
:1045100040EA012000B2ADF80A009DF81D009DF8A8
:104520001C1040EA012000B2ADF80C00BDF81000EC
:10453000BDF80810084400B2ADF81000BDF8120034
:10454000BDF80A10084400B2ADF81200BDF814001E
:10455000BDF80C10084400B2ADF81400BDF810000E
:10456000000A8DF81800BDF81000C0B28DF81900CF
:10457000BDF81200000A8DF81A00BDF81200C0B292
:104580008DF81B00BDF81400000A8DF81C00BDF862
:104590001400C0B28DF81D00AA494968087806AB1E
:1045A00006221146FEF7CBFF10B14FF0FF3051E766
:1045B00000204FE70146A348007A30B1012807D018
:1045C000022809D003280FD10AE0FA2008800EE063
:1045D0004FF4FA7008800AE04FF47A70088006E021
:1045E0004FF4FA60088002E00020088000BF00BF9E
:1045F0000020704701469348407A30B1012807D027
:10460000022808D003280CD108E0022008700BE033
:104610000420087008E00820087005E010200870E9
:1046200002E04FF0FF30704700BF8648C07C18B1F1
:1046300008784006000E08700020F4E70146814823
:10464000C07A082817D2DFE800F01704070A0D1017
:104650001318BC20088013E06220088010E02A2094
:1046600008800DE0142008800AE00A20088007E096
:104670000520088004E000BF00BF0020088000BFC4
:1046800000BF0020704701466E4890F8240010B12A
:104690004FF0FF3070476B48C08908800020F9E771
:1046A000014600200880401E704701464FF0FF3051
:1046B000704701466348007A30B1012807D00228CC
:1046C00008D003280CD108E05F4808600BE05F4881
:1046D000086008E05E48086005E05E48086002E0A7
:1046E0004FF0FF30704700BF0020FBE70146554800
:1046F000407A30B1012808D002280AD0032810D10E
:104700000BE04FF4804008800EE041F69C7008807A
:104710000AE04FF48050088006E04FF40060088003
:1047200002E04FF0FF30704700BF4648C07C10B138
:104730000888401008800020F5E701464148007CC9
:1047400008700020704701463E48807A10B1012071
:10475000087001E0002008700020704738B504465A
:104760003848807A10B94FF0FF3038BD354A1268AA
:10477000117C344A526810786B460222FEF72AFEFA
:1047800010B14FF0FF30F0E79DF801009DF80010E8
:1047900040EA012000B220800020E6E72DE9FE4F2C
:1047A0000746884692461D46DDF830B000260024B4
:1047B000244890F8240010B1601EBDE8FE8F002050
:1047C00028702048807A10B94FF0FF30F5E71D4877
:1047D000007C10B94FF0FF30EFE71A48007C00F082
:1047E000400008B1B01CC6B21648007C00F02000A2
:1047F00008B1B01CC6B21348007C00F0100008B12C
:10480000B01CC6B20F48007C00F0080008B1B01D13
:10481000C6B20C4A1268917A0A4A526810786B46FE
:104820000222FEF7D7FD10B14FF0FF30C5E79DF82B
:1048300001009DF8001040EA0129B1450CDA002082
:10484000BBE7000068030020000003430000834230
:104850003333034233338341FC4840684088B9EB2B
:10486000600F17DDF94A1268517CF84A52681078D7
:104870006B460122FEF7AEFD10B14FF0FF309CE712
:104880009DF8000000F0100020B1FFF785F96FF0EF
:10489000010092E75046FFF7E9FCEC4A1268D17A32
:1048A000EA4A526810786B463246FEF793FD10B123
:1048B0004FF0FF3081E799FBF6F0401E8BF80000C7
:1048C00000202870B4422AD0E048007C00F00800A4
:1048D00028B3601C1DF800001DF8041040EA0120F8
:1048E00000B2A8F80000E01C1DF80010A01C1DF884
:1048F000000041EA002000B2A8F80200601D1DF887
:104900000010201D1DF8000041EA002000B2A8F8A8
:104910000400287840F008002870A01D84B2B4423A
:1049200013D0CA48007C00F0400070B1601C1DF834
:1049300000001DF8041040EA012000B238802878F9
:1049400040F040002870A01C84B2B44213D0BF488D
:10495000007C00F0200070B1601C1DF800001DF804
:10496000041040EA012000B27880287840F020004E
:104970002870A01C84B2B44213D0B448007C00F06C
:10498000100070B1601C1DF800001DF8041040EA12
:10499000012000B2B880287840F010002870A01CD8
:1049A00084B2002009E7F8B504460F461646A7482A
:1049B00090F8240010B94FF0FF30F8BDA348807A7A
:1049C00010B94FF0FF30F8E7A04A1268917A9F4A79
:1049D000526810786B460222FEF7FCFC10B14FF0D3
:1049E000FF30EAE79DF801009DF8001040EA01253C
:1049F000A54203DA00203070401EDEE7934840688D
:104A00004088B5EB600F17DD904A1268517C8F4AE1
:104A1000526810786B460122FEF7DCFC10B14FF0B3
:104A2000FF30CAE79DF8000000F0100020B1FFF74A
:104A3000B3F86FF00100C0E7E2B2844B1B68D97A8B
:104A4000824B5B6818783B46FEF7C4FC10B14FF010
:104A5000FF30B2E795FBF4F0401E30700020ACE769
:104A600001467A4880F82210002070477CB5054640
:104A700076494968087801AB04220D21FEF7AAFCAB
:104A800008B107207CBD9DF80700C0F301109DF818
:104A9000041001F0E00140EAE1008DF800009DF80B
:104AA0000700C0F381009DF8051001F0E00140EA25
:104AB000E1008DF801009DF8070000F003009DF86B
:104AC000061001F0E00140EAE1008DF80200002448
:104AD0001CE01DF8040018B9002045F8240013E07C
:104AE0005B4845F8240006E055F82400594906F0D3
:104AF0003DFF45F824001DF80400401EC0B20DF82B
:104B000004000028F0D100BF601CC4B2032CE0DB1D
:104B10000020B7E72DE9FE4F06460F460025684600
:104B2000FFF7A4FF002442E056F8240057F82410B1
:104B3000A0EB010ABAF1000F01DB514601E0CAF116
:104B40000001084606F082FE83464FF08F4106F0D2
:104B50004BFD80465DF82400002106F007FE16D0CC
:104B60005DF82410404606F03FFD82464FF07E512E
:104B700007F034F8814629F0004A3748416A504628
:104B800006F0C0FF12D20120A04005430EE03248DB
:104B9000C169404606F0B6FE05D32F48016A40467B
:104BA00006F0B0FF02D20120A0400543641C032C94
:104BB000BADB2846BDE8FE8F2DE9FC5F06460F46AE
:104BC000002522494968087801AB03220D21FEF730
:104BD00001FC10B10720BDE8FC9F9DF8040000F027
:104BE0001F008DF804009DF8050000F01F008DF8EF
:104BF00005009DF8060000F01F008DF80600002457
:104C000062E056F8240057F82410A0EB010BBBF12A
:104C1000000F01DB594601E0CBF10001084606F028
:104C200015FE4FF08F41009006F0DEFC814601A892
:104C3000005DC0B30849086806F050FE8346594637
:104C4000064806F0D1FC80460FE000006803002013
:104C50007B14AE3E1D5A843F2CBE000800B04C456C
:104C6000FE49404606F082FE804601A8005D401ED7
:104C7000C0B201A908550028F2D14146484606F0C5
:104C8000B3FC83464FF07E5106F0A8FF82462AF01F
:104C9000004BF3488169584606F034FF13D20120D7
:104CA000A04005430FE0FFE7ED480169484606F0E4
:104CB00029FE05D3EA484169484606F023FF02D29F
:104CC0000120A0400543641C032C9ADB284682E7A0
:104CD0002DE9F04F87B005460C46914601208DF82E
:104CE000100000208DF81100DE4A1268917CDD4A28
:104CF0005268107804AB0222FEF721FC20B14FF07D
:104D0000FF3007B0BDE8F08FC82002F054FC00204F
:104D10008DF81000D34A1268D17BD24A52681078BD
:104D200004AB0122FEF70BFC10B14FF0FF30E8E7B7
:104D3000CC4A12685179CB4A5268107804AB0122F0
:104D4000FEF7FDFB10B14FF0FF30DAE7C54A1268FD
:104D5000917CC44A5268107804AB0122FEF7EFFB45
:104D600010B14FF0FF30CCE7BE4A1268D17DBD4A8A
:104D70005268107804AB0122FEF7E1FB10B14FF04E
:104D8000FF30BEE7B74A12681179B64A5268107808
:104D900004AB0122FEF7D3FB10B14FF0FF30B0E7B8
:104DA0000C208DF81000AF4A12681179AD4A526894
:104DB000107804AB0122FEF7C2FB10B14FF0FF30B8
:104DC0009FE70F2002F0F7FBA648806A407A8DF833
:104DD0001000A44A12689178A24A5268107804AB75
:104DE0000122FEF7ACFB10B14FF0FF3089E79D4880
:104DF000806A007A8DF810009A4A12685178994AB0
:104E00005268107804AB0122FEF799FB10B14FF005
:104E1000FF3076E7B9F1000F07D09248806A807AB8
:104E200040F0E0008DF8100004E08E48806A807A3F
:104E30008DF810008B4A126891798A4A526810786E
:104E400004AB0122FEF77BFB10B14FF0FF3058E7B7
:104E5000B9F1000F07D08348806AC07A40F0E000C3
:104E60008DF8100003E07E48C07A8DF810007D4A6E
:104E70001268D1797B4A5268107804AB0122FEF7A0
:104E80005EFB10B14FF0FF303BE7B9F1000F02D0ED
:104E9000C82002F090FB40208DF81000714A126883
:104EA0001179704A5268107804AB0122FEF747FB73
:104EB00010B14FF0FF3024E778208DF81000694AD8
:104EC00012685179674A5268107804AB0122FEF7E4
:104ED00036FB10B14FF0FF3013E76149888902F0CB
:104EE0006AFB00208DF810005E4A126851795D4A15
:104EF0005268107804AB0122FEF721FB10B14FF08D
:104F0000FF30FEE6574A1268917A564A5268107886
:104F100004AB0222FEF75EFA10B14FF0FF30F0E66C
:104F20009DF811009DF8101040EA012B0C209BFB0E
:104F3000F0F0C6B20020A86068602860A0606060E1
:104F40002060824665E0474A1268D17A454A526835
:104F5000107804AB0C22FEF73DFA10B14FF0FF3091
:104F6000CFE69DF811009DF8101040EA012000B234
:104F7000ADF808009DF813009DF8121040EA0120DA
:104F800000B2ADF80A009DF815009DF8141040EA33
:104F9000012000B2ADF80C00BDF9081020680844EB
:104FA0002060BDF90A10606808446060BDF90C100B
:104FB000A0680844A0609DF817009DF8161040EA0C
:104FC000012000B2ADF800009DF819009DF81810FE
:104FD00040EA012000B2ADF802009DF81B009DF8E8
:104FE0001A1040EA012000B2ADF80400BDF900102B
:104FF000286808442860BDF90210686808446860A1
:10500000BDF90410A8680844A8600AF1010000F086
:10501000FF0AB24597DB1248D0F800C02868C117D4
:10502000090441EA1041070462460023384604F0AF
:105030009CFA32460023CDE9020104F096FA28607A
:105040000748D0F800C06868C117090441EA104158
:10505000070462460023384606E0000054E3853F1B
:105060002CBE00086803002004F07FFA32460023BB
:10507000CDE9020104F079FA6860FE48D0F800C07A
:10508000A868C117090441EA1041070462460023D9
:10509000384604F06AFA32460023CDE9020104F0F2
:1050A00064FAA860F348D0F804C02168C817000467
:1050B00040EA11480F04624600233846414604F096
:1050C00054FA32460023CDE9020104F04EFA206082
:1050D000E848D0F804C06068C117090441EA1041EB
:1050E000070462460023384604F03FFA32460023A4
:1050F000CDE9020104F039FA6060DE48D0F804C05E
:10510000A068C117090441EA104107046246002360
:10511000384604F02AFA32460023CDE9020104F0B1
:1051200024FAA060A068002804DDA068A0F5803003
:10513000A06003E0A06800F58030A0600020E0E5FA
:1051400038B50446CC4890F82400A04201D1002094
:1051500038BD24B3C84890F8250010B94FF0FF308F
:10516000F6E70020FEF74CFB0020FEF771FCC24979
:10517000C88CFEF7DBFE00200090BF494968087824
:105180006B4601222321FEF7DAF90121BA4880F8A3
:1051900024100120FEF734FBFEF7FEFC13E0002094
:1051A000FEF72EFBB448007C0090B34949680878AC
:1051B0006B4601222321FEF7C2F90021AE4880F898
:1051C0002410FEF7E9FC0020C2E72DE9F04F8DB076
:1051D00083460F4602200C90A74890F8240020B187
:1051E0000020FFF7ADFF012600E0002603A8FFF72F
:1051F000E1F905A8FFF7FEF901A8FFF71FFA02A8D9
:10520000FFF741FA9C4890F80AA004A8FFF795FA26
:10521000002407E0002239465846FFF759FD00B93F
:1052200002E0641C022CF5DB00BF022C01D100253A
:1052300028E0002407E0012206A909A8FFF748FD9D
:1052400000B902E0641C022CF5DB00BF022C01D186
:10525000002517E006A93846FFF75CFC00F0FF08C0
:1052600009A95846FFF7A8FC00F0FF090025B9F18D
:10527000000F01D145F00105B8F1000F01D145F053
:10528000020500BFFF207C490872FF217A48417265
:10529000C1724FF6FF71C181FF218172017401213A
:1052A0000173BDF80C00FEF7CFFE9DF81400FEF769
:1052B00089FEBDF80400FEF78DFDBDF80800FEF77D
:1052C00035FE5046FEF75FFB9DF81000FEF74DFDE2
:1052D00016B10120FFF734FF28460DB0BDE8F08F6E
:1052E000F8B504460D46164616B94FF0FF30F8BD26
:1052F0006148807A10B94FF0FF30F8E720128DF83E
:105300000000E0B28DF801009DF8010028445A49E0
:1053100049684989884202DD4FF0FF30E7E7564A85
:105320001268117E544A526810786B460222FEF7CA
:1053300006F910B14FF0FF30D9E7EAB24E4B1B68C7
:10534000597D4D4B5B6818783346FEF7F8F810B17D
:105350004FF0FF30CBE70020C9E7F8B504460D4613
:10536000164616B94FF0FF30F8BD4348807A10B9A1
:105370004FF0FF30F8E720128DF80000E0B28DF812
:1053800001009DF8010028443B4949684989884249
:1053900002DD4FF0FF30E7E7374A1268117E364AE8
:1053A000526810786B460222FEF7C9F810B14FF030
:1053B000FF30D9E7EAB2304B1B68597D2E4B5B6852
:1053C00018783346FEF706F810B14FF0FF30CBE700
:1053D0000020C9E72DE9F04385B005460E4690460A
:1053E0009946254890F8250020B14FF0FF3005B0D0
:1053F000BDE8F08316B94FF0FF30F8E7002423E052
:10540000281B102801DD102000E0281B87B232196C
:1054100039462046FFF764FF10B14FF0FF30E6E752
:1054200001AA39462046FFF798FF10B14FF0FF3030
:10543000DDE730193A4601A904F0F4F910B16FF034
:105440000100D4E7E01984B2AC42D9DB4FEA28204E
:105450008DF8000008F0FF008DF80100064A126880
:10546000917E054A526810786B460222FEF767F873
:1054700038B103E02CBE0008680300204FF0FF3075
:10548000B5E70121FE4880F82510A0F826900020FD
:10549000ADE70146FA4890F82400087000207047F4
:1054A0004FF0FF30704702464FF0FF307047014623
:1054B0004FF0FF307047F8B505460F461446002CF4
:1054C00070D0B5F5FF5F01DDFF2605E0202D01DA84
:1054D000012601E0C5F3471607B90127282C02DD94
:1054E0004FF0FF30F8BDE648407D28BBE44890F817
:1054F000240038B10020FFF723FE0121E04880F8A6
:10550000201003E00021DE4880F82010DC4816302F
:10551000FFF750F8DA481830FFF76CF8D8481A301F
:10552000FFF78CF8D6481C30FFF7ADF8D448817AE5
:1055300081771F30FFF701F90020FEF761F90020A5
:10554000FEF787FC00208DF80000CD4A12689178A4
:10555000CB4A526810786B460122FDF7F0FF10B17C
:105560004FF0FF30BEE740208DF80000C44A1268BB
:10557000D17BC34A526810786B460122FDF7DFFFEA
:1055800000B165E08DF800608DF80170BC4A1268CA
:10559000117ABB4A526810786B460222FDF7CFFFA2
:1055A00008B155E047E0052002F005F8B448407A1C
:1055B000072101EBC000C0B28DF80000B04A1268AC
:1055C000D179AF4A526810786B460122FDF7B7FFD8
:1055D00000B13DE020208DF80000012C03D1002017
:1055E0008DF801000EE0052C03DC01208DF8010090
:1055F00008E0142C03DC02208DF8010002E00320F7
:105600008DF801009DF80100072101EB8010C0B268
:105610008DF801009A4A1268917C994A5268107874
:105620006B460222FDF78BFF00B111E00121944887
:105630004175002056E7924A1632002103E0505C83
:1056400000B105E0491C0C29F9D34FF0FF3049E7C0
:10565000FF208B490872FF2189484172C1724FF6C1
:10566000FF71C181FF218172017401210173014623
:10567000887FFEF788F98249C88AFEF7E5FC8049F1
:10568000087EFEF79FFC7E49488BFEF7A3FB7C4912
:10569000888BFEF74BFC7A49C87FFEF766FB78489B
:1056A00090F8200010B10120FFF74AFD0021744856
:1056B0004175002016E770B588B002A905A8FFF76C
:1056C00084FD0446032C3ED101A8FEF7F2FF0598A5
:1056D00006F0BCF80646019906F048F9054606F0C2
:1056E00079F80590069806F0B1F80646019906F09B
:1056F0003DF9054606F06EF80690079806F0A6F804
:105700000646019906F032F9054606F063F807905F
:1057100005A800F054FA6846FEF7E8FFBDF800104F
:10572000029848430290BDF8001003984843039044
:10573000BDF8001004984843049002A800F0D2FA83
:10574000002008B070BD0120FBE7014691F9002060
:10575000002A01DD00201EE091F90020002A01DA74
:10576000042018E091F90120002A01DD012012E057
:1057700091F90120002A01DA05200CE091F90220BC
:10578000002A01DD022006E091F90220002A01DA58
:10579000062000E00720704710B504462046FFF7BA
:1057A000D4FF0346E01CFFF7D0FF43EAC00083B2FA
:1057B000A01DFFF7CAFF43EA801083B2184610BD50
:1057C00070B50024FDF7F9FEFEF780FC002840D1FB
:1057D0007820FEF7D8F8C4B20CB1012070BD782053
:1057E000FEF7C3FAC4B20CB10220F7E76420FEF75B
:1057F0009DFBC4B20CB10320F0E700F045F9C4B240
:105800000CB10420EAE71F48FFF7C6FF054600F089
:1058100045F9C4B20CB10520E0E740F2731000F086
:105820007EFDC4B20CB10620D8E7642000F0F0FA87
:10583000C4B20CB10720D1E7FFF73DFF04460CB11D
:105840000820CBE70120FFF77BFCC4B21CB1092084
:10585000C4E70A20C2E70020C0E72DE9F04F99B065
:1058600004460D4616464FF07E574FF000084FF0A5
:1058700000094FF0000A12A813A918AB0EAA03E002
:105880006803002094030020CDE9001014A916A895
:1058900000F0A4FE18B1012019B0BDE8F08FBDF8EA
:1058A0004C0000F4807000287ED00E9805F0CEFFEA
:1058B00083464FF09D4105F097FE07460F9805F08F
:1058C000C5FF83464FF09D4105F08EFE804610983F
:1058D00005F0BCFF83464FF09D4105F085FE8146F3
:1058E000119805F0B3FF83464FF09D4105F07CFE13
:1058F000824639464FF0804006F038F84946059018
:1059000006F034F8414607904FF0404006F02EF87C
:105910005146059006F02AF80690079905F0F0FD2B
:10592000834605F0C1FDCDE9080104F09BFA4FF074
:105930006632544BCDE90A0105F0DCFACDE90C01E1
:1059400004F0FCFF206049464FF0804006F00EF85E
:105950004946029006F00AF8414604904FF0404054
:1059600006F004F84146029006F000F8039004990E
:1059700006F034F983464FF07E5105F0C1FD0590E5
:1059800005F092FDCDE9080139464FF0804005F061
:10599000EDFF4146039005F0E9FF494604904FF0C2
:1059A000804005F0E3FF00E068E05146039005F019
:1059B000DDFF8346049905F0A3FD059005F074FD15
:1059C000CDE90601DDE9082304F094FC4FF06632CE
:1059D0002C4BCDE90A0105F08DFACDE90C0104F05C
:1059E000ADFF28605146504605F0C0FF494604907F
:1059F000484605F0BBFF41460390404605F0B6FF20
:105A000039460190384605F0B1FF0090019905F044
:105A100077FD0290039906F0E1F88346049906F0B9
:105A2000DDF8059005F040FDCDE908015146384606
:105A300005F09CFF49460490404605F097FF03900F
:105A4000049905F05DFD4FF08041059005F08EFF53
:105A5000834605F029FDCDE90601DDE9082304F0C0
:105A600049FC4FF06632074BCDE90A0105F042FAD6
:105A7000CDE90C0104F062FF306001E002200BE789
:105A8000002009E766A64C4010B5C8234FF4806299
:105A9000F74940F6F630FFF79DFC10BD10B586B013
:105AA0000446F4A000680390F3A000680290F3A0FD
:105AB00000680190F2A00068009004F0030003A9C0
:105AC000085C8DF8140003A8C4F3C101405C8DF894
:105AD000150003A8C4F38111405C8DF8160004F092
