:020000040800F2
:10000000D80C0020F57700084110000843100008C4
:1000100045100008491000084D10000800000000BD
:100020000000000000000000000000005110000867
:100030005310000800000000551000085710000879
:10004000052700080F7800080F7800080F780008CF
:100050000F7800080F7800080F7800080F78000864
:100060000F7800080F7800080F7800080F78000854
:100070000F7800080F7800080F7800080F78000844
:100080000F7800080F7800080F7800080F78000834
:100090000F7800080F7800080F7800080F78000824
:1000A0000F7800080F7800080F7800080F78000814
:1000B0000F7800080F780008A52300080F780008C3
:1000C0000F7800080F7800080F7800080F780008F4
:1000D0000F7800080F7800080F7800080F780008E4
:1000E0000F7800080F7800080F7800080F780008D4
:1000F0000F7800080F7800080F7800080F780008C4
:100100000F7800080F7800089B2200080F7800087D
:100110000F7800080F7800080F7800080F780008A3
:100120000F7800080F7800080F7800080F78000893
:1001300000F002F800F062F80AA090E8000C824497
:100140008344AAF10107DA4501D100F057F8AFF274
:10015000090EBAE80F0013F0010F18BFFB1A43F0A5
:100160000103184774C7000094C700000A444FF009
:10017000000C10F8013B13F0070408BF10F8014B06
:100180001D1108BF10F8015B641E05D010F8016B4B
:10019000641E01F8016BF9D113F0080F1EBF10F8AF
:1001A000014BAD1C0C1B09D16D1E58BF01F801CBD2
:1001B000FAD505E014F8016B01F8016B6D1EF9D555
:1001C0009142D6D37047000000230024002500266A
:1001D000103A28BF78C1FBD8520728BF30C148BFAA
:1001E0000B607047642909F0E380782909F01C81CD
:1001F000002070471FB51FBD10B510BD09F070FB82
:100200001146FFF7F7FF00F009F809F08EFB03B481
:10021000FFF7F2FF03BC07F0C5F800009AB000201A
:1002200018901790169010900F900E9000F089FF84
:100230004FF4A06008F082F807F04AF8472144F62E
:100240001F6002F067FA4FF4FA61FE4808F0CCFF35
:100250004FF4FA61FB4808F0C9FF4FF4FA61F9481E
:1002600008F0C6FF4FF4FA61F64808F0C3FF41F208
:10027000883007F06AF84FF47A71F24808F0B4FF5A
:100280004FF47A71EF4808F0B1FF4FF47A71ED48FE
:1002900008F0AEFF4FF47A71EA4808F0ABFF40F681
:1002A000B83007F052F802F01AFF05E0C82007F056
:1002B0004CF8C82007F049F805F044F90028F5D1BA
:1002C0004FF47A7007F041F802F046FD642007F021
:1002D0003CF802F085FA642007F037F802F090FA53
:1002E0004FF47A7007F031F847214FF6FF7001F0B4
:1002F000E4FF40F2CF21092001F0A2FF4FF49670F5
:1003000007F023F8D0480068D0490860ABE0D04A35
:10031000D049D14802F085FF00284DD1CE48B0F930
:1003200000000BF0D3F80890CC48016808980AF058
:1003300027FF09900AF0F8FE0022C94BCDE90A0117
:100340000AF018FCCDE90C010AF0C2F9C3490860B3
:10035000C048B0F900000BF0B9F80890C148016836
:1003600008980AF00DFF09900AF0DEFE0022BC4B4F
:10037000CDE90A010AF0FEFBCDE90C010AF0A8F96B
:10038000B8490860B248B0F900000BF09FF8089037
:10039000B548016808980AF0F3FE09900AF0C4FE17
:1003A0000022AF4BCDE90A010AF0E4FBCDE90C01D4
:1003B0000AF08EF9AC490860AC4AAD49AD4802F08C
:1003C00058FF00284FD1AB48B0F900000BF07EF881
:1003D0000890A948016808980AF0D2FE09900AF02E
:1003E000A3FE00229E4BCDE90A010AF0C3FBCDE932
:1003F0000C010AF06DF9A04908609D48B0F90000B1
:100400000BF064F808909D48016808980AF0B8FE5F
:1004100009900AF089FE0022914BCDE90A010AF009
:10042000A9FBCDE90C010AF053F9944908608F4803
:10043000B0F900000BF04AF808909148016808985C
:100440000AF09EFE09900AF06FFE0022844BCDE96F
:100450000A010AF08FFBCDE90C010AF039F988494D
:10046000086001F0C7FC794800680BF077F885490F
:100470000A900BF0BBF884490B900AF081FE0D90B6
:10048000714800680BF06AF87E490B900BF0AEF8EB
:100490000C900D990BF076F8FFF439AF6F480068B7
:1004A0000AF0D8FF00B2794908806E4800680AF067
:1004B000D1FF00B2754948806B4800680AF0CAFF56
:1004C00000B2724988806C4800680AF0C3FF00B22D
:1004D0006F490880694800680AF0BCFF00B26D49A6
:1004E00008806D4800680AF0B5FF00B26B490880CB
:1004F0000020119021E0642006F027FF02F009FAA5
:10050000674800680AF0E2FF0890664801680898AA
:100510000AF036FE09900AF007FE0022504BCDE9A2
:100520000A010AF027FBCDE90C010AF0D1F85D4978
:1005300008601198401CC0B2119011981428DADBA1
:10054000584800680AF086FF574908600846006866
:100550000AF0BCFF07900AF0E7FD0022534BCDE9FB
:1005600008010AF097F94FF0C042514BCDE90A015A
:100570000AF0E0F8CDE90C010AF0AAF84D4908604C
:10058000002011900AE0642006F0DFFE02F0DDF9A1
:1005900002F096FB1198401CC0B2119011981428DB
:1005A000F1DB454800684549086008460168424853
:1005B00000680AF059FE4249086002F097FA414883
:1005C000006841490860109818B1404806F0FCFEE8
:1005D00005E00F9818B14FF4E13006F0F5FE00F099
:1005E00031FE01203A49086000203A49C1F88801EB
:1005F000154800680AF0B2FF37490C900AF0F6FF80
:100600000D900AF043FF354908600F4800680AF072
:10061000A5FF33490C900AF0E9FF0D900AF036FF70
:1006200030490860084800680AF098FF2E490C908D
:100630000AF0DCFF0D900AF029FF2C4908600248FF
:10064000006855E00004004010000020A8000020D1
:100650004A000020480000204600002060000020E2
:100660000000E03F640000206800002044000020FB
:10067000420000204000002074000020780000208C
:100680007C0000206F12833A000040405A00002096
:100690006C0000206E000020A801002070000020E7
:1006A000B4000020C4000020BC000020000059401D
:1006B000661271404C01002018020020B800002092
:1006C00048010020AC0000205401002020A10700B8
:1006D000A001214200802242CDCCCC3D140000205C
:1006E000CDCC4C3D180000200AD7A33C1C000020B4
:1006F0000AF034FFFE490C900AF078FF0D900AF0E2
:10070000C5FEFC490860FC4800680AF027FFFB4969
:100710000C900AF06BFF0D900AF0B8FEF8490860E3
:10072000F54800680AF01AFFF6490C900AF05EFFDF
:100730000D900AF0ABFEF4490860EF4800680AF03B
:100740000DFFF2490C900AF051FF0D900AF09EFE49
:10075000EF490860E84800680AF000FFED490C9096
:100760000AF044FF0D900AF091FEEB490860EAE3BD
:10077000EA480068401C0AF0F1FE0D90DE4800686F
:100780000AF0ECFEE6490B900AF030FF0C900D9950
:100790000AF0F8FF7ED2D84800680AF0DFFEE04990
:1007A0000C900AF023FF0D900AF070FEDB49086000
:1007B000DC480068401CDB490860DB4ADB49DC4858
:1007C00002F057FD002856D101F014FBCA4800681A
:1007D000D8490968401A08900AF0C0FE09900AF04A
:1007E000A3FCD54AD54BCDE90A010AF0C3F9CDE9FE
:1007F0000C0109F06DFFD2490860BF480068CD497F
:100800000860CF4800680AF08FFCCDE90601CD48AA
:10081000B0F900000AF05AFE0090CB480168009839
:100820000BF012F801900AF07FFCC84AC84BCDE9E2
:1008300002010AF09FF9CDE90401DDE906230AF07F
:1008400099F9CDE90A01C34800680AF06DFCCDE9C9
:100850000801DDE90A2309F06DFFCDE90C0109F07B
:1008600037FFBC490860BC480168BA4800680AF014
:10087000F5FFBA490860BA4A911E881E02F0D1FC01
:1008800040B901F057F90E9820B101F05BFCB54872
:10089000006800E015E00D900AF0DCFD00B2B249FE
:1008A0000880B04840680D900AF0D4FD00B2AF490E
:1008B0000880AC4880680D900AF0CCFD00B2AC49CD
:1008C0000880AC480068401C0AF048FE0D908A4839
:1008D00000680AF043FEA8490B900AF087FE0C90CE
:1008E0000D990AF04FFF11D2834800680AF036FED6
:1008F000A1490C900AF07AFE0D900AF0C7FD9D49BF
:10090000086088484068401C864948609B480068E9
:10091000401C0AF023FE0D90774800680AF01EFE86
:1009200097490B900AF062FE0C900D990AF02AFF8D
:100930002ED2714800680AF011FE91490C900AF01D
:1009400055FE0D900AF0A2FD8C490860754880683C
:10095000401C744988608B4A8B498C4804F03FFEE8
:100960008B480168884800680AF078FF8949086068
:1009700089480168854800680AF070FF8749086067
:10098000874801687F4800680AF068FF8549086069
:1009900058480068401C0AF0E1FD0D905648006878
:1009A0000AF0DCFD52490B900AF020FE0C900D99E4
:1009B0000AF0E8FE7AD2504800680AF0CFFD4C49B0
:1009C0000C900AF013FE0D900AF060FD4949086092
:1009D0005448C068401C5349C860189800287DD00E
:1009E0007148006840F24C41884278D96E480088CE
:1009F00000B213906D48B0F9000040F2E351081ABC
:100A00006B490968884208D86848B0F9000000F2CC
:100A1000E35067490968884218D265480088A0F207
:100A2000E35000B2159015980AF050FD09900AF0B5
:100A30007BFB604A604BCDE90A010AF09BF8CDE9E7
:100A40000C0109F045FE5249086002E000205049BF
:100A500008605648B0F9000040F2E451081A5749BE
:100A60000968884208D85148B0F9000000F2E45003
:100A70005249096888421AD25048008840F2E4512D
:100A8000081A00B2149014980AF020FD09900AF098
:100A90004BFB484A484BCDE90A010AF06BF8CDE917
:100AA0000C0109F015FE3C49086003E016E1002046
:100AB000394908603D48B0F9000040F2E351081A96
:100AC0003F490968884208D83848B0F9000000F268
:100AD000E3503B490968884274D201E0BDE08BE0F5
:100AE0003748008840F2E351081A00B212906AE0D9
:100AF0000AD7233C20000020100000200AD7A33B87
:100B0000240000206F12033B280000206F12833A5C
:100B10002C00002017B7D13830000020140000202E
:100B2000CDCCCC3D6C0400204400002042000020CD
:100B300040000020980100202D431CEBE2361A3FB4
:100B40009401002070000020AC010020A9D08AB9D7
:100B5000B596433FB4010020B8010020BC0100203D
:100B60005000002060040020E0000020E20000208F
:100B7000E400002018000020CDCC4C3D1C000020DB
:100B80000AD7A33C3C00002034000020380000209D
:100B9000D4000020C8000020D8000020CC00002095
:100BA000DC000020D0000020080000208E00002083
:100BB00000000020F49FDA858B81A23F0400002012
:100BC0000C00002014E012980AF080FC09900AF052
:100BD000ABFADD4ADD4BCDE90A0109F0CBFFCDE9E7
:100BE0000C0109F075FDDA4908600020086012E088
:100BF0000020D74908600EE00020D6490880D64979
:100C00000880D6490880D649088000231A4619462C
:100C1000184600F053FBD348006840F24C4188422C
:100C200018D2D1480068884214D2169818B9CF4813
:100C3000008880B21690CD4801681698081A0828D6
:100C40003DD300201890CA4908600120C949C1F865
:100C5000A00134E00020169031E00020BD4908805A
:100C6000BD490880BD490880BD49088000231A4657
:100C70001946184600F022FBBA48006840F24C4181
:100C800088421AD2B848006840F26C71884214D980
:100C9000179818B9B548008880B21790B348016812
:100CA0001798081A05280AD301201890B04908603F
:100CB0000020B049C1F8A00101E000201790A94828
:100CC000006840F24C41884208D900F0B8FC00F0BE
:100CD00024FC01F0F6F9139800F022FBA648006806
:100CE000401C0AF03BFC0D90A44800680AF036FC5A
:100CF000A3490B900AF07AFC0C900D990AF042FD82
:100D000011D29E4800680AF029FC9D490C900AF017
:100D10006DFC0D900AF0BAFB97490860994800698C
:100D2000401C9849086198480068401C0AF016FC6D
:100D30000D90924800680AF011FC94490B900AF05B
:100D400055FC0C900D990AF01DFD7CD28B48006873
:100D50000AF004FC8D490C900AF048FC0D900AF052
:100D600095FB8949086087484069401C854948616E
:100D70001098002874D0864800680AF06BFB0D902C
:100D800000200090019083480D9B02688248016812
:100D90008248006805F0E3FC8148008880B2814900
:100DA000098889B2804A128892B2804B1B889BB214
:100DB000CDE90032CDE902107D48008880B20D9067
:100DC0007C48008880B20C907B48008880B20B90F1
:100DD0007A48008880B20A900BA90EC905F022FE5D
:100DE00000200290039004900590009001907448B8
:100DF000008880B20D907348008880B20C905A48E9
:100E0000008880B20B905748008880B20A900BA9E6
:100E10000EC905F09BFE00216548B0F90000654B46
:100E2000B3F90030CDE90301634802930591B0F9AD
:100E300000006249B1F90010CDE900105848B0F93E
:100E40000030584801E00CE00AE0B0F900205648B4
:100E5000B0F900105548B0F9000005F020FD00E0A1
:100E600000BF59480068401C0AF078FB0D904348C9
:100E700000680AF073FB55490B900AF0B7FB0C9021
:100E80000D990AF07FFC39D23C4800680AF066FBF5
:100E90004E490C900AF0AAFB0D900AF0F7FA4A4965
:100EA000086038488069401C3649886101F04DFD72
:100EB00001F006FF46480168464800680AF0D4F988
:100EC0004549086001F012FE2C4800684349096852
:100ED000401A0C900AF042FB3C490D900AF086FB48
:100EE0003F490860254800683C49086001F05CFE05
:100EF00006F0D3F9264800683A4908601B480068A4
:100F0000401C0AF02BFB0D901C4800680AF026FBE1
:100F100035490B900AF06AFB0C900D990AF032FCEF
:100F200011D2164800680AF019FB2F490C900AF0FC
:100F30005DFB0D900AF0AAFA0C4908601148C069DF
:100F4000401C1049C86113E4F49FDA858B81A23FED
:100F5000DC0000204C0200204E0200205002002045
:100F600052020020080000200C0000203000002069
:100F7000888122420000214224000020100000202D
:100F80000AD7A33B6C040020280000206F12033B0B
:100F9000AC0000203C00002038000020340000207D
:100FA000A6000020A4000020A2000020A000002035
:100FB0009E0000209C0000209A0000209800002045
:100FC00004000020000000202C0000206F12833A53
:100FD000B800002018020020480100206001002015
:100FE0005C0100205801002017B7D13800BF1A4813
:100FF00001684FF0E0208269174800688142F6D10D
:101000001648006800EB4003C3EBC010C2EBC00001
:10101000124B1B68B0FBF3F001EB4103C3EBC113B0
:1010200000EBC300704700B585B0684606F0B1FE1E
:101030000B490098B0FBF1F00849086005B000BD0D
:101040007047704700BFFEE700BFFEE700BFFEE746
:1010500070477047704770476C0200207002002094
:1010600040420F000CB50020019000906C480068D1
:1010700040F480306A49086000BF6948006800F4A5
:10108000003000900198401C0190009818B9019818
:10109000B0F5A06FF1D16248006800F4003010B1E3
:1010A0000120009001E0002000900098012843D129
:1010B0005C48006840F010005A4908600846006823
:1010C00020F0030008600846006840F00200086055
:1010D000534840685249486008464068486008469E
:1010E000406840F4806048600846406820F47C1006
:1010F00048600846406840F4E810486008460068C8
:1011000040F08070086000BF4548006800F0007043
:101110000028F9D04248406820F003004049486068
:101120000846406840F00200486000BF3C48406804
:1011300000F00C000828F9D10CBD10B5FFF792FFA4
:1011400010BD10B53648006840F001003449086011
:1011500008464068344908403149486008460068FC
:10116000324908402E4908600846006820F4802073
:1011700008600846406820F4FE0048604FF41F00F5
:101180008860FFF7DAFF4FF000602949086010BD62
:1011900010B5002100200022214B5B6803F00C01F8
:1011A00021B1042906D0082928D107E0214B224C7F
:1011B000236027E01F4B204C236023E0184B5B6823
:1011C00003F47010164B5B6803F48032022303EBC8
:1011D000904022B9194B4343174C23600DE0104B4C
:1011E0005B6803F4003323B1144B4343124C236078
:1011F00003E0104B4343104C236003E00D4B0E4CB7
:10120000236000BF00BF064B5B68C3F303130C4CA5
:10121000E15C094B1B68CB40074C236010BD00000C
:1012200000100240002002400000FFF8FFFFF6FE21
:1012300008ED00E000127A007402002000093D0071
:101240007802002008B50121242006F00FFE4FF49B
:101250008070ADF8000010208DF8030003208DF899
:1012600002006946094806F045FB4FF480710748C3
:1012700006F0EDFB0420ADF800006946044806F0D6
:1012800039FB0421024806F0E2FB08BD00080140DA
:101290000014014002468A4201DD084670471046AC
:1012A000FCE703469A4203DA8B4201DA184670479C
:1012B000994201DC0846FAE71046F8E730B5B0F588
:1012C000FA6F01DD4FF4FA60B1F5FA6F01DD4FF40A
:1012D000FA61B2F5FA6F01DD4FF4FA62B3F5FA6F15
:1012E00001DD4FF4FA63B0F57A7F01DA4FF47A70DA
:1012F000B1F57A7F01DA4FF47A71B2F57A7F01DACB
:101300004FF47A72B3F57A7F01DA4FF47A73FE4DB7
:1013100028802D1D29802D1D2A802D1D2B8030BD5C
:1013200070B5044640F2F4612046FFF7B3FF05466E
:101330006FF031023221F548B0F90000FFF7B1FF3C
:101340000544F34A5142F348B0F90000FFF7A9FF02
:1013500005446FF01D021E21EF48B0F90000FFF7B1
:10136000A0FF2E18ED4800680AF074F805B26FF07F
:101370001D021E212846FFF794FF0644E848006836
:101380000AF068F805B26FF01D021E212846FFF72B
:1013900088FF304400B2E349088040F2F4612046FF
:1013A000FFF778FF05466FF031023221DE48B0F9D1
:1013B0000000FFF776FF0544D54A5142DB48B0F9FB
:1013C0000000FFF76EFF05446FF01D021E21D84894
:1013D000B0F90000FFF765FF2E18D04800680AF04A
:1013E00039F805B26FF01D021E212846FFF759FF9C
:1013F0000644CB4800680AF02DF805B26FF01D02D4
:101400001E212846FFF74DFF304400B2C94908802D
:1014100040F2F4612046FFF73DFF05466FF03102D0
:101420003221C548B0F90000FFF73BFF0544B84A38
:101430005142C248B0F90000FFF733FF05446FF096
:101440001D021E21BE48B0F90000FFF72AFF2E182A
:10145000B248006809F0FEFF05B26FF01D021E21C0
:101460002846FFF71EFF0644AD48006809F0F2FF6A
:1014700005B26FF01D021E212846FFF712FF30440F
:1014800000B2B049088040F2F4612046FFF702FF45
:1014900005466FF031023221AB48B0F90000FFF78A
:1014A00000FF05449A4A5142A848B0F90000FFF7EE
:1014B000F8FE05446FF01D021E21A548B0F900009A
:1014C000FFF7EFFE2E189548006809F0C3FF05B23C
:1014D0006FF01D021E212846FFF7E3FE06449048E8
:1014E000006809F0B7FF05B26FF01D021E21284603
:1014F000FFF7D7FE304400B2964908800846B0F99D
:1015000000309048B0F900208A48B0F900108548B2
:10151000B0F90000FFF7D2FE70BD2DE9F0478E480C
:1015200001688E4800680AF061F806468C48016838
:101530008C4800680AF05AF880468B4801688B484E
:1015400000680AF053F80746414609F019FE0546BF
:10155000314609F015FE044609F07CFF00B26B49E4
:1015600008807D4801687D4800680AF03FF88046A1
:101570007B4801687B4800680AF038F881467B4860
:10158000006880F000477848016838460AF02EF875
:10159000064649460AF062F90546414609F0F0FD63
:1015A000044609F057FF00B25F4908806A480168A5
:1015B0006A4800680AF01AF8804669480168694874
:1015C00000680AF013F881466848006880F0004718
:1015D0006548016838460AF009F80646494609F0A8
:1015E000CFFD054641460AF039F9044609F032FFBD
:1015F00000B251490880584801685848006809F00D
:10160000F5FF0646564801685648006809F0EEFFA7
:101610000746554801685548006809F0E7FF8046CD
:1016200039460AF01BF9054631460AF017F9044617
:1016300009F010FF00B244490880BDE8F0872DE9A9
:10164000F0474B48B0F9000009F040FF0746494811
:101650000168384609F0CAFF05464748B0F900005E
:1016600009F034FF814645480168484609F0BEFF4D
:1016700007464348B0F9000009F028FF8146414879
:101680000168484609F0B2FF8046394609F078FD06
:101690000646294609F074FD044609F0DBFE00B257
:1016A0001C4908803248B0F9000009F00FFF0746D6
:1016B00030480168384609F099FF05462E48B0F9D0
:1016C000000009F003FF81462C480168484609F0F4
:1016D0008DFF07462A48B0F90000404209F0F6FEA7
:1016E000814628480168484609F080FF804639460F
:1016F0000AF0B4F80646294609F042FD044609F00E
:10170000A9FE00B209493FE03404004090000020E7
:10171000D4FEFFFF98000020A0000020440200201B
:10172000480200204C020020920000209A00002075
:10173000A20000204E020020940000209C00002007
:10174000A400002050020020960000209E000020EF
:10175000A600002052020020A4020020D000002099
:10176000A0020020CC0000209C020020C800002025
:10177000E4000020BC020020E2000020B8020020AB
:10178000E0000020B40200200880FE48B0F900000C
:1017900009F09CFE0746FC480168384609F026FF20
:1017A0000546FA48B0F9000009F090FE8146F84875
:1017B0000168484609F01AFF0746F648B0F90000EC
:1017C000404209F083FE8146F3480168484609F02B
:1017D0000DFF8046394609F0D3FC064629460AF03B
:1017E0003DF8044609F036FE00B2EC490880E548B1
:1017F000B0F9000009F06AFE0746E3480168384680
:1018000009F0F4FE0446E148B0F9000009F05EFE7C
:101810008146DF480168484609F0E8FE0746DD4892
:10182000B0F9000009F052FE8146DB4801684846E5
:1018300009F0DCFE804639460AF010F806462146DB
:101840000AF00CF8054609F005FE00B2D4490880FC
:10185000BDE8F0872DE9F041D249B1F900104942C5
:10186000D14AB2F900201144CC4AB2F90020891AB9
:10187000CB4AB2F900201144CC4AB2F90020891AAF
:10188000CB4AB2F900201144CA4AB2F90020891AA1
:10189000C94AB2F90020881809F018FE0746C7485F
:1018A0000168384609F0A2FE0546BE49B1F90010AC
:1018B0004942BD4AB2F900201144B84AB2F90020A9
:1018C0001144B74AB2F90020891AB84AB2F9002087
:1018D000891AB74AB2F900201144B64AB2F9002079
:1018E0001144B54AB2F90020881A09F0EFFD074605
:1018F000B3480168384609F079FE0646294609F0E2
:101900003FFC044609F0A6FD00B2AE490880A54997
:10191000B1F900104942A44AB2F9002011449F4A8B
:10192000B2F90020891A9E4AB2F9002011449F4A58
:10193000B2F90020891A9E4AB2F9002011449D4A4A
:10194000B2F90020891A9C4AB2F90020881809F0DF
:10195000BDFD074699480168384609F047FE05462F
:101960009049B1F9001049428F4AB2F90020114460
:101970008A4AB2F900201144894AB2F90020891A32
:101980008A4AB2F90020891A894AB2F90020114422
:10199000884AB2F900201144874AB2F90020501A4F
:1019A00009F094FD074686480168384609F01EFE96
:1019B0000646294609F052FF044609F04BFD00B2E5
:1019C000814908807749B1F900104942764AB2F955
:1019D00000201144714AB2F90020891A704AB2F904
:1019E00000201144714AB2F90020891A704AB2F9F4
:1019F000002011446F4AB2F90020891A6E4AB2F9E8
:101A00000020881809F062FD07466C4801683846D6
:101A100009F0ECFD05466349B1F900104942624AFC
:101A2000B2F9002011445D4AB2F9002011445C4A29
:101A3000B2F90020891A5D4AB2F90020891A5C4A7D
:101A4000B2F9002011445B4AB2F9002011445A4A0D
:101A5000B2F90020501A09F039FD074658480168CC
:101A6000384609F0C3FD0646294609F089FB0446BD
:101A700009F0F0FC00B2554908804A49B1F900105C
:101A80004942494AB2F900201144444AB2F90020BF
:101A9000891A434AB2F900201144444AB2F900209D
:101AA000891A434AB2F900201144424AB2F900208F
:101AB000891A414AB2F90020881809F007FD074643
:101AC0003E480168384609F091FD05463549B1F9AF
:101AD00000104942344AB2F9002011442F4AB2F9A9
:101AE000002011442E4AB2F90020891A2F4AB2F977
:101AF0000020891A2E4AB2F9002011442D4AB2F969
:101B0000002011442C4AB2F90020881A09F0DEFCAA
:101B100007462B480168384609F068FD0646294605
:101B200009F09CFE044609F095FC00B228490880A3
:101B3000BDE8F08170B5002100220023254C2488E7
:101B4000254D2D88641B24B2244D254E367825F86A
:101B50001640204C6488204D6D88641B24B2214DB2
:101B60001F4E367825F816401A4CA4881A4DAD88B9
:101B7000641B25B21C4C1A4E367824F816500020EF
:101B800042E00000E4000020BC020020E20000204F
:101B9000B8020020E0000020B40200209C000020D9
:101BA0009E000020980000209A0000209000002055
:101BB000920000209400002096000020D002002017
:101BC000CC020020A0000020A2000020A4000020E1
:101BD000A60000204C0000205A00002094040020A1
:101BE000E8020020A0040020AC040020FE4C34F9E0
:101BF00010402144FD4C34F910402244FC4C34F98F
:101C000010402344441CE0B20628EFDB062491FB7D
:101C1000F4F424B2F74D2C80062492FBF4F424B2A1
:101C2000F54D2C80062493FBF4F424B2F34D2C8064
:101C3000F34C2478641CF24D2C702C462478062C2E
:101C400001D100242C7070BD10B50021ED4AB2F90D
:101C50000020ED4BED4C247823F81420002005E003
:101C6000E94A32F910201144421CD0B20628F7DBB1
:101C7000062291FBF2F212B2E54B1A80E34A127887
:101C8000521CE24B1A701A461278062A01D1002221
:101C90001A7010BD2DE9F041002500260027DD480F
:101CA000006809F0D7FB00B2DB49DC4A127821F862
:101CB0001200DB48006809F0CDFB00B2D949D74AD1
:101CC000127821F81200D848006809F0C3FB00B26E
:101CD000D649D24A127821F8120000240DE0CE48ED
:101CE00030F914000544CF4830F914000644CF48B9
:101CF00030F914000744601CC4B2062CEFDB062048
:101D000095FBF0F8404609F0E1FBC9490860062060
:101D100096FBF0F8404609F0D9FBC649086006205A
:101D200097FBF0F8404609F0D1FBC3490860BB4877
:101D30000078401CB949087008460078062801D18F
:101D400000200870BDE8F0812DE9F04F89B083468E
:101D50008A46504609F0E8F98046B84AB84B08F080
:101D600009FF02460B46CDE900010020B54908F005
:101D700091FD06460F46584609F0D6F932463B46D5
:101D8000CDE9020108F0D6FCCDE90601584609F07C
:101D9000CBF9CDE90401DDE9062308F07BFD04461B
:101DA00008F096FCA849086009B0BDE8F08F2DE95D
:101DB000F0419449B1F90010954AB2F90020881A0F
:101DC00009F084FB0746A0480168384609F00EFC7C
:101DD00005468F48B0F9000009F078FB0646294611
:101DE00009F0CEF9044609F035FB00B288490880B5
:101DF000BDE8F08170B59548006895490860954840
:101E000001689548006809F0BBF993490860934858
:101E100001689148006809F0B3F9044621468E48EC
:101E2000006809F021FA8E4908607648B0F9000090
:101E300009F04CFB064686480168304609F00EFD65
:101E4000054687480168284609F0D0FB04468048CB
:101E50000168204609F094F97C49086080480168CF
:101E60004FF07E5009F0FAFC04467B48016820469A
:101E700009F0BCFB7849086070BD70B5794800680E
:101E800079490860794801687948006809F078F96B
:101E900077490860774801687548006809F070F96B
:101EA000044621467248006809F0DEF9724908606C
:101EB0007248B0F9000009F009FB06466A4801685B
:101EC000304609F0CBFC05466B480168284609F00E
:101ED0008DFB044664480168204609F051F96149C8
:101EE0000860654801684FF07E5009F0B7FC044671
:101EF0005F480168204609F079FB5D49086070BDC4
:101F000070B55F4800685F4908605F4801685F48D6
:101F1000006809F035F95D4908605D4801685B4873
:101F2000006809F02DF9044621465848006809F078
:101F30009BF9584908605848B0F9000009F0C6FA02
:101F4000064650480168304609F088FC054651486D
:101F50000168284609F04AFB04464A4801682046C1
:101F600009F00EF9464908604A4801684FF07E5072
:101F700009F074FC044645480168204609F036FB28
:101F80004249086070BD2DE9F0414448008840F2A4
:101F9000DC51884201DD012000E0002040F20E61AA
:101FA00088421FDA3E48B0F9000009F08FFA074670
:101FB00027480168384609F047FC06463948016859
:101FC000304609F013FB04463748006880F00046AD
:101FD00036480168304609F009FB0546214609F0FC
:101FE0003DFC65E068E0000094040020A0040020AF
:101FF000AC040020E0000020E2000020E40000200B
:10200000E802002044000020B8040020E90200207B
:10201000E600002054020020C4040020EA02002050
:1020200058020020D00400205C020020DC040020C4
:1020300060020020640200206802002097D17E5ACE
:10204000FB2119400000F03FE8000020A80100201B
:10205000AC010020A0010020B00100209C01002064
:10206000A4010020D4010020D8010020CC010020D0
:10207000DC010020C8010020D00100204200002027
:10208000F4010020F8010020EC010020FC010020F8
:10209000E8010020F001002040000020080000209E
:1020A00070000020E4020020E0020020BC010020BB
:1020B0005449086000200860002052490860BDE8CB
:1020C000F0812DE9FE4F50490988A1F57A7009F099
:1020D000FDF902904D48006809F026F807464C4A81
:1020E0004C4B08F047FD054608F0F2FA834608F02D
:1020F0008BF800904848006809F016F80746444AF3
:10210000444B08F037FD054608F0E2FA834608F034
:102110007BF80446009909F069FA81463A49098832
:10212000A1F57A7009F0D2F94946019009F09CF8BE
:102130008246029909F092FB384908600020086045
:10214000BDE8FE8F2DE9F041002400BF56E0344881
:1021500050F82400334941F82400334A52F824103F
:10216000324A52F8240009F00BF8304941F82400B3
:102170002F4A52F824102D4A52F8240009F000F892
:1021800005462A4951F82400294609F06DF82949E5
:1021900041F82400284931F91410284A32F9142052
:1021A000881A09F093F907461E4850F8241038465B
:1021B00009F054FB06461F4850F82410304609F039
:1021C00015FA0546174850F82410284608F0D8FF9D
:1021D000134941F82400174850F824104FF07E505E
:1021E00009F03CFB0546114850F82410284609F038
:1021F000FDF90E4941F82400601CC4B2032CA6DB93
:10220000BDE8F0814402002008000020D800002032
:102210005F40D42247DF913FD400002048020020D5
:1022200054040020600400202C020020380200200A
:1022300020020020480400204C0000205A0000200A
:102240007FB505460C460121082005F01CFEADF8BF
:102250000850ADF804400020ADF80A00ADF80600C3
:1022600001A9EA4806F0CCF901221146E74806F038
:102270003EFD32208DF8000001208DF80100002085
:102280008DF8020001208DF80300684606F05BF827
:102290000121DE4806F010FD7FBD10B50121DB48AD
:1022A00006F0D3FF40B10121D84806F0DFFFD8483F
:1022B0000068401CD649086010BD30B585B00546A1
:1022C0000C460121042005F0DEFD0121082005F067
:1022D000CDFD4FF47070ADF8100028208DF813007C
:1022E00004A9CC4805F006FB4FF47071C94805F00D
:1022F000B0FBADF80850ADF804400020ADF80A007E
:10230000ADF8060001A9C44806F07AF90020C349D7
:1023100008804880012088800020C8800881BE484D
:1023200006F001FC0420BD490880002048800120FF
:1023300088800020C8800881B74806F0F4FB082098
:10234000B649088000204880012088800020C8808D
:102350000881B14806F0E7FB0C20B0490880002056
:102360004880012088800020C8800881AA4806F0A3
:10237000DAFB1E208DF8000000208DF801008DF89A
:10238000020001208DF80300684605F0DCFF012201
:102390001E21A14806F0ABFC01219F4806F08CFCF1
:1023A00005B030BD10B59E48007800F080000028D0
:1023B00046D10221984806F048FF002840D002216B
:1023C000954806F053FF9648007800F0400040B36F
:1023D000914806F01BFF93490880084600889249FF
:1023E0000988884204DA4FF6FF709049086002E0DD
:1023F00000208E4908608B4800888B490988401A64
:102400008A49096808448A49086008460068894979
:10241000086000208249087000217F4806F0FEFD18
:102420000EE07D4806F0F2FE7F4908807C48007887
:1024300040F040007A4908700221774806F0EEFD2E
:102440007D48007800F08000002846D104217248C1
:1024500006F0FBFE002840D004216F4806F006FF7E
:102460007548007800F0400040B36B4806F0D1FE9C
:10247000724908800846008871490988884204DA50
:102480004FF6FF706F49086002E000206D49086058
:102490006A4800886A490988401A6A4909680844F4
:1024A0006949086008460068684908600020624978
:1024B00008700021584806F0C3FD0EE0564806F0AB
:1024C000A8FE5F4908805C48007840F040005A4907
:1024D00008700221504806F0B3FD5D48007800F016
:1024E0008000002845D108214B4806F0AEFE80B39D
:1024F0000821494806F0BAFE5548007800F040002F
:1025000040B3454806F088FE5249088008460088D6
:1025100051490988884204DA4FF6FF704F49086034
:1025200002E000204D4908604A4800884A4909886D
:10253000401A4A4909680844494908600846006841
:10254000484908600020424908700021324806F0DE
:1025500091FD0EE0304806F05FFE3F4908803C48A0
:10256000007840F040003A49087002212A4806F0FD
:1025700081FD3D48007800F08000A8BB102126486E
:1025800006F063FE80B31021234806F06FFE364844
:10259000007800F0400040B31F4806F040FE334989
:1025A00008800846008832490988884204DA4FF6D4
:1025B000FF703049086002E000202E4908602B4877
:1025C00000882B490988401A2A49096808442A4981
:1025D0000860084600682949086000202249087000
:1025E00000210D4806F060FD0EE00B4806F017FED6
:1025F0001F4908801C48007840F040001A490870C4
:102600000221054806F050FD10BD0000000C0040FE
:1026100010000020000C014000080040E8040020E9
:10262000EC020020F0020020EE0200201403002043
:102630000403002000000020F2020020F602002027
:10264000F4020020180300200803002004000020EA
:10265000F8020020FC020020FA0200201C030020E7
:102660000C03002008000020FE02002002030020CE
:102670000003002020030020100300200C00002095
:1026800070B505460C4645F2555005F0C5FE284686
:1026900005F0C5FE204605F0C5FE05F0C6FE05F0B6
:1026A000C9FE70BD10B505F0C0FE10BD08B5002014
:1026B0008DF8000002208DF8010003208DF8020043
:1026C000684605F040FE08BD70B506460C46154646
:1026D0000121C80205F0D7FB284606F0D6FD2046AA
:1026E00006F0DCFD304606F0F4FD06F0FDFDFFF7D8
:1026F000DDFF06F0E4FD70BD10B50446204606F08F
:10270000E8FD10BD10B57F2006F0DDFD06F0ECFD04
:1027100010BD000030B589B005460C4601210220ED
:1027200005F0B1FB0121112005F0A0FB0121294892
:1027300005F0B1F94FF47070ADF8200018208DF855
:10274000230003208DF8220008A9234805F0D2F8C1
:10275000ADF81850ADF814400020ADF81A00ADF8EF
:10276000160005A91D4805F04BFF6020ADF80400D8
:102770000120ADF806000020ADF80A00ADF80C000D
:1027800001A9164805F079FF0821144806F0C4FB9A
:1027900001A9124805F0B3FF0821104806F0C5FB57
:1027A00001A90E4805F0F8FF08210C4806F0CAFB05
:1027B00001A90A4806F03BF80821084806F0CBFBBF
:1027C0000121064806F078FB0121044806F074FA5E
:1027D00009B030BD000C1A00001001400004004098
:1027E00010B500F0D3FAEE2000F088FB00F013FBE8
:1027F0001E2000F083FB00F00EFB00F0EBFA10BD92
:1028000070B5012433E000F0C1FAEE2000F076FB51
:1028100000F001FBA02101EB4401C8B200F06EFB07
:1028200000F0F9FA00F0D6FA052004F06AFD00F095
:10283000ADFAEF2000F062FB012004F062FD00F031
:10284000EAFA012000F089FB0546012004F059FD59
:10285000002000F082FB064600F0BCFA052004F0E0
:1028600074FD46EA0520F64921F81400641C062C84
:10287000C9DDF348008808B9012070BD0020FCE7DD
:1028800038B50446002500F081FAEE2000F036FB52
:1028900000F0C1FA204600F031FB00F0BCFA00F075
:1028A00099FA092004F051FD642004F02AFD00F09B
:1028B0006DFAEE2000F022FB00F0ADFA002000F0EF
:1028C0001DFB00F0A8FA00F085FA00F05FFAEF2097
:1028D00000F014FB00F09FFA012000F03EFB8DF8A1
:1028E0000000012000F039FB8DF80100002000F00D
:1028F00034FB8DF8020000F06DFA9DF80000010431
:102900009DF8010001EB00209DF8021045182846B3
:1029100038BD10B55820FFF7B3FFCA49086005203D
:1029200004F0EFFCC6484089C6490968A1EB0020C5
:10293000C5490860C2488089096848434FF4FA6174
:1029400001EBD050C149086010BD2DE9F04148208D
:10295000FFF796FFBE490860052004F0D2FCB84896
:1029600080880104B6480089B74A1268504301EBD9
:10297000D0100021B74A03C2B1484088C103B04813
:10298000C088B14A1268504301EB10200021B24ABE
:1029900003C2AF480068083A18CAA0FB032501FB30
:1029A000035100FB0411500D40EAC1234815A94909
:1029B000D1E900219A1A60EB0100410441EAD230CA
:1029C000A6490860A1480068B0F5FA6F46DA9E484B
:1029D00000684043C017C117A14A03C29B48006862
:1029E000A0F5FA604043401000EB8000C1179D4AFB
:1029F00003C296480068A0F5FA604043801000EBDF
:102A00008000C117984A03C29048006897498842DD
:102A10002FDA8E48006800F2DC50C0EBC0008B4912
:102A2000096801F2DC514843C1178E4AD2E90032ED
:102A3000C01851418B4A03C28448006800F2DC5040
:102A40004043401000EB400101EBC000C117864B32
:102A50000CCB80185941844A03C20AE00021804A05
:102A60001160516000207F4A106050607E4A116002
:102A70005160764800687A490968401A73490860CD
:102A80007448D0E900207749D1E90031D21A60EBCF
:102A900001007049C1E900206F48D0E90030724957
:102AA000D1E900219A1A60EB01006B49C1E90020CD
:102AB00067480068002550C9A0FB041705FB047493
:102AC00000FB0644480D40EAC4256015614C12CC59
:102AD0006D1A60EB0401E80B40EA4142C91310464D
:102AE00008F00FFD62490860BDE8F0812DE9F04172
:102AF0006048006807F0FEFC80465F4908F076FDFC
:102B0000064607F03FFC05464FF07E5108F09CFE5C
:102B100004465A4801685A4808F068FD07462146AD
:102B200008F064FD57490860BDE8F08170B556486B
:102B3000006856490860564801685648006808F021
:102B40001FFB54490860544801685248006808F067
:102B500017FB044621464F48006808F085FB4F49A3
:102B600008604A4801684748006808F077FE054653
:102B70004A480168284608F039FD04464348016880
:102B8000204608F0FDFA40490860444801684FF0CB
:102B90007E5008F063FE04463E480168204608F077
:102BA00025FD3C49086070BD2DE9F0413C480068B6
:102BB0003C4908603C4801683C48006808F0E0FA7D
:102BC0003A4908603A4801683848006808F0D8FA7D
:102BD000044621463548006808F046FB3549086040
:102BE000354801682748006808F038FE0746334832
:102BF0000168384608F038FB06462A480168304626
:102C000008F02CFE05462B480168284608F0EEFC2B
:102C1000044624480168204608F0B2FA20490860BA
:102C2000244801684FF07E5008F018FE04461F4803
:102C30000168204608F0DAFC1C490860BDE8F08114
:102C4000C0030020FC00002000010020B400002090
:102C5000F8000020F00000201001002018010020E2
:102C600028010020380100204001002024FAFFFF45
:102C7000B00000204801002041D3423E4C0100201A
:102C8000A1D81943AC00002070010020740100207D
:102C90006801002078010020640100206C01002000
:102CA000880100208C01002080010020900100207C
:102CB0007C01002084010020580100205C010020DC
:102CC00070B51E4800681E4908601E4801681E480D
:102CD000006808F055FA1C4908601C4801681A4849
:102CE000006808F04DFA044621461748006808F0CD
:102CF000BBFA17490860124801681648006808F0D6
:102D0000ADFD054612480168284608F06FFC0446F0
:102D10000B480168204608F033FA084908600C485F
:102D200001684FF07E5008F099FD0446064801689E
:102D3000204608F05BFC0449086070BD14020020C6
:102D4000180200200C0200201C02002008020020B3
:102D500010020020B000002008B50121042005F079
:102D600085F84FF4C050ADF8000010208DF8030036
:102D700003208DF802006946914804F0BBFD012054
:102D8000904908609049C1F8AC0108BD10B58C4865
:102D9000001D006820F470408949091D086008463C
:102DA000006840F44050086001208649091F08600F
:102DB0008549C1F8B001042004F0A3FA002081493C
:102DC000091F0860042004F09CFA00207E49C1F825
:102DD000B00110BD10B57A48001D006820F47040A5
:102DE0007749091D08600846006840F440500860B3
:102DF0000020744908607449C1F8AC01042004F053
:102E000080FA01206F4908606F49C1F8AC010420C5
:102E100004F077FA10BD10B500246948001D006861
:102E200020F470406649091D08600846006840F4B7
:102E30000040086001206349091F086004F061FA3E
:102E400001206149C1F8B00104F05BFA07E0601CA1
:102E5000C4B2FA2C03DDFFF7BDFF012010BD5948B5
:102E6000843800680028F2D15649086000BFF5E7B1
:102E700010B50020534908605148001D006820F437
:102E800070404F49091D08600846006840F44050F2
:102E9000086000204C49C1F8AC01022004F031FA6E
:102EA000012048490860022004F02BFA002046491E
:102EB000C1F8B00110BD10B500204249086040487B
:102EC000001D006820F470403D49091D0860084657
:102ED000006840F44050086001203B49C1F8AC0153
:102EE000022004F00EFA012036490860022004F0A6
:102EF00008FA00203449C1F8B00110BD70B504468D
:102F00002F48001D006820F470402D49091D0860FD
:102F10000846006840F440500860002029490860D5
:102F2000002517E0E0092749091F08606006040E24
:102F3000022004F0E6F901202349C1F8B001022083
:102F400004F0DFF900201F490860022004F0D9F9DD
:102F5000681CC5B2082DE5DB70BD70B505460024C0
:102F60001748001D006820F470401549091D0860CD
:102F70000846006840F400400860002616E0002083
:102F800010490860022004F0BCF901200E49C1F884
:102F9000B0016006040E0B488438006808B1601C5C
:102FA000C4B2012004F0ADF9701CC6B2082EE6DBF5
:102FB00015B9FFF780FF01E0FFF75AFF204670BD0B
:102FC00000080140B00121420000214270B50546D1
:102FD0000C4600F0CDF9D02000F074FA00F005FAAC
:102FE00018B100F0E3F9012070BD284600F06AFA3C
:102FF00000F0FBF9204600F065FA00F0F6F918B190
:1030000000F0D4F90120EFE700F0D0F90020EBE761
:1030100070B504460025BC2C01DB012510E0622CB4
:1030200001DB02250CE02A2C01DB032508E0142C2F
:1030300001DB042504E00A2C01DB052500E0062560
:1030400029461A20FFF7C2FF70BD70B50446B4F5DB
:103050007A7F01DD4FF47A74042C00DA04244FF4F3
:103060007A7090FBF4F0401EC5B229461920FFF794
:10307000ADFF0546264604EBD671C1F34F00FFF7BE
:10308000C7FF70BD70B5044600F072F9D02000F0A3
:1030900019FA00F0AAF9204600F014FA00F0A5F998
:1030A00000F066F9D12000F00DFA00F09EF9002042
:1030B00000F031FA054600F079F9284670BD10B5E8
:1030C0000446E006010E1C20FFF780FF10BD10B57E
:1030D0000446E006010E1B20FFF778FF10BD10B577
:1030E00000F02DF980216B20FFF770FF642004F0C1
:1030F0002CF900216B20FFF769FF0320FFF7E7FFA2
:103100000020FFF7DCFF3220FFF79FFF002138206F
:10311000FFF75CFF00216A20FFF758FF0021232002
:10312000FFF754FF80213720FFF750FF7520FFF78E
:10313000A9FF0446682C0BD101216B20FFF746FF45
:1031400000216C20FFF742FF3220FFF77EFF01E0F5
:10315000012010BD0020FCE72DE9F04106460F4696
:1031600014461D4600F004F9002141EA4601C8B2A8
:1031700000F0A8F900F039F920B100F017F90120AA
:10318000BDE8F081384600F09DF900F02EF900F01E
:10319000EFF8012101EB4601C8B200F093F900F00D
:1031A00024F90DE0012C04D1002000F0B4F92870BE
:1031B00003E0012000F0AFF92870601EC4B26D1C5E
:1031C000002CEFD100F0F2F80020D9E72DE9F84FFC
:1031D0006B46022241216820FFF7BEFF9DF80100E7
:1031E0009DF8001040EA01200FFA80FA504607F0DF
:1031F000A9FC804600224B4B07F04CFB06464A4A8E
:103200004A4B07F097FA044607F062FA83464849AA
:10321000584608F0EBF9044608F01CF900B2BDE886
:10322000F88F2DE9FC4104460D4616466B460622F2
:1032300043216820FFF790FF0746BFB99DF80100C2
:103240009DF8001040EA012000B220809DF80300A4
:103250009DF8021040EA012000B228809DF8050088
:103260009DF8041040EA012000B230803846BDE8E5
:10327000FC812DE9FC4104460D4616466B460622AC
:103280003B216820FFF768FF0746BFB99DF80100A2
:103290009DF8001040EA012000B220809DF8030054
:1032A0009DF8021040EA012000B228809DF8050038
:1032B0009DF8041040EA012000B230803846BDE895
:1032C000FC812DE9F04105460E461746984600F070
:1032D0004FF8002141EA4501C8B200F0F3F800F0D0
:1032E00084F820B100F062F80120BDE8F08130469A
:1032F00000F0E8F800F079F800240CE018F8040079
:1033000000F0E0F800F071F818B100F04FF801207B
:10331000EBE7601CC4B2BC42F0DB00F047F80020D1
:10332000E3E7000000407540A4703D0AD7434240E7
:103330000000C84210B5022003F0E3FF10BD08B53D
:103340000121102004F092FD4FF4C050ADF80000B0
:1033500010208DF8030003208DF80200694686488E
:1033600004F0C8FA4FF4C051834804F070FB08BD64
:1033700010B58148406820F470407F494860084695
:10338000406840F44050486001207C4908607C4916
:10339000C1F8B001FFF7CEFF002078490860FFF7C1
:1033A000C9FF00207649C1F8B00110BD10B57248C0
:1033B000406820F47040704948600846406840F416
:1033C0004050486000206D49091D08606C49C1F8F3
:1033D000AC01FFF7AFFF01206849091D086068498B
:1033E000C1F8AC01FFF7A6FF10BD10B5002462487C
:1033F000406820F47040604948600846406840F4E6
:103400000040486001205D490860FFF793FF0120FC
:103410005B49C1F8B001FFF78DFF07E0601CC4B243
:10342000FA2C03DDFFF7C2FF012010BD534880389E
:1034300000680028F2D15149091D086000BFF4E777
:1034400010B500204D49091D08604B48406820F424
:103450007040494948600846406840F44050486020
:1034600000204749C1F8AC01FFF764FF0120434940
:10347000091D0860FFF75EFF00204149C1F8B00157
:1034800010BD10B500203D49091D08603A4840684C
:1034900020F47040384948600846406840F4405085
:1034A000486001203649C1F8AC01FFF743FF012015
:1034B0003249091D0860FFF73DFF00203049C1F87F
:1034C000B00110BD70B504462B48406820F4704030
:1034D000294948600846406840F440504860002050
:1034E0002649091D0860002512E0E009234908600B
:1034F0006006040E01202249C1F8B001FFF71AFF4F
:1035000000201E49091D0860FFF714FF681CC5B2A2
:10351000082DEADB70BD70B50546002416484068EA
:1035200020F47040144948600846406840F4004068
:103530004860002615E000201049091D0860FFF7CB
:10354000F9FE01200E49C1F8B0016006040E0B48D7
:103550008038006808B1601CC4B2FFF7EBFE701C35
:10356000C6B2082EE7DB15B9FFF78BFF01E0FFF7C6
:1035700067FF204670BD000000100140AC012242F0
:103580000000224238B50446F74890F82400C0B144
:1035900014B10220009001E000200090F24A12686D
:1035A000D17BF14A526810786B460122FFF789FE01
:1035B00010B14FF0FF3038BD9DF80010EA4841745B
:1035C00023E0E948807A10B94FF0FF30F3E724B1E7
:1035D000E548407C08B10020EDE714B101200090DF
:1035E00001E000200090E04A1268D17BDE4A526878
:1035F00010786B460122FFF764FE10B14FF0FF30E8
:10360000D9E79DF80010D84841740020D3E738B5B9
:1036100000241FE0D4480068C07AA04204D0D248F9
:103620000068407DA04200D112E0CF494968087887
:103630006B4601222146FFF78FFD10B14FF0FF309E
:1036400038BD9DF800202146C8A005F07DFE00BFD2
:10365000601CC4B2C44840680079A042DADC002093
:10366000EEE770B504460D46BF480068C07AA04238
:1036700004D0BD480068407DA04202D14FF0FF3029
:1036800070BDB94840680079A04202DC4FF0FF30BD
:10369000F6E7B549496808782B4601222146FFF72D
:1036A0005BFDEDE738B50446AF4890F82300A04233
:1036B00001D1002038BD14B13020009001E000207D
:1036C0000090A948807C20B19DF8000040F00200E5
:1036D0000090A54890F8220020B19DF8000040F02D
:1036E00080000090A04A1268117D9F4A52681078AD
:1036F0006B460122FFF7E5FD10B14FF0FF30D9E72F
:10370000994880F823400020D4E738B5044604F0F7
:10371000700010B10120009005E014B1002000906D
:1037200001E040200090904A1268917C8E4A5268D5
:1037300010786B460122FFF7C4FD20B100218A48B2
:103740008172481E38BD9DF8000020F04001864877
:1037500001730020009004F0400020B99DF80000A3
:1037600040F00400009004F0200020B99DF8000013
:1037700040F00200009004F0100020B99DF8000015
:1037800040F00100009004F0080020B99DF800000E
:1037900040F038000090744A1268D17C724A526836
:1037A00010786B460122FFF78CFD20B100216E4896
:1037B0008172481EC6E724B1082C02D00020FFF712
:1037C00071FF6948847200210175322003F0BDFD4C
:1037D0000020B7E738B504466348807CA04201D199
:1037E000002038BD002C46D05F4A126811795E4A2D
:1037F000526810786B460122FFF7AEFC10B14FF013
:10380000FF30EEE79DF8000020F020000090564ABF
:1038100012681179544A526810786B460122FFF7FA
:1038200050FD10B14FF0FF30DBE7032003F08DFDBA
:10383000022000904C4890F8220020B19DF8000032
:1038400040F080000090484890F8230020B19DF897
:10385000000040F030000090434A1268117D424A57
:10386000526810786B460122FFF72BFD002851D0DB
:103870004FF0FF30B5E73C4A126811793A4A526876
:1038800010786B460122FFF767FC10B14FF0FF3054
:10389000A7E73548807A00F0010028B19DF80000C4
:1038A00040F02000009004E09DF8000020F020008F
:1038B00000902D4A126811792B4A526810786B4695
:1038C0000122FFF7FEFC10B14FF0FF3089E7032023
:1038D00003F03BFD244890F8220010B180200090B6
:1038E00001E000200090204890F8230020B19DF8CE
:1038F000000040F0300000901B4A1268117D1A4A07
:10390000526810786B460122FFF7DBFC10B14FF0D4
:10391000FF3066E714488474002062E708B5124857
:10392000807A10B94FF0FF3008BD002000900E4A99
:103930001268D17B0C4A526810786B460122FFF75F
:10394000C0FC10B14FF0FF30EEE7074A1268517922
:10395000054A526810786B460122FFF7B2FC68B145
:103960004FF0FF30E0E700002403002025233578E6
:103970003A20252335780D0A00000000FB4A126822
:103980001179FA4A526810786B460122FFF799FCC8
:1039900010B14FF0FF30C7E7F44890F8240000283A
:1039A00050D00C200090F14A12681179EF4A526809
:1039B00010786B460122FFF784FC10B14FF0FF3006
:1039C000B2E7C0200090E948807A00F0010020B101
:1039D0009DF8000040F020000090E44A1268117940
:1039E000E24A526810786B460122FFF76AFC10B178
:1039F0004FF0FF3098E7DD48407C10B10220009086
:103A000001E000200090D94A1268D17BD74A526861
:103A100010786B460122FFF754FC10B14FF0FF30D5
:103A200082E700200090D14A12685179CF4A52684B
:103A300010786B460122FFF744FC002855D04FF068
:103A4000FF3071E704200090C84A12681179C74A14
:103A5000526810786B460122FFF733FC10B14FF02B
:103A6000FF3061E7C148807C20B9C048807A00F00F
:103A7000010010B94020009001E060200090BB4A96
:103A800012681179B94A526810786B460122FFF723
:103A900018FC10B14FF0FF3046E7322003F055FC20
:103AA000B248407C10B10120009001E0002000905D
:103AB000AE4A1268D17BAD4A526810786B4601223B
:103AC000FFF7FFFB10B14FF0FF302DE7A74A126858
:103AD0005179A64A52681078A44B10330122FFF79F
:103AE000F0FB10B14FF0FF301EE700201CE770B56F
:103AF0000446002624F001049C4890F8240008B1F4
:103B0000002070BD9948807A10B94FF0FF30F8E777
:103B10009648057C807A2040944908740846007CC9
:103B2000A04202D04FF0FF3600E0002614B98F48C3
:103B3000007D18B10120FFF725FD02E00020FFF70E
:103B400021FD3CB1FFF7EAFE20B1884805744FF033
:103B5000FF30D6E73046D4E738B504468348807A4C
:103B600010B94FF0FF3038BDBC2C02DB01200090B3
:103B700015E0622C02DB0220009010E02A2C02DB10
:103B8000032000900BE0142C02DB0420009006E0E0
:103B90000A2C02DB0520009001E00620009073480B
:103BA000C07A9DF80010884201D10020DBE76F4AFF
:103BB000126891786D4A526810786B460122FFF7BF
:103BC00080FB10B14FF0FF30CDE79DF80010674843
:103BD000C1720020C7E738B50446282C02DD4FF03B
:103BE000FF3038BDDCB90020FFF75CFD00208DF808
:103BF000000007208DF801005C4A1268917C5B4A46
:103C0000526810786B460222FFF75BFB10B14FF051
:103C1000FF30E6E70021554801750020E1E701206B
:103C2000FFF740FD20208DF80000012C06D1002078
:103C30008DF801000520FFF78FFF17E0052C06DC4B
:103C400001208DF801000520FFF786FF0EE0142CFF
:103C500006DC02208DF801000A20FFF77DFF05E059
:103C600003208DF801001420FFF776FF9DF8010076
:103C7000072101EB8010C0B28DF801003B4A1268A9
:103C8000917C3A4A526810786B460222FFF719FB82
:103C900010B14FF0FF30A4E70821344881720021B1
:103CA0000173012101750020FFF721FF002098E733
:103CB00038B504462D48807A10B94FF0FF3038BD32
:103CC0002A4890F8240010B14FF0FF30F7E727485A
:103CD000007D50B134B1282C04DCE0B2FFF77BFF4B
:103CE0000020ECE70020FFF776FF042C01DA042423
:103CF00004E0B4F57A7F01DD4FF47A744FF47A7002
:103D000090FBF4F0401EC0B20090184A126851783F
:103D1000164A526810786B460122FFF7D2FA10B1AA
:103D20004FF0FF30CBE79DF80000401C4FF47A7154
:103D300091FBF0F081B20D48C1810146C98948105C
:103D4000FFF70AFF0020BAE738B504460748807A33
:103D500010B94FF0FF3038BD022C09D0042C0AD026
:103D6000082C0BD0102C0FD10BE0000024030020F6
:103D7000002000900BE00820009008E01020009048
:103D800005E01820009002E04FF0FF30E3E700BFAD
:103D9000F848407A9DF80010B0EBE10F01D1002007
:103DA000D9E7F44A1268D179F24A526810786B4622
:103DB0000122FFF786FA10B14FF0FF30CBE79DF8F4
:103DC0000000C110EB4841720020C4E738B504463A
:103DD000E848807A10B94FF0FF3038BDFA2C09D08E
:103DE000B4F5FA7F09D0B4F57A7F09D0B4F5FA6F4B
:103DF0000CD108E0002000900BE00820009008E0C3
:103E00001020009005E01820009002E04FF0FF30F5
:103E1000E3E700BFD748007A9DF80010B0EBE10F50
:103E200001D10020D9E7D34A12689179D14A52686A
:103E300010786B460122FFF744FA10B14FF0FF30C3
:103E4000CBE79DF80000C010CA4908720020C4E703
:103E50001CB580208DF80000C64A1268917CC54AC6
:103E6000526810786B460122FFF72BFA10B14FF021
:103E7000FF301CBD642003F068FA00208DF80000BC
:103E8000BC4A1268917CBB4A526810786B4601228A
:103E9000FFF717FA10B14FF0FF30EAE7B54A1268A2
:103EA000917DB44A526810786B460622FFF754F9A8
:103EB00010B14FF0FF30DCE79DF80500C007400F60
:103EC0009DF8031001F0010140EA41009DF8011046
:103ED00001F0010140EA010494B1012C03D1012158
:103EE000A448C17431E0022C03D10021A148C1745F
:103EF0002BE02146A0A005F027FA4FF0FF30B8E7ED
:103F00009C4A1268D1789B4A526810786B4601220D
:103F1000FFF722F910B14FF0FF30AAE79DF800003B
:103F200000F00F042CB99E4805F00EFA4FF0FF3058
:103F30009FE7042C06D19BA005F006FA01218D48CD
:103F4000C17402E000218B48C174FF21894881724D
:103F5000FF2088490872FF2186484172C1724FF6DE
:103F6000FF71C181FF21017481740121017380F807
:103F70002210002180F82310417501751630016070
:103F800041608160163880F8241080F82510C184C3
:103F90004FF4FA60FFF71AFF10B14FF0FF3068E7F7
:103FA0000220FFF7D1FE10B14FF0FF3061E72A2069
:103FB000FFF7D2FD10B14FF0FF305AE73220FFF784
:103FC00077FE10B14FF0FF3053E70020FFF78FFD71
:103FD00010B14FF0FF304CE70020FFF7FBFB10B1B2
:103FE0004FF0FF3045E70020FFF78FFB002040E750
:103FF00070477CB504460D465E48807A00F070003C
:1040000010B94FF0FF307CBD5A4A1268117B594AF3
:10401000526810786B460622FFF79EF810B14FF0F9
:10402000FF30F0E79DF801009DF8001040EA012004
:1040300000B220809DF803009DF8021040EA0120A4
:1040400000B260809DF805009DF8041040EA012050
:1040500000B2A08015B12846FFF7CAFF0020D2E7C2
:104060007CB504460D464348807A00F0080010B93C
:104070004FF0FF307CBD3F4A1268517B3D4A526889
:1040800010786B460622FFF767F810B14FF0FF304B
:10409000F0E79DF801009DF8001040EA012000B211
:1040A00020809DF803009DF8021040EA012000B234
:1040B00060809DF805009DF8041040EA012000B2E0
:1040C000A08015B12846FFF793FF0020D2E72DE925
:1040D000FE4F05460C462748807A18B94FF0FF304E
:1040E000BDE8FE8F234A1268917B224A52681078FD
:1040F00002AB0222FFF730F810B14FF0FF30EFE7CC
:104100009DF809009DF8081040EA012006B214B19C
:104110002046FFF76DFF17494968C88807F01EFA67
:10412000144901904968B1F9080007F0CFF98346B6
:10413000304607F0CBF95946009007F08FFB8246D6
:10414000019907F091F881461E4907F019F8804659
:104150004FF08F4107F04AFA074607F07BF92860D5
:104160000020BDE710B588B004466CBB4FF0FF30AF
:1041700008B010BD24030020556E737570706F7207
:1041800074656420736F6674776172652070726FF6
:1041900064756374207265762025642E0A00000021
:1041A00088C8000848616C662073656E736974691D
:1041B00076697479207061727420666F756E642EF2
:1041C0000A00000000000C42FFE7206830B9606878
:1041D00020B9A06810B9002008B010BDFA4949689C
:1041E000087806AB03221146FEF7B6FF10B14FF078
:1041F000FF30F1E79DF81800082101EB201000F0D6
:104200000F00ADF800009DF8190001EB201000F040
:104210000F00ADF802009DF81A0001EB201000F02D
:104220000F00ADF8040020684100BDF900004030E7
:1042300091FBF0F000B2ADF8100060684100BDF9EC
:104240000200403091FBF0F000B2ADF81200A0681F
:104250004100BDF90400403091FBF0F000B2ADF830
:104260001400D9494968087806AB06221146FEF7C2
:1042700073FF10B14FF0FF30AEE79DF819009DF8C5
:10428000181040EA012000B2ADF808009DF81B00AC
:104290009DF81A1040EA012000B2ADF80A009DF81E
:1042A0001D009DF81C1040EA012000B2ADF80C0082
:1042B000BDF81000BDF80810084400B2ADF81000B9
:1042C000BDF81200BDF80A10084400B2ADF81200A3
:1042D000BDF81400BDF80C10084400B2ADF814008D
:1042E000BDF81000000A8DF81800BDF81000C0B22B
:1042F0008DF81900BDF81200000A8DF81A00BDF8FB
:104300001200C0B28DF81B00BDF81400000A8DF831
:104310001C00BDF81400C0B28DF81D00AA49496800
:10432000087806AB06221146FEF7CBFF10B14FF01E
:10433000FF3051E700204FE70146A348007A30B133
:10434000012807D0022809D003280FD10AE0FA205B
:1043500008800EE04FF4FA7008800AE04FF47A709B
:10436000088006E04FF4FA60088002E00020088030
:1043700000BF00BF0020704701469348407A30B12B
:10438000012807D0022808D003280CD108E0022019
:1043900008700BE00420087008E00820087005E0B1
:1043A0001020087002E04FF0FF30704700BF8648D1
:1043B000C07C18B108784006000E08700020F4E7B1
:1043C00001468148C07A082817D2DFE800F01704B8
:1043D000070A0D101318BC20088013E06220088023
:1043E00010E02A2008800DE0142008800AE00A204E
:1043F000088007E00520088004E000BF00BF00201F
:10440000088000BF00BF0020704701466E4890F84A
:10441000240010B14FF0FF3070476B48C08908800E
:104420000020F9E7014600200880401E7047014641
:104430004FF0FF30704701466348007A30B10128E1
:1044400007D0022808D003280CD108E05F48086094
:104450000BE05F48086008E05E48086005E05E48E1
:10446000086002E04FF0FF30704700BF0020FBE71C
:1044700001465548407A30B1012808D002280AD0B8
:10448000032810D10BE04FF4804008800EE041F685
:104490009C7008800AE04FF48050088006E04FF4DA
:1044A0000060088002E04FF0FF30704700BF4648D0
:1044B000C07C10B10888401008800020F5E7014654
:1044C0004148007C08700020704701463E48807AD1
:1044D00010B10120087001E0002008700020704732
:1044E00038B504463848807A10B94FF0FF3038BDEF
:1044F000354A1268117C344A526810786B460222A1
:10450000FEF72AFE10B14FF0FF30F0E79DF80100F2
:104510009DF8001040EA012000B220800020E6E76C
:104520002DE9FE4F0746884692461D46DDF830B01D
:1045300000260024244890F8240010B1601EBDE835
:10454000FE8F002028702048807A10B94FF0FF308D
:10455000F5E71D48007C10B94FF0FF30EFE71A482F
:10456000007C00F0400008B1B01CC6B21648007CC8
:1045700000F0200008B1B01CC6B21348007C00F067
:10458000100008B1B01CC6B20F48007C00F0080053
:1045900008B1B01DC6B20C4A1268917A0A4A526834
:1045A00010786B460222FEF7D7FD10B14FF0FF30B6
:1045B000C5E79DF801009DF8001040EA0129B145CA
:1045C0000CDA0020BBE700002403002000000343B6
:1045D000000083423333034233338341FC48406855
:1045E0004088B9EB600F17DDF94A1268517CF84A30
:1045F000526810786B460122FEF7AEFD10B14FF005
:10460000FF309CE79DF8000000F0100020B1FFF79C
:1046100085F96FF0010092E75046FFF7E9FCEC4A9C
:104620001268D17AEA4A526810786B463246FEF731
:1046300093FD10B14FF0FF3081E799FBF6F0401E7B
:104640008BF8000000202870B4422AD0E048007C9B
:1046500000F0080028B3601C1DF800001DF80410CD
:1046600040EA012000B2A8F80000E01C1DF800108C
:10467000A01C1DF8000041EA002000B2A8F80200CA
:10468000601D1DF80010201D1DF8000041EA0020EB
:1046900000B2A8F80400287840F008002870A01D97
:1046A00084B2B44213D0CA48007C00F0400070B11C
:1046B000601C1DF800001DF8041040EA012000B243
:1046C0003880287840F040002870A01C84B2B442A2
:1046D00013D0BF48007C00F0200070B1601C1DF8B2
:1046E00000001DF8041040EA012000B2788028780C
:1046F00040F020002870A01C84B2B44213D0B4480B
:10470000007C00F0100070B1601C1DF800001DF866
:10471000041040EA012000B2B880287840F0100070
:104720002870A01C84B2002009E7F8B504460F46A3
:104730001646A74890F8240010B94FF0FF30F8BD96
:10474000A348807A10B94FF0FF30F8E7A04A12680A
:10475000917A9F4A526810786B460222FEF7FCFC61
:1047600010B14FF0FF30EAE79DF801009DF800100E
:1047700040EA0125A54203DA00203070401EDEE742
:10478000934840684088B5EB600F17DD904A126887
:10479000517C8F4A526810786B460122FEF7DCFC90
:1047A00010B14FF0FF30CAE79DF8000000F0100094
:1047B00020B1FFF7B3F86FF00100C0E7E2B2844B1D
:1047C0001B68D97A824B5B6818783B46FEF7C4FCBD
:1047D00010B14FF0FF30B2E795FBF4F0401E30709F
:1047E0000020ACE701467A4880F82210002070478C
:1047F0007CB5054676494968087801AB04220D214D
:10480000FEF7AAFC08B107207CBD9DF80700C0F3A5
:1048100001109DF8041001F0E00140EAE1008DF87C
:1048200000009DF80700C0F381009DF8051001F01D
:10483000E00140EAE1008DF801009DF8070000F07A
:1048400003009DF8061001F0E00140EAE1008DF858
:10485000020000241CE01DF8040018B9002045F8EF
:10486000240013E05B4845F8240006E055F82400D6
:10487000594906F0BBFE45F824001DF80400401E0F
:10488000C0B20DF804000028F0D100BF601CC4B213
:10489000032CE0DB0020B7E72DE9FE4F06460F466C
:1048A00000256846FFF7A4FF002442E056F82400E4
:1048B00057F82410A0EB010ABAF1000F01DB5146B2
:1048C00001E0CAF10001084606F000FE83464FF001
:1048D0008F4106F0C9FC80465DF82400002106F0F7
:1048E00085FD16D05DF82410404606F0BDFC8246DA
:1048F0004FF07E5106F0B2FF814629F0004A37485A
:10490000416A504606F03EFF12D20120A040054306
:104910000EE03248C169404606F034FE05D32F4808
:10492000016A404606F02EFF02D20120A040054356
:10493000641C032CBADB2846BDE8FE8F2DE9FC5F22
:1049400006460F46002522494968087801AB032234
:104950000D21FEF701FC10B10720BDE8FC9F9DF87A
:10496000040000F01F008DF804009DF8050000F021
:104970001F008DF805009DF8060000F01F008DF85F
:104980000600002462E056F8240057F82410A0EB3B
:10499000010BBBF1000F01DB594601E0CBF1000137
:1049A000084606F093FD4FF08F41009006F05CFC46
:1049B000814601A8005DC0B30849086806F0CEFD35
:1049C00083465946064806F04FFC80460FE000003B
:1049D000240300207B14AE3E1D5A843FACBA00086D
:1049E00000B04C45FE49404606F000FE804601A856
:1049F000005D401EC0B201A908550028F2D1414611
:104A0000484606F031FC83464FF07E5106F026FF03
:104A100082462AF0004BF3488169584606F0B2FE00
:104A200013D20120A04005430FE0FFE7ED480169E4
:104A3000484606F0A7FD05D3EA484169484606F016
:104A4000A1FE02D20120A0400543641C032C9ADB86
:104A5000284682E72DE9F04F87B005460C4691467F
:104A600001208DF8100000208DF81100DE4A126838
:104A7000917CDD4A5268107804AB0222FEF721FCDB
:104A800020B14FF0FF3007B0BDE8F08FC82002F032
:104A90005CFC00208DF81000D34A1268D17BD24A0A
:104AA0005268107804AB0122FEF70BFC10B14FF0F6
:104AB000FF30E8E7CC4A12685179CB4A5268107847
:104AC00004AB0122FEF7FDFB10B14FF0FF30DAE737
:104AD000C54A1268917CC44A5268107804AB01221E
:104AE000FEF7EFFB10B14FF0FF30CCE7BE4A126883
:104AF000D17DBD4A5268107804AB0122FEF7E1FB7C
:104B000010B14FF0FF30BEE7B74A12681179B64ACC
:104B10005268107804AB0122FEF7D3FB10B14FF0BE
:104B2000FF30B0E70C208DF81000AF4A1268117901
:104B3000AD4A5268107804AB0122FEF7C2FB10B1F7
:104B40004FF0FF309FE70F2002F0FFFBA648806A7E
:104B5000407A8DF81000A44A12689178A24A5268EF
:104B6000107804AB0122FEF7ACFB10B14FF0FF3020
:104B700089E79D48806A007A8DF810009A4A126889
:104B80005178994A5268107804AB0122FEF799FBDC
:104B900010B14FF0FF3076E7B9F1000F07D092481F
:104BA000806A807A40F0E0008DF8100004E08E48C2
:104BB000806A807A8DF810008B4A126891798A4A4F
:104BC0005268107804AB0122FEF77BFB10B14FF066
:104BD000FF3058E7B9F1000F07D08348806AC07AE8
:104BE00040F0E0008DF8100003E07E48C07A8DF8B8
:104BF00010007D4A1268D1797B4A5268107804AB64
:104C00000122FEF75EFB10B14FF0FF303BE7B9F138
:104C1000000F02D0C82002F098FB40208DF8100051
:104C2000714A12681179704A5268107804AB0122F7
:104C3000FEF747FB10B14FF0FF3024E778208DF8E6
:104C40001000694A12685179674A5268107804ABBB
:104C50000122FEF736FB10B14FF0FF3013E7614938
:104C6000888902F072FB00208DF810005E4A1268FD
:104C700051795D4A5268107804AB0122FEF721FB9E
:104C800010B14FF0FF30FEE6574A1268917A564A4B
:104C90005268107804AB0222FEF75EFA10B14FF0B2
:104CA000FF30F0E69DF811009DF8101040EA012B4E
:104CB0000C209BFBF0F0C6B20020A8606860286062
:104CC000A06060602060824665E0474A1268D17A41
:104CD000454A5268107804AB0C22FEF73DFA10B139
:104CE0004FF0FF30CFE69DF811009DF8101040EA1C
:104CF000012000B2ADF808009DF813009DF81210D5
:104D000040EA012000B2ADF80A009DF815009DF8B8
:104D1000141040EA012000B2ADF80C00BDF90810F3
:104D2000206808442060BDF90A106068084460608B
:104D3000BDF90C10A0680844A0609DF817009DF80C
:104D4000161040EA012000B2ADF800009DF81900ED
:104D50009DF8181040EA012000B2ADF802009DF85D
:104D60001B009DF81A1040EA012000B2ADF80400C3
:104D7000BDF90010286808442860BDF90210686871
:104D800008446860BDF90410A8680844A8600AF1E6
:104D9000010000F0FF0AB24597DB1248D0F800C0CE
:104DA0002868C117090441EA10410704624600233C
:104DB000384604F0A4FA32460023CDE9020104F09B
:104DC0009EFA28600748D0F800C06868C117090437
:104DD00041EA1041070462460023384606E000001D
:104DE00054E3853FACBA00082403002004F087FA9E
:104DF00032460023CDE9020104F081FA6860FE48E2
:104E0000D0F800C0A868C117090441EA104107049E
:104E100062460023384604F072FA32460023CDE998
:104E2000020104F06CFAA860F348D0F804C02168CD
:104E3000C817000440EA11480F04624600233846B0
:104E4000414604F05CFA32460023CDE9020104F049
:104E500056FA2060E848D0F804C06068C117090419
:104E600041EA1041070462460023384604F047FA3D
:104E700032460023CDE9020104F041FA6060DE48C9
:104E8000D0F804C0A068C117090441EA1041070422
:104E900062460023384604F032FA32460023CDE958
:104EA000020104F02CFAA060A068002804DDA068CC
:104EB000A0F58030A06003E0A06800F58030A0601D
:104EC0000020E0E538B50446CC4890F82400A04224
:104ED00001D1002038BD24B3C84890F8250010B98E
:104EE0004FF0FF30F6E70020FEF74CFB0020FEF706
:104EF00071FCC249C88CFEF7DBFE00200090BF4960
:104F0000496808786B4601222321FEF7DAF901216E
:104F1000BA4880F824100120FEF734FBFEF7FEFCAF
:104F200013E00020FEF72EFBB448007C0090B3494C
:104F3000496808786B4601222321FEF7C2F9002157
:104F4000AE4880F82410FEF7E9FC0020C2E72DE906
:104F5000F04F8DB083460F4602200C90A74890F882
:104F6000240020B10020FFF7ADFF012600E000265D
:104F700003A8FFF7E1F905A8FFF7FEF901A8FFF77D
:104F80001FFA02A8FFF741FA9C4890F80AA004A86B
:104F9000FFF795FA002407E0002239465846FFF74C
:104FA00059FD00B902E0641C022CF5DB00BF022CA5
:104FB00001D1002528E0002407E0012206A909A864
:104FC000FFF748FD00B902E0641C022CF5DB00BFCE
:104FD000022C01D1002517E006A93846FFF75CFC3A
:104FE00000F0FF0809A95846FFF7A8FC00F0FF09E8
:104FF0000025B9F1000F01D145F00105B8F1000F0E
:1050000001D145F0020500BFFF207C490872FF2155
:105010007A484172C1724FF6FF71C181FF218172DE
:10502000017401210173BDF80C00FEF7CFFE9DF85D
:105030001400FEF789FEBDF80400FEF78DFDBDF8F3
:105040000800FEF735FE5046FEF75FFB9DF81000A6
:10505000FEF74DFD16B10120FFF734FF28460DB0D5
:10506000BDE8F08FF8B504460D46164616B94FF068
:10507000FF30F8BD6148807A10B94FF0FF30F8E793
:1050800020128DF80000E0B28DF801009DF80100BB
:1050900028445A4949684989884202DD4FF0FF3067
:1050A000E7E7564A1268117E544A526810786B46F8
:1050B0000222FEF706F910B14FF0FF30D9E7EAB24D
:1050C0004E4B1B68597D4D4B5B6818783346FEF795
:1050D000F8F810B14FF0FF30CBE70020C9E7F8B582
:1050E00004460D46164616B94FF0FF30F8BD43484A
:1050F000807A10B94FF0FF30F8E720128DF80000E9
:10510000E0B28DF801009DF8010028443B49496850
:105110004989884202DD4FF0FF30E7E7374A1268DD
:10512000117E364A526810786B460222FEF7C9F8A3
:1051300010B14FF0FF30D9E7EAB2304B1B68597D10
:105140002E4B5B6818783346FEF706F810B14FF027
:10515000FF30CBE70020C9E72DE9F04385B00546D5
:105160000E4690469946254890F8250020B14FF00C
:10517000FF3005B0BDE8F08316B94FF0FF30F8E717
:10518000002423E0281B102801DD102000E0281B4C
:1051900087B2321939462046FFF764FF10B14FF04D
:1051A000FF30E6E701AA39462046FFF798FF10B125
:1051B0004FF0FF30DDE730193A4601A904F0FCF961
:1051C00010B16FF00100D4E7E01984B2AC42D9DB32
:1051D0004FEA28208DF8000008F0FF008DF801004C
:1051E000064A1268917E054A526810786B46022280
:1051F000FEF767F838B103E0ACBA000824030020DA
:105200004FF0FF30B5E70121FE4880F82510A0F8E7
:1052100026900020ADE70146FA4890F82400087077
:10522000002070474FF0FF30704702464FF0FF30CC
:10523000704701464FF0FF307047F8B505460F46FE
:105240001446002C70D0B5F5FF5F01DDFF2605E0A8
:10525000202D01DA012601E0C5F3471607B9012721
:10526000282C02DD4FF0FF30F8BDE648407D28BB1A
:10527000E44890F8240038B10020FFF723FE012114
:10528000E04880F8201003E00021DE4880F820107C
:10529000DC481630FFF750F8DA481830FFF76CF8A2
:1052A000D8481A30FFF78CF8D6481C30FFF7ADF815
:1052B000D448817A81771F30FFF701F90020FEF78B
:1052C00061F90020FEF787FC00208DF80000CD4A30
:1052D00012689178CB4A526810786B460122FDF72C
:1052E000F0FF10B14FF0FF30BEE740208DF8000016
:1052F000C44A1268D17BC34A526810786B460122B7
:10530000FDF7DFFF00B165E08DF800608DF80170FA
:10531000BC4A1268117ABB4A526810786B46022266
:10532000FDF7CFFF08B155E047E0052002F00DF88A
:10533000B448407A072101EBC000C0B28DF80000EC
:10534000B04A1268D179AF4A526810786B46012290
:10535000FDF7B7FF00B13DE020208DF80000012CE3
:1053600003D100208DF801000EE0052C03DC0120A4
:105370008DF8010008E0142C03DC02208DF80100F8
:1053800002E003208DF801009DF80100072101EBE8
:105390008010C0B28DF801009A4A1268917C994A37
:1053A000526810786B460222FDF78BFF00B111E0C6
:1053B000012194484175002056E7924A1632002197
:1053C00003E0505C00B105E0491C0C29F9D34FF013
:1053D000FF3049E7FF208B490872FF21894841725D
:1053E000C1724FF6FF71C181FF21817201740121E9
:1053F00001730146887FFEF788F98249C88AFEF763
:10540000E5FC8049087EFEF79FFC7E49488BFEF74D
:10541000A3FB7C49888BFEF74BFC7A49C87FFEF7DB
:1054200066FB784890F8200010B10120FFF74AFD94
:10543000002174484175002016E770B588B002A9B4
:1054400005A8FFF784FD0446032C3ED101A8FEF712
:10545000F2FF059806F03AF80646019906F0C6F8FC
:10546000054605F0F7FF0590069806F02FF806466A
:10547000019906F0BBF8054605F0ECFF0690079889
:1054800006F024F80646019906F0B0F8054605F046
:10549000E1FF079005A800F054FA6846FEF7E8FF20
:1054A000BDF80010029848430290BDF80010039820
:1054B00048430390BDF8001004984843049002A8A4
:1054C00000F0D2FA002008B070BD0120FBE70146D1
:1054D00091F90020002A01DD00201EE091F9002052
:1054E000002A01DA042018E091F90120002A01DDE8
:1054F000012012E091F90120002A01DA05200CE0D8
:1055000091F90220002A01DD022006E091F9022033
:10551000002A01DA062000E00720704710B5044693
:105520002046FFF7D4FF0346E01CFFF7D0FF43EA15
:10553000C00083B2A01DFFF7CAFF43EA801083B208
:10554000184610BD70B50024FDF7F9FEFEF780FC8B
:10555000002840D17820FEF7D8F8C4B20CB1012061
:1055600070BD7820FEF7C3FAC4B20CB10220F7E791
:105570006420FEF79DFBC4B20CB10320F0E700F0FD
:1055800045F9C4B20CB10420EAE71F48FFF7C6FF93
:10559000054600F045F9C4B20CB10520E0E740F241
:1055A000731000F07EFDC4B20CB10620D8E7642071
:1055B00000F0F0FAC4B20CB10720D1E7FFF73DFFCD
:1055C00004460CB10820CBE70120FFF77BFCC4B2F6
:1055D0001CB10920C4E70A20C2E70020C0E72DE97A
:1055E000F04F99B004460D4616464FF07E574FF0E7
:1055F00000084FF000094FF0000A12A813A918ABD9
:105600000EAA03E02403002050030020CDE900107F
:1056100014A916A800F0A4FE18B1012019B0BDE825
:10562000F08FBDF84C0000F4807000287ED00E98FA
:1056300005F04CFF83464FF09D4105F015FE0746EF
:105640000F9805F043FF83464FF09D4105F00CFE97
:105650008046109805F03AFF83464FF09D4105F0D3
:1056600003FE8146119805F031FF83464FF09D41BE
:1056700005F0FAFD824639464FF0804005F0B6FF4E
:105680004946059005F0B2FF414607904FF0404073
:1056900005F0ACFF5146059005F0A8FF069007996C
:1056A00005F06EFD834605F03FFDCDE9080104F0ED
:1056B000A3FA4FF06632544BCDE90A0105F05AFACD
:1056C000CDE90C0105F004F8206049464FF0804018
:1056D00005F08CFF4946029005F088FF4146049092
:1056E0004FF0404005F082FF4146029005F07EFFFA
:1056F0000390049906F0B2F883464FF07E5105F00E
:105700003FFD059005F010FDCDE9080139464FF049
:10571000804005F06BFF4146039005F067FF494666
:1057200004904FF0804005F061FF00E068E05146D2
:10573000039005F05BFF8346049905F021FD059079
:1057400005F0F2FCCDE90601DDE9082304F09CFC3C
:105750004FF066322C4BCDE90A0105F00BFACDE98A
:105760000C0104F0B5FF28605146504605F03EFF9D
:1057700049460490484605F039FF414603904046AB
:1057800005F034FF39460190384605F02FFF0090B0
:10579000019905F0F5FC0290039906F05FF8834645
:1057A000049906F05BF8059005F0BEFCCDE9080110
:1057B0005146384605F01AFF49460490404605F028
:1057C00015FF0390049905F0DBFC4FF08041059034
:1057D00005F00CFF834605F0A7FCCDE90601DDE9E5
:1057E000082304F051FC4FF06632074BCDE90A0163
:1057F00005F0C0F9CDE90C0104F06AFF306001E06A
:1058000002200BE7002009E766A64C4010B5C8232C
:105810004FF48062F74940F6F630FFF79DFC10BD6B
:1058200010B586B00446F4A000680390F3A00068A9
:105830000290F3A000680190F2A00068009004F0CC
:10584000030003A9085C8DF8140003A8C4F3C10188
:10585000405C8DF8150003A8C4F38111405C8DF8FD
:10586000160004F0030002A9085C8DF8100002A8DD
:10587000C4F3C101405C8DF8110002A8C4F381118A
:10588000405C8DF8120005AA032140F22640FFF784
:10589000E9FB18B14FF0FF3006B010BD04AA032198
:1058A00040F22A40FFF7DEFB10B14FF0FF30F3E784
:1058B000019805900098049004F0040058B19DF8F8
:1058C000140040F001008DF814009DF8100040F025
:1058D00001008DF8100004F0200058B19DF815006B
:1058E00040F001008DF815009DF8110040F0010016
:1058F0008DF8110004F4807058B19DF8160040F046
:1059000001008DF816009DF8120040F001008DF89E
:10591000120005AA03214FF48860FFF7A3FB10B122
:105920004FF0FF30B8E704AA032140F23140FFF7FF
:1059300099FB10B14FF0FF30AEE7B348048100206F
:10594000AAE71FB50446B048007A00F0030054F8F7
:1059500020000190AC48007A00F0040010B10198DA
:1059600040420190A848007AC0F3C10054F82000DA
:105970000290A548007A00F0200010B10298404241
:105980000290A148007AC0F3811054F820000390DF
:105990009D48008900F4807010B103984042039044
:1059A0009A49019880FB0101800F40EA8100019033
:1059B0009649029880FB0110820042EA91700290A1
:1059C0009249039880FB0110820042EA9170039093
:1059D0000198000E8DF800000198000C8DF8010070
:1059E0000198000A8DF802000198C0B28DF80300FA
:1059F0006A4604214FF47470FFF734FB18B14FF07E
:105A0000FF3004B010BD0298000E8DF8000002981F
:105A1000000C8DF801000298000A8DF8020002982F
:105A2000C0B28DF803006A4604214FF47570FFF789
:105A300019FB10B14FF0FF30E3E70398000E8DF82B
:105A400000000398000C8DF801000398000A8DF8FF
:105A500002000398C0B28DF803006A4604214FF497
:105A60007670FFF7FFFACCE770B588B0064601A85C
:105A7000FEF7FEFCBDF804000021C90341EA5045D1
:105A8000C4036148007A00F0030056F82000059036
:105A90005D48007A00F0040010B10598404205907E
:105AA0005948007AC0F3C10056F8200006905648C5
:105AB000007A00F0200010B106984042069052484B
:105AC000007AC0F3811056F8200007904E480089F4
:105AD00000F4807010B10798404207900598C117F4
