:020000040800F2
:10000000D80B0020CD6D0008750E0008770E000893
:10001000790E00087D0E0008810E00080000000027
:10002000000000000000000000000000850E000835
:10003000870E000800000000890E00088B0E0008E3
:10004000DD1C0008E76D0008E76D0008E76D00089B
:10005000E76D0008E76D0008E76D0008E76D000830
:10006000E76D0008E76D0008E76D0008E76D000820
:10007000E76D0008E76D0008E76D0008E76D000810
:10008000E76D0008E76D0008E76D0008E76D000800
:10009000E76D0008E76D0008E76D0008E76D0008F0
:1000A000E76D0008E76D0008E76D0008E76D0008E0
:1000B000E76D0008E76D00087D190008E76D00088E
:1000C000E76D0008E76D0008E76D0008E76D0008C0
:1000D000E76D0008E76D0008E76D0008E76D0008B0
:1000E000E76D0008E76D0008E76D0008E76D0008A0
:1000F000E76D0008E76D0008E76D0008E76D000890
:10010000E76D0008E76D000873180008E76D000848
:10011000E76D0008E76D0008E76D0008E76D00086F
:10012000E76D0008E76D0008E76D0008E76D00085F
:1001300000F002F800F062F80AA090E8000C824497
:100140008344AAF10107DA4501D100F057F8AFF274
:10015000090EBAE80F0013F0010F18BFFB1A43F0A5
:100160000103184744BB000064BB00000A444FF081
:10017000000C10F8013B13F0070408BF10F8014B06
:100180001D1108BF10F8015B641E05D010F8016B4B
:10019000641E01F8016BF9D113F0080F1EBF10F8AF
:1001A000014BAD1C0C1B09D16D1E58BF01F801CBD2
:1001B000FAD505E014F8016B01F8016B6D1EF9D555
:1001C0009142D6D37047000000230024002500266A
:1001D000103A28BF78C1FBD8520728BF30C148BFAA
:1001E0000B607047642908F0CF83782908F00884F1
:1001F000002070471FB51FBD10B510BD08F05CFE94
:100200001146FFF7F7FF00F009F808F07AFE03B493
:10021000FFF7F2FF03BC06F0B1FB000096B0002030
:1002200015901490139000F0A6FE4FF4A06007F014
:1002300071FB06F039FB472144F61F6001F056FDC3
:100240004FF4FA61FE4808F0BBFA4FF4FA61FC483B
:1002500008F0B8FA4FF4FA61F94808F0B5FA4FF42B
:10026000FA61F74808F0B2FA41F2883006F059FB1B
:100270004FF47A71F24808F0A3FA4FF47A71F0481B
:1002800008F0A0FA4FF47A71ED4808F09DFA4FF4A7
:100290007A71EB4808F09AFA40F6B83006F041FB64
:1002A00002F009FA05E0C82006F03BFBC82006F082
:1002B00038FB04F033FC0028F5D14FF47A7006F0D7
:1002C00030FB02F035F8642006F02BFB01F074FDE2
:1002D000642006F026FB01F07FFD4FF47A7006F0F3
:1002E00020FB47214FF6FF7001F0D3FA41F61F4182
:1002F000092001F091FA4FF4967006F012FBD148F4
:100300000068D1490860ABE0D04AD149D14802F039
:1003100074FA00284DD1CF48B0F900000AF0CEFAA7
:100320000890CD48016808980AF022F909900AF06F
:10033000F3F80022C94BCDE90A0109F0DDFDCDE952
:100340000C0109F03FFBC4490860C148B0F9000046
:100350000AF0B4FA0890C248016808980AF008F94F
:1003600009900AF0D9F80022BC4BCDE90A0109F046
:10037000C3FDCDE90C0109F025FBB9490860B3487C
:10038000B0F900000AF09AFA0890B6480168089897
:100390000AF0EEF809900AF0BFF80022AF4BCDE961
:1003A0000A0109F0A9FDCDE90C0109F00BFBAD49EB
:1003B0000860AD4AAD49AE4802F047FA00284FD177
:1003C000AB48B0F900000AF079FA0890A948016832
:1003D00008980AF0CDF809900AF09EF800229F4B89
:1003E000CDE90A0109F088FDCDE90C0109F0EAFA2E
:1003F000A04908609D48B0F900000AF05FFA089033
:100400009D48016808980AF0B3F809900AF084F84A
:100410000022924BCDE90A0109F06EFDCDE90C01F5
:1004200009F0D0FA944908608F48B0F900000AF04A
:1004300045FA08909148016808980AF099F80990DF
:100440000AF06AF80022854BCDE90A0109F054FD53
:10045000CDE90C0109F0B6FA8849086001F060F9AD
:10046000794800680AF072FA85490A900AF0B6FAEB
:1004700084490B900AF07CF80D90724800680AF0ED
:1004800065FA7F490B900AF0A9FA0C900D990AF0D1
:1004900071FAFFF439AF704800680AF0D3F900B27E
:1004A000794908806E4800680AF0CCF900B27749B3
:1004B00008806C4800680AF0C5F900B274490880E9
:1004C0006C4800680AF0BEF900B2724908806A48B8
:1004D00000680AF0B7F900B26F4908806F480068F9
:1004E0000AF0B0F900B26E49088000200E9021E0B9
:1004F000642006F016FA01F0F8FC6A4800680AF079
:10050000DDF908906848016808980AF031F8099008
:100510000AF002F80022514BCDE90A0109F0ECFC87
:10052000CDE90C0109F04EFA5F4908600E98401CB5
:10053000C0B20E900E981428DADB5B4800680AF00F
:1005400081F95A490860084600680AF0B7F907902F
:1005500009F0E2FF0022564BCDE9080109F020FB2B
:100560004FF0C042534BCDE90A0109F05DFACDE9E5
:100570000C0109F027FA5049086000200E900AE0AB
:10058000642006F0CEF901F0CCFC01F085FE0E9857
:10059000401CC0B20E900E981428F1DB474800684A
:1005A0004749086008460168444800680AF054F862
:1005B0004449086001F086FD4348006843490860EB
:1005C000434806F0EDF900F057FD0120414908606D
:1005D00000204149C1F888011A4800680AF0B6F9BC
:1005E0004FF07C510C900AF0F9F90D900AF046F9A1
:1005F0003A490860134800680AF0A8F938490C9095
:100600000AF0ECF90D900AF039F9364908600D4806
:1006100000680AF09BF934490C900AF0DFF90D905C
:100620000AF02CF931490860064800680AF08EF992
:100630002F490C900AF0D2F90D900AF01FF959E0F9
:100640000004004000000020B00000203600002020
:100650003400002032000020400000200000E03F75
:100660004400002048000020300000202E00002020
:100670002C00002054000020580000205C000020C6
:100680006F12833A000040403A0000203C000020F6
:100690003E0000204C0000204E000020C001002041
:1006A00050000020CC000020DC000020D4000020FE
:1006B000000059406612714064010020F0010020E2
:1006C000D000002060010020C40000206C01002048
:1006D00020A10700A0012142008022420400002046
:1006E000CDCC4C3E08000020CDCCCC3D0C000020F1
:1006F000CDCC4C3DFE490860FE4800680AF026F962
:10070000FD490C900AF06AF90D900AF0B7F8FB4920
:100710000860F84800680AF019F9F9490C900AF0E5
:100720005DF90D900AF0AAF8F6490860F1480068F2
:100730000AF00CF9F4490C900AF050F90D900AF007
:100740009DF8F24908602EE3159800287ED0F04805
:10075000B0F9000040F24C41884278DDEC48B0F935
:1007600000001090EB48B0F9000040F2E351081A85
:10077000E949B1F90010884209DCE648B0F9000007
:1007800000F2E350E449B1F90010884218DAE24877
:100790000088A0F2E35000B2129012980AF08EF88E
:1007A000099009F0B9FEDD4ADD4BCDE90A0109F0F7
:1007B000A3FBCDE90C0109F005F9DA49086002E074
:1007C0000020D8490860D348B0F9000040F2E45155
:1007D000081AD549B1F90010884209DCCD48B0F9B2
:1007E000000000F2E450D049B1F90010884219DA53
:1007F000CD48008840F2E451081A00B211901198D7
:100800000AF05CF8099009F087FEC44AC44BCDE9B0
:100810000A0109F071FBCDE90C0109F0D3F8C349D5
:10082000086002E00020C1490860BA48B0F9000041
:1008300040F2E351081ABE49B1F9001088420CDCBD
:10084000B448B0F9000000F2E35001E055E022E0C6
:10085000B749B1F90010884219DAB548008840F26A
:10086000E351081A00B20F900F980AF027F8099088
:1008700009F052FEA94AAA4BCDE90A0109F03CFB56
:10088000CDE90C0109F09EF8AA49086011E00020AA
:10089000A84908600DE000201090A6490860A3490F
:1008A0000860A049086000231A461946184600F05F
:1008B0000BFC9748B0F9000040F24C41884219DA2D
:1008C0009B48B0F90000884214DA139818B98F4891
:1008D000008880B213908D4801681398081A082880
:1008E0003ED3002015909449086001209349C1F837
:1008F000A00135E00020139032E0002010908D49D7
:1009000008608A4908608749086000231A4619462A
:10091000184600F0D9FB7E48B0F9000040F24C4187
:1009200088421BDA8248B0F9000040F26C718842BC
:1009300014DD149818B97548008880B21490734873
:1009400001681498081A05280AD3012015907A49DD
:10095000086000207949C1F8A00101E0002014904E
:1009600077480068401C09F0F1FF0D90614800686D
:1009700009F0ECFF73490B900AF030F80C900D99D8
:100980000AF0F8F872D25B48006809F0DFFF6D49A1
:100990000C900AF023F80D9009F070FF6849086088
:1009A000694A6A496A4801F050FF002856D100F0B0
:1009B000B7FE5048006867490968401A089009F076
:1009C000C5FF099009F0A8FD634A644BCDE90A010F
:1009D00009F092FACDE90C0108F0F4FF60490860D3
:1009E000444800685B4908605D48006809F094FD70
:1009F000CDE906015B48B0F9000009F05FFF009007
:100A00005948016800980AF017F9019009F084FD2F
:100A1000564A574BCDE9020109F06EFACDE90401BF
:100A2000DDE9062309F068FACDE90A0151480068BA
:100A300009F072FDCDE90801DDE90A2308F0F4FFB1
:100A4000CDE90C0108F0BEFF4A4908604A48016838
:100A5000484800680AF0FAF848490860484A494995
:100A6000494801F0CAFE08B900F081FD4748006816
:100A7000401C09F06BFF0D901E48006809F066FFEE
:100A800043490B9009F0AAFF0C900D990AF072F8F7
:100A900029D21848006809F059FF3D490C9009F027
:100AA0009DFF0D9009F0EAFE38490860394A3A493D
:100AB0003A4804F080F81B480168374800680AF09B
:100AC000C5F83749086019480168344800680AF0D9
:100AD000BDF834490860174801682E4800680AF0DC
:100AE000B5F83149086002480068401C5EE000002B
:100AF00010000020000000200AD7A33C14000020B2
:100B00000AD7233C180000206F12833A1C000020F3
:100B10008C0200209000002088020020F49FDA85DB
:100B20008B81A23FEC0000208A020020F000002010
:100B30008E020020F4000020888122420000214221
:100B400008000020CDCC4C3E300000202E000020BC
:100B50002C000020B0010020FCA9F1D24D62503FD2
:100B6000AC01002050000020C4010020A9D08AB9A7
:100B7000B596433FCC010020D0010020D4010020D5
:100B80003600002034000020320000200C0000203D
:100B9000CDCCCC3D280000202000002024000020E7
:100BA000E0000020E4000020E800002009F0CEFE74
:100BB0000D907D48006809F0C9FE7C490B9009F052
:100BC0000DFF0C900D9909F0D5FF1BD276480068F7
:100BD00009F0BCFE75490C9009F000FF0D9009F07A
:100BE0004DFE734908607348B0F9000040F24C4173
:100BF000884207DD00F0E5FA109800F089FD0D90BD
:100C000000F094FA6C480068401C09F09FFE0D90BB
:100C10006548006809F09AFE68490B9009F0DEFE0D
:100C20000C900D9909F0A6FF0CD25F48006809F0FE
:100C30008DFE62490C9009F0D1FE0D9009F01EFE68
:100C40005D4908605E480068401C09F07FFE0D9019
:100C50005548006809F07AFE5A490B9009F0BEFE2B
:100C60000C900D9909F086FF7DD24F48006809F07D
:100C70006DFE54490C9009F0B1FE0D9009F0FEFD97
:100C80004F49086001F04DF901F006FB4E4801683C
:100C90004E48006809F0E0FC4D49086001F012FA86
:100CA000414800684B490968401A0C9009F04EFE13
:100CB00049490D9009F092FE484908603A48006899
:100CC0004449086001F05CFA05F0D3FD444800682F
:100CD00009F0B8FD0D904348B0F9000009F0EEFDB1
:100CE0000A90414801680A9809F0A6FF0B9009F0A4
:100CF000A9FD00B20C9000210D9802910391CDE95D
:100D000004103A48B0F900003949B1F90010CDE9B2
:100D100000103848018838480088081A00B20B9043
:100D20003648008836490988401A00B20A9035488A
:100D3000B0F900300AA807C805F09DF832480068ED
:100D400009F080FD0D900020009001902F480D9B30
:100D500002682F4801682F48006804F0ECFF2A4819
:100D600000682D4908602D480068401C09F0EEFD20
:100D70000D900D48006809F0E9FD17490B9009F046
:100D80002DFE0C900D9909F0F5FE0CD20648006876
:100D900009F0DCFD10490C9009F020FE0D9009F0DF
:100DA0006DFD1E490860CFE400000020CDCC4C3D15
:100DB000100000208C020020140000200AD7A33C61
:100DC000180000200AD7233CD0000020F0010020AA
:100DD00060010020780100206F12833A7401002026
:100DE000C800002050000020C4010020FC000020AA
:100DF000FA0000202E0000204E0000202C000020D1
:100E00004C000020F8000020C4000020A4010020B5
:100E1000D4010020CC010020700100201C00002023
:100E200000BF1A4801684FF0E02082691748006847
:100E30008142F6D11648006800EB4003C3EBC010B6
:100E4000C2EBC000124B1B68B0FBF3F001EB410397
:100E5000C3EBC11300EBC300704700B585B0684613
:100E600006F083FA0B490098B0FBF1F008490860DE
:100E700005B000BD7047704700BFFEE700BFFEE74A
:100E800000BFFEE77047704770477047F8010020C9
:100E9000FC01002040420F000CB5002001900090A2
:100EA0006C48006840F480306A49086000BF6948B7
:100EB000006800F4003000900198401C01900098F8
:100EC00018B90198B0F5A06FF1D16248006800F43C
:100ED000003010B10120009001E000200090009847
:100EE000012843D15C48006840F010005A4908606E
:100EF0000846006820F0030008600846006840F0DB
:100F000002000860534840685249486008464068FB
:100F100048600846406840F4806048600846406881
:100F200020F47C1048600846406840F4E8104860AF
:100F30000846006840F08070086000BF45480068BF
:100F400000F000700028F9D04248406820F003000B
:100F5000404948600846406840F00200486000BFD1
:100F60003C48406800F00C000828F9D10CBD10B5D1
:100F7000FFF792FF10BD10B53648006840F0010041
:100F8000344908600846406834490840314948609F
:100F900008460068324908402E4908600846006843
:100FA00020F4802008600846406820F4FE00486075
:100FB0004FF41F008860FFF7DAFF4FF00060294907
:100FC000086010BD10B5002100200022214B5B6895
:100FD00003F00C0121B1042906D0082928D107E02B
:100FE000214B224C236027E01F4B204C236023E041
:100FF000184B5B6803F47010164B5B6803F4803287
:10100000022303EB904022B9194B4343174C236052
:101010000DE0104B5B6803F4003323B1144B4343E2
:10102000124C236003E0104B4343104C236003E059
:101030000D4B0E4C236000BF00BF064B5B68C3F333
:1010400003130C4CE15C094B1B68CB40074C23603D
:1010500010BD000000100240002002400000FFF818
:10106000FFFFF6FE08ED00E000127A00000200200B
:1010700000093D000402002008B50121242006F0EB
:10108000E1F94FF48070ADF8000010208DF80300F6
:1010900003208DF802006946094805F017FF4FF458
:1010A0008071074805F0BFFF0420ADF800006946D5
:1010B000044805F00BFF0421024805F0B4FF08BD09
:1010C000000801400014014030B5B0F5FA6F01DDB1
:1010D0004FF4FA60B1F5FA6F01DD4FF4FA61B2F541
:1010E000FA6F01DD4FF4FA62B3F5FA6F01DD4FF4E8
:1010F000FA63B0F57A7F01DA4FF47A70B1F57A7F4E
:1011000001DA4FF47A71B2F57A7F01DA4FF47A722C
:10111000B3F57A7F01DA4FF47A73FE4D28802D1DE6
:1011200029802D1D2A802D1D2B8030BD2DE9F041F9
:101130000446F9480088204405B2F8480088204455
:1011400006B2F7480088204407B2F64800882044D9
:101150000FFA80F843463A4631462846FFF7B4FF77
:10116000BDE8F0810146B1F5967F02DD4FF496703F
:10117000704711F5967F01DAEB48F9E70846F7E783
:1011800070B50446204609F0C7F90546002213460B
:1011900008F0B0FF01D2204670BD84F00040FBE7AC
:1011A00010B504464FF07E51204609F0E3FB02D211
:1011B0004FF07E5010BD21464FF07E5009F04CFAA2
:1011C000F8E72DE9FF5FD948B0F9000009F076FB98
:1011D0000746D7480168384609F000FC0546D5485F
:1011E000B0F9000009F06AFB8146D348016848461F
:1011F00009F0F4FB0746D148B0F9000009F05EFBA6
:101200008346CF480168584609F0E8FB8146CD483F
:101210000168CD48006809F0E1FB0390CB48016804
:10122000CB48006809F0DAFB0290CA480168CA4856
:10123000006809F0D3FB0190029909F099F98346FF
:10124000039909F095F98246494609F091F98046DB
:10125000394609F08DF90646294609F089F9044610
:1012600009F0F0FA00B2AC490880B048B0F90000CB
:1012700009F024FB0746AE480168384609F0AEFB8A
:101280000546AC48B0F9000009F018FB8146AA48B1
:101290000168484609F0A2FB0746A848B0F90000DB
:1012A00009F00CFB8346A6480168584609F096FBF6
:1012B0008146A4480168A448006809F08FFB0390A8
:1012C000A2480168A248006809F088FB0190A24882
:1012D000006880F0004B9F480168584609F07EFB8B
:1012E0000090019909F0B2FC0290039909F040F9CD
:1012F0008246494609F0AAFC8046394609F0A6FC18
:101300000646294609F034F9044609F09BFA00B272
:10131000824908808548B0F9000009F0CFFA0746F5
:1013200083480168384609F059FB05468148B0F901
:10133000000009F0C3FA81467F480168484609F079
:101340004DFB07467D48B0F9000009F0B7FA834627
:101350007B480168584609F041FB8146794801689D
:101360007948006809F03AFB0390784801687848AA
:10137000006809F033FB02907748006880F0004075
:10138000009074480168009809F028FB01900299C8
:1013900009F0EEF88346039909F058FC8246494665
:1013A00009F054FC8046394609F0E2F80646294621
:1013B00009F04CFC044609F045FA00B2584908808F
:1013C0005A48B0F9000009F079FA07465848016810
:1013D000384609F003FB05465648B0F9000009F00D
:1013E0006DFA814654480168484609F0F7FA074605
:1013F0005248B0F9000009F061FA8346504801688C
:10140000584609F0EBFA81464E4801684E4800689C
:1014100009F0E4FA03904D4801684D48006809F06E
:10142000DDFA02904B4801684B48006809F0D6FA93
:101430000190029909F00AFC8346039909F006FC21
:101440008246494609F094F88046394609F0FEFB89
:101450000646294609F0FAFB044609F0F3F900B202
:10146000304908802C48B0F90000FFF77BFE2A497C
:1014700008802A48B0F90000FFF774FE2749088069
:101480002748B0F90000FFF76DFE25490880254880
:10149000B0F90000FFF766FE22490880BDE8FF9F13
:1014A00010B51D49B1F9001049421C4AB2F900209B
:1014B00011441B4AB2F9002011441A4AB2F9002023
:1014C000881A09F0FBF9254908601349B1F90010A1
:1014D0004942124AB2F900201144114AB2F90020DF
:1014E000891A104AB2F90020881809F0E7F91C4956
:1014F00008600949B1F900104942084AB2F90020D0
:10150000891A074AB2F900201144064AB2F90020AC
:10151000881827E034040040920000209400002046
:101520009600002098000020D4FEFFFFFC00002061
:1015300048020020FA00002044020020F8000020A9
:10154000400200203C020020E80000203802002079
:10155000E400002034020020E00000209C00002075
:10156000A000002009F0AAF98F49086010BD70B5ED
:101570000021002200238D4C24888D4D2D88641B72
:1015800024B28C4D8C4E367825F816408B4C24882E
:101590008B4D2D88641B24B28A4D874E367825F8F2
:1015A0001640894C2488894D2D88641B25B2884CAF
:1015B000814E367824F8165000200DE07D4C34F929
:1015C000104021447F4C34F910402244804C34F9BF
:1015D00010402344441CE0B20628EFDB062491FBB4
:1015E000F4F424B27B4D2C80062492FBF4F424B254
:1015F000794D2C80062493FBF4F424B2774D2C8093
:101600006D4C2478641C6C4D2C702C462478062C70
:1016100001D100242C7070BD10B50021704AB2F9C0
:101620000020704B704C247823F81420002005E033
:101630006C4A32F910201144421CD0B20628F7DB64
:10164000062291FBF2F212B2684B1A80664A1278B7
:10165000521C654B1A701A461278062A01D10022D4
:101660001A7010BD2DE9F04F89B083468A46504666
:1016700008F052FF80465E4A5E4B08F03DFC024691
:101680000B46CDE9000100205B4908F089FA0646C7
:101690000F46584608F040FF32463B46CDE902016E
:1016A00008F0C2F9CDE90601584608F035FFCDE94A
:1016B0000401DDE9062308F073FA044608F082F914
:1016C0004E49086009B0BDE8F08F2DE9F04144496A
:1016D000B1F90010454AB2F90020881A09F0EEF875
:1016E000074646480168384609F078F905463F48FC
:1016F000B0F9000009F0E2F80646294608F038FF84
:10170000044609F09FF800B238490880BDE8F0812E
:10171000014640F2F460814200DD70470846FCE774
:1017200070B537480068374908603748016837485E
:10173000006808F01DFF35490860354801683348E6
:10174000006808F015FF044621463048006808F09C
:1017500083FF304908602248B0F9000009F0AEF874
:10176000064628480168304609F070FA05462948BF
:101770000168284609F032F90446224801682046EB
:1017800008F0F6FE1E490860224801684FF07E50BE
:1017900009F05CFA04461D480168204609F01EF96C
:1017A0001A49086070BD0000A4000020320000202B
:1017B0003A000020B40300204C0200203400002036
:1017C0003C000020C0030020360000203E00002026
:1017D000CC030020F8000020FA000020FC000020CC
:1017E00030000020D80300204D020020FE00002021
:1017F00097D17E5AFB2119400000F03F00010020E4
:10180000C0010020C4010020B8010020C801002050
:10181000B4010020BC0100207FB505460C46012123
:10182000082005F01CFEADF80850ADF8044000207B
:10183000ADF80A00ADF8060001A9EA4806F0CCF9B7
:1018400001221146E74806F03EFD32208DF80000E7
:1018500001208DF8010000208DF8020001208DF894
:101860000300684606F05BF80121DE4806F010FD33
:101870007FBD10B50121DB4806F0D3FF40B1012147
:10188000D84806F0DFFFD8480068401CD6490860F9
:1018900010BD30B585B005460C460121042005F089
:1018A000DEFD0121082005F0CDFD4FF47070ADF88C
:1018B000100028208DF8130004A9CC4805F006FB81
:1018C0004FF47071C94805F0B0FBADF80850ADF8A1
:1018D00004400020ADF80A00ADF8060001A9C44894
:1018E00006F07AF90020C3490880488001208880EA
:1018F0000020C8800881BE4806F001FC0420BD49D4
:10190000088000204880012088800020C88008814D
:10191000B74806F0F4FB0820B6490880002048804C
:10192000012088800020C8800881B14806F0E7FBCC
:101930000C20B049088000204880012088800020C9
:10194000C8800881AA4806F0DAFB1E208DF8000046
:1019500000208DF801008DF8020001208DF80300B1
:10196000684605F0DCFF01221E21A14806F0ABFC11
:1019700001219F4806F08CFC05B030BD10B59E4893
:10198000007800F08000002846D10221984806F037
:1019900048FF002840D00221954806F053FF9648A2
:1019A000007800F0400040B3914806F01BFF9349D7
:1019B00008800846008892490988884204DA4FF670
:1019C000FF709049086002E000208E4908608B4853
:1019D00000888B490988401A8A49096808448A495D
:1019E00008600846008889490880002082490870FC
:1019F00000217F4806F0FEFD0EE07D4806F0F2FE75
:101A00007F4908807C48007840F040007A4908709F
:101A10000221774806F0EEFD7D48007800F0800056
:101A2000002846D10421724806F0FBFE002840D071
:101A300004216F4806F006FF7548007800F040006A
:101A400040B36B4806F0D1FE724908800846008812
:101A500071490988884204DA4FF6FF706F490860BF
:101A600002E000206D4908606A4800886A490988D8
:101A7000401A6A49096808446949086008460088AC
:101A8000684908800020624908700021584806F023
:101A9000C3FD0EE0564806F0A8FE5F4908805C488A
:101AA000007840F040005A4908700221504806F082
:101AB000B3FD5D48007800F08000002845D1082182
:101AC0004B4806F0AEFE80B30821494806F0BAFE46
:101AD0005548007800F0400040B3454806F088FEC5
:101AE000524908800846008851490988884204DA2A
:101AF0004FF6FF704F49086002E000204D49086032
:101B00004A4800884A490988401A4A4909680844ED
:101B10004949086008460088484908800020424931
:101B200008700021324806F091FD0EE0304806F0C2
:101B30005FFE3F4908803C48007840F040003A4949
:101B4000087002212A4806F081FD3D48007800F027
:101B50008000A8BB1021264806F063FE80B3102148
:101B6000234806F06FFE3648007800F0400040B38E
:101B70001F4806F040FE3349088008460088324975
:101B80000988884204DA4FF6FF703049086002E0A5
:101B900000202E4908602B4800882B490988401AEC
:101BA0002A49096808442A490860084600882949E2
:101BB000088000202249087000210D4806F060FDD1
:101BC0000EE00B4806F017FE1F4908801C480078FD
:101BD00040F040001A4908700221054806F050FD07
:101BE00010BD0000000C004000000020000C01406F
:101BF00000080040E40300205002002054020020AE
:101C00005202002078020020680200208802002092
:101C1000560200205A020020580200207C020020B8
:101C20006C0200208A0200205C020020600200207A
:101C30005E02002080020020700200208C02002042
:101C4000620200206602002064020020840200205C
:101C5000740200208E02002070B505460C4645F245
:101C6000555005F0C5FE284605F0C5FE204605F096
:101C7000C5FE05F0C6FE05F0C9FE70BD10B505F045
:101C8000C0FE10BD08B500208DF8000002208DF8C0
:101C9000010003208DF80200684605F040FE08BDF3
:101CA00070B506460C4615460121C80205F0D7FB63
:101CB000284606F0D6FD204606F0DCFD304606F04C
:101CC000F4FD06F0FDFDFFF7DDFF06F0E4FD70BD5D
:101CD00010B50446204606F0E8FD10BD10B57F2083
:101CE00006F0DDFD06F0ECFD10BD000030B589B05A
:101CF00005460C460121022005F0B1FB012111200F
:101D000005F0A0FB0121294805F0B1F94FF47070EE
:101D1000ADF8200018208DF8230003208DF8220054
:101D200008A9234805F0D2F8ADF81850ADF81440D2
:101D30000020ADF81A00ADF8160005A91D4805F001
:101D40004BFF6020ADF804000120ADF80600002034
:101D5000ADF80A00ADF80C0001A9164805F079FFAE
:101D60000821144806F0C4FB01A9124805F0B3FF8E
:101D70000821104806F0C5FB01A90E4805F0F8FF40
:101D800008210C4806F0CAFB01A90A4806F03BF8F6
:101D90000821084806F0CBFB0121064806F078FB35
:101DA0000121044806F074FA09B030BD000C1A0095
:101DB000001001400004004010B500F0D3FAEE20FE
:101DC00000F088FB00F013FB1E2000F083FB00F006
:101DD0000EFB00F0EBFA10BD70B5012433E000F00B
:101DE000C1FAEE2000F076FB00F001FBA02101EB30
:101DF0004401C8B200F06EFB00F0F9FA00F0D6FA28
:101E0000052004F06AFD00F0ADFAEF2000F062FB5F
:101E1000012004F062FD00F0EAFA012000F089FBE5
:101E20000546012004F059FD002000F082FB064623
:101E300000F0BCFA052004F074FD46EA0520F649DE
:101E400021F81400641C062CC9DDF348008808B989
:101E5000012070BD0020FCE738B50446002500F0E5
:101E600081FAEE2000F036FB00F0C1FA204600F0C7
:101E700031FB00F0BCFA00F099FA092004F051FDA2
:101E8000642004F02AFD00F06DFAEE2000F022FB41
:101E900000F0ADFA002000F01DFB00F0A8FA00F001
:101EA00085FA00F05FFAEF2000F014FB00F09FFAD3
:101EB000012000F03EFB8DF80000012000F039FB0E
:101EC0008DF80100002000F034FB8DF8020000F0D6
:101ED0006DFA9DF8000001049DF8010001EB00205F
:101EE0009DF802104518284638BD10B55820FFF758
:101EF000B3FFCA490860052004F0EFFCC6484089DA
:101F0000C6490968A1EB0020C5490860C24880891C
:101F1000096848434FF4FA6101EBD050C1490860A9
:101F200010BD2DE9F0414820FFF796FFBE4908603B
:101F3000052004F0D2FCB84880880104B648008926
:101F4000B74A1268504301EBD0100021B74A03C2D0
:101F5000B1484088C103B048C088B14A12685043B4
:101F600001EB10200021B24A03C2AF480068083AD2
:101F700018CAA0FB032501FB035100FB0411500DFF
:101F800040EAC1234815A949D1E900219A1A60EB1A
:101F90000100410441EAD230A6490860A148006826
:101FA000B0F5FA6F46DA9E4800684043C017C11783
:101FB000A14A03C29B480068A0F5FA604043401064
:101FC00000EB8000C1179D4A03C296480068A0F547
:101FD000FA604043801000EB8000C117984A03C2AA
:101FE00090480068974988422FDA8E48006800F2CE
:101FF000DC50C0EBC0008B49096801F2DC5148435A
:10200000C1178E4AD2E90032C01851418B4A03C22F
:102010008448006800F2DC504043401000EB40016F
:1020200001EBC000C117864B0CCB80185941844A84
:1020300003C20AE00021804A1160516000207F4AFB
:10204000106050607E4A11605160764800687A499D
:102050000968401A734908607448D0E9002077493C
:10206000D1E90031D21A60EB01007049C1E90020CA
:102070006F48D0E900307249D1E900219A1A60EB2B
:1020800001006B49C1E9002067480068002550C97C
:10209000A0FB041705FB047400FB0644480D40EA4E
:1020A000C4256015614C12CC6D1A60EB0401E80B7D
:1020B00040EA4142C913104608F01BFC624908601F
:1020C000BDE8F0812DE9F0416048006807F08CFB25
:1020D00080465F4908F082FC064607F0CDFA0546C7
:1020E0004FF07E5108F0A8FD04465A4801685A484E
:1020F00008F074FC0746214608F070FC5749086058
:10210000BDE8F08170B556480068564908605648E9
:1021100001685648006808F02BFA54490860544892
:1021200001685248006808F023FA044621464F48E7
:10213000006808F091FA4F4908604A48016847482A
:10214000006808F083FD05464A480168284608F003
:1021500045FC044643480168204608F009FA404916
:102160000860444801684FF07E5008F06FFD044657
:102170003E480168204608F031FC3C49086070BDCB
:102180002DE9F0413C4800683C4908603C48016842
:102190003C48006808F0ECF93A4908603A480168A0
:1021A0003848006808F0E4F90446214635480068DC
:1021B00008F052FA35490860354801682748006838
:1021C00008F044FD074633480168384608F044FAF1
:1021D00006462A480168304608F038FD05462B4877
:1021E0000168284608F0FAFB0446244801682046A6
:1021F00008F0BEF920490860244801684FF07E507D
:1022000008F024FD04461F480168204608F0E6FB5C
:102210001C490860BDE8F0812C0300201401002057
:1022200018010020CC00002010010020080100202F
:102230002801002030010020400100205001002032
:102240005801002024FAFFFFC80000206001002090
:1022500041D3423E64010020A1D81943C4000020AC
:10226000880100208C0100208001002090010020C6
:102270007C01002084010020A0010020A401002096
:1022800098010020A8010020940100209C0100205A
:10229000700100207401002070B51E4800681E49BE
:1022A00008601E4801681E48006808F061F91C4972
:1022B00008601C4801681A48006808F059F904468B
:1022C00021461748006808F0C7F917490860124806
:1022D00001681648006808F0B9FC05461248016814
:1022E000284608F07BFB04460B480168204608F0AE
:1022F0003FF9084908600C4801684FF07E5008F02B
:10230000A5FC044606480168204608F067FB04491E
:10231000086070BDEC010020F0010020E401002005
:10232000F4010020E0010020E8010020C8000020A6
:1023300008B50121042005F085F84FF4C050ADF830
:10234000000010208DF8030003208DF8020069467C
:10235000914804F0BBFD0120904908609049C1F804
:10236000AC0108BD10B58C48001D006820F4704019
:102370008949091D08600846006840F4405008601B
:1023800001208649091F08608549C1F8B001042071
:1023900004F0A3FA00208149091F0860042004F01A
:1023A0009CFA00207E49C1F8B00110BD10B57A48F2
:1023B000001D006820F470407749091D0860084638
:1023C000006840F440500860002074490860744977
:1023D000C1F8AC01042004F080FA01206F490860C4
:1023E0006F49C1F8AC01042004F077FA10BD10B5B4
:1023F00000246948001D006820F470406649091DEA
:1024000008600846006840F4004008600120634905
:10241000091F086004F061FA01206149C1F8B001A8
:1024200004F05BFA07E0601CC4B2FA2C03DDFFF78E
:10243000BDFF012010BD5948843800680028F2D142
:102440005649086000BFF5E710B500205349086001
:102450005148001D006820F470404F49091D086074
:102460000846006840F44050086000204C49C1F81C
:10247000AC01022004F031FA012048490860022032
:1024800004F02BFA00204649C1F8B00110BD10B588
:102490000020424908604048001D006820F4704058
:1024A0003D49091D08600846006840F44050086036
:1024B00001203B49C1F8AC01022004F00EFA0120D2
:1024C00036490860022004F008FA00203449C1F8B7
:1024D000B00110BD70B504462F48001D006820F4FF
:1024E00070402D49091D08600846006840F44050BE
:1024F0000860002029490860002517E0E009274905
:10250000091F08606006040E022004F0E6F90120AD
:102510002349C1F8B001022004F0DFF900201F496F
:102520000860022004F0D9F9681CC5B2082DE5DB6B
:1025300070BD70B5054600241748001D006820F4E2
:1025400070401549091D08600846006840F40040C5
:102550000860002616E0002010490860022004F000
:10256000BCF901200E49C1F8B0016006040E0B4809
:102570008438006808B1601CC4B2012004F0ADF9D1
:10258000701CC6B2082EE6DB15B9FFF780FF01E02C
:10259000FFF75AFF204670BD00080140B0012142FC
:1025A0000000214270B505460C4600F0CDF9D02060
:1025B00000F074FA00F005FA18B100F0E3F9012018
:1025C00070BD284600F06AFA00F0FBF9204600F0E2
:1025D00065FA00F0F6F918B100F0D4F90120EFE740
:1025E00000F0D0F90020EBE770B504460025BC2CC4
:1025F00001DB012510E0622C01DB02250CE02A2C16
:1026000001DB032508E0142C01DB042504E00A2C7F
:1026100001DB052500E0062529461A20FFF7C2FF49
:1026200070BD70B50446B4F57A7F01DD4FF47A745D
:10263000042C00DA04244FF47A7090FBF4F0401E6E
:10264000C5B229461920FFF7ADFF0546264604EB23
:10265000D671C1F34F00FFF7C7FF70BD70B50446D8
:1026600000F072F9D02000F019FA00F0AAF9204623
:1026700000F014FA00F0A5F900F066F9D12000F09E
:102680000DFA00F09EF9002000F031FA054600F046
:1026900079F9284670BD10B50446E006010E1C20ED
:1026A000FFF780FF10BD10B50446E006010E1B20A9
:1026B000FFF778FF10BD10B500F02DF980216B20D9
:1026C000FFF770FF642004F02CF900216B20FFF766
:1026D00069FF0320FFF7E7FF0020FFF7DCFF322050
:1026E000FFF79FFF00213820FFF75CFF00216A20E1
:1026F000FFF758FF00212320FFF754FF80213720E8
:10270000FFF750FF7520FFF7A9FF0446682C0BD197
:1027100001216B20FFF746FF00216C20FFF742FFED
:102720003220FFF77EFF01E0012010BD0020FCE712
:102730002DE9F04106460F4614461D4600F004F907
:10274000002141EA4601C8B200F0A8F900F039F9C9
:1027500020B100F017F90120BDE8F081384600F003
:102760009DF900F02EF900F0EFF8012101EB460190
:10277000C8B200F093F900F024F90DE0012C04D167
:10278000002000F0B4F9287003E0012000F0AFF958
:102790002870601EC4B26D1C002CEFD100F0F2F85E
:1027A0000020D9E72DE9F84F6B460222412168202D
:1027B000FFF7BEFF9DF801009DF8001040EA0120E0
:1027C0000FFA80FA504607F043FB804600224B4B3D
:1027D00007F0E6F906464A4A4A4B07F025F904464F
:1027E00007F0F0F883464849584608F0F7F80446E1
:1027F00008F028F800B2BDE8F88F2DE9FC41044646
:102800000D4616466B46062243216820FFF790FFCF
:102810000746BFB99DF801009DF8001040EA01206D
:1028200000B220809DF803009DF8021040EA0120CC
:1028300000B228809DF805009DF8041040EA0120B0
:1028400000B230803846BDE8FC812DE9FC410446E9
:102850000D4616466B4606223B216820FFF768FFAF
:102860000746BFB99DF801009DF8001040EA01201D
:1028700000B220809DF803009DF8021040EA01207C
:1028800000B228809DF805009DF8041040EA012060
:1028900000B230803846BDE8FC812DE9F0410546A4
:1028A0000E461746984600F04FF8002141EA4501D0
:1028B000C8B200F0F3F800F084F820B100F062F83C
:1028C0000120BDE8F081304600F0E8F800F079F82A
:1028D00000240CE018F8040000F0E0F800F071F8B3
:1028E00018B100F04FF80120EBE7601CC4B2BC4205
:1028F000F0DB00F047F80020E3E7000000407540FF
:10290000A4703D0AD74342400000C84210B50220DF
:1029100003F0E3FF10BD08B50121102004F092FD83
:102920004FF4C050ADF8000010208DF803000320D4
:102930008DF802006946864804F0C8FA4FF4C05189
:10294000834804F070FB08BD10B58148406820F44E
:1029500070407F4948600846406840F440504860F5
:1029600001207C4908607C49C1F8B001FFF7CEFF27
:10297000002078490860FFF7C9FF00207649C1F8B8
:10298000B00110BD10B57248406820F47040704925
:1029900048600846406840F44050486000206D4957
:1029A000091D08606C49C1F8AC01FFF7AFFF0120B9
:1029B0006849091D08606849C1F8AC01FFF7A6FF26
:1029C00010BD10B500246248406820F47040604992
:1029D00048600846406840F40040486001205D4976
:1029E0000860FFF793FF01205B49C1F8B001FFF7D2
:1029F0008DFF07E0601CC4B2FA2C03DDFFF7C2FFB5
:102A0000012010BD5348803800680028F2D1514998
:102A1000091D086000BFF4E710B500204D49091DED
:102A200008604B48406820F47040494948600846B7
:102A3000406840F44050486000204749C1F8AC016C
:102A4000FFF764FF01204349091D0860FFF75EFF9F
:102A500000204149C1F8B00110BD10B500203D492A
:102A6000091D08603A48406820F4704038494860C1
:102A70000846406840F44050486001203649C1F89B
:102A8000AC01FFF743FF01203249091D0860FFF741
:102A90003DFF00203049C1F8B00110BD70B50446BB
:102AA0002B48406820F47040294948600846406837
:102AB00040F44050486000202649091D0860002568
:102AC00012E0E009234908606006040E0120224953
:102AD000C1F8B001FFF71AFF00201E49091D086068
:102AE000FFF714FF681CC5B2082DEADB70BD70B596
:102AF000054600241648406820F470401449486098
:102B00000846406840F400404860002615E0002078
:102B10001049091D0860FFF7F9FE01200E49C1F8B0
:102B2000B0016006040E0B488038006808B1601CD4
:102B3000C4B2FFF7EBFE701CC6B2082EE7DB15B976
:102B4000FFF78BFF01E0FFF767FF204670BD000035
:102B500000100140AC0122420000224238B5044678
:102B6000F74890F82400C0B114B10220009001E0B1
:102B700000200090F24A1268D17BF14A5268107826
:102B80006B460122FFF789FE10B14FF0FF3038BDD0
:102B90009DF80010EA48417423E0E948807A10B9B2
:102BA0004FF0FF30F3E724B1E548407C08B1002046
:102BB000EDE714B10120009001E000200090E04A10
:102BC0001268D17BDE4A526810786B460122FFF70B
:102BD00064FE10B14FF0FF30D9E79DF80010D848DF
:102BE00041740020D3E738B500241FE0D4480068C2
:102BF000C07AA04204D0D2480068407DA04200D1F3
:102C000012E0CF49496808786B4601222146FFF758
:102C10008FFD10B14FF0FF3038BD9DF800202146E8
:102C2000C8A005F07DFE00BF601CC4B2C448406867
:102C30000079A042DADC0020EEE770B504460D46CC
:102C4000BF480068C07AA04204D0BD480068407DFB
:102C5000A04202D14FF0FF3070BDB9484068007902
:102C6000A04202DC4FF0FF30F6E7B549496808782A
:102C70002B4601222146FFF75BFDEDE738B5044600
:102C8000AF4890F82300A04201D1002038BD14B114
:102C90003020009001E000200090A948807C20B105
:102CA0009DF8000040F002000090A54890F8220036
:102CB00020B19DF8000040F080000090A04A12680A
:102CC000117D9F4A526810786B460122FFF7E5FD9F
:102CD00010B14FF0FF30D9E7994880F82340002029
:102CE000D4E738B5044604F0700010B1012000901C
:102CF00005E014B10020009001E040200090904ACF
:102D00001268917C8E4A526810786B460122FFF758
:102D1000C4FD20B100218A488172481E38BD9DF84B
:102D2000000020F04001864801730020009004F06C
:102D3000400020B99DF8000040F00400009004F02D
:102D4000200020B99DF8000040F00200009004F03F
:102D5000100020B99DF8000040F00100009004F040
:102D6000080020B99DF8000040F038000090744A37
:102D70001268D17C724A526810786B460122FFF7C4
:102D80008CFD20B100216E488172481EC6E724B137
:102D9000082C02D00020FFF771FF694884720021DF
:102DA0000175322003F0BDFD0020B7E738B50446B9
:102DB0006348807CA04201D1002038BD002C46D061
:102DC0005F4A126811795E4A526810786B46012298
:102DD000FFF7AEFC10B14FF0FF30EEE79DF80000BA
:102DE00020F020000090564A12681179544A526827
:102DF00010786B460122FFF750FD10B14FF0FF3005
:102E0000DBE7032003F08DFD022000904C4890F892
:102E1000220020B19DF8000040F08000009048485A
:102E200090F8230020B19DF8000040F030000090A1
:102E3000434A1268117D424A526810786B4601225B
:102E4000FFF72BFD002851D04FF0FF30B5E73C4A8B
:102E5000126811793A4A526810786B460122FFF7DE
:102E600067FC10B14FF0FF30A7E73548807A00F0DB
:102E7000010028B19DF8000040F02000009004E01F
:102E80009DF8000020F0200000902D4A1268117972
:102E90002B4A526810786B460122FFF7FEFC10B1F6
:102EA0004FF0FF3089E7032003F03BFD244890F802
:102EB000220010B18020009001E000200090204806
:102EC00090F8230020B19DF8000040F03000009001
:102ED0001B4A1268117D1A4A526810786B4601220B
:102EE000FFF7DBFC10B14FF0FF3066E71448847445
:102EF000002062E708B51248807A10B94FF0FF3021
:102F000008BD002000900E4A1268D17B0C4A52681E
:102F100010786B460122FFF7C0FC10B14FF0FF3074
:102F2000EEE7074A12685179054A526810786B46F5
:102F30000122FFF7B2FC68B14FF0FF30E0E700007C
:102F400090020020252335783A20252335780D0A74
:102F500000000000FB4A12681179FA4A52681078A2
:102F60006B460122FFF799FC10B14FF0FF30C7E725
:102F7000F44890F82400002850D00C200090F14A2A
:102F800012681179EF4A526810786B460122FFF7F8
:102F900084FC10B14FF0FF30B2E7C0200090E94848
:102FA000807A00F0010020B19DF8000040F0200080
:102FB0000090E44A12681179E24A526810786B4630
:102FC0000122FFF76AFC10B14FF0FF3098E7DD48AF
:102FD000407C10B10220009001E000200090D94A0E
:102FE0001268D17BD74A526810786B460122FFF7EE
:102FF00054FC10B14FF0FF3082E700200090D14A1E
:1030000012685179CF4A526810786B460122FFF757
:1030100044FC002855D04FF0FF3071E704200090A9
:10302000C84A12681179C74A526810786B46012263
:10303000FFF733FC10B14FF0FF3061E7C148807CEF
:1030400020B9C048807A00F0010010B940200090FB
:1030500001E060200090BB4A12681179B94A5268B9
:1030600010786B460122FFF718FC10B14FF0FF30CB
:1030700046E7322003F055FCB248407C10B10120F5
:10308000009001E000200090AE4A1268D17BAD4A6A
:10309000526810786B460122FFF7FFFB10B14FF02A
:1030A000FF302DE7A74A12685179A64A5268107876
:1030B000A44B10330122FFF7F0FB10B14FF0FF30AB
:1030C0001EE700201CE770B50446002624F001042A
:1030D0009C4890F8240008B1002070BD9948807A7F
:1030E00010B94FF0FF30F8E79648057C807A204011
:1030F000944908740846007CA04202D04FF0FF3685
:1031000000E0002614B98F48007D18B10120FFF7B8
:1031100025FD02E00020FFF721FD3CB1FFF7EAFEAC
:1031200020B1884805744FF0FF30D6E73046D4E729
:1031300038B504468348807A10B94FF0FF3038BD67
:10314000BC2C02DB0120009015E0622C02DB022087
:10315000009010E02A2C02DB032000900BE0142CDE
:1031600002DB0420009006E00A2C02DB0520009020
:1031700001E0062000907348C07A9DF80010884254
:1031800001D10020DBE76F4A126891786D4A5268DE
:1031900010786B460122FFF780FB10B14FF0FF3033
:1031A000CDE79DF800106748C1720020C7E738B529
:1031B0000446282C02DD4FF0FF3038BDDCB900207A
:1031C000FFF75CFD00208DF8000007208DF801005E
:1031D0005C4A1268917C5B4A526810786B46022206
:1031E000FFF75BFB10B14FF0FF30E6E700215548D9
:1031F00001750020E1E70120FFF740FD20208DF858
:103200000000012C06D100208DF801000520FFF7F9
:103210008FFF17E0052C06DC01208DF8010005204A
:10322000FFF786FF0EE0142C06DC02208DF801006B
:103230000A20FFF77DFF05E003208DF80100142030
:10324000FFF776FF9DF80100072101EB8010C0B267
:103250008DF801003B4A1268917C3A4A5268107816
:103260006B460222FFF719FB10B14FF0FF30A4E7C5
:103270000821344881720021017301210175002069
:10328000FFF721FF002098E738B504462D48807AE3
:1032900010B94FF0FF3038BD2A4890F8240010B123
:1032A0004FF0FF30F7E72748007D50B134B1282CAC
:1032B00004DCE0B2FFF77BFF0020ECE70020FFF723
:1032C00076FF042C01DA042404E0B4F57A7F01DDF2
:1032D0004FF47A744FF47A7090FBF4F0401EC0B251
:1032E0000090184A12685178164A526810786B4656
:1032F0000122FFF7D2FA10B14FF0FF30CBE79DF873
:103300000000401C4FF47A7191FBF0F081B20D483F
:10331000C1810146C9894810FFF70AFF0020BAE7BA
:1033200038B504460748807A10B94FF0FF3038BDF1
:10333000022C09D0042C0AD0082C0BD0102C0FD151
:103340000BE0000090020020002000900BE008201D
:10335000009008E01020009005E01820009002E0A6
:103360004FF0FF30E3E700BFF848407A9DF80010C7
:10337000B0EBE10F01D10020D9E7F44A1268D1790E
:10338000F24A526810786B460122FFF786FA10B1B4
:103390004FF0FF30CBE79DF80000C110EB484172C1
:1033A0000020C4E738B50446E848807A10B94FF0E9
:1033B000FF3038BDFA2C09D0B4F5FA7F09D0B4F546
:1033C0007A7F09D0B4F5FA6F0CD108E000200090A4
:1033D0000BE00820009008E01020009005E0182085
:1033E000009002E04FF0FF30E3E700BFD748007ADB
:1033F0009DF80010B0EBE10F01D10020D9E7D34ACE
:1034000012689179D14A526810786B460122FFF711
:1034100044FA10B14FF0FF30CBE79DF80000C01028
:10342000CA4908720020C4E71CB580208DF800004E
:10343000C64A1268917CC54A526810786B460122D0
:10344000FFF72BFA10B14FF0FF301CBD642003F0E2
:1034500068FA00208DF80000BC4A1268917CBB4AD3
:10346000526810786B460122FFF717FA10B14FF03F
:10347000FF30EAE7B54A1268917DB44A5268107885
:103480006B460622FFF754F910B14FF0FF30DCE72E
:103490009DF80500C007400F9DF8031001F00101E1
:1034A00040EA41009DF8011001F0010140EA0104E9
:1034B00094B1012C03D10121A448C17431E0022C44
:1034C00003D10021A148C1742BE02146A0A005F042
:1034D00027FA4FF0FF30B8E79C4A1268D1789B4A30
:1034E000526810786B460122FFF722F910B14FF0B5
:1034F000FF30AAE79DF8000000F00F042CB99E48A9
:1035000005F00EFA4FF0FF309FE7042C06D19BA088
:1035100005F006FA01218D48C17402E000218B48B4
:10352000C174FF2189488172FF2088490872FF21F8
:1035300086484172C1724FF6FF71C181FF2101744B
:1035400081740121017380F82210002180F823107A
:10355000417501751630016041608160163880F850
:10356000241080F82510C1844FF4FA60FFF71AFF89
:1035700010B14FF0FF3068E70220FFF7D1FE10B125
:103580004FF0FF3061E72A20FFF7D2FD10B14FF076
:10359000FF305AE73220FFF777FE10B14FF0FF30CF
:1035A00053E70020FFF78FFD10B14FF0FF304CE7DD
:1035B0000020FFF7FBFB10B14FF0FF3045E7002084
:1035C000FFF78FFB002040E770477CB504460D46AF
:1035D0005E48807A00F0700010B94FF0FF307CBD7B
:1035E0005A4A1268117B594A526810786B46062273
:1035F000FFF79EF810B14FF0FF30F0E79DF80100A3
:103600009DF8001040EA012000B220809DF80300E0
:103610009DF8021040EA012000B260809DF805008C
:103620009DF8041040EA012000B2A08015B12846A0
:10363000FFF7CAFF0020D2E77CB504460D46434899
:10364000807A00F0080010B94FF0FF307CBD3F4A8F
:103650001268517B3D4A526810786B460622FFF78C
:1036600067F810B14FF0FF30F0E79DF801009DF8CA
:10367000001040EA012000B220809DF803009DF870
:10368000021040EA012000B260809DF805009DF81C
:10369000041040EA012000B2A08015B12846FFF7CF
:1036A00093FF0020D2E72DE9FE4F05460C46274840
:1036B000807A18B94FF0FF30BDE8FE8F234A1268B8
:1036C000917B224A5268107802AB0222FFF730F851
:1036D00010B14FF0FF30EFE79DF809009DF808109A
:1036E00040EA012006B214B12046FFF76DFF1749EA
:1036F0004968C88807F02AF9144901904968B1F966
:10370000080007F0DBF88346304607F0D7F8594643
:10371000009007F09BFA8246019906F09DFF8146D2
:103720001E4906F025FF80464FF08F4107F056F9FD
:10373000074607F087F828600020BDE710B588B07D
:1037400004466CBB4FF0FF3008B010BD9002002063
:10375000556E737570706F7274656420736F6674E4
:10376000776172652070726F64756374207265761C
:103770002025642E0A00000058BC000848616C66D1
:103780002073656E736974697669747920706172EB
:103790007420666F756E642E0A00000000000C42F3
:1037A000FFE7206830B9606820B9A06810B9002030
:1037B00008B010BDFA494968087806AB03221146E3
:1037C000FEF7B6FF10B14FF0FF30F1E79DF818009B
:1037D000082101EB201000F00F00ADF800009DF86B
:1037E000190001EB201000F00F00ADF802009DF869
:1037F0001A0001EB201000F00F00ADF80400206863
:103800004100BDF90000403091FBF0F000B2ADF88E
:10381000100060684100BDF90200403091FBF0F0FB
:1038200000B2ADF81200A0684100BDF904004030BC
:1038300091FBF0F000B2ADF81400D949496808785E
:1038400006AB06221146FEF773FF10B14FF0FF30B2
:10385000AEE79DF819009DF8181040EA012000B26B
:10386000ADF808009DF81B009DF81A1040EA0120F1
:1038700000B2ADF80A009DF81D009DF81C1040EA4A
:10388000012000B2ADF80C00BDF81000BDF8081022
:10389000084400B2ADF81000BDF81200BDF80A10DF
:1038A000084400B2ADF81200BDF81400BDF80C10C9
:1038B000084400B2ADF81400BDF81000000A8DF8FD
:1038C0001800BDF81000C0B28DF81900BDF8120044
:1038D000000A8DF81A00BDF81200C0B28DF81B0066
:1038E000BDF81400000A8DF81C00BDF81400C0B229
:1038F0008DF81D00AA494968087806AB06221146D2
:10390000FEF7CBFF10B14FF0FF3051E700204FE73B
:103910000146A348007A30B1012807D0022809D017
:1039200003280FD10AE0FA2008800EE04FF4FA7065
:1039300008800AE04FF47A70088006E04FF4FA60DD
:10394000088002E00020088000BF00BF0020704710
:1039500001469348407A30B1012807D0022808D0A8
:1039600003280CD108E0022008700BE00420087046
:1039700008E00820087005E01020087002E04FF011
:10398000FF30704700BF8648C07C18B108784006F9
:10399000000E08700020F4E701468148C07A08282C
:1039A00017D2DFE800F01704070A0D101318BC2027
:1039B000088013E06220088010E02A2008800DE0D3
:1039C000142008800AE00A20088007E0052008800B
:1039D00004E000BF00BF0020088000BF00BF00203F
:1039E000704701466E4890F8240010B14FF0FF3048
:1039F00070476B48C08908800020F9E70146002025
:103A00000880401E704701464FF0FF307047014666
:103A10006348007A30B1012807D0022808D0032873
:103A20000CD108E05F4808600BE05F48086008E0E0
:103A30005E48086005E05E48086002E04FF0FF3035
:103A4000704700BF0020FBE701465548407A30B17F
:103A5000012808D002280AD0032810D10BE04FF427
:103A6000804008800EE041F69C7008800AE04FF428
:103A70008050088006E04FF40060088002E04FF0BC
:103A8000FF30704700BF4648C07C10B10888401026
:103A900008800020F5E701464148007C08700020BE
:103AA000704701463E48807A10B10120087001E05D
:103AB000002008700020704738B504463848807AE6
:103AC00010B94FF0FF3038BD354A1268117C344AC6
:103AD000526810786B460222FEF72AFE10B14FF0B2
:103AE000FF30F0E79DF801009DF8001040EA01204A
:103AF00000B220800020E6E72DE9FE4F0746884609
:103B000092461D46DDF830B000260024244890F887
:103B1000240010B1601EBDE8FE8F002028702048F0
:103B2000807A10B94FF0FF30F5E71D48007C10B9DE
:103B30004FF0FF30EFE71A48007C00F0400008B17A
:103B4000B01CC6B21648007C00F0200008B1B01CC2
:103B5000C6B21348007C00F0100008B1B01CC6B219
:103B60000F48007C00F0080008B1B01DC6B20C4A36
:103B70001268917A0A4A526810786B460222FEF760
:103B8000D7FD10B14FF0FF30C5E79DF801009DF85B
:103B9000001040EA0129B1450CDA0020BBE7000023
:103BA00090020020000003430000834233330342AD
:103BB00033338341FC4840684088B9EB600F17DD20
:103BC000F94A1268517CF84A526810786B46012213
:103BD000FEF7AEFD10B14FF0FF309CE79DF80000FE
:103BE00000F0100020B1FFF785F96FF0010092E7B7
:103BF0005046FFF7E9FCEC4A1268D17AEA4A52686B
:103C000010786B463246FEF793FD10B14FF0FF304F
:103C100081E799FBF6F0401E8BF800000020287029
:103C2000B4422AD0E048007C00F0080028B3601CB1
:103C30001DF800001DF8041040EA012000B2A8F8A9
:103C40000000E01C1DF80010A01C1DF8000041EA57
:103C5000002000B2A8F80200601D1DF80010201D11
:103C60001DF8000041EA002000B2A8F804002878FE
:103C700040F008002870A01D84B2B44213D0CA4896
:103C8000007C00F0400070B1601C1DF800001DF8C1
:103C9000041040EA012000B23880287840F040004B
:103CA0002870A01C84B2B44213D0BF48007C00F03E
:103CB000200070B1601C1DF800001DF8041040EADF
:103CC000012000B27880287840F020002870A01CE5
:103CD00084B2B44213D0B448007C00F0100070B13C
:103CE000601C1DF800001DF8041040EA012000B21D
:103CF000B880287840F010002870A01C84B2002002
:103D000009E7F8B504460F461646A74890F8240080
:103D100010B94FF0FF30F8BDA348807A10B94FF0CA
:103D2000FF30F8E7A04A1268917A9F4A52681078EB
:103D30006B460222FEF7FCFC10B14FF0FF30EAE7C1
:103D40009DF801009DF8001040EA0125A54203DA24
:103D500000203070401EDEE7934840684088B5EB95
:103D6000600F17DD904A1268517C8F4A52681078B4
:103D70006B460122FEF7DCFC10B14FF0FF30CAE7C2
:103D80009DF8000000F0100020B1FFF7B3F86FF0CD
:103D90000100C0E7E2B2844B1B68D97A824B5B68B2
:103DA00018783B46FEF7C4FC10B14FF0FF30B2E785
:103DB00095FBF4F0401E30700020ACE701467A48D5
:103DC00080F82210002070477CB505467649496886
:103DD000087801AB04220D21FEF7AAFC08B10720E8
:103DE0007CBD9DF80700C0F301109DF8041001F0A0
:103DF000E00140EAE1008DF800009DF80700C0F303
:103E000081009DF8051001F0E00140EAE1008DF825
:103E100001009DF8070000F003009DF8061001F076
:103E2000E00140EAE1008DF8020000241CE01DF8EA
:103E3000040018B9002045F8240013E05B4845F859
:103E4000240006E055F82400594906F0C7FD45F85E
:103E500024001DF80400401EC0B20DF80400002824
:103E6000F0D100BF601CC4B2032CE0DB0020B7E738
:103E70002DE9FE4F06460F4600256846FFF7A4FFD2
:103E8000002442E056F8240057F82410A0EB010A61
:103E9000BAF1000F01DB514601E0CAF1000108460A
:103EA00006F00CFD83464FF08F4106F0D5FB8046AF
:103EB0005DF82400002106F091FC16D05DF8241076
:103EC000404606F0C9FB82464FF07E5106F0BEFE2A
:103ED000814629F0004A3748416A504606F04AFEBA
:103EE00012D20120A04005430EE03248C16940468D
:103EF00006F040FD05D32F48016A404606F03AFE21
:103F000002D20120A0400543641C032CBADB2846E2
:103F1000BDE8FE8F2DE9FC5F06460F4600252249CD
:103F20004968087801AB03220D21FEF701FC10B1AE
:103F30000720BDE8FC9F9DF8040000F01F008DF8ED
:103F400004009DF8050000F01F008DF805009DF8A5
:103F5000060000F01F008DF80600002462E056F80D
:103F6000240057F82410A0EB010BBBF1000F01DB7C
:103F7000594601E0CBF10001084606F09FFC4FF0E6
:103F80008F41009006F068FB814601A8005DC0B338
:103F90000849086806F0DAFC83465946064806F0E8
:103FA0005BFB80460FE00000900200207B14AE3ED9
:103FB0001D5A843F9CAE000800B04C45FE49404667
:103FC00006F00CFD804601A8005D401EC0B201A9AC
:103FD00008550028F2D14146484606F03DFB83468D
:103FE0004FF07E5106F032FE82462AF0004BF34835
:103FF0008169584606F0BEFD13D20120A04005435A
:104000000FE0FFE7ED480169484606F0B3FC05D331
:10401000EA484169484606F0ADFD02D20120A040C1
:104020000543641C032C9ADB284682E72DE9F04FF8
:1040300087B005460C46914601208DF810000020FF
:104040008DF81100DE4A1268917CDD4A52681078C2
:1040500004AB0222FEF721FC20B14FF0FF3007B085
:10406000BDE8F08FC82002F05CFC00208DF8100045
:10407000D34A1268D17BD24A5268107804AB01222D
:10408000FEF70BFC10B14FF0FF30E8E7CC4A1268A6
:104090005179CB4A5268107804AB0122FEF7FDFB40
:1040A00010B14FF0FF30DAE7C54A1268917CC44A7C
:1040B0005268107804AB0122FEF7EFFB10B14FF00D
:1040C000FF30CCE7BE4A1268D17DBD4A52681078F5
:1040D00004AB0122FEF7E1FB10B14FF0FF30BEE769
:1040E000B74A12681179B64A5268107804AB0122B7
:1040F000FEF7D3FB10B14FF0FF30B0E70C208DF886
:104100001000AF4A12681179AD4A5268107804ABBA
:104110000122FEF7C2FB10B14FF0FF309FE70F20E6
:1041200002F0FFFBA648806A407A8DF81000A44A8E
:1041300012689178A24A5268107804AB0122FEF707
:10414000ACFB10B14FF0FF3089E79D48806A007AE0
:104150008DF810009A4A12685178994A526810787E
:1041600004AB0122FEF799FB10B14FF0FF3076E768
:10417000B9F1000F07D09248806A807A40F0E000E1
:104180008DF8100004E08E48806A807A8DF8100067
:104190008B4A126891798A4A5268107804AB0122DE
:1041A000FEF77BFB10B14FF0FF3058E7B9F1000F7D
:1041B00007D08348806AC07A40F0E0008DF8100094
:1041C00003E07E48C07A8DF810007D4A1268D179EC
:1041D0007B4A5268107804AB0122FEF75EFB10B1F7
:1041E0004FF0FF303BE7B9F1000F02D0C82002F0DA
:1041F00098FB40208DF81000714A12681179704ABE
:104200005268107804AB0122FEF747FB10B14FF063
:10421000FF3024E778208DF81000694A1268517940
:10422000674A5268107804AB0122FEF736FB10B1E2
:104230004FF0FF3013E76149888902F072FB0020DC
:104240008DF810005E4A126851795D4A5268107804
:1042500004AB0122FEF721FB10B14FF0FF30FEE668
:10426000574A1268917A564A5268107804AB022273
:10427000FEF75EFA10B14FF0FF30F0E69DF8110046
:104280009DF8101040EA012B0C209BFBF0F0C6B209
:104290000020A86068602860A0606060206082469E
:1042A00065E0474A1268D17A454A5268107804ABF3
:1042B0000C22FEF73DFA10B14FF0FF30CFE69DF82B
:1042C00011009DF8101040EA012000B2ADF808007E
:1042D0009DF813009DF8121040EA012000B2ADF8DD
:1042E0000A009DF815009DF8141040EA012000B264
:1042F000ADF80C00BDF90810206808442060BDF935
:104300000A10606808446060BDF90C10A068084499
:10431000A0609DF817009DF8161040EA012000B239
:10432000ADF800009DF819009DF8181040EA012032
:1043300000B2ADF802009DF81B009DF81A1040EA8B
:10434000012000B2ADF80400BDF90010286808444F
:104350002860BDF90210686808446860BDF904105F
:10436000A8680844A8600AF1010000F0FF0AB245FD
:1043700097DB1248D0F800C02868C117090441EA49
:104380001041070462460023384604F0A4FA32467E
:104390000023CDE9020104F09EFA28600748D0F816
:1043A00000C06868C117090441EA10410704624669
:1043B0000023384606E0000054E3853F9CAE000829
:1043C0009002002004F087FA32460023CDE9020172
:1043D00004F081FA6860FE48D0F800C0A868C117F0
:1043E000090441EA1041070462460023384604F0FC
:1043F00072FA32460023CDE9020104F06CFAA8609B
:10440000F348D0F804C02168C817000440EA1148F6
:104410000F04624600233846414604F05CFA3246F7
:104420000023CDE9020104F056FA2060E848D0F8F4
:1044300004C06068C117090441EA104107046246DC
:104440000023384604F047FA32460023CDE9020142
:1044500004F041FA6060DE48D0F804C0A068C117DB
:10446000090441EA1041070462460023384604F07B
:1044700032FA32460023CDE9020104F02CFAA060A2
:10448000A068002804DDA068A0F58030A06003E0EB
:10449000A06800F58030A0600020E0E538B5044653
:1044A000CC4890F82400A04201D1002038BD24B3AC
:1044B000C84890F8250010B94FF0FF30F6E700200B
:1044C000FEF74CFB0020FEF771FCC249C88CFEF7DA
:1044D000DBFE00200090BF49496808786B46012246
:1044E0002321FEF7DAF90121BA4880F824100120CF
:1044F000FEF734FBFEF7FEFC13E00020FEF72EFB78
:10450000B448007C0090B349496808786B460122A2
:104510002321FEF7C2F90021AE4880F82410FEF7EF
:10452000E9FC0020C2E72DE9F04F8DB083460F462D
:1045300002200C90A74890F8240020B10020FFF73B
:10454000ADFF012600E0002603A8FFF7E1F905A86A
:10455000FFF7FEF901A8FFF71FFA02A8FFF741FADB
:104560009C4890F80AA004A8FFF795FA002407E0F9
:10457000002239465846FFF759FD00B902E0641C95
:10458000022CF5DB00BF022C01D1002528E000241D
:1045900007E0012206A909A8FFF748FD00B902E0DB
:1045A000641C022CF5DB00BF022C01D1002517E0B2
:1045B00006A93846FFF75CFC00F0FF0809A9584639
:1045C000FFF7A8FC00F0FF090025B9F1000F01D1A9
:1045D00045F00105B8F1000F01D145F0020500BF1B
:1045E000FF207C490872FF217A484172C1724FF660
:1045F000FF71C181FF218172017401210173BDF836
:104600000C00FEF7CFFE9DF81400FEF789FEBDF802
:104610000400FEF78DFDBDF80800FEF735FE50469C
:10462000FEF75FFB9DF81000FEF74DFD16B101206F
:10463000FFF734FF28460DB0BDE8F08FF8B504460B
:104640000D46164616B94FF0FF30F8BD6148807A26
:1046500010B94FF0FF30F8E720128DF80000E0B2FB
:104660008DF801009DF8010028445A49496849899C
:10467000884202DD4FF0FF30E7E7564A1268117EAC
:10468000544A526810786B460222FEF706F910B1C0
:104690004FF0FF30D9E7EAB24E4B1B68597D4D4BC6
:1046A0005B6818783346FEF7F8F810B14FF0FF302A
:1046B000CBE70020C9E7F8B504460D46164616B903
:1046C0004FF0FF30F8BD4348807A10B94FF0FF300B
:1046D000F8E720128DF80000E0B28DF801009DF897
:1046E000010028443B4949684989884202DD4FF06E
:1046F000FF30E7E7374A1268117E364A5268107871
:104700006B460222FEF7C9F810B14FF0FF30D9E72F
:10471000EAB2304B1B68597D2E4B5B6818783346E4
:10472000FEF706F810B14FF0FF30CBE70020C9E7E5
:104730002DE9F04385B005460E469046994625483A
:1047400090F8250020B14FF0FF3005B0BDE8F083B0
:1047500016B94FF0FF30F8E7002423E0281B10289B
:1047600001DD102000E0281B87B2321939462046AF
:10477000FFF764FF10B14FF0FF30E6E701AA3946BA
:104780002046FFF798FF10B14FF0FF30DDE73019FA
:104790003A4601A904F0FCF910B16FF00100D4E72A
:1047A000E01984B2AC42D9DB4FEA28208DF8000032
:1047B00008F0FF008DF80100064A1268917E054A54
:1047C000526810786B460222FEF767F838B103E0B2
:1047D0009CAE0008900200204FF0FF30B5E70121A9
:1047E000FE4880F82510A0F826900020ADE701468D
:1047F000FA4890F824000870002070474FF0FF300E
:10480000704702464FF0FF30704701464FF0FF30CF
:104810007047F8B505460F461446002C70D0B5F524
:10482000FF5F01DDFF2605E0202D01DA012601E012
:10483000C5F3471607B90127282C02DD4FF0FF30DA
:10484000F8BDE648407D28BBE44890F8240038B124
:104850000020FFF723FE0121E04880F8201003E04C
:104860000021DE4880F82010DC481630FFF750F8B1
:10487000DA481830FFF76CF8D8481A30FFF78CF890
:10488000D6481C30FFF7ADF8D448817A81771F30C5
:10489000FFF701F90020FEF761F90020FEF787FC21
:1048A00000208DF80000CD4A12689178CB4A5268FA
:1048B00010786B460122FDF7F0FF10B14FF0FF308A
:1048C000BEE740208DF80000C44A1268D17BC34A7D
:1048D000526810786B460122FDF7DFFF00B165E0FA
:1048E0008DF800608DF80170BC4A1268117ABB4ADD
:1048F000526810786B460222FDF7CFFF08B155E0F1
:1049000047E0052002F00DF8B448407A072101EB9A
:10491000C000C0B28DF80000B04A1268D179AF4A29
:10492000526810786B460122FDF7B7FF00B13DE0F9
:1049300020208DF80000012C03D100208DF801000B
:104940000EE0052C03DC01208DF8010008E0142C9A
:1049500003DC02208DF8010002E003208DF8010045
:104960009DF80100072101EB8010C0B28DF8010015
:104970009A4A1268917C994A526810786B460222D2
:10498000FDF78BFF00B111E0012194484175002033
:1049900056E7924A1632002103E0505C00B105E070
:1049A000491C0C29F9D34FF0FF3049E7FF208B4910
:1049B0000872FF2189484172C1724FF6FF71C181AF
:1049C000FF2181720174012101730146887FFEF786
:1049D00088F98249C88AFEF7E5FC8049087EFEF71F
:1049E0009FFC7E49488BFEF7A3FB7C49888BFEF732
:1049F0004BFC7A49C87FFEF766FB784890F82000A8
:104A000010B10120FFF74AFD0021744841750020D4
:104A100016E770B588B002A905A8FFF784FD044623
:104A2000032C3ED101A8FEF7F2FF059805F046FFE2
:104A30000646019905F0D2FF054605F003FF0590F3
:104A4000069805F03BFF0646019905F0C7FF0546AD
:104A500005F0F8FE0690079805F030FF064601992C
:104A600005F0BCFF054605F0EDFE079005A800F037
:104A700054FA6846FEF7E8FFBDF800100298484374
:104A80000290BDF80010039848430390BDF8001051
:104A900004984843049002A800F0D2FA002008B01D
:104AA00070BD0120FBE7014691F90020002A01DDDD
:104AB00000201EE091F90020002A01DA042018E00D
:104AC00091F90120002A01DD012012E091F9012075
:104AD000002A01DA05200CE091F90220002A01DD0C
:104AE000022006E091F90220002A01DA062000E007
:104AF0000720704710B504462046FFF7D4FF034651
:104B0000E01CFFF7D0FF43EAC00083B2A01DFFF70F
:104B1000CAFF43EA801083B2184610BD70B5002466
:104B2000FDF7F9FEFEF780FC002840D17820FEF763
:104B3000D8F8C4B20CB1012070BD7820FEF7C3FADA
:104B4000C4B20CB10220F7E76420FEF79DFBC4B2AB
:104B50000CB10320F0E700F045F9C4B20CB1042019
:104B6000EAE71F48FFF7C6FF054600F045F9C4B263
:104B70000CB10520E0E740F2731000F07EFDC4B2F6
:104B80000CB10620D8E7642000F0F0FAC4B20CB1F2
:104B90000720D1E7FFF73DFF04460CB10820CBE723
:104BA0000120FFF77BFCC4B21CB10920C4E70A2036
:104BB000C2E70020C0E72DE9F04F99B004460D464A
:104BC00016464FF07E574FF000084FF000094FF0A7
:104BD000000A12A813A918AB0EAA03E09002002045
:104BE000BC020020CDE9001014A916A800F0A4FE14
:104BF00018B1012019B0BDE8F08FBDF84C0000F4E9
:104C0000807000287ED00E9805F058FE83464FF045
:104C10009D4105F021FD07460F9805F04FFE8346A4
:104C20004FF09D4105F018FD8046109805F046FEB6
:104C300083464FF09D4105F00FFD8146119805F028
:104C40003DFE83464FF09D4105F006FD8246394604
:104C50004FF0804005F0C2FE4946059005F0BEFECB
:104C6000414607904FF0404005F0B8FE5146059090
:104C700005F0B4FE0690079905F07AFC834605F02E
:104C80004BFCCDE9080104F0EFF94FF06632544BCC
:104C9000CDE90A0105F030F9CDE90C0104F092FEEE
:104CA000206049464FF0804005F098FE494602904A
:104CB00005F094FE414604904FF0404005F08EFE12
:104CC0004146029005F08AFE0390049905F0BEFF6C
:104CD00083464FF07E5105F04BFC059005F01CFC1F
:104CE000CDE9080139464FF0804005F077FE414696
:104CF000039005F073FE494604904FF0804005F0A4
:104D00006DFE00E068E05146039005F067FE8346C3
:104D1000049905F02DFC059005F0FEFBCDE9060198
:104D2000DDE9082304F0E8FB4FF066322C4BCDE9B7
:104D30000A0105F0E1F8CDE90C0104F043FE28601A
:104D40005146504605F04AFE49460490484605F053
:104D500045FE41460390404605F040FE394601902D
:104D6000384605F03BFE0090019905F001FC0290E9
:104D7000039905F06BFF8346049905F067FF0590E2
:104D800005F0CAFBCDE908015146384605F026FE7C
:104D900049460490404605F021FE0390049905F031
:104DA000E7FB4FF08041059005F018FE834605F0C3
:104DB000B3FBCDE90601DDE9082304F09DFB4FF0CC
:104DC0006632074BCDE90A0105F096F8CDE90C01F2
:104DD00004F0F8FD306001E002200BE7002009E755
:104DE00066A64C4010B5C8234FF48062F74940F6E0
:104DF000F630FFF79DFC10BD10B586B00446F4A058
:104E000000680390F3A000680290F3A0006801908E
:104E1000F2A00068009004F0030003A9085C8DF87C
:104E2000140003A8C4F3C101405C8DF8150003A869
:104E3000C4F38111405C8DF8160004F0030002A950
:104E4000085C8DF8100002A8C4F3C101405C8DF825
:104E5000110002A8C4F38111405C8DF8120005AA6C
:104E6000032140F22640FFF7E9FB18B14FF0FF3075
:104E700006B010BD04AA032140F22A40FFF7DEFB72
:104E800010B14FF0FF30F3E70198059000980490BF
:104E900004F0040058B19DF8140040F001008DF8B2
:104EA00014009DF8100040F001008DF8100004F08F
:104EB000200058B19DF8150040F001008DF8150054
:104EC0009DF8110040F001008DF8110004F480708D
:104ED00058B19DF8160040F001008DF816009DF8BD
:104EE000120040F001008DF8120005AA03214FF4D2
:104EF0008860FFF7A3FB10B14FF0FF30B8E704AABA
:104F0000032140F23140FFF799FB10B14FF0FF3021
:104F1000AEE7B34804810020AAE71FB50446B048B5
:104F2000007A00F0030054F820000190AC48007AA9
:104F300000F0040010B1019840420190A848007AA6
:104F4000C0F3C10054F820000290A548007A00F098
:104F5000200010B1029840420290A148007AC0F3AC
:104F6000811054F8200003909D48008900F480705F
:104F700010B10398404203909A49019880FB0101C7
:104F8000800F40EA810001909649029880FB011051
:104F9000820042EA917002909249039880FB0110CE
:104FA000820042EA917003900198000E8DF8000093
:104FB0000198000C8DF801000198000A8DF802009C
:104FC0000198C0B28DF803006A4604214FF4747052
:104FD000FFF734FB18B14FF0FF3004B010BD02985A
:104FE000000E8DF800000298000C8DF80100029868
:104FF000000A8DF802000298C0B28DF803006A46DC
:1050000004214FF47570FFF719FB10B14FF0FF301A
:10501000E3E70398000E8DF800000398000C8DF86C
:1050200001000398000A8DF802000398C0B28DF8C1
:1050300003006A4604214FF47670FFF7FFFACCE7CD
:1050400070B588B0064601A8FEF7FEFCBDF8040066
:105050000021C90341EA5045C4036148007A00F0C9
:10506000030056F8200005905D48007A00F0040027
:1050700010B10598404205905948007AC0F3C1002C
:1050800056F8200006905648007A00F0200010B133
:105090000698404206905248007AC0F3811056F8B4
:1050A000200007904E48008900F4807010B10798E6
:1050B000404207900598C117A0FB042301FB04316F
:1050C00000FB0510810041EA927005900698C11717
:1050D000A0FB042301FB043100FB0510810041EA21
:1050E000927006900798C117A0FB042301FB0431BE
:1050F00000FB0510810041EA927007900598000EB0
:105100008DF808000598000C8DF809000598000A34
:105110008DF80A000598C0B28DF80B000698000EB5
:105120008DF80C000698000C8DF80D000698000A0A
:105130008DF80E000698C0B28DF80F000798000E8B
:105140008DF810000798000C8DF811000798000AE0
:105150008DF812000798C0B28DF8130002AA0C2136
:105160004FF42570FFF76AFA08B070BD30B585B00E
:1051700004461DA207CA02AB07C3C82C03DD4FF0CB
:10518000FF3005B030BDC82090FBF4F0401E85B262
:10519000280A8DF80000E8B28DF801006A46022165
:1051A00040F21620FFF74AFA10B14FF0FF30E8E75F
:1051B00002AA0C2140F6C120FFF740FA10B14FF0CF
:1051C000FF30DEE7064884810020DAE7C4AE00083D
:1051D0004CCD6C000CC92C00365676002646660075
:1051E000F003002009E3CA02FEF2ABC4AAF1DFDF3C
:1051F000BBAFDFDF0146FC48808908800020704794
:105200002DE9FC4706460F4606F0070010B1B7F53A
:10521000C86F03DD4FF0FF30BDE8FC87384605F06E
:1052200095FB8146F14905F017FA80466846FEF77E
:105230008FFB9DF80000022806D0042816D008280D
:1052400026D0102848D135E04FF08D41404605F07A
:10525000C5FB814605F012FB84B2E549404605F0E6
:10526000BDFB814605F00AFB85B238E04FF08C416A
:10527000404605F0B3FB814605F000FB84B2DD49F2
:10528000404605F0ABFB814605F0F8FA85B226E012
:105290004FF08B41404605F0A1FB814605F0EEFA48
:1052A00084B2D549404605F099FB814605F0E6FAFF
:1052B00085B214E04FF08A41404605F08FFB8146ED
:1052C00005F0DCFA84B2CD49404605F087FB814603
:1052D00005F0D4FA85B202E04FF0FF309CE700BF42
:1052E00020128DF80400E0B28DF8050028128DF828
:1052F0000600E8B28DF8070006F00100A0B101AA8F
:1053000002214FF4EA70FFF799F910B14FF0FF3026
:1053100082E70DF1060202214FF49270FFF78EF939
:1053200010B14FF0FF3077E706F00200A0B101AAFC
:1053300002214FF4EC70FFF781F910B14FF0FF300C
:105340006AE70DF1060202214FF49470FFF776F937
:1053500010B14FF0FF305FE706F00400A0B101AAE2
:1053600002214FF4EE70FFF769F910B14FF0FF30F2
:1053700052E70DF1060202214FF49670FFF75EF935
:1053800010B14FF0FF3047E7002045E738B504463D
:105390000020009004F0010020B19DF8000040F0D2
:1053A0003000009004F0020020B19DF8000040F0B1
:1053B0000C00009004F0040020B19DF8000040F0C3
:1053C000030000906A4601214FF4A470FFF736F9FC
:1053D00038BD38B50446012C01DA012402E0042C62
:1053E00000DD0424601EC0B200906A46012140F234
:1053F0004F10FFF723F938BD38B50446052094FB5C
:10540000F0F085B228128DF80000E8B28DF80100A6
:105410006A4602214FF4EF70FFF710F938BD38B536
:105420000446052094FBF0F085B228128DF80000A8
:10543000E8B28DF801006A4602214FF4ED70FFF7E3
:10544000FDF838BDF8B505460E464FF47A7095FB69
:10545000F0F000FB06F4200E8DF80000200C8DF813
:105460000100200A8DF80200E0B28DF803006A46C0
:1054700004214FF4AE70FFF7E1F8F8BD38B50446EB
:10548000052094FBF0F084B220128DF80000E0B209
:105490008DF801006A4602214FF4AD70FFF7CEF897
:1054A00038BD38B50446052094FBF0F084B22012D4
:1054B0008DF80000E0B28DF801006A4602214FF439
:1054C000AC70FFF7BBF838BD38B5044614B94FF0DF
:1054D000FF3038BD6A4604214FF45870FFF7EBF8EF
:1054E00010B14FF0FF30F4E79DF8000000069DF882
:1054F000011040EA01409DF8021040EA01209DF8A9
:105500000310084320600020E3E738B50446200E6E
:105510008DF80000200C8DF80100200A8DF80200A3
:10552000E0B28DF803006A4604214FF45870FFF78B
:1055300085F838BD38B5044614B94FF0FF3038BD92
:105540006A4604214FF47170FFF7B5F810B14FF0BF
:10555000FF30F4E79DF8000000069DF8011040EAD6
:1055600001409DF8021040EA01209DF80310084315
:1055700000EB8000800020600020E0E738B50446A2
:105580001420B4FBF0F4200E8DF80000200C8DF8F0
:105590000100200A8DF80200E0B28DF803006A468F
:1055A00004214FF47170FFF749F838BD38B504464F
:1055B00064B120208DF8000028208DF801003020F3
:1055C0008DF8020038208DF8030004E0A3220421A6
:1055D000684603F009FB6A46042140F69E20FFF767
:1055E0002DF8FDF787FC38BDF0030020000048438C
:1055F000000040460000C045000040450000C04497
:1056000038B5044664B1C0208DF80000C2208DF882
:105610000100C4208DF80200C6208DF8030004E0CC
:105620008B220421684603F0DFFA6A46042140F623
:105630009820FFF703F8FDF75DFC38BD3EB5044642
:105640006CB1FDA1D1E900208968CDE9002002916B
:105650006A4609214FF49760FEF7F0FF3EBDF9A2BC
:10566000D2E900109268CDE9010200916A46092151
:105670004FF49760FEF7E2FFF0E73EB504460220E4
:105680008DF80000CA208DF80100E3208DF802009B
:1056900009208DF803006A4604216820FEF7CEFF3A
:1056A000A3208DF8000004F0400048B1C0208DF820
:1056B0000100C8208DF80200C2208DF8030006E02A
:1056C000A3208DF801008DF802008DF8030004F48A
:1056D000C07048B1C4208DF80400CC208DF80500BE
:1056E000C6208DF8060006E0A3208DF804008DF892
:1056F00005008DF80600A3208DF807008DF808003E
:105700008DF809006A460A2140F6A720FEF796FFA9
:1057100004F0030018B120208DF8000002E0D8202A
:105720008DF800006A46012140F6B620FEF786FF9C
:1057300004F0200018B10120FFF780FF02E00020F4
:10574000FFF77CFF04F4C07008B304F4807060B10C
:10575000B2208DF800008B208DF80100B6208DF866
:1057600002009B208DF803000BE0B0208DF80000B4
:1057700080208DF80100B4208DF8020090208DF873
:1057800003006A46042140F6A220FEF757FF04F00A
:10579000010020B3F8208DF800006A4601214FF483
:1057A0000B60FEF74BFFFA210720FFF729FD0720CA
:1057B000FFF7ECFD0120FFF70CFE6420FFF71CFE55
:1057C0004FF4FA70FFF72BFEC821A148FFF73AFE0D
:1057D0002820FFF753FE0A20FFF763FE08E0D820D9
:1057E0008DF800006A4601214FF40B60FEF726FF9A
:1057F00004F0020018B1D9208DF8000002E0D82092
:105800008DF800006A46012140F23D70FEF716FF58
:1058100004F0040018B10120FFF7F2FE02E00020BE
:10582000FFF7EEFE04F0100018B10120FFF7BEFEF6
:1058300002E00020FFF7BAFE44F0080085494881E5
:10584000FDF758FB00208349887304F0400018B12D
:105850000846807B801D887304F4C07020B17D48A9
:10586000807B801D7B49887304F0140020B1794847
:10587000807B10307749887304F0030020B17548AD
:10588000807B001D7349887300203EBD014671482E
:1058900040890880002070472DE9F0410446E078F7
:1058A00000F0C006E07800F03F05607800F00100ED
:1058B00098B1EF102846E91705EB5171C910A5EB17
:1058C000C101491C01F0FF086248006820B161482D
:1058D000414602683846904700BF607800F00800F3
:1058E00030B15C48406818B1B0115A4A51688847D5
:1058F0000020BDE8F08110B586B0044656A207CA64
:1059000003AB07C357A207CA8DE80700012C09D0D3
:10591000022C0ED103AA0B2140F68220FEF78EFE48
:1059200006B010BD6A460B2140F68220FEF786FEC7
:10593000F6E74FF0FF30F3E72DE9F04F8DB0074663
:10594000884615469946DDE9166B00240020308014
:105950004049887B5A4605A9FEF7D3F918B1601E65
:105960000DB0BDE8F08F3B48807A00F014000028AD
:1059700061D09DF8140000069DF8151040EA014022
:105980009DF8161040EA01209DF817100843286082
:105990009DF8180000069DF8191040EA01409DF896
:1059A0001A1040EA01209DF81B10084368609DF81A
:1059B0001C0000069DF81D1040EA01409DF81E10D5
:1059C00040EA01209DF81F100843A8609DF82000C0
:1059D00000069DF8211040EA01409DF8221040EA9F
:1059E00001209DF823100843E86004F11000C4B2C0
:1059F000286800140190686800140290A8680014D8
:105A00000390E8680014049001984043029901FB58
:105A10000100039901FB0100049901FB010ABAF19D
:105A2000706F02DBBAF1885F22DDFDF763FA0020B8
:105A30003080401E94E721E0B8AAB38DB4980D35AC
:105A40005D000000B8AAAAAAB088C3C5C7000000BC
:105A500009E3CA02F0030020D8B1B9F38BA391B6D1
:105A600009B4D900DAB1B9F38BA391B6DAB4DA008C
:105A7000B6F9000040F48070308000BF3448807A6E
:105A800000F0400020B305A9601C085C095D40EAF5
:105A9000012000B2A8F8000005A9E01C095C05AAD5
:105AA000A01C105C41EA002000B2A8F8020005A981
:105AB000601D095C201D105C41EA002000B2A8F8BE
:105AC0000400A01DC4B2B6F9000040F00800308008
:105AD0001F48408900F4C07008B305A9601C085C29
