:020000040800F2
:10000000200C00205D690008A90D0008AB0D000858
:10001000AD0D0008B10D0008B50D0008000000008E
:10002000000000000000000000000000B90D000802
:10003000BB0D000800000000BD0D0008BF0D00084A
:10004000A11F000877690008776900087769000830
:100050007769000877690008776900087769000800
:1000600077690008776900087769000877690008F0
:1000700077690008776900087769000877690008E0
:1000800077690008776900087769000877690008D0
:1000900077690008776900087769000877690008C0
:1000A00077690008776900087769000877690008B0
:1000B0007769000877690008411C00087769000823
:1000C0007769000877690008776900087769000890
:1000D0007769000877690008776900087769000880
:1000E0007769000877690008776900087769000870
:1000F0007769000877690008776900087769000860
:100100007769000877690008371B000877690008DD
:10011000776900087769000877690008776900083F
:10012000776900087769000877690008776900082F
:1001300000F002F800F062F80AA090E8000C824497
:100140008344AAF10107DA4501D100F057F8AFF274
:10015000090EBAE80F0013F0010F18BFFB1A43F0A5
:1001600001031847D4B90000F4B900000A444FF065
:10017000000C10F8013B13F0070408BF10F8014B06
:100180001D1108BF10F8015B641E05D010F8016B4B
:10019000641E01F8016BF9D113F0080F1EBF10F8AF
:1001A000014BAD1C0C1B09D16D1E58BF01F801CBD2
:1001B000FAD505E014F8016B01F8016B6D1EF9D555
:1001C0009142D6D37047000000230024002500266A
:1001D000103A28BF78C1FBD8520728BF30C148BFAA
:1001E0000B607047642908F09781782908F0D08166
:1001F000002070471FB51FBD10B510BD08F024FCCE
:100200001146FFF7F7FF00F009F808F042FC03B4CD
:10021000FFF7F2FF03BC06F079F9000096B000206A
:1002200015901490139000F040FE4FF4A06007F07A
:1002300039F906F001F9472144F61F6001F0B8FED4
:100240004FF4FA61FE4808F083F84FF4FA61FC4875
:1002500008F080F84FF4FA61F94808F07DF84FF49F
:10026000FA61F74808F07AF841F2883006F021F98F
:100270004FF47A71F24808F06BF84FF47A71F04855
:1002800008F068F84FF47A71ED4808F065F84FF41B
:100290007A71EB4808F062F840F6B83006F009F9D8
:1002A00002F06BFB05E0C82006F003F9C82006F059
:1002B00000F904F095FD0028F5D14FF47A7006F0AE
:1002C000F8F802F097F9642006F0F3F801F0D6FE92
:1002D000642006F0EEF801F0E1FE4FF47A7006F0CB
:1002E000E8F847214FF6FF7001F035FC41F61F4159
:1002F000092001F0F3FB4FF4967006F0DAF8D148CC
:100300000068D1490860ABE0D04AD149D14802F039
:10031000D6FB00284DD1CF48B0F900000AF008FA0A
:100320000890CD48016808980AF05CF809900AF036
:100330002DF80022C94BCDE90A0109F017FDCDE9DE
:100340000C0109F079FAC4490860C148B0F900000D
:100350000AF0EEF90890C248016808980AF042F8DD
:1003600009900AF013F80022BC4BCDE90A0109F00C
:10037000FDFCCDE90C0109F05FFAB9490860B3480A
:10038000B0F900000AF0D4F90890B648016808985E
:100390000AF028F8099009F0F9FF0022AF4BCDE9E7
:1003A0000A0109F0E3FCCDE90C0109F045FAAD4979
:1003B0000860AD4AAD49AE4802F0A9FB00284FD114
:1003C000AB48B0F900000AF0B3F90890A9480168F9
:1003D00008980AF007F8099009F0D8FF00229F4B0F
:1003E000CDE90A0109F0C2FCCDE90C0109F024FABB
:1003F000A04908609D48B0F900000AF099F90890FA
:100400009D480168089809F0EDFF099009F0BEFFCA
:100410000022924BCDE90A0109F0A8FCCDE90C01BC
:1004200009F00AFA944908608F48B0F900000AF010
:100430007FF9089091480168089809F0D3FF099066
:1004400009F0A4FF0022854BCDE90A0109F08EFCDA
:10045000CDE90C0109F0F0F98849086001F074F960
:10046000794800680AF0ACF985490A900AF0F0F979
:1004700084490B9009F0B6FF0D90724800680AF0AD
:100480009FF97F490B900AF0E3F90C900D990AF05F
:10049000ABF9FFF439AF704800680AF00DF900B20B
:1004A000794908806E4800680AF006F900B2774979
:1004B00008806C4800680AF0FFF800B274490880B0
:1004C0006C4800680AF0F8F800B2724908806A487F
:1004D00000680AF0F1F800B26F4908806F480068C0
:1004E0000AF0EAF800B26E49088000200E9021E080
:1004F000642005F0DEFF01F05AFE6A4800680AF049
:1005000017F9089068480168089809F06BFF09908E
:1005100009F03CFF0022514BCDE90A0109F026FC0D
:10052000CDE90C0109F088F95F4908600E98401C7C
:10053000C0B20E900E981428DADB5B4800680AF00F
:10054000BBF85A490860084600680AF0F1F80790BD
:1005500009F01CFF0022564BCDE9080109F05AFAB8
:100560004FF0C042534BCDE90A0109F097F9CDE9AC
:100570000C0109F061F95049086000200E900AE072
:10058000642005F096FF01F02EFE01F0E7FF0E98C3
:10059000401CC0B20E900E981428F1DB474800684A
:1005A00047490860084601684448006809F08EFF22
:1005B0004449086001F0E8FE434800684349086088
:1005C00000F0F4FC01204249086000204149C1F8D4
:1005D00088011C4800680AF0F3F84FF07C510C9039
:1005E0000AF036F90D900AF083F83B490860154887
:1005F00000680AF0E5F839490C900AF029F90D90E5
:100600000AF076F8364908600E4800680AF0D8F813
:1006100034490C900AF01CF90D900AF069F832493F
:100620000860084800680AF0CBF830490C900AF0DE
:100630000FF90D900AF05CF82D490860014859E067
:100640000004004000000020B00000203600002020
:100650003400002032000020400000200000E03F75
:100660004400002048000020300000202E00002020
:100670002C00002054000020580000205C000020C6
:100680006F12833A000040403A0000203C000020F6
:100690003E0000204C0000204E000020C001002041
:1006A00050000020CC000020DC000020D4000020FE
:1006B00000005940661271406401002030020020A1
:1006C000D000002060010020C40000206C01002048
:1006D000A00121420080224204000020CDCC4C3EEB
:1006E00008000020CDCCCC3D0C000020CDCC4C3DF2
:1006F0001000002000680AF063F8FE490C900AF030
:10070000A7F80D9009F0F4FFFB490860FB4800686A
:100710000AF056F8FA490C900AF09AF80D9009F090
:10072000E7FFF8490860F54800680AF049F8F6491B
:100730000C900AF08DF80D9009F0DAFFF34908608B
:10074000E5E2159800287CD0F148B0F9000040F2AD
:100750004C41884276DDEE48B0F900001090ED483B
:10076000B0F9000040F2E351081AEB49B1F900106A
:10077000884209DCE748B0F9000000F2E350E6499E
:10078000B1F90010884218DAE3480088A0F2E3507B
:1007900000B21290129809F0CBFF099009F0F6FD13
:1007A000DE4ADF4BCDE90A0109F0E0FACDE90C01A0
:1007B00009F042F8DB49086002E00020D9490860EE
:1007C000D448B0F9000040F2E451081AD649B1F912
:1007D0000010884209DCCF48B0F9000000F2E45074
:1007E000D149B1F90010884219DACF48008840F2A7
:1007F000E451081A00B21190119809F099FF09907C
:1008000009F0C4FDC54AC64BCDE90A0109F0AEFAAC
:10081000CDE90C0109F010F8C449086002E000209D
:10082000C2490860BB48B0F9000040F2E351081A21
:10083000BF49B1F9001088420CDCB648B0F900009D
:1008400001E059E026E000F2E350B949B1F90010A7
:1008500088421BDAB648008840F2E351081A00B219
:100860000F900F9809F064FF099009F08FFDAB4AD3
:10087000AB4BCDE90A0109F079FACDE90C0108F09A
:10088000DBFFAC4908600020086011E00020A949A6
:1008900008600DE000201090A6490860A349086098
:1008A000A049086000231A461946184600F0BAFB12
:1008B0009748B0F9000040F24C41884219DA9C4850
:1008C000B0F90000884214DA139818B98F480088EC
:1008D00080B213908D4801681398081A08283ED3F7
:1008E000002015909449086001209449C1F8A001A6
:1008F00035E00020139032E0002010908D49086010
:100900008A4908608749086000231A461946184634
:1009100000F088FB7E48B0F9000040F24C4188426C
:100920001BDA8348B0F9000040F26C71884214DD94
:10093000149818B97548008880B2149073480168FB
:100940001498081A05280AD3012015907A490860DE
:1009500000207A49C1F8A00101E0002014907848F5
:100960000068401C09F02CFF0D906448006809F0F5
:1009700027FF74490B9009F06BFF0C900D990AF05A
:1009800033F872D25D48006809F01AFF6D490C9087
:1009900009F05EFF0D9009F0ABFE694908606A4AF4
:1009A0006A496B4802F0B3F8002856D100F0CCFE3B
:1009B0005248006867490968401A089009F000FF2A
:1009C000099009F0E3FC644A644BCDE90A0109F09F
:1009D000CDF9CDE90C0108F02FFF614908604748C7
:1009E00000685C4908605E48006809F0CFFCCDE90A
:1009F00006015C48B0F9000009F09AFE00905A48E0
:100A0000016800980AF052F8019009F0BFFC574ABB
:100A1000574BCDE9020109F0A9F9CDE90401DDE95F
:100A2000062309F0A3F9CDE90A015248006809F04C
:100A3000ADFCCDE90801DDE90A2308F02FFFCDE97F
:100A40000C0108F0F9FE4B4908604B480168494821
:100A500000680AF035F849490860494A49494A4856
:100A600002F02DF808B900F09EFD48480068401CCF
:100A700009F0A6FE0D902148006809F0A1FE444946
:100A80000B9009F0E5FE0C900D9909F0ADFF29D20D
:100A90001A48006809F094FE3D490C9009F0D8FE10
:100AA0000D9009F025FE394908603A4A3A493B4819
:100AB00004F0E3F91B480168374800680AF000F8C1
:100AC00037490860194801683448006809F0F8FFA0
:100AD00034490860174801682E48006809F0F0FFA3
:100AE0003149086031480068401C09F069FE0D90EA
:100AF00002485DE00AD7A33C14000020000000205B
:100B00000AD7233C180000206F12833A1C000020F3
:100B1000E402002090000020E0020020F49FDA852B
:100B20008B81A23FEC000020E2020020F0000020B8
:100B3000E6020020F40000208881224200002142C9
:100B400008000020CDCC4C3E300000202E000020BC
:100B50002C000020B0010020FCA9F1D24D62503FD2
:100B6000AC01002050000020C4010020A9D08AB9A7
:100B7000B596433FCC010020D0010020D4010020D5
:100B80003600002034000020320000200C0000203D
:100B9000CDCCCC3D280000202000002024000020E7
:100BA000E0000020E4000020E80000201000002009
:100BB000006809F005FE56490B9009F049FE0C90BB
:100BC0000D9909F011FF1AD25248006809F0F8FD9A
:100BD0004F490C9009F03CFE0D9009F089FD4E49FB
:100BE00008604E48B0F9000040F24C41884206DDF2
:100BF00000F01FFB00F016FF109800F045FA48487F
:100C00000068401C09F0DCFD0D904248006809F0C6
:100C1000D7FD44490B9009F01BFE0C900D9909F08B
:100C2000E3FE0CD23B48006809F0CAFD3D490C9038
:100C300009F00EFE0D9009F05BFD394908603A4855
:100C40000068401C09F0BCFD0D903248006809F0B6
:100C5000B7FD36490B9009F0FBFD0C900D9909F09A
:100C6000C3FE34D22B48006809F0AAFD2F490C902E
:100C700009F0EEFD0D9009F03BFD2B49086001F0F5
:100C8000B2FA01F06BFC2A4801682A48006809F0B2
:100C90001DFC2949086001F077FB1E4800682749C0
:100CA0000968401A0C9009F08BFD25490D9009F058
:100CB000CFFD24490860174800682049086001F00A
:100CC000C1FB05F09EFB20480068204908602048D1
:100CD0000068401C09F074FD0D900E48006809F092
:100CE0006FFD17490B9009F0B3FD0C900D9909F0B9
:100CF0007BFE0CD20748006809F062FD10490C9099
:100D000009F0A6FD0D9009F0F3FC1149086018E503
:100D1000CDCC4C3D0000002010000020E40200205B
:100D2000140000200AD7A33C180000200AD7233C57
:100D3000D000002030020020600100207801002057
:100D40006F12833A74010020C4000020700100205B
:100D50001C00002000BF1A4801684FF0E0208269A3
:100D6000174800688142F6D11648006800EB40033E
:100D7000C3EBC010C2EBC000124B1B68B0FBF3F01A
:100D800001EB4103C3EBC11300EBC300704700B597
:100D900085B0684606F0B1F80B490098B0FBF1F059
:100DA0000849086005B000BD7047704700BFFEE706
:100DB00000BFFEE700BFFEE770477047704770470F
:100DC000400200204402002040420F000CB50020E9
:100DD000019000906C48006840F480306A490860D7
:100DE00000BF6948006800F4003000900198401C82
:100DF0000190009818B90198B0F5A06FF1D1624840
:100E0000006800F4003010B10120009001E00020E3
:100E100000900098012843D15C48006840F0100021
:100E20005A4908600846006820F003000860084638
:100E3000006840F00200086053484068524948602A
:100E40000846406848600846406840F48060486052
:100E50000846406820F47C1048600846406840F42A
:100E6000E81048600846006840F08070086000BFE5
:100E70004548006800F000700028F9D042484068FA
:100E800020F00300404948600846406840F00200F6
:100E9000486000BF3C48406800F00C000828F9D1C9
:100EA0000CBD10B5FFF792FF10BD10B536480068B5
:100EB00040F0010034490860084640683449084061
:100EC0003149486008460068324908402E490860A8
:100ED0000846006820F4802008600846406820F436
:100EE000FE0048604FF41F008860FFF7DAFF4FF004
:100EF00000602949086010BD10B5002100200022C3
:100F0000214B5B6803F00C0121B1042906D00829AC
:100F100028D107E0214B224C236027E01F4B204CB7
:100F2000236023E0184B5B6803F47010164B5B687A
:100F300003F48032022303EB904022B9194B434360
:100F4000174C23600DE0104B5B6803F4003323B1B2
:100F5000144B4343124C236003E0104B4343104CAB
:100F6000236003E00D4B0E4C236000BF00BF064B17
:100F70005B68C3F303130C4CE15C094B1B68CB406B
:100F8000074C236010BD000000100240002002400A
:100F90000000FFF8FFFFF6FE08ED00E000127A0007
:100FA0004802002000093D004C02002008B5012144
:100FB000242006F00FF84FF48070ADF800001020E8
:100FC0008DF8030003208DF802006946094805F0FA
:100FD00045FD4FF48071074805F0EDFD0420ADF8A4
:100FE00000006946044805F039FD0421024805F077
:100FF000E2FD08BD000801400014014002468A429B
:1010000001DD084670471046FCE703469A4203DAC2
:101010008B4201DA18467047994201DC0846FAE72C
:101020001046F8E730B5B0F5FA6F01DD4FF4FA601D
:10103000B1F5FA6F01DD4FF4FA61B2F5FA6F01DD37
:101040004FF4FA62B3F5FA6F01DD4FF4FA63B0F5CD
:101050007A7F01DA4FF47A70B1F57A7F01DA4FF4D2
:101060007A71B2F57A7F01DA4FF47A72B3F57A7F4A
:1010700001DA4FF47A73FE4D28802D1D29802D1D35
:101080002A802D1D2B8030BD2DE9F047044640F20B
:10109000F4612046FFF7B2FF8146F64A5142F64816
:1010A000B0F90000FFF7B1FF09EB000AF348006850
:1010B00009F002FB0FFA80F96FF01D021E2148466D
:1010C000FFF7A3FF8244EE48006809F0F5FA0FFA33
:1010D00080F96FF01D021E214846FFF796FF50442D
:1010E00005B240F2F4612046FFF788FF8146E14AED
:1010F0005142E448B0F90000FFF787FF09EB000A0E
:10110000DE48006809F0D8FA0FFA80F96FF01D0286
:101110001E214846FFF779FF8244D948006809F04C
:10112000CBFA0FFA80F96FF01D021E214846FFF737
:101130006CFF504406B240F2F4612046FFF75EFFB8
:101140008146CC4A5142D048B0F90000FFF75DFF1C
:1011500009EB000AC948006809F0AEFA0FFA80F9F5
:101160006FF01D021E214846FFF74FFF8244C4481E
:10117000006809F0A1FA0FFA80F96FF01D021E2134
:101180004846FFF742FF504407B240F2F461204660
:10119000FFF734FF8146B74A5142BC48B0F900001E
:1011A000FFF733FF09EB000AB448006809F084FA3E
:1011B0000FFA80F96FF01D021E214846FFF725FF48
:1011C0008244AF48006809F077FA0FFA80F96FF0AF
:1011D0001D021E214846FFF718FF50440FFA80F801
:1011E00043463A4631462846FFF71CFFBDE8F087E4
:1011F00070B50446204609F0C9F80546002213469A
:1012000008F0B2FE01D2204670BD84F00040FBE73A
:1012100010B504464FF07E51204609F0E5FA02D29F
:101220004FF07E5010BD21464FF07E5009F04EF930
:10123000F8E72DE9FF5F9648B0F9000009F078FA69
:10124000074694480168384609F002FB0546924873
:10125000B0F9000009F06CFA8146904801684846F0
:1012600009F0F6FA07468E48B0F9000009F060FA76
:1012700083468C480168584609F0EAFA81468A4854
:1012800001688A48006809F0E3FA03908848016819
:101290008848006809F0DCFA0290874801688748AE
:1012A000006809F0D5FA0190029909F09BF883468D
:1012B000039909F097F88246494609F093F8804669
:1012C000394609F08FF80646294609F08BF804469E
:1012D00009F0F2F900B2684908806D48B0F90000E1
:1012E00009F026FA07466B480168384609F0B0FA5B
:1012F00005466948B0F9000009F01AFA81466748C6
:101300000168484609F0A4FA07466548B0F90000AC
:1013100009F00EFA834663480168584609F098FAC6
:101320008146614801686148006809F091FA0390BC
:101330005F4801685F48006809F08AFA01905F48D9
:10134000006880F0004B5C480168584609F080FA5C
:101350000090019909F0B4FB0290039909F042F85A
:101360008246494609F0ACFB8046394609F0A8FBA5
:101370000646294609F036F8044609F09DF900B200
:10138000404908804248B0F9000009F0D1F9074609
:1013900040480168384609F05BFA05463E48B0F916
:1013A000000009F0C5F981463C480168484609F04B
:1013B0004FFA07463A48B0F9000009F0B9F98346F8
:1013C00038480168584609F043FA814636480168B2
:1013D0003648006809F03CFA039035480168354802
:1013E000006809F035FA02903448006880F0004047
:1013F000009031480168009809F02AFA019002999A
:1014000008F0F0FF8346039909F05AFB82464946EB
:1014100009F056FB8046394608F0E4FF06462946A7
:1014200009F04EFB044609F047F900B2164908805E
:101430001748B0F9000009F07BF907461548016824
:10144000384609F005FA05461348B0F9000009F0DE
:101450006FF9814611480168484609F0F9F90746D5
:101460000F48B0F9000009F063F983460D4827E002
:1014700034040040D4FEFFFF920000203802002018
:101480003C020020940000209600002098000020DC
:10149000FC00002090020020FA0000208C020020B6
:1014A000F80000208802002084020020E8000020CC
:1014B00080020020E40000207C020020E0000020E8
:1014C0000168584609F0C4F98146FE480168FE48A3
:1014D000006809F0BDF90390FC480168FC48006809
:1014E00009F0B6F90290FB480168FB48006809F072
:1014F000AFF90190029909F0E3FA8346039909F0E4
:10150000DFFA8246494608F06DFF8046394609F009
:10151000D7FA0646294609F0D3FA044609F0CCF872
:1015200000B2EE490880BDE8FF9F10B5EC49B1F963
:1015300000104942EB4AB2F900201144EA4AB2F9DC
:1015400000201144E54AB2F90020881A09F0F0F8A9
:10155000E6490860E249B1F900104942E14AB2F9AE
:1015600000201144E04AB2F90020891ADB4AB2F99E
:101570000020881809F0DCF8DD490860D849B1F985
:1015800000104942D74AB2F90020891AD64AB2F966
:1015900000201144D14AB2F90020881809F0C8F897
:1015A000D449086010BD70B5002100220023D24C40
:1015B0002488D24D2D88641B24B2D14DD14E36786B
:1015C00025F81640D04C2488D04D2D88641B24B2B9
:1015D000CF4DCC4E367825F81640CE4C2488CE4DD3
:1015E0002D88641B25B2CD4CC64E367824F8165093
:1015F00000200DE0C24C34F910402144C44C34F9B1
:1016000010402244C54C34F910402344441CE0B23D
:101610000628EFDB062491FBF4F424B2C04D2C80A5
:10162000062492FBF4F424B2BE4D2C80062493FBD6
:10163000F4F424B2BC4D2C80B24C2478641CB14D1F
:101640002C702C462478062C01D100242C7070BDFF
:1016500010B50021B54AB2F90020B54BB54C24783D
:1016600023F81420002005E0B14A32F9102011447B
:10167000421CD0B20628F7DB062291FBF2F212B22E
:10168000AD4B1A80AB4A1278521CAA4B1A701A46FC
:101690001278062A01D100221A7010BD2DE9F04FF0
:1016A00089B083468A46504608F070FE8046A34AB9
:1016B000A34B08F05BFB02460B46CDE9000100207E
:1016C000A04908F0A7F906460F46584608F05EFE06
:1016D00032463B46CDE9020108F0E0F8CDE90601CB
:1016E000584608F053FECDE90401DDE9062308F071
:1016F00091F9044608F0A0F89349086009B0BDE8E4
:10170000F08F2DE9F0418949B1F900108A4AB2F908
:101710000020881A09F00CF807468B480168384603
:1017200009F096F805468448B0F9000009F000F881
:101730000646294608F056FE044608F0BDFF00B2F2
:101740007D490880BDE8F08170B580480068804917
:101750000860804801688048006808F043FE7E49C0
:1017600008607E4801687C48006808F03BFE04463B
:1017700021467948006808F0A9FE794908606B485D
:10178000B0F9000008F0D4FF064671480168304601
:1017900009F096F9054672480168284609F058F89C
:1017A00004466B480168204608F01CFE6749086043
:1017B0006B4801684FF07E5009F082F90446664894
:1017C0000168204609F044F86349086070BD70B5AF
:1017D00064480068644908606448016864480068B7
:1017E00008F000FE624908606248016860480068CD
:1017F00008F0F8FD044621465D48006808F066FEE2
:101800005D4908605D48B0F9000008F091FF0646A8
:1018100055480168304609F053F9054656480168B5
:10182000284609F015F804464F480168204608F09C
:10183000D9FD4C490860504801684FF07E5009F0CE
:101840003FF904464A480168204609F001F8484932
:10185000086070BD70B54A4800684A4908604A4847
:1018600001684A48006808F0BDFD484908604848DA
:1018700001684648006808F0B5FD04462146434823
:10188000006808F023FE434908604348B0F90000AF
:1018900008F04EFF06463B480168304609F010F953
:1018A00005463C480168284608F0D2FF0446354802
:1018B0000168204608F096FD314908603548016806
:1018C0006CE0000084020020E8000020800200207C
:1018D000E40000207C020020E000002098000020AE
:1018E0009200002094000020960000209C00002020
:1018F000A0000020A4000020320000203A000020B8
:1019000034040020A4020020340000203C00002009
:1019100040040020360000203E0000204C0400203F
:10192000F8000020FA000020FC0000203000002019
:1019300058040020A5020020FE00002097D17E5A06
:10194000FB2119400000F03F00010020C0010020F1
:10195000C4010020B8010020C8010020B40100200B
:10196000BC010020EC010020F0010020E401002077
:10197000F4010020E0010020E80100202E000020FA
:101980000C0200201002002004020020140200209B
:1019900000020020080200202C0000204FF07E50A2
:1019A00009F08EF8044640480168204608F050FFD0
:1019B0003D49086070BD2DE9F0413C48008840F287
:1019C000DC51884201DD012000E0002040F20E6180
:1019D000884222DA3648B0F9000008F0A9FE07462E
:1019E00034480168384609F061F806463248016813
:1019F000304608F02DFF04463048006880F000466D
:101A00002F480168304608F023FF0546214609F0BB
:101A100057F82C4908600020086000202949086018
:101A2000BDE8F0812DE9FE4F20490988A1F57A70C3
:101A300008F07EFE02902448006808F0A7FC0746E4
:101A4000224A234B08F092F9054607F0F5FE83463B
:101A500007F08EFC00901F48006808F097FC0746CE
:101A60001A4A1B4B08F082F9054607F0E5FE83464B
:101A700007F07EFC0446009908F0EAFE81460B4917
:101A80000988A1F57A7008F053FE4946019008F0E4
:101A90001DFD8246029909F013F80F4908600020E5
:101AA0000860BDE8FE8F000014020020E402002060
:101AB00050000020C4010020A00200209C02002051
:101AC000D401002038020020F00000205F40D42222
:101AD00047DF913FEC0000203C0200207FB5054627
:101AE0000C460121082005F082FAADF80850ADF847
:101AF00004400020ADF80A00ADF8060001A9EA484C
:101B000005F032FE01221146E74806F0A4F9322022
:101B10008DF8000001208DF8010000208DF80200F2
:101B200001208DF80300684605F0C1FC0121DE4864
:101B300006F076F97FBD10B50121DB4806F039FCCF
:101B400040B10121D84806F045FCD8480068401C47
:101B5000D649086010BD30B585B005460C46012158
:101B6000042005F044FA0121082005F033FA4FF46F
:101B70007070ADF8100028208DF8130004A9CC482F
:101B800004F06CFF4FF47071C94805F016F8ADF819
:101B90000850ADF804400020ADF80A00ADF806008A
:101BA00001A9C44805F0E0FD0020C3490880488031
:101BB000012088800020C8800881BE4806F067F8B0
:101BC0000420BD4908800020488001208880002032
:101BD000C8800881B74806F05AF80820B64908803E
:101BE00000204880012088800020C8800881B148FA
:101BF00006F04DF80C20B0490880002048800120F4
:101C000088800020C8800881AA4806F040F81E207D
:101C10008DF8000000208DF801008DF802000120F1
:101C20008DF80300684605F042FC01221E21A14800
:101C300006F011F901219F4806F0F2F805B030BD19
:101C400010B59E48007800F08000002846D102219F
:101C5000984806F0AEFB002840D00221954806F0D7
:101C6000B9FB9648007800F0400040B3914806F078
:101C700081FB934908800846008892490988884278
:101C800004DA4FF6FF709049086002E000208E49A8
:101C900008608B4800888B490988401A8A4909687E
:101CA00008448A490860084600888949088000205D
:101CB0008249087000217F4806F064FA0EE07D48F2
:101CC00006F058FB7F4908807C48007840F04000CF
:101CD0007A4908700221774806F054FA7D48007866
:101CE00000F08000002846D10421724806F061FB14
:101CF000002840D004216F4806F06CFB754800783E
:101D000000F0400040B36B4806F037FB7249088092
:101D10000846008871490988884204DA4FF6FF7046
:101D20006F49086002E000206D4908606A48008839
:101D30006A490988401A6A4909680844694908607B
:101D40000846008868490880002062490870002120
:101D5000584806F029FA0EE0564806F00EFB5F4997
:101D600008805C48007840F040005A490870022121
:101D7000504806F019FA5D48007800F0800000280D
:101D800045D108214B4806F014FB80B3082149488F
:101D900006F020FB5548007800F0400040B345486D
:101DA00006F0EEFA52490880084600885149098831
:101DB000884204DA4FF6FF704F49086002E00020C5
:101DC0004D4908604A4800884A490988401A4A49EA
:101DD000096808444949086008460088484908805D
:101DE0000020424908700021324806F0F7F90EE061
:101DF000304806F0C5FA3F4908803C48007840F07A
:101E000040003A49087002212A4806F0E7F93D48A7
:101E1000007800F08000A8BB1021264806F0C9FA1F
:101E200080B31021234806F0D5FA3648007800F038
:101E3000400040B31F4806F0A6FA33490880084620
:101E4000008832490988884204DA4FF6FF70304929
:101E5000086002E000202E4908602B4800882B49CA
:101E60000988401A2A49096808442A49086008462E
:101E700000882949088000202249087000210D4867
:101E800006F0C6F90EE00B4806F07DFA1F490880FF
:101E90001C48007840F040001A49087002210548AB
:101EA00006F0B6F910BD0000000C00400000002054
:101EB000000C01400008004064040020A80200203B
:101EC000AC020020AA020020D0020020C0020020A4
:101ED000E0020020AE020020B2020020B00200208A
:101EE000D4020020C4020020E2020020B40200203C
:101EF000B8020020B6020020D8020020C80200204C
:101F0000E4020020BA020020BE020020BC02002031
:101F1000DC020020CC020020E602002070B505465D
:101F20000C4645F2555005F02BFB284605F02BFBDF
:101F3000204605F02BFB05F02CFB05F02FFB70BDB8
:101F400010B505F026FB10BD08B500208DF8000087
:101F500002208DF8010003208DF80200684605F08C
:101F6000A6FA08BD70B506460C4615460121C80202
:101F700005F03DF8284606F03CFA204606F042FA05
:101F8000304606F05AFA06F063FAFFF7DDFF06F076
:101F90004AFA70BD10B50446204606F04EFA10BD50
:101FA00010B57F2006F043FA06F052FA10BD00008B
:101FB00030B589B005460C460121022005F017F81E
:101FC0000121112005F006F80121294804F017FE2F
:101FD0004FF47070ADF8200018208DF82300032016
:101FE0008DF8220008A9234804F038FDADF81850F8
:101FF000ADF814400020ADF81A00ADF8160005A9A0
:102000001D4805F0B1FB6020ADF804000120ADF8DB
:1020100006000020ADF80A00ADF80C0001A9164832
:1020200005F0DFFB0821144806F02AF801A9124840
:1020300005F019FC0821104806F02BF801A90E48FC
:1020400005F05EFC08210C4806F030F801A90A48AA
:1020500005F0A1FC0821084806F031F801210648E6
:1020600005F0DEFF0121044805F0DAFE09B030BDBD
:10207000000C1A00001001400004004010B500F0F0
:10208000D3FAEE2000F088FB00F013FB1E2000F0D6
:1020900083FB00F00EFB00F0EBFA10BD70B50124DD
:1020A00033E000F0C1FAEE2000F076FB00F001FB17
:1020B000A02101EB4401C8B200F06EFB00F0F9FA78
:1020C00000F0D6FA052004F0D0F900F0ADFAEF20C8
:1020D00000F062FB012004F0C8F900F0EAFA0120E8
:1020E00000F089FB0546012004F0BFF9002000F054
:1020F00082FB064600F0BCFA052004F0DAF946EA55
:102100000520F64921F81400641C062CC9DDF348AB
:10211000008808B9012070BD0020FCE738B50446EE
:10212000002500F081FAEE2000F036FB00F0C1FA45
:10213000204600F031FB00F0BCFA00F099FA0920CB
:1021400004F0B7F9642004F090F900F06DFAEE2085
:1021500000F022FB00F0ADFA002000F01DFB00F0C3
:10216000A8FA00F085FA00F05FFAEF2000F014FB07
:1021700000F09FFA012000F03EFB8DF800000120E6
:1021800000F039FB8DF80100002000F034FB8DF8E1
:10219000020000F06DFA9DF8000001049DF80100B6
:1021A00001EB00209DF802104518284638BD10B5F7
:1021B0005820FFF7B3FFCA490860052004F055F91D
:1021C000C6484089C6490968A1EB0020C549086096
:1021D000C2488089096848434FF4FA6101EBD05046
:1021E000C149086010BD2DE9F0414820FFF796FF76
:1021F000BE490860052004F038F9B8488088010419
:10220000B6480089B74A1268504301EBD01000214C
:10221000B74A03C2B1484088C103B048C088B14A38
:102220001268504301EB10200021B24A03C2AF48AC
:102230000068083A18CAA0FB032501FB035100FB04
:102240000411500D40EAC1234815A949D1E90021E4
:102250009A1A60EB0100410441EAD230A6490860B5
:10226000A1480068B0F5FA6F46DA9E48006840431E
:10227000C017C117A14A03C29B480068A0F5FA60C5
:102280004043401000EB8000C1179D4A03C29648AE
:102290000068A0F5FA604043801000EB8000C11791
:1022A000984A03C290480068974988422FDA8E48BE
:1022B000006800F2DC50C0EBC0008B49096801F2F5
:1022C000DC514843C1178E4AD2E90032C01851414F
:1022D0008B4A03C28448006800F2DC50404340103F
:1022E00000EB400101EBC000C117864B0CCB8018FE
:1022F0005941844A03C20AE00021804A11605160BA
:1023000000207F4A106050607E4A1160516076481C
:1023100000687A490968401A734908607448D0E92E
:1023200000207749D1E90031D21A60EB01007049F1
:10233000C1E900206F48D0E900307249D1E900219D
:102340009A1A60EB01006B49C1E9002067480068F8
:10235000002550C9A0FB041705FB047400FB0644CC
:10236000480D40EAC4256015614C12CC6D1A60EB33
:102370000401E80B40EA4142C913104608F0F3F9A2
:1023800062490860BDE8F0812DE9F04160480068CD
:1023900007F064F980465F4908F05AFA064607F0EC
:1023A000A5F805464FF07E5108F080FB04465A48D8
:1023B00001685A4808F04CFA0746214608F048FAE6
:1023C00057490860BDE8F08170B556480068564925
:1023D0000860564801685648006808F003F85449F8
:1023E0000860544801685248006807F0FBFF044643
:1023F00021464F48006808F069F84F4908604A488C
:1024000001684748006808F05BFB05464A480168D8
:10241000284608F01DFA044643480168204607F0A4
:10242000E1FF40490860444801684FF07E5008F0E1
:1024300047FB04463E480168204608F009FA3C493B
:10244000086070BD2DE9F0413C4800683C490860D7
:102450003C4801683C48006807F0C4FF3A490860FE
:102460003A4801683848006807F0BCFF0446214636
:102470003548006808F02AF8354908603548016891
:102480002748006808F01CFB0746334801683846B7
:1024900008F01CF806462A480168304608F010FB90
:1024A00005462B480168284608F0D2F9044624481E
:1024B0000168204607F096FF20490860244801681B
:1024C0004FF07E5008F0FCFA04461F480168204691
:1024D00008F0BEF91C490860BDE8F08184030020C3
:1024E0001401002018010020CC0000201001002061
:1024F00008010020280100203001002040010020B8
:10250000500100205801002024FAFFFFC8000020DD
:102510006001002041D3423E64010020A1D819434C
:10252000C4000020880100208C01002080010020D0
:10253000900100207C01002084010020A0010020E7
:10254000A401002098010020A8010020940100208F
:102550009C010020700100207401002070B51E480D
:1025600000681E4908601E4801681E48006807F0A0
:1025700039FF1C4908601C4801681A48006807F0C8
:1025800031FF044621461748006807F09FFF1749AE
:102590000860124801681648006808F091FA05467C
:1025A00012480168284608F053F904460B480168B0
:1025B000204607F017FF084908600C4801684FF0F3
:1025C0007E5008F07DFA044606480168204608F06F
:1025D0003FF90449086070BD2C0200203002002041
:1025E00024020020340200202002002028020020C3
:1025F000C800002008B50121042004F0EBFC4FF4D2
:10260000C050ADF8000010208DF8030003208DF8B5
:1026100002006946914804F021FA012090490860BF
:102620009049C1F8AC0108BD10B58C48001D006888
:1026300020F470408949091D08600846006840F48C
:102640004050086001208649091F08608549C1F88B
:10265000B001042003F009FF00208149091F086030
:10266000042003F002FF00207E49C1F8B00110BD34
:1026700010B57A48001D006820F470407749091DA4
:1026800008600846006840F4405008600020744923
:1026900008607449C1F8AC01042003F0E6FE012093
:1026A0006F4908606F49C1F8AC01042003F0DDFEFA
:1026B00010BD10B500246948001D006820F470406A
:1026C0006649091D08600846006840F4004008603B
:1026D00001206349091F086003F0C7FE012061491A
:1026E000C1F8B00103F0C1FE07E0601CC4B2FA2CCF
:1026F00003DDFFF7BDFF012010BD59488438006895
:102700000028F2D15649086000BFF5E710B5002057
:10271000534908605148001D006820F470404F493B
:10272000091D08600846006840F440500860002019
:102730004C49C1F8AC01022003F097FE0120484942
:102740000860022003F091FE00204649C1F8B00164
:1027500010BD10B50020424908604048001D0068C7
:1027600020F470403D49091D08600846006840F4A7
:102770004050086001203B49C1F8AC01022003F041
:1027800074FE012036490860022003F06EFE00202E
:102790003449C1F8B00110BD70B504462F48001D82
:1027A000006820F470402D49091D08600846006843
:1027B00040F440500860002029490860002517E0D7
:1027C000E0092749091F08606006040E022003F093
:1027D0004CFE01202349C1F8B001022003F045FE60
:1027E00000201F490860022003F03FFE681CC5B2AC
:1027F000082DE5DB70BD70B5054600241748001DA7
:10280000006820F470401549091D086008460068FA
:1028100040F400400860002616E0002010490860DF
:10282000022003F022FE01200E49C1F8B00160062B
:10283000040E0B488438006808B1601CC4B2012043
:1028400003F013FE701CC6B2082EE6DB15B9FFF7C5
:1028500080FF01E0FFF75AFF204670BD00080140ED
:10286000B00121420000214270B505460C4600F03F
:10287000CDF9D02000F074FA00F005FA18B100F09C
:10288000E3F9012070BD284600F06AFA00F0FBF978
:10289000204600F065FA00F0F6F918B100F0D4F91E
:1028A0000120EFE700F0D0F90020EBE770B5044617
:1028B0000025BC2C01DB012510E0622C01DB022588
:1028C0000CE02A2C01DB032508E0142C01DB042595
:1028D00004E00A2C01DB052500E0062529461A2024
:1028E000FFF7C2FF70BD70B50446B4F57A7F01DD15
:1028F0004FF47A74042C00DA04244FF47A7090FBBD
:10290000F4F0401EC5B229461920FFF7ADFF054679
:10291000264604EBD671C1F34F00FFF7C7FF70BD29
:1029200070B5044600F072F9D02000F019FA00F0FA
:10293000AAF9204600F014FA00F0A5F900F066F9B3
:10294000D12000F00DFA00F09EF9002000F031FADD
:10295000054600F079F9284670BD10B50446E0063A
:10296000010E1C20FFF780FF10BD10B50446E006E5
:10297000010E1B20FFF778FF10BD10B500F02DF9F8
:1029800080216B20FFF770FF642003F092FD00218F
:102990006B20FFF769FF0320FFF7E7FF0020FFF739
:1029A000DCFF3220FFF79FFF00213820FFF75CFF9C
:1029B00000216A20FFF758FF00212320FFF754FF72
:1029C00080213720FFF750FF7520FFF7A9FF04464D
:1029D000682C0BD101216B20FFF746FF00216C20F2
:1029E000FFF742FF3220FFF77EFF01E0012010BD1C
:1029F0000020FCE72DE9F04106460F4614461D462F
:102A000000F004F9002141EA4601C8B200F0A8F93B
:102A100000F039F920B100F017F90120BDE8F0818C
:102A2000384600F09DF900F02EF900F0EFF8012192
:102A300001EB4601C8B200F093F900F024F90DE073
:102A4000012C04D1002000F0B4F9287003E001202B
:102A500000F0AFF92870601EC4B26D1C002CEFD1DD
:102A600000F0F2F80020D9E72DE9F84F6B4602227A
:102A700041216820FFF7BEFF9DF801009DF800107E
:102A800040EA01200FFA80FA504607F01BF9804611
:102A900000224B4B06F0BEFF06464A4A4A4B06F060
:102AA000FDFE044606F0C8FE83464849584607F036
:102AB000CFFE044607F000FE00B2BDE8F88F2DE916
:102AC000FC4104460D4616466B460622432168200B
:102AD000FFF790FF0746BFB99DF801009DF8001071
:102AE00040EA012000B220809DF803009DF802100A
:102AF00040EA012000B228809DF805009DF80410EE
:102B000040EA012000B230803846BDE8FC812DE962
:102B1000FC4104460D4616466B4606223B216820C2
:102B2000FFF768FF0746BFB99DF801009DF8001048
:102B300040EA012000B220809DF803009DF80210B9
:102B400040EA012000B228809DF805009DF804109D
:102B500040EA012000B230803846BDE8FC812DE912
:102B6000F04105460E461746984600F04FF8002102
:102B700041EA4501C8B200F0F3F800F084F820B152
:102B800000F062F80120BDE8F081304600F0E8F87E
:102B900000F079F800240CE018F8040000F0E0F8E8
:102BA00000F071F818B100F04FF80120EBE7601C5D
:102BB000C4B2BC42F0DB00F047F80020E3E70000BD
:102BC00000407540A4703D0AD74342400000C8420F
:102BD00010B5022003F049FC10BD08B501211020FA
:102BE00004F0F8F94FF4C050ADF8000010208DF853
:102BF000030003208DF802006946864803F02EFF8B
:102C00004FF4C051834803F0D6FF08BD10B581488A
:102C1000406820F470407F4948600846406840F4AE
:102C20004050486001207C4908607C49C1F8B001EF
:102C3000FFF7CEFF002078490860FFF7C9FF0020AA
:102C40007649C1F8B00110BD10B57248406820F453
:102C50007040704948600846406840F44050486001
:102C600000206D49091D08606C49C1F8AC01FFF7EF
:102C7000AFFF01206849091D08606849C1F8AC012F
:102C8000FFF7A6FF10BD10B500246248406820F48D
:102C90007040604948600846406840F40040486021
:102CA00001205D490860FFF793FF01205B49C1F8EF
:102CB000B001FFF78DFF07E0601CC4B2FA2C03DD02
:102CC000FFF7C2FF012010BD53488038006800287C
:102CD000F2D15149091D086000BFF4E710B500208A
:102CE0004D49091D08604B48406820F4704049492F
:102CF00048600846406840F440504860002047491A
:102D0000C1F8AC01FFF764FF01204349091D0860C9
:102D1000FFF75EFF00204149C1F8B00110BD10B5BA
:102D200000203D49091D08603A48406820F4704081
:102D3000384948600846406840F4405048600120E7
:102D40003649C1F8AC01FFF743FF01203249091DA4
:102D50000860FFF73DFF00203049C1F8B00110BD09
:102D600070B504462B48406820F4704029494860FB
:102D70000846406840F44050486000202649091D3C
:102D80000860002512E0E009234908606006040E8F
:102D900001202249C1F8B001FFF71AFF00201E49A7
:102DA000091D0860FFF714FF681CC5B2082DEADB97
:102DB00070BD70B5054600241648406820F4704088
:102DC000144948600846406840F4004048600026C6
:102DD00015E000201049091D0860FFF7F9FE0120E9
:102DE0000E49C1F8B0016006040E0B488038006837
:102DF00008B1601CC4B2FFF7EBFE701CC6B2082E0F
:102E0000E7DB15B9FFF78BFF01E0FFF767FF20460F
:102E100070BD000000100140AC01224200002242BF
:102E200038B50446F74890F82400C0B114B1022028
:102E3000009001E000200090F24A1268D17BF14A34
:102E4000526810786B460122FFF789FE10B14FF0EF
:102E5000FF3038BD9DF80010EA48417423E0E9488E
:102E6000807A10B94FF0FF30F3E724B1E548407C99
:102E700008B10020EDE714B10120009001E000202E
:102E80000090E04A1268D17BDE4A526810786B46A7
:102E90000122FFF764FE10B14FF0FF30D9E79DF833
:102EA0000010D84841740020D3E738B500241FE053
:102EB000D4480068C07AA04204D0D2480068407D5F
:102EC000A04200D112E0CF49496808786B46012240
:102ED0002146FFF78FFD10B14FF0FF3038BD9DF850
:102EE00000202146C8A005F0E3FA00BF601CC4B270
:102EF000C44840680079A042DADC0020EEE770B5F3
:102F000004460D46BF480068C07AA04204D0BD48C0
:102F10000068407DA04202D14FF0FF3070BDB9483B
:102F200040680079A04202DC4FF0FF30F6E7B54977
:102F3000496808782B4601222146FFF75BFDEDE743
:102F400038B50446AF4890F82300A04201D10020D4
:102F500038BD14B13020009001E000200090A94855
:102F6000807C20B19DF8000040F002000090A54850
:102F700090F8220020B19DF8000040F08000009001
:102F8000A04A1268117D9F4A526810786B46012250
:102F9000FFF7E5FD10B14FF0FF30D9E7994880F811
:102FA00023400020D4E738B5044604F0700010B187
:102FB0000120009005E014B10020009001E04020C5
:102FC0000090904A1268917C8E4A526810786B4645
:102FD0000122FFF7C4FD20B100218A488172481EFA
:102FE00038BD9DF8000020F04001864801730020A4
:102FF000009004F0400020B99DF8000040F004006B
:10300000009004F0200020B99DF8000040F002007C
:10301000009004F0100020B99DF8000040F001007D
:10302000009004F0080020B99DF8000040F038003E
:103030000090744A1268D17C724A526810786B46CC
:103040000122FFF78CFD20B100216E488172481EDD
:10305000C6E724B1082C02D00020FFF771FF6948B1
:10306000847200210175322003F023FA0020B7E7B3
:1030700038B504466348807CA04201D1002038BDA9
:10308000002C46D05F4A126811795E4A5268107867
:103090006B460122FFF7AEFC10B14FF0FF30EEE7B8
:1030A0009DF8000020F020000090564A1268117927
:1030B000544A526810786B460122FFF750FD10B158
:1030C0004FF0FF30DBE7032003F0F3F9022000901C
:1030D0004C4890F8220020B19DF8000040F080009C
:1030E0000090484890F8230020B19DF8000040F07F
:1030F00030000090434A1268117D424A52681078AD
:103100006B460122FFF72BFD002851D04FF0FF3016
:10311000B5E73C4A126811793A4A526810786B4612
:103120000122FFF767FC10B14FF0FF30A7E73548E9
:10313000807A00F0010028B19DF8000040F02000E6
:10314000009004E09DF8000020F0200000902D4A3F
:10315000126811792B4A526810786B460122FFF7EA
:10316000FEFC10B14FF0FF3089E7032003F0A1F916
:10317000244890F8220010B18020009001E0002047
:103180000090204890F8230020B19DF8000040F006
:10319000300000901B4A1268117D1A4A526810785C
:1031A0006B460122FFF7DBFC10B14FF0FF3066E702
:1031B00014488474002062E708B51248807A10B978
:1031C0004FF0FF3008BD002000900E4A1268D17BFE
:1031D0000C4A526810786B460122FFF7C0FC10B110
:1031E0004FF0FF30EEE7074A12685179054A5268FE
:1031F00010786B460122FFF7B2FC68B14FF0FF3048
:10320000E0E70000E8020020252335783A20252356
:1032100035780D0A00000000FB4A12681179FA4A5D
:10322000526810786B460122FFF799FC10B14FF0FD
:10323000FF30C7E7F44890F82400002850D00C2055
:103240000090F14A12681179EF4A526810786B4683
:103250000122FFF784FC10B14FF0FF30B2E7C0202D
:103260000090E948807A00F0010020B19DF800004C
:1032700040F020000090E44A12681179E24A526856
:1032800010786B460122FFF76AFC10B14FF0FF3057
:1032900098E7DD48407C10B10220009001E000205A
:1032A0000090D94A1268D17BD74A526810786B4691
:1032B0000122FFF754FC10B14FF0FF3082E70020ED
:1032C0000090D14A12685179CF4A526810786B4603
:1032D0000122FFF744FC002855D04FF0FF3071E782
:1032E00004200090C84A12681179C74A52681078C1
:1032F0006B460122FFF733FC10B14FF0FF3061E75E
:10330000C148807C20B9C048807A00F0010010B923
:103310004020009001E060200090BB4A12681179C3
:10332000B94A526810786B460122FFF718FC10B1B9
:103330004FF0FF3046E7322003F0BBF8B248407C44
:1033400010B10120009001E000200090AE4A126808
:10335000D17BAD4A526810786B460122FFF7FFFB24
:1033600010B14FF0FF302DE7A74A12685179A64AF5
:1033700052681078A44B10330122FFF7F0FB10B114
:103380004FF0FF301EE700201CE770B50446002612
:1033900024F001049C4890F8240008B1002070BD7E
:1033A0009948807A10B94FF0FF30F8E79648057CCD
:1033B000807A2040944908740846007CA04202D0DC
:1033C0004FF0FF3600E0002614B98F48007D18B199
:1033D0000120FFF725FD02E00020FFF721FD3CB1B1
:1033E000FFF7EAFE20B1884805744FF0FF30D6E7BA
:1033F0003046D4E738B504468348807A10B94FF098
:10340000FF3038BDBC2C02DB0120009015E0622C9F
:1034100002DB0220009010E02A2C02DB0320009047
:103420000BE0142C02DB0420009006E00A2C02DBE7
:103430000520009001E0062000907348C07A9DF8B6
:103440000010884201D10020DBE76F4A12689178B2
:103450006D4A526810786B460122FFF780FB10B16D
:103460004FF0FF30CDE79DF800106748C172002093
:10347000C7E738B50446282C02DD4FF0FF3038BDD1
:10348000DCB90020FFF75CFD00208DF8000007206C
:103490008DF801005C4A1268917C5B4A5268107892
:1034A0006B460222FFF75BFB10B14FF0FF30E6E7FF
:1034B0000021554801750020E1E70120FFF740FD9C
:1034C00020208DF80000012C06D100208DF801008D
:1034D0000520FFF78FFF17E0052C06DC01208DF893
:1034E00001000520FFF786FF0EE0142C06DC022009
:1034F0008DF801000A20FFF77DFF05E003208DF81D
:1035000001001420FFF776FF9DF80100072101EB71
:103510008010C0B28DF801003B4A1268917C3A4A93
:10352000526810786B460222FFF719FB10B14FF07A
:10353000FF30A4E708213448817200210173012182
:1035400001750020FFF721FF002098E738B50446F9
:103550002D48807A10B94FF0FF3038BD2A4890F8D6
:10356000240010B14FF0FF30F7E72748007D50B13D
:1035700034B1282C04DCE0B2FFF77BFF0020ECE73D
:103580000020FFF776FF042C01DA042404E0B4F5F0
:103590007A7F01DD4FF47A744FF47A7090FBF4F087
:1035A000401EC0B20090184A12685178164A5268FC
:1035B00010786B460122FFF7D2FA10B14FF0FF30BE
:1035C000CBE79DF80000401C4FF47A7191FBF0F0BE
:1035D00081B20D48C1810146C9894810FFF70AFF31
:1035E0000020BAE738B504460748807A10B94FF092
:1035F000FF3038BD022C09D0042C0AD0082C0BD087
:10360000102C0FD10BE00000E802002000200090F9
:103610000BE00820009008E01020009005E0182042
:10362000009002E04FF0FF30E3E700BFF848407A37
:103630009DF80010B0EBE10F01D10020D9E7F44A6A
:103640001268D179F24A526810786B460122FFF76E
:1036500086FA10B14FF0FF30CBE79DF80000C110A3
:10366000EB4841720020C4E738B50446E848807A48
:1036700010B94FF0FF3038BDFA2C09D0B4F5FA7FFD
:1036800009D0B4F57A7F09D0B4F5FA6F0CD108E00F
:10369000002000900BE00820009008E0102000902F
:1036A00005E01820009002E04FF0FF30E3E700BF94
:1036B000D748007A9DF80010B0EBE10F01D100204F
:1036C000D9E7D34A12689179D14A526810786B468B
:1036D0000122FFF744FA10B14FF0FF30CBE79DF81D
:1036E0000000C010CA4908720020C4E71CB5802041
:1036F0008DF80000C64A1268917CC54A526810785D
:103700006B460122FFF72BFA10B14FF0FF301CBDC2
:10371000642002F0CEFE00208DF80000BC4A126842
:10372000917CBB4A526810786B460122FFF717FA6A
:1037300010B14FF0FF30EAE7B54A1268917DB44A04
:10374000526810786B460622FFF754F910B14FF01B
:10375000FF30DCE79DF80500C007400F9DF803101F
:1037600001F0010140EA41009DF8011001F0010162
:1037700040EA010494B1012C03D10121A448C17491
:1037800031E0022C03D10021A148C1742BE0214675
:10379000A0A004F08DFE4FF0FF30B8E79C4A1268FD
:1037A000D1789B4A526810786B460122FFF722F9C4
:1037B00010B14FF0FF30AAE79DF8000000F00F04B1
:1037C0002CB99E4804F074FE4FF0FF309FE7042CA4
:1037D00006D19BA004F06CFE01218D48C17402E06B
:1037E00000218B48C174FF2189488172FF208849DC
:1037F0000872FF2186484172C1724FF6FF71C18184
:10380000FF21017481740121017380F822100021CD
:1038100080F82310417501751630016041608160A8
:10382000163880F8241080F82510C1844FF4FA600F
:10383000FFF71AFF10B14FF0FF3068E70220FFF7E3
:10384000D1FE10B14FF0FF3061E72A20FFF7D2FD23
:1038500010B14FF0FF305AE73220FFF777FE10B17A
:103860004FF0FF3053E70020FFF78FFD10B14FF00E
:10387000FF304CE70020FFF7FBFB10B14FF0FF30AB
:1038800045E70020FFF78FFB002040E770477CB53D
:1038900004460D465E48807A00F0700010B94FF083
:1038A000FF307CBD5A4A1268117B594A5268107821
:1038B0006B460622FFF79EF810B14FF0FF30F0E79D
:1038C0009DF801009DF8001040EA012000B2208020
:1038D0009DF803009DF8021040EA012000B26080CC
:1038E0009DF805009DF8041040EA012000B2A08078
:1038F00015B12846FFF7CAFF0020D2E77CB5044681
:103900000D464348807A00F0080010B94FF0FF30B0
:103910007CBD3F4A1268517B3D4A526810786B4625
:103920000622FFF767F810B14FF0FF30F0E79DF87F
:1039300001009DF8001040EA012000B220809DF8AF
:1039400003009DF8021040EA012000B260809DF85B
:1039500005009DF8041040EA012000B2A08015B1D6
:103960002846FFF793FF0020D2E72DE9FE4F0546DA
:103970000C462748807A18B94FF0FF30BDE8FE8F1B
:10398000234A1268917B224A5268107802AB0222C5
:10399000FFF730F810B14FF0FF30EFE79DF8090066
:1039A0009DF8081040EA012006B214B12046FFF746
:1039B0006DFF17494968C88806F002FF1449019055
:1039C0004968B1F9080006F0B3FE8346304606F0B8
:1039D000AFFE5946009007F073F88246019906F051
:1039E00075FD81461E4906F0FDFC80464FF08F4173
:1039F00006F02EFF074606F05FFE28600020BDE7B8
:103A000010B588B004466CBB4FF0FF3008B010BD55
:103A1000E8020020556E737570706F7274656420D3
:103A2000736F6674776172652070726F647563740A
:103A3000207265762025642E0A000000E8BA00088E
:103A400048616C662073656E736974697669747910
:103A5000207061727420666F756E642E0A0000001B
:103A600000000C42FFE7206830B9606820B9A06808
:103A700010B9002008B010BDFA494968087806ABB3
:103A800003221146FEF7B6FF10B14FF0FF30F1E709
:103A90009DF81800082101EB201000F00F00ADF890
:103AA00000009DF8190001EB201000F00F00ADF8A8
:103AB00002009DF81A0001EB201000F00F00ADF895
:103AC000040020684100BDF90000403091FBF0F097
:103AD00000B2ADF8100060684100BDF9020040304E
:103AE00091FBF0F000B2ADF81200A0684100BDF902
:103AF0000400403091FBF0F000B2ADF81400D94959
:103B00004968087806AB06221146FEF773FF10B12C
:103B10004FF0FF30AEE79DF819009DF8181040EA0D
:103B2000012000B2ADF808009DF81B009DF81A10A6
:103B300040EA012000B2ADF80A009DF81D009DF892
:103B40001C1040EA012000B2ADF80C00BDF81000D6
:103B5000BDF80810084400B2ADF81000BDF812001E
:103B6000BDF80A10084400B2ADF81200BDF8140008
:103B7000BDF80C10084400B2ADF81400BDF81000F8
:103B8000000A8DF81800BDF81000C0B28DF81900B9
:103B9000BDF81200000A8DF81A00BDF81200C0B27C
:103BA0008DF81B00BDF81400000A8DF81C00BDF84C
:103BB0001400C0B28DF81D00AA494968087806AB08
:103BC00006221146FEF7CBFF10B14FF0FF3051E750
:103BD00000204FE70146A348007A30B1012807D002
:103BE000022809D003280FD10AE0FA2008800EE04D
:103BF0004FF4FA7008800AE04FF47A70088006E00B
:103C00004FF4FA60088002E00020088000BF00BF87
:103C10000020704701469348407A30B1012807D010
:103C2000022808D003280CD108E0022008700BE01D
:103C30000420087008E00820087005E010200870D3
:103C400002E04FF0FF30704700BF8648C07C18B1DB
:103C500008784006000E08700020F4E7014681480D
:103C6000C07A082817D2DFE800F01704070A0D1001
:103C70001318BC20088013E06220088010E02A207E
:103C800008800DE0142008800AE00A20088007E080
:103C90000520088004E000BF00BF0020088000BFAE
:103CA00000BF0020704701466E4890F8240010B114
:103CB0004FF0FF3070476B48C08908800020F9E75B
:103CC000014600200880401E704701464FF0FF303B
:103CD000704701466348007A30B1012807D00228B6
:103CE00008D003280CD108E05F4808600BE05F486B
:103CF000086008E05E48086005E05E48086002E091
:103D00004FF0FF30704700BF0020FBE701465548E9
:103D1000407A30B1012808D002280AD0032810D1F7
:103D20000BE04FF4804008800EE041F69C70088064
:103D30000AE04FF48050088006E04FF400600880ED
:103D400002E04FF0FF30704700BF4648C07C10B122
:103D50000888401008800020F5E701464148007CB3
:103D600008700020704701463E48807A10B101205B
:103D7000087001E0002008700020704738B5044644
:103D80003848807A10B94FF0FF3038BD354A126894
:103D9000117C344A526810786B460222FEF72AFEE4
:103DA00010B14FF0FF30F0E79DF801009DF80010D2
:103DB00040EA012000B220800020E6E72DE9FE4F16
:103DC0000746884692461D46DDF830B0002600249E
:103DD000244890F8240010B1601EBDE8FE8F00203A
:103DE00028702048807A10B94FF0FF30F5E71D4861
:103DF000007C10B94FF0FF30EFE71A48007C00F06C
:103E0000400008B1B01CC6B21648007C00F020008B
:103E100008B1B01CC6B21348007C00F0100008B115
:103E2000B01CC6B20F48007C00F0080008B1B01DFD
:103E3000C6B20C4A1268917A0A4A526810786B46E8
:103E40000222FEF7D7FD10B14FF0FF30C5E79DF815
:103E500001009DF8001040EA0129B1450CDA00206C
:103E6000BBE70000E802002000000343000083429B
:103E70003333034233338341FC4840684088B9EB15
:103E8000600F17DDF94A1268517CF84A52681078C1
:103E90006B460122FEF7AEFD10B14FF0FF309CE7FC
:103EA0009DF8000000F0100020B1FFF785F96FF0D9
:103EB000010092E75046FFF7E9FCEC4A1268D17A1C
:103EC000EA4A526810786B463246FEF793FD10B10D
:103ED0004FF0FF3081E799FBF6F0401E8BF80000B1
:103EE00000202870B4422AD0E048007C00F008008E
:103EF00028B3601C1DF800001DF8041040EA0120E2
:103F000000B2A8F80000E01C1DF80010A01C1DF86D
:103F1000000041EA002000B2A8F80200601D1DF870
:103F20000010201D1DF8000041EA002000B2A8F892
:103F30000400287840F008002870A01D84B2B44224
:103F400013D0CA48007C00F0400070B1601C1DF81E
:103F500000001DF8041040EA012000B238802878E3
:103F600040F040002870A01C84B2B44213D0BF4877
:103F7000007C00F0200070B1601C1DF800001DF8EE
:103F8000041040EA012000B27880287840F0200038
:103F90002870A01C84B2B44213D0B448007C00F056
:103FA000100070B1601C1DF800001DF8041040EAFC
:103FB000012000B2B880287840F010002870A01CC2
:103FC00084B2002009E7F8B504460F461646A74814
:103FD00090F8240010B94FF0FF30F8BDA348807A64
:103FE00010B94FF0FF30F8E7A04A1268917A9F4A63
:103FF000526810786B460222FEF7FCFC10B14FF0BD
:10400000FF30EAE79DF801009DF8001040EA012525
:10401000A54203DA00203070401EDEE79348406876
:104020004088B5EB600F17DD904A1268517C8F4ACB
:10403000526810786B460122FEF7DCFC10B14FF09D
:10404000FF30CAE79DF8000000F0100020B1FFF734
:10405000B3F86FF00100C0E7E2B2844B1B68D97A75
:10406000824B5B6818783B46FEF7C4FC10B14FF0FA
:10407000FF30B2E795FBF4F0401E30700020ACE753
:1040800001467A4880F82210002070477CB505462A
:1040900076494968087801AB04220D21FEF7AAFC95
:1040A00008B107207CBD9DF80700C0F301109DF802
:1040B000041001F0E00140EAE1008DF800009DF8F5
:1040C0000700C0F381009DF8051001F0E00140EA0F
:1040D000E1008DF801009DF8070000F003009DF855
:1040E000061001F0E00140EAE1008DF80200002432
:1040F0001CE01DF8040018B9002045F8240013E066
:104100005B4845F8240006E055F82400594906F0BC
:104110009FFB45F824001DF80400401EC0B20DF8B6
:1041200004000028F0D100BF601CC4B2032CE0DB07
:104130000020B7E72DE9FE4F06460F4600256846EA
:10414000FFF7A4FF002442E056F8240057F824109B
:10415000A0EB010ABAF1000F01DB514601E0CAF100
:104160000001084606F0E4FA83464FF08F4106F05E
:10417000ADF980465DF82400002106F069FA16D0FA
:104180005DF82410404606F0A1F982464FF07E51BA
:1041900006F096FC814629F0004A3748416A5046AD
:1041A00006F022FC12D20120A04005430EE0324866
:1041B000C169404606F018FB05D32F48016A404606
:1041C00006F012FC02D20120A0400543641C032C1F
:1041D000BADB2846BDE8FE8F2DE9FC5F06460F4698
:1041E000002522494968087801AB03220D21FEF71A
:1041F00001FC10B10720BDE8FC9F9DF8040000F011
:104200001F008DF804009DF8050000F01F008DF8D8
:1042100005009DF8060000F01F008DF80600002440
:1042200062E056F8240057F82410A0EB010BBBF114
:10423000000F01DB594601E0CBF10001084606F012
:1042400077FA4FF08F41009006F040F9814601A8BF
:10425000005DC0B30849086806F0B2FA83465946C3
:10426000064806F033F980460FE00000E80200201F
:104270007B14AE3E1D5A843F10AD000800B04C4583
:10428000FE49404606F0E4FA804601A8005D401E63
:10429000C0B201A908550028F2D14146484606F0AF
:1042A00015F983464FF07E5106F00AFC82462AF04B
:1042B000004BF3488169584606F096FB13D2012063
:1042C000A04005430FE0FFE7ED480169484606F0CE
:1042D0008BFA05D3EA484169484606F085FB02D2CD
:1042E0000120A0400543641C032C9ADB284682E78A
:1042F0002DE9F04F87B005460C46914601208DF818
:10430000100000208DF81100DE4A1268917CDD4A11
:104310005268107804AB0222FEF721FC20B14FF066
:10432000FF3007B0BDE8F08FC82002F0C2F80020CF
:104330008DF81000D34A1268D17BD24A52681078A7
:1043400004AB0122FEF70BFC10B14FF0FF30E8E7A1
:10435000CC4A12685179CB4A5268107804AB0122DA
:10436000FEF7FDFB10B14FF0FF30DAE7C54A1268E7
:10437000917CC44A5268107804AB0122FEF7EFFB2F
:1043800010B14FF0FF30CCE7BE4A1268D17DBD4A74
:104390005268107804AB0122FEF7E1FB10B14FF038
:1043A000FF30BEE7B74A12681179B64A52681078F2
:1043B00004AB0122FEF7D3FB10B14FF0FF30B0E7A2
:1043C0000C208DF81000AF4A12681179AD4A52687E
:1043D000107804AB0122FEF7C2FB10B14FF0FF30A2
:1043E0009FE70F2002F065F8A648806A407A8DF8B2
:1043F0001000A44A12689178A24A5268107804AB5F
:104400000122FEF7ACFB10B14FF0FF3089E79D4869
:10441000806A007A8DF810009A4A12685178994A99
:104420005268107804AB0122FEF799FB10B14FF0EF
:10443000FF3076E7B9F1000F07D09248806A807AA2
:1044400040F0E0008DF8100004E08E48806A807A29
:104450008DF810008B4A126891798A4A5268107858
:1044600004AB0122FEF77BFB10B14FF0FF3058E7A1
:10447000B9F1000F07D08348806AC07A40F0E000AD
:104480008DF8100003E07E48C07A8DF810007D4A58
:104490001268D1797B4A5268107804AB0122FEF78A
:1044A0005EFB10B14FF0FF303BE7B9F1000F02D0D7
:1044B000C82001F0FEFF40208DF81000714A1268FC
:1044C0001179704A5268107804AB0122FEF747FB5D
:1044D00010B14FF0FF3024E778208DF81000694AC2
:1044E00012685179674A5268107804AB0122FEF7CE
:1044F00036FB10B14FF0FF3013E76149888901F0B6
:10450000D8FF00208DF810005E4A126851795D4A8C
:104510005268107804AB0122FEF721FB10B14FF076
:10452000FF30FEE6574A1268917A564A5268107870
:1045300004AB0222FEF75EFA10B14FF0FF30F0E656
:104540009DF811009DF8101040EA012B0C209BFBF8
:10455000F0F0C6B20020A86068602860A0606060CB
:104560002060824665E0474A1268D17A454A52681F
:10457000107804AB0C22FEF73DFA10B14FF0FF307B
:10458000CFE69DF811009DF8101040EA012000B21E
:10459000ADF808009DF813009DF8121040EA0120C4
:1045A00000B2ADF80A009DF815009DF8141040EA1D
:1045B000012000B2ADF80C00BDF9081020680844D5
:1045C0002060BDF90A10606808446060BDF90C10F5
:1045D000A0680844A0609DF817009DF8161040EAF6
:1045E000012000B2ADF800009DF819009DF81810E8
:1045F00040EA012000B2ADF802009DF81B009DF8D2
:104600001A1040EA012000B2ADF80400BDF9001014
:10461000286808442860BDF902106868084468608A
:10462000BDF90410A8680844A8600AF1010000F070
:10463000FF0AB24597DB1248D0F800C02868C117BE
:10464000090441EA1041070462460023384603F09A
:104650000AFF32460023CDE9020103F004FF28607F
:104660000748D0F800C06868C117090441EA104142
:10467000070462460023384606E0000054E3853F05
:1046800010AD0008E802002003F0EDFE32460023E2
:10469000CDE9020103F0E7FE6860FE48D0F800C0F3
:1046A000A868C117090441EA1041070462460023C3
:1046B000384603F0D8FE32460023CDE9020103F06C
:1046C000D2FEA860F348D0F804C02168C8170004DF
:1046D00040EA11480F04624600233846414603F081
:1046E000C2FE32460023CDE9020103F0BCFE206089
:1046F000E848D0F804C06068C117090441EA1041D5
:10470000070462460023384603F0ADFE324600231C
:10471000CDE9020103F0A7FE6060DE48D0F804C0D6
:10472000A068C117090441EA10410704624600234A
:10473000384603F098FE32460023CDE9020103F02B
:1047400092FEA060A068002804DDA068A0F580307B
:10475000A06003E0A06800F58030A0600020E0E5E4
:1047600038B50446CC4890F82400A04201D100207E
:1047700038BD24B3C84890F8250010B94FF0FF3079
:10478000F6E70020FEF74CFB0020FEF771FCC24963
:10479000C88CFEF7DBFE00200090BF49496808780E
:1047A0006B4601222321FEF7DAF90121BA4880F88D
:1047B00024100120FEF734FBFEF7FEFC13E000207E
:1047C000FEF72EFBB448007C0090B3494968087896
:1047D0006B4601222321FEF7C2F90021AE4880F882
:1047E0002410FEF7E9FC0020C2E72DE9F04F8DB060
:1047F00083460F4602200C90A74890F8240020B171
:104800000020FFF7ADFF012600E0002603A8FFF718
:10481000E1F905A8FFF7FEF901A8FFF71FFA02A8C2
:10482000FFF741FA9C4890F80AA004A8FFF795FA10
:10483000002407E0002239465846FFF759FD00B929
:1048400002E0641C022CF5DB00BF022C01D1002524
:1048500028E0002407E0012206A909A8FFF748FD87
:1048600000B902E0641C022CF5DB00BF022C01D170
:10487000002517E006A93846FFF75CFC00F0FF08AA
:1048800009A95846FFF7A8FC00F0FF090025B9F177
:10489000000F01D145F00105B8F1000F01D145F03D
:1048A000020500BFFF207C490872FF217A4841724F
:1048B000C1724FF6FF71C181FF2181720174012124
:1048C0000173BDF80C00FEF7CFFE9DF81400FEF753
:1048D00089FEBDF80400FEF78DFDBDF80800FEF767
:1048E00035FE5046FEF75FFB9DF81000FEF74DFDCC
:1048F00016B10120FFF734FF28460DB0BDE8F08F58
:10490000F8B504460D46164616B94FF0FF30F8BD0F
:104910006148807A10B94FF0FF30F8E720128DF827
:104920000000E0B28DF801009DF8010028445A49CA
:1049300049684989884202DD4FF0FF30E7E7564A6F
:104940001268117E544A526810786B460222FEF7B4
:1049500006F910B14FF0FF30D9E7EAB24E4B1B68B1
:10496000597D4D4B5B6818783346FEF7F8F810B167
:104970004FF0FF30CBE70020C9E7F8B504460D46FD
:10498000164616B94FF0FF30F8BD4348807A10B98B
:104990004FF0FF30F8E720128DF80000E0B28DF8FC
:1049A00001009DF8010028443B4949684989884233
:1049B00002DD4FF0FF30E7E7374A1268117E364AD2
:1049C000526810786B460222FEF7C9F810B14FF01A
:1049D000FF30D9E7EAB2304B1B68597D2E4B5B683C
:1049E00018783346FEF706F810B14FF0FF30CBE7EA
:1049F0000020C9E72DE9F04385B005460E469046F4
:104A00009946254890F8250020B14FF0FF3005B0B9
:104A1000BDE8F08316B94FF0FF30F8E7002423E03B
:104A2000281B102801DD102000E0281B87B2321956
:104A300039462046FFF764FF10B14FF0FF30E6E73C
:104A400001AA39462046FFF798FF10B14FF0FF301A
:104A5000DDE730193A4601A903F062FE10B16FF0AC
:104A60000100D4E7E01984B2AC42D9DB4FEA282038
:104A70008DF8000008F0FF008DF80100064A12686A
:104A8000917E054A526810786B460222FEF767F85D
:104A900038B103E010AD0008E80200204FF0FF300D
:104AA000B5E70121FE4880F82510A0F826900020E7
:104AB000ADE70146FA4890F82400087000207047DE
:104AC0004FF0FF30704702464FF0FF30704701460D
:104AD0004FF0FF307047F8B505460F461446002CDE
:104AE00070D0B5F5FF5F01DDFF2605E0202D01DA6E
:104AF000012601E0C5F3471607B90127282C02DD7E
:104B00004FF0FF30F8BDE648407D28BBE44890F800
:104B1000240038B10020FFF723FE0121E04880F88F
:104B2000201003E00021DE4880F82010DC48163019
:104B3000FFF750F8DA481830FFF76CF8D8481A3009
:104B4000FFF78CF8D6481C30FFF7ADF8D448817ACF
:104B500081771F30FFF701F90020FEF761F900208F
:104B6000FEF787FC00208DF80000CD4A126891788E
:104B7000CB4A526810786B460122FDF7F0FF10B166
:104B80004FF0FF30BEE740208DF80000C44A1268A5
:104B9000D17BC34A526810786B460122FDF7DFFFD4
:104BA00000B165E08DF800608DF80170BC4A1268B4
:104BB000117ABB4A526810786B460222FDF7CFFF8C
:104BC00008B155E047E0052001F073FCB448407A95
:104BD000072101EBC000C0B28DF80000B04A126896
:104BE000D179AF4A526810786B460122FDF7B7FFC2
:104BF00000B13DE020208DF80000012C03D1002001
:104C00008DF801000EE0052C03DC01208DF8010079
:104C100008E0142C03DC02208DF8010002E00320E0
:104C20008DF801009DF80100072101EB8010C0B252
:104C30008DF801009A4A1268917C994A526810785E
:104C40006B460222FDF78BFF00B111E00121944871
:104C50004175002056E7924A1632002103E0505C6D
:104C600000B105E0491C0C29F9D34FF0FF3049E7AA
:104C7000FF208B490872FF2189484172C1724FF6AB
:104C8000FF71C181FF21817201740121017301460D
:104C9000887FFEF788F98249C88AFEF7E5FC8049DB
:104CA000087EFEF79FFC7E49488BFEF7A3FB7C49FC
:104CB000888BFEF74BFC7A49C87FFEF766FB784885
:104CC00090F8200010B10120FFF74AFD0021744840
:104CD0004175002016E770B588B002A905A8FFF756
:104CE00084FD0446032C3ED101A8FEF7F2FF05988F
:104CF00005F01EFD0646019905F0AAFD054605F0E2
:104D0000DBFC0590069805F013FD0646019905F0B9
:104D10009FFD054605F0D0FC0690079805F008FDBC
:104D20000646019905F094FD054605F0C5FC07907F
:104D300005A800F054FA6846FEF7E8FFBDF8001039
:104D4000029848430290BDF800100398484303902E
:104D5000BDF8001004984843049002A800F0D2FA6D
:104D6000002008B070BD0120FBE7014691F900204A
:104D7000002A01DD00201EE091F90020002A01DA5E
:104D8000042018E091F90120002A01DD012012E041
:104D900091F90120002A01DA05200CE091F90220A6
:104DA000002A01DD022006E091F90220002A01DA42
:104DB000062000E00720704710B504462046FFF7A4
:104DC000D4FF0346E01CFFF7D0FF43EAC00083B2E4
:104DD000A01DFFF7CAFF43EA801083B2184610BD3A
:104DE00070B50024FDF7F9FEFEF780FC002840D1E5
:104DF0007820FEF7D8F8C4B20CB1012070BD78203D
:104E0000FEF7C3FAC4B20CB10220F7E76420FEF744
:104E10009DFBC4B20CB10320F0E700F045F9C4B229
:104E20000CB10420EAE71F48FFF7C6FF054600F073
:104E300045F9C4B20CB10520E0E740F2731000F070
:104E40007EFDC4B20CB10620D8E7642000F0F0FA71
:104E5000C4B20CB10720D1E7FFF73DFF04460CB107
:104E60000820CBE70120FFF77BFCC4B21CB109206E
:104E7000C4E70A20C2E70020C0E72DE9F04F99B04F
:104E800004460D4616464FF07E574FF000084FF08F
:104E900000094FF0000A12A813A918AB0EAA03E0EC
:104EA000E802002014030020CDE9001014A916A880
:104EB00000F0A4FE18B1012019B0BDE8F08FBDF8D4
:104EC0004C0000F4807000287ED00E9805F030FC75
:104ED00083464FF09D4105F0F9FA07460F9805F01B
:104EE00027FC83464FF09D4105F0F0FA804610986C
:104EF00005F01EFC83464FF09D4105F0E7FA814620
:104F0000119805F015FC83464FF09D4105F0DEFA3F
:104F1000824639464FF0804005F09AFC494605909C
:104F200005F096FC414607904FF0404005F090FC9C
:104F30005146059005F08CFC0690079905F052FA51
:104F4000834605F023FACDE9080103F009FF4FF08D
:104F50006632544BCDE90A0104F008FFCDE90C019B
:104F600004F06AFC206049464FF0804005F070FC78
:104F70004946029005F06CFC414604904FF04040D9
:104F800005F066FC4146029005F062FC039004992E
:104F900005F096FD83464FF07E5105F023FA05900B
:104FA00005F0F4F9CDE9080139464FF0804005F0ED
:104FB0004FFC4146039005F04BFC494604904FF0EE
:104FC000804005F045FC00E068E05146039005F0A4
:104FD0003FFC8346049905F005FA059005F0D6F9E3
:104FE000CDE90601DDE9082304F002F94FF066324D
:104FF0002C4BCDE90A0104F0B9FECDE90C0104F017
:105000001BFC28605146504605F022FC494604909E
:10501000484605F01DFC41460390404605F018FC4B
:1050200039460190384605F013FC0090019905F0CF
:10503000D9F90290039905F043FD8346049905F0E0
:105040003FFD059005F0A2F9CDE90801514638462B
:1050500005F0FEFB49460490404605F0F9FB03903D
:10506000049905F0BFF94FF08041059005F0F0FB81
:10507000834605F08BF9CDE90601DDE9082304F04C
:10508000B7F84FF06632074BCDE90A0104F06EFE27
:10509000CDE90C0104F0D0FB306001E002200BE709
:1050A000002009E766A64C4010B5C8234FF4806283
:1050B000F74940F6F630FFF79DFC10BD10B586B0FD
:1050C0000446F4A000680390F3A000680290F3A0E7
:1050D00000680190F2A00068009004F0030003A9AA
:1050E000085C8DF8140003A8C4F3C101405C8DF87E
:1050F000150003A8C4F38111405C8DF8160004F07C
:10510000030002A9085C8DF8100002A8C4F3C101D5
:10511000405C8DF8110002A8C4F38111405C8DF849
:10512000120005AA032140F22640FFF7E9FB18B15F
:105130004FF0FF3006B010BD04AA032140F22A4010
:10514000FFF7DEFB10B14FF0FF30F3E70198059059
:105150000098049004F0040058B19DF8140040F049
:1051600001008DF814009DF8100040F001008DF84A
:10517000100004F0200058B19DF8150040F0010027
:105180008DF815009DF8110040F001008DF8110018
:1051900004F4807058B19DF8160040F001008DF8BD
:1051A00016009DF8120040F001008DF8120005AACB
:1051B00003214FF48860FFF7A3FB10B14FF0FF30DD
:1051C000B8E704AA032140F23140FFF799FB10B180
:1051D0004FF0FF30AEE7B34804810020AAE71FB5C7
:1051E0000446B048007A00F0030054F82000019013
:1051F000AC48007A00F0040010B1019840420190E0
:10520000A848007AC0F3C10054F820000290A548D5
:10521000007A00F0200010B1029840420290A148AC
:10522000007AC0F3811054F8200003909D48008953
:1052300000F4807010B10398404203909A4901989D
:1052400080FB0101800F40EA81000190964902989D
:1052500080FB0110820042EA91700290924903980B
:1052600080FB0110820042EA917003900198000EC9
:105270008DF800000198000C8DF801000198000ADB
:105280008DF802000198C0B28DF803006A4604212F
:105290004FF47470FFF734FB18B14FF0FF3004B0D7
:1052A00010BD0298000E8DF800000298000C8DF8D9
:1052B00001000298000A8DF802000298C0B28DF831
:1052C00003006A4604214FF47570FFF719FB10B113
:1052D0004FF0FF30E3E70398000E8DF800000398CD
:1052E000000C8DF801000398000A8DF80200039865
:1052F000C0B28DF803006A4604214FF47670FFF7C0
:10530000FFFACCE770B588B0064601A8FEF7FEFCB0
:10531000BDF804000021C90341EA5045C4036148B7
:10532000007A00F0030056F8200005905D48007AEE
:1053300000F0040010B10598404205905948007AE9
:10534000C0F3C10056F8200006905648007A00F0DD
:10535000200010B10698404206905248007AC0F3EF
:10536000811056F8200007904E48008900F48070A4
:1053700010B10798404207900598C117A0FB04237D
:1053800001FB043100FB0510810041EA9270059099
:105390000698C117A0FB042301FB043100FB051094
:1053A000810041EA927006900798C117A0FB042380
:1053B00001FB043100FB0510810041EA9270079067
:1053C0000598000E8DF808000598000C8DF809006E
:1053D0000598000A8DF80A000598C0B28DF80B00F8
:1053E0000698000E8DF80C000698000C8DF80D0044
:1053F0000698000A8DF80E000698C0B28DF80F00CE
:105400000798000E8DF810000798000C8DF8110019
:105410000798000A8DF812000798C0B28DF81300A3
:1054200002AA0C214FF42570FFF76AFA08B070BD8C
:1054300030B585B004461DA207CA02AB07C3C82C0D
:1054400003DD4FF0FF3005B030BDC82090FBF4F015
:10545000401E85B2280A8DF80000E8B28DF80100E0
:105460006A46022140F21620FFF74AFA10B14FF0C7
:10547000FF30E8E702AA0C2140F6C120FFF740FA0E
:1054800010B14FF0FF30DEE7064884810020DAE7F4
:1054900038AD00084CCD6C000CC92C003656760097
:1054A000264666007004002009E3CA02FEF2ABC47F
:1054B000AAF1DFDFBBAFDFDF0146FC48808908804F
:1054C000002070472DE9FC4706460F4606F007000E
:1054D00010B1B7F5C86F03DD4FF0FF30BDE8FC87B2
:1054E000384605F06DF98146F14904F0EFFF80463A
:1054F0006846FEF78FFB9DF80000022806D00428BE
:1055000016D0082826D0102848D135E04FF08D411C
:10551000404605F09DF9814605F0EAF884B2E54978
:10552000404605F095F9814605F0E2F885B238E08D
:105530004FF08C41404605F08BF9814605F0D8F8D4
:1055400084B2DD49404605F083F9814605F0D0F884
:1055500085B226E04FF08B41404605F079F981464F
:1055600005F0C6F884B2D549404605F071F9814688
:1055700005F0BEF885B214E04FF08A41404605F0D0
:1055800067F9814605F0B4F884B2CD49404605F08C
:105590005FF9814605F0ACF885B202E04FF0FF30CC
:1055A0009CE700BF20128DF80400E0B28DF80500E2
:1055B00028128DF80600E8B28DF8070006F0010009
:1055C000A0B101AA02214FF4EA70FFF799F910B1D6
:1055D0004FF0FF3082E70DF1060202214FF4927086
:1055E000FFF78EF910B14FF0FF3077E706F00200B9
:1055F000A0B101AA02214FF4EC70FFF781F910B1BC
:105600004FF0FF306AE70DF1060202214FF494706B
:10561000FFF776F910B14FF0FF305FE706F00400B6
:10562000A0B101AA02214FF4EE70FFF769F910B1A1
:105630004FF0FF3052E70DF1060202214FF4967051
:10564000FFF75EF910B14FF0FF3047E7002045E764
:1056500038B504460020009004F0010020B19DF808
:10566000000040F03000009004F0020020B19DF8EE
:10567000000040F00C00009004F0040020B19DF800
:10568000000040F0030000906A4601214FF4A4702E
:10569000FFF736F938BD38B50446012C01DA01248C
:1056A00002E0042C00DD0424601EC0B200906A46B3
:1056B000012140F24F10FFF723F938BD38B50446F9
:1056C000052094FBF0F085B228128DF80000E8B2B6
:1056D0008DF801006A4602214FF4EF70FFF710F9D0
:1056E00038BD38B50446052094FBF0F085B2281289
:1056F0008DF80000E8B28DF801006A4602214FF4EF
:10570000ED70FFF7FDF838BDF8B505460E464FF4CD
:105710007A7095FBF0F000FB06F4200E8DF8000087
:10572000200C8DF80100200A8DF80200E0B28DF8FF
:1057300003006A4604214FF4AE70FFF7E1F8F8BDAC
:1057400038B50446052094FBF0F084B220128DF8A1
:105750000000E0B28DF801006A4602214FF4AD70FE
:10576000FFF7CEF838BD38B50446052094FBF0F0BD
:1057700084B220128DF80000E0B28DF801006A4674
:1057800002214FF4AC70FFF7BBF838BD38B50446C2
:1057900014B94FF0FF3038BD6A4604214FF45870F9
:1057A000FFF7EBF810B14FF0FF30F4E79DF8000081
:1057B00000069DF8011040EA01409DF8021040EA01
:1057C00001209DF80310084320600020E3E738B56E
:1057D0000446200E8DF80000200C8DF80100200AF0
:1057E0008DF80200E0B28DF803006A4604214FF400
:1057F0005870FFF785F838BD38B5044614B94FF036
:10580000FF3038BD6A4604214FF47170FFF7B5F8D8
:1058100010B14FF0FF30F4E79DF8000000069DF84E
:10582000011040EA01409DF8021040EA01209DF875
:105830000310084300EB8000800020600020E0E7B8
:1058400038B504461420B4FBF0F4200E8DF80000A7
:10585000200C8DF80100200A8DF80200E0B28DF8CE
:1058600003006A4604214FF47170FFF749F838BD10
:1058700038B5044664B120208DF8000028208DF84A
:10588000010030208DF8020038208DF8030004E07C
:10589000A3220421684602F06FFF6A46042140F605
:1058A0009E20FFF72DF8FDF787FC38BD700400201F
:1058B00000004843000040460000C045000040454D
:1058C0000000C04438B5044664B1C0208DF8000023
:1058D000C2208DF80100C4208DF80200C6208DF88A
:1058E000030004E08B220421684602F045FF6A466B
:1058F000042140F69820FFF703F8FDF75DFC38BD62
:105900003EB504466CB1FDA1D1E900208968CDE91E
:10591000002002916A4609214FF49760FEF7F0FFDC
:105920003EBDF9A2D2E900109268CDE901020091D2
:105930006A4609214FF49760FEF7E2FFF0E73EB5B3
:10594000044602208DF80000CA208DF80100E320F3
:105950008DF8020009208DF803006A4604216820B2
:10596000FEF7CEFFA3208DF8000004F0400048B100
:10597000C0208DF80100C8208DF80200C2208DF8EB
:10598000030006E0A3208DF801008DF802008DF8D9
:10599000030004F4C07048B1C4208DF80400CC208A
:1059A0008DF80500C6208DF8060006E0A3208DF8CE
:1059B00004008DF805008DF80600A3208DF807007F
:1059C0008DF808008DF809006A460A2140F6A720E4
:1059D000FEF796FF04F0030018B120208DF80000B8
:1059E00002E0D8208DF800006A46012140F6B6207A
:1059F000FEF786FF04F0200018B10120FFF780FFBA
:105A000002E00020FFF77CFF04F4C07008B304F448
:105A1000807060B1B2208DF800008B208DF80100FD
:105A2000B6208DF802009B208DF803000BE0B0201B
:105A30008DF8000080208DF80100B4208DF8020060
:105A400090208DF803006A46042140F6A220FEF75C
:105A500057FF04F0010020B3F8208DF800006A46DB
:105A600001214FF40B60FEF74BFFFA210720FFF7EF
:105A700029FD0720FFF7ECFD0120FFF70CFE642055
:105A8000FFF71CFE4FF4FA70FFF72BFEC821A14868
:105A9000FFF73AFE2820FFF753FE0A20FFF763FEC8
:105AA00008E0D8208DF800006A4601214FF40B6011
:105AB000FEF726FF04F0020018B1D9208DF800008F
:105AC00002E0D8208DF800006A46012140F23D70C6
:105AD000FEF716FF04F0040018B10120FFF7F2FEF4
