:020000040800F2
:1000000060200020A1830008A11D0008A31D000896
:10001000A51D0008A91D0008AD1D00080000000076
:10002000000000000000000000000000B11D0008FA
:10003000B31D000800000000B51D0008B71D000832
:10004000BB830008BB830008BB830008BB83000898
:10005000BB830008BB830008BB830008BB83000888
:10006000BB830008BB830008BB830008BB83000878
:10007000BB830008BB830008BB830008BB83000868
:10008000BB830008BB830008BB830008BB83000858
:10009000BB830008BB830008BB830008BB83000848
:1000A000BB830008BB830008BB830008BB83000838
:1000B000BB830008BB83000825310008BB83000810
:1000C000BB830008BB830008BB830008BB83000818
:1000D000BB830008BB830008BB830008BB83000808
:1000E000BB830008BB830008BB830008BB830008F8
:1000F000BB830008BB830008BB830008BB830008E8
:10010000BB830008BB8300081B300008BB830008CA
:10011000BB830008BB830008BB830008BB830008C7
:10012000BB830008BB830008BB830008BB830008B7
:1001300000F002F800F06DF80AA090E8000C82448C
:100140008344AAF10107DA4501D100F062F8AFF269
:10015000090EBAE80F0013F0010F18BFFB1A43F0A5
:1001600001031847B8E40000D8E400000A444FF047
:10017000000C10F8013B13F0070408BF10F8014B06
:100180001D1108BF10F8015B641E05D010F8016B4B
:10019000641E01F8016BF9D113F0080F1EBF10F8AF
:1001A000014BAD1C0C1B09D16D1E58BF01F801CBD2
:1001B000FAD505E014F8016B01F8016B6D1EF9D555
:1001C0009142D6D37047000000230024002500266A
:1001D000103A28BF78C1FBD8520728BF30C148BFAA
:1001E0000B60704766290DF00482642909F0D887F6
:1001F00078290AF01180002070471FB50AF028FC0A
:100200000400002000210CF05BF8E0601FBD10B579
:1002100010BD0AF061FD1146FFF7EFFF00F008F88E
:100220000AF07FFD03B4FFF7F2FF03BC07F090FE76
:10023000A2B00020219020901F901E9001201890C5
:100240000020179001201690002015900120149096
:100250000020139012901190109002200F9001F046
:1002600020FE4FF4A06008F03FFE07F007FE472194
:1002700044F61F6003F0C4F84FF4FA61FE4809F039
:1002800069FD4FF4FA61FC4809F066FD4FF4FA612C
:10029000F94809F063FD4FF4FA61F74809F060FD91
:1002A00041F2883007F027FE4FF47A71F24809F0E6
:1002B00051FD4FF47A71F04809F04EFD4FF47A7118
:1002C000ED4809F04BFD4FF47A71EB4809F048FD19
:1002D00040F6B83007F00FFE03F0C9FD05E0C82076
:1002E00007F009FEC82007F006FE05F0F3FF00281E
:1002F000F5D14FF47A7007F0FEFD03F0F5FB6420B2
:1003000007F0F9FD03F0E2F8642007F0F4FD03F0D4
:10031000EDF84FF4967007F0EEFD00201990AFE075
:10032000D64AD749D74803F044FE00284DD1D548D6
:10033000B0F900000CF020FF0890D348016808983D
:100340000CF074FD09900CF045FD0022CF4BCDE977
:100350000A010CF065FACDE90C010BF0C7FFCA49A0
:100360000860C748B0F900000CF006FF0890C848C4
:10037000016808980CF05AFD09900CF02BFD002242
:10038000C24BCDE90A010CF04BFACDE90C010BF0A0
:10039000ADFFBF490860B948B0F900000CF0ECFEB1
:1003A0000890BC48016808980CF040FD09900CF0DA
:1003B00011FD0022B54BCDE90A010CF031FACDE96F
:1003C0000C010BF093FFB3490860B34AB349B4483A
:1003D00003F017FE00284FD1B148B0F900000CF02F
:1003E000CBFE0890AF48016808980CF01FFD0990FB
:1003F0000CF0F0FC0022A54BCDE90A010CF010FA3C
:10040000CDE90C010BF072FFA6490860A348B0F9D2
:1004100000000CF0B1FE0890A348016808980CF0A9
:1004200005FD09900CF0D6FC0022984BCDE90A019D
:100430000CF0F6F9CDE90C010BF058FF9A49086071
:100440009548B0F900000CF097FE089097480168B5
:1004500008980CF0EBFC09900CF0BCFC00228B4BD4
:10046000CDE90A010CF0DCF9CDE90C010BF03EFFFF
:100470008E49086002F069FB1998401CC0B21990BF
:1004800019986428FFF64CAF7F4800680CF038FEDE
:1004900000B2874908807E4800680CF031FE00B247
:1004A000834948807B4800680CF02AFE00B28049EE
:1004B00088807C4800680CF023FE00B27D490880EB
:1004C000794800680CF01CFE00B27B4908807B482C
:1004D00000680CF015FE00B27949088000201990E0
:1004E00021E0642007F007FD03F089F875480068F3
:1004F0000CF042FE08907448016808980CF096FCD5
:1005000009900CF067FC0022604BCDE90A010CF069
:1005100087F9CDE90C010BF0E9FE6B4908601998E9
:10052000401CC0B2199019981428DADB664800689C
:100530000CF0E6FD65490860084600680CF01CFEFA
:1005400007900CF047FC0022614BCDE908010BF04D
:10055000BBFF4FF0C0425F4BCDE90A010BF0F8FE44
:10056000CDE90C010BF0C2FE5B490860189818B188
:100570005A4807F0FFFC05E0179818B14FF4E13036
:1005800007F0F8FC0A2007F0B6FC47214FF6FF7091
:1005900002F053FD40F2CF21092002F011FD0A20A4
:1005A00007F0A9FC07F06CFA0A2007F0A4FC0BE0A6
:1005B0004B48006808B9012000E000204849086065
:1005C0004FF4FA7007F097FC07F03AFA4EF61671FE
:1005D0008842EDD101F0E6FC01204149086000208D
:1005E0004049C1F888010A2007F085FC3E480068B0
:1005F0000CF00AFE3D490D900CF04EFE0E900CF0F2
:100600009BFD3B490860384800680CF0FDFD394906
:100610000D900CF041FE0E900CF08EFD36490860F6
:10062000314800680CF0F0FD34490D900CF034FEB8
:100630000E900CF081FD324908602B4800680CF0E8
:10064000E3FD30490D900CF027FE0E900CF074FD88
:100650002D490860244800680CF0D6FD2B490D9008
:100660000CF01AFE0E900CF067FD294908601E4838
:1006700000680CF0C9FD4DE0000400407600002049
:1006800074000020720000208C0000200000E03F79
:100690009000002094000020700000206E000020D8
:1006A0006C000020A0000020A4000020A800002072
:1006B00086000020980000209A000020E801002019
:1006C0009C000020F800002008010020000100200C
:1006D00000005940661271408C01002020A10700E3
:1006E000A00121420080224200000020CDCCCC3D60
:1006F00004000020CDCC4C3D080000200AD7A33CCC
:100700000C0000200AD7233C100000200AD7A33B8E
:1007100014000020FD490D900CF0BEFD0E900CF071
:100720000BFDFB490860FB4800680CF06DFDFA49C1
:100730000D900CF0B1FD0E900CF0FEFCF749086036
:10074000F44800680CF060FDF3490D900CF0A4FD36
:100750000E900CF0F1FCF2490860EE4800680CF0D5
:1007600053FDF0490D900CF097FD0E900CF0E4FC59
:10077000ED490860E74800680CF046FDEB490D9034
:100780000CF08AFD0E900CF0D7FCE9490860E148B6
:1007900000680CF039FDE7490D900CF07DFD0E90DE
:1007A0000CF0CAFCE4490860DA4800680CF02CFD43
:1007B000E2490D900CF070FD0E900CF0BDFCE0498C
:1007C0000860D44800680CF01FFDDE490D900CF065
:1007D00063FD0E900CF0B0FCDB490860CD4800686A
:1007E0000CF012FDD9490D900CF056FD0E900CF056
:1007F000A3FCD7490860C74800680CF005FDD5493F
:100800000D900CF049FD0E900CF096FCD24908605A
:10081000C04800680CF0F8FCD0490D900CF03CFD8D
:100820000E900CF089FCCE490860BA4800680CF0C4
:10083000EBFCCC490D900CF02FFD0E900CF07CFCE5
:10084000C9490860B34800680CF0DEFCC7490D9048
:100850000CF022FD0E900CF06FFCC549086001F011
:1008600040BAC4480068401C0CF0CEFC0E90A94869
:1008700000680CF0C9FCC0490C900CF00DFD0D9007
:100880000E990CF0D5FD3DD2A24800680CF0BCFCDE
:10089000B9490D900CF000FD0E900CF04DFCB549DF
:1008A0000860B6480068401CB4490860B44AB549BD
:1008B000B54803F0A6FB08B902F067F8B34A911EE9
:1008C000881E03F076FBE8B901F0B5FF169808B171
:1008D00002F0F8FAAE4800680E900CF011FC00B27D
:1008E000AC490880AA4840680E900CF009FC00B2A0
:1008F000A8494880A64880680E900CF001FC00B220
:10090000A4498880A4480068401C0CF07DFC0E902F
:10091000804800680CF078FCA0490C900CF0BCFCFE
:100920000D900E990CF084FD11D27A4800680CF0FD
:100930006BFC9A490D900CF0AFFC0E900CF0FCFB98
:10094000954908608D484068401C8C49486094482F
:100950000068401C0CF058FC0E906E4800680CF0CB
:1009600053FC90490C900CF097FC0D900E990CF0F4
:100970005FFD7DD2674800680CF046FC89490D9008
:100980000CF08AFC0E900CF0D7FB854908607B4880
:100990008068401C79498860834A8449844805F00E
:1009A000E6FC02F025F883480168834800680CF0F3
:1009B000ABFD8249086082480168824800680CF0FB
:1009C000A3FD8149086081480168814800680CF0F6
:1009D0009BFD804908601598002849D0219800287F
:1009E00046D10F9820B1012868D002287ED159E164
:1009F00079491398884260D2139800EB4000002197
:100A000001EB80000C2201460E90744807F092F82A
:100A1000724800787149497840EA0120704908809D
:100A20006E4880786D49C97840EA01206C49488059
:100A30006A4800796949497940EA01206849888013
:100A4000664880796549C97940EA01206449C880CF
:100A50006248007A6149497A40EA01206049088188
:100A60005E48807A5D49C97A40EA01205C4900E02D
:100A7000DDE1488100200290039004900590084633
:100A8000408900B2098909B2CDE900105448C088F4
:100A900000B20E905248808800B20D9050484088B5
:100AA00000B20C904E48008800B20B900CA90EC901
:100AB00006F0BDFD1398401C1390B7E1464913980A
:100AC000884222D21398C0EBC000002101EB400005
:100AD0000E2201460E90434807F02CF8414800785A
:100AE0004049497840EA01203F4900E09DE1088003
:100AF0003C4880783B49C97840EA01203A4948801F
:100B0000384800793749497970E0CAE06F12033BF1
:100B100018000020000000206F12833A1C00002003
:100B20002000002017B7D1382400002017B7513813
:100B300028000020ACC5A7372C000020ACC5273703
:100B400030000020ACC5A73634000020BD37063683
:100B500038000020BD3786353C000020BD37063503
:100B60004000002095BF56344400002095BFD63386
:100B70004800002004000020CDCCCC3D64040020BF
:100B8000700000206E0000206C0000207C0000201F
:100B9000580400202C01002008000020CDCC4C3D42
:100BA0000C0000200AD7A33C680000206000002051
:100BB0006400002018010020B80000200C01002073
:100BC0001C010020BC00002010010020200100209A
:100BD000C00000201401002078AA0A00C4040020EC
:100BE000B4050020C0050020BC06002040EA01201A
:100BF000FE498880FE488079FD49C97940EA012094
:100C0000FA49C880FA48007AF949497A40EA01204D
:100C1000F6490881F648807AF549C97A40EA012008
:100C2000F2494881F248007BF149497B40EA0120C2
:100C3000EE498881084680880B900CF0E5FA0E900A
:100C4000EA4840880B900CF0DFFA0D90E7480088E6
:100C50000B900CF0D9FA0C90002000900346019004
:100C60000CA807C806F043FC0021E048808900B2C8
:100C7000CDE902010491DD480591408900B2DB49CC
:100C8000098909B2CDE90010D848C08800B20346EE
:100C9000002211460E90104606F0C9FC1398401C25
:100CA0001390C3E0D349139888427DD2139800EB88
:100CB000800101EBC000002101EB40001A22014637
:100CC0000E90CD4806F036FFCB480078CA494978E7
:100CD00040EA0120C9490880C7488078C649C978D8
:100CE00040EA0120C5494880C3480079C249497992
:100CF00040EA0120C1498880BF488079BE49C9794E
:100D000040EA0120BD49C880BB48007ABA49497A07
:100D100040EA0120B9490881B748807AB649C97AC2
:100D200040EA0120B5494881B348007BB249497B7C
:100D300040EA0120B1498881AF48807BAE49C97B38
:100D400040EA0120AD49C881AB48007CAA49497CF2
:100D500040EA0120A9490882A748807CA649C97CAD
:100D600040EA0120A5494882A348007DA249497D67
:100D700040EA0120A14988829F48807D9E49C97D23
:100D800040EA01209D49C8829B48007E9A49497EDD
:100D900040EA01209949088300230846008A00B2EE
:100DA000C98909B2954A00E03EE0928912B2CDE9C4
:100DB0000403CDE902219148408900B28F49098995
:100DC00009B2CDE900108D48C08800B20E908B4862
:100DD000808800B20D908948408800B20C90874806
:100DE000008800B20B900CA90EC906F020FC8348C5
:100DF000C08A0B900CF008FA0E908048808A0B9005
:100E00000CF002FA0D907D48408A0B900CF0FCF932
:100E10000C9000200090034601900CA807C806F033
:100E200066FB1398401C139000E000BF00BF74489D
:100E30000068401C0CF0E8F90E90724800680CF055
:100E4000E3F971490C900CF027FA0D900E990CF013
:100E5000EFFA7AD26B4800680CF0D6F96A490D9027
:100E60000CF01AFA0E900CF067F9654908606748B3
:100E7000C068401C6549C860219800287ED064483D
:100E8000006840F24C41884279D96148008800B23C
:100E90001B906048B0F9000040F2E351081A5E4927
:100EA0000968884208D85B48B0F9000000F2E350B6
:100EB00059490968884218D257480088A0F2E3507F
:100EC00000B21D901D980CF057F909900BF082FFAD
:100ED000524A534BCDE90A010BF0A2FCCDE90C01BB
:100EE0000BF004FA4F49086002E000204D49086009
:100EF0004848B0F9000040F2E451081A4A4909682C
:100F0000884208D84348B0F9000000F2E45046494E
:100F1000096888421AD24448008840F2E451081A0D
:100F200000B21C901C980CF027F909900BF052FFAE
:100F30003A4A3B4BCDE90A010BF072FCCDE90C01BA
:100F40000BF0D4F93949086003E0C3E000203749C9
:100F500008603048B0F9000040F2E351081A344903
:100F60000968884208D82B48B0F9000000F2E35025
:100F70002F49096888421ED22D4801E0AEE01EE0EC
:100F8000008840F2E351081A00B21A901A980CF047
:100F9000F3F809900BF01EFF204A214BCDE90A011E
:100FA0000BF03EFCCDE90C010BF0A0F921490860E3
:100FB0000020086012E000201E4908600EE00020BA
:100FC0001D4908801D4908801D4908801D49088069
:100FD00000231A461946184601F020F80C4800680C
:100FE00040F24C41884249D211482DE0BC06002015
:100FF000C005002078AA0A00CA060020B407002015
:1010000010000020000000200AD7233C64040020C8
:1010100054000020D20000204C000020F49FDA850C
:101020008B81A23F18010020500000201C010020ED
:101030005800002020010020A0020020A202002071
:10104000A4020020A60200200068884216D21F9841
:1010500018B9FC48008880B21F90FA4801681F98B0
:10106000081A08280CD300202190F74908600120B5
:10107000F649C1F8A00100201F9001E000201F9058
:10108000F348006840F24C41884224D2F14800689D
:1010900040F26C7188421ED9209818B9E94800883E
:1010A00080B22090E74801682098081A0D2872D372
:1010B00000202190E4490860E449C1F8A00106F04D
:1010C00029FE0020E04908600120E049C1F8A001A4
:1010D000002020905FE0002020905CE00020DE49AE
:1010E0000880DE490880DE490880DE490880002348
:1010F0001A461946184600F091FFD548006840F29C
:101100004C4188421BD2D348006840F26C7188423F
:1011100015D9209818B9CB48008880B22090C948CA
:1011200001682098081A05280BD301202190C64990
:1011300008600020C549C1F8A001209001E000200E
:101140002090C348006840F24C41884221D2C148F7
:10115000006888421DD21F9818B9BA48008880B22A
:101160001F90B84801681F98081A082813D31598CB
:1011700018B10020B449086002E00120B2490860BB
:10118000159808B9012000E00020159000201F905C
:1011900001E000201F90B4480068401C0CF034F8B7
:1011A0000E90B24800680CF02FF8B1490C900CF08A
:1011B00073F80D900E990CF03BF969D2AB480068BA
:1011C0000CF022F8AA490D900CF066F80E900BF086
:1011D000B3FFA5490860A7480069401CA5490861FC
:1011E0009B48006840F24C4188420CD9219850B18C
:1011F00001F0B1F801F01DF801F025FE01F06EFDDF
:101200001B9800F03DFF9C480078E8BB2198D8B3BC
:101210009A4800688E490968884239D28C4800682B
:1012200097490968884233D29648007880B9964831
:101230000168964800680BF0FBFF09D284480068FB
:101240009349096808449349086001208D49087052
:101250009148007878B98B48007860B18D48006873
:101260008B490968401A8D490968401A8C49086001
:101270000120894908708348007828B186480078A1
:1012800010B101207C4900E002E008708549086047
:1012900085480068401C0BF0B7FF0E90734800684B
:1012A0000BF0B2FF81490C900BF0F6FF0D900E99F8
:1012B0000CF0BEF87ED26D4800680BF0A5FF7B49AC
:1012C0000D900BF0E9FF0E900BF036FF76490860A9
:1012D00068484069401C67494861189800286AD0EE
:1012E0001498002867D11598002864D170480068C8
:1012F0000BF006FF0E9021991E98CDE900016D4874
:101300000E9B02686C4801686C48006806F0EFF8B4
:10131000002259480078604909785A4B1B78CDE97A
:101320000031CDE902024F48008880B20E904C484F
:10133000008880B20D904948008880B20C904648E1
:10134000008880B20B900CA90EC906F033FA002079
:1013500002900390049005905148008880B24D4956
:10136000098889B2CDE900105548008880B20E90F6
:101370005448008880B20D903648008880B20C90A6
:101380003348008880B20B900CA90EC906F0A6FA6B
:10139000474800680BF0B4FE0E904B4800680BF015
:1013A000AFFE00B20D90384800680BF0A9FE00B205
:1013B0000C9001E013E134E0444800680BF0A0FE1B
:1013C00000B20B904248806807900BF099FE00B283
:1013D0000A903F48406807900BF092FE00B20990D7
:1013E0003B48006807900BF08BFE00B20890DDE9E7
:1013F0000B23DDE90D10CDE90223CDE904103548BA
:10140000B0F904003349B1F90210CDE900103148B8
:10141000B0F900000346079008A807C806F007F9CE
:101420005DE0179860B1149850B9159840B92048FC
:1014300000680BF0CFFC02460B46CDE90C014BE0F7
:101440004DE000002400002088812242000021425B
:101450005400002058000020A0020020A20200201A
:10146000A4020020A602002014000020000000209A
:101470000AD7A33B64040020E2020020CC02002033
:10148000C8020020E0020020FC010020DC02002055
:10149000E4020020D0020020E1020020E802002047
:1014A000D4020020A0012142180000206F12033B4B
:1014B000EC000020C0000020BC000020B80000208C
:1014C000500000204C000020CC010020B40100207E
:1014D0005804002024010020FDA008F02DFE2198D2
:1014E00000287CD00F9820B1012879D0022878D12B
:1014F00076E1FE491298884274D2FD48017810982E
:1015000000EB4000002202EB8000FA4A1154F84838
:101510000088C0F30721109800EB4000012202EB85
:101520008000F44A1154F4480178109800EB400010
:10153000022202EB8000EF4A1154EF480088C0F30A
:101540000721109800EB4000032202EB8000E94ADB
:101550001154EA480178109800EB4000042202EB95
:101560008000E44A1154E5480088C0F30721109830
:1015700000EB4000052202EB8000DE4A1154E048F7
:101580000178109800EB4000062202EB8000D94A57
:101590001154DB480088C0F30721109800EB40008D
:1015A000072202EB8000D34A1154D5488178109865
:1015B00000EB4000082202EB8000CE4A1154D048D4
:1015C0004088C0F30721109800EB4000092202EB8D
:1015D0008000C84A1154CA480179109803E0D7E244
:1015E0002FE0D3E22CE000EB40000A2202EB800067
:1015F000C04A1154C2488088C0F30721109800EBFC
:1016000040000B2202EB8000BA4A11541298401C91
:1016100012901098401C10901098142810D1119816
:10162000C0EB0010002101EB0010F02201460E90EB
:10163000B04806F09FFB1198401C119000201090BC
:10164000A5E2AA49129888427ED2AE4800680BF003
:1016500057FDC1B21098C0EBC000002202EB400061
:10166000A94A1154A74800680BF04AFDC0F30721AE
:101670001098C0EBC000012202EB4000A24A1154B6
:10168000A24800680BF03CFDC1B21098C0EBC0004E
:10169000022202EB40009C4A11549C4800680BF067
:1016A0002FFDC0F307211098C0EBC000032202EB0E
:1016B0004000954A1154964800680BF021FDC1B2D4
:1016C0001098C0EBC000042202EB40008E4A115477
:1016D0008F4800680BF014FDC0F307211098C0EB91
:1016E000C000052202EB4000874A11548948017866
:1016F0001098C0EBC000062202EB4000824A115451
:1017000084480088C0F307211098C0EBC00007226E
:1017100002EB40007C4A11547E4881781098C0EB5F
:10172000C000082202EB4000774A115479484088F3
:10173000C0F307211098C0EBC000092202EB400063
:10174000714A1154734800E049E001791098C0EBE8
:10175000C0000A2202EB40006B4A11546D48808899
:10176000C0F307211098C0EBC0000B2202EB400031
:10177000654A1154684800680BF0C2FCC1B2109869
:10178000C0EBC0000C2202EB40005F4A11546248DB
:1017900000680BF0B5FCC0F307211098C0EBC00047
:1017A0000D2202EB4000584A11541298401C12902E
:1017B0001098401C10901098122810D11198C0EB6E
:1017C0008010002101EB8000FC2201460E904E4863
:1017D00006F0D0FA1198401C119000201090D6E12C
:1017E00042491298884271D24C4800680E900BF022
:1017F00087FCC1B2109800EB800202EBC00000220F
:1018000002EB4000464A1154444800680E900BF029
:1018100077FCC0F30721109800EB800202EBC000B8
:10182000012202EB40003E4A11543C4840680E90B1
:101830000BF066FCC1B2109800EB800202EBC00016
:10184000022202EB4000364A1154344840680E90A0
:101850000BF056FCC0F30721109800EB800202EB5E
:10186000C000032202EB40002D4A11542B4880682F
:101870000E900BF045FCC1B2109800EB800202EB19
:10188000C000042202EB4000254A1154234880681E
:101890000E900BF035FCC0F30721109800EB80028E
:1018A00002EBC000052202EB40001D4A115419480A
:1018B0000178109800EB800202EBC000062202EBD8
:1018C0004000174A1154134800882BE05DE10000E6
:1018D00020204D53353631315F416C746974756425
:1018E00065203D25666D0D0A0000000078AA0A00FB
:1018F0006C000020C40400206E0000207000002056
:1019000078000020B8000020C0050020BC000020A6
:10191000C000002024010020FC0100205804002009
:10192000CA060020C0F30721109800EB800202EBEA
:10193000C000072202EB4000EB4A1154EB488178CB
:10194000109800EB800202EBC000082202EB40007E
:10195000E54A1154E5484088C0F30721109800EB90
:10196000800202EBC000092202EB4000DE4A115463
:10197000DE480179109800EB800202EBC0000A22D9
:1019800002EB4000D84A1154D8488088C0F30721A0
:10199000109800EB800202EBC0000B2202EB40002B
:1019A000D14A1154D24800680BF0AAFBC1B210987A
:1019B00000EB800202EBC0000C2202EB4000CA4A9E
:1019C0001154CB4800680BF09BFBC0F30721109823
:1019D00000EB800202EBC0000D2202EB4000C24A85
:1019E0001154C44800680BF08BFBC1B2109800EB97
:1019F000800202EBC0000E2202EB4000BA4A1154F2
:101A0000BC4800680BF07CFBC0F30721109800EB8A
:101A1000800202EBC0000F2202EB4000B24A1154D8
:101A2000B54800680BF06CFBC1B2109800EB800267
:101A300002EBC000102202EB4000AB4A1154AE484A
:101A400000680BF05DFBC0F30721109800EB8002EB
:101A500002EBC000112202EB4000A34A1154A74838
:101A600000680BF04DFBC1B2109800EB800202EB56
:101A7000C000122202EB40009B4A11549F480068AC
:101A80000BF03EFBC0F30721109800EB800202EB45
:101A9000C000132202EB4000934A1154984800689A
:101AA0000BF02EFBC1B2109800EB800202EBC000DD
:101AB000142202EB40008C4A1154914800680BF04C
:101AC0001FFBC0F30721109800EB800202EBC0005F
:101AD000152202EB4000844A11548A4800680BF03A
:101AE0000FFBC1B2109800EB800202EBC00016227F
:101AF00002EB40007C4A1154824800680BF000FB66
:101B0000C0F30721109800EB800202EBC0001722FF
:101B100002EB4000744A11547B4800680BF0F0FA65
:101B2000C1B2109800EB800202EBC000182202EB59
:101B300040006D4A1154744800680BF0E1FAC0F39C
:101B40000721109800EB800202EBC000192202EB83
:101B50004000654A11541298401C12901098401C85
:101B600010901098092810D1752111984843002130
:101B700001EB4000EA2201460E905B4806F0FAF8BD
:101B80001198401C11900020109000E000BF00BF91
:101B90005E480068401C0BF037FB0E905C48006804
:101BA0000BF032FB5B490C900BF076FB0D900E991D
:101BB0000BF03EFC66D2564800680BF025FB5549F9
:101BC0000D900BF069FB0E900BF0B6FA4F490860D0
:101BD00051488069401C5049886101F02CFD4B48F8
:101BE0000068642815D24D4801684D4800680BF024
:101BF0001DF909900BF0EEF800224A4BCDE90A01DD
:101C00000AF00EFECDE90C010AF070FB44490860B1
:101C100038E043480168414800680BF07BF90E90BA
:101C200001F0DAFD4049086001F0F8FD3F48006826
:101C30003F49404A127841F82200354800680BF0CD
:101C4000E3FA3D490E900BF027FB3C49394A1278E4
:101C500041F8220037480078401C36490870084691
:101C60000078072807D1002008703548007810B99F
:101C70000120334908703248007818B101F0D1FED4
:101C800001F00AFE2F480068401C0BF0BDFA0E90D0
:101C90001F4800680BF0B8FA27490C900BF0FCFACB
:101CA0000D900E990BF0C4FB1BD2194800680BF085
:101CB000ABFA21490D900BF0EFFA0E900BF03CFAC5
:101CC000204908601448C069401C1349C861159830
:101CD00038B11D48006808B9012000E000201A4909
:101CE0000860FEF7BEBD0000CA06002024010020E7
:101CF000180100201C01002020010020B800002055
:101D0000BC000020C0000020FC0100201C000020BE
:101D1000000000206F12833A64040020F4000020C9
:101D2000FC0000200000E03FF0000020B401002093
:101D30008C040020C002002017B7D138A80400206E
:101D4000C1020020240000208881224200BF1A48DE
:101D500001684FF0E0208269174800688142F6D19F
:101D60001648006800EB4003C3EBC010C2EBC00094
:101D7000124B1B68B0FBF3F001EB4103C3EBC11343
:101D800000EBC300704700B585B0684606F0D7FD8C
:101D90000B490098B0FBF1F00849086005B000BDA0
:101DA0007047704700BFFEE700BFFEE700BFFEE7D9
:101DB0007047704770477047F8020020FC0200200F
:101DC00040420F000CB50020019000906C48006864
:101DD00040F480306A49086000BF6948006800F438
:101DE000003000900198401C0190009818B90198AB
:101DF000B0F5A06FF1D16248006800F4003010B176
:101E00000120009001E0002000900098012843D1BB
:101E10005C48006840F010005A49086008460068B5
:101E200020F0030008600846006840F002000860E7
:101E30005348406852494860084640684860084630
:101E4000406840F4806048600846406820F47C1098
:101E500048600846406840F4E8104860084600685A
:101E600040F08070086000BF4548006800F00070D6
:101E70000028F9D04248406820F0030040494860FB
:101E80000846406840F00200486000BF3C48406897
:101E900000F00C000828F9D10CBD10B5FFF792FF37
:101EA00010BD10B53648006840F0010034490860A4
:101EB000084640683449084031494860084600688F
:101EC000324908402E4908600846006820F4802006
:101ED00008600846406820F4FE0048604FF41F0088
:101EE0008860FFF7DAFF4FF000602949086010BDF5
:101EF00010B5002100200022214B5B6803F00C018B
:101F000021B1042906D0082928D107E0214B224C11
:101F1000236027E01F4B204C236023E0184B5B68B5
:101F200003F47010164B5B6803F48032022303EB5A
:101F3000904022B9194B4343174C23600DE0104BDE
:101F40005B6803F4003323B1144B4343124C23600A
:101F500003E0104B4343104C236003E00D4B0E4C49
:101F6000236000BF00BF064B5B68C3F303130C4C38
:101F7000E15C094B1B68CB40074C236010BD00009F
:101F800000100240002002400000FFF8FFFFF6FEB4
:101F900008ED00E000127A000003002000093D0077
:101FA0000403002008B50121242006F035FD4FF47C
:101FB0008070ADF8000010208DF8030003208DF82C
:101FC00002006946094806F06BFA4FF48071074831
:101FD00006F013FB0420ADF800006946044806F043
:101FE0005FFA0421024806F008FB08BD0008014022
:101FF0000014014002468A4201DD0846704710463F
:10200000FCE703469A4203DA8B4201DA184670472E
:10201000994201DC0846FAE71046F8E730B5B0F51A
:10202000FA6F01DD4FF4FA60B1F5FA6F01DD4FF49C
:10203000FA61B2F5FA6F01DD4FF4FA62B3F5FA6FA7
:1020400001DD4FF4FA63B0F57A7F01DA4FF47A706C
:10205000B1F57A7F01DA4FF47A71B2F57A7F01DA5D
:102060004FF47A72B3F57A7F01DA4FF47A73FE4D4A
:1020700028802D1D29802D1D2A802D1D2B8030BDEF
:1020800070B5044640F2DC512046FFF7B3FF054629
:10209000F64A5142F648B0F90000FFF7B2FF054496
:1020A0006FF031023221F348B0F90000FFF7A9FFC9
:1020B0002E18F14800680BF023F805B26FF00E02FD
:1020C0000F212846FFF79DFF0644EC4800680BF0FF
:1020D00017F805B26FF009020A212846FFF791FFB1
:1020E000304400B2E649088040F2DC512046FFF758
:1020F00081FF0546DD4A5142E248B0F90000FFF792
:1021000080FF05446FF031023221DF48B0F9000052
:10211000FFF777FF2E18D84800680AF0F1FF05B2E4
:102120006FF00E020F212846FFF76BFF0644D348DD
:1021300000680AF0E5FF05B26FF009020A2128469F
:10214000FFF75FFF304400B2D049088040F2DC5115
:102150002046FFF74FFF0546C44A5142CC48B0F92C
:102160000000FFF74EFF05446FF031023221C948ED
:10217000B0F90000FFF745FF2E18BF4800680AF0CD
:10218000BFFF05B26FF00E020F212846FFF739FF9F
:102190000644BA4800680AF0B3FF05B26FF00902BE
:1021A0000A212846FFF72DFF304400B2BA490880C3
:1021B00040F2DC512046FFF71DFF0546AB4A514275
:1021C000B648B0F90000FFF71CFF05446FF031027C
:1021D0003221B348B0F90000FFF713FF2E18A648CC
:1021E00000680AF08DFF05B26FF00E020F2128463D
:1021F000FFF707FF0644A14800680AF081FF05B217
:102200006FF009020A212846FFF7FBFE304400B2B6
:10221000A44908800846B0F900309F48B0F9002072
:102220009A48B0F900109648B0F90000FFF7F6FEA2
:1022300070BD2DE9F0479C4801689C4800680BF090
:102240002BF806469A4801689A4800680BF024F873
:10225000804699480168994800680BF01DF80746C8
:1022600041460AF0E3FD054631460AF0DFFD04462B
:102270000AF046FF00B27F4908808B4801688B480E
:1022800000680BF009F880468948016889480068B1
:102290000BF002F881468948006880F000478648C4
:1022A000016838460AF0F8FF064649460BF02CF95B
:1022B000054641460AF0BAFD04460AF021FF00B285
:1022C0007149088078480168784800680AF0E4FF9E
:1022D000804677480168774800680AF0DDFF81464C
:1022E0007648006880F000477348016838460AF075
:1022F000D3FF064649460AF099FD054641460BF0D4
:1023000003F904460AF0FCFE00B262490880664800
:102310000168664800680AF0BFFF06466448016825
:10232000644800680AF0B8FF0746634801686348DC
:1023300000680AF0B1FF804639460BF0E5F8054623
:1023400031460BF0E1F804460AF0DAFE00B25449D7
:102350000880BDE8F0872DE9F0475949B1F904003C
:102360000AF00AFF07465748016838460AF094FF0A
:1023700005465349B1F902000AF0FEFE8146524873
:10238000016848460AF088FF07464D49B1F9000048
:102390000AF0F2FE81464D48016848460AF07CFF8B
:1023A000804639460AF042FD064629460AF03EFDBF
:1023B00004460AF0A5FE00B22D4908804049B1F953
:1023C00004000AF0D9FE07463E48016838460AF084
:1023D00063FF05463A49B1F902000AF0CDFE814695
:1023E0003948016848460AF057FF07463449B1F9B1
:1023F000001048420AF0C0FE814634480168484651
:102400000AF04AFF804639460BF07EF80646294618
:102410000AF00CFD04460AF073FE00B21949088068
:102420002749B1F904000AF0A7FE074625480168CC
:1024300038460AF031FF05462149B1F902000AF099
:102440009BFE81462048016848460AF025FF074662
:102450001B49B1F9001048420AF08EFE81461B4824
:102460000168484634E0000034040040D4FEFFFF19
:10247000DC000020D40000209C02002098020020F4
:10248000A0020020DE000020D6000020A2020020D2
:10249000E0000020D8000020A4020020E20000207C
:1024A000DA000020A60200203003002014010020E2
:1024B0002C03002010010020280300200C01002024
:1024C0002C0100204803002044030020400300208A
:1024D0000AF0E2FE804639460AF0A8FC0646294684
:1024E0000BF012F804460AF00BFE00B2FE49088019
:1024F000FE49B1F904000AF03FFE0746FC480168B6
:1025000038460AF0C9FE0546F849B1F902000AF05A
:1025100033FE8146F748016848460AF0BDFE07468B
:10252000F249B1F900000AF027FE8146F24801683D
:1025300048460AF0B1FE804639460AF0E5FF0646F5
:1025400029460AF0E1FF04460AF0DAFD00B2EB4941
:102550000880BDE8F0872DE9F041E949B1F90010A4
:102560004942E84AB2F900201144DF4AB2F900209A
:10257000891AE24AB2F900201144E34AB2F9002074
:10258000891AE24AB2F900201144E14AB2F9002066
:10259000891AE04AB2F9002088180AF0EDFD0746D2
:1025A000DD48016838460AF077FE0546D449B1F99E
:1025B00000104942D34AB2F900201144CA4AB2F984
:1025C00000201144CD4AB2F90020891ACE4AB2F94E
:1025D0000020891ACD4AB2F900201144CC4AB2F940
:1025E00000201144CB4AB2F90020881A0AF0C4FD39
:1025F0000746CA48016838460AF04EFE0646294694
:102600000AF014FC04460AF07BFD00B2C4490880BD
:10261000BB49B1F900104942BA4AB2F9002011444D
:10262000B14AB2F90020891AB44AB2F90020114423
:10263000B54AB2F90020891AB44AB2F9002011440F
:10264000B34AB2F90020891AB24AB2F900208818B8
:102650000AF092FD0746B048016838460AF01CFEB1
:102660000546A749B1F900104942A64AB2F900202F
:1026700011449D4AB2F900201144A04AB2F9002049
:10268000891AA14AB2F90020891AA04AB2F9002099
:1026900011449F4AB2F9002011449E4AB2F9002029
:1026A000501A0AF069FD07469C48016838460AF04E
:1026B000F3FD064629460AF027FF04460AF020FDEE
:1026C00000B2984908808E49B1F9001049428D4AFC
:1026D000B2F900201144844AB2F90020891A874ACD
:1026E000B2F900201144884AB2F90020891A874AB9
:1026F000B2F900201144864AB2F90020891A854AAD
:10270000B2F9002088180AF037FD074682480168B0
:1027100038460AF0C1FD05467949B1F90010494231
:10272000784AB2F9002011446F4AB2F900201144EE
:10273000724AB2F90020891A734AB2F90020891A44
:10274000724AB2F900201144714AB2F900201144D2
:10275000704AB2F90020501A0AF00EFD07466F4881
:10276000016838460AF098FD064629460AF05EFBE5
:1027700004460AF0C5FC00B26B4908806049B1F913
:10278000001049425F4AB2F900201144564AB2F99A
:102790000020891A594AB2F9002011445A4AB2F964
:1027A0000020891A594AB2F900201144584AB2F956
:1027B0000020891A574AB2F9002088180AF0DCFC78
:1027C00007465548016838460AF066FD05464C49FB
:1027D000B1F9001049424B4AB2F900201144424A73
:1027E000B2F900201144454AB2F90020891A464A3C
:1027F000B2F90020891A454AB2F900201144444A2E
:10280000B2F900201144434AB2F90020881A0AF0B4
:10281000B3FC07464148016838460AF03DFD0646CC
:1028200029460AF071FE04460AF06AFC00B23F49EC
:102830000880BDE8F0812DE9F04100250026002741
:102840003B49B1F900103B4AB2F90020881A0AF05E
:1028500093FC3949394A127841F822003449B1F9D8
:102860000210344AB2F90220881A0AF085FC344971
:10287000324A127841F822002D49B1F904102D4A4C
:10288000B2F90420881A0AF077FC2E492B4A1278F4
:1028900041F82200002416E0274850F8241028466A
:1028A0000AF0C4FA0546264850F8241030460AF0CB
:1028B000BDFA0646234850F8241038460AF0B6FA06
:1028C0000746601CC4B2062CE6DB1F4928460AF006
:1028D00021FB80460AF014FC00B21C4908801A490A
:1028E00030460AF017FB33E0E00000202C01002006
:1028F000480300204403002040030020E2000020A1
:10290000DC000020DE000020D4000020D6000020E3
:10291000D8000020DA0000205C03002058030020CB
:10292000E4000020E6000020E8000020EA0000208B
:102930007800002086000020D007002074030020CB
:10294000E8070020000800200000C040240100200B
:1029500080460AF0D5FB00B2FE494880FE49384661
:102960000AF0D8FA80460AF0CBFB00B2F949888019
:10297000FA480078401CF949087008460078062893
:1029800001D100200870BDE8F08170B50025F44940
:10299000B1F90010F34AB2F90020881A0AF0ECFBF2
:1029A000F149F24A127841F82200002408E0EE488A
:1029B00050F8241028460AF039FA0546601CC4B2C3
:1029C000062CF4DBE44928460AF0A4FA06460AF08D
:1029D00097FB00B2E6490880E4480078401CE349D0
:1029E000087008460078062801D10020087070BDE4
:1029F0002DE9F041002500260027DE480068DE4969
:102A0000DE4A127841F82200DD480068DD49DB4AE1
:102A1000127841F82200DC480068DC49D74A127875
:102A200041F82200002416E0D34850F8241028462C
:102A30000AF0FCF90546D34850F8241030460AF055
:102A4000F5F90646D14850F8241038460AF0EEF958
:102A50000746601CC4B2042CE6DB4FF081412846D7
:102A60000AF058FACA4908604FF0814130460AF02E
:102A700051FAC84908604FF0814138460AF04AFAD5
:102A8000C5490860BD480078401CBC49087008462C
:102A90000078042801D100200870BDE8F0812DE9FC
:102AA000F04F89B083468A4650460AF093F9804633
:102AB000BA4ABB4B09F0B4FE02460B46CDE9000111
:102AC0000020B84909F000FD06460F4658460AF0B6
:102AD00081F932463B46CDE9020109F039FCCDE9E6
:102AE000060158460AF076F9CDE90401DDE906232E
:102AF00009F0EAFC044609F0F9FBAB49086009B0AB
:102B0000BDE8F08F2DE9F0419549B1F90010984AE0
:102B1000B2F90020881A0AF02FFB0746A248016884
:102B200038460AF0B9FB05469148B0F900000AF0B2
:102B300023FB064629460AF079F904460AF0E0FA32
:102B400000B28B490880BDE8F08170B597480068F5
:102B50009749086097480168974800680AF066F945
:102B60009549086095480168934800680AF05EF945
:102B700004462146904800680AF0CCF99049086064
:102B80007748B0F900000AF0F7FA0646884801686D
:102B900030460AF0B9FC05468948016828460AF023
:102BA0007BFB04468248016820460AF03FF97F49D2
:102BB0000860834801684FF07E500AF0A5FC044687
:102BC0007D48016820460AF067FB7B49086070BDBC
:102BD00070B57C4800687C4908607C4801687C4886
:102BE00000680AF023F97A4908607A480168784851
:102BF00000680AF01BF904462146754800680AF08F
:102C000089F9754908607548B0F900000AF0B4FA0E
:102C100006466D48016830460AF076FC05466E4867
:102C2000016828460AF038FB0446674801682046D8
:102C30000AF0FCF863490860674801684FF07E506D
:102C40000AF062FC04466248016820460AF024FB50
:102C50005F49086070BD70B56148006861490860EF
:102C600061480168614800680AF0E0F85F4908605F
:102C70005F4801685D4800680AF0D8F804462146BC
:102C80005A4800680AF046F95A4908605A48B0F9AB
:102C900000000AF071FA06465248016830460AF010
:102CA00033FC05465348016828460AF0F5FA044605
:102CB0004C48016820460AF0B9F8494908604D4877
:102CC00001684FF07E500AF01FFC04464748016837
:102CD00020460AF0E1FA4549086070BD70B54748E2
:102CE0000078002834D04648006820F00044204690
:102CF0000AF070F805460022424B09F055FD27D234
:102D00004148006820F0004420460AF063F8054678
:102D100000223C4B09F048FD1AD21948006820F007
:102D200000444FF07E5120460AF082FA10D211483A
:102D3000006820F000444FF07E5120460AF078FAF7
:102D40007AD23248006832490988884274D261E0F8
:102D500072E00000240100200000C0407403002045
:102D6000700000209C00002018080020750300203F
:102D70002A01002060000020300800207603002097
:102D80006400002040080020680000205008002057
:102D9000B8000020BC000020C000002097D17E5A5F
:102DA000FB2119400000F03F34010020E801002021
:102DB000EC010020E0010020F0010020DC010020F7
:102DC000E4010020280200202C0200202002002024
:102DD000300200201C020020240200206E0000208F
:102DE000480200204C020020400200205002002037
:102DF0003C020020440200206C000020E20200207F
:102E0000180100200000E03F1C010020D402002037
:102E100054000020594800885949096888420BD25B
:102E20005848006880F000445748016820460AF07E
:102E300033FA5649086002E0002054490860002037
:102E40005249086070BD2DE9FE4F4C490988A1F533
:102E50007A700AF091F902904D48006809F0BAFFC3
:102E600007464C4A4C4B09F0DBFC054609F03EFA9C
:102E7000834608F0C1FF00904848006809F0AAFFA7
:102E80000746444A444B09F0CBFC054609F02EFAAC
:102E9000834608F0B1FF044600990AF0FDF9814627
:102EA00036490988A1F57A700AF066F94946019019
:102EB0000AF030F8824602990AF026FB3849086089
:102EC000BDE8FE8F2DE9F041002400BF52E03548F7
:102ED00050F82400344941F82400344A52F82410B0
:102EE000334A52F8240009F0A1FF314941F8240087
:102EF000304A52F824102E4A52F8240009F096FF66
:102F000005462B4951F8240029460AF003F82A49BE
:102F100041F82400294931F914000AF02DF9074637
:102F2000214850F8241038460AF0EEFA06462248A6
:102F300050F8241030460AF0AFF905461A4850F808
:102F40002410284609F072FF164941F824001A4857
:102F500050F824104FF07E500AF0D6FA0546144877
:102F600050F8241028460AF097F9114941F8240036
:102F7000601CC4B2032CAADBBDE8F0815400002021
:102F8000D002002068030020FC01002098020020ED
:102F90001C0100205F40D42247DF913F1801002030
:102FA0009C0200204C0400205804002080020020D5
:102FB0008C02002074020020400400202401002024
:102FC0007FB505460C460121082005F032FDADF81D
:102FD0000850ADF804400020ADF80A00ADF8060036
:102FE00001A9EA4806F0C2F801221146E74806F0B6
:102FF00034FC32208DF8000001208DF80100002003
:103000008DF8020001208DF80300684605F071FF7D
:103010000121DE4806F006FC7FBD10B50121DB482A
:1030200006F0C9FE40B10121D84806F0D5FED848C7
:103030000068401CD649086010BD30B585B0054613
:103040000C460121042005F0F4FC0121082005F0C4
:10305000E3FC4FF47070ADF8100028208DF81300D9
:1030600004A9CC4805F01CFA4FF47071C94805F06A
:10307000C6FAADF80850ADF804400020ADF80A00DB
:10308000ADF8060001A9C44806F070F80020C34955
:1030900008804880012088800020C8800881BE48C0
:1030A00006F0F7FA0420BD4908800020488001207E
:1030B00088800020C8800881B74806F0EAFA082016
:1030C000B649088000204880012088800020C88000
:1030D0000881B14806F0DDFA0C20B04908800020D4
:1030E0004880012088800020C8800881AA4806F016
:1030F000D0FA1E208DF8000000208DF801008DF818
:10310000020001208DF80300684605F0F2FE01225E
:103110001E21A14806F0A1FB01219F4806F082FB79
:1031200005B030BD10B59E48007800F08000002842
:1031300046D10221984806F03EFE002840D00221E8
:10314000954806F049FE9648007800F0400040B3EC
:10315000914806F011FE934908800846008892497C
:103160000988884204DA4FF6FF709049086002E04F
:1031700000208E4908608B4800888B490988401AD6
:103180008A49096808448A490860084600688949EC
:10319000086000208249087000217F4806F0F4FC96
:1031A0000EE07D4806F0E8FD7F4908807C48007805
:1031B00040F040007A4908700221774806F0E4FCAC
:1031C0007D48007800F08000002846D10421724834
:1031D00006F0F1FD002840D004216F4806F0FCFD08
:1031E0007548007800F0400040B36B4806F0C7FD1A
:1031F000724908800846008871490988884204DAC3
:103200004FF6FF706F49086002E000206D490860CA
:103210006A4800886A490988401A6A490968084466
:1032200069490860084600686849086000206249EA
:1032300008700021584806F0B9FC0EE0564806F028
:103240009EFD5F4908805C48007840F040005A4984
:1032500008700221504806F0A9FC5D48007800F093
:103260008000002845D108214B4806F0A4FD80B31A
:103270000821494806F0B0FD5548007800F04000AC
:1032800040B3454806F07EFD524908800846008854
:1032900051490988884204DA4FF6FF704F490860A7
:1032A00002E000204D4908604A4800884A490988E0
:1032B000401A4A49096808444949086008460068B4
:1032C000484908600020424908700021324806F051
:1032D00087FC0EE0304806F055FD3F4908803C4829
:1032E000007840F040003A49087002212A4806F070
:1032F00077FC3D48007800F08000A8BB10212648EC
:1033000006F059FD80B31021234806F065FD3648CC
:10331000007800F0400040B31F4806F036FD334906
:1033200008800846008832490988884204DA4FF646
:10333000FF703049086002E000202E4908602B48E9
:1033400000882B490988401A2A49096808442A49F3
:103350000860084600682949086000202249087072
:1033600000210D4806F056FC0EE00B4806F00DFD5E
:103370001F4908801C48007840F040001A49087036
:103380000221054806F046FC10BD0000000C00407C
:1033900000000020000C01400008004060080020F0
:1033A000780300207C0300207A030020A003002083
:1033B000900300204C0000207E03002082030020A8
:1033C00080030020A403002094030020500000206C
:1033D000840300208803002086030020A803002027
:1033E00098030020540000208A0300208E03002050
:1033F0008C030020AC0300209C0300205800002018
:1034000030B589B005460C460121022005F011FBBC
:103410000121112005F000FB0121294805F011F9D7
:103420004FF47070ADF8200018208DF823000320B1
:103430008DF8220008A9234805F032F8ADF818509D
:10344000ADF814400020ADF81A00ADF8160005A93B
:103450001D4805F08BFE6020ADF804000120ADF89A
:1034600006000020ADF80A00ADF80C0001A91648CE
:1034700005F0B9FE0821144806F004FB01A9124822
:1034800005F0F3FE0821104806F005FB01A90E48DF
:1034900005F038FF08210C4806F00AFB01A90A488C
:1034A00005F07BFF0821084806F00BFB01210648C8
:1034B00006F0B8FA0121044806F0B4F909B030BDAD
:1034C000000C1A00001001400004004010B500F08C
:1034D00025FBEE2000F0DAFB00F065FB1E2000F07B
:1034E000D5FB00F060FB00F03DFB10BD70B5012482
:1034F00033E000F013FBEE2000F0C8FB00F053FBBC
:10350000A02101EB4401C8B200F0C0FB00F04BFB6E
:1035100000F028FB052004F0CAFC00F0FFFAEF20C1
:1035200000F0B4FB012004F0C2FC00F03CFB0120E1
:1035300000F0DBFB0546012004F0B9FC002000F0A0
:10354000D4FB064600F00EFB052004F0D4FC46EA4E
:103550000520FE4921F81400641C062CC9DDFB4837
:10356000008808B9012070BD0020FCE738B504468A
:10357000002500F0D3FAEE2000F088FB00F013FBEA
:10358000204600F083FB00F00EFB00F0EBFA092070
:1035900004F0B1FC282004F08AFC00F0BFFAEE2011
:1035A00000F074FB00F0FFFA002000F06FFB00F069
:1035B000FAFA00F0D7FA00F0B1FAEF2000F066FB5B
:1035C00000F0F1FA012000F090FB8DF800000120DE
:1035D00000F08BFB8DF80100002000F086FB8DF8D9
:1035E000020000F0BFFA9DF8000001049DF8010000
:1035F00001EB00209DF802104518284638BD10B593
:103600005820FFF7B3FFD2490860052004F04FFCB3
:10361000CE484089CE490968A1EB0020CD49086019
:10362000CA488089096848434FF4FA6101EBD050D9
:10363000C949086010BD2DE9F0414820FFF796FF09
:10364000C6490860052004F032FCC04880880104A7
:10365000BE480089BF4A1268504301EBD0100021D8
:10366000BF4A03C2B9484088C103B848C088B94AB4
:103670001268504301EB10200021BA4A03C2B74838
:103680000068083A18CAA0FB032501FB035100FBA0
:103690000411500D40EAC1234815B149D1E9002178
:1036A0009A1A60EB0100410441EAD230AE49086049
:1036B000A9480068B0F5FA6F46DAA64800684043AA
:1036C000C017C117A94A03C2A3480068A0F5FA6051
:1036D0004043401000EB8000C117A54A03C29E483A
:1036E0000068A0F5FA604043801000EB8000C1172D
:1036F000A04A03C2984800689F4988422FDA96483A
:10370000006800F2DC50C0EBC0009349096801F288
:10371000DC514843C117964AD2E90032C0185141E2
:10372000934A03C28C48006800F2DC5040434010CA
:1037300000EB400101EBC000C1178E4B0CCB801891
:1037400059418C4A03C20AE00021884A1160516045
:103750000020874A10605060864A116051607E48A0
:10376000006882490968401A7B4908607C48D0E9B2
:1037700000207F49D1E90031D21A60EB010078497D
:10378000C1E900207748D0E900307A49D1E9002129
:103790009A1A60EB01007349C1E900206F48006884
:1037A000002550C9A0FB041705FB047400FB064468
:1037B000480D40EAC4256015694C12CC6D1A60EBC7
:1037C0000401E80B40EA4142C913104609F0EFFC3E
:1037D0006A490860BDE8F0812DE9F04704462046BB
:1037E00008F080FC8146664909F056FD074608F05E
:1037F000C1FB06464FF07E5109F07CFE054661484C
:103800000168614809F048FD8046294609F044FDF9
:103810005E49086008460068BDE8F08770B55C48FE
:1038200000685C4908605C4801685C48006809F011
:10383000FDFA5A4908605A4801685848006809F07A
:10384000F5FA044621465548006809F063FB5549DE
:103850000860504801684D48006809F055FE05466B
:1038600050480168284609F017FD04464948016898
:10387000204609F0DBFA464908604A4801684FF0E3
:103880007E5009F041FE044644480168204609F094
:1038900003FD4249086070BD70B543480068434964
:1038A0000860434801684348006809F0BFFA41498D
:1038B0000860414801683F48006809F0B7FA0446CB
:1038C00021463C48006809F025FB3C490860374820
:1038D00001683B48006809F017FE05463748016853
:1038E000284609F0D9FC044630480168204609F012
:1038F0009DFA2D490860314801684FF07E5009F06B
:1039000003FE04462B480168204609F0C5FC2949FE
:10391000086070BD70B52B4800682B4908602B48C3
:1039200001682B48006809F081FA29490860294894
:1039300001682748006809F079FA044621462448BE
:10394000006809F0E7FA2449086047E030040020E5
:103950004401002048010020F80000204001002020
:10396000380100205801002060010020680100207B
:10397000780100208001002024FAFFFFF4000020DD
:1039800041D3423E8C0100207B627046EC00002057
:10399000B0010020B4010020A8010020B8010020DF
:1039A000A4010020AC010020C8010020CC010020AF
:1039B000C0010020D0010020BC010020C401002073
:1039C000FC010020680200206C0200206002002040
:1039D000700200205C020020640200203848016868
:1039E0003848006809F090FD0546374801682846C8
:1039F00009F052FC044632480168204609F016FAE4
:103A000032490860304801684FF07E5009F07CFD73
:103A100004462F480168204609F03EFC2C49086006
:103A200070BD2DE9F05F2B4A5168106809F06CFDFC
:103A30008046294A5168106809F066FD8146274989
:103A400009F02AFC0746414609F064FA0546214A76
:103A50009168906909F058FD82461F4A9168906903
:103A600009F052FD83464FF0834109F015FC814671
:103A7000514609F04FFA0746164AD168506909F0D5
:103A800043FD8246144AD168506909F03DFD8346E2
:103A9000134909F001FC8146514609F03BFA804682
:103AA000394609F0C3F90646294609F0BFF904462C
:103AB0004FF0745109F0F0FB0A490860BDE8F09F2F
:103AC0006C020020F4000020640200206802002044
:103AD00070020020A80400208C0400200000C040D8
:103AE00000002041FC01002008B50121042004F061
:103AF00093FF4FF4C050ADF8000010208DF8030084
:103B000003208DF802006946914804F0C9FC0120A9
:103B1000904908609049C1F8AC0108BD10B58C48C7
:103B2000001D006820F470408949091D086008469E
:103B3000006840F44050086001208649091F086071
:103B40008549C1F8B001042004F0B1F90020814991
:103B5000091F0860042004F0AAF900207E49C1F87A
:103B6000B00110BD10B57A48001D006820F4704007
:103B70007749091D08600846006840F44050086015
:103B80000020744908607449C1F8AC01042004F0B5
:103B90008EF901206F4908606F49C1F8AC0104201B
:103BA00004F085F910BD10B500246948001D0068B7
:103BB00020F470406649091D08600846006840F41A
:103BC0000040086001206349091F086004F06FF994
:103BD00001206149C1F8B00104F069F907E0601CF7
:103BE000C4B2FA2C03DDFFF7BDFF012010BD594818
:103BF000843800680028F2D15649086000BFF5E714
:103C000010B50020534908605148001D006820F499
:103C100070404F49091D08600846006840F4405054
:103C2000086000204C49C1F8AC01022004F03FF9C3
:103C3000012048490860022004F039F90020464973
:103C4000C1F8B00110BD10B50020424908604048DD
:103C5000001D006820F470403D49091D08600846B9
:103C6000006840F44050086001203B49C1F8AC01B5
:103C7000022004F01CF9012036490860022004F0FB
:103C800016F900203449C1F8B00110BD70B50446E2
:103C90002F48001D006820F470402D49091D086060
:103CA0000846006840F44050086000202949086038
:103CB000002517E0E0092749091F08606006040E87
:103CC000022004F0F4F801202349C1F8B0010220D9
:103CD00004F0EDF800201F490860022004F0E7F826
:103CE000681CC5B2082DE5DB70BD70B50546002423
:103CF0001748001D006820F470401549091D086030
:103D00000846006840F400400860002616E00020E5
:103D100010490860022004F0CAF801200E49C1F8D9
:103D2000B0016006040E0B488438006808B1601CBE
:103D3000C4B2012004F0BBF8701CC6B2082EE6DB4A
:103D400015B9FFF780FF01E0FFF75AFF204670BD6D
:103D500000080140B00121420000214270B5054633
:103D60000C4600F0CDF9D02000F074FA00F005FA0E
:103D700018B100F0E3F9012070BD284600F06AFA9E
:103D800000F0FBF9204600F065FA00F0F6F918B1F2
:103D900000F0D4F90120EFE700F0D0F90020EBE7C4
:103DA00070B504460025BC2C01DB012510E0622C17
:103DB00001DB02250CE02A2C01DB032508E0142C92
:103DC00001DB042504E00A2C01DB052500E00625C3
:103DD00029461A20FFF7C2FF70BD70B50446B4F53E
:103DE0007A7F01DD4FF47A74042C00DA04244FF456
:103DF0007A7090FBF4F0401EC5B229461920FFF7F7
:103E0000ADFF0546264604EBD671C1F34F00FFF720
:103E1000C7FF70BD70B5044600F072F9D02000F005
:103E200019FA00F0AAF9204600F014FA00F0A5F9FA
:103E300000F066F9D12000F00DFA00F09EF90020A4
:103E400000F031FA054600F079F9284670BD10B54A
:103E50000446E006010E1C20FFF780FF10BD10B5E0
:103E60000446E006010E1B20FFF778FF10BD10B5D9
:103E700000F02DF980216B20FFF770FF642004F023
:103E80003AF800216B20FFF769FF0320FFF7E7FFF7
:103E90000020FFF7DCFF3220FFF79FFF00213820D2
:103EA000FFF75CFF00216A20FFF758FF0021232065
:103EB000FFF754FF80213720FFF750FF7520FFF7F1
:103EC000A9FF0446682C0BD101216B20FFF746FFA8
:103ED00000216C20FFF742FF3220FFF77EFF01E058
:103EE000012010BD0020FCE72DE9F04106460F46F9
:103EF00014461D4600F004F9002141EA4601C8B20B
:103F000000F0A8F900F039F920B100F017F901200C
:103F1000BDE8F081384600F09DF900F02EF900F080
:103F2000EFF8012101EB4601C8B200F093F900F06F
:103F300024F90DE0012C04D1002000F0B4F9287020
:103F400003E0012000F0AFF92870601EC4B26D1CC0
:103F5000002CEFD100F0F2F80020D9E72DE9F84F5E
:103F60006B46022241216820FFF7BEFF9DF8010049
:103F70009DF8001040EA01200FFA80FA504608F040
:103F8000FBFB804600224B4B08F09EFA06464A4A4D
:103F90004A4B08F0DDF9044608F0A8F98346484981
:103FA000584609F079F9044609F0AAF800B2BDE8CC
:103FB000F88F2DE9FC4104460D4616466B46062255
:103FC00043216820FFF790FF0746BFB99DF8010025
:103FD0009DF8001040EA012000B220809DF8030007
:103FE0009DF8021040EA012000B228809DF80500EB
:103FF0009DF8041040EA012000B230803846BDE848
:10400000FC812DE9FC4104460D4616466B4606220E
:104010003B216820FFF768FF0746BFB99DF8010004
:104020009DF8001040EA012000B220809DF80300B6
:104030009DF8021040EA012000B228809DF805009A
:104040009DF8041040EA012000B230803846BDE8F7
:10405000FC812DE9F04105460E461746984600F0D2
:104060004FF8002141EA4501C8B200F0F3F800F032
:1040700084F820B100F062F80120BDE8F0813046FC
:1040800000F0E8F800F079F800240CE018F80400DB
:1040900000F0E0F800F071F818B100F04FF80120DE
:1040A000EBE7601CC4B2BC42F0DB00F047F8002034
:1040B000E3E7000000407540A4703D0AD74342404A
:1040C0000000C84210B5022003F0F1FE10BD08B593
:1040D0000121102004F0A0FC4FF4C050ADF8000006
:1040E00010208DF8030003208DF8020069468648F1
:1040F00004F0D6F94FF4C051834804F07EFA08BDAD
:1041000010B58148406820F470407F4948600846F7
:10411000406840F44050486001207C4908607C4978
:10412000C1F8B001FFF7CEFF002078490860FFF723
:10413000C9FF00207649C1F8B00110BD10B5724822
:10414000406820F47040704948600846406840F478
:104150004050486000206D49091D08606C49C1F855
:10416000AC01FFF7AFFF01206849091D08606849ED
:10417000C1F8AC01FFF7A6FF10BD10B500246248DE
:10418000406820F47040604948600846406840F448
:104190000040486001205D490860FFF793FF01205F
:1041A0005B49C1F8B001FFF78DFF07E0601CC4B2A6
:1041B000FA2C03DDFFF7C2FF012010BD5348803801
:1041C00000680028F2D15149091D086000BFF4E7DA
:1041D00010B500204D49091D08604B48406820F487
:1041E0007040494948600846406840F44050486083
:1041F00000204749C1F8AC01FFF764FF01204349A3
:10420000091D0860FFF75EFF00204149C1F8B001B9
:1042100010BD10B500203D49091D08603A484068AE
:1042200020F47040384948600846406840F44050E7
:10423000486001203649C1F8AC01FFF743FF012077
:104240003249091D0860FFF73DFF00203049C1F8E1
:10425000B00110BD70B504462B48406820F4704092
:10426000294948600846406840F4405048600020B2
:104270002649091D0860002512E0E009234908606D
:104280006006040E01202249C1F8B001FFF71AFFB1
:1042900000201E49091D0860FFF714FF681CC5B205
:1042A000082DEADB70BD70B505460024164840684D
:1042B00020F47040144948600846406840F40040CB
:1042C0004860002615E000201049091D0860FFF72E
:1042D000F9FE01200E49C1F8B0016006040E0B483A
:1042E0008038006808B1601CC4B2FFF7EBFE701C98
:1042F000C6B2082EE7DB15B9FFF78BFF01E0FFF729
:1043000067FF204670BD000000100140AC01224252
:104310000000224238B50446F74890F82400C0B1A6
:1043200014B10220009001E000200090F24A1268CF
:10433000D17BF14A526810786B460122FFF789FE63
:1043400010B14FF0FF3038BD9DF80010EA484174BD
:1043500023E0E948807A10B94FF0FF30F3E724B149
:10436000E548407C08B10020EDE714B10120009041
:1043700001E000200090E04A1268D17BDE4A5268DA
:1043800010786B460122FFF764FE10B14FF0FF304A
:10439000D9E79DF80010D84841740020D3E738B51C
:1043A00000241FE0D4480068C07AA04204D0D2485C
:1043B0000068407DA04200D112E0CF4949680878EA
:1043C0006B4601222146FFF78FFD10B14FF0FF3001
:1043D00038BD9DF800202146C8A005F0ADFE00BF05
:1043E000601CC4B2C44840680079A042DADC0020F6
:1043F000EEE770B504460D46BF480068C07AA0429B
:1044000004D0BD480068407DA04202D14FF0FF308B
:1044100070BDB94840680079A04202DC4FF0FF301F
:10442000F6E7B549496808782B4601222146FFF78F
:104430005BFDEDE738B50446AF4890F82300A04295
:1044400001D1002038BD14B13020009001E00020DF
:104450000090A948807C20B19DF8000040F0020047
:104460000090A54890F8220020B19DF8000040F08F
:1044700080000090A04A1268117D9F4A526810780F
:104480006B460122FFF7E5FD10B14FF0FF30D9E791
:10449000994880F823400020D4E738B5044604F05A
:1044A000700010B10120009005E014B100200090D0
:1044B00001E040200090904A1268917C8E4A526838
:1044C00010786B460122FFF7C4FD20B100218A4815
:1044D0008172481E38BD9DF8000020F040018648DA
:1044E00001730020009004F0400020B99DF8000006
:1044F00040F00400009004F0200020B99DF8000076
:1045000040F00200009004F0100020B99DF8000077
:1045100040F00100009004F0080020B99DF8000070
:1045200040F038000090744A1268D17C724A526898
:1045300010786B460122FFF78CFD20B100216E48F8
:104540008172481EC6E724B1082C02D00020FFF774
:1045500071FF6948847200210175322003F0CBFCA1
:104560000020B7E738B504466348807CA04201D1FB
:10457000002038BD002C46D05F4A126811795E4A8F
:10458000526810786B460122FFF7AEFC10B14FF075
:10459000FF30EEE79DF8000020F020000090564A22
:1045A00012681179544A526810786B460122FFF75D
:1045B00050FD10B14FF0FF30DBE7032003F09BFC10
:1045C000022000904C4890F8220020B19DF8000095
:1045D00040F080000090484890F8230020B19DF8FA
:1045E000000040F030000090434A1268117D424ABA
:1045F000526810786B460122FFF72BFD002851D03E
:104600004FF0FF30B5E73C4A126811793A4A5268D8
:1046100010786B460122FFF767FC10B14FF0FF30B6
:10462000A7E73548807A00F0010028B19DF8000026
:1046300040F02000009004E09DF8000020F02000F1
:1046400000902D4A126811792B4A526810786B46F7
:104650000122FFF7FEFC10B14FF0FF3089E7032085
:1046600003F049FC244890F8220010B1802000900B
:1046700001E000200090204890F8230020B19DF830
:10468000000040F0300000901B4A1268117D1A4A69
:10469000526810786B460122FFF7DBFC10B14FF037
:1046A000FF3066E714488474002062E708B51248BA
:1046B000807A10B94FF0FF3008BD002000900E4AFC
:1046C0001268D17B0C4A526810786B460122FFF7C2
:1046D000C0FC10B14FF0FF30EEE7074A1268517985
:1046E000054A526810786B460122FFF7B2FC68B1A8
:1046F0004FF0FF30E0E70000B003002025233578BD
:104700003A20252335780D0A00000000FB4A126884
:104710001179FA4A526810786B460122FFF799FC2A
:1047200010B14FF0FF30C7E7F44890F8240000289C
:1047300050D00C200090F14A12681179EF4A52686B
:1047400010786B460122FFF784FC10B14FF0FF3068
:10475000B2E7C0200090E948807A00F0010020B163
:104760009DF8000040F020000090E44A12681179A2
:10477000E24A526810786B460122FFF76AFC10B1DA
:104780004FF0FF3098E7DD48407C10B102200090E8
:1047900001E000200090D94A1268D17BD74A5268C4
:1047A00010786B460122FFF754FC10B14FF0FF3038
:1047B00082E700200090D14A12685179CF4A5268AE
:1047C00010786B460122FFF744FC002855D04FF0CB
:1047D000FF3071E704200090C84A12681179C74A77
:1047E000526810786B460122FFF733FC10B14FF08E
:1047F000FF3061E7C148807C20B9C048807A00F072
:10480000010010B94020009001E060200090BB4AF8
:1048100012681179B94A526810786B460122FFF785
:1048200018FC10B14FF0FF3046E7322003F063FB75
:10483000B248407C10B10120009001E000200090BF
:10484000AE4A1268D17BAD4A526810786B4601229D
:10485000FFF7FFFB10B14FF0FF302DE7A74A1268BA
:104860005179A64A52681078A44B10330122FFF701
:10487000F0FB10B14FF0FF301EE700201CE770B5D1
:104880000446002624F001049C4890F8240008B156
:10489000002070BD9948807A10B94FF0FF30F8E7DA
:1048A0009648057C807A2040944908740846007C2C
:1048B000A04202D04FF0FF3600E0002614B98F4826
:1048C000007D18B10120FFF725FD02E00020FFF771
:1048D00021FD3CB1FFF7EAFE20B1884805744FF096
:1048E000FF30D6E73046D4E738B504468348807AAF
:1048F00010B94FF0FF3038BDBC2C02DB0120009016
:1049000015E0622C02DB0220009010E02A2C02DB72
:10491000032000900BE0142C02DB0420009006E042
:104920000A2C02DB0520009001E00620009073486D
:10493000C07A9DF80010884201D10020DBE76F4A61
:10494000126891786D4A526810786B460122FFF721
:1049500080FB10B14FF0FF30CDE79DF800106748A5
:10496000C1720020C7E738B50446282C02DD4FF09D
:10497000FF3038BDDCB90020FFF75CFD00208DF86A
:10498000000007208DF801005C4A1268917C5B4AA8
:10499000526810786B460222FFF75BFB10B14FF0B4
:1049A000FF30E6E70021554801750020E1E70120CE
:1049B000FFF740FD20208DF80000012C06D10020DB
:1049C0008DF801000520FFF78FFF17E0052C06DCAE
:1049D00001208DF801000520FFF786FF0EE0142C62
:1049E00006DC02208DF801000A20FFF77DFF05E0BC
:1049F00003208DF801001420FFF776FF9DF80100D9
:104A0000072101EB8010C0B28DF801003B4A12680B
:104A1000917C3A4A526810786B460222FFF719FBE4
:104A200010B14FF0FF30A4E7082134488172002113
:104A30000173012101750020FFF721FF002098E795
:104A400038B504462D48807A10B94FF0FF3038BD94
:104A50002A4890F8240010B14FF0FF30F7E72748BC
:104A6000007D50B134B1282C04DCE0B2FFF77BFFAD
:104A70000020ECE70020FFF776FF042C01DA042485
:104A800004E0B4F57A7F01DD4FF47A744FF47A7064
:104A900090FBF4F0401EC0B20090184A12685178A2
:104AA000164A526810786B460122FFF7D2FA10B10D
:104AB0004FF0FF30CBE79DF80000401C4FF47A71B7
:104AC00091FBF0F081B20D48C1810146C9894810BF
:104AD000FFF70AFF0020BAE738B504460748807A96
:104AE00010B94FF0FF3038BD022C09D0042C0AD089
:104AF000082C0BD0102C0FD10BE00000B0030020CD
:104B0000002000900BE00820009008E010200090AA
:104B100005E01820009002E04FF0FF30E3E700BF0F
:104B2000F848407A9DF80010B0EBE10F01D1002069
:104B3000D9E7F44A1268D179F24A526810786B4684
:104B40000122FFF786FA10B14FF0FF30CBE79DF856
:104B50000000C110EB4841720020C4E738B504469C
:104B6000E848807A10B94FF0FF3038BDFA2C09D0F0
:104B7000B4F5FA7F09D0B4F57A7F09D0B4F5FA6FAD
:104B80000CD108E0002000900BE00820009008E025
:104B90001020009005E01820009002E04FF0FF3058
:104BA000E3E700BFD748007A9DF80010B0EBE10FB3
:104BB00001D10020D9E7D34A12689179D14A5268CD
:104BC00010786B460122FFF744FA10B14FF0FF3026
:104BD000CBE79DF80000C010CA4908720020C4E766
:104BE0001CB580208DF80000C64A1268917CC54A29
:104BF000526810786B460122FFF72BFA10B14FF084
:104C0000FF301CBD642003F076F900208DF8000011
:104C1000BC4A1268917CBB4A526810786B460122EC
:104C2000FFF717FA10B14FF0FF30EAE7B54A126804
:104C3000917DB44A526810786B460622FFF754F90A
:104C400010B14FF0FF30DCE79DF80500C007400FC2
:104C50009DF8031001F0010140EA41009DF80110A8
:104C600001F0010140EA010494B1012C03D10121BA
:104C7000A448C17431E0022C03D10021A148C174C1
:104C80002BE02146A0A005F057FA4FF0FF30B8E71F
:104C90009C4A1268D1789B4A526810786B46012270
:104CA000FFF722F910B14FF0FF30AAE79DF800009E
:104CB00000F00F042CB99E4805F03EFA4FF0FF308B
:104CC0009FE7042C06D19BA005F036FA01218D4800
:104CD000C17402E000218B48C174FF2189488172B0
:104CE000FF2088490872FF2186484172C1724FF641
:104CF000FF71C181FF21017481740121017380F86A
:104D00002210002180F823104175017516300160D2
:104D100041608160163880F8241080F82510C18425
:104D20004FF4FA60FFF71AFF10B14FF0FF3068E759
:104D30000220FFF7D1FE10B14FF0FF3061E72A20CB
:104D4000FFF7D2FD10B14FF0FF305AE73220FFF7E6
:104D500077FE10B14FF0FF3053E70020FFF78FFDD3
:104D600010B14FF0FF304CE70020FFF7FBFB10B114
:104D70004FF0FF3045E70020FFF78FFB002040E7B2
:104D800070477CB504460D465E48807A00F070009E
:104D900010B94FF0FF307CBD5A4A1268117B594A56
:104DA000526810786B460622FFF79EF810B14FF05C
:104DB000FF30F0E79DF801009DF8001040EA012067
:104DC00000B220809DF803009DF8021040EA012007
:104DD00000B260809DF805009DF8041040EA0120B3
:104DE00000B2A08015B12846FFF7CAFF0020D2E725
:104DF0007CB504460D464348807A00F0080010B99F
:104E00004FF0FF307CBD3F4A1268517B3D4A5268EB
:104E100010786B460622FFF767F810B14FF0FF30AD
:104E2000F0E79DF801009DF8001040EA012000B273
:104E300020809DF803009DF8021040EA012000B296
:104E400060809DF805009DF8041040EA012000B242
:104E5000A08015B12846FFF793FF0020D2E72DE987
:104E6000FE4F05460C462748807A18B94FF0FF30B0
:104E7000BDE8FE8F234A1268917B224A526810785F
:104E800002AB0222FFF730F810B14FF0FF30EFE72E
:104E90009DF809009DF8081040EA012006B214B1FF
:104EA0002046FFF76DFF17494968C88808F0ACF93C
:104EB000144901904968B1F9080008F05DF983468A
:104EC000304608F059F95946009008F01DFB82461B
:104ED000019908F01FF881461E4907F0A7FF804698
:104EE0004FF08F4108F0D8F9074608F009F928601B
:104EF0000020BDE710B588B004466CBB4FF0FF3012
:104F000008B010BDB0030020556E737570706F72DD
:104F100074656420736F6674776172652070726F58
:104F200064756374207265762025642E0A00000083
:104F3000CCE5000848616C662073656E736974691E
:104F400076697479207061727420666F756E642E54
:104F50000A00000000000C42FFE7206830B96068DA
:104F600020B9A06810B9002008B010BDFA494968FE
:104F7000087806AB03221146FEF7B6FF10B14FF0DA
:104F8000FF30F1E79DF81800082101EB201000F038
:104F90000F00ADF800009DF8190001EB201000F0A3
:104FA0000F00ADF802009DF81A0001EB201000F090
:104FB0000F00ADF8040020684100BDF9000040304A
:104FC00091FBF0F000B2ADF8100060684100BDF94F
:104FD0000200403091FBF0F000B2ADF81200A06882
:104FE0004100BDF90400403091FBF0F000B2ADF893
:104FF0001400D9494968087806AB06221146FEF725
:1050000073FF10B14FF0FF30AEE79DF819009DF827
:10501000181040EA012000B2ADF808009DF81B000E
:105020009DF81A1040EA012000B2ADF80A009DF880
:105030001D009DF81C1040EA012000B2ADF80C00E4
:10504000BDF81000BDF80810084400B2ADF810001B
:10505000BDF81200BDF80A10084400B2ADF8120005
:10506000BDF81400BDF80C10084400B2ADF81400EF
:10507000BDF81000000A8DF81800BDF81000C0B28D
:105080008DF81900BDF81200000A8DF81A00BDF85D
:105090001200C0B28DF81B00BDF81400000A8DF894
:1050A0001C00BDF81400C0B28DF81D00AA49496863
:1050B000087806AB06221146FEF7CBFF10B14FF081
:1050C000FF3051E700204FE70146A348007A30B196
:1050D000012807D0022809D003280FD10AE0FA20BE
:1050E00008800EE04FF4FA7008800AE04FF47A70FE
:1050F000088006E04FF4FA60088002E00020088093
:1051000000BF00BF0020704701469348407A30B18D
:10511000012807D0022808D003280CD108E002207B
:1051200008700BE00420087008E00820087005E013
:105130001020087002E04FF0FF30704700BF864833
:10514000C07C18B108784006000E08700020F4E713
:1051500001468148C07A082817D2DFE800F017041A
:10516000070A0D101318BC20088013E06220088085
:1051700010E02A2008800DE0142008800AE00A20B0
:10518000088007E00520088004E000BF00BF002081
:10519000088000BF00BF0020704701466E4890F8AD
:1051A000240010B14FF0FF3070476B48C089088071
:1051B0000020F9E7014600200880401E70470146A4
:1051C0004FF0FF30704701466348007A30B1012844
:1051D00007D0022808D003280CD108E05F480860F7
:1051E0000BE05F48086008E05E48086005E05E4844
:1051F000086002E04FF0FF30704700BF0020FBE77F
:1052000001465548407A30B1012808D002280AD01A
:10521000032810D10BE04FF4804008800EE041F6E7
:105220009C7008800AE04FF48050088006E04FF43C
:105230000060088002E04FF0FF30704700BF464832
:10524000C07C10B10888401008800020F5E70146B6
:105250004148007C08700020704701463E48807A33
:1052600010B10120087001E0002008700020704794
:1052700038B504463848807A10B94FF0FF3038BD51
:10528000354A1268117C344A526810786B46022203
:10529000FEF72AFE10B14FF0FF30F0E79DF8010055
:1052A0009DF8001040EA012000B220800020E6E7CF
:1052B0002DE9FE4F0746884692461D46DDF830B080
:1052C00000260024244890F8240010B1601EBDE898
:1052D000FE8F002028702048807A10B94FF0FF30F0
:1052E000F5E71D48007C10B94FF0FF30EFE71A4892
:1052F000007C00F0400008B1B01CC6B21648007C2B
:1053000000F0200008B1B01CC6B21348007C00F0C9
:10531000100008B1B01CC6B20F48007C00F00800B5
:1053200008B1B01DC6B20C4A1268917A0A4A526896
:1053300010786B460222FEF7D7FD10B14FF0FF3018
:10534000C5E79DF801009DF8001040EA0129B1452C
:105350000CDA0020BBE70000B0030020000003438C
:10536000000083423333034233338341FC484068B7
:105370004088B9EB600F17DDF94A1268517CF84A92
:10538000526810786B460122FEF7AEFD10B14FF067
:10539000FF309CE79DF8000000F0100020B1FFF7FF
:1053A00085F96FF0010092E75046FFF7E9FCEC4AFF
:1053B0001268D17AEA4A526810786B463246FEF794
:1053C00093FD10B14FF0FF3081E799FBF6F0401EDE
:1053D0008BF8000000202870B4422AD0E048007CFE
:1053E00000F0080028B3601C1DF800001DF8041030
:1053F00040EA012000B2A8F80000E01C1DF80010EF
:10540000A01C1DF8000041EA002000B2A8F802002C
:10541000601D1DF80010201D1DF8000041EA00204D
:1054200000B2A8F80400287840F008002870A01DF9
:1054300084B2B44213D0CA48007C00F0400070B17E
:10544000601C1DF800001DF8041040EA012000B2A5
:105450003880287840F040002870A01C84B2B44204
:1054600013D0BF48007C00F0200070B1601C1DF814
:1054700000001DF8041040EA012000B2788028786E
:1054800040F020002870A01C84B2B44213D0B4486D
:10549000007C00F0100070B1601C1DF800001DF8C9
:1054A000041040EA012000B2B880287840F01000D3
:1054B0002870A01C84B2002009E7F8B504460F4606
:1054C0001646A74890F8240010B94FF0FF30F8BDF9
:1054D000A348807A10B94FF0FF30F8E7A04A12686D
:1054E000917A9F4A526810786B460222FEF7FCFCC4
:1054F00010B14FF0FF30EAE79DF801009DF8001071
:1055000040EA0125A54203DA00203070401EDEE7A4
:10551000934840684088B5EB600F17DD904A1268E9
:10552000517C8F4A526810786B460122FEF7DCFCF2
:1055300010B14FF0FF30CAE79DF8000000F01000F6
:1055400020B1FFF7B3F86FF00100C0E7E2B2844B7F
:105550001B68D97A824B5B6818783B46FEF7C4FC1F
:1055600010B14FF0FF30B2E795FBF4F0401E307001
:105570000020ACE701467A4880F8221000207047EE
:105580007CB5054676494968087801AB04220D21AF
:10559000FEF7AAFC08B107207CBD9DF80700C0F308
:1055A00001109DF8041001F0E00140EAE1008DF8DF
:1055B00000009DF80700C0F381009DF8051001F080
:1055C000E00140EAE1008DF801009DF8070000F0DD
:1055D00003009DF8061001F0E00140EAE1008DF8BB
:1055E000020000241CE01DF8040018B9002045F852
:1055F000240013E05B4845F8240006E055F8240039
:10560000594907F049FE45F824001DF80400401EE2
:10561000C0B20DF804000028F0D100BF601CC4B275
:10562000032CE0DB0020B7E72DE9FE4F06460F46CE
:1056300000256846FFF7A4FF002442E056F8240046
:1056400057F82410A0EB010ABAF1000F01DB514614
:1056500001E0CAF10001084607F08EFD83464FF0D5
:105660008F4107F057FC80465DF82400002107F0C9
:1056700013FD16D05DF82410404607F04BFC82461F
:105680004FF07E5107F040FF814629F0004A37482D
:10569000416A504607F0CCFE12D20120A0400543DB
:1056A0000EE03248C169404607F0C2FD05D32F48DD
:1056B000016A404607F0BCFE02D20120A04005432B
:1056C000641C032CBADB2846BDE8FE8F2DE9FC5F85
:1056D00006460F46002522494968087801AB032297
:1056E0000D21FEF701FC10B10720BDE8FC9F9DF8DD
:1056F000040000F01F008DF804009DF8050000F084
:105700001F008DF805009DF8060000F01F008DF8C1
:105710000600002462E056F8240057F82410A0EB9D
:10572000010BBBF1000F01DB594601E0CBF1000199
:10573000084607F021FD4FF08F41009007F0EAFB8B
:10574000814601A8005DC0B30849086807F05CFD08
:1057500083465946064807F0DDFB80460FE000000F
:10576000B00300207B14AE3E1D5A843F5CD7000876
:1057700000B04C45FE49404607F08EFD804601A82A
:10578000005D401EC0B201A908550028F2D1414673
:10579000484607F0BFFB83464FF07E5107F0B4FE4A
:1057A00082462AF0004BF3488169584607F040FED4
:1057B00013D20120A04005430FE0FFE7ED48016947
:1057C000484607F035FD05D3EA484169484607F0E9
:1057D0002FFE02D20120A0400543641C032C9ADB5B
:1057E000284682E72DE9F04F87B005460C469146E2
:1057F00001208DF8100000208DF81100DE4A12689B
:10580000917CDD4A5268107804AB0222FEF721FC3D
:1058100020B14FF0FF3007B0BDE8F08FC82002F094
:105820006AFB00208DF81000D34A1268D17BD24A5F
:105830005268107804AB0122FEF70BFC10B14FF058
:10584000FF30E8E7CC4A12685179CB4A52681078A9
:1058500004AB0122FEF7FDFB10B14FF0FF30DAE799
:10586000C54A1268917CC44A5268107804AB012280
:10587000FEF7EFFB10B14FF0FF30CCE7BE4A1268E5
:10588000D17DBD4A5268107804AB0122FEF7E1FBDE
:1058900010B14FF0FF30BEE7B74A12681179B64A2F
:1058A0005268107804AB0122FEF7D3FB10B14FF021
:1058B000FF30B0E70C208DF81000AF4A1268117964
:1058C000AD4A5268107804AB0122FEF7C2FB10B15A
:1058D0004FF0FF309FE70F2002F00DFBA648806AD3
:1058E000407A8DF81000A44A12689178A24A526852
:1058F000107804AB0122FEF7ACFB10B14FF0FF3083
:1059000089E79D48806A007A8DF810009A4A1268EB
:105910005178994A5268107804AB0122FEF799FB3E
:1059200010B14FF0FF3076E7B9F1000F07D0924881
:10593000806A807A40F0E0008DF8100004E08E4824
:10594000806A807A8DF810008B4A126891798A4AB1
:105950005268107804AB0122FEF77BFB10B14FF0C8
:10596000FF3058E7B9F1000F07D08348806AC07A4A
:1059700040F0E0008DF8100003E07E48C07A8DF81A
:1059800010007D4A1268D1797B4A5268107804ABC6
:105990000122FEF75EFB10B14FF0FF303BE7B9F19B
:1059A000000F02D0C82002F0A6FA40208DF81000A7
:1059B000714A12681179704A5268107804AB01225A
:1059C000FEF747FB10B14FF0FF3024E778208DF849
:1059D0001000694A12685179674A5268107804AB1E
:1059E0000122FEF736FB10B14FF0FF3013E761499B
:1059F000888902F080FA00208DF810005E4A126853
:105A000051795D4A5268107804AB0122FEF721FB00
:105A100010B14FF0FF30FEE6574A1268917A564AAD
:105A20005268107804AB0222FEF75EFA10B14FF014
:105A3000FF30F0E69DF811009DF8101040EA012BB0
:105A40000C209BFBF0F0C6B20020A86068602860C4
:105A5000A06060602060824665E0474A1268D17AA3
:105A6000454A5268107804AB0C22FEF73DFA10B19B
:105A70004FF0FF30CFE69DF811009DF8101040EA7E
:105A8000012000B2ADF808009DF813009DF8121037
:105A900040EA012000B2ADF80A009DF815009DF81B
:105AA000141040EA012000B2ADF80C00BDF9081056
:105AB000206808442060BDF90A10606808446060EE
:105AC000BDF90C10A0680844A0609DF817009DF86F
:105AD000161040EA012000B2ADF800009DF8190050
