:020000040800F2
:10000000780D0020457400084512000847120008CA
:10001000491200084D1200085112000800000000AB
:100020000000000000000000000000005512000861
:100030005712000800000000591200085B12000867
:10004000D12800085F7400085F7400085F7400081E
:100050005F7400085F7400085F7400085F74000834
:100060005F7400085F7400085F7400085F74000824
:100070005F7400085F7400085F7400085F74000814
:100080005F7400085F7400085F7400085F74000804
:100090005F7400085F7400085F7400085F740008F4
:1000A0005F7400085F7400085F7400085F740008E4
:1000B0005F7400085F740008712500085F74000811
:1000C0005F7400085F7400085F7400085F740008C4
:1000D0005F7400085F7400085F7400085F740008B4
:1000E0005F7400085F7400085F7400085F740008A4
:1000F0005F7400085F7400085F7400085F74000894
:100100005F7400085F740008672400085F740008CB
:100110005F7400085F7400085F7400085F74000873
:100120005F7400085F7400085F7400085F74000863
:1001300000F002F800F062F80AA090E8000C824497
:100140008344AAF10107DA4501D100F057F8AFF274
:10015000090EBAE80F0013F0010F18BFFB1A43F0A5
:1001600001031847ACC40000CCC400000A444FF09F
:10017000000C10F8013B13F0070408BF10F8014B06
:100180001D1108BF10F8015B641E05D010F8016B4B
:10019000641E01F8016BF9D113F0080F1EBF10F8AF
:1001A000014BAD1C0C1B09D16D1E58BF01F801CBD2
:1001B000FAD505E014F8016B01F8016B6D1EF9D555
:1001C0009142D6D37047000000230024002500266A
:1001D000103A28BF78C1FBD8520728BF30C148BFAA
:1001E0000B607047642908F00B87782908F0448772
:1001F000002070471FB51FBD10B510BD09F098F95C
:100200001146FFF7F7FF00F009F809F0B6F903B45B
:10021000FFF7F2FF03BC06F0EDFE00009EB00020E9
:100220001D901C901B901A90012014900020139098
:10023000129001F088F84FF4A06007F0A7FE06F0D6
:100240006FFE472144F61F6002F04AFB4FF4FA614B
:10025000FE4808F0F1FD4FF4FA61FC4808F0EEFDAD
:100260004FF4FA61F94808F0EBFD4FF4FA61F748F2
:1002700008F0E8FD41F2883006F08FFE4FF47A7105
:10028000F24808F0D9FD4FF47A71F04808F0D6FD35
:100290004FF47A71ED4808F0D3FD4FF47A71EB48D2
:1002A00008F0D0FD40F6B83006F077FE03F04FF8C6
:1002B00005E0C82006F071FEC82006F06EFE05F0CD
:1002C00079FA0028F5D14FF47A7006F066FE02F054
:1002D0007BFE642006F061FE02F068FB642006F0FD
:1002E0005CFE02F073FB4FF4967006F056FE0020A1
:1002F0001590AFE0D64AD749D74803F0CAF800288E
:100300004DD1D548B0F900000AF07EFF0C90D348DB
:1003100001680C980AF0D2FD0D900AF0A3FD0022AE
:10032000CF4BCDE90E010AF0C3FACDE9100109F077
:10033000F7FFCA490860C748B0F900000AF064FF37
:100340000C90C84801680C980AF0B8FD0D900AF0AE
:1003500089FD0022C24BCDE90E010AF0A9FACDE9D0
:10036000100109F0DDFFBF490860B948B0F900008D
:100370000AF04AFF0C90BC4801680C980AF09EFDF8
:100380000D900AF06FFD0022B54BCDE90E010AF089
:100390008FFACDE9100109F0C3FFB3490860B34AF1
:1003A000B349B44803F09DF800284FD1B148B0F9E3
:1003B00000000AF029FF0C90AF4801680C980AF081
:1003C0007DFD0D900AF04EFD0022A54BCDE90E01FA
:1003D0000AF06EFACDE9100109F0A2FFA649086003
:1003E000A348B0F900000AF00FFF0C90A348016881
:1003F0000C980AF063FD0D900AF034FD0022984B32
:10040000CDE90E010AF054FACDE9100109F088FF98
:100410009A4908609548B0F900000AF0F5FE0C9082
:10042000974801680C980AF049FD0D900AF01AFDF2
:1004300000228B4BCDE90E010AF03AFACDE910010A
:1004400009F06EFF8E49086001F0A9FD1598401C67
:10045000C0B2159015986428FFF64CAF7F4800682D
:100460000AF096FE00B2874908807E4800680AF0CC
:100470008FFE00B2834948807B4800680AF088FEFE
:1004800000B2804988807C4800680AF081FE00B292
:100490007D490880794800680AF07AFE00B27B49FD
:1004A00008807B4800680AF073FE00B27949088032
:1004B0000020159021E0642006F06FFD02F00FFB94
:1004C000754800680AF0A0FE0C90744801680C980A
:1004D0000AF0F4FC0D900AF0C5FC0022604BCDE957
:1004E0000E010AF0E5F9CDE9100109F019FF6B4999
:1004F00008601598401CC0B2159015981428DADBD6
:10050000664800680AF044FE6549086008460068CD
:100510000AF07AFE0B900AF0A5FC0022614BCDE9AF
:100520000C0109F0EBFF4FF0C0425F4BCDE90E012B
:1005300009F028FFCDE9100109F0F2FE5B490860DF
:10054000149818B15A4806F067FD05E0139818B1E1
:100550004FF4E13006F060FD0A2006F01EFD472151
:100560004FF6FF7001F08FFF40F2CF21092001F01C
:100570004DFF0A2006F011FD00F066FF01204D49F5
:10058000086000204C49C1F888010A2006F005FDEA
:100590004A4800680AF080FE494910900AF0C4FEFB
:1005A00011900AF011FE47490860444800680AF0BB
:1005B00073FE454910900AF0B7FE11900AF004FE50
:1005C000424908603D4800680AF066FE40491090C4
:1005D0000AF0AAFE11900AF0F7FD3E49086037487C
:1005E00000680AF059FE3C4910900AF09DFE1190F7
:1005F0000AF0EAFD39490860304800680AF04CFE0C
:10060000374910900AF090FE11900AF0DDFD35494F
:1006100008602A4800680AF03FFE334910900AF04B
:1006200083FE11900AF0D0FD30490860234800682D
:100630000AF032FE2E4910900AF076FE11900AF070
:10064000C3FD2C4908601D48006855E000040040C7
:100650007600002074000020720000208C00002032
:100660000000E03F90000020940000207000002077
:100670006E0000206C000020A0000020A4000020DC
:10068000A800002086000020980000209A0000208A
:10069000D00100209C000020E0000020F00000209D
:1006A000E8000020000059406612714074010020EB
:1006B00020A10700A001214200802242000000206A
:1006C000CDCCCC3D04000020CDCC4C3D080000201A
:1006D0000AD7A33C0C0000200AD7233C10000020BE
:1006E0000AD7A33B140000206F12033B1800002020
:1006F0006F12833A1C0000200AF0CEFDFE491090D4
:100700000AF012FE11900AF05FFDFC490860FC48F7
:1007100000680AF0C1FDFB4910900AF005FE119037
:100720000AF052FDF8490860F54800680AF0B4FD87
:10073000F64910900AF0F8FD11900AF045FDF449D1
:100740000860EF4800680AF0A7FDF24910900AF02F
:10075000EBFD11900AF038FDEF490860E8480068A9
:100760000AF09AFDED4910900AF0DEFD11900AF0B2
:100770002BFDEB490860E24800680AF08DFDE9496D
:1007800010900AF0D1FD11900AF01EFDE6490860B4
:10079000DB4800680AF080FDE44910900AF0C4FDCF
:1007A00011900AF011FDE2490860D54800680AF08E
:1007B00073FDE04910900AF0B7FD11900AF004FDB6
:1007C000DD490860CE4800680AF066FDDB491090FC
:1007D0000AF0AAFD11900AF0F7FCD9490860C84850
:1007E00000680AF059FDD74910900AF09DFD11905C
:1007F0000AF0EAFCD4490860C14800680AF04CFDE0
:10080000D24910900AF090FD11900AF0DDFCD04919
:100810000860F5E3CF480068401C0AF03DFD1190E8
:10082000B74800680AF038FDCB490F900AF07CFD0C
:10083000109011990AF044FE3BD2B14800680AF0CA
:100840002BFDC54910900AF06FFD11900AF0BCFC19
:10085000C0490860C1480068401CC0490860C04ADF
:10086000C049C14802F03DFE08B901F0E6FABF4AAE
:10087000911E881E02F00DFED8B901F032FA1298CE
:10088000B8B1BB48006811900AF082FC00B2B949C7
:100890000880B748406811900AF07AFC00B2B64967
:1008A0000880B348806811900AF072FC00B2B34926
:1008B0000880B3480068401C0AF0EEFC1190904894
:1008C00000680AF0E9FCAF490F900AF02DFD109086
:1008D00011990AF0F5FD56D2894800680AF0DCFC4F
:1008E000A84910900AF020FD11900AF06DFCA4496F
:1008F00008609A484068401C98494860A2480078BF
:10090000F0BB1D98E0B3A1480068A149096888427E
:1009100039D29F4800689F490968884233D29E486F
:10092000007880B99D4801689D4800680AF0C8FCBD
:1009300009D2974800689B49096808449A490860A9
:100940000120954908709948007878B99248007854
:1009500060B19548006893490968401A944909684C
:10096000401A944908600120904908708A4800782C
:1009700030B18E48007818B101208349087000E03A
:1009800001E08D4908608D480068401C0AF084FC35
:1009900011905B4800680AF07FFC89490F900AF0CB
:1009A000C3FC109011990AF08BFD2ED254480068B8
:1009B0000AF072FC824910900AF0B6FC11900AF01D
:1009C00003FC7E49086065488068401C6349886074
:1009D0007C4A7D497D4804F03AFF7D4801687A48A9
:1009E00000680AF0D9FD7B4908607B4801687748B8
:1009F00000680AF0D1FD79490860794801687148BA
:100A000000680AF0C9FD7749086077480068401C13
:100A10000AF042FC11903A4800680AF03DFC734924
:100A20000F900AF081FC109011990AF049FD5FD2F5
:100A3000334800680AF030FC6C4910900AF074FCEE
:100A400011900AF0C1FB684908604448C068401C26
:100A50004249C8601D9800284BD04D48006840F2BC
:100A60004C41884246D94A48008800B217906048F5
:100A7000B0F9000040F2E351081A5E490968884263
:100A800008D85B48B0F9000000F2E3505949096802
:100A9000884218D257480088A0F2E35000B219905B
:100AA00019980AF0B1FB0D900AF0DCF9524A534B49
:100AB000CDE90E0109F0FCFECDE9100109F030FC92
:100AC0004349086002E00020414908604848B0F905
:100AD000000040F2E451081A4949096888420AD8DE
:100AE0004348B0F9000000F2E4504549096889E044
:100AF0004EE10AE1D8E087E06F12833A200000203F
:100B00000000002017B7D1382400002017B7513853
:100B100028000020ACC5A7372C000020ACC5273723
:100B200030000020ACC5A73634000020BD370636A3
:100B300038000020BD3786353C000020BD37063523
:100B40004000002095BF56344400002095BFD633A6
:100B50004800002004000020CDCCCC3DC40400207F
:100B6000700000206E0000206C0000207C0000203F
:100B7000B80400200C0100200E010020100100200C
:100B800008000020CDCC4C3DCA020020B402002059
:100B900054000020B0020020C8020020E401002020
:100BA000C4020020CC020020B8020020C9020020AC
:100BB000D0020020BC020020A00121420C00002035
:100BC0000AD7A33C680000206000002064000020D9
:100BD00000010020F400002004010020F8000020A3
:100BE00008010020FC000020100000200AD7233C50
:100BF000BA0000204C000020F49FDA858B81A23FD0
:100C000050000020884219D2FE48008840F2E4518A
:100C1000081A00B2189018980AF0F6FA0D900AF027
:100C200021F9F94AF94BCDE90E0109F041FECDE970
:100C3000100109F075FBF649086002E00020F44954
:100C40000860F448B0F9000040F2E351081AF24994
:100C50000968884208D8EF48B0F9000000F2E35074
:100C6000ED49096888421BD2EB48008840F2E35105
:100C7000081A00B2169016980AF0C6FA0D900AF0FB
:100C8000F1F8E14AE14BCDE90E0109F011FECDE9A1
:100C9000100109F045FBE14908600020086012E0FE
:100CA0000020DE4908600EE00020DD490880DD49B3
:100CB0000880DD490880DD49088000231A4619466E
:100CC000184600F0FDFBDA48006840F24C418842CB
:100CD00018D2D1480068884214D21B9818B9D54858
:100CE000008880B21B90D34801681B98081A082816
:100CF0003DD300201D90D04908600120CF49C1F8A4
:100D0000A00134E000201B9031E00020C44908809D
:100D1000C4490880C4490880C449088000231A4691
:100D20001946184600F0CCFBC148006840F24C411F
:100D300088421AD2B848006840F26C71884214D9CF
:100D40001C9818B9BB48008880B21C90B94801684B
:100D50001C98081A05280AD301201D90B64908607E
:100D60000020B649C1F8A00101E000201C90B04865
:100D7000006840F24C4188420AD91D9840B100F009
:100D80003CFD00F0A8FC01F022FA179800F0CAFB25
:100D9000AB480068401C0AF07FFA1190A94800682F
:100DA0000AF07AFAA8490F900AF0BEFA1090119949
:100DB0000AF086FB1BD2A34800680AF06DFAA2492C
:100DC00010900AF0B1FA11900AF0FEF99C490860FF
:100DD0009E480069401C9D4908619548006840F2A2
:100DE0004C41884203D91D9808B101F0A1F99848F7
:100DF0000068401C0AF050FA1190924800680AF00E
:100E00004BFA94490F900AF08FFA109011990AF05A
:100E100057FB7DD28B4800680AF03EFA8D4910904E
:100E20000AF082FA11900AF0CFF9894908608748E0
:100E30004069401C854948611498002869D086485B
:100E400000680AF0A5F911901D991A98CDE90001E2
:100E50008248119B0268824801688248006805F058
:100E6000B6FD002080490978804A1278804B1B78B3
:100E7000CDE90032CDE902106C48008880B21190B3
:100E80006948008880B210906648008880B20F9050
:100E90006348008880B20E900FA90EC905F0FAFED3
:100EA000002002900390049005907248008880B260
:100EB0007149098889B2CDE900105248008880B292
:100EC00011906E48008880B210905348008880B21C
:100ED0000F905748008880B20E900FA90EC905F0F8
:100EE0006DFF5D4800680AF053F91190644800688E
:100EF0000AF04EF900B21090624800680AF048F912
:100F000000B20F90604800680AF042F900B201E0B8
:100F100053E051E00E905D4800680AF039F900B2E4
:100F20000D905B48B0F900000AF06EF905904D484D
:100F3000006808F091FF03904948006808F08CFFB2
:100F400001905448016801980AF0EEF90290039963
:100F50000AF0EAF9049005990AF01EFB06900AF0DF
:100F600017F900B2079009F050FC4B4A4B4BCDE902
:100F7000080109F09DFCCDE90A0109F017FC00B257
:100F80000C90DDE90E23DDE91010CDE90223CDE957
:100F900004104349B1F900100D98CDE90010414803
:100FA000B0F900304048B0F900104048B0F90000F6
:100FB0000C9A05F0ACFD00E000BF3D480068401C05
:100FC0000AF06AF911901F4800680AF065F939497A
:100FD0000F900AF0A9F9109011990AF071FA10D245
:100FE000184800680AF058F9324910900AF09CF944
:100FF00011900AF0E9F82E490860144880695BE016
:10100000D7E0B1E050000020F49FDA858B81A23F49
:1010100004010020BA000020580000200801002030
:10102000880200208A0200208C0200208E0200200C
:101030005400002024000020888122420000214228
:1010400014000020000000200AD7A33BC4040020A5
:10105000180000206F12033BD4000020680000201D
:101060006400002060000020CA020020C9020020A5
:10107000C8020020BC020020B80200204C00002062
:10108000E4010020DC010020B40100209C010020CC
:101090009C000020D401002008E6E8F17B9BAE3FD5
:1010A0000E0100200C0100206E0000206C000020CA
:1010B0001C0000206F12833A401C3F49886101F0F8
:1010C0002AFD3E480068642815D23D4801683D4825
:1010D000006809F0F3FE0D9009F0C4FE00223A4BBF
:1010E000CDE90E0109F0E4FBCDE9100109F018F992
:1010F0003449086038E0334801683148006809F035
:1011000051FF119001F0D8FD3049086001F0F6FD63
:101110002F4800682F49304A127841F822002F48A2
:1011200000680AF0B9F82E4911900AF0FDF82D492F
:10113000294A127841F8220027480078401C2649A5
:10114000087008460078072807D100200870264854
:10115000007810B90120244908702348007818B19C
:1011600001F0CFFE01F008FE20480068401C0AF0A4
:1011700093F81190194800680AF08EF818490F90FA
:101180000AF0D2F8109011990AF09AF911D2134886
:1011900000680AF081F8124910900AF0C5F8119021
:1011A0000AF012F8114908600348C069401C02495E
:1011B000C861FFF72FBB0000C40400201C00002002
:1011C000DC000020E40000200000E03FD800002008
:1011D0009C010020EC040020A80200200000002058
:1011E00017B7D13808050020A902002024000020EC
:1011F00000BF1A4801684FF0E02082691748006874
:101200008142F6D11648006800EB4003C3EBC010E2
:10121000C2EBC000124B1B68B0FBF3F001EB4103C3
:10122000C3EBC11300EBC300704700B585B068463F
:1012300006F0D7FB0B490098B0FBF1F008490860B5
:1012400005B000BD7047704700BFFEE700BFFEE776
:1012500000BFFEE77047704770477047D802002014
:10126000DC02002040420F000CB5002001900090ED
:101270006C48006840F480306A49086000BF6948E3
:10128000006800F4003000900198401C0190009824
:1012900018B90198B0F5A06FF1D16248006800F468
:1012A000003010B10120009001E000200090009873
:1012B000012843D15C48006840F010005A4908609A
:1012C0000846006820F0030008600846006840F007
:1012D0000200086053484068524948600846406828
:1012E00048600846406840F48060486008464068AE
:1012F00020F47C1048600846406840F4E8104860DC
:101300000846006840F08070086000BF45480068EB
:1013100000F000700028F9D04248406820F0030037
:10132000404948600846406840F00200486000BFFD
:101330003C48406800F00C000828F9D10CBD10B5FD
:10134000FFF792FF10BD10B53648006840F001006D
:1013500034490860084640683449084031494860CB
:1013600008460068324908402E490860084600686F
:1013700020F4802008600846406820F4FE004860A1
:101380004FF41F008860FFF7DAFF4FF00060294933
:10139000086010BD10B5002100200022214B5B68C1
:1013A00003F00C0121B1042906D0082928D107E057
:1013B000214B224C236027E01F4B204C236023E06D
:1013C000184B5B6803F47010164B5B6803F48032B3
:1013D000022303EB904022B9194B4343174C23607F
:1013E0000DE0104B5B6803F4003323B1144B43430F
:1013F000124C236003E0104B4343104C236003E086
:101400000D4B0E4C236000BF00BF064B5B68C3F35F
:1014100003130C4CE15C094B1B68CB40074C236069
:1014200010BD000000100240002002400000FFF844
:10143000FFFFF6FE08ED00E000127A00E002002057
:1014400000093D00E402002008B50121242006F037
:1014500035FB4FF48070ADF8000010208DF80300CC
:1014600003208DF802006946094806F06BF84FF436
:101470008071074806F013F90420ADF800006946B2
:10148000044806F05FF80421024806F008F908BD98
:10149000000801400014014002468A4201DD08466E
:1014A00070471046FCE703469A4203DA8B4201DAA2
:1014B00018467047994201DC0846FAE71046F8E7FB
:1014C00030B5B0F5FA6F01DD4FF4FA60B1F5FA6F9F
:1014D00001DD4FF4FA61B2F5FA6F01DD4FF4FA6203
:1014E000B3F5FA6F01DD4FF4FA63B0F57A7F01DAF4
:1014F0004FF47A70B1F57A7F01DA4FF47A71B2F570
:101500007A7F01DA4FF47A72B3F57A7F01DA4FF419
:101510007A73FE4D28802D1D29802D1D2A802D1DBA
:101520002B8030BD70B5044640F2F4612046FFF7D1
:10153000B3FF0546F64A5142F648B0F90000FFF7FE
:10154000B2FF05446FF031023221F348B0F90000D8
:10155000FFF7A9FF2E18F148006809F019FE05B23F
:101560006FF00E020F212846FFF79DFF0644EC485E
:10157000006809F00DFE05B26FF009020A21284645
:10158000FFF791FF304400B2E649088040F2F46171
:101590002046FFF781FF0546DD4A5142E248B0F997
:1015A0000000FFF780FF05446FF031023221DF4871
:1015B000B0F90000FFF777FF2E18D848006809F04F
:1015C000E7FD05B26FF00E020F212846FFF76BFF13
:1015D0000644D348006809F0DBFD05B26FF009024C
:1015E0000A212846FFF75FFF304400B2D049088047
:1015F00040F2F4612046FFF74FFF0546C44A5142CE
:10160000CC48B0F90000FFF74EFF05446FF03102FF
:101610003221C948B0F90000FFF745FF2E18BF4836
:10162000006809F0B5FD05B26FF00E020F212846E3
:10163000FFF739FF0644BA48006809F0A9FD05B272
:101640006FF009020A212846FFF72DFF304400B24F
:10165000BA49088040F2F4612046FFF71DFF0546B5
:10166000AB4A5142B648B0F90000FFF71CFF0544F1
:101670006FF031023221B348B0F90000FFF713FFD9
:101680002E18A648006809F083FD05B26FF00E021F
:101690000F212846FFF707FF0644A148006809F01C
:1016A00077FD05B26FF009020A212846FFF7FBFE1D
:1016B000304400B2A44908800846B0F900309F4881
:1016C000B0F900209A48B0F900109648B0F900002F
:1016D000FFF7F6FE70BD2DE9F0479C4801689C4875
:1016E000006809F021FE06469A4801689A48006899
:1016F00009F01AFE8046994801689948006809F087
:1017000013FE0746414609F0D9FB0546314609F06C
:10171000D5FB044609F03CFD00B27F4908808B48A8
:1017200001688B48006809F0FFFD80468948016820
:101730008948006809F0F8FD81468948006880F012
:10174000004786480168384609F0EEFD06464946DE
:1017500009F022FF0546414609F0B0FB044609F0B6
:1017600017FD00B271490880784801687848006820
:1017700009F0DAFD8046774801687748006809F08B
:10178000D3FD81467648006880F0004773480168C1
:10179000384609F0C9FD0646494609F08FFB054663
:1017A000414609F0F9FE044609F0F2FC00B2624934
:1017B0000880664801686648006809F0B5FD06467D
:1017C000644801686448006809F0AEFD0746634854
:1017D00001686348006809F0A7FD8046394609F0B2
:1017E000DBFE0546314609F0D7FE044609F0D0FC81
:1017F00000B254490880BDE8F0872DE9F047594808
:10180000B0F9000009F000FD074657480168384666
:1018100009F08AFD05465548B0F9000009F0F4FCCE
:10182000814653480168484609F07EFD0746514805
:10183000B0F9000009F0E8FC81464F4801684846CD
:1018400009F072FD8046394609F038FB0646294604
:1018500009F034FB044609F09BFC00B22D490880D6
:101860004048B0F9000009F0CFFC07463E48016847
:10187000384609F059FD05463C48B0F9000009F02A
:10188000C3FC81463A480168484609F04DFD0746C9
:101890003848B0F90000404209F0B6FC81463648AD
:1018A0000168484609F040FD8046394609F074FE5B
:1018B0000646294609F002FB044609F069FC00B21D
:1018C000194908802748B0F9000009F09DFC074637
:1018D00025480168384609F027FD05462348B0F938
:1018E000000009F091FC814621480168484609F052
:1018F0001BFD07461F48B0F90000404209F084FC78
:1019000081461D480168484638E000003404004024
:10191000D4FEFFFFC4000020BC0000208402002091
:101920008002002088020020C6000020BE000020A7
:101930008A020020C8000020C00000208C02002085
:10194000CA000020C20000208E02002010030020E8
:10195000FC0000200C030020F800002008030020F9
:10196000F400002010010020280300200E010020B8
:10197000240300200C0100202003002009F0D4FCE7
:101980008046394609F09AFA0646294609F004FECF
:10199000044609F0FDFB00B2FE490880FE48B0F99C
:1019A000000009F031FC0746FC480168384609F0A0
:1019B000BBFC0446FA48B0F9000009F025FC81465A
:1019C000F8480168484609F0AFFC0746F648B0F908
:1019D000000009F019FC8146F4480168484609F006
:1019E000A3FC8046394609F0D7FD0646214609F09A
:1019F000D3FD054609F0CCFB00B2ED490880BDE8F7
:101A0000F0872DE9F041EB49B1F900104942EA4A6B
:101A1000B2F900201144DF4AB2F90020891AE44AE1
:101A2000B2F900201144E54AB2F90020891AE44ACB
:101A3000B2F900201144E34AB2F90020891AE24ABF
:101A4000B2F90020881809F0DFFB0746DF4801687B
:101A5000384609F069FC0546D649B1F900104942FB
:101A6000D54AB2F900201144CA4AB2F90020114403
:101A7000CF4AB2F90020891AD04AB2F90020891A57
:101A8000CF4AB2F900201144CE4AB2F900201144E5
:101A9000CD4AB2F90020881A09F0B6FB0746CC48B7
:101AA0000168384609F040FC0646294609F006FA66
:101AB000044609F06DFB00B2C6490880BD49B1F982
:101AC00000104942BC4AB2F900201144B14AB2F9AF
:101AD0000020891AB64AB2F900201144B74AB2F977
:101AE0000020891AB64AB2F900201144B54AB2F969
:101AF0000020891AB44AB2F90020881809F084FB42
:101B00000746B2480168384609F00EFC0546A94967
:101B1000B1F900104942A84AB2F9002011449D4A87
:101B2000B2F900201144A24AB2F90020891AA34A4E
:101B3000B2F90020891AA24AB2F900201144A14A40
:101B4000B2F900201144A04AB2F90020501A09F05D
:101B50005BFB07469E480168384609F0E5FB0646F0
:101B6000294609F019FD044609F012FB00B29A4912
:101B700008809049B1F9001049428F4AB2F900201B
:101B80001144844AB2F90020891A894AB2F9002026
:101B900011448A4AB2F90020891A894AB2F9002010
:101BA0001144884AB2F90020891A874AB2F9002004
:101BB000881809F029FB074684480168384609F06F
:101BC000B3FB05467B49B1F9001049427A4AB2F9A4
:101BD000002011446F4AB2F900201144744AB2F94E
:101BE0000020891A754AB2F90020891A744AB2F99C
:101BF00000201144734AB2F900201144724AB2F92C
:101C00000020501A09F000FB074671480168384669
:101C100009F08AFB0646294609F050F9044609F006
:101C2000B7FA00B26D4908806249B1F90010494223
:101C3000614AB2F900201144564AB2F90020891ACB
:101C40005B4AB2F9002011445C4AB2F90020891ABB
:101C50005B4AB2F9002011445A4AB2F90020891AAD
:101C6000594AB2F90020881809F0CEFA07465748B9
:101C70000168384609F058FB05464E49B1F9001095
:101C800049424D4AB2F900201144424AB2F90020BB
:101C90001144474AB2F90020891A484AB2F9002093
:101CA000891A474AB2F900201144464AB2F9002085
:101CB0001144454AB2F90020881A09F0A5FA0746EE
:101CC00043480168384609F02FFB0646294609F0CB
:101CD00063FC044609F05CFA00B241490880BDE8A3
:101CE000F0812DE9F0410025002600273D49B1F99A
:101CF00000103D4AB2F90020881A09F085FA3B49E4
:101D00003B4A127841F822003649B1F90210364AAE
:101D1000B2F90220881A09F077FA3649344A127863
:101D200041F822002F49B1F904102F4AB2F90420DA
:101D3000881A09F069FA30492D4A127841F82200D0
:101D4000002416E0294850F82410284609F0B6F877
:101D50000546284850F82410304609F0AFF80646EA
:101D6000254850F82410384609F0A8F80746601CAA
:101D7000C4B2062CE6DB2149284609F013F9804657
:101D800009F006FA00B2084908801C49304609F0FB
:101D900009F935E0C80000201001002028030020C8
:101DA0000E010020240300200C010020200300204D
:101DB000CA000020C4000020C6000020BC00002093
:101DC000BE000020C0000020C20000203C03002014
:101DD00038030020CC000020CE000020D0000020DE
:101DE000D20000207800002086000020240500207A
:101DF000540300203C050020540500200000C04092
:101E0000804609F0C5F900B2FE490880FE4938460F
:101E100009F0C8F8804609F0BBF900B2FB49088018
:101E2000FB480078401CFA490870084600780628EC
:101E300001D100200870BDE8F08170B50025F5499A
:101E4000B1F90010F44AB2F90020881A09F0DCF95F
:101E5000F249F34A127841F82200002408E0EF48E2
:101E600050F82410284609F029F80546601CC4B231
:101E7000062CF4DBE449284609F094F8064609F0FC
:101E800087F900B2E7490880E5480078401CE4493A
:101E9000087008460078062801D10020087070BD3F
:101EA00070B50025E0480068E049E14A127841F841
:101EB0002200002408E0DD4850F82410284608F0ED
:101EC000FDFF0546601CC4B2012CF4DB4FF07E51CF
:101ED000284609F067F8D7490860D5480078401CC3
:101EE000D349087008460078012801D10020087005
:101EF00070BD2DE9F04F89B083468A46504608F000
:101F0000B1FF8046CC4ACD4B08F0D2FC02460B46CE
:101F1000CDE900010020CA4908F0F0FA06460F4654
:101F2000584608F09FFF32463B46CDE9020108F0D3
:101F300029FACDE90601584608F094FFCDE90401DD
:101F4000DDE9062308F0DAFA044608F0E9F9BD49AC
:101F5000086009B0BDE8F08F2DE9F041AD49B1F955
:101F60000010B04AB2F90020881A09F04DF907466E
:101F7000B4480168384609F0D7F90546A948B0F9D0
:101F8000000009F041F90646294608F097FF04468B
:101F900009F0FEF800B2A3490880BDE8F08170B5F1
:101FA000A9480068A9490860A9480168A9480068CB
:101FB00008F084FFA7490860A7480168A5480068A1
:101FC00008F07CFF04462146A248006808F0EAFFBA
:101FD000A24908608F48B0F9000009F015F90646DB
:101FE0009A480168304609F0D7FA05469B480168CF
:101FF000284609F099F9044694480168204608F0FB
:102000005DFF91490860954801684FF07E5009F0E6
:10201000C3FA04468F480168204609F085F98D49C6
:10202000086070BD70B58E4800688E4908608E48A3
:1020300001688E48006808F041FF8C4908608C48B0
:1020400001688A48006808F039FF0446214687483D
:10205000006808F0A7FF874908608748B0F90000CA
:1020600009F0D2F806467F480168304609F094FA34
:10207000054680480168284609F056F90446794823
:102080000168204608F01AFF754908607948016820
:102090004FF07E5009F080FA0446744801682046EB
:1020A00009F042F97149086070BD70B57348006865
:1020B00073490860734801687348006808F0FEFEC1
:1020C00071490860714801686F48006808F0F6FEC1
:1020D000044621466C48006808F064FF6C490860BB
:1020E0006C48B0F9000009F08FF8064664480168B2
:1020F000304609F051FA054665480168284609F05E
:1021000013F904465E480168204608F0D7FE5B4993
:1021100008605F4801684FF07E5009F03DFA0446C0
:1021200059480168204609F0FFF85749086070BD1A
:1021300070B559480078002845D05848006820F00C
:102140000044204608F08EFE05460022544B08F05D
:1021500073FB38D25348006820F00044204608F052
:1021600081FE054600224E4B08F066FB2BD24E48FE
:10217000006820F000444FF07E51204609F0A0F89E
:1021800021D24A48006820F000444FF07E5120469A
:1021900009F096F817D246480068464909888842EF
:1021A00011D2444800884449096888420BD2434808
:1021B000006880F0004442480168204609F0B4F805
:1021C0004049086002E000203E49086070BD2DE9EA
:1021D000FE4F38490988A1F57A7009F015F8029088
:1021E0003048006808F03EFE0746374A374B08F093
:1021F0005FFB054608F094F8834607F02DFE00903B
:10220000264865E00E0100200000C04010010020BB
:1022100054030020700000209C0000206C0500206A
:102220005503002012010020D40000205803002094
:102230005C030020D800002097D17E5AFB21194072
:102240000000F03F14010020D0010020D401002044
:10225000C8010020D8010020C4010020CC010020CA
:1022600010020020140200200802002018020020A2
:10227000040200200C0200206E000020300200202A
:10228000340200202802002038020020240200200E
:102290002C0200206C000020CA0200200001002057
:1022A0000000E03F040100206400002060000020E6
:1022B000BC02002054000020B80200204803002087
:1022C000E4010020800200205F40D42247DF913FDC
:1022D000006808F0C7FD0746404A414B08F0E8FA9D
:1022E000054608F01DF8834607F0B6FD0446009940
:1022F00009F01AF881463B490988A1F57A7008F07F
:1023000083FF4946019008F04DFE8246029909F08C
:1023100043F935490860BDE8FE8F2DE9F0410024FE
:1023200000BF56E0314850F82400314941F82400FC
:10233000304A52F82410304A52F8240008F0BEFD0A
:102340002D4941F824002D4A52F824102A4A52F807
:10235000240008F0B3FD0546274951F8240029461A
:1023600008F020FE264941F82400264931F91410CE
:10237000254A32F91420881A08F046FF07461C48FF
:1023800050F82410384609F007F906461C4850F862
:102390002410304608F0C8FF0546154850F82410B0
:1023A000284608F08BFD114941F82400144850F8E4
:1023B00024104FF07E5009F0EFF805460E4850F813
:1023C0002410284608F0B0FF0B4941F82400601C97
:1023D000C4B2032CA6DBBDE8F08100005F40D4222C
:1023E00047DF913F5400002084020020AC0400200D
:1023F000B804002068020020740200205C02002063
:10240000A004002078000020860000207FB505464B
:102410000C460121082005F05EFBADF80850ADF830
:1024200004400020ADF80A00ADF8060001A9EA4812
:1024300005F00EFF01221146E74806F080FA32202F
:102440008DF8000001208DF8010000208DF80200B9
:1024500001208DF80300684605F09DFD0121DE484E
:1024600006F052FA7FBD10B50121DB4806F015FDDC
:1024700040B10121D84806F021FDD8480068401C31
:10248000D649086010BD30B585B005460C4601211F
:10249000042005F020FB0121082005F00FFB4FF47C
:1024A0007070ADF8100028208DF8130004A9CC48F6
:1024B00005F048F84FF47071C94805F0F2F8ADF82E
:1024C0000850ADF804400020ADF80A00ADF8060051
:1024D00001A9C44805F0BCFE0020C349088048801B
:1024E000012088800020C8800881BE4806F043F99A
:1024F0000420BD49088000204880012088800020F9
:10250000C8800881B74806F036F90820B649088027
:1025100000204880012088800020C8800881B148C0
:1025200006F029F90C20B0490880002048800120DD
:1025300088800020C8800881AA4806F01CF91E2067
:102540008DF8000000208DF801008DF802000120B8
:102550008DF80300684605F01EFD01221E21A148EA
:1025600006F0EDF901219F4806F0CEF905B030BD27
:1025700010B59E48007800F08000002846D1022166
:10258000984806F08AFC002840D00221954806F0C1
:1025900095FC9648007800F0400040B3914806F062
:1025A0005DFC934908800846008892490988884262
:1025B00004DA4FF6FF709049086002E000208E496F
:1025C00008608B4800888B490988401A8A49096845
:1025D00008448A4908600846006889490860002064
:1025E0008249087000217F4806F040FB0EE07D48DC
:1025F00006F034FC7F4908807C48007840F04000B9
:102600007A4908700221774806F030FB7D4800784F
:1026100000F08000002846D10421724806F03DFCFD
:10262000002840D004216F4806F048FC7548007827
:1026300000F0400040B36B4806F013FC724908807C
:102640000846008871490988884204DA4FF6FF700D
:102650006F49086002E000206D4908606A48008800
:102660006A490988401A6A49096808446949086042
:102670000846006868490860002062490870002127
:10268000584806F005FB0EE0564806F0EAFB5F49A5
:1026900008805C48007840F040005A4908700221E8
:1026A000504806F0F5FA5D48007800F080000028F8
:1026B00045D108214B4806F0F0FB80B3082149487A
:1026C00006F0FCFB5548007800F0400040B3454858
:1026D00006F0CAFB5249088008460088514909881B
:1026E000884204DA4FF6FF704F49086002E000208C
:1026F0004D4908604A4800884A490988401A4A49B1
:102700000968084449490860084600684849086063
:102710000020424908700021324806F0D3FA0EE04A
:10272000304806F0A1FB3F4908803C48007840F063
:1027300040003A49087002212A4806F0C3FA3D4891
:10274000007800F08000A8BB1021264806F0A5FB09
:1027500080B31021234806F0B1FB3648007800F022
:10276000400040B31F4806F082FB3349088008460A
:10277000008832490988884204DA4FF6FF703049F0
:10278000086002E000202E4908602B4800882B4991
:102790000988401A2A49096808442A4908600846F5
:1027A00000682949086000202249087000210D486E
:1027B00006F0A2FA0EE00B4806F059FB1F4908800C
:1027C0001C48007840F040001A4908700221054872
:1027D00006F092FA10BD0000000C0040000000203E
:1027E000000C014000080040840500206003002028
:1027F0006403002062030020880300207803002087
:102800004C000020660300206A03002068030020BB
:102810008C0300207C030020500000206C0300206B
:10282000700300206E03002090030020800300202E
:10283000540000207203002076030020740300205F
:1028400094030020840300205800002070B5054642
:102850000C4645F2555005F007FC284605F007FCEC
:10286000204605F007FC05F008FC05F00BFC70BDE8
:1028700010B505F002FC10BD08B500208DF8000071
:1028800002208DF8010003208DF80200684605F053
:1028900082FB08BD70B506460C4615460121C802EC
:1028A00005F019F9284606F018FB204606F01EFB35
:1028B000304606F036FB06F03FFBFFF7DDFF06F083
:1028C00026FB70BD10B50446204606F02AFB10BD5D
:1028D00010B57F2006F01FFB06F02EFB10BD000098
:1028E00030B589B005460C460121022005F0F3F809
:1028F0000121112005F0E2F80121294804F0F3FE3E
:102900004FF47070ADF8200018208DF823000320DC
:102910008DF8220008A9234804F014FEADF81850E1
:10292000ADF814400020ADF81A00ADF8160005A966
:102930001D4805F08DFC6020ADF804000120ADF8C5
:1029400006000020ADF80A00ADF80C0001A91648F9
:1029500005F0BBFC0821144806F006F901A912484D
:1029600005F0F5FC0821104806F007F901A90E480A
:1029700005F03AFD08210C4806F00CF901A90A48B7
:1029800005F07DFD0821084806F00DF901210648F3
:1029900006F0BAF80121044805F0B6FF09B030BDD1
:1029A000000C1A00001001400004004010B500F0B7
:1029B00025FBEE2000F0DAFB00F065FB1E2000F0A6
:1029C000D5FB00F060FB00F03DFB10BD70B50124AD
:1029D00033E000F013FBEE2000F0C8FB00F053FBE7
:1029E000A02101EB4401C8B200F0C0FB00F04BFB9A
:1029F00000F028FB052004F0ACFA00F0FFFAEF200D
:102A000000F0B4FB012004F0A4FA00F03CFB01202C
:102A100000F0DBFB0546012004F09BFA002000F0EB
:102A2000D4FB064600F00EFB052004F0B6FA46EA99
:102A30000520FE4921F81400641C062CC9DDFB4862
:102A4000008808B9012070BD0020FCE738B50446B5
:102A5000002500F0D3FAEE2000F088FB00F013FB15
:102A6000204600F083FB00F00EFB00F0EBFA08209C
:102A700004F093FADC2004F06CFA00F0BFFAEE20C8
:102A800000F074FB00F0FFFA002000F06FFB00F094
:102A9000FAFA00F0D7FA00F0B1FAEF2000F066FB86
:102AA00000F0F1FA012000F090FB8DF80000012009
:102AB00000F08BFB8DF80100002000F086FB8DF804
:102AC000020000F0BFFA9DF8000001049DF801002B
:102AD00001EB00209DF802104518284638BD10B5BE
:102AE0005820FFF7B3FFD2490860052004F031FAFF
:102AF000CE484089CE490968A1EB0020CD49086045
:102B0000CA488089096848434FF4FA6101EBD05004
:102B1000C949086010BD2DE9F0414820FFF796FF34
:102B2000C6490860052004F014FAC04880880104F2
:102B3000BE480089BF4A1268504301EBD010002103
:102B4000BF4A03C2B9484088C103B848C088B94ADF
:102B50001268504301EB10200021BA4A03C2B74863
:102B60000068083A18CAA0FB032501FB035100FBCB
:102B70000411500D40EAC1234815B149D1E90021A3
:102B80009A1A60EB0100410441EAD230AE49086074
:102B9000A9480068B0F5FA6F46DAA64800684043D5
:102BA000C017C117A94A03C2A3480068A0F5FA607C
:102BB0004043401000EB8000C117A54A03C29E4865
:102BC0000068A0F5FA604043801000EB8000C11758
:102BD000A04A03C2984800689F4988422FDA964865
:102BE000006800F2DC50C0EBC0009349096801F2B4
:102BF000DC514843C117964AD2E90032C01851410E
:102C0000934A03C28C48006800F2DC5040434010F5
:102C100000EB400101EBC000C1178E4B0CCB8018BC
:102C200059418C4A03C20AE00021884A1160516070
:102C30000020874A10605060864A116051607E48CB
:102C4000006882490968401A7B4908607C48D0E9DD
:102C500000207F49D1E90031D21A60EB01007849A8
:102C6000C1E900207748D0E900307A49D1E9002154
:102C70009A1A60EB01007349C1E900206F480068AF
:102C8000002550C9A0FB041705FB047400FB064493
:102C9000480D40EAC4256015694C12CC6D1A60EBF2
:102CA0000401E80B40EA4142C913104608F0C7FA94
:102CB0006A490860BDE8F0812DE9F04704462046E6
:102CC00007F040FA8146664908F02EFB074607F0F8
:102CD00081F906464FF07E5108F054FC05466148E4
:102CE0000168614808F020FB8046294608F01CFB7B
:102CF0005E49086008460068BDE8F08770B55C482A
:102D000000685C4908605C4801685C48006808F03D
:102D1000D5F85A4908605A4801685848006808F0D0
:102D2000CDF8044621465548006808F03BF955495E
:102D30000860504801684D48006808F02DFC0546C1
:102D400050480168284608F0EFFA044649480168EF
:102D5000204608F0B3F8464908604A4801684FF039
:102D60007E5008F019FC044644480168204608F0EB
:102D7000DBFA4249086070BD70B5434800684349BA
:102D80000860434801684348006808F097F84149E3
:102D90000860414801683F48006808F08FF8044621
:102DA00021463C48006808F0FDF83C490860374877
:102DB00001683B48006808F0EFFB054637480168AA
:102DC000284608F0B1FA044630480168204608F069
:102DD00075F82D490860314801684FF07E5008F0C1
:102DE000DBFB04462B480168204608F09DFA294980
:102DF000086070BD70B52B4800682B4908602B48EF
:102E000001682B48006808F059F8294908602948EA
:102E100001682748006808F051F804462146244814
:102E2000006808F0BFF82449086047E01804002053
:102E30002401002028010020E000002020010020C3
:102E4000180100203801002040010020500100201E
:102E5000600100206801002024FAFFFFDC00002050
:102E600041D3423E740100207B627046D4000020B2
:102E7000980100209C01002090010020A00100206A
:102E80008C01002094010020B0010020B40100203A
:102E9000A8010020B8010020A4010020AC010020FE
:102EA000E4010020500200205402002048020020CB
:102EB00058020020440200204C02002038480168DB
:102EC0003848006808F068FB05463748016828461E
:102ED00008F02AFA044632480168204607F0EEFF5F
:102EE00032490860304801684FF07E5008F054FBCA
:102EF00004462F480168204608F016FA2C4908605D
:102F000070BD2DE9F05F2B4A5168106808F044FB52
:102F10008046294A5168106808F03EFB81462749DF
:102F200008F002FA0746414608F03CF80546214AF7
:102F30009168906908F030FB82461F4A9168906959
:102F400008F02AFB83464FF0834108F0EDF98146F3
:102F5000514608F027F80746164AD168506908F02C
:102F60001BFB8246144AD168506908F015FB834662
:102F7000134908F0D9F98146514608F013F8804604
:102F8000394607F09BFF0646294607F097FF04469F
:102F90004FF0745108F0C8F90A490860BDE8F09F85
:102FA00054020020DC0000204C02002050020020CF
:102FB0005802002008050020EC0400200000C0405A
:102FC00000002041E401002008B50121042004F0A4
:102FD00075FD4FF4C050ADF8000010208DF80300CF
:102FE00003208DF802006946914804F0ABFA0120F5
:102FF000904908609049C1F8AC0108BD10B58C48F3
:10300000001D006820F470408949091D08600846C9
:10301000006840F44050086001208649091F08609C
:103020008549C1F8B001042003F093FF00208149D5
:10303000091F0860042003F08CFF00207E49C1F8BE
:10304000B00110BD10B57A48001D006820F4704032
:103050007749091D08600846006840F44050086040
:103060000020744908607449C1F8AC01042003F0E1
:1030700070FF01206F4908606F49C1F8AC0104205E
:1030800003F067FF10BD10B500246948001D0068FB
:1030900020F470406649091D08600846006840F445
:1030A0000040086001206349091F086003F051FFD8
:1030B00001206149C1F8B00103F04BFF07E0601C3B
:1030C000C4B2FA2C03DDFFF7BDFF012010BD594843
:1030D000843800680028F2D15649086000BFF5E73F
:1030E00010B50020534908605148001D006820F4C5
:1030F00070404F49091D08600846006840F4405080
:10310000086000204C49C1F8AC01022003F021FF07
:10311000012048490860022003F01BFF00204649B7
:10312000C1F8B00110BD10B5002042490860404808
:10313000001D006820F470403D49091D08600846E4
:10314000006840F44050086001203B49C1F8AC01E0
:10315000022003F0FEFE012036490860022003F041
:10316000F8FE00203449C1F8B00110BD70B5044626
:103170002F48001D006820F470402D49091D08608B
:103180000846006840F44050086000202949086063
:10319000002517E0E0092749091F08606006040EB2
:1031A000022003F0D6FE01202349C1F8B00102201D
:1031B00003F0CFFE00201F490860022003F0C9FE83
:1031C000681CC5B2082DE5DB70BD70B5054600244E
:1031D0001748001D006820F470401549091D08605B
:1031E0000846006840F400400860002616E0002011
:1031F00010490860022003F0ACFE01200E49C1F81E
:10320000B0016006040E0B488438006808B1601CE9
:10321000C4B2012003F09DFE701CC6B2082EE6DB8E
:1032200015B9FFF780FF01E0FFF75AFF204670BD98
:1032300000080140B00121420000214270B505465E
:103240000C4600F0CDF9D02000F074FA00F005FA39
:1032500018B100F0E3F9012070BD284600F06AFAC9
:1032600000F0FBF9204600F065FA00F0F6F918B11D
:1032700000F0D4F90120EFE700F0D0F90020EBE7EF
:1032800070B504460025BC2C01DB012510E0622C42
:1032900001DB02250CE02A2C01DB032508E0142CBD
:1032A00001DB042504E00A2C01DB052500E00625EE
:1032B00029461A20FFF7C2FF70BD70B50446B4F569
:1032C0007A7F01DD4FF47A74042C00DA04244FF481
:1032D0007A7090FBF4F0401EC5B229461920FFF722
:1032E000ADFF0546264604EBD671C1F34F00FFF74C
:1032F000C7FF70BD70B5044600F072F9D02000F031
:1033000019FA00F0AAF9204600F014FA00F0A5F925
:1033100000F066F9D12000F00DFA00F09EF90020CF
:1033200000F031FA054600F079F9284670BD10B575
:103330000446E006010E1C20FFF780FF10BD10B50B
:103340000446E006010E1B20FFF778FF10BD10B504
:1033500000F02DF980216B20FFF770FF642003F04F
:103360001CFE00216B20FFF769FF0320FFF7E7FF3A
:103370000020FFF7DCFF3220FFF79FFF00213820FD
:10338000FFF75CFF00216A20FFF758FF0021232090
:10339000FFF754FF80213720FFF750FF7520FFF71C
:1033A000A9FF0446682C0BD101216B20FFF746FFD3
:1033B00000216C20FFF742FF3220FFF77EFF01E083
:1033C000012010BD0020FCE72DE9F04106460F4624
:1033D00014461D4600F004F9002141EA4601C8B236
:1033E00000F0A8F900F039F920B100F017F9012038
:1033F000BDE8F081384600F09DF900F02EF900F0AC
:10340000EFF8012101EB4601C8B200F093F900F09A
:1034100024F90DE0012C04D1002000F0B4F928704B
:1034200003E0012000F0AFF92870601EC4B26D1CEB
:10343000002CEFD100F0F2F80020D9E72DE9F84F89
:103440006B46022241216820FFF7BEFF9DF8010074
:103450009DF8001040EA01200FFA80FA504607F06C
:10346000D4F9804600224B4B07F048F806464A4AFA
:103470004A4B06F087FF044606F052FF8346484950
:10348000584607F051FF044607F082FE00B2BDE83F
:10349000F88F2DE9FC4104460D4616466B46062280
:1034A00043216820FFF790FF0746BFB99DF8010050
:1034B0009DF8001040EA012000B220809DF8030032
:1034C0009DF8021040EA012000B228809DF8050016
:1034D0009DF8041040EA012000B230803846BDE873
:1034E000FC812DE9FC4104460D4616466B4606223A
:1034F0003B216820FFF768FF0746BFB99DF8010030
:103500009DF8001040EA012000B220809DF80300E1
:103510009DF8021040EA012000B228809DF80500C5
:103520009DF8041040EA012000B230803846BDE822
:10353000FC812DE9F04105460E461746984600F0FD
:103540004FF8002141EA4501C8B200F0F3F800F05D
:1035500084F820B100F062F80120BDE8F081304627
:1035600000F0E8F800F079F800240CE018F8040006
:1035700000F0E0F800F071F818B100F04FF8012009
:10358000EBE7601CC4B2BC42F0DB00F047F800205F
:10359000E3E7000000407540A4703D0AD743424075
:1035A0000000C84210B5022003F0D3FC10BD08B5DE
:1035B0000121102004F082FA4FF4C050ADF8000051
:1035C00010208DF8030003208DF80200694686481C
:1035D00003F0B8FF4FF4C051834804F060F808BD11
:1035E00010B58148406820F470407F494860084623
:1035F000406840F44050486001207C4908607C49A4
:10360000C1F8B001FFF7CEFF002078490860FFF74E
:10361000C9FF00207649C1F8B00110BD10B572484D
:10362000406820F47040704948600846406840F4A3
:103630004050486000206D49091D08606C49C1F880
:10364000AC01FFF7AFFF01206849091D0860684918
:10365000C1F8AC01FFF7A6FF10BD10B50024624809
:10366000406820F47040604948600846406840F473
:103670000040486001205D490860FFF793FF01208A
:103680005B49C1F8B001FFF78DFF07E0601CC4B2D1
:10369000FA2C03DDFFF7C2FF012010BD534880382C
:1036A00000680028F2D15149091D086000BFF4E705
:1036B00010B500204D49091D08604B48406820F4B2
:1036C0007040494948600846406840F440504860AE
:1036D00000204749C1F8AC01FFF764FF01204349CE
:1036E000091D0860FFF75EFF00204149C1F8B001E5
:1036F00010BD10B500203D49091D08603A484068DA
:1037000020F47040384948600846406840F4405012
:10371000486001203649C1F8AC01FFF743FF0120A2
:103720003249091D0860FFF73DFF00203049C1F80C
:10373000B00110BD70B504462B48406820F47040BD
:10374000294948600846406840F4405048600020DD
:103750002649091D0860002512E0E0092349086098
:103760006006040E01202249C1F8B001FFF71AFFDC
:1037700000201E49091D0860FFF714FF681CC5B230
:10378000082DEADB70BD70B5054600241648406878
:1037900020F47040144948600846406840F40040F6
:1037A0004860002615E000201049091D0860FFF759
:1037B000F9FE01200E49C1F8B0016006040E0B4865
:1037C0008038006808B1601CC4B2FFF7EBFE701CC3
:1037D000C6B2082EE7DB15B9FFF78BFF01E0FFF754
:1037E00067FF204670BD000000100140AC0122427E
:1037F0000000224238B50446F74890F82400C0B1D2
:1038000014B10220009001E000200090F24A1268FA
:10381000D17BF14A526810786B460122FFF789FE8E
:1038200010B14FF0FF3038BD9DF80010EA484174E8
:1038300023E0E948807A10B94FF0FF30F3E724B174
:10384000E548407C08B10020EDE714B1012000906C
:1038500001E000200090E04A1268D17BDE4A526805
:1038600010786B460122FFF764FE10B14FF0FF3075
:10387000D9E79DF80010D84841740020D3E738B547
:1038800000241FE0D4480068C07AA04204D0D24887
:103890000068407DA04200D112E0CF494968087815
:1038A0006B4601222146FFF78FFD10B14FF0FF302C
:1038B00038BD9DF800202146C8A005F06DFB00BF73
:1038C000601CC4B2C44840680079A042DADC002021
:1038D000EEE770B504460D46BF480068C07AA042C6
:1038E00004D0BD480068407DA04202D14FF0FF30B7
:1038F00070BDB94840680079A04202DC4FF0FF304B
:10390000F6E7B549496808782B4601222146FFF7BA
:103910005BFDEDE738B50446AF4890F82300A042C0
:1039200001D1002038BD14B13020009001E000200A
:103930000090A948807C20B19DF8000040F0020072
:103940000090A54890F8220020B19DF8000040F0BA
:1039500080000090A04A1268117D9F4A526810783A
:103960006B460122FFF7E5FD10B14FF0FF30D9E7BC
:10397000994880F823400020D4E738B5044604F085
:10398000700010B10120009005E014B100200090FB
:1039900001E040200090904A1268917C8E4A526863
:1039A00010786B460122FFF7C4FD20B100218A4840
:1039B0008172481E38BD9DF8000020F04001864805
:1039C00001730020009004F0400020B99DF8000031
:1039D00040F00400009004F0200020B99DF80000A1
:1039E00040F00200009004F0100020B99DF80000A3
:1039F00040F00100009004F0080020B99DF800009C
:103A000040F038000090744A1268D17C724A5268C3
:103A100010786B460122FFF78CFD20B100216E4823
:103A20008172481EC6E724B1082C02D00020FFF79F
:103A300071FF6948847200210175322003F0ADFAEC
:103A40000020B7E738B504466348807CA04201D126
:103A5000002038BD002C46D05F4A126811795E4ABA
:103A6000526810786B460122FFF7AEFC10B14FF0A0
:103A7000FF30EEE79DF8000020F020000090564A4D
:103A800012681179544A526810786B460122FFF788
:103A900050FD10B14FF0FF30DBE7032003F07DFA5B
:103AA000022000904C4890F8220020B19DF80000C0
:103AB00040F080000090484890F8230020B19DF825
:103AC000000040F030000090434A1268117D424AE5
:103AD000526810786B460122FFF72BFD002851D069
:103AE0004FF0FF30B5E73C4A126811793A4A526804
:103AF00010786B460122FFF767FC10B14FF0FF30E2
:103B0000A7E73548807A00F0010028B19DF8000051
:103B100040F02000009004E09DF8000020F020001C
:103B200000902D4A126811792B4A526810786B4622
:103B30000122FFF7FEFC10B14FF0FF3089E70320B0
:103B400003F02BFA244890F8220010B18020009056
:103B500001E000200090204890F8230020B19DF85B
:103B6000000040F0300000901B4A1268117D1A4A94
:103B7000526810786B460122FFF7DBFC10B14FF062
:103B8000FF3066E714488474002062E708B51248E5
:103B9000807A10B94FF0FF3008BD002000900E4A27
:103BA0001268D17B0C4A526810786B460122FFF7ED
:103BB000C0FC10B14FF0FF30EEE7074A12685179B0
:103BC000054A526810786B460122FFF7B2FC68B1D3
:103BD0004FF0FF30E0E70000980300202523357800
:103BE0003A20252335780D0A00000000FB4A1268B0
:103BF0001179FA4A526810786B460122FFF799FC56
:103C000010B14FF0FF30C7E7F44890F824000028C7
:103C100050D00C200090F14A12681179EF4A526896
:103C200010786B460122FFF784FC10B14FF0FF3093
:103C3000B2E7C0200090E948807A00F0010020B18E
:103C40009DF8000040F020000090E44A12681179CD
:103C5000E24A526810786B460122FFF76AFC10B105
:103C60004FF0FF3098E7DD48407C10B10220009013
:103C700001E000200090D94A1268D17BD74A5268EF
:103C800010786B460122FFF754FC10B14FF0FF3063
:103C900082E700200090D14A12685179CF4A5268D9
:103CA00010786B460122FFF744FC002855D04FF0F6
:103CB000FF3071E704200090C84A12681179C74AA2
:103CC000526810786B460122FFF733FC10B14FF0B9
:103CD000FF3061E7C148807C20B9C048807A00F09D
:103CE000010010B94020009001E060200090BB4A24
:103CF00012681179B94A526810786B460122FFF7B1
:103D000018FC10B14FF0FF3046E7322003F045F9C0
:103D1000B248407C10B10120009001E000200090EA
:103D2000AE4A1268D17BAD4A526810786B460122C8
:103D3000FFF7FFFB10B14FF0FF302DE7A74A1268E5
:103D40005179A64A52681078A44B10330122FFF72C
:103D5000F0FB10B14FF0FF301EE700201CE770B5FC
:103D60000446002624F001049C4890F8240008B181
:103D7000002070BD9948807A10B94FF0FF30F8E705
:103D80009648057C807A2040944908740846007C57
:103D9000A04202D04FF0FF3600E0002614B98F4851
:103DA000007D18B10120FFF725FD02E00020FFF79C
:103DB00021FD3CB1FFF7EAFE20B1884805744FF0C1
:103DC000FF30D6E73046D4E738B504468348807ADA
:103DD00010B94FF0FF3038BDBC2C02DB0120009041
:103DE00015E0622C02DB0220009010E02A2C02DB9E
:103DF000032000900BE0142C02DB0420009006E06E
:103E00000A2C02DB0520009001E006200090734898
:103E1000C07A9DF80010884201D10020DBE76F4A8C
:103E2000126891786D4A526810786B460122FFF74C
:103E300080FB10B14FF0FF30CDE79DF800106748D0
:103E4000C1720020C7E738B50446282C02DD4FF0C8
:103E5000FF3038BDDCB90020FFF75CFD00208DF895
:103E6000000007208DF801005C4A1268917C5B4AD3
:103E7000526810786B460222FFF75BFB10B14FF0DF
:103E8000FF30E6E70021554801750020E1E70120F9
:103E9000FFF740FD20208DF80000012C06D1002006
:103EA0008DF801000520FFF78FFF17E0052C06DCD9
:103EB00001208DF801000520FFF786FF0EE0142C8D
:103EC00006DC02208DF801000A20FFF77DFF05E0E7
:103ED00003208DF801001420FFF776FF9DF8010004
:103EE000072101EB8010C0B28DF801003B4A126837
:103EF000917C3A4A526810786B460222FFF719FB10
:103F000010B14FF0FF30A4E708213448817200213E
:103F10000173012101750020FFF721FF002098E7C0
:103F200038B504462D48807A10B94FF0FF3038BDBF
:103F30002A4890F8240010B14FF0FF30F7E72748E7
:103F4000007D50B134B1282C04DCE0B2FFF77BFFD8
:103F50000020ECE70020FFF776FF042C01DA0424B0
:103F600004E0B4F57A7F01DD4FF47A744FF47A708F
:103F700090FBF4F0401EC0B20090184A12685178CD
:103F8000164A526810786B460122FFF7D2FA10B138
:103F90004FF0FF30CBE79DF80000401C4FF47A71E2
:103FA00091FBF0F081B20D48C1810146C9894810EA
:103FB000FFF70AFF0020BAE738B504460748807AC1
:103FC00010B94FF0FF3038BD022C09D0042C0AD0B4
:103FD000082C0BD0102C0FD10BE000009803002010
:103FE000002000900BE00820009008E010200090D6
:103FF00005E01820009002E04FF0FF30E3E700BF3B
:10400000F848407A9DF80010B0EBE10F01D1002094
:10401000D9E7F44A1268D179F24A526810786B46AF
:104020000122FFF786FA10B14FF0FF30CBE79DF881
:104030000000C110EB4841720020C4E738B50446C7
:10404000E848807A10B94FF0FF3038BDFA2C09D01B
:10405000B4F5FA7F09D0B4F57A7F09D0B4F5FA6FD8
:104060000CD108E0002000900BE00820009008E050
:104070001020009005E01820009002E04FF0FF3083
:10408000E3E700BFD748007A9DF80010B0EBE10FDE
:1040900001D10020D9E7D34A12689179D14A5268F8
:1040A00010786B460122FFF744FA10B14FF0FF3051
:1040B000CBE79DF80000C010CA4908720020C4E791
:1040C0001CB580208DF80000C64A1268917CC54A54
:1040D000526810786B460122FFF72BFA10B14FF0AF
:1040E000FF301CBD642002F058FF00208DF8000056
:1040F000BC4A1268917CBB4A526810786B46012218
:10410000FFF717FA10B14FF0FF30EAE7B54A12682F
:10411000917DB44A526810786B460622FFF754F935
:1041200010B14FF0FF30DCE79DF80500C007400FED
:104130009DF8031001F0010140EA41009DF80110D3
:1041400001F0010140EA010494B1012C03D10121E5
:10415000A448C17431E0022C03D10021A148C174EC
:104160002BE02146A0A004F017FF4FF0FF30B8E786
:104170009C4A1268D1789B4A526810786B4601229B
:10418000FFF722F910B14FF0FF30AAE79DF80000C9
:1041900000F00F042CB99E4804F0FEFE4FF0FF30F3
:1041A0009FE7042C06D19BA004F0F6FE01218D4868
:1041B000C17402E000218B48C174FF2189488172DB
:1041C000FF2088490872FF2186484172C1724FF66C
:1041D000FF71C181FF21017481740121017380F895
:1041E0002210002180F823104175017516300160FE
:1041F00041608160163880F8241080F82510C18451
:104200004FF4FA60FFF71AFF10B14FF0FF3068E784
:104210000220FFF7D1FE10B14FF0FF3061E72A20F6
:10422000FFF7D2FD10B14FF0FF305AE73220FFF711
:1042300077FE10B14FF0FF3053E70020FFF78FFDFE
:1042400010B14FF0FF304CE70020FFF7FBFB10B13F
:104250004FF0FF3045E70020FFF78FFB002040E7DD
:1042600070477CB504460D465E48807A00F07000C9
:1042700010B94FF0FF307CBD5A4A1268117B594A81
:10428000526810786B460622FFF79EF810B14FF087
:10429000FF30F0E79DF801009DF8001040EA012092
:1042A00000B220809DF803009DF8021040EA012032
:1042B00000B260809DF805009DF8041040EA0120DE
:1042C00000B2A08015B12846FFF7CAFF0020D2E750
:1042D0007CB504460D464348807A00F0080010B9CA
:1042E0004FF0FF307CBD3F4A1268517B3D4A526817
:1042F00010786B460622FFF767F810B14FF0FF30D9
:10430000F0E79DF801009DF8001040EA012000B29E
:1043100020809DF803009DF8021040EA012000B2C1
:1043200060809DF805009DF8041040EA012000B26D
:10433000A08015B12846FFF793FF0020D2E72DE9B2
:10434000FE4F05460C462748807A18B94FF0FF30DB
:10435000BDE8FE8F234A1268917B224A526810788A
:1043600002AB0222FFF730F810B14FF0FF30EFE759
:104370009DF809009DF8081040EA012006B214B12A
:104380002046FFF76DFF17494968C88806F084FF8B
:10439000144901904968B1F9080006F035FF8346D9
:1043A000304606F031FF5946009007F0F5F8824696
:1043B000019906F0F7FD81461E4906F07FFD804613
:1043C0004FF08F4106F0B0FF074606F0E1FE28608F
:1043D0000020BDE710B588B004466CBB4FF0FF303D
:1043E00008B010BD98030020556E737570706F7221
:1043F00074656420736F6674776172652070726F84
:1044000064756374207265762025642E0A000000AE
:10441000C0C5000848616C662073656E7369746975
:1044200076697479207061727420666F756E642E7F
:104430000A00000000000C42FFE7206830B9606805
:1044400020B9A06810B9002008B010BDFA49496829
:10445000087806AB03221146FEF7B6FF10B14FF005
:10446000FF30F1E79DF81800082101EB201000F063
:104470000F00ADF800009DF8190001EB201000F0CE
:104480000F00ADF802009DF81A0001EB201000F0BB
:104490000F00ADF8040020684100BDF90000403075
:1044A00091FBF0F000B2ADF8100060684100BDF97A
:1044B0000200403091FBF0F000B2ADF81200A068AD
:1044C0004100BDF90400403091FBF0F000B2ADF8BE
:1044D0001400D9494968087806AB06221146FEF750
:1044E00073FF10B14FF0FF30AEE79DF819009DF853
:1044F000181040EA012000B2ADF808009DF81B003A
:104500009DF81A1040EA012000B2ADF80A009DF8AB
:104510001D009DF81C1040EA012000B2ADF80C000F
:10452000BDF81000BDF80810084400B2ADF8100046
:10453000BDF81200BDF80A10084400B2ADF8120030
:10454000BDF81400BDF80C10084400B2ADF814001A
:10455000BDF81000000A8DF81800BDF81000C0B2B8
:104560008DF81900BDF81200000A8DF81A00BDF888
:104570001200C0B28DF81B00BDF81400000A8DF8BF
:104580001C00BDF81400C0B28DF81D00AA4949688E
:10459000087806AB06221146FEF7CBFF10B14FF0AC
:1045A000FF3051E700204FE70146A348007A30B1C1
:1045B000012807D0022809D003280FD10AE0FA20E9
:1045C00008800EE04FF4FA7008800AE04FF47A7029
:1045D000088006E04FF4FA60088002E000200880BE
:1045E00000BF00BF0020704701469348407A30B1B9
:1045F000012807D0022808D003280CD108E00220A7
:1046000008700BE00420087008E00820087005E03E
:104610001020087002E04FF0FF30704700BF86485E
:10462000C07C18B108784006000E08700020F4E73E
:1046300001468148C07A082817D2DFE800F0170445
:10464000070A0D101318BC20088013E062200880B0
:1046500010E02A2008800DE0142008800AE00A20DB
:10466000088007E00520088004E000BF00BF0020AC
:10467000088000BF00BF0020704701466E4890F8D8
:10468000240010B14FF0FF3070476B48C08908809C
:104690000020F9E7014600200880401E70470146CF
:1046A0004FF0FF30704701466348007A30B101286F
:1046B00007D0022808D003280CD108E05F48086022
:1046C0000BE05F48086008E05E48086005E05E486F
:1046D000086002E04FF0FF30704700BF0020FBE7AA
:1046E00001465548407A30B1012808D002280AD046
:1046F000032810D10BE04FF4804008800EE041F613
:104700009C7008800AE04FF48050088006E04FF467
:104710000060088002E04FF0FF30704700BF46485D
:10472000C07C10B10888401008800020F5E70146E1
:104730004148007C08700020704701463E48807A5E
:1047400010B10120087001E00020087000207047BF
:1047500038B504463848807A10B94FF0FF3038BD7C
:10476000354A1268117C344A526810786B4602222E
:10477000FEF72AFE10B14FF0FF30F0E79DF8010080
:104780009DF8001040EA012000B220800020E6E7FA
:104790002DE9FE4F0746884692461D46DDF830B0AB
:1047A00000260024244890F8240010B1601EBDE8C3
:1047B000FE8F002028702048807A10B94FF0FF301B
:1047C000F5E71D48007C10B94FF0FF30EFE71A48BD
:1047D000007C00F0400008B1B01CC6B21648007C56
:1047E00000F0200008B1B01CC6B21348007C00F0F5
:1047F000100008B1B01CC6B20F48007C00F00800E1
:1048000008B1B01DC6B20C4A1268917A0A4A5268C1
:1048100010786B460222FEF7D7FD10B14FF0FF3043
:10482000C5E79DF801009DF8001040EA0129B14557
:104830000CDA0020BBE700009803002000000343CF
:10484000000083423333034233338341FC484068E2
:104850004088B9EB600F17DDF94A1268517CF84ABD
:10486000526810786B460122FEF7AEFD10B14FF092
:10487000FF309CE79DF8000000F0100020B1FFF72A
:1048800085F96FF0010092E75046FFF7E9FCEC4A2A
:104890001268D17AEA4A526810786B463246FEF7BF
:1048A00093FD10B14FF0FF3081E799FBF6F0401E09
:1048B0008BF8000000202870B4422AD0E048007C29
:1048C00000F0080028B3601C1DF800001DF804105B
:1048D00040EA012000B2A8F80000E01C1DF800101A
:1048E000A01C1DF8000041EA002000B2A8F8020058
:1048F000601D1DF80010201D1DF8000041EA002079
:1049000000B2A8F80400287840F008002870A01D24
:1049100084B2B44213D0CA48007C00F0400070B1A9
:10492000601C1DF800001DF8041040EA012000B2D0
:104930003880287840F040002870A01C84B2B4422F
:1049400013D0BF48007C00F0200070B1601C1DF83F
:1049500000001DF8041040EA012000B27880287899
:1049600040F020002870A01C84B2B44213D0B44898
:10497000007C00F0100070B1601C1DF800001DF8F4
:10498000041040EA012000B2B880287840F01000FE
:104990002870A01C84B2002009E7F8B504460F4631
:1049A0001646A74890F8240010B94FF0FF30F8BD24
:1049B000A348807A10B94FF0FF30F8E7A04A126898
:1049C000917A9F4A526810786B460222FEF7FCFCEF
:1049D00010B14FF0FF30EAE79DF801009DF800109C
:1049E00040EA0125A54203DA00203070401EDEE7D0
:1049F000934840684088B5EB600F17DD904A126815
:104A0000517C8F4A526810786B460122FEF7DCFC1D
:104A100010B14FF0FF30CAE79DF8000000F0100021
:104A200020B1FFF7B3F86FF00100C0E7E2B2844BAA
:104A30001B68D97A824B5B6818783B46FEF7C4FC4A
:104A400010B14FF0FF30B2E795FBF4F0401E30702C
:104A50000020ACE701467A4880F822100020704719
:104A60007CB5054676494968087801AB04220D21DA
:104A7000FEF7AAFC08B107207CBD9DF80700C0F333
:104A800001109DF8041001F0E00140EAE1008DF80A
:104A900000009DF80700C0F381009DF8051001F0AB
:104AA000E00140EAE1008DF801009DF8070000F008
:104AB00003009DF8061001F0E00140EAE1008DF8E6
:104AC000020000241CE01DF8040018B9002045F87D
:104AD000240013E05B4845F8240006E055F8240064
:104AE000594906F021FC45F824001DF80400401E39
:104AF000C0B20DF804000028F0D100BF601CC4B2A1
:104B0000032CE0DB0020B7E72DE9FE4F06460F46F9
:104B100000256846FFF7A4FF002442E056F8240071
:104B200057F82410A0EB010ABAF1000F01DB51463F
:104B300001E0CAF10001084606F066FB83464FF02B
:104B40008F4106F02FFA80465DF82400002106F020
:104B5000EBFA16D05DF82410404606F023FA8246A0
:104B60004FF07E5106F018FD814629F0004A374883
:104B7000416A504606F0A4FC12D20120A040054331
:104B80000EE03248C169404606F09AFB05D32F4833
:104B9000016A404606F094FC02D20120A040054381
:104BA000641C032CBADB2846BDE8FE8F2DE9FC5FB0
:104BB00006460F46002522494968087801AB0322C2
:104BC0000D21FEF701FC10B10720BDE8FC9F9DF808
:104BD000040000F01F008DF804009DF8050000F0AF
:104BE0001F008DF805009DF8060000F01F008DF8ED
:104BF0000600002462E056F8240057F82410A0EBC9
:104C0000010BBBF1000F01DB594601E0CBF10001C4
:104C1000084606F0F9FA4FF08F41009006F0C2F90D
:104C2000814601A8005DC0B30849086806F034FB5E
:104C300083465946064806F0B5F980460FE0000065
:104C4000980300207B14AE3E1D5A843FE8B700084D
:104C500000B04C45FE49404606F066FB804601A880
:104C6000005D401EC0B201A908550028F2D141469E
:104C7000484606F097F983464FF07E5106F08CFCCB
:104C800082462AF0004BF3488169584606F018FC2A
:104C900013D20120A04005430FE0FFE7ED48016972
:104CA000484606F00DFB05D3EA484169484606F040
:104CB00007FC02D20120A0400543641C032C9ADBB0
:104CC000284682E72DE9F04F87B005460C4691460D
:104CD00001208DF8100000208DF81100DE4A1268C6
:104CE000917CDD4A5268107804AB0222FEF721FC69
:104CF00020B14FF0FF3007B0BDE8F08FC82002F0C0
:104D00004CF900208DF81000D34A1268D17BD24AAA
:104D10005268107804AB0122FEF70BFC10B14FF083
:104D2000FF30E8E7CC4A12685179CB4A52681078D4
:104D300004AB0122FEF7FDFB10B14FF0FF30DAE7C4
:104D4000C54A1268917CC44A5268107804AB0122AB
:104D5000FEF7EFFB10B14FF0FF30CCE7BE4A126810
:104D6000D17DBD4A5268107804AB0122FEF7E1FB09
:104D700010B14FF0FF30BEE7B74A12681179B64A5A
:104D80005268107804AB0122FEF7D3FB10B14FF04C
:104D9000FF30B0E70C208DF81000AF4A126811798F
:104DA000AD4A5268107804AB0122FEF7C2FB10B185
:104DB0004FF0FF309FE70F2002F0EFF8A648806A1F
:104DC000407A8DF81000A44A12689178A24A52687D
:104DD000107804AB0122FEF7ACFB10B14FF0FF30AE
:104DE00089E79D48806A007A8DF810009A4A126817
:104DF0005178994A5268107804AB0122FEF799FB6A
:104E000010B14FF0FF3076E7B9F1000F07D09248AC
:104E1000806A807A40F0E0008DF8100004E08E484F
:104E2000806A807A8DF810008B4A126891798A4ADC
:104E30005268107804AB0122FEF77BFB10B14FF0F3
:104E4000FF3058E7B9F1000F07D08348806AC07A75
:104E500040F0E0008DF8100003E07E48C07A8DF845
:104E600010007D4A1268D1797B4A5268107804ABF1
:104E70000122FEF75EFB10B14FF0FF303BE7B9F1C6
:104E8000000F02D0C82002F088F840208DF81000F2
:104E9000714A12681179704A5268107804AB012285
:104EA000FEF747FB10B14FF0FF3024E778208DF874
:104EB0001000694A12685179674A5268107804AB49
:104EC0000122FEF736FB10B14FF0FF3013E76149C6
:104ED000888902F062F800208DF810005E4A12689E
:104EE00051795D4A5268107804AB0122FEF721FB2C
:104EF00010B14FF0FF30FEE6574A1268917A564AD9
:104F00005268107804AB0222FEF75EFA10B14FF03F
:104F1000FF30F0E69DF811009DF8101040EA012BDB
:104F20000C209BFBF0F0C6B20020A86068602860EF
:104F3000A06060602060824665E0474A1268D17ACE
:104F4000454A5268107804AB0C22FEF73DFA10B1C6
:104F50004FF0FF30CFE69DF811009DF8101040EAA9
:104F6000012000B2ADF808009DF813009DF8121062
:104F700040EA012000B2ADF80A009DF815009DF846
:104F8000141040EA012000B2ADF80C00BDF9081081
:104F9000206808442060BDF90A1060680844606019
:104FA000BDF90C10A0680844A0609DF817009DF89A
:104FB000161040EA012000B2ADF800009DF819007B
:104FC0009DF8181040EA012000B2ADF802009DF8EB
:104FD0001B009DF81A1040EA012000B2ADF8040051
:104FE000BDF90010286808442860BDF902106868FF
:104FF00008446860BDF90410A8680844A8600AF174
:10500000010000F0FF0AB24597DB1248D0F800C05B
:105010002868C117090441EA1041070462460023C9
:10502000384603F094FF32460023CDE9020103F035
:105030008EFF28600748D0F800C06868C1170904CF
:1050400041EA1041070462460023384606E00000AA
:1050500054E3853FE8B700089803002003F077FF8A
:1050600032460023CDE9020103F071FF6860FE487B
:10507000D0F800C0A868C117090441EA104107042C
:1050800062460023384603F062FF32460023CDE932
:10509000020103F05CFFA860F348D0F804C0216867
:1050A000C817000440EA11480F046246002338463E
:1050B000414603F04CFF32460023CDE9020103F0E4
:1050C00046FF2060E848D0F804C06068C1170904B2
:1050D00041EA1041070462460023384603F037FFD7
:1050E00032460023CDE9020103F031FF6060DE4863
:1050F000D0F804C0A068C117090441EA10410704B0
:1051000062460023384603F022FF32460023CDE9F1
:10511000020103F01CFFA060A068002804DDA06865
:10512000A0F58030A06003E0A06800F58030A060AA
:105130000020E0E538B50446CC4890F82400A042B1
:1051400001D1002038BD24B3C84890F8250010B91B
:105150004FF0FF30F6E70020FEF74CFB0020FEF793
:1051600071FCC249C88CFEF7DBFE00200090BF49ED
:10517000496808786B4601222321FEF7DAF90121FC
:10518000BA4880F824100120FEF734FBFEF7FEFC3D
:1051900013E00020FEF72EFBB448007C0090B349DA
:1051A000496808786B4601222321FEF7C2F90021E5
:1051B000AE4880F82410FEF7E9FC0020C2E72DE994
:1051C000F04F8DB083460F4602200C90A74890F810
:1051D000240020B10020FFF7ADFF012600E00026EB
:1051E00003A8FFF7E1F905A8FFF7FEF901A8FFF70B
:1051F0001FFA02A8FFF741FA9C4890F80AA004A8F9
:10520000FFF795FA002407E0002239465846FFF7D9
:1052100059FD00B902E0641C022CF5DB00BF022C32
:1052200001D1002528E0002407E0012206A909A8F1
:10523000FFF748FD00B902E0641C022CF5DB00BF5B
:10524000022C01D1002517E006A93846FFF75CFCC7
:1052500000F0FF0809A95846FFF7A8FC00F0FF0975
:105260000025B9F1000F01D145F00105B8F1000F9B
:1052700001D145F0020500BFFF207C490872FF21E3
:105280007A484172C1724FF6FF71C181FF2181726C
:10529000017401210173BDF80C00FEF7CFFE9DF8EB
:1052A0001400FEF789FEBDF80400FEF78DFDBDF881
:1052B0000800FEF735FE5046FEF75FFB9DF8100034
:1052C000FEF74DFD16B10120FFF734FF28460DB063
:1052D000BDE8F08FF8B504460D46164616B94FF0F6
:1052E000FF30F8BD6148807A10B94FF0FF30F8E721
:1052F00020128DF80000E0B28DF801009DF8010049
:1053000028445A4949684989884202DD4FF0FF30F4
:10531000E7E7564A1268117E544A526810786B4685
:105320000222FEF706F910B14FF0FF30D9E7EAB2DA
:105330004E4B1B68597D4D4B5B6818783346FEF722
:10534000F8F810B14FF0FF30CBE70020C9E7F8B50F
:1053500004460D46164616B94FF0FF30F8BD4348D7
:10536000807A10B94FF0FF30F8E720128DF8000076
:10537000E0B28DF801009DF8010028443B494968DE
:105380004989884202DD4FF0FF30E7E7374A12686B
:10539000117E364A526810786B460222FEF7C9F831
:1053A00010B14FF0FF30D9E7EAB2304B1B68597D9E
:1053B0002E4B5B6818783346FEF706F810B14FF0B5
:1053C000FF30CBE70020C9E72DE9F04385B0054663
:1053D0000E4690469946254890F8250020B14FF09A
:1053E000FF3005B0BDE8F08316B94FF0FF30F8E7A5
:1053F000002423E0281B102801DD102000E0281BDA
:1054000087B2321939462046FFF764FF10B14FF0DA
:10541000FF30E6E701AA39462046FFF798FF10B1B2
:105420004FF0FF30DDE730193A4601A903F0ECFEFA
:1054300010B16FF00100D4E7E01984B2AC42D9DBBF
:105440004FEA28208DF8000008F0FF008DF80100D9
:10545000064A1268917E054A526810786B4602220D
:10546000FEF767F838B103E0E8B7000898030020BA
:105470004FF0FF30B5E70121FE4880F82510A0F875
:1054800026900020ADE70146FA4890F82400087005
:10549000002070474FF0FF30704702464FF0FF305A
:1054A000704701464FF0FF307047F8B505460F468C
:1054B0001446002C70D0B5F5FF5F01DDFF2605E036
:1054C000202D01DA012601E0C5F3471607B90127AF
:1054D000282C02DD4FF0FF30F8BDE648407D28BBA8
:1054E000E44890F8240038B10020FFF723FE0121A2
:1054F000E04880F8201003E00021DE4880F820100A
:10550000DC481630FFF750F8DA481830FFF76CF82F
:10551000D8481A30FFF78CF8D6481C30FFF7ADF8A2
:10552000D448817A81771F30FFF701F90020FEF718
:1055300061F90020FEF787FC00208DF80000CD4ABD
:1055400012689178CB4A526810786B460122FDF7B9
:10555000F0FF10B14FF0FF30BEE740208DF80000A3
:10556000C44A1268D17BC34A526810786B46012244
:10557000FDF7DFFF00B165E08DF800608DF8017088
:10558000BC4A1268117ABB4A526810786B460222F4
:10559000FDF7CFFF08B155E047E0052001F0FDFC25
:1055A000B448407A072101EBC000C0B28DF800007A
:1055B000B04A1268D179AF4A526810786B4601221E
:1055C000FDF7B7FF00B13DE020208DF80000012C71
:1055D00003D100208DF801000EE0052C03DC012032
:1055E0008DF8010008E0142C03DC02208DF8010086
:1055F00002E003208DF801009DF80100072101EB76
:105600008010C0B28DF801009A4A1268917C994AC4
:10561000526810786B460222FDF78BFF00B111E053
:10562000012194484175002056E7924A1632002124
:1056300003E0505C00B105E0491C0C29F9D34FF0A0
:10564000FF3049E7FF208B490872FF2189484172EA
:10565000C1724FF6FF71C181FF2181720174012176
:1056600001730146887FFEF788F98249C88AFEF7F0
:10567000E5FC8049087EFEF79FFC7E49488BFEF7DB
:10568000A3FB7C49888BFEF74BFC7A49C87FFEF769
:1056900066FB784890F8200010B10120FFF74AFD22
:1056A000002174484175002016E770B588B002A942
:1056B00005A8FFF784FD0446032C3ED101A8FEF7A0
:1056C000F2FF059805F0A0FD0646019905F02CFEB5
:1056D000054605F05DFD0590069805F095FD06462A
:1056E000019905F021FE054605F052FD0690079848
:1056F00005F08AFD0646019905F016FE054605F0FF
:1057000047FD079005A800F054FA6846FEF7E8FF49
:10571000BDF80010029848430290BDF800100398AD
:1057200048430390BDF8001004984843049002A831
:1057300000F0D2FA002008B070BD0120FBE701465E
:1057400091F90020002A01DD00201EE091F90020DF
:10575000002A01DA042018E091F90120002A01DD75
:10576000012012E091F90120002A01DA05200CE065
:1057700091F90220002A01DD022006E091F90220C1
:10578000002A01DA062000E00720704710B5044621
:105790002046FFF7D4FF0346E01CFFF7D0FF43EAA3
:1057A000C00083B2A01DFFF7CAFF43EA801083B296
:1057B000184610BD70B50024FDF7F9FEFEF780FC19
:1057C000002840D17820FEF7D8F8C4B20CB10120EF
:1057D00070BD7820FEF7C3FAC4B20CB10220F7E71F
:1057E0006420FEF79DFBC4B20CB10320F0E700F08B
:1057F00045F9C4B20CB10420EAE71F48FFF7C6FF21
:10580000054600F045F9C4B20CB10520E0E740F2CE
:10581000731000F07EFDC4B20CB10620D8E76420FE
:1058200000F0F0FAC4B20CB10720D1E7FFF73DFF5A
:1058300004460CB10820CBE70120FFF77BFCC4B283
:105840001CB10920C4E70A20C2E70020C0E72DE907
:10585000F04F99B004460D4616464FF07E574FF074
:1058600000084FF000094FF0000A12A813A918AB66
:105870000EAA03E098030020C4030020CDE9001025
:1058800014A916A800F0A4FE18B1012019B0BDE8B3
:10589000F08FBDF84C0000F4807000287ED00E9888
:1058A00005F0B2FC83464FF09D4105F07BFB0746B7
:1058B0000F9805F0A9FC83464FF09D4105F072FB5F
:1058C0008046109805F0A0FC83464FF09D4105F0FE
:1058D00069FB8146119805F097FC83464FF09D4186
:1058E00005F060FB824639464FF0804005F01CFD14
:1058F0004946059005F018FD414607904FF040409D
:1059000005F012FD5146059005F00EFD0690079931
:1059100005F0D4FA834605F0A5FACDE9080103F0B5
:1059200093FF4FF06632544BCDE90A0104F0C0FFFB
:10593000CDE90C0104F0F4FC206049464FF08040B2
:1059400005F0F2FC4946029005F0EEFC4146049059
:105950004FF0404005F0E8FC4146029005F0E4FCC1
:105960000390049905F018FE83464FF07E5105F030
:10597000A5FA059005F076FACDE9080139464FF011
:10598000804005F0D1FC4146039005F0CDFC49462E
:1059900004904FF0804005F0C7FC00E068E05146FD
:1059A000039005F0C1FC8346049905F087FA059041
:1059B00005F058FACDE90601DDE9082304F08CF979
:1059C0004FF066322C4BCDE90A0104F071FFCDE9AE
:1059D0000C0104F0A5FC28605146504605F0A4FCDB
:1059E00049460490484605F09FFC414603904046D6
:1059F00005F09AFC39460190384605F095FC009078
:105A0000019905F05BFA0290039905F0C5FD834604
:105A1000049905F0C1FD059005F024FACDE90801CF
:105A20005146384605F080FC49460490404605F052
:105A30007BFC0390049905F041FA4FF080410590FA
:105A400005F072FC834605F00DFACDE90601DDE9AB
:105A5000082304F041F94FF06632074BCDE90A0103
:105A600004F026FFCDE90C0104F05AFC306001E09F
:105A700002200BE7002009E766A64C4010B5C823BA
:105A80004FF48062F74940F6F630FFF79DFC10BDF9
:105A900010B586B00446F4A000680390F3A0006837
:105AA0000290F3A000680190F2A00068009004F05A
:105AB000030003A9085C8DF8140003A8C4F3C10116
:105AC000405C8DF8150003A8C4F38111405C8DF88B
:105AD000160004F0030002A9085C8DF8100002A86B
