:020000040800F2
:10000000380B0020CD600008490A00084B0A0008A0
:100010004D0A0008510A0008550A000800000000B7
:10002000000000000000000000000000590A000865
:100030005B0A0008000000005D0A00085F0A000873
:1000400041170008E7600008E7600008E760000863
:10005000E7600008E7600008E7600008E760000864
:10006000E7600008E7600008E7600008E760000854
:10007000E7600008E7600008E7600008E760000844
:10008000E7600008E7600008E7600008E760000834
:10009000E7600008E7600008E7600008E760000824
:1000A000E7600008E7600008E7600008E760000814
:1000B000E7600008E7600008E1130008E760000857
:1000C000E7600008E7600008E7600008E7600008F4
:1000D000E7600008E7600008E7600008E7600008E4
:1000E000E7600008E7600008E7600008E7600008D4
:1000F000E7600008E7600008E7600008E7600008C4
:10010000E7600008E7600008D7120008E760000811
:10011000E7600008E7600008E7600008E7600008A3
:10012000E7600008E7600008E7600008E760000893
:1001300000F002F800F062F80AA090E8000C824497
:100140008344AAF10107DA4501D100F057F8AFF274
:10015000090EBAE80F0013F0010F18BFFB1A43F0A5
:1001600001031847BCB50000DCB500000A444FF09D
:10017000000C10F8013B13F0070408BF10F8014B06
:100180001D1108BF10F8015B641E05D010F8016B4B
:10019000641E01F8016BF9D113F0080F1EBF10F8AF
:1001A000014BAD1C0C1B09D16D1E58BF01F801CBD2
:1001B000FAD505E014F8016B01F8016B6D1EF9D555
:1001C0009142D6D37047000000230024002500266A
:1001D000103A28BF78C1FBD8520728BF30C148BFAA
:1001E0000B607047642907F04F85782907F08885F0
:1001F000002070471FB51FBD10B510BD07F0DCFF14
:100200001146FFF7F7FF00F009F807F0FAFF03B413
:10021000FFF7F2FF03BC05F031FD000088B00020BD
:1002200007900025002600F090FC4FF4A06006F037
:10023000F1FC05F0B9FC472144F61F6001F088FA93
:100240004FF4FA61FB4807F03BFC4FF4FA61F948C0
:1002500007F038FC4FF4FA61F64807F035FC4FF42C
:10026000FA61F44807F032FC41F2883005F0D9FC1D
:100270004FF47A71EF4807F023FC4FF47A71ED48A0
:1002800007F020FC4FF47A71EA4807F01DFC4FF4A8
:100290007A71E84807F01AFC40F6B83005F0C1FC66
:1002A00001F099FE05E0C82005F0BBFCC82005F070
:1002B000B8FC04F0C3F80028F5D14FF47A7005F0CB
:1002C000B0FC01F0C5FC642005F0ABFC01F0E3FAE2
:1002D000642005F0A6FC01F0EEFA4FF47A7005F008
:1002E000A0FC47214FF6FF7001F005F841F61F41D1
:1002F000092000F0C3FF4FF4967005F092FCCE4841
:100300000068CE490860A3E0CD4ACE49CE4801F04E
:1003100004FF00284AD1CC48B0F900000AF04AF89E
:100320000290CA480168029809F0A4FE039009F0FF
:1003300075FE07460022C64B09F060FBCDE90401BB
:1003400009F002F8C1490860BE48B0F900000AF09F
:1003500031F80290BF480168029809F08BFE0390C3
:1003600009F05CFE07460022B94B09F047FBCDE9D6
:10037000040108F0E9FFB7490860B148B0F900008E
:100380000AF018F80290B4480168029809F072FE69
:10039000039009F043FE0022AD4BCDE9040109F0C2
:1003A0002DFB074608F0D0FFAB490860AB4AAC49CB
:1003B000AC4801F0DAFE00284AD1AA48B0F90000A2
:1003C00009F0F8FF0290A8480168029809F052FE6F
:1003D000039009F023FE00229D4BCDE9040109F0B2
:1003E0000DFB074608F0B0FF9F4908609C48B0F934
:1003F000000009F0DFFF02909C480168029809F0B4
:1004000039FE039009F00AFE07460022904B09F0DE
:10041000F5FACDE9040108F097FF944908608F4888
:10042000B0F9000009F0C6FF0290914801680298F7
:1004300009F020FE039009F0F1FD0022844BCDE984
:10044000040109F0DBFA074608F07EFF88490860DE
:100450007A48006809F0C6FF864905900AF00AF854
:100460008549069009F006FE07467348006809F0C2
:10047000B9FF8049069009F0FDFF8046394609F032
:10048000C5FFFFF441AF7148006809F057FF00B2A3
:100490007A4908806F48006809F050FF00B2784937
:1004A00008806D48006809F049FF00B2754908806E
:1004B0006D48006809F042FF00B2734908806B483C
:1004C000006809F03BFF00B2704908806848006886
:1004D00009F034FF00B26E4908806E4805F0E0FB79
:1004E00000F0B4FB01206C49086000206B49C1F8A2
:1004F00088012FE2079800287ED06948B0F90000F3
:1005000040F24C41884278DD6548B0F900406548CA
:10051000B0F9000040F2E351081A6349B1F9001044
:10052000884209DC5F48B0F9000000F2E3505E4900
:10053000B1F90010884217DA5B480088A0F2E35056
:100540000FFA80F9484609F035FF039009F066FD7F
:100550000746564A564B09F051FACDE9040108F016
:10056000F3FE5449086002E00020524908604D48FB
:10057000B0F9000040F2E451081A4F49B1F90010F7
:10058000884209DC4748B0F9000000F2E4504A49CB
:10059000B1F90010884218DA4748008840F2E45167
:1005A000081A0FFA80FA504609F004FF039009F088
:1005B00035FD07463D4A3E4B09F020FACDE90401DE
:1005C00008F0C2FE3D49086002E000203B49086097
:1005D0003448B0F9000040F2E351081A3849B1F943
:1005E000001088420CDC2F48B0F9000000F2E35004
:1005F0003349B1F9001001E098E069E0884263DA1C
:100600002F48008840F2E351081A0FFA80FB584641
:1006100009F0D0FE039009F001FD0746234A244B60
:1006200009F0ECF9CDE9040108F08EFE25490860D7
:100630005CE049E00004004000000020AC00002025
:1006400032000020300000202E0000203C0000205E
:100650000000E03F40000020440000202C0000206B
:100660002A00002028000020500000205400002014
:10067000580000206F12833A0000404036000020EE
:10068000380000203A0000204A0000204C000020E2
:100690004E00002020A10700A0012142008022423C
:1006A000740100208C00002070010020F49FDA8586
:1006B0008B81A23FCC00002072010020D0000020DE
:1006C00076010020D40000200020A34908600DE03E
:1006D00000240020A0490860A0490860A0490860E3
:1006E00000231A461946184600F0D8FA9D48B0F97A
:1006F000000040F24C41884216DA9B48B0F90000F5
:10070000884211DA16B99948008886B2974800687D
:10071000801B082831D300200790954908600120EC
:100720009449C1F8A00128E0002626E000231A46DB
:100730001946184600F0B2FA8A48B0F9000040F2B3
:100740004C41884218DA8848B0F9000040F26C71D8
:10075000884211DD15B98548008885B28348006854
:10076000401B052809D3012007908149086000201B
:100770008049C1F8A00100E000257F480068401CC6
:1007800009F030FE80467D48006809F02BFE7C4968
:10079000069009F06FFE0746414609F037FF29D25F
:1007A00075480068401C74490860764A7649774865
:1007B00001F0DBFC764A7749774801F0AEFCC8B916
:1007C00000F0E0FC664801687448006809F050FFDA
:1007D00073490860614801687248006809F048FF81
:1007E000714908605C4801687048006809F040FF82
:1007F0006F4908606F480068401C09F0F3FD0690DF
:100800005E48006809F0EEFD80466B4909F032FE53
:100810000746069909F0FAFE09D266480068401CAE
:1008200064490860614A5D495E4803F054FE6348CC
:100830000068401C09F0D6FD06905048006809F099
:10084000D1FD80465E4909F015FE0746069909F07C
:10085000DDFE20D259480068401C5849086000F06D
:100860009AFA4849B1F90010564AB2F90020881A9C
:1008700009F0A0FD039009F0D1FB534A534BCDE999
:10088000040109F0BBF8074608F0A4FF201A04B2DF
:10089000204600F035FA4E480068401C09F0A2FDE1
:1008A00080463648006809F09DFD4A49069009F0E7
:1008B000E1FD0746414609F0A9FE4BD244480068D5
:1008C000401C4349086000200090034601903748CF
:1008D0000268344801683148006804F0BCFE00201A
:1008E00002900390049005903B48B0F900003B490A
:1008F000B1F90010CDE900103948B0F900302148B5
:10090000B0F900202048B0F900102048B0F90000EC
:1009100004F041FF0020009001900290314F0390BD
:100920003F88BBB2304F3F88BAB2304F3F88B9B230
:100930002F4F3F88B8B204F0F1FF002002900390DF
:100940000490059000900190A0B200231A46194629
:1009500005F078F8CEE50000D4000020D00000209B
:10096000CC00002074010020760100201800002037
:10097000888122420000214208000020000000205F
:10098000CDCC4C3E2C0000202A0000202800002066
:1009900032000020300000202E0000201C0000202B
:1009A000C000002020000020C400002024000020FF
:1009B000C80000200C000020CDCCCC3D1000002051
:1009C000CDCC4C3D4E0000209A9999999999A93F18
:1009D000140000200AD7A33CDC000020DA0000202D
:1009E000D8000020940000209200002090000020F9
:1009F0008E00002000BF1A4801684FF0E020826995
:100A0000174800688142F6D11648006800EB4003A1
:100A1000C3EBC010C2EBC000124B1B68B0FBF3F07D
:100A200001EB4103C3EBC11300EBC300704700B5FA
:100A300085B0684605F019FE0B490098B0FBF1F04F
:100A40000849086005B000BD7047704700BFFEE769
:100A500000BFFEE700BFFEE7704770477047704772
:100A6000E0000020E400002040420F000CB5002010
:100A7000019000906C48006840F480306A4908603A
:100A800000BF6948006800F4003000900198401CE5
:100A90000190009818B90198B0F5A06FF1D16248A3
:100AA000006800F4003010B10120009001E0002047
:100AB00000900098012843D15C48006840F0100085
:100AC0005A4908600846006820F00300086008469C
:100AD000006840F00200086053484068524948608E
:100AE0000846406848600846406840F480604860B6
:100AF0000846406820F47C1048600846406840F48E
:100B0000E81048600846006840F08070086000BF48
:100B10004548006800F000700028F9D0424840685D
:100B200020F00300404948600846406840F0020059
:100B3000486000BF3C48406800F00C000828F9D12C
:100B40000CBD10B5FFF792FF10BD10B53648006818
:100B500040F00100344908600846406834490840C4
:100B60003149486008460068324908402E4908600B
:100B70000846006820F4802008600846406820F499
:100B8000FE0048604FF41F008860FFF7DAFF4FF067
:100B900000602949086010BD10B500210020002226
:100BA000214B5B6803F00C0121B1042906D0082910
:100BB00028D107E0214B224C236027E01F4B204C1B
:100BC000236023E0184B5B6803F47010164B5B68DE
:100BD00003F48032022303EB904022B9194B4343C4
:100BE000174C23600DE0104B5B6803F4003323B116
:100BF000144B4343124C236003E0104B4343104C0F
:100C0000236003E00D4B0E4C236000BF00BF064B7A
:100C10005B68C3F303130C4CE15C094B1B68CB40CE
:100C2000074C236010BD000000100240002002406D
:100C30000000FFF8FFFFF6FE08ED00E000127A006A
:100C4000E800002000093D00EC00002008B501216B
:100C5000242005F077FD4FF48070ADF800001020DF
:100C60008DF8030003208DF802006946094805F05D
:100C7000ADFA4FF48071074805F055FB0420ADF83C
:100C800000006946044805F0A1FA0421024805F075
:100C90004AFB08BD000801400014014030B5B0F522
:100CA000FA6F01DD4FF4FA60B1F5FA6F01DD4FF430
:100CB000FA61B2F5FA6F01DD4FF4FA62B3F5FA6F3B
:100CC00001DD4FF4FA63B0F57A7F01DA4FF47A7000
:100CD000B1F57A7F01DA4FF47A71B2F57A7F01DAF1
:100CE0004FF47A72B3F57A7F01DA4FF47A73FE4DDE
:100CF00028802D1D29802D1D2A802D1D2B8030BD83
:100D00002DE9F0410446F9480088204405B2F8482E
:100D10000088204406B2F7480088204407B2F6480D
:100D2000008820440FFA80F843463A463146284668
:100D3000FFF7B4FFBDE8F0810146B1F5967F02DD13
:100D40004FF49670704711F5967F01DAEB48F9E79A
:100D50000846F7E770B50446204609F05FF90546F6
:100D60000022134608F048FF01D2204670BD84F0EF
:100D70000040FBE710B504464FF07E51204609F0D5
:100D800045FB02D24FF07E5010BD21464FF07E5001
:100D900009F0DEF9F8E72DE9FF5FD9480068FFF7B1
:100DA000D9FF0546FFF7E6FF0446D648016820460E
:100DB00009F060FBD4490860D4480068FFF7CAFF17
:100DC0000546FFF7D7FF0446D1480168204609F0E1
:100DD00051FBD0490860D048B0F9000009F0EAFAA8
:100DE0000746CE480168384609F044FB0546CC4822
:100DF000B0F9000009F0DEFA8146C64801684846AD
:100E000009F038FB0746C748B0F9000009F0D2FAEC
:100E10008346BD480168584609F02CFB8146C2480C
:100E20000168C248006809F025FB0390C0480168CA
:100E3000B648006809F01EFB0290BE480168B04841
:100E4000006809F017FB0190029909F013F9834635
:100E5000039909F00FF98246494609F00BF98046DB
:100E6000394609F007F90646294609F003F9044610
:100E700009F064FA00B29D490880A748B0F9000063
:100E800009F098FA0746A5480168384609F0F2FAD1
:100E90000546A348B0F9000009F08CFA81469D4848
:100EA0000168484609F0E6FA07469E48B0F9000096
:100EB00009F080FA834694480168584609F0DAFA46
:100EC0008146994801689948006809F0D3FA03906F
:100ED000974801688D48006809F0CCFA019088486D
:100EE000006880F0004B93480168584609F0C2FA48
:100EF0000090019909F0BCFB0290039909F0BAF83F
:100F00008246494609F0B4FB8046394609F0B0FBF9
:100F10000646294609F0AEF8044609F00FFA00B279
:100F2000734908807C48B0F9000009F043FA07468D
:100F30007A480168384609F09DFA05467848B0F9C4
:100F4000000009F037FA814672480168484609F006
:100F500091FA07467348B0F9000009F02BFA83466E
:100F600069480168584609F085FA81466E4801686B
:100F70006E48006809F07EFA03906D480168634886
:100F8000006809F077FA02905D48006880F0004040
:100F9000009068480168009809F06CFA0190029985
:100FA00009F068F88346039909F062FB82464946D6
:100FB00009F05EFB8046394609F05CF80646294692
:100FC00009F056FB044609F0B9F900B24949088016
:100FD0005148B0F9000009F0EDF907464F480168A3
:100FE000384609F047FA05464D48B0F9000009F0C7
:100FF000E1F9814647480168484609F03BFA07464F
:101000004848B0F9000009F0D5F983463E48016828
:10101000584609F02FFA8146434801684348006862
:1010200009F028FA0390424801683848006809F03E
:1010300021FA02903F4801683148006809F01AFA25
:101040000190029909F014FB8346039909F010FB03
:101050008246494609F00EF88046394609F008FBF9
:101060000646294609F004FB044609F067F900B278
:10107000214908801D48B0F90000FFF75DFE1B49BB
:1010800008801B48B0F90000FFF756FE1849088099
:101090001848B0F90000FFF74FFE164908801648BF
:1010A000B0F90000FFF748FE13490880BDE8FF9F34
:1010B00010B50E49B1F9001049420D4AB2F90020AD
:1010C00011440C4AB2F9002011440B4AB2F9002035
:1010D000881A09F06FF9184908600449B1F900103D
:1010E0004942034A2AE00000340400408E000020F8
:1010F000900000209200002094000020D4FEFFFF0A
:10110000C00000201001002028010020C4000020A1
:10111000140100202C010020DC0000203001002000
:10112000DA000020D800002024010020C8000020A0
:10113000200100201C01002098000020B2F90020AE
:1011400011443B4AB2F90020891A3A4AB2F9002008
:10115000881809F02FF9384908603849B1F90010AA
:101160004942374AB2F90020891A314AB2F90020BF
:101170001144304AB2F90020881809F01BF93149AE
:10118000086010BD70B50021002200232E4C248879
:101190002E4D2D88641B24B22D4D2E4E367825F809
:1011A00016402D4C24882D4D2D88641B24B22C4DC7
:1011B000284E367825F816402A4C24882A4D2D884A
:1011C000641B25B2294C234E367824F81650002093
:1011D0000DE01F4C34F910402144214C34F91040EB
:1011E0002244224C34F910402344441CE0B2062827
:1011F000EFDB062491FBF4F424B21D4D2C80062471
:1012000092FBF4F424B21B4D2C80062493FBF4F4DF
:1012100024B2194D2C800F4C2478641C0D4D2C7079
:101220002C462478062C01D100242C7070BD0000BF
:1012300092000020940000209C0000208E000020DE
:1012400090000020A00000202E000020360000208A
:101250007C020020340100203000002038000020F3
:1012600088020020320000203A0000209402002072
:10127000D8000020DA000020DC0000207FB5054601
:101280000C460121082005F06AFAADF80850ADF8C7
:1012900004400020ADF80A00ADF8060001A9EA48B4
:1012A00005F01AFE01221146E74806F08CF93220BB
:1012B0008DF8000001208DF8010000208DF802005B
:1012C00001208DF80300684605F0A9FC0121DE48E5
:1012D00006F05EF97FBD10B50121DB4806F021FC68
:1012E00040B10121D84806F02DFCD8480068401CC8
:1012F000D649086010BD30B585B005460C460121C1
:10130000042005F02CFA0121082005F01BFA4FF407
:101310007070ADF8100028208DF8130004A9CC4897
:1013200004F054FF4FF47071C94804F0FEFFADF8AB
:101330000850ADF804400020ADF80A00ADF80600F2
:1013400001A9C44805F0C8FD0020C34908804880B1
:10135000012088800020C8800881BE4806F04FF830
:101360000420BD490880002048800120888000209A
:10137000C8800881B74806F042F80820B6490880BE
:1013800000204880012088800020C8800881B14862
:1013900006F035F80C20B049088000204880012074
:1013A00088800020C8800881AA4806F028F81E20FE
:1013B0008DF8000000208DF801008DF8020001205A
:1013C0008DF80300684605F02AFC01221E21A14881
:1013D00006F0F9F801219F4806F0DAF805B030BDB3
:1013E00010B59E48007800F08000002846D1022108
:1013F000984806F096FB002840D00221954806F058
:10140000A1FB9648007800F0400040B3914806F0F8
:1014100069FB9349088008460088924909888842F8
:1014200004DA4FF6FF709049086002E000208E4910
:1014300008608B4800888B490988401A8A490968E6
:1014400008448A49086008460088894908800020C5
:101450008249087000217F4806F04CFA0EE07D4872
:1014600006F040FB7F4908807C48007840F040004F
:101470007A4908700221774806F03CFA7D480078E6
:1014800000F08000002846D10421724806F049FB94
:10149000002840D004216F4806F054FB75480078BE
:1014A00000F0400040B36B4806F01FFB7249088013
:1014B0000846008871490988884204DA4FF6FF70AF
:1014C0006F49086002E000206D4908606A480088A2
:1014D0006A490988401A6A490968084469490860E4
:1014E0000846008868490880002062490870002189
:1014F000584806F011FA0EE0564806F0F6FA5F4931
:1015000008805C48007840F040005A490870022189
:10151000504806F001FA5D48007800F0800000288D
:1015200045D108214B4806F0FCFA80B30821494810
:1015300006F008FB5548007800F0400040B34548ED
:1015400006F0D6FA524908800846008851490988B1
:10155000884204DA4FF6FF704F49086002E000202D
:101560004D4908604A4800884A490988401A4A4952
:1015700009680844494908600846008848490880C5
:101580000020424908700021324806F0DFF90EE0E1
:10159000304806F0ADFA3F4908803C48007840F0FA
:1015A00040003A49087002212A4806F0CFF93D4828
:1015B000007800F08000A8BB1021264806F0B1FAA0
:1015C00080B31021234806F0BDFA3648007800F0B9
:1015D000400040B31F4806F08EFA334908800846A1
:1015E000008832490988884204DA4FF6FF70304992
:1015F000086002E000202E4908602B4800882B4933
:101600000988401A2A49096808442A490860084696
:1016100000882949088000202249087000210D48CF
:1016200006F0AEF90EE00B4806F065FA1F49088097
:101630001C48007840F040001A4908700221054813
:1016400006F09EF910BD0000000C004000000020D4
:10165000000C014000080040A002002038010020DA
:101660003C0100203A0100206001002050010020D0
:10167000700100203E0100204201002040010020B6
:101680006401002054010020720100204401002068
:101690004801002046010020680100205801002078
:1016A000740100204A0100204E0100204C0100205E
:1016B0006C0100205C0100207601002070B5054619
:1016C0000C4645F2555005F013FB284605F013FB78
:1016D000204605F013FB05F014FB05F017FB70BD69
:1016E00010B505F00EFB10BD08B500208DF8000008
:1016F00002208DF8010003208DF80200684605F0F5
:101700008EFA08BD70B506460C4615460121C80282
:1017100005F025F8284606F024FA204606F02AFAB5
:10172000304606F042FA06F04BFAFFF7DDFF06F00E
:1017300032FA70BD10B50446204606F036FA10BDE8
:1017400010B57F2006F02BFA06F03AFA10BD000023
:1017500030B589B005460C460121022004F0FFFF98
:101760000121112004F0EEFF0121294804F0FFFDC2
:101770004FF47070ADF8200018208DF8230003207E
:101780008DF8220008A9234804F020FDADF8185078
:10179000ADF814400020ADF81A00ADF8160005A908
:1017A0001D4805F099FB6020ADF804000120ADF85C
:1017B00006000020ADF80A00ADF80C0001A916489B
:1017C00005F0C7FB0821144806F012F801A91248D9
:1017D00005F001FC0821104806F013F801A90E4895
:1017E00005F046FC08210C4806F018F801A90A4843
:1017F00005F089FC0821084806F019F8012106487F
:1018000005F0C6FF0121044805F0C2FE09B030BD55
:10181000000C1A0000100140000400402DE9F05FA8
:1018200006460825A946EE48046800274FF0000840
:10183000EC4840F8246014E0284608F0BBFD8346DD
:10184000E84850F82410584608F014FE82464146F5
:1018500008F010FC80462F446D1E641C082C00DB31
:1018600000245FEA0900A9F10109E5D1DC4800681C
:10187000401CDB49086008460068082801DB00209E
:101880000860384608F096FD82465146404608F00A
:101890005FFCBDE8F09F10B500F0F4F9EE2000F019
:1018A000A9FA00F034FA1E2000F0A4FA00F02FFA92
:1018B00000F00CFA10BD70B5012430E000F0E2F940
:1018C000EE2000F097FA00F022FAA02101EB44018B
:1018D000C8B200F08FFA00F01AFA00F0F7F905200C
:1018E00004F07BF900F0CEF9EF2000F083FA01203C
:1018F00004F073F900F00BFA012000F0AAFA054693
:10190000012004F06AF9002000F0A3FA064600F076
:10191000DDF946EA0520B44921F81400641C062CC0
:10192000CCDDB148008808B9012070BD0020FCE77B
:1019300038B50446002500F0A5F9EE2000F05AFA6B
:1019400000F0E5F9204600F055FA00F0E0F900F06B
:10195000BDF9082004F065F900F094F9EE2000F0DC
:1019600049FA00F0D4F9002000F044FA00F0CFF971
:1019700000F0ACF900F086F9EF2000F03BFA00F03F
:10198000C6F9012000F065FA8DF80000012000F092
:1019900060FA8DF80100002000F05BFA8DF802007B
:1019A00000F094F99DF8000001049DF8010001EB9E
:1019B00000209DF802104518284638BD10B5582063
:1019C000FFF7B6FF89490860874840890968A1EB9D
:1019D00000208749086084488089096848434FF49B
:1019E000FA6101EBD0508349086010BD2DE9FC5F1E
:1019F0004820FFF79DFF804908607B4989880A04D9
:101A0000794909897A4B1B68594302EBD11007F0D9
:101A1000A6FF7A4A03C274484088C1037248C0884E
:101A2000734A1268504301EB10200021744A03C22C
:101A300070480068B0F5FA6F40DA6D4800684043BE
:101A4000C00F704908606B49096801FB01F008F09C
:101A5000B1FC6D490860084601686C4808F00AFD51
:101A6000044608F07BFE6A4A03C267480168694879
:101A700008F000FD044608F071FE674A03C25D48A5
:101A8000006866490968401A5A490860604903C9F4
:101A900007F014FF044659480CC8204608F0E2F845
:101AA000564A03C25648D0E900105B4AD2E90032D8
:101AB000C91A60EB0200524AC2E900104E480068A1
:101AC00000234F4AD2E9001CA0FB016E03FB01E199
:101AD00000FB0C114FF40012304606F07CF88046F3
:101AE00007F0ECFE044645480CC8204608F0ACF967
:101AF000824600224A4B07F015FDCDE9000107F0B0
:101B000099FE484908600846006808F06BFC4649A1
:101B10000860BDE8FC9F2DE9F04F85B000200490DF
:101B200000214248006808F0D5FB30D140480088C9
:101B3000322813DD3E48008807F011FF0646324682
:101B40000B463C4903C907F0EDFC044607F0FCFBDB
:101B5000364908600120384908700BE032480068B7
:101B600008F05CFA044633480CC8204607F01EFC17
:101B7000304A03C22E480088401C2D4908800020AE
:101B80002E4908600846006805B0BDE8F08F274878
:101B900001682548006808F0DBFA019008F03EFA79
:101BA0004FF00052264BCDE9020106F0CBFE8046F5
:101BB0000022244B08F056F806460022224B07F07C
:101BC0001DFF04464FF08042204B07F017FF82466E
:101BD00007F0BAFB1949086008460068D4E700001E
:101BE000EC01002034030020AC020020880100201A
:101BF0008C01002090010020840100207801002049
:101C0000A0010020B8010020800100200000204039
:101C1000C00100200000A03FC8010020BC0100203E
:101C20000000E040AC010020E8010020D0010020CD
:101C3000E0010020D8010020E2010020F001002096
:101C4000C05BC83F0000F03F1AE95041E17A843F91
:101C500008B50121042004F075FD4FF4C050ADF823
:101C6000000010208DF8030003208DF80200694663
:101C7000914804F0ABFA0120904908609049C1F8FE
:101C8000AC0108BD10B58C48001D006820F4704000
:101C90008949091D08600846006840F44050086002
:101CA00001208649091F08608549C1F8B001042058
:101CB00003F093FF00208149091F0860042003F00E
:101CC0008CFF00207E49C1F8B00110BD10B57A48E4
:101CD000001D006820F470407749091D086008461F
:101CE000006840F44050086000207449086074495E
:101CF000C1F8AC01042003F070FF01206F490860B7
:101D00006F49C1F8AC01042003F067FF10BD10B5A6
:101D100000246948001D006820F470406649091DD0
:101D200008600846006840F40040086001206349EC
:101D3000091F086003F051FF01206149C1F8B0019B
:101D400003F04BFF07E0601CC4B2FA2C03DDFFF781
:101D5000BDFF012010BD5948843800680028F2D129
:101D60005649086000BFF5E710B5002053490860E8
:101D70005148001D006820F470404F49091D08605B
:101D80000846006840F44050086000204C49C1F803
:101D9000AC01022003F021FF012048490860022025
:101DA00003F01BFF00204649C1F8B00110BD10B57B
:101DB0000020424908604048001D006820F470403F
:101DC0003D49091D08600846006840F4405008601D
:101DD00001203B49C1F8AC01022003F0FEFE0120C6
:101DE00036490860022003F0F8FE00203449C1F8AB
:101DF000B00110BD70B504462F48001D006820F4E6
:101E000070402D49091D08600846006840F44050A4
:101E10000860002029490860002517E0E0092749EB
:101E2000091F08606006040E022003F0D6FE0120A0
:101E30002349C1F8B001022003F0CFFE00201F4962
:101E40000860022003F0C9FE681CC5B2082DE5DB5E
:101E500070BD70B5054600241748001D006820F4C9
:101E600070401549091D08600846006840F40040AC
:101E70000860002616E0002010490860022003F0E8
:101E8000ACFE01200E49C1F8B0016006040E0B48FB
:101E90008438006808B1601CC4B2012003F09DFEC4
:101EA000701CC6B2082EE6DB15B9FFF780FF01E013
:101EB000FFF75AFF204670BD00080140B0012142E3
:101EC0000000214270B505460C4600F0CDF9D02047
:101ED00000F074FA00F005FA18B100F0E3F90120FF
:101EE00070BD284600F06AFA00F0FBF9204600F0C9
:101EF00065FA00F0F6F918B100F0D4F90120EFE727
:101F000000F0D0F90020EBE770B504460025BC2CAA
:101F100001DB012510E0622C01DB02250CE02A2CFC
:101F200001DB032508E0142C01DB042504E00A2C66
:101F300001DB052500E0062529461A20FFF7C2FF30
:101F400070BD70B50446B4F57A7F01DD4FF47A7444
:101F5000042C00DA04244FF47A7090FBF4F0401E55
:101F6000C5B229461920FFF7ADFF0546264604EB0A
:101F7000D671C1F34F00FFF7C7FF70BD70B50446BF
:101F800000F072F9D02000F019FA00F0AAF920460A
:101F900000F014FA00F0A5F900F066F9D12000F085
:101FA0000DFA00F09EF9002000F031FA054600F02D
:101FB00079F9284670BD10B50446E006010E1C20D4
:101FC000FFF780FF10BD10B50446E006010E1B2090
:101FD000FFF778FF10BD10B500F02DF980216B20C0
:101FE000FFF770FF642003F01CFE00216B20FFF759
:101FF00069FF0320FFF7E7FF0020FFF7DCFF322037
:10200000FFF79FFF00213820FFF75CFF00216A20C7
:10201000FFF758FF00212320FFF754FF80213720CE
:10202000FFF750FF7520FFF7A9FF0446682C0BD17E
:1020300001216B20FFF746FF00216C20FFF742FFD4
:102040003220FFF77EFF01E0012010BD0020FCE7F9
:102050002DE9F04106460F4614461D4600F004F9EE
:10206000002141EA4601C8B200F0A8F900F039F9B0
:1020700020B100F017F90120BDE8F081384600F0EA
:102080009DF900F02EF900F0EFF8012101EB460177
:10209000C8B200F093F900F024F90DE0012C04D14E
:1020A000002000F0B4F9287003E0012000F0AFF93F
:1020B0002870601EC4B26D1C002CEFD100F0F2F845
:1020C0000020D9E72DE9F84F6B4602224121682014
:1020D000FFF7BEFF9DF801009DF8001040EA0120C7
:1020E0000FFA80FA504607F0D2FB804600224B4B95
:1020F00007F018FA06464A4A4A4B07F057F90446D1
:1021000007F022F983464849584608F0B3F90446D7
:1021100008F014F900B2BDE8F88F2DE9FC4104463F
:102120000D4616466B46062243216820FFF790FFB6
:102130000746BFB99DF801009DF8001040EA012054
:1021400000B220809DF803009DF8021040EA0120B3
:1021500000B228809DF805009DF8041040EA012097
:1021600000B230803846BDE8FC812DE9FC410446D0
:102170000D4616466B4606223B216820FFF768FF96
:102180000746BFB99DF801009DF8001040EA012004
:1021900000B220809DF803009DF8021040EA012063
:1021A00000B228809DF805009DF8041040EA012047
:1021B00000B230803846BDE8FC812DE9F04105468B
:1021C0000E461746984600F04FF8002141EA4501B7
:1021D000C8B200F0F3F800F084F820B100F062F823
:1021E0000120BDE8F081304600F0E8F800F079F811
:1021F00000240CE018F8040000F0E0F800F071F89A
:1022000018B100F04FF80120EBE7601CC4B2BC42EB
:10221000F0DB00F047F80020E3E7000000407540E5
:10222000A4703D0AD74342400000C84210B50220C6
:1022300003F0D3FC10BD08B50121102004F082FA90
:102240004FF4C050ADF8000010208DF803000320BB
:102250008DF802006946864803F0B8FF4FF4C0517C
:10226000834804F060F808BD10B58148406820F448
:1022700070407F4948600846406840F440504860DC
:1022800001207C4908607C49C1F8B001FFF7CEFF0E
:10229000002078490860FFF7C9FF00207649C1F89F
:1022A000B00110BD10B57248406820F4704070490C
:1022B00048600846406840F44050486000206D493E
:1022C000091D08606C49C1F8AC01FFF7AFFF0120A0
:1022D0006849091D08606849C1F8AC01FFF7A6FF0D
:1022E00010BD10B500246248406820F47040604979
:1022F00048600846406840F40040486001205D495D
:102300000860FFF793FF01205B49C1F8B001FFF7B8
:102310008DFF07E0601CC4B2FA2C03DDFFF7C2FF9B
:10232000012010BD5348803800680028F2D151497F
:10233000091D086000BFF4E710B500204D49091DD4
:1023400008604B48406820F470404949486008469E
:10235000406840F44050486000204749C1F8AC0153
:10236000FFF764FF01204349091D0860FFF75EFF86
:1023700000204149C1F8B00110BD10B500203D4911
:10238000091D08603A48406820F4704038494860A8
:102390000846406840F44050486001203649C1F882
:1023A000AC01FFF743FF01203249091D0860FFF728
:1023B0003DFF00203049C1F8B00110BD70B50446A2
:1023C0002B48406820F4704029494860084640681E
:1023D00040F44050486000202649091D086000254F
:1023E00012E0E009234908606006040E012022493A
:1023F000C1F8B001FFF71AFF00201E49091D08604F
:10240000FFF714FF681CC5B2082DEADB70BD70B57C
:10241000054600241648406820F47040144948607E
:102420000846406840F400404860002615E000205F
:102430001049091D0860FFF7F9FE01200E49C1F897
:10244000B0016006040E0B488038006808B1601CBB
:10245000C4B2FFF7EBFE701CC6B2082EE7DB15B95D
:10246000FFF78BFF01E0FFF767FF204670BD00001C
:1024700000100140AC0122420000224238B504465F
:10248000F74890F82400C0B114B10220009001E098
:1024900000200090F24A1268D17BF14A526810780D
:1024A0006B460122FFF789FE10B14FF0FF3038BDB7
:1024B0009DF80010EA48417423E0E948807A10B999
:1024C0004FF0FF30F3E724B1E548407C08B100202D
:1024D000EDE714B10120009001E000200090E04AF7
:1024E0001268D17BDE4A526810786B460122FFF7F2
:1024F00064FE10B14FF0FF30D9E79DF80010D848C6
:1025000041740020D3E738B500241FE0D4480068A8
:10251000C07AA04204D0D2480068407DA04200D1D9
:1025200012E0CF49496808786B4601222146FFF73F
:102530008FFD10B14FF0FF3038BD9DF800202146CF
:10254000C8A005F06DFB00BF601CC4B2C448406861
:102550000079A042DADC0020EEE770B504460D46B3
:10256000BF480068C07AA04204D0BD480068407DE2
:10257000A04202D14FF0FF3070BDB94840680079E9
:10258000A04202DC4FF0FF30F6E7B5494968087811
:102590002B4601222146FFF75BFDEDE738B50446E7
:1025A000AF4890F82300A04201D1002038BD14B1FB
:1025B0003020009001E000200090A948807C20B1EC
:1025C0009DF8000040F002000090A54890F822001D
:1025D00020B19DF8000040F080000090A04A1268F1
:1025E000117D9F4A526810786B460122FFF7E5FD86
:1025F00010B14FF0FF30D9E7994880F82340002010
:10260000D4E738B5044604F0700010B10120009002
:1026100005E014B10020009001E040200090904AB5
:102620001268917C8E4A526810786B460122FFF73F
:10263000C4FD20B100218A488172481E38BD9DF832
:10264000000020F04001864801730020009004F053
:10265000400020B99DF8000040F00400009004F014
:10266000200020B99DF8000040F00200009004F026
:10267000100020B99DF8000040F00100009004F027
:10268000080020B99DF8000040F038000090744A1E
:102690001268D17C724A526810786B460122FFF7AB
:1026A0008CFD20B100216E488172481EC6E724B11E
:1026B000082C02D00020FFF771FF694884720021C6
:1026C0000175322003F0ADFA0020B7E738B50446B3
:1026D0006348807CA04201D1002038BD002C46D048
:1026E0005F4A126811795E4A526810786B4601227F
:1026F000FFF7AEFC10B14FF0FF30EEE79DF80000A1
:1027000020F020000090564A12681179544A52680D
:1027100010786B460122FFF750FD10B14FF0FF30EB
:10272000DBE7032003F07DFA022000904C4890F88C
:10273000220020B19DF8000040F080000090484841
:1027400090F8230020B19DF8000040F03000009088
:10275000434A1268117D424A526810786B46012242
:10276000FFF72BFD002851D04FF0FF30B5E73C4A72
:10277000126811793A4A526810786B460122FFF7C5
:1027800067FC10B14FF0FF30A7E73548807A00F0C2
:10279000010028B19DF8000040F02000009004E006
:1027A0009DF8000020F0200000902D4A1268117959
:1027B0002B4A526810786B460122FFF7FEFC10B1DD
:1027C0004FF0FF3089E7032003F02BFA244890F8FC
:1027D000220010B18020009001E0002000902048ED
:1027E00090F8230020B19DF8000040F030000090E8
:1027F0001B4A1268117D1A4A526810786B460122F2
:10280000FFF7DBFC10B14FF0FF3066E7144884742B
:10281000002062E708B51248807A10B94FF0FF3007
:1028200008BD002000900E4A1268D17B0C4A526805
:1028300010786B460122FFF7C0FC10B14FF0FF305B
:10284000EEE7074A12685179054A526810786B46DC
:102850000122FFF7B2FC68B14FF0FF30E0E7000063
:10286000FC010020252335783A20252335780D0AF0
:1028700000000000FB4A12681179FA4A5268107889
:102880006B460122FFF799FC10B14FF0FF30C7E70C
:10289000F44890F82400002850D00C200090F14A11
:1028A00012681179EF4A526810786B460122FFF7DF
:1028B00084FC10B14FF0FF30B2E7C0200090E9482F
:1028C000807A00F0010020B19DF8000040F0200067
:1028D0000090E44A12681179E24A526810786B4617
:1028E0000122FFF76AFC10B14FF0FF3098E7DD4896
:1028F000407C10B10220009001E000200090D94AF5
:102900001268D17BD74A526810786B460122FFF7D4
:1029100054FC10B14FF0FF3082E700200090D14A04
:1029200012685179CF4A526810786B460122FFF73E
:1029300044FC002855D04FF0FF3071E70420009090
:10294000C84A12681179C74A526810786B4601224A
:10295000FFF733FC10B14FF0FF3061E7C148807CD6
:1029600020B9C048807A00F0010010B940200090E2
:1029700001E060200090BB4A12681179B94A5268A0
:1029800010786B460122FFF718FC10B14FF0FF30B2
:1029900046E7322003F045F9B248407C10B10120EF
:1029A000009001E000200090AE4A1268D17BAD4A51
:1029B000526810786B460122FFF7FFFB10B14FF011
:1029C000FF302DE7A74A12685179A64A526810785D
:1029D000A44B10330122FFF7F0FB10B14FF0FF3092
:1029E0001EE700201CE770B50446002624F0010411
:1029F0009C4890F8240008B1002070BD9948807A66
:102A000010B94FF0FF30F8E79648057C807A2040F7
:102A1000944908740846007CA04202D04FF0FF366B
:102A200000E0002614B98F48007D18B10120FFF79F
:102A300025FD02E00020FFF721FD3CB1FFF7EAFE93
:102A400020B1884805744FF0FF30D6E73046D4E710
:102A500038B504468348807A10B94FF0FF3038BD4E
:102A6000BC2C02DB0120009015E0622C02DB02206E
:102A7000009010E02A2C02DB032000900BE0142CC5
:102A800002DB0420009006E00A2C02DB0520009007
:102A900001E0062000907348C07A9DF8001088423B
:102AA00001D10020DBE76F4A126891786D4A5268C5
:102AB00010786B460122FFF780FB10B14FF0FF301A
:102AC000CDE79DF800106748C1720020C7E738B510
:102AD0000446282C02DD4FF0FF3038BDDCB9002061
:102AE000FFF75CFD00208DF8000007208DF8010045
:102AF0005C4A1268917C5B4A526810786B460222ED
:102B0000FFF75BFB10B14FF0FF30E6E700215548BF
:102B100001750020E1E70120FFF740FD20208DF83E
:102B20000000012C06D100208DF801000520FFF7E0
:102B30008FFF17E0052C06DC01208DF80100052031
:102B4000FFF786FF0EE0142C06DC02208DF8010052
:102B50000A20FFF77DFF05E003208DF80100142017
:102B6000FFF776FF9DF80100072101EB8010C0B24E
:102B70008DF801003B4A1268917C3A4A52681078FD
:102B80006B460222FFF719FB10B14FF0FF30A4E7AC
:102B90000821344881720021017301210175002050
:102BA000FFF721FF002098E738B504462D48807ACA
:102BB00010B94FF0FF3038BD2A4890F8240010B10A
:102BC0004FF0FF30F7E72748007D50B134B1282C93
:102BD00004DCE0B2FFF77BFF0020ECE70020FFF70A
:102BE00076FF042C01DA042404E0B4F57A7F01DDD9
:102BF0004FF47A744FF47A7090FBF4F0401EC0B238
:102C00000090184A12685178164A526810786B463C
:102C10000122FFF7D2FA10B14FF0FF30CBE79DF859
:102C20000000401C4FF47A7191FBF0F081B20D4826
:102C3000C1810146C9894810FFF70AFF0020BAE7A1
:102C400038B504460748807A10B94FF0FF3038BDD8
:102C5000022C09D0042C0AD0082C0BD0102C0FD138
:102C60000BE00000FC010020002000900BE0082099
:102C7000009008E01020009005E01820009002E08D
:102C80004FF0FF30E3E700BFF848407A9DF80010AE
:102C9000B0EBE10F01D10020D9E7F44A1268D179F5
:102CA000F24A526810786B460122FFF786FA10B19B
:102CB0004FF0FF30CBE79DF80000C110EB484172A8
:102CC0000020C4E738B50446E848807A10B94FF0D0
:102CD000FF3038BDFA2C09D0B4F5FA7F09D0B4F52D
:102CE0007A7F09D0B4F5FA6F0CD108E0002000908B
:102CF0000BE00820009008E01020009005E018206C
:102D0000009002E04FF0FF30E3E700BFD748007AC1
:102D10009DF80010B0EBE10F01D10020D9E7D34AB4
:102D200012689179D14A526810786B460122FFF7F8
:102D300044FA10B14FF0FF30CBE79DF80000C0100F
:102D4000CA4908720020C4E71CB580208DF8000035
:102D5000C64A1268917CC54A526810786B460122B7
:102D6000FFF72BFA10B14FF0FF301CBD642002F0CA
:102D700058FF00208DF80000BC4A1268917CBB4AC5
:102D8000526810786B460122FFF717FA10B14FF026
:102D9000FF30EAE7B54A1268917DB44A526810786C
:102DA0006B460622FFF754F910B14FF0FF30DCE715
:102DB0009DF80500C007400F9DF8031001F00101C8
:102DC00040EA41009DF8011001F0010140EA0104D0
:102DD00094B1012C03D10121A448C17431E0022C2B
:102DE00003D10021A148C1742BE02146A0A004F02A
:102DF00017FF4FF0FF30B8E79C4A1268D1789B4A22
:102E0000526810786B460122FFF722F910B14FF09B
:102E1000FF30AAE79DF8000000F00F042CB99E488F
:102E200004F0FEFE4FF0FF309FE7042C06D19BA07C
:102E300004F0F6FE01218D48C17402E000218B48A8
:102E4000C174FF2189488172FF2088490872FF21DF
:102E500086484172C1724FF6FF71C181FF21017432
:102E600081740121017380F82210002180F8231061
:102E7000417501751630016041608160163880F837
:102E8000241080F82510C1844FF4FA60FFF71AFF70
:102E900010B14FF0FF3068E70220FFF7D1FE10B10C
:102EA0004FF0FF3061E72A20FFF7D2FD10B14FF05D
:102EB000FF305AE73220FFF777FE10B14FF0FF30B6
:102EC00053E70020FFF78FFD10B14FF0FF304CE7C4
:102ED0000020FFF7FBFB10B14FF0FF3045E700206B
:102EE000FFF78FFB002040E770477CB504460D4696
:102EF0005E48807A00F0700010B94FF0FF307CBD62
:102F00005A4A1268117B594A526810786B46062259
:102F1000FFF79EF810B14FF0FF30F0E79DF8010089
:102F20009DF8001040EA012000B220809DF80300C7
:102F30009DF8021040EA012000B260809DF8050073
:102F40009DF8041040EA012000B2A08015B1284687
:102F5000FFF7CAFF0020D2E77CB504460D46434880
:102F6000807A00F0080010B94FF0FF307CBD3F4A76
:102F70001268517B3D4A526810786B460622FFF773
:102F800067F810B14FF0FF30F0E79DF801009DF8B1
:102F9000001040EA012000B220809DF803009DF857
:102FA000021040EA012000B260809DF805009DF803
:102FB000041040EA012000B2A08015B12846FFF7B6
:102FC00093FF0020D2E72DE9FE4F05460C46274827
:102FD000807A18B94FF0FF30BDE8FE8F234A12689F
:102FE000917B224A5268107802AB0222FFF730F838
:102FF00010B14FF0FF30EFE79DF809009DF8081081
:1030000040EA012006B214B12046FFF76DFF1749D0
:103010004968C88807F0E6F9144901904968B1F990
:10302000080007F0C7F98346304607F0C3F9594650
:10303000009007F01DFB8246019907F089F8814650
:103040001E4907F017F880464FF08F4107F012FA3B
:10305000074607F073F928600020BDE710B588B077
:1030600004466CBB4FF0FF3008B010BDFC010020DF
:10307000556E737570706F7274656420736F6674CB
:10308000776172652070726F647563742072657603
:103090002025642E0A000000D0B6000848616C6646
:1030A0002073656E736974697669747920706172D2
:1030B0007420666F756E642E0A00000000000C42DA
:1030C000FFE7206830B9606820B9A06810B9002017
:1030D00008B010BDFA494968087806AB03221146CA
:1030E000FEF7B6FF10B14FF0FF30F1E79DF8180082
:1030F000082101EB201000F00F00ADF800009DF852
:10310000190001EB201000F00F00ADF802009DF84F
:103110001A0001EB201000F00F00ADF80400206849
:103120004100BDF90000403091FBF0F000B2ADF875
:10313000100060684100BDF90200403091FBF0F0E2
:1031400000B2ADF81200A0684100BDF904004030A3
:1031500091FBF0F000B2ADF81400D9494968087845
:1031600006AB06221146FEF773FF10B14FF0FF3099
:10317000AEE79DF819009DF8181040EA012000B252
:10318000ADF808009DF81B009DF81A1040EA0120D8
:1031900000B2ADF80A009DF81D009DF81C1040EA31
:1031A000012000B2ADF80C00BDF81000BDF8081009
:1031B000084400B2ADF81000BDF81200BDF80A10C6
:1031C000084400B2ADF81200BDF81400BDF80C10B0
:1031D000084400B2ADF81400BDF81000000A8DF8E4
:1031E0001800BDF81000C0B28DF81900BDF812002B
:1031F000000A8DF81A00BDF81200C0B28DF81B004D
:10320000BDF81400000A8DF81C00BDF81400C0B20F
:103210008DF81D00AA494968087806AB06221146B8
:10322000FEF7CBFF10B14FF0FF3051E700204FE722
:103230000146A348007A30B1012807D0022809D0FE
:1032400003280FD10AE0FA2008800EE04FF4FA704C
:1032500008800AE04FF47A70088006E04FF4FA60C4
:10326000088002E00020088000BF00BF00207047F7
:1032700001469348407A30B1012807D0022808D08F
:1032800003280CD108E0022008700BE0042008702D
:1032900008E00820087005E01020087002E04FF0F8
:1032A000FF30704700BF8648C07C18B108784006E0
:1032B000000E08700020F4E701468148C07A082813
:1032C00017D2DFE800F01704070A0D101318BC200E
:1032D000088013E06220088010E02A2008800DE0BA
:1032E000142008800AE00A20088007E005200880F2
:1032F00004E000BF00BF0020088000BF00BF002026
:10330000704701466E4890F8240010B14FF0FF302E
:1033100070476B48C08908800020F9E7014600200B
:103320000880401E704701464FF0FF30704701464D
:103330006348007A30B1012807D0022808D003285A
:103340000CD108E05F4808600BE05F48086008E0C7
:103350005E48086005E05E48086002E04FF0FF301C
:10336000704700BF0020FBE701465548407A30B166
:10337000012808D002280AD0032810D10BE04FF40E
:10338000804008800EE041F69C7008800AE04FF40F
:103390008050088006E04FF40060088002E04FF0A3
:1033A000FF30704700BF4648C07C10B1088840100D
:1033B00008800020F5E701464148007C08700020A5
:1033C000704701463E48807A10B10120087001E044
:1033D000002008700020704738B504463848807ACD
:1033E00010B94FF0FF3038BD354A1268117C344AAD
:1033F000526810786B460222FEF72AFE10B14FF099
:10340000FF30F0E79DF801009DF8001040EA012030
:1034100000B220800020E6E72DE9FE4F07468846EF
:1034200092461D46DDF830B000260024244890F86E
:10343000240010B1601EBDE8FE8F002028702048D7
:10344000807A10B94FF0FF30F5E71D48007C10B9C5
:103450004FF0FF30EFE71A48007C00F0400008B161
:10346000B01CC6B21648007C00F0200008B1B01CA9
:10347000C6B21348007C00F0100008B1B01CC6B200
:103480000F48007C00F0080008B1B01DC6B20C4A1D
:103490001268917A0A4A526810786B460222FEF747
:1034A000D7FD10B14FF0FF30C5E79DF801009DF842
:1034B000001040EA0129B1450CDA0020BBE700000A
:1034C000FC01002000000343000083423333034229
:1034D00033338341FC4840684088B9EB600F17DD07
:1034E000F94A1268517CF84A526810786B460122FA
:1034F000FEF7AEFD10B14FF0FF309CE79DF80000E5
:1035000000F0100020B1FFF785F96FF0010092E79D
:103510005046FFF7E9FCEC4A1268D17AEA4A526851
:1035200010786B463246FEF793FD10B14FF0FF3036
:1035300081E799FBF6F0401E8BF800000020287010
:10354000B4422AD0E048007C00F0080028B3601C98
:103550001DF800001DF8041040EA012000B2A8F890
:103560000000E01C1DF80010A01C1DF8000041EA3E
:10357000002000B2A8F80200601D1DF80010201DF8
:103580001DF8000041EA002000B2A8F804002878E5
:1035900040F008002870A01D84B2B44213D0CA487D
:1035A000007C00F0400070B1601C1DF800001DF8A8
:1035B000041040EA012000B23880287840F0400032
:1035C0002870A01C84B2B44213D0BF48007C00F025
:1035D000200070B1601C1DF800001DF8041040EAC6
:1035E000012000B27880287840F020002870A01CCC
:1035F00084B2B44213D0B448007C00F0100070B123
:10360000601C1DF800001DF8041040EA012000B203
:10361000B880287840F010002870A01C84B20020E8
:1036200009E7F8B504460F461646A74890F8240067
:1036300010B94FF0FF30F8BDA348807A10B94FF0B1
:10364000FF30F8E7A04A1268917A9F4A52681078D2
:103650006B460222FEF7FCFC10B14FF0FF30EAE7A8
:103660009DF801009DF8001040EA0125A54203DA0B
:1036700000203070401EDEE7934840684088B5EB7C
:10368000600F17DD904A1268517C8F4A526810789B
:103690006B460122FEF7DCFC10B14FF0FF30CAE7A9
:1036A0009DF8000000F0100020B1FFF7B3F86FF0B4
:1036B0000100C0E7E2B2844B1B68D97A824B5B6899
:1036C00018783B46FEF7C4FC10B14FF0FF30B2E76C
:1036D00095FBF4F0401E30700020ACE701467A48BC
:1036E00080F82210002070477CB50546764949686D
:1036F000087801AB04220D21FEF7AAFC08B10720CF
:103700007CBD9DF80700C0F301109DF8041001F086
:10371000E00140EAE1008DF800009DF80700C0F3E9
:1037200081009DF8051001F0E00140EAE1008DF80C
:1037300001009DF8070000F003009DF8061001F05D
:10374000E00140EAE1008DF8020000241CE01DF8D1
:10375000040018B9002045F8240013E05B4845F840
:10376000240006E055F82400594906F083FE45F888
:1037700024001DF80400401EC0B20DF8040000280B
:10378000F0D100BF601CC4B2032CE0DB0020B7E71F
:103790002DE9FE4F06460F4600256846FFF7A4FFB9
:1037A000002442E056F8240057F82410A0EB010A48
:1037B000BAF1000F01DB514601E0CAF100010846F1
:1037C00006F0F8FD83464FF08F4106F0C1FC8046BD
:1037D0005DF82400002106F07DFD16D05DF8241070
:1037E000404606F0B5FC82464FF07E5106F040FFA1
:1037F000814629F0004A3748416A504606F006FFE4
:1038000012D20120A04005430EE03248C169404673
:1038100006F0FCFD05D32F48016A404606F0F6FE8F
:1038200002D20120A0400543641C032CBADB2846C9
:10383000BDE8FE8F2DE9FC5F06460F4600252249B4
:103840004968087801AB03220D21FEF701FC10B195
:103850000720BDE8FC9F9DF8040000F01F008DF8D4
:1038600004009DF8050000F01F008DF805009DF88C
:10387000060000F01F008DF80600002462E056F8F4
:10388000240057F82410A0EB010BBBF1000F01DB63
:10389000594601E0CBF10001084606F08BFD4FF0E0
:1038A0008F41009006F054FC814601A8005DC0B332
:1038B0000849086806F096FD83465946064806F012
:1038C00047FC80460FE00000FC0100207B14AE3E68
:1038D0001D5A843FFCA8000800B04C45FE494046F4
:1038E00006F0C8FD804601A8005D401EC0B201A9D7
:1038F00008550028F2D14146484606F029FC834687
:103900004FF07E5106F0B4FE82462AF0004BF34899
:103910008169584606F07AFE13D20120A040054383
:103920000FE0FFE7ED480169484606F06FFD05D35B
:10393000EA484169484606F069FE02D20120A040EB
:103940000543641C032C9ADB284682E72DE9F04FDF
:1039500087B005460C46914601208DF810000020E6
:103960008DF81100DE4A1268917CDD4A52681078A9
:1039700004AB0222FEF721FC20B14FF0FF3007B06C
:10398000BDE8F08FC82002F04CF900208DF810003F
:10399000D34A1268D17BD24A5268107804AB012214
:1039A000FEF70BFC10B14FF0FF30E8E7CC4A12688D
:1039B0005179CB4A5268107804AB0122FEF7FDFB27
:1039C00010B14FF0FF30DAE7C54A1268917CC44A63
:1039D0005268107804AB0122FEF7EFFB10B14FF0F4
:1039E000FF30CCE7BE4A1268D17DBD4A52681078DC
:1039F00004AB0122FEF7E1FB10B14FF0FF30BEE750
:103A0000B74A12681179B64A5268107804AB01229D
:103A1000FEF7D3FB10B14FF0FF30B0E70C208DF86C
:103A20001000AF4A12681179AD4A5268107804ABA1
:103A30000122FEF7C2FB10B14FF0FF309FE70F20CD
:103A400002F0EFF8A648806A407A8DF81000A44A88
:103A500012689178A24A5268107804AB0122FEF7EE
:103A6000ACFB10B14FF0FF3089E79D48806A007AC7
:103A70008DF810009A4A12685178994A5268107865
:103A800004AB0122FEF799FB10B14FF0FF3076E74F
:103A9000B9F1000F07D09248806A807A40F0E000C8
:103AA0008DF8100004E08E48806A807A8DF810004E
:103AB0008B4A126891798A4A5268107804AB0122C5
:103AC000FEF77BFB10B14FF0FF3058E7B9F1000F64
:103AD00007D08348806AC07A40F0E0008DF810007B
:103AE00003E07E48C07A8DF810007D4A1268D179D3
:103AF0007B4A5268107804AB0122FEF75EFB10B1DE
:103B00004FF0FF303BE7B9F1000F02D0C82002F0C0
:103B100088F840208DF81000714A12681179704AB7
:103B20005268107804AB0122FEF747FB10B14FF04A
:103B3000FF3024E778208DF81000694A1268517927
:103B4000674A5268107804AB0122FEF736FB10B1C9
:103B50004FF0FF3013E76149888902F062F80020D6
:103B60008DF810005E4A126851795D4A52681078EB
:103B700004AB0122FEF721FB10B14FF0FF30FEE64F
:103B8000574A1268917A564A5268107804AB02225A
:103B9000FEF75EFA10B14FF0FF30F0E69DF811002D
:103BA0009DF8101040EA012B0C209BFBF0F0C6B2F0
:103BB0000020A86068602860A06060602060824685
:103BC00065E0474A1268D17A454A5268107804ABDA
:103BD0000C22FEF73DFA10B14FF0FF30CFE69DF812
:103BE00011009DF8101040EA012000B2ADF8080065
:103BF0009DF813009DF8121040EA012000B2ADF8C4
:103C00000A009DF815009DF8141040EA012000B24A
:103C1000ADF80C00BDF90810206808442060BDF91B
:103C20000A10606808446060BDF90C10A068084480
:103C3000A0609DF817009DF8161040EA012000B220
:103C4000ADF800009DF819009DF8181040EA012019
:103C500000B2ADF802009DF81B009DF81A1040EA72
:103C6000012000B2ADF80400BDF900102868084436
:103C70002860BDF90210686808446860BDF9041046
:103C8000A8680844A8600AF1010000F0FF0AB245E4
:103C900097DB1248D0F800C02868C117090441EA30
:103CA0001041070462460023384603F094FF324671
:103CB0000023CDE9020103F08EFF28600748D0F809
:103CC00000C06868C117090441EA10410704624650
:103CD0000023384606E0000054E3853FFCA80008B6
:103CE000FC01002003F077FF32460023CDE90201FA
:103CF00003F071FF6860FE48D0F800C0A868C117E3
:103D0000090441EA1041070462460023384603F0E3
:103D100062FF32460023CDE9020103F05CFFA86098
:103D2000F348D0F804C02168C817000440EA1148DD
:103D30000F04624600233846414603F04CFF3246EA
:103D40000023CDE9020103F046FF2060E848D0F8E7
:103D500004C06068C117090441EA104107046246C3
:103D60000023384603F037FF32460023CDE9020135
:103D700003F031FF6060DE48D0F804C0A068C117CE
:103D8000090441EA1041070462460023384603F063
:103D900022FF32460023CDE9020103F01CFFA060A0
:103DA000A068002804DDA068A0F58030A06003E0D2
:103DB000A06800F58030A0600020E0E538B504463A
:103DC000CC4890F82400A04201D1002038BD24B393
:103DD000C84890F8250010B94FF0FF30F6E70020F2
:103DE000FEF74CFB0020FEF771FCC249C88CFEF7C1
:103DF000DBFE00200090BF49496808786B4601222D
:103E00002321FEF7DAF90121BA4880F824100120B5
:103E1000FEF734FBFEF7FEFC13E00020FEF72EFB5E
:103E2000B448007C0090B349496808786B46012289
:103E30002321FEF7C2F90021AE4880F82410FEF7D6
:103E4000E9FC0020C2E72DE9F04F8DB083460F4614
:103E500002200C90A74890F8240020B10020FFF722
:103E6000ADFF012600E0002603A8FFF7E1F905A851
:103E7000FFF7FEF901A8FFF71FFA02A8FFF741FAC2
:103E80009C4890F80AA004A8FFF795FA002407E0E0
:103E9000002239465846FFF759FD00B902E0641C7C
:103EA000022CF5DB00BF022C01D1002528E0002404
:103EB00007E0012206A909A8FFF748FD00B902E0C2
:103EC000641C022CF5DB00BF022C01D1002517E099
:103ED00006A93846FFF75CFC00F0FF0809A9584620
:103EE000FFF7A8FC00F0FF090025B9F1000F01D190
:103EF00045F00105B8F1000F01D145F0020500BF02
:103F0000FF207C490872FF217A484172C1724FF646
:103F1000FF71C181FF218172017401210173BDF81C
:103F20000C00FEF7CFFE9DF81400FEF789FEBDF8E9
:103F30000400FEF78DFDBDF80800FEF735FE504683
:103F4000FEF75FFB9DF81000FEF74DFD16B1012056
:103F5000FFF734FF28460DB0BDE8F08FF8B50446F2
:103F60000D46164616B94FF0FF30F8BD6148807A0D
:103F700010B94FF0FF30F8E720128DF80000E0B2E2
:103F80008DF801009DF8010028445A494968498983
:103F9000884202DD4FF0FF30E7E7564A1268117E93
:103FA000544A526810786B460222FEF706F910B1A7
:103FB0004FF0FF30D9E7EAB24E4B1B68597D4D4BAD
:103FC0005B6818783346FEF7F8F810B14FF0FF3011
:103FD000CBE70020C9E7F8B504460D46164616B9EA
:103FE0004FF0FF30F8BD4348807A10B94FF0FF30F2
:103FF000F8E720128DF80000E0B28DF801009DF87E
:10400000010028443B4949684989884202DD4FF054
:10401000FF30E7E7374A1268117E364A5268107857
:104020006B460222FEF7C9F810B14FF0FF30D9E716
:10403000EAB2304B1B68597D2E4B5B6818783346CB
:10404000FEF706F810B14FF0FF30CBE70020C9E7CC
:104050002DE9F04385B005460E4690469946254821
:1040600090F8250020B14FF0FF3005B0BDE8F08397
:1040700016B94FF0FF30F8E7002423E0281B102882
:1040800001DD102000E0281B87B232193946204696
:10409000FFF764FF10B14FF0FF30E6E701AA3946A1
:1040A0002046FFF798FF10B14FF0FF30DDE73019E1
:1040B0003A4601A903F0ECFE10B16FF00100D4E71D
:1040C000E01984B2AC42D9DB4FEA28208DF8000019
:1040D00008F0FF008DF80100064A1268917E054A3B
:1040E000526810786B460222FEF767F838B103E099
:1040F000FCA80008FC0100204FF0FF30B5E70121CB
:10410000FE4880F82510A0F826900020ADE7014673
:10411000FA4890F824000870002070474FF0FF30F4
:10412000704702464FF0FF30704701464FF0FF30B6
:104130007047F8B505460F461446002C70D0B5F50B
:10414000FF5F01DDFF2605E0202D01DA012601E0F9
:10415000C5F3471607B90127282C02DD4FF0FF30C1
:10416000F8BDE648407D28BBE44890F8240038B10B
:104170000020FFF723FE0121E04880F8201003E033
:104180000021DE4880F82010DC481630FFF750F898
:10419000DA481830FFF76CF8D8481A30FFF78CF877
:1041A000D6481C30FFF7ADF8D448817A81771F30AC
:1041B000FFF701F90020FEF761F90020FEF787FC08
:1041C00000208DF80000CD4A12689178CB4A5268E1
:1041D00010786B460122FDF7F0FF10B14FF0FF3071
:1041E000BEE740208DF80000C44A1268D17BC34A64
:1041F000526810786B460122FDF7DFFF00B165E0E1
:104200008DF800608DF80170BC4A1268117ABB4AC3
:10421000526810786B460222FDF7CFFF08B155E0D7
:1042200047E0052001F0FDFCB448407A072101EB8E
:10423000C000C0B28DF80000B04A1268D179AF4A10
:10424000526810786B460122FDF7B7FF00B13DE0E0
:1042500020208DF80000012C03D100208DF80100F2
:104260000EE0052C03DC01208DF8010008E0142C81
:1042700003DC02208DF8010002E003208DF801002C
:104280009DF80100072101EB8010C0B28DF80100FC
:104290009A4A1268917C994A526810786B460222B9
:1042A000FDF78BFF00B111E001219448417500201A
:1042B00056E7924A1632002103E0505C00B105E057
:1042C000491C0C29F9D34FF0FF3049E7FF208B49F7
:1042D0000872FF2189484172C1724FF6FF71C18196
:1042E000FF2181720174012101730146887FFEF76D
:1042F00088F98249C88AFEF7E5FC8049087EFEF706
:104300009FFC7E49488BFEF7A3FB7C49888BFEF718
:104310004BFC7A49C87FFEF766FB784890F820008E
:1043200010B10120FFF74AFD0021744841750020BB
:1043300016E770B588B002A905A8FFF784FD04460A
:10434000032C3ED101A8FEF7F2FF059806F032F8E3
:104350000646019906F08EF8054605F0EFFF059038
:10436000069806F027F80646019906F083F80546F8
:1043700005F0E4FF0690079806F01CF80646019940
:1043800006F078F8054605F0D9FF079005A800F07B
:1043900054FA6846FEF7E8FFBDF80010029848435B
:1043A0000290BDF80010039848430390BDF8001038
:1043B00004984843049002A800F0D2FA002008B004
:1043C00070BD0120FBE7014691F90020002A01DDC4
:1043D00000201EE091F90020002A01DA042018E0F4
:1043E00091F90120002A01DD012012E091F901205C
:1043F000002A01DA05200CE091F90220002A01DDF3
:10440000022006E091F90220002A01DA062000E0ED
:104410000720704710B504462046FFF7D4FF034637
:10442000E01CFFF7D0FF43EAC00083B2A01DFFF7F6
:10443000CAFF43EA801083B2184610BD70B500244D
:10444000FDF7F9FEFEF780FC002840D17820FEF74A
:10445000D8F8C4B20CB1012070BD7820FEF7C3FAC1
:10446000C4B20CB10220F7E76420FEF79DFBC4B292
:104470000CB10320F0E700F045F9C4B20CB1042000
:10448000EAE71F48FFF7C6FF054600F045F9C4B24A
:104490000CB10520E0E740F2731000F07EFDC4B2DD
:1044A0000CB10620D8E7642000F0F0FAC4B20CB1D9
:1044B0000720D1E7FFF73DFF04460CB10820CBE70A
:1044C0000120FFF77BFCC4B21CB10920C4E70A201D
:1044D000C2E70020C0E72DE9F04F99B004460D4631
:1044E00016464FF07E574FF000084FF000094FF08E
:1044F000000A12A813A918AB0EAA03E0FC010020C1
:1045000028020020CDE9001014A916A800F0A4FE8E
:1045100018B1012019B0BDE8F08FBDF84C0000F4CF
:10452000807000287ED00E9805F044FF83464FF03F
:104530009D4105F00DFE07460F9805F03BFF8346B1
:104540004FF09D4105F004FE8046109805F032FFC3
:1045500083464FF09D4105F0FBFD8146119805F023
:1045600029FF83464FF09D4105F0F2FD8246394612
:104570004FF0804005F07EFF4946059005F07AFF38
:10458000414607904FF0404005F074FF51460590BA
:1045900005F070FF0690079905F06CFD834605F065
:1045A0003DFDCDE9080103F0C5FE4FF06632544BE6
:1045B000CDE90A0105F022FACDE90C0104F0C4FEB0
:1045C000206049464FF0804005F054FF4946029074
:1045D00005F050FF414604904FF0404005F04AFF7F
:1045E0004146029005F046FF0390049906F040F81A
:1045F00083464FF07E5105F03DFD059005F00EFD20
:10460000CDE9080139464FF0804005F033FF4146BF
:10461000039005F02FFF494604904FF0804005F0CD
:1046200029FF00E068E05146039005F023FF834630
:10463000049905F01FFD059005F0F0FCCDE9060199
:10464000DDE9082304F0BEF84FF066322C4BCDE9CB
:104650000A0105F0D3F9CDE90C0104F075FE2860DC
:104660005146504605F006FF49460490484605F07D
:1046700001FF41460390404605F0FCFE394601909B
:10468000384605F0F7FE0090019905F0F3FC029022
:10469000039905F0EDFF8346049905F0E9FF0590C5
:1046A00005F0BCFCCDE908015146384605F0E2FEB4
:1046B00049460490404605F0DDFE0390049905F05C
:1046C000D9FC4FF08041059005F0D4FE834605F0FB
:1046D000A5FCCDE90601DDE9082304F073F84FF0ED
:1046E0006632074BCDE90A0105F088F9CDE90C01E6
:1046F00004F02AFE306001E002200BE7002009E709
:1047000066A64C4010B5C8234FF48062F74940F6C6
:10471000F630FFF79DFC10BD10B586B00446F4A03E
:1047200000680390F3A000680290F3A00068019075
:10473000F2A00068009004F0030003A9085C8DF863
:10474000140003A8C4F3C101405C8DF8150003A850
:10475000C4F38111405C8DF8160004F0030002A937
:10476000085C8DF8100002A8C4F3C101405C8DF80C
:10477000110002A8C4F38111405C8DF8120005AA53
:10478000032140F22640FFF7E9FB18B14FF0FF305C
:1047900006B010BD04AA032140F22A40FFF7DEFB59
:1047A00010B14FF0FF30F3E70198059000980490A6
:1047B00004F0040058B19DF8140040F001008DF899
:1047C00014009DF8100040F001008DF8100004F076
:1047D000200058B19DF8150040F001008DF815003B
:1047E0009DF8110040F001008DF8110004F4807074
:1047F00058B19DF8160040F001008DF816009DF8A4
:10480000120040F001008DF8120005AA03214FF4B8
:104810008860FFF7A3FB10B14FF0FF30B8E704AAA0
:10482000032140F23140FFF799FB10B14FF0FF3008
:10483000AEE7B34804810020AAE71FB50446B0489C
:10484000007A00F0030054F820000190AC48007A90
:1048500000F0040010B1019840420190A848007A8D
:10486000C0F3C10054F820000290A548007A00F07F
:10487000200010B1029840420290A148007AC0F393
:10488000811054F8200003909D48008900F4807046
:1048900010B10398404203909A49019880FB0101AE
:1048A000800F40EA810001909649029880FB011038
:1048B000820042EA917002909249039880FB0110B5
:1048C000820042EA917003900198000E8DF800007A
:1048D0000198000C8DF801000198000A8DF8020083
:1048E0000198C0B28DF803006A4604214FF4747039
:1048F000FFF734FB18B14FF0FF3004B010BD029841
:10490000000E8DF800000298000C8DF8010002984E
:10491000000A8DF802000298C0B28DF803006A46C2
:1049200004214FF47570FFF719FB10B14FF0FF3001
:10493000E3E70398000E8DF800000398000C8DF853
:1049400001000398000A8DF802000398C0B28DF8A8
:1049500003006A4604214FF47670FFF7FFFACCE7B4
:1049600070B588B0064601A8FEF7FEFCBDF804004D
:104970000021C90341EA5045C4036148007A00F0B0
:10498000030056F8200005905D48007A00F004000E
:1049900010B10598404205905948007AC0F3C10013
:1049A00056F8200006905648007A00F0200010B11A
:1049B0000698404206905248007AC0F3811056F89B
:1049C000200007904E48008900F4807010B10798CD
:1049D000404207900598C117A0FB042301FB043156
:1049E00000FB0510810041EA927005900698C117FE
:1049F000A0FB042301FB043100FB0510810041EA08
:104A0000927006900798C117A0FB042301FB0431A4
:104A100000FB0510810041EA927007900598000E96
:104A20008DF808000598000C8DF809000598000A1B
:104A30008DF80A000598C0B28DF80B000698000E9C
:104A40008DF80C000698000C8DF80D000698000AF1
:104A50008DF80E000698C0B28DF80F000798000E72
:104A60008DF810000798000C8DF811000798000AC7
:104A70008DF812000798C0B28DF8130002AA0C211D
:104A80004FF42570FFF76AFA08B070BD30B585B0F5
:104A900004461DA207CA02AB07C3C82C03DD4FF0B2
:104AA000FF3005B030BDC82090FBF4F0401E85B249
:104AB000280A8DF80000E8B28DF801006A4602214C
:104AC00040F21620FFF74AFA10B14FF0FF30E8E746
:104AD00002AA0C2140F6C120FFF740FA10B14FF0B6
:104AE000FF30DEE7064884810020DAE724A90008C9
:104AF0004CCD6C000CC92C0036567600264666005C
:104B00005403002009E3CA02FEF2ABC4AAF1DFDFBE
:104B1000BBAFDFDF0146FC4880890880002070477A
:104B20002DE9FC4706460F4606F0070010B1B7F521
:104B3000C86F03DD4FF0FF30BDE8FC87384605F055
:104B400051FC8146F14905F003FB80466846FEF7BB
:104B50008FFB9DF80000022806D0042816D00828F4
:104B600026D0102848D135E04FF08D41404605F061
:104B700081FC814605F0FEFB84B2E549404605F024
:104B800079FC814605F0F6FB85B238E04FF08C41A8
:104B9000404605F06FFC814605F0ECFB84B2DD4930
:104BA000404605F067FC814605F0E4FB85B226E04F
:104BB0004FF08B41404605F05DFC814605F0DAFB85
:104BC00084B2D549404605F055FC814605F0D2FB3C
:104BD00085B214E04FF08A41404605F04BFC814617
:104BE00005F0C8FB84B2CD49404605F043FC814640
:104BF00005F0C0FB85B202E04FF0FF309CE700BF3C
:104C000020128DF80400E0B28DF8050028128DF80E
:104C10000600E8B28DF8070006F00100A0B101AA75
:104C200002214FF4EA70FFF799F910B14FF0FF300D
:104C300082E70DF1060202214FF49270FFF78EF920
:104C400010B14FF0FF3077E706F00200A0B101AAE3
:104C500002214FF4EC70FFF781F910B14FF0FF30F3
:104C60006AE70DF1060202214FF49470FFF776F91E
:104C700010B14FF0FF305FE706F00400A0B101AAC9
:104C800002214FF4EE70FFF769F910B14FF0FF30D9
:104C900052E70DF1060202214FF49670FFF75EF91C
:104CA00010B14FF0FF3047E7002045E738B5044624
:104CB0000020009004F0010020B19DF8000040F0B9
:104CC0003000009004F0020020B19DF8000040F098
:104CD0000C00009004F0040020B19DF8000040F0AA
:104CE000030000906A4601214FF4A470FFF736F9E3
:104CF00038BD38B50446012C01DA012402E0042C49
:104D000000DD0424601EC0B200906A46012140F21A
:104D10004F10FFF723F938BD38B50446052094FB42
:104D2000F0F085B228128DF80000E8B28DF801008D
:104D30006A4602214FF4EF70FFF710F938BD38B51D
:104D40000446052094FBF0F085B228128DF800008F
:104D5000E8B28DF801006A4602214FF4ED70FFF7CA
:104D6000FDF838BDF8B505460E464FF47A7095FB50
:104D7000F0F000FB06F4200E8DF80000200C8DF8FA
:104D80000100200A8DF80200E0B28DF803006A46A7
:104D900004214FF4AE70FFF7E1F8F8BD38B50446D2
:104DA000052094FBF0F084B220128DF80000E0B2F0
:104DB0008DF801006A4602214FF4AD70FFF7CEF87E
:104DC00038BD38B50446052094FBF0F084B22012BB
:104DD0008DF80000E0B28DF801006A4602214FF420
:104DE000AC70FFF7BBF838BD38B5044614B94FF0C6
:104DF000FF3038BD6A4604214FF45870FFF7EBF8D6
:104E000010B14FF0FF30F4E79DF8000000069DF868
:104E1000011040EA01409DF8021040EA01209DF88F
:104E20000310084320600020E3E738B50446200E55
:104E30008DF80000200C8DF80100200A8DF802008A
:104E4000E0B28DF803006A4604214FF45870FFF772
:104E500085F838BD38B5044614B94FF0FF3038BD79
:104E60006A4604214FF47170FFF7B5F810B14FF0A6
:104E7000FF30F4E79DF8000000069DF8011040EABD
:104E800001409DF8021040EA01209DF803100843FC
:104E900000EB8000800020600020E0E738B5044689
:104EA0001420B4FBF0F4200E8DF80000200C8DF8D7
:104EB0000100200A8DF80200E0B28DF803006A4676
:104EC00004214FF47170FFF749F838BD38B5044636
:104ED00064B120208DF8000028208DF801003020DA
:104EE0008DF8020038208DF8030004E0A32204218D
:104EF000684602F0F9FF6A46042140F69E20FFF75B
:104F00002DF8FDF787FC38BD54030020000048430E
:104F1000000040460000C045000040450000C0447D
:104F200038B5044664B1C0208DF80000C2208DF869
:104F30000100C4208DF80200C6208DF8030004E0B3
:104F40008B220421684602F0CFFF6A46042140F616
:104F50009820FFF703F8FDF75DFC38BD3EB5044629
:104F60006CB1FDA1D1E900208968CDE90020029152
:104F70006A4609214FF49760FEF7F0FF3EBDF9A2A3
:104F8000D2E900109268CDE9010200916A46092138
:104F90004FF49760FEF7E2FFF0E73EB504460220CB
:104FA0008DF80000CA208DF80100E3208DF8020082
:104FB00009208DF803006A4604216820FEF7CEFF21
:104FC000A3208DF8000004F0400048B1C0208DF807
:104FD0000100C8208DF80200C2208DF8030006E011
:104FE000A3208DF801008DF802008DF8030004F471
:104FF000C07048B1C4208DF80400CC208DF80500A5
:10500000C6208DF8060006E0A3208DF804008DF878
:1050100005008DF80600A3208DF807008DF8080024
:105020008DF809006A460A2140F6A720FEF796FF90
:1050300004F0030018B120208DF8000002E0D82011
:105040008DF800006A46012140F6B620FEF786FF83
:1050500004F0200018B10120FFF780FF02E00020DB
:10506000FFF77CFF04F4C07008B304F4807060B1F3
:10507000B2208DF800008B208DF80100B6208DF84D
:1050800002009B208DF803000BE0B0208DF800009B
:1050900080208DF80100B4208DF8020090208DF85A
:1050A00003006A46042140F6A220FEF757FF04F0F1
:1050B000010020B3F8208DF800006A4601214FF46A
:1050C0000B60FEF74BFFFA210720FFF729FD0720B1
:1050D000FFF7ECFD0120FFF70CFE6420FFF71CFE3C
:1050E0004FF4FA70FFF72BFEC821A148FFF73AFEF4
:1050F0002820FFF753FE0A20FFF763FE08E0D820C0
:105100008DF800006A4601214FF40B60FEF726FF80
:1051100004F0020018B1D9208DF8000002E0D82078
:105120008DF800006A46012140F23D70FEF716FF3F
:1051300004F0040018B10120FFF7F2FE02E00020A5
:10514000FFF7EEFE04F0100018B10120FFF7BEFEDD
:1051500002E00020FFF7BAFE44F0080085494881CC
:10516000FDF758FB00208349887304F0400018B114
:105170000846807B801D887304F4C07020B17D4890
:10518000807B801D7B49887304F0140020B179482E
:10519000807B10307749887304F0030020B1754894
:1051A000807B001D7349887300203EBD0146714815
:1051B00040890880002070472DE9F0410446E078DE
:1051C00000F0C006E07800F03F05607800F00100D4
:1051D00098B1EF102846E91705EB5171C910A5EBFE
:1051E000C101491C01F0FF086248006820B1614814
:1051F000414602683846904700BF607800F00800DA
:1052000030B15C48406818B1B0115A4A51688847BB
:105210000020BDE8F08110B586B0044656A207CA4A
:1052200003AB07C357A207CA8DE80700012C09D0BA
:10523000022C0ED103AA0B2140F68220FEF78EFE2F
:1052400006B010BD6A460B2140F68220FEF786FEAE
:10525000F6E74FF0FF30F3E72DE9F04F8DB007464A
:10526000884615469946DDE9166B002400203080FB
:105270004049887B5A4605A9FEF7D3F918B1601E4C
:105280000DB0BDE8F08F3B48807A00F01400002894
:1052900061D09DF8140000069DF8151040EA014009
:1052A0009DF8161040EA01209DF817100843286069
:1052B0009DF8180000069DF8191040EA01409DF87D
:1052C0001A1040EA01209DF81B10084368609DF801
:1052D0001C0000069DF81D1040EA01409DF81E10BC
:1052E00040EA01209DF81F100843A8609DF82000A7
:1052F00000069DF8211040EA01409DF8221040EA86
:1053000001209DF823100843E86004F11000C4B2A6
:10531000286800140190686800140290A8680014BE
:105320000390E8680014049001984043029901FB3F
:105330000100039901FB0100049901FB010ABAF184
:10534000706F02DBBAF1885F22DDFDF763FA00209F
:105350003080401E94E721E0B8AAB38DB4980D3593
:105360005D000000B8AAAAAAB088C3C5C7000000A3
:1053700009E3CA0254030020D8B1B9F38BA391B654
:1053800009B4D900DAB1B9F38BA391B6DAB4DA0073
:10539000B6F9000040F48070308000BF3448807A55
:1053A00000F0400020B305A9601C085C095D40EADC
:1053B000012000B2A8F8000005A9E01C095C05AABC
:1053C000A01C105C41EA002000B2A8F8020005A968
:1053D000601D095C201D105C41EA002000B2A8F8A5
:1053E0000400A01DC4B2B6F9000040F008003080EF
:1053F0001F48408900F4C07008B305A9601C085C10
:10540000095D40EA012000B2388005A9E01C095C72
:1054100005AAA01C105C41EA002000B2788005A912
:10542000601D095C201D105C41EA002000B2B880BC
:10543000A01DC4B2B6F9000040F0700030800C48E6
:10544000807A00F0030018B105A90819FFF7B4FE2F
:105450004846FDF749FD002012E701460448016077
:10546000002070470146024841600020704700005C
:105470005403002010B5044600BF4021FE4801F04F
:105480006FFB0028F9D02146FB4801F0FBFA10BD64
:10549000F0B589B006460F4615461C2D01DD09B052
:1054A000F0BD002101AAE81C115488208DF80400E9
:1054B0008DF805608DF80650002405E0395DE01C8C
:1054C00001AA1154601CC4B2AC42F7DB00240AE00C
:1054D00001A9E81C085C095D0844C1B201AAE81CE6
:1054E0001154601CC4B2E81C8442F1DB002405E0C6
:1054F00001A9085DFFF7BEFF601CC4B2281D8442ED
:10550000F6DB00BFCBE72DE9FE4304460D46174608
:105510001E46DDE90A89200A8DF80000E0B28DF808
:105520000100280A8DF80200E8B28DF80300380A5D
:105530008DF80400F8B28DF80500300A8DF80600E9
:10554000F0B28DF807004FEA18208DF8080008F037
:10555000FF008DF809004FEA19208DF80A0009F0C4
:10556000FF008DF80B000C226946A120FFF790FF89
:10557000BDE8FE832DE9F04F87B004460D46164680
:105580001F46DDE911ABDDF840904FF0000806E062
:1055900000200DF8080008F1010000F0FF08B8F144
:1055A0001C0FF5DB200A8DF80000E0B28DF8010039
:1055B000280A8DF80200E8B28DF80300300A8DF851
:1055C0000400F0B28DF80500380A8DF80600F8B234
:1055D0008DF807004FEA19208DF8080009F0FF0048
:1055E0008DF809004FEA1A208DF80A000AF0FF0032
:1055F0008DF80B004FEA1B208DF812000BF0FF0016
:105600008DF813001398000A8DF814001398C0B297
:105610008DF815001498000A8DF816001498C0B281
:105620008DF817001C226946AF20FFF731FF07B045
:10563000BDE8F08F70B506460D461C2D00DD70BD2F
:10564000002404E0305DFFF715FF601CC4B2AC42DB
:10565000F8DB00BFF3E72DE9FE4F82460E46174602
:105660009846DDF830B00024CDF80480A14600252E
:10567000AA222146641C814842542146641C42549B
:1056800001222146641C425400222146641C4254DB
:105690007B49504604F0EEFE009004F04FFE00B24D
:1056A00002909DF809202146641C744842549DF8DC
:1056B00008202146641C42547149304604F0DAFE49
:1056C000009004F03BFE00B202909DF809202146B4
:1056D000641C6A4842549DF808202046611CCCB2E4
:1056E00066490A546649384604F0C4FE009004F046
:1056F00025FE00B202909DF809202146601CC4B22C
:105700005E4842549DF808202146601CC4B25B48A4
:1057100042549DF807202046611CCCB257490A54D8
:105720009DF806202046611CCCB254490A549DF8CD
:1057300005202046611CCCB250490A549DF8042033
:105740002146601CC4B24D4842542046611CCCB274
:105750004A4901F800B02146621CD4B2474A0D986C
:105760005054201F1146C87000BF06E04348405DFA
:10577000484400F0FF09681CC5B2A542F6DB20468C
:10578000611CCCB23D4901F8009021463B48FFF72F
:1057900051FFBDE8FE8F2DE9F84F06460F469046B3
:1057A0009946DDF828B00024A2460025AA22214609
:1057B000641C324842542146641C42540222214651
:1057C000641C425400222146641C425400969DF8F9
:1057D00001202146641C42549DF800202146641C8F
:1057E000425400979DF801202146641C42549DF8C4
:1057F00000202046611CCCB220490A54CDF800801C
:105800009DF801202046611CCCB21C490A549DF829
:1058100000202046611CCCB218490A54CDF80090F3
:105820009DF801202046611CCCB214490A549DF811
:1058300000202046611CCCB210490A54CDF800B0BB
:105840009DF801202046611CCCB20C490A549DF8F9
:1058500000202046611CCCB208490A540B980090E5
:105860009DF801202046611CCCB204490A549DF8E1
:1058700000202046611C05E0003801406403002040
:105880000000C842CCB2C7490A540C9800909DF859
:1058900001202046611CCCB2C2490A549DF8002068
:1058A0002046611CCCB2BF490A540D9800909DF867
:1058B00001202046611CCCB2BA490A549DF8002050
:1058C0002046611CCCB2B7490A540E9800909DF84E
:1058D00001202046611CCCB2B2490A549DF8002038
:1058E0002046611CCCB2AF490A54201FC87000BFCB
:1058F00006E0AC48405D504400F0FF0A681CC5B2A9
:10590000A542F6DB2046611CCCB2A64901F800A0F6
:105910002146A448FFF78EFEBDE8F88F7FB500242E
:1059200000260025AA222146641C9E484254214696
:10593000641C425406222146641C42540022214623
:10594000641C42549DF801202146641C42549DF879
:1059500000202146641C42549DF805202146641C09
:1059600042549DF804202046611CCCB28D490A5453
:105970009DF809202046611CCCB28A490A549DF842
:1059800008202046611CCCB286490A549DF80D209F
:105990002046611CCCB283490A549DF80C20204655
:1059A000611CCCB27F490A549DF821202046611C1D
:1059B000CCB27C490A549DF820202046611CCCB210
:1059C00078490A549DF825202046611CCCB27549BF
:1059D0000A549DF824202046611CCCB271490A5417
:1059E0009DF829202046611CCCB26E490A549DF8CE
:1059F00028202046611CCCB26A490A549DF82D200B
:105A00002146601CC4B2674842549DF82C202046B1
:105A1000611CCCB263490A54201FC87000BF05E066
:105A20006048405D3044C6B2681CC5B2A542F7DB91
:105A30002046611CCCB25B490E5421465948FFF701
:105A4000F9FD7FBD7FB500240026AA222146641CF3
:105A5000544842542146641C425403222146641C8B
:105A6000425400222146641C42549DF801202146E4
:105A7000641C42549DF800202146641C42549DF849
:105A800005202146641C42549DF804202046611CD8
:105A9000CCB244490A549DF809202146601CC4B286
:105AA000404842549DF808202046611CCCB23D4934
:105AB0000A549DF80D202046611CCCB239490A5485
:105AC0009DF80C202046611CCCB236490A549DF842
:105AD00021202046611CCCB232490A549DF8202076
