:020000040800F2
:10000000180D0020F5710008E10F0008E30F00084B
:10001000E50F0008E90F0008ED0F000800000000E0
:10002000000000000000000000000000F10F0008C8
:10003000F30F000800000000F50F0008F70F00089C
:10004000812600080F7200080F7200080F72000866
:100050000F7200080F7200080F7200080F7200087C
:100060000F7200080F7200080F7200080F7200086C
:100070000F7200080F7200080F7200080F7200085C
:100080000F7200080F7200080F7200080F7200084C
:100090000F7200080F7200080F7200080F7200083C
:1000A0000F7200080F7200080F7200080F7200082C
:1000B0000F7200080F720008212300080F72000859
:1000C0000F7200080F7200080F7200080F7200080C
:1000D0000F7200080F7200080F7200080F720008FC
:1000E0000F7200080F7200080F7200080F720008EC
:1000F0000F7200080F7200080F7200080F720008DC
:100100000F7200080F720008172200080F72000813
:100110000F7200080F7200080F7200080F720008BB
:100120000F7200080F7200080F7200080F720008AB
:1001300000F002F800F062F80AA090E8000C824497
:100140008344AAF10107DA4501D100F057F8AFF274
:10015000090EBAE80F0013F0010F18BFFB1A43F0A5
:10016000010318475CC200007CC200000A444FF043
:10017000000C10F8013B13F0070408BF10F8014B06
:100180001D1108BF10F8015B641E05D010F8016B4B
:10019000641E01F8016BF9D113F0080F1EBF10F8AF
:1001A000014BAD1C0C1B09D16D1E58BF01F801CBD2
:1001B000FAD505E014F8016B01F8016B6D1EF9D555
:1001C0009142D6D37047000000230024002500266A
:1001D000103A28BF78C1FBD8520728BF30C148BFAA
:1001E0000B607047642908F0E385782908F01C86C5
:1001F000002070471FB51FBD10B510BD09F070F885
:100200001146FFF7F7FF00F009F809F08EF803B484
:10021000FFF7F2FF03BC06F0C5FD000096B000201A
:10022000159014901390129001200C9000200B90C8
:100230000A9000F056FF4FF4A06007F07FFD06F033
:1002400047FD472144F61F6002F022FA4FF4FA619D
:10025000FE4808F0C9FC4FF4FA61FC4808F0C6FCFF
:100260004FF4FA61F94808F0C3FC4FF4FA61F7481B
:1002700008F0C0FC41F2883006F067FD4FF47A7157
:10028000F24808F0B1FC4FF47A71F04808F0AEFC87
:100290004FF47A71ED4808F0ABFC4FF47A71EB48FB
:1002A00008F0A8FC40F6B83006F04FFD02F027FF3A
:1002B00005E0C82006F049FDC82006F046FD05F01F
:1002C00051F90028F5D14FF47A7006F03EFD02F0A6
:1002D00053FD642006F039FD02F040FA642006F078
:1002E00034FD02F04BFA4FF4967006F02EFD00201C
:1002F0000D90AFE0D64AD749D74802F0A2FF0028B8
:100300004DD1D548B0F900000AF056FE0490D3480C
:10031000016804980AF0AAFC05900AF07BFC002210
:10032000CF4BCDE906010AF09BF9CDE9080109F0B0
:10033000CFFECA490860C748B0F900000AF03CFE89
:100340000490C848016804980AF090FC05900AF0EF
:1003500061FC0022C24BCDE906010AF081F9CDE92A
:10036000080109F0B5FEBF490860B948B0F90000BE
:100370000AF022FE0490BC48016804980AF076FC5A
:1003800005900AF047FC0022B54BCDE906010AF0C2
:1003900067F9CDE9080109F09BFEB3490860B34A4B
:1003A000B349B44802F075FF00284FD1B148B0F905
:1003B00000000AF001FE0490AF48016804980AF0BA
:1003C00055FC05900AF026FC0022A54BCDE906015C
:1003D0000AF046F9CDE9080109F07AFEA64908605D
:1003E000A348B0F900000AF0E7FD0490A3480168B3
:1003F00004980AF03BFC05900AF00CFC0022984B94
:10040000CDE906010AF02CF9CDE9080109F060FEFA
:100410009A4908609548B0F900000AF0CDFD0490B3
:100420009748016804980AF021FC05900AF0F2FB55
:1004300000228B4BCDE906010AF012F9CDE9080143
:1004400009F046FE8E49086001F09EFC0D98401CA4
:10045000C0B20D900D986428FFF64CAF7F4800683D
:100460000AF06EFD00B2874908807E4800680AF0F5
:1004700067FD00B2834948807B4800680AF060FD50
:1004800000B2804988807C4800680AF059FD00B2BB
:100490007D490880794800680AF052FD01B27B4826
:1004A00001807B4800680AF04BFD00B27949088062
:1004B00000200D9021E0642006F047FC02F0E7F9EF
:1004C000754800680AF078FD049074480168049843
:1004D0000AF0CCFB05900AF09DFB0022604BCDE9B1
:1004E00006010AF0BDF8CDE9080109F0F1FD6B49FC
:1004F00008600D98401CC0B20D900D981428DADBEE
:10050000664800680AF01CFD6549086008460068F6
:100510000AF052FD03900AF07DFB0022614BCDE909
:10052000040109F0C3FE4FF0C0425F4BCDE9060164
:1005300009F000FECDE9080109F0CAFD5B49086039
:100540000C9818B15A4806F03FFC05E00B9818B11A
:100550004FF4E13006F038FC0A2006F0F6FB4721A4
:100560004FF6FF7001F067FE40F2CF21092001F045
:1005700025FE0A2006F0E9FB00F034FE01204D497B
:10058000086000204C49C1F888010A2006F0DDFB14
:100590004A4800680AF058FD494908900AF09CFD55
:1005A00009900AF0E9FC47490860444800680AF0ED
:1005B0004BFD454908900AF08FFD09900AF0DCFCDC
:1005C000424908603D4800680AF03EFD40490890F5
:1005D0000AF082FD09900AF0CFFC3E4908603748D6
:1005E00000680AF031FD3C4908900AF075FD099059
:1005F0000AF0C2FC39490860304800680AF024FD5E
:10060000374908900AF068FD09900AF0B5FC3549B1
:1006100008602A4800680AF017FD334908900AF07C
:100620005BFD09900AF0A8FC304908602348006887
:100630000AF00AFD2E4908900AF04EFD09900AF0D2
:100640009BFC2C4908601D48006855E000040040F0
:100650004E0000204C0000204A00002064000020D2
:100660000000E03F680000206C00002048000020EF
:100670004600002044000020780000207C0000207C
:10068000800000205E00002070000020720000202A
:10069000B001002074000020BC000020CC0000202D
:1006A000C40000200000594066127140540100202F
:1006B00020A10700A001214200802242100000205A
:1006C000CDCCCC3D14000020CDCC4C3D18000020FA
:1006D0000AD7A33C1C0000200AD7233C200000209E
:1006E0000AD7A33B240000206F12033B2800002000
:1006F0006F12833A2C0000200AF0A6FCFC490890F7
:100700000AF0EAFC09900AF037FCFA490860FA4856
:1007100000680AF099FCF94908900AF0DDFC09909C
:100720000AF02AFCF6490860DFE3F6480068401C3E
:100730000AF08AFC0990F04800680AF085FCF2494A
:1007400007900AF0C9FC089009990AF091FD3FD280
:10075000E94800680AF078FCEB4908900AF0BCFC14
:1007600009900AF009FCE7490860E8480068401C65
:10077000E6490860E64AE749E74802F08AFD18B909
:1007800001F050FA01F000FBE44A911E881E02F0CD
:1007900058FDE8B901F09EF90A98C8B101F091FC42
:1007A000DF48006809900AF0CBFB00B2DD49088001
:1007B000DB48406809900AF0C3FB00B2DA490880C0
:1007C000D748806809900AF0BBFB00B2D74908807F
:1007D000D7480068401C0AF037FC0990C6480068FA
:1007E0000AF032FCD34907900AF076FC0890099988
:1007F0000AF03EFD11D2C04800680AF025FCCD4940
:1008000008900AF069FC09900AF0B6FBC849086034
:10081000BE484068401CBD494860C7480068401C4D
:100820000AF012FC0990B44800680AF00DFCC349B4
:1008300007900AF051FC089009990AF019FD2ED290
:10084000AD4800680AF000FCBC4908900AF044FC7E
:1008500009900AF091FBB8490860AC488068401CD8
:10086000AA498860B64AB749B74804F0C8FEB748F5
:100870000168B44800680AF067FDB5490860B548EA
:100880000168B14800680AF05FFDB3490860B348E9
:100890000168AB4800680AF057FDB1490860B148EB
:1008A0000068401C0AF0D0FB0990934800680AF0E9
:1008B000CBFBAD4907900AF00FFC089009990AF0AC
:1008C000D7FC7AD28C4800680AF0BEFBA649089093
:1008D0000AF002FC09900AF04FFBA24908608B481D
:1008E000C068401C8949C860159800287ED09F4880
:1008F000006840F24C41884279D99C48008800B297
:100900000F909B48B0F9000040F2E351081A994952
:100910000968884208D89648B0F9000000F2E35010
:1009200094490968884218D292480088A0F2E3509E
:1009300000B2119011980AF03FFB05900AF06AF995
:100940008D4A8E4BCDE9060109F08AFECDE90801FA
:1009500009F0BEFB7D49086002E000207B49086089
:100960008348B0F9000040F2E451081A844909684C
:10097000884208D87E48B0F9000000F2E45080496F
:10098000096888421AD27E48008840F2E451081A69
:1009900000B2109010980AF00FFB05900AF03AF997
:1009A000754A764BCDE9060109F05AFECDE90801FA
:1009B00009F08EFB6749086003E005E10020654906
:1009C00008606B48B0F9000040F2E351081A6D4925
:1009D0000968884208D86648B0F9000000F2E35080
:1009E0006849096888421ED2664801E050E01EE06E
:1009F000008840F2E351081A00B20E900E980AF0F7
:100A0000DBFA05900AF006F95B4A5C4BCDE906017A
:100A100009F026FECDE9080109F05AFB4F490860AC
:100A20000020086012E000204C4908600EE0002021
:100A3000554908805549088055490880554908801E
:100A400000231A461946184600F008FC474800687B
:100A500040F24C41884218D24A480068884214D279
:100A6000139818B92648008880B21390244801686A
:100A70001398081A082807D30020159046490860E3
:100A800001204649C1F8A0018DE0002013908AE0C2
:100A900000203D4908803D4908803D4908803D4986
:100AA000088000231A461946184600F0D7FB2F4845
:100AB000006840F24C41884273D23248006840F2EC
:100AC0006C7188426DD9149818B90D48008880B2AD
:100AD00014900B4801681498081A052863D3012064
:100AE00015902D49086000202C49C1F8A0015AE05A
:100AF0006F12833A300000201000002017B7D13861
:100B00003400002014000020CDCCCC3D6404002033
:100B1000480000204600002044000020540000202F
:100B200058040020E8000020EA000020EC0000202B
:100B300018000020CDCC4C3D1C0000200AD7A33C5F
:100B400040000020380000203C000020DC00002095
:100B5000D0000020E0000020D4000020E4000020AD
:100B6000D8000020200000200AD7233C08000020E5
:100B70009200002000000020F49FDA858B81A23FC4
:100B8000040000200C000020540200205602002027
:100B9000580200205A02002088812242000021428F
:100BA000FFE700201490D148006840F24C41884291
:100BB0000AD900F014FD00F080FC01F043FA01F0C6
:100BC000ACF90F9800F07CFBC9480068401C0AF0A3
:100BD0003BFA0990C74800680AF036FAC649079000
:100BE0000AF07AFA089009990AF042FB11D2C1483A
:100BF00000680AF029FAC04908900AF06DFA0990D5
:100C00000AF0BAF9BA490860BC480069401CBB49FF
:100C10000861BB480068401C0AF016FA0990B54804
:100C200000680AF011FAB74907900AF055FA0890DF
:100C300009990AF01DFB7DD2AE4800680AF004FA5B
:100C4000B04908900AF048FA09900AF095F9AC49C1
:100C50000860AA484069401CA84948610C980028CF
:100C600069D0A94800680AF06BF9099015991298A3
:100C7000CDE90001A548099B0268A5480168A5487F
:100C8000006805F07CFD0020009001900290039028
:100C9000A148008880B20990A048008880B20890DE
:100CA0009F48008880B207909E48008880B20690D6
:100CB00007A90EC905F0C6FE00200290039004901B
:100CC0000590009001909848008880B2099097485C
:100CD000008880B208909648008880B207908348C8
:100CE000008880B2069007A90EC905F03FFF914821
:100CF00000680AF025F900B209908F48B0F90000A9
:100D000009F05BFC8D4A8E4BCDE9020109F0A8FC8D
:100D1000CDE9040109F022FC00B208908948B0F93D
:100D200000008949B1F90010401A019009F045FC12
:100D3000824A01E03AE038E0814BCDE9020109F056
:100D40008FFCCDE9040109F009FC00B207907E4850
:100D5000B0F900000AF030F900907C480168009872
:100D60000AF0E8FA019009F055FF744A744BCDE996
:100D7000020109F075FCCDE9040109F0EFFB00B2B6
:100D8000002106900998CDE902010491704805916F
:100D9000B0F900106F48B0F900000023CDE9000160
:100DA00006A807C805F08BFD00E000BF6A48006890
:100DB000401C0AF049F909904E4800680AF044F9CD
:100DC000664907900AF088F9089009990AF050FAE4
:100DD00066D2484800680AF037F9604908900AF07E
:100DE0007BF909900AF0C8F85B49086043488069BC
:100DF000401C4249886101F066FD5748006864283C
:100E000015D2574801685748006809F02FFF059030
:100E100009F000FF0022544BCDE9060109F020FC47
:100E2000CDE9080109F054F94E49086038E04D4811
:100E300001684B48006809F08DFF099001F014FE2D
:100E40004A49086001F032FE4948006849494A4A67
:100E5000127841F82200274800680AF0F5F847495F
:100E600009900AF039F94649434A127841F82200BC
:100E700041480078401C404908700846007807281F
:100E800007D1002008703F48007810B901203D4983
:100E900008703C48007818B101F00BFF01F044FEE7
:100EA00039480068401C0AF0CFF8099011480068E2
:100EB0000AF0CAF8314907900AF00EF9089009992A
:100EC0000AF0D6F911D20B4800680AF0BDF82B4998
:100ED00008900AF001F909900AF04EF82A490860D2
:100EE0000648C069401C0549C8611EE4080000208E
:100EF00024000020100000200AD7A33B6404002037
:100F0000280000206F12033BB000002040000020AA
:100F10003C000020380000205A0200205802002027
:100F2000560200205402002004000020000000208F
:100F30000C0000204C020020EE00002008E6E8F142
:100F40007B9BAE3F4800002074000020B4010020CD
:100F5000EC000020EA0000202C0000206F12833AF1
:100F6000B8000020C00000200000E03FB4000020D6
:100F70007C0100208C0400207402002017B7D138B7
:100F8000A8040020750200203400002000BF1A4889
:100F900001684FF0E0208269174800688142F6D16D
:100FA0001648006800EB4003C3EBC010C2EBC00062
:100FB000124B1B68B0FBF3F001EB4103C3EBC11311
:100FC00000EBC300704700B585B0684606F0E1FB52
:100FD0000B490098B0FBF1F00849086005B000BD6E
:100FE0007047704700BFFEE700BFFEE700BFFEE7A7
:100FF0007047704770477047780200207C020020DD
:1010000040420F000CB50020019000906C48006831
:1010100040F480306A49086000BF6948006800F405
:10102000003000900198401C0190009818B9019878
:10103000B0F5A06FF1D16248006800F4003010B143
:101040000120009001E0002000900098012843D189
:101050005C48006840F010005A4908600846006883
:1010600020F0030008600846006840F002000860B5
:1010700053484068524948600846406848600846FE
:10108000406840F4806048600846406820F47C1066
:1010900048600846406840F4E81048600846006828
:1010A00040F08070086000BF4548006800F00070A4
:1010B0000028F9D04248406820F0030040494860C9
:1010C0000846406840F00200486000BF3C48406865
:1010D00000F00C000828F9D10CBD10B5FFF792FF05
:1010E00010BD10B53648006840F001003449086072
:1010F000084640683449084031494860084600685D
:10110000324908402E4908600846006820F48020D3
:1011100008600846406820F4FE0048604FF41F0055
:101120008860FFF7DAFF4FF000602949086010BDC2
:1011300010B5002100200022214B5B6803F00C0158
:1011400021B1042906D0082928D107E0214B224CDF
:10115000236027E01F4B204C236023E0184B5B6883
:1011600003F47010164B5B6803F48032022303EB28
:10117000904022B9194B4343174C23600DE0104BAC
:101180005B6803F4003323B1144B4343124C2360D8
:1011900003E0104B4343104C236003E00D4B0E4C17
:1011A000236000BF00BF064B5B68C3F303130C4C06
:1011B000E15C094B1B68CB40074C236010BD00006D
:1011C00000100240002002400000FFF8FFFFF6FE82
:1011D00008ED00E000127A008002002000093D00C6
:1011E0008402002008B50121242006F03FFB4FF4C3
:1011F0008070ADF8000010208DF8030003208DF8FA
:1012000002006946094806F075F84FF480710748F6
:1012100006F01DF90420ADF800006946044806F008
:1012200069F80421024806F012F908BD00080140DF
:101230000014014002468A4201DD0846704710460C
:10124000FCE703469A4203DA8B4201DA18467047FC
:10125000994201DC0846FAE71046F8E730B5B0F5E8
:10126000FA6F01DD4FF4FA60B1F5FA6F01DD4FF46A
:10127000FA61B2F5FA6F01DD4FF4FA62B3F5FA6F75
:1012800001DD4FF4FA63B0F57A7F01DA4FF47A703A
:10129000B1F57A7F01DA4FF47A71B2F57A7F01DA2B
:1012A0004FF47A72B3F57A7F01DA4FF47A73FE4D18
:1012B00028802D1D29802D1D2A802D1D2B8030BDBD
:1012C00070B5044640F2F4612046FFF7B3FF0546CF
:1012D0006FF031023221F548B0F90000FFF7B1FF9D
:1012E0000544F34A5142F348B0F90000FFF7A9FF63
:1012F00005446FF01D021E21EF48B0F90000FFF712
:10130000A0FF2E18ED48006809F01AFE05B26FF034
:101310000E020F212846FFF794FF0644E8480068B4
:1013200009F00EFE05B26FF0040205212846FFF712
:1013300088FF304400B2E349088040F2F46120465F
:10134000FFF778FF05466FF031023221DE48B0F931
:101350000000FFF776FF0544D54A5142DB48B0F95B
:101360000000FFF76EFF05446FF01D021E21D848F4
:10137000B0F90000FFF765FF2E18D048006809F0AB
:10138000DFFD05B26FF00E020F212846FFF759FF6F
:101390000644CB48006809F0D3FD05B26FF00402A3
:1013A00005212846FFF74DFF304400B2C9490880A7
:1013B00040F2F4612046FFF73DFF05466FF0310231
:1013C0003221C548B0F90000FFF73BFF0544B84A99
:1013D0005142C248B0F90000FFF733FF05446FF0F7
:1013E0001D021E21BE48B0F90000FFF72AFF2E188B
:1013F000B248006809F0A4FD05B26FF00E020F219B
:101400002846FFF71EFF0644AD48006809F098FD26
:1014100005B26FF0040205212846FFF712FF3044A1
:1014200000B2B049088040F2F4612046FFF702FFA5
:1014300005466FF031023221AB48B0F90000FFF7EA
:1014400000FF05449A4A5142A848B0F90000FFF74E
:10145000F8FE05446FF01D021E21A548B0F90000FA
:10146000FFF7EFFE2E189548006809F069FD05B2F8
:101470006FF00E020F212846FFF7E3FE0644904866
:10148000006809F05DFD05B26FF0040205212846F1
:10149000FFF7D7FE304400B2964908800846B0F9FD
:1014A00000309048B0F900208A48B0F90010854813
:1014B000B0F90000FFF7D2FE70BD2DE9F0478E486D
:1014C00001688E48006809F007FE06468C480168EE
:1014D0008C48006809F000FE80468B4801688B4804
:1014E000006809F0F9FD0746414609F0BFFB0546D3
:1014F000314609F0BBFB044609F022FD00B26B49FE
:1015000008807D4801687D48006809F0E5FD804657
:101510007B4801687B48006809F0DEFD81467B4816
:10152000006880F0004778480168384609F0D4FD2B
:101530000646494609F008FF0546414609F096FB74
:10154000044609F0FDFC00B25F4908806A48016862
:101550006A48006809F0C0FD80466948016869482A
:10156000006809F0B9FD81466848006880F00047CE
:1015700065480168384609F0AFFD0646494609F05E
:1015800075FB0546414609F0DFFE044609F0D8FC2C
:1015900000B251490880584801685848006809F06D
:1015A0009BFD0646564801685648006809F094FDC0
:1015B0000746554801685548006809F08DFD80468A
:1015C000394609F0C1FE0546314609F0BDFE044624
:1015D00009F0B6FC00B244490880BDE8F0872DE967
:1015E000F0474B48B0F9000009F0E6FC07464948CF
:1015F0000168384609F070FD05464748B0F900001B
:1016000009F0DAFC814645480168484609F064FD66
:1016100007464348B0F9000009F0CEFC8146414836
:101620000168484609F058FD8046394609F01EFB1E
:101630000646294609F01AFB044609F081FC00B26F
:101640001C4908803248B0F9000009F0B5FC074693
:1016500030480168384609F03FFD05462E48B0F98C
:10166000000009F0A9FC81462C480168484609F0B1
:1016700033FD07462A48B0F90000404209F09CFCBF
:10168000814628480168484609F026FD80463946CB
:1016900009F05AFE0646294609F0E8FA044609F020
:1016A0004FFC00B209493FE03404004094000020A0
:1016B000D4FEFFFF9C000020A40000205002002068
:1016C0004C02002054020020960000209E000020C2
:1016D000A60000205602002098000020A000002054
:1016E000A8000020580200209A000020A20000203C
:1016F000AA0000205A020020B0020020D8000020DA
:10170000AC020020D4000020A8020020D00000205D
:10171000EC000020C8020020EA000020C4020020E3
:10172000E8000020C00200200880FE48B0F9000058
:1017300009F042FC0746FC480168384609F0CCFC39
:101740000546FA48B0F9000009F036FC8146F84831
:101750000168484609F0C0FC0746F648B0F90000A9
:10176000404209F029FC8146F3480168484609F0E7
:10177000B3FC8046394609F079FA0646294609F055
:10178000E3FD044609F0DCFB00B2EC490880E548C3
:10179000B0F9000009F010FC0746E348016838463C
:1017A00009F09AFC0446E148B0F9000009F004FC95
:1017B0008146DF480168484609F08EFC0746DD484F
:1017C000B0F9000009F0F8FB8146DB4801684846A3
:1017D00009F082FC8046394609F0B6FD06462146EE
:1017E00009F0B2FD054609F0ABFB00B2D449088010
:1017F000BDE8F0872DE9F041D249B1F90010494226
:10180000D14AB2F900201144CC4AB2F90020891A19
:10181000CB4AB2F900201144CC4AB2F90020891A0F
:10182000CB4AB2F900201144CA4AB2F90020891A01
:10183000C94AB2F90020881809F0BEFB0746C7481C
:101840000168384609F048FC0546BE49B1F9001068
:101850004942BD4AB2F900201144B84AB2F9002009
:101860001144B74AB2F90020891AB84AB2F90020E7
:10187000891AB74AB2F900201144B64AB2F90020D9
:101880001144B54AB2F90020881A09F095FB0746C1
:10189000B3480168384609F01FFC0646294609F09E
:1018A000E5F9044609F04CFB00B2AE490880A549B1
:1018B000B1F900104942A44AB2F9002011449F4AEC
:1018C000B2F90020891A9E4AB2F9002011449F4AB9
:1018D000B2F90020891A9E4AB2F9002011449D4AAB
:1018E000B2F90020891A9C4AB2F90020881809F040
:1018F00063FB074699480168384609F0EDFB054649
:101900009049B1F9001049428F4AB2F900201144C0
:101910008A4AB2F900201144894AB2F90020891A92
:101920008A4AB2F90020891A894AB2F90020114482
:10193000884AB2F900201144874AB2F90020501AAF
:1019400009F03AFB074686480168384609F0C4FBAF
:101950000646294609F0F8FC044609F0F1FA00B2FF
:10196000814908807749B1F900104942764AB2F9B5
:1019700000201144714AB2F90020891A704AB2F964
:1019800000201144714AB2F90020891A704AB2F954
:10199000002011446F4AB2F90020891A6E4AB2F948
:1019A0000020881809F008FB07466C480168384693
:1019B00009F092FB05466349B1F900104942624AB9
:1019C000B2F9002011445D4AB2F9002011445C4A8A
:1019D000B2F90020891A5D4AB2F90020891A5C4ADE
:1019E000B2F9002011445B4AB2F9002011445A4A6E
:1019F000B2F90020501A09F0DFFA0746584801688A
:101A0000384609F069FB0646294609F02FF90446D5
:101A100009F096FA00B2554908804A49B1F9001018
:101A20004942494AB2F900201144444AB2F900201F
:101A3000891A434AB2F900201144444AB2F90020FD
:101A4000891A434AB2F900201144424AB2F90020EF
:101A5000891A414AB2F90020881809F0ADFA074600
:101A60003E480168384609F037FB05463549B1F96B
:101A700000104942344AB2F9002011442F4AB2F909
:101A8000002011442E4AB2F90020891A2F4AB2F9D7
:101A90000020891A2E4AB2F9002011442D4AB2F9C9
:101AA000002011442C4AB2F90020881A09F084FA67
:101AB00007462B480168384609F00EFB06462946C2
:101AC00009F042FC044609F03BFA00B228490880BC
:101AD000BDE8F0812DE9F0410025002600272549C9
:101AE000B1F90010244AB2F90020881A09F064FA0A
:101AF0002249234A127841F822001E49B1F9021006
:101B00001D4AB2F90220881A09F056FA1D491C4AEA
:101B1000127841F822001749B1F90410164AB2F9B7
:101B2000042031E0EC000020C8020020EA00002080
:101B3000C4020020E8000020C0020020A000002015
:101B4000A20000209C0000209E00002094000020A5
:101B500096000020980000209A000020DC0200205F
:101B6000D8020020A4000020A6000020A800002029
:101B7000AA000020500000205E000020C4040020C5
:101B8000F4020020DC040020881A09F015FAFD494F
:101B9000FD4A127841F82200002416E0FB4850F874
:101BA0002410284609F062F80546F94850F8241038
:101BB000304609F05BF80646F24850F824103846E3
:101BC00009F054F80746601CC4B2062CE6DBF14964
:101BD000284609F0BFF8804609F0B2F900B2EE4994
:101BE0000880EC49304609F0B5F8804609F0A8F9BC
:101BF00000B2EA490880E749384609F0ABF8804668
:101C000009F09EF900B2E6490880DF480078401CE0
:101C1000DD49087008460078062801D100200870C8
:101C2000BDE8F08170B50025DE49B1F90010DE4A4B
:101C3000B2F90020881A09F0BFF9DC49DC4A1278B1
:101C400041F82200002408E0D84850F82410284623
:101C500009F00CF80546601CC4B2062CF4DBCD4933
:101C6000284609F077F8064609F06AF900B2D1492A
:101C70000880CF480078401CCD490870084600789D
:101C8000062801D10020087070BD70B50025CA4833
:101C90000068CA49CA4A127841F82200002408E0C4
:101CA000C64850F82410284608F0E0FF0546601C9E
:101CB000C4B2012CF4DB4FF07E51284609F04AF8FB
:101CC000C0490860BE480078401CBD4908700846FD
:101CD0000078012801D10020087070BD2DE9F04F77
:101CE00089B083468A46504608F094FF8046B64A3B
:101CF000B64B08F0B5FC02460B46CDE900010020CA
:101D0000B34908F0D3FA06460F46584608F082FF5A
:101D100032463B46CDE9020108F00CFACDE9060156
:101D2000584608F077FFCDE90401DDE9062308F005
:101D3000BDFA044608F0CCF9A649086009B0BDE830
:101D4000F08F2DE9F0419749B1F90010994AB2F9A5
:101D50000020881A09F030F907469E480168384685
:101D600009F0BAF905469348B0F9000009F024F9E2
:101D70000646294608F07AFF044609F0E1F800B269
:101D80008C490880BDE8F08170B59348006893499C
:101D90000860934801689348006808F067FF91491C
:101DA0000860914801688F48006808F05FFF0446AA
:101DB00021468C48006808F0CDFF8C4908607948BE
:101DC000B0F9000009F0F8F806468448016830468A
:101DD00009F0BAFA054685480168284609F07CF9F9
:101DE00004467E480168204608F040FF7A490860B2
:101DF0007E4801684FF07E5009F0A6FA0446794803
:101E00000168204609F068F97649086070BD70B530
:101E10007748006877490860774801687748006824
:101E200008F024FF75490860754801687348006828
:101E300008F01CFF044621467048006808F08AFF3D
:101E4000704908607048B0F9000009F0B5F806461E
:101E500068480168304609F077FA05466948016824
:101E6000284609F039F9044662480168204608F01E
:101E7000FDFE5F490860634801684FF07E5009F03D
:101E800063FA04465D480168204609F025F95B497C
:101E9000086070BD70B55D4800685D4908605D48C8
:101EA00001685D48006808F0E1FE5B4908605B4836
:101EB00001685948006808F0D9FE04462146564892
:101EC000006808F047FF564908605648B0F900001E
:101ED00009F072F806464E480168304609F034FAB7
:101EE00005464F480168284609F0F6F80446484878
:101EF0000168204608F0BAFE444908604848016875
:101F00004FF07E5009F020FA04464348016820460D
:101F100009F0E2F84049086070BD70B542480068B9
:101F200008F078FE04460022404B08F05DFB24D206
:101F30003F48006808F06EFE044600223B4B08F064
:101F400053FB1AD21B48B0F9000009F035F80646D9
:101F500038480168304609F0BFF804463648006842
:101F600080F0004635480168304609F0B5F805466E
:101F7000214609F0E9F9324908600020304908603B
:101F800070BD0000F4040020F4020020C40400200E
:101F9000DC0400200000C040E8000020EA0000202F
:101FA000EC00002048000020740000200C050020F8
:101FB000F5020020EE000020B0000020F802002012
:101FC000FC020020B400002097D17E5AFB2119406A
:101FD0000000F03FF0000020B0010020B40100201C
:101FE000A8010020B8010020A4010020AC010020BD
:101FF000DC010020E0010020D4010020E4010020E9
:10200000D0010020D801002046000020FC01002063
:1020100000020020F401002004020020F001002052
:10202000F801002044000020DC0000200000E03F18
:10203000E0000020F0020020E8020020C40100209F
:102040004C0200202DE9FE4F4E490988A1F57A7017
:1020500008F0B2FF02904C48006808F0DBFD07462C
:102060004A4A4B4B08F0FCFA054608F031F8834623
:1020700007F0CAFD00904748006808F0CBFD07460E
:10208000424A434B08F0ECFA054608F021F8834633
:1020900007F0BAFD0446009909F01EF88146394957
:1020A0000988A1F57A7008F087FF4946019008F089
:1020B00051FE8246029909F047F937490860BDE8A8
:1020C000FE8F2DE9F041002400BF56E0334850F860
:1020D0002400334941F82400324A52F82410324A8D
:1020E00052F8240008F0C2FD2F4941F824002F4A7D
:1020F00052F824102C4A52F8240008F0B7FD054687
:10210000294951F82400294608F024FE284941F8BD
:102110002400284931F91410274A32F91420881A6A
:1021200008F04AFF07461E4850F82410384609F0C8
:102130000BF906461E4850F82410304608F0CCFF34
:102140000546174850F82410284608F08FFD13491B
:1021500041F82400164850F824104FF07E5009F042
:10216000F3F80546104850F82410284608F0B4FF4C
:102170000D4941F82400601CC4B2032CA6DBBDE865
:10218000F081000008000020E00000205F40D42221
:1021900047DF913FDC000020500200204C0400206B
:1021A00058040020340200204002002028020020B1
:1021B00040040020500000205E0000207FB505464E
:1021C0000C460121082005F05EFBADF80850ADF883
:1021D00004400020ADF80A00ADF8060001A9EA4865
:1021E00005F00EFF01221146E74806F080FA322082
:1021F0008DF8000001208DF8010000208DF802000C
:1022000001208DF80300684605F09DFD0121DE48A0
:1022100006F052FA7FBD10B50121DB4806F015FD2E
:1022200040B10121D84806F021FDD8480068401C83
:10223000D649086010BD30B585B005460C46012171
:10224000042005F020FB0121082005F00FFB4FF4CE
:102250007070ADF8100028208DF8130004A9CC4848
:1022600005F048F84FF47071C94805F0F2F8ADF880
:102270000850ADF804400020ADF80A00ADF80600A3
:1022800001A9C44805F0BCFE0020C349088048806D
:10229000012088800020C8800881BE4806F043F9EC
:1022A0000420BD490880002048800120888000204B
:1022B000C8800881B74806F036F90820B64908807A
:1022C00000204880012088800020C8800881B14813
:1022D00006F029F90C20B049088000204880012030
:1022E00088800020C8800881AA4806F01CF91E20BA
:1022F0008DF8000000208DF801008DF8020001200B
:102300008DF80300684605F01EFD01221E21A1483C
:1023100006F0EDF901219F4806F0CEF905B030BD79
:1023200010B59E48007800F08000002846D10221B8
:10233000984806F08AFC002840D00221954806F013
:1023400095FC9648007800F0400040B3914806F0B4
:102350005DFC9349088008460088924909888842B4
:1023600004DA4FF6FF709049086002E000208E49C1
:1023700008608B4800888B490988401A8A49096897
:1023800008448A49086008460068894908600020B6
:102390008249087000217F4806F040FB0EE07D482E
:1023A00006F034FC7F4908807C48007840F040000B
:1023B0007A4908700221774806F030FB7D480078A2
:1023C00000F08000002846D10421724806F03DFC50
:1023D000002840D004216F4806F048FC754800787A
:1023E00000F0400040B36B4806F013FC72490880CF
:1023F0000846008871490988884204DA4FF6FF7060
:102400006F49086002E000206D4908606A48008852
:102410006A490988401A6A49096808446949086094
:102420000846006868490860002062490870002179
:10243000584806F005FB0EE0564806F0EAFB5F49F7
:1024400008805C48007840F040005A49087002213A
:10245000504806F0F5FA5D48007800F0800000284A
:1024600045D108214B4806F0F0FB80B308214948CC
:1024700006F0FCFB5548007800F0400040B34548AA
:1024800006F0CAFB5249088008460088514909886D
:10249000884204DA4FF6FF704F49086002E00020DE
:1024A0004D4908604A4800884A490988401A4A4903
:1024B00009680844494908600846006848490860B6
:1024C0000020424908700021324806F0D3FA0EE09D
:1024D000304806F0A1FB3F4908803C48007840F0B6
:1024E00040003A49087002212A4806F0C3FA3D48E4
:1024F000007800F08000A8BB1021264806F0A5FB5C
:1025000080B31021234806F0B1FB3648007800F074
:10251000400040B31F4806F082FB3349088008465C
:10252000008832490988884204DA4FF6FF70304942
:10253000086002E000202E4908602B4800882B49E3
:102540000988401A2A49096808442A490860084647
:1025500000682949086000202249087000210D48C0
:1025600006F0A2FA0EE00B4806F059FB1F4908805E
:102570001C48007840F040001A49087002210548C4
:1025800006F092FA10BD0000000C00401000002080
:10259000000C01400008004024050020000300203A
:1025A0000403002002030020280300201803002059
:1025B00000000020060300200A030020080300207A
:1025C0002C0300201C030020040000200C0300202A
:1025D000100300200E030020300300202003002001
:1025E000080000201203002016030020140300201E
:1025F00034030020240300200C00002070B50546A1
:102600000C4645F2555005F007FC284605F007FC3E
:10261000204605F007FC05F008FC05F00BFC70BD3A
:1026200010B505F002FC10BD08B500208DF80000C3
:1026300002208DF8010003208DF80200684605F0A5
:1026400082FB08BD70B506460C4615460121C8023E
:1026500005F019F9284606F018FB204606F01EFB87
:10266000304606F036FB06F03FFBFFF7DDFF06F0D5
:1026700026FB70BD10B50446204606F02AFB10BDAF
:1026800010B57F2006F01FFB06F02EFB10BD0000EA
:1026900030B589B005460C460121022005F0F3F85B
:1026A0000121112005F0E2F80121294804F0F3FE90
:1026B0004FF47070ADF8200018208DF8230003202F
:1026C0008DF8220008A9234804F014FEADF8185034
:1026D000ADF814400020ADF81A00ADF8160005A9B9
:1026E0001D4805F08DFC6020ADF804000120ADF818
:1026F00006000020ADF80A00ADF80C0001A916484C
:1027000005F0BBFC0821144806F006F901A912489F
:1027100005F0F5FC0821104806F007F901A90E485C
:1027200005F03AFD08210C4806F00CF901A90A4809
:1027300005F07DFD0821084806F00DF90121064845
:1027400006F0BAF80121044805F0B6FF09B030BD23
:10275000000C1A00001001400004004010B500F009
:1027600025FBEE2000F0DAFB00F065FB1E2000F0F8
:10277000D5FB00F060FB00F03DFB10BD70B50124FF
:1027800033E000F013FBEE2000F0C8FB00F053FB39
:10279000A02101EB4401C8B200F0C0FB00F04BFBEC
:1027A00000F028FB052004F0ACFA00F0FFFAEF205F
:1027B00000F0B4FB012004F0A4FA00F03CFB01207F
:1027C00000F0DBFB0546012004F09BFA002000F03E
:1027D000D4FB064600F00EFB052004F0B6FA46EAEC
:1027E0000520FE4921F81400641C062CC9DDFB48B5
:1027F000008808B9012070BD0020FCE738B5044608
:10280000002500F0D3FAEE2000F088FB00F013FB67
:10281000204600F083FB00F00EFB00F0EBFA0920ED
:1028200004F093FA642004F06CFA00F0BFFAEE2092
:1028300000F074FB00F0FFFA002000F06FFB00F0E6
:10284000FAFA00F0D7FA00F0B1FAEF2000F066FBD8
:1028500000F0F1FA012000F090FB8DF8000001205B
:1028600000F08BFB8DF80100002000F086FB8DF856
:10287000020000F0BFFA9DF8000001049DF801007D
:1028800001EB00209DF802104518284638BD10B510
:102890005820FFF7B3FFD2490860052004F031FA51
:1028A000CE484089CE490968A1EB0020CD49086097
:1028B000CA488089096848434FF4FA6101EBD05057
:1028C000C949086010BD2DE9F0414820FFF796FF87
:1028D000C6490860052004F014FAC0488088010445
:1028E000BE480089BF4A1268504301EBD010002156
:1028F000BF4A03C2B9484088C103B848C088B94A32
:102900001268504301EB10200021BA4A03C2B748B5
:102910000068083A18CAA0FB032501FB035100FB1D
:102920000411500D40EAC1234815B149D1E90021F5
:102930009A1A60EB0100410441EAD230AE490860C6
:10294000A9480068B0F5FA6F46DAA6480068404327
:10295000C017C117A94A03C2A3480068A0F5FA60CE
:102960004043401000EB8000C117A54A03C29E48B7
:102970000068A0F5FA604043801000EB8000C117AA
:10298000A04A03C2984800689F4988422FDA9648B7
:10299000006800F2DC50C0EBC0009349096801F206
:1029A000DC514843C117964AD2E90032C018514160
:1029B000934A03C28C48006800F2DC504043401048
:1029C00000EB400101EBC000C1178E4B0CCB80180F
:1029D00059418C4A03C20AE00021884A11605160C3
:1029E0000020874A10605060864A116051607E481E
:1029F000006882490968401A7B4908607C48D0E930
:102A000000207F49D1E90031D21A60EB01007849FA
:102A1000C1E900207748D0E900307A49D1E90021A6
:102A20009A1A60EB01007349C1E900206F48006801
:102A3000002550C9A0FB041705FB047400FB0644E5
:102A4000480D40EAC4256015694C12CC6D1A60EB44
:102A50000401E80B40EA4142C913104608F0C7FAE6
:102A60006A490860BDE8F0812DE9F0470446204638
:102A700007F040FA8146664908F02EFB074607F04A
:102A800081F906464FF07E5108F054FC0546614836
:102A90000168614808F020FB8046294608F01CFBCD
:102AA0005E49086008460068BDE8F08770B55C487C
:102AB00000685C4908605C4801685C48006808F090
:102AC000D5F85A4908605A4801685848006808F023
:102AD000CDF8044621465548006808F03BF95549B1
:102AE0000860504801684D48006808F02DFC054614
:102AF00050480168284608F0EFFA04464948016842
:102B0000204608F0B3F8464908604A4801684FF08B
:102B10007E5008F019FC044644480168204608F03D
:102B2000DBFA4249086070BD70B54348006843490C
:102B30000860434801684348006808F097F8414935
:102B40000860414801683F48006808F08FF8044673
:102B500021463C48006808F0FDF83C4908603748C9
:102B600001683B48006808F0EFFB054637480168FC
:102B7000284608F0B1FA044630480168204608F0BB
:102B800075F82D490860314801684FF07E5008F013
:102B9000DBFB04462B480168204608F09DFA2949D2
:102BA000086070BD70B52B4800682B4908602B4841
:102BB00001682B48006808F059F82949086029483D
:102BC00001682748006808F051F804462146244867
:102BD000006808F0BFF82449086047E0B803002007
:102BE0000401002008010020BC000020000100209A
:102BF000F8000020180100202001002030010020F2
:102C0000400100204801002024FAFFFFB800002006
:102C100041D3423E540100207B627046B000002048
:102C2000780100207C01002070010020800100203C
:102C30006C0100207401002090010020940100200C
:102C40008801002098010020840100208C010020D0
:102C5000C40100201C0200202002002014020020D9
:102C600024020020100200201802002038480168C9
:102C70003848006808F068FB054637480168284670
:102C800008F02AFA044632480168204607F0EEFFB1
:102C900032490860304801684FF07E5008F054FB1C
:102CA00004462F480168204608F016FA2C490860AF
:102CB00070BD2DE9F05F2B4A5168106808F044FBA5
:102CC0008046294A5168106808F03EFB8146274932
:102CD00008F002FA0746414608F03CF80546214A4A
:102CE0009168906908F030FB82461F4A91689069AC
:102CF00008F02AFB83464FF0834108F0EDF9814646
:102D0000514608F027F80746164AD168506908F07E
:102D10001BFB8246144AD168506908F015FB8346B4
:102D2000134908F0D9F98146514608F013F8804656
:102D3000394607F09BFF0646294607F097FF0446F1
:102D40004FF0745108F0C8F90A490860BDE8F09FD7
:102D500020020020B8000020180200201C020020E1
:102D600024020020A80400208C0400200000C040A1
:102D700000002041C401002008B50121042004F016
:102D800075FD4FF4C050ADF8000010208DF8030021
:102D900003208DF802006946914804F0ABFA012047
:102DA000904908609049C1F8AC0108BD10B58C4845
:102DB000001D006820F470408949091D086008461C
:102DC000006840F44050086001208649091F0860EF
:102DD0008549C1F8B001042003F093FF0020814928
:102DE000091F0860042003F08CFF00207E49C1F811
:102DF000B00110BD10B57A48001D006820F4704085
:102E00007749091D08600846006840F44050086092
:102E10000020744908607449C1F8AC01042003F033
:102E200070FF01206F4908606F49C1F8AC010420B0
:102E300003F067FF10BD10B500246948001D00684D
:102E400020F470406649091D08600846006840F497
:102E50000040086001206349091F086003F051FF2A
:102E600001206149C1F8B00103F04BFF07E0601C8D
:102E7000C4B2FA2C03DDFFF7BDFF012010BD594895
:102E8000843800680028F2D15649086000BFF5E791
:102E900010B50020534908605148001D006820F417
:102EA00070404F49091D08600846006840F44050D2
:102EB000086000204C49C1F8AC01022003F021FF5A
:102EC000012048490860022003F01BFF002046490A
:102ED000C1F8B00110BD10B500204249086040485B
:102EE000001D006820F470403D49091D0860084637
:102EF000006840F44050086001203B49C1F8AC0133
:102F0000022003F0FEFE012036490860022003F093
:102F1000F8FE00203449C1F8B00110BD70B5044678
:102F20002F48001D006820F470402D49091D0860DD
:102F30000846006840F440500860002029490860B5
:102F4000002517E0E0092749091F08606006040E04
:102F5000022003F0D6FE01202349C1F8B00102206F
:102F600003F0CFFE00201F490860022003F0C9FED5
:102F7000681CC5B2082DE5DB70BD70B505460024A0
:102F80001748001D006820F470401549091D0860AD
:102F90000846006840F400400860002616E0002063
:102FA00010490860022003F0ACFE01200E49C1F870
:102FB000B0016006040E0B488438006808B1601C3C
:102FC000C4B2012003F09DFE701CC6B2082EE6DBE1
:102FD00015B9FFF780FF01E0FFF75AFF204670BDEB
:102FE00000080140B00121420000214270B50546B1
:102FF0000C4600F0CDF9D02000F074FA00F005FA8C
:1030000018B100F0E3F9012070BD284600F06AFA1B
:1030100000F0FBF9204600F065FA00F0F6F918B16F
:1030200000F0D4F90120EFE700F0D0F90020EBE741
:1030300070B504460025BC2C01DB012510E0622C94
:1030400001DB02250CE02A2C01DB032508E0142C0F
:1030500001DB042504E00A2C01DB052500E0062540
:1030600029461A20FFF7C2FF70BD70B50446B4F5BB
:103070007A7F01DD4FF47A74042C00DA04244FF4D3
:103080007A7090FBF4F0401EC5B229461920FFF774
:10309000ADFF0546264604EBD671C1F34F00FFF79E
:1030A000C7FF70BD70B5044600F072F9D02000F083
:1030B00019FA00F0AAF9204600F014FA00F0A5F978
:1030C00000F066F9D12000F00DFA00F09EF9002022
:1030D00000F031FA054600F079F9284670BD10B5C8
:1030E0000446E006010E1C20FFF780FF10BD10B55E
:1030F0000446E006010E1B20FFF778FF10BD10B557
:1031000000F02DF980216B20FFF770FF642003F0A1
:103110001CFE00216B20FFF769FF0320FFF7E7FF8C
:103120000020FFF7DCFF3220FFF79FFF002138204F
:10313000FFF75CFF00216A20FFF758FF00212320E2
:10314000FFF754FF80213720FFF750FF7520FFF76E
:10315000A9FF0446682C0BD101216B20FFF746FF25
:1031600000216C20FFF742FF3220FFF77EFF01E0D5
:10317000012010BD0020FCE72DE9F04106460F4676
:1031800014461D4600F004F9002141EA4601C8B288
:1031900000F0A8F900F039F920B100F017F901208A
:1031A000BDE8F081384600F09DF900F02EF900F0FE
:1031B000EFF8012101EB4601C8B200F093F900F0ED
:1031C00024F90DE0012C04D1002000F0B4F928709E
:1031D00003E0012000F0AFF92870601EC4B26D1C3E
:1031E000002CEFD100F0F2F80020D9E72DE9F84FDC
:1031F0006B46022241216820FFF7BEFF9DF80100C7
:103200009DF8001040EA01200FFA80FA504607F0BE
:10321000D4F9804600224B4B07F048F806464A4A4C
:103220004A4B06F087FF044606F052FF83464849A2
:10323000584607F051FF044607F082FE00B2BDE891
:10324000F88F2DE9FC4104460D4616466B460622D2
:1032500043216820FFF790FF0746BFB99DF80100A2
:103260009DF8001040EA012000B220809DF8030084
:103270009DF8021040EA012000B228809DF8050068
:103280009DF8041040EA012000B230803846BDE8C5
:10329000FC812DE9FC4104460D4616466B4606228C
:1032A0003B216820FFF768FF0746BFB99DF8010082
:1032B0009DF8001040EA012000B220809DF8030034
:1032C0009DF8021040EA012000B228809DF8050018
:1032D0009DF8041040EA012000B230803846BDE875
:1032E000FC812DE9F04105460E461746984600F050
:1032F0004FF8002141EA4501C8B200F0F3F800F0B0
:1033000084F820B100F062F80120BDE8F081304679
:1033100000F0E8F800F079F800240CE018F8040058
:1033200000F0E0F800F071F818B100F04FF801205B
:10333000EBE7601CC4B2BC42F0DB00F047F80020B1
:10334000E3E7000000407540A4703D0AD7434240C7
:103350000000C84210B5022003F0D3FC10BD08B530
:103360000121102004F082FA4FF4C050ADF80000A3
:1033700010208DF8030003208DF80200694686486E
:1033800003F0B8FF4FF4C051834804F060F808BD63
:1033900010B58148406820F470407F494860084675
:1033A000406840F44050486001207C4908607C49F6
:1033B000C1F8B001FFF7CEFF002078490860FFF7A1
:1033C000C9FF00207649C1F8B00110BD10B57248A0
:1033D000406820F47040704948600846406840F4F6
:1033E0004050486000206D49091D08606C49C1F8D3
:1033F000AC01FFF7AFFF01206849091D086068496B
:10340000C1F8AC01FFF7A6FF10BD10B5002462485B
:10341000406820F47040604948600846406840F4C5
:103420000040486001205D490860FFF793FF0120DC
:103430005B49C1F8B001FFF78DFF07E0601CC4B223
:10344000FA2C03DDFFF7C2FF012010BD534880387E
:1034500000680028F2D15149091D086000BFF4E757
:1034600010B500204D49091D08604B48406820F404
:103470007040494948600846406840F44050486000
:1034800000204749C1F8AC01FFF764FF0120434920
:10349000091D0860FFF75EFF00204149C1F8B00137
:1034A00010BD10B500203D49091D08603A4840682C
:1034B00020F47040384948600846406840F4405065
:1034C000486001203649C1F8AC01FFF743FF0120F5
:1034D0003249091D0860FFF73DFF00203049C1F85F
:1034E000B00110BD70B504462B48406820F4704010
:1034F000294948600846406840F440504860002030
:103500002649091D0860002512E0E00923490860EA
:103510006006040E01202249C1F8B001FFF71AFF2E
:1035200000201E49091D0860FFF714FF681CC5B282
:10353000082DEADB70BD70B50546002416484068CA
:1035400020F47040144948600846406840F4004048
:103550004860002615E000201049091D0860FFF7AB
:10356000F9FE01200E49C1F8B0016006040E0B48B7
:103570008038006808B1601CC4B2FFF7EBFE701C15
:10358000C6B2082EE7DB15B9FFF78BFF01E0FFF7A6
:1035900067FF204670BD000000100140AC012242D0
:1035A0000000224238B50446F74890F82400C0B124
:1035B00014B10220009001E000200090F24A12684D
:1035C000D17BF14A526810786B460122FFF789FEE1
:1035D00010B14FF0FF3038BD9DF80010EA4841743B
:1035E00023E0E948807A10B94FF0FF30F3E724B1C7
:1035F000E548407C08B10020EDE714B101200090BF
:1036000001E000200090E04A1268D17BDE4A526857
:1036100010786B460122FFF764FE10B14FF0FF30C7
:10362000D9E79DF80010D84841740020D3E738B599
:1036300000241FE0D4480068C07AA04204D0D248D9
:103640000068407DA04200D112E0CF494968087867
:103650006B4601222146FFF78FFD10B14FF0FF307E
:1036600038BD9DF800202146C8A005F06DFB00BFC5
:10367000601CC4B2C44840680079A042DADC002073
:10368000EEE770B504460D46BF480068C07AA04218
:1036900004D0BD480068407DA04202D14FF0FF3009
:1036A00070BDB94840680079A04202DC4FF0FF309D
:1036B000F6E7B549496808782B4601222146FFF70D
:1036C0005BFDEDE738B50446AF4890F82300A04213
:1036D00001D1002038BD14B13020009001E000205D
:1036E0000090A948807C20B19DF8000040F00200C5
:1036F0000090A54890F8220020B19DF8000040F00D
:1037000080000090A04A1268117D9F4A526810788C
:103710006B460122FFF7E5FD10B14FF0FF30D9E70E
:10372000994880F823400020D4E738B5044604F0D7
:10373000700010B10120009005E014B1002000904D
:1037400001E040200090904A1268917C8E4A5268B5
:1037500010786B460122FFF7C4FD20B100218A4892
:103760008172481E38BD9DF8000020F04001864857
:1037700001730020009004F0400020B99DF8000083
:1037800040F00400009004F0200020B99DF80000F3
:1037900040F00200009004F0100020B99DF80000F5
:1037A00040F00100009004F0080020B99DF80000EE
:1037B00040F038000090744A1268D17C724A526816
:1037C00010786B460122FFF78CFD20B100216E4876
:1037D0008172481EC6E724B1082C02D00020FFF7F2
:1037E00071FF6948847200210175322003F0ADFA3F
:1037F0000020B7E738B504466348807CA04201D179
:10380000002038BD002C46D05F4A126811795E4A0C
:10381000526810786B460122FFF7AEFC10B14FF0F2
:10382000FF30EEE79DF8000020F020000090564A9F
:1038300012681179544A526810786B460122FFF7DA
:1038400050FD10B14FF0FF30DBE7032003F07DFAAD
:10385000022000904C4890F8220020B19DF8000012
:1038600040F080000090484890F8230020B19DF877
:10387000000040F030000090434A1268117D424A37
:10388000526810786B460122FFF72BFD002851D0BB
:103890004FF0FF30B5E73C4A126811793A4A526856
:1038A00010786B460122FFF767FC10B14FF0FF3034
:1038B000A7E73548807A00F0010028B19DF80000A4
:1038C00040F02000009004E09DF8000020F020006F
:1038D00000902D4A126811792B4A526810786B4675
:1038E0000122FFF7FEFC10B14FF0FF3089E7032003
:1038F00003F02BFA244890F8220010B180200090A9
:1039000001E000200090204890F8230020B19DF8AD
:10391000000040F0300000901B4A1268117D1A4AE6
:10392000526810786B460122FFF7DBFC10B14FF0B4
:10393000FF3066E714488474002062E708B5124837
:10394000807A10B94FF0FF3008BD002000900E4A79
:103950001268D17B0C4A526810786B460122FFF73F
:10396000C0FC10B14FF0FF30EEE7074A1268517902
:10397000054A526810786B460122FFF7B2FC68B125
:103980004FF0FF30E0E700003803002025233578B2
:103990003A20252335780D0A00000000FB4A126802
:1039A0001179FA4A526810786B460122FFF799FCA8
:1039B00010B14FF0FF30C7E7F44890F8240000281A
:1039C00050D00C200090F14A12681179EF4A5268E9
:1039D00010786B460122FFF784FC10B14FF0FF30E6
:1039E000B2E7C0200090E948807A00F0010020B1E1
:1039F0009DF8000040F020000090E44A1268117920
:103A0000E24A526810786B460122FFF76AFC10B157
:103A10004FF0FF3098E7DD48407C10B10220009065
:103A200001E000200090D94A1268D17BD74A526841
:103A300010786B460122FFF754FC10B14FF0FF30B5
:103A400082E700200090D14A12685179CF4A52682B
:103A500010786B460122FFF744FC002855D04FF048
:103A6000FF3071E704200090C84A12681179C74AF4
:103A7000526810786B460122FFF733FC10B14FF00B
:103A8000FF3061E7C148807C20B9C048807A00F0EF
:103A9000010010B94020009001E060200090BB4A76
:103AA00012681179B94A526810786B460122FFF703
:103AB00018FC10B14FF0FF3046E7322003F045F913
:103AC000B248407C10B10120009001E0002000903D
:103AD000AE4A1268D17BAD4A526810786B4601221B
:103AE000FFF7FFFB10B14FF0FF302DE7A74A126838
:103AF0005179A64A52681078A44B10330122FFF77F
:103B0000F0FB10B14FF0FF301EE700201CE770B54E
:103B10000446002624F001049C4890F8240008B1D3
:103B2000002070BD9948807A10B94FF0FF30F8E757
:103B30009648057C807A2040944908740846007CA9
:103B4000A04202D04FF0FF3600E0002614B98F48A3
:103B5000007D18B10120FFF725FD02E00020FFF7EE
:103B600021FD3CB1FFF7EAFE20B1884805744FF013
:103B7000FF30D6E73046D4E738B504468348807A2C
:103B800010B94FF0FF3038BDBC2C02DB0120009093
:103B900015E0622C02DB0220009010E02A2C02DBF0
:103BA000032000900BE0142C02DB0420009006E0C0
:103BB0000A2C02DB0520009001E0062000907348EB
:103BC000C07A9DF80010884201D10020DBE76F4ADF
:103BD000126891786D4A526810786B460122FFF79F
:103BE00080FB10B14FF0FF30CDE79DF80010674823
:103BF000C1720020C7E738B50446282C02DD4FF01B
:103C0000FF3038BDDCB90020FFF75CFD00208DF8E7
:103C1000000007208DF801005C4A1268917C5B4A25
:103C2000526810786B460222FFF75BFB10B14FF031
:103C3000FF30E6E70021554801750020E1E701204B
:103C4000FFF740FD20208DF80000012C06D1002058
:103C50008DF801000520FFF78FFF17E0052C06DC2B
:103C600001208DF801000520FFF786FF0EE0142CDF
:103C700006DC02208DF801000A20FFF77DFF05E039
:103C800003208DF801001420FFF776FF9DF8010056
:103C9000072101EB8010C0B28DF801003B4A126889
:103CA000917C3A4A526810786B460222FFF719FB62
:103CB00010B14FF0FF30A4E7082134488172002191
:103CC0000173012101750020FFF721FF002098E713
:103CD00038B504462D48807A10B94FF0FF3038BD12
:103CE0002A4890F8240010B14FF0FF30F7E727483A
:103CF000007D50B134B1282C04DCE0B2FFF77BFF2B
:103D00000020ECE70020FFF776FF042C01DA042402
:103D100004E0B4F57A7F01DD4FF47A744FF47A70E1
:103D200090FBF4F0401EC0B20090184A126851781F
:103D3000164A526810786B460122FFF7D2FA10B18A
:103D40004FF0FF30CBE79DF80000401C4FF47A7134
:103D500091FBF0F081B20D48C1810146C98948103C
:103D6000FFF70AFF0020BAE738B504460748807A13
:103D700010B94FF0FF3038BD022C09D0042C0AD006
:103D8000082C0BD0102C0FD10BE0000038030020C2
:103D9000002000900BE00820009008E01020009028
:103DA00005E01820009002E04FF0FF30E3E700BF8D
:103DB000F848407A9DF80010B0EBE10F01D10020E7
:103DC000D9E7F44A1268D179F24A526810786B4602
:103DD0000122FFF786FA10B14FF0FF30CBE79DF8D4
:103DE0000000C110EB4841720020C4E738B504461A
:103DF000E848807A10B94FF0FF3038BDFA2C09D06E
:103E0000B4F5FA7F09D0B4F57A7F09D0B4F5FA6F2A
:103E10000CD108E0002000900BE00820009008E0A2
:103E20001020009005E01820009002E04FF0FF30D5
:103E3000E3E700BFD748007A9DF80010B0EBE10F30
:103E400001D10020D9E7D34A12689179D14A52684A
:103E500010786B460122FFF744FA10B14FF0FF30A3
:103E6000CBE79DF80000C010CA4908720020C4E7E3
:103E70001CB580208DF80000C64A1268917CC54AA6
:103E8000526810786B460122FFF72BFA10B14FF001
:103E9000FF301CBD642002F058FF00208DF80000A8
:103EA000BC4A1268917CBB4A526810786B4601226A
:103EB000FFF717FA10B14FF0FF30EAE7B54A126882
:103EC000917DB44A526810786B460622FFF754F988
:103ED00010B14FF0FF30DCE79DF80500C007400F40
:103EE0009DF8031001F0010140EA41009DF8011026
:103EF00001F0010140EA010494B1012C03D1012138
:103F0000A448C17431E0022C03D10021A148C1743E
:103F10002BE02146A0A004F017FF4FF0FF30B8E7D8
:103F20009C4A1268D1789B4A526810786B460122ED
:103F3000FFF722F910B14FF0FF30AAE79DF800001B
:103F400000F00F042CB99E4804F0FEFE4FF0FF3045
:103F50009FE7042C06D19BA004F0F6FE01218D48BA
:103F6000C17402E000218B48C174FF21894881722D
:103F7000FF2088490872FF2186484172C1724FF6BE
:103F8000FF71C181FF21017481740121017380F8E7
:103F90002210002180F82310417501751630016050
:103FA00041608160163880F8241080F82510C184A3
:103FB0004FF4FA60FFF71AFF10B14FF0FF3068E7D7
:103FC0000220FFF7D1FE10B14FF0FF3061E72A2049
:103FD000FFF7D2FD10B14FF0FF305AE73220FFF764
:103FE00077FE10B14FF0FF3053E70020FFF78FFD51
:103FF00010B14FF0FF304CE70020FFF7FBFB10B192
:104000004FF0FF3045E70020FFF78FFB002040E72F
:1040100070477CB504460D465E48807A00F070001B
:1040200010B94FF0FF307CBD5A4A1268117B594AD3
:10403000526810786B460622FFF79EF810B14FF0D9
:10404000FF30F0E79DF801009DF8001040EA0120E4
:1040500000B220809DF803009DF8021040EA012084
:1040600000B260809DF805009DF8041040EA012030
:1040700000B2A08015B12846FFF7CAFF0020D2E7A2
:104080007CB504460D464348807A00F0080010B91C
:104090004FF0FF307CBD3F4A1268517B3D4A526869
:1040A00010786B460622FFF767F810B14FF0FF302B
:1040B000F0E79DF801009DF8001040EA012000B2F1
:1040C00020809DF803009DF8021040EA012000B214
:1040D00060809DF805009DF8041040EA012000B2C0
:1040E000A08015B12846FFF793FF0020D2E72DE905
:1040F000FE4F05460C462748807A18B94FF0FF302E
:10410000BDE8FE8F234A1268917B224A52681078DC
:1041100002AB0222FFF730F810B14FF0FF30EFE7AB
:104120009DF809009DF8081040EA012006B214B17C
:104130002046FFF76DFF17494968C88806F084FFDD
:10414000144901904968B1F9080006F035FF83462B
:10415000304606F031FF5946009007F0F5F88246E8
:10416000019906F0F7FD81461E4906F07FFD804665
:104170004FF08F4106F0B0FF074606F0E1FE2860E1
:104180000020BDE710B588B004466CBB4FF0FF308F
:1041900008B010BD38030020556E737570706F72D3
:1041A00074656420736F6674776172652070726FD6
:1041B00064756374207265762025642E0A00000001
:1041C00070C3000848616C662073656E736974691A
:1041D00076697479207061727420666F756E642ED2
:1041E0000A00000000000C42FFE7206830B9606858
:1041F00020B9A06810B9002008B010BDFA4949687C
:10420000087806AB03221146FEF7B6FF10B14FF057
:10421000FF30F1E79DF81800082101EB201000F0B5
:104220000F00ADF800009DF8190001EB201000F020
:104230000F00ADF802009DF81A0001EB201000F00D
:104240000F00ADF8040020684100BDF900004030C7
:1042500091FBF0F000B2ADF8100060684100BDF9CC
:104260000200403091FBF0F000B2ADF81200A068FF
:104270004100BDF90400403091FBF0F000B2ADF810
:104280001400D9494968087806AB06221146FEF7A2
:1042900073FF10B14FF0FF30AEE79DF819009DF8A5
:1042A000181040EA012000B2ADF808009DF81B008C
:1042B0009DF81A1040EA012000B2ADF80A009DF8FE
:1042C0001D009DF81C1040EA012000B2ADF80C0062
:1042D000BDF81000BDF80810084400B2ADF8100099
:1042E000BDF81200BDF80A10084400B2ADF8120083
:1042F000BDF81400BDF80C10084400B2ADF814006D
:10430000BDF81000000A8DF81800BDF81000C0B20A
:104310008DF81900BDF81200000A8DF81A00BDF8DA
:104320001200C0B28DF81B00BDF81400000A8DF811
:104330001C00BDF81400C0B28DF81D00AA494968E0
:10434000087806AB06221146FEF7CBFF10B14FF0FE
:10435000FF3051E700204FE70146A348007A30B113
:10436000012807D0022809D003280FD10AE0FA203B
:1043700008800EE04FF4FA7008800AE04FF47A707B
:10438000088006E04FF4FA60088002E00020088010
:1043900000BF00BF0020704701469348407A30B10B
:1043A000012807D0022808D003280CD108E00220F9
:1043B00008700BE00420087008E00820087005E091
:1043C0001020087002E04FF0FF30704700BF8648B1
:1043D000C07C18B108784006000E08700020F4E791
:1043E00001468148C07A082817D2DFE800F0170498
:1043F000070A0D101318BC20088013E06220088003
:1044000010E02A2008800DE0142008800AE00A202D
:10441000088007E00520088004E000BF00BF0020FE
:10442000088000BF00BF0020704701466E4890F82A
:10443000240010B14FF0FF3070476B48C0890880EE
:104440000020F9E7014600200880401E7047014621
:104450004FF0FF30704701466348007A30B10128C1
:1044600007D0022808D003280CD108E05F48086074
:104470000BE05F48086008E05E48086005E05E48C1
:10448000086002E04FF0FF30704700BF0020FBE7FC
:1044900001465548407A30B1012808D002280AD098
:1044A000032810D10BE04FF4804008800EE041F665
:1044B0009C7008800AE04FF48050088006E04FF4BA
:1044C0000060088002E04FF0FF30704700BF4648B0
:1044D000C07C10B10888401008800020F5E7014634
:1044E0004148007C08700020704701463E48807AB1
:1044F00010B10120087001E0002008700020704712
:1045000038B504463848807A10B94FF0FF3038BDCE
:10451000354A1268117C344A526810786B46022280
:10452000FEF72AFE10B14FF0FF30F0E79DF80100D2
:104530009DF8001040EA012000B220800020E6E74C
:104540002DE9FE4F0746884692461D46DDF830B0FD
:1045500000260024244890F8240010B1601EBDE815
:10456000FE8F002028702048807A10B94FF0FF306D
:10457000F5E71D48007C10B94FF0FF30EFE71A480F
:10458000007C00F0400008B1B01CC6B21648007CA8
:1045900000F0200008B1B01CC6B21348007C00F047
:1045A000100008B1B01CC6B20F48007C00F0080033
:1045B00008B1B01DC6B20C4A1268917A0A4A526814
:1045C00010786B460222FEF7D7FD10B14FF0FF3096
:1045D000C5E79DF801009DF8001040EA0129B145AA
:1045E0000CDA0020BBE70000380300200000034382
:1045F000000083423333034233338341FC48406835
:104600004088B9EB600F17DDF94A1268517CF84A0F
:10461000526810786B460122FEF7AEFD10B14FF0E4
:10462000FF309CE79DF8000000F0100020B1FFF77C
:1046300085F96FF0010092E75046FFF7E9FCEC4A7C
:104640001268D17AEA4A526810786B463246FEF711
:1046500093FD10B14FF0FF3081E799FBF6F0401E5B
:104660008BF8000000202870B4422AD0E048007C7B
:1046700000F0080028B3601C1DF800001DF80410AD
:1046800040EA012000B2A8F80000E01C1DF800106C
:10469000A01C1DF8000041EA002000B2A8F80200AA
:1046A000601D1DF80010201D1DF8000041EA0020CB
:1046B00000B2A8F80400287840F008002870A01D77
:1046C00084B2B44213D0CA48007C00F0400070B1FC
:1046D000601C1DF800001DF8041040EA012000B223
:1046E0003880287840F040002870A01C84B2B44282
:1046F00013D0BF48007C00F0200070B1601C1DF892
:1047000000001DF8041040EA012000B278802878EB
:1047100040F020002870A01C84B2B44213D0B448EA
:10472000007C00F0100070B1601C1DF800001DF846
:10473000041040EA012000B2B880287840F0100050
:104740002870A01C84B2002009E7F8B504460F4683
:104750001646A74890F8240010B94FF0FF30F8BD76
:10476000A348807A10B94FF0FF30F8E7A04A1268EA
:10477000917A9F4A526810786B460222FEF7FCFC41
:1047800010B14FF0FF30EAE79DF801009DF80010EE
:1047900040EA0125A54203DA00203070401EDEE722
:1047A000934840684088B5EB600F17DD904A126867
:1047B000517C8F4A526810786B460122FEF7DCFC70
:1047C00010B14FF0FF30CAE79DF8000000F0100074
:1047D00020B1FFF7B3F86FF00100C0E7E2B2844BFD
:1047E0001B68D97A824B5B6818783B46FEF7C4FC9D
:1047F00010B14FF0FF30B2E795FBF4F0401E30707F
:104800000020ACE701467A4880F82210002070476B
:104810007CB5054676494968087801AB04220D212C
:10482000FEF7AAFC08B107207CBD9DF80700C0F385
:1048300001109DF8041001F0E00140EAE1008DF85C
:1048400000009DF80700C0F381009DF8051001F0FD
:10485000E00140EAE1008DF801009DF8070000F05A
:1048600003009DF8061001F0E00140EAE1008DF838
:10487000020000241CE01DF8040018B9002045F8CF
:10488000240013E05B4845F8240006E055F82400B6
:10489000594906F021FC45F824001DF80400401E8B
:1048A000C0B20DF804000028F0D100BF601CC4B2F3
:1048B000032CE0DB0020B7E72DE9FE4F06460F464C
:1048C00000256846FFF7A4FF002442E056F82400C4
:1048D00057F82410A0EB010ABAF1000F01DB514692
:1048E00001E0CAF10001084606F066FB83464FF07E
:1048F0008F4106F02FFA80465DF82400002106F073
:10490000EBFA16D05DF82410404606F023FA8246F2
:104910004FF07E5106F018FD814629F0004A3748D5
:10492000416A504606F0A4FC12D20120A040054383
:104930000EE03248C169404606F09AFB05D32F4885
:10494000016A404606F094FC02D20120A0400543D3
:10495000641C032CBADB2846BDE8FE8F2DE9FC5F02
:1049600006460F46002522494968087801AB032214
:104970000D21FEF701FC10B10720BDE8FC9F9DF85A
:10498000040000F01F008DF804009DF8050000F001
:104990001F008DF805009DF8060000F01F008DF83F
:1049A0000600002462E056F8240057F82410A0EB1B
:1049B000010BBBF1000F01DB594601E0CBF1000117
:1049C000084606F0F9FA4FF08F41009006F0C2F960
:1049D000814601A8005DC0B30849086806F034FBB1
:1049E00083465946064806F0B5F980460FE00000B8
:1049F000380300207B14AE3E1D5A843F98B5000852
:104A000000B04C45FE49404606F066FB804601A8D2
:104A1000005D401EC0B201A908550028F2D14146F0
:104A2000484606F097F983464FF07E5106F08CFC1D
:104A300082462AF0004BF3488169584606F018FC7C
:104A400013D20120A04005430FE0FFE7ED480169C4
:104A5000484606F00DFB05D3EA484169484606F092
:104A600007FC02D20120A0400543641C032C9ADB02
:104A7000284682E72DE9F04F87B005460C4691465F
:104A800001208DF8100000208DF81100DE4A126818
:104A9000917CDD4A5268107804AB0222FEF721FCBB
:104AA00020B14FF0FF3007B0BDE8F08FC82002F012
:104AB0004CF900208DF81000D34A1268D17BD24AFD
:104AC0005268107804AB0122FEF70BFC10B14FF0D6
:104AD000FF30E8E7CC4A12685179CB4A5268107827
:104AE00004AB0122FEF7FDFB10B14FF0FF30DAE717
:104AF000C54A1268917CC44A5268107804AB0122FE
:104B0000FEF7EFFB10B14FF0FF30CCE7BE4A126862
:104B1000D17DBD4A5268107804AB0122FEF7E1FB5B
:104B200010B14FF0FF30BEE7B74A12681179B64AAC
:104B30005268107804AB0122FEF7D3FB10B14FF09E
:104B4000FF30B0E70C208DF81000AF4A12681179E1
:104B5000AD4A5268107804AB0122FEF7C2FB10B1D7
:104B60004FF0FF309FE70F2002F0EFF8A648806A71
:104B7000407A8DF81000A44A12689178A24A5268CF
:104B8000107804AB0122FEF7ACFB10B14FF0FF3000
:104B900089E79D48806A007A8DF810009A4A126869
:104BA0005178994A5268107804AB0122FEF799FBBC
:104BB00010B14FF0FF3076E7B9F1000F07D09248FF
:104BC000806A807A40F0E0008DF8100004E08E48A2
:104BD000806A807A8DF810008B4A126891798A4A2F
:104BE0005268107804AB0122FEF77BFB10B14FF046
:104BF000FF3058E7B9F1000F07D08348806AC07AC8
:104C000040F0E0008DF8100003E07E48C07A8DF897
:104C100010007D4A1268D1797B4A5268107804AB43
:104C20000122FEF75EFB10B14FF0FF303BE7B9F118
:104C3000000F02D0C82002F088F840208DF8100044
:104C4000714A12681179704A5268107804AB0122D7
:104C5000FEF747FB10B14FF0FF3024E778208DF8C6
:104C60001000694A12685179674A5268107804AB9B
:104C70000122FEF736FB10B14FF0FF3013E7614918
:104C8000888902F062F800208DF810005E4A1268F0
:104C900051795D4A5268107804AB0122FEF721FB7E
:104CA00010B14FF0FF30FEE6574A1268917A564A2B
:104CB0005268107804AB0222FEF75EFA10B14FF092
:104CC000FF30F0E69DF811009DF8101040EA012B2E
:104CD0000C209BFBF0F0C6B20020A8606860286042
:104CE000A06060602060824665E0474A1268D17A21
:104CF000454A5268107804AB0C22FEF73DFA10B119
:104D00004FF0FF30CFE69DF811009DF8101040EAFB
:104D1000012000B2ADF808009DF813009DF81210B4
:104D200040EA012000B2ADF80A009DF815009DF898
:104D3000141040EA012000B2ADF80C00BDF90810D3
:104D4000206808442060BDF90A106068084460606B
:104D5000BDF90C10A0680844A0609DF817009DF8EC
:104D6000161040EA012000B2ADF800009DF81900CD
:104D70009DF8181040EA012000B2ADF802009DF83D
:104D80001B009DF81A1040EA012000B2ADF80400A3
:104D9000BDF90010286808442860BDF90210686851
:104DA00008446860BDF90410A8680844A8600AF1C6
:104DB000010000F0FF0AB24597DB1248D0F800C0AE
:104DC0002868C117090441EA10410704624600231C
:104DD000384603F094FF32460023CDE9020103F088
:104DE0008EFF28600748D0F800C06868C117090422
:104DF00041EA1041070462460023384606E00000FD
:104E000054E3853F98B500083803002003F077FF8E
:104E100032460023CDE9020103F071FF6860FE48CD
:104E2000D0F800C0A868C117090441EA104107047E
:104E300062460023384603F062FF32460023CDE984
:104E4000020103F05CFFA860F348D0F804C02168B9
:104E5000C817000440EA11480F0462460023384690
:104E6000414603F04CFF32460023CDE9020103F036
:104E700046FF2060E848D0F804C06068C117090404
:104E800041EA1041070462460023384603F037FF29
:104E900032460023CDE9020103F031FF6060DE48B5
:104EA000D0F804C0A068C117090441EA1041070402
:104EB00062460023384603F022FF32460023CDE944
:104EC000020103F01CFFA060A068002804DDA068B8
:104ED000A0F58030A06003E0A06800F58030A060FD
:104EE0000020E0E538B50446CC4890F82400A04204
:104EF00001D1002038BD24B3C84890F8250010B96E
:104F00004FF0FF30F6E70020FEF74CFB0020FEF7E5
:104F100071FCC249C88CFEF7DBFE00200090BF493F
:104F2000496808786B4601222321FEF7DAF901214E
:104F3000BA4880F824100120FEF734FBFEF7FEFC8F
:104F400013E00020FEF72EFBB448007C0090B3492C
:104F5000496808786B4601222321FEF7C2F9002137
:104F6000AE4880F82410FEF7E9FC0020C2E72DE9E6
:104F7000F04F8DB083460F4602200C90A74890F862
:104F8000240020B10020FFF7ADFF012600E000263D
:104F900003A8FFF7E1F905A8FFF7FEF901A8FFF75D
:104FA0001FFA02A8FFF741FA9C4890F80AA004A84B
:104FB000FFF795FA002407E0002239465846FFF72C
:104FC00059FD00B902E0641C022CF5DB00BF022C85
:104FD00001D1002528E0002407E0012206A909A844
:104FE000FFF748FD00B902E0641C022CF5DB00BFAE
:104FF000022C01D1002517E006A93846FFF75CFC1A
:1050000000F0FF0809A95846FFF7A8FC00F0FF09C7
:105010000025B9F1000F01D145F00105B8F1000FED
:1050200001D145F0020500BFFF207C490872FF2135
:105030007A484172C1724FF6FF71C181FF218172BE
:10504000017401210173BDF80C00FEF7CFFE9DF83D
:105050001400FEF789FEBDF80400FEF78DFDBDF8D3
:105060000800FEF735FE5046FEF75FFB9DF8100086
:10507000FEF74DFD16B10120FFF734FF28460DB0B5
:10508000BDE8F08FF8B504460D46164616B94FF048
:10509000FF30F8BD6148807A10B94FF0FF30F8E773
:1050A00020128DF80000E0B28DF801009DF801009B
:1050B00028445A4949684989884202DD4FF0FF3047
:1050C000E7E7564A1268117E544A526810786B46D8
:1050D0000222FEF706F910B14FF0FF30D9E7EAB22D
:1050E0004E4B1B68597D4D4B5B6818783346FEF775
:1050F000F8F810B14FF0FF30CBE70020C9E7F8B562
:1051000004460D46164616B94FF0FF30F8BD434829
:10511000807A10B94FF0FF30F8E720128DF80000C8
:10512000E0B28DF801009DF8010028443B49496830
:105130004989884202DD4FF0FF30E7E7374A1268BD
:10514000117E364A526810786B460222FEF7C9F883
:1051500010B14FF0FF30D9E7EAB2304B1B68597DF0
:105160002E4B5B6818783346FEF706F810B14FF007
:10517000FF30CBE70020C9E72DE9F04385B00546B5
:105180000E4690469946254890F8250020B14FF0EC
:10519000FF3005B0BDE8F08316B94FF0FF30F8E7F7
:1051A000002423E0281B102801DD102000E0281B2C
:1051B00087B2321939462046FFF764FF10B14FF02D
:1051C000FF30E6E701AA39462046FFF798FF10B105
:1051D0004FF0FF30DDE730193A4601A903F0ECFE4D
:1051E00010B16FF00100D4E7E01984B2AC42D9DB12
:1051F0004FEA28208DF8000008F0FF008DF801002C
:10520000064A1268917E054A526810786B4602225F
:10521000FEF767F838B103E098B5000838030020BE
:105220004FF0FF30B5E70121FE4880F82510A0F8C7
:1052300026900020ADE70146FA4890F82400087057
:10524000002070474FF0FF30704702464FF0FF30AC
:10525000704701464FF0FF307047F8B505460F46DE
:105260001446002C70D0B5F5FF5F01DDFF2605E088
:10527000202D01DA012601E0C5F3471607B9012701
:10528000282C02DD4FF0FF30F8BDE648407D28BBFA
:10529000E44890F8240038B10020FFF723FE0121F4
:1052A000E04880F8201003E00021DE4880F820105C
:1052B000DC481630FFF750F8DA481830FFF76CF882
:1052C000D8481A30FFF78CF8D6481C30FFF7ADF8F5
:1052D000D448817A81771F30FFF701F90020FEF76B
:1052E00061F90020FEF787FC00208DF80000CD4A10
:1052F00012689178CB4A526810786B460122FDF70C
:10530000F0FF10B14FF0FF30BEE740208DF80000F5
:10531000C44A1268D17BC34A526810786B46012296
:10532000FDF7DFFF00B165E08DF800608DF80170DA
:10533000BC4A1268117ABB4A526810786B46022246
:10534000FDF7CFFF08B155E047E0052001F0FDFC77
:10535000B448407A072101EBC000C0B28DF80000CC
:10536000B04A1268D179AF4A526810786B46012270
:10537000FDF7B7FF00B13DE020208DF80000012CC3
:1053800003D100208DF801000EE0052C03DC012084
:105390008DF8010008E0142C03DC02208DF80100D8
:1053A00002E003208DF801009DF80100072101EBC8
:1053B0008010C0B28DF801009A4A1268917C994A17
:1053C000526810786B460222FDF78BFF00B111E0A6
:1053D000012194484175002056E7924A1632002177
:1053E00003E0505C00B105E0491C0C29F9D34FF0F3
:1053F000FF3049E7FF208B490872FF21894841723D
:10540000C1724FF6FF71C181FF21817201740121C8
:1054100001730146887FFEF788F98249C88AFEF742
:10542000E5FC8049087EFEF79FFC7E49488BFEF72D
:10543000A3FB7C49888BFEF74BFC7A49C87FFEF7BB
:1054400066FB784890F8200010B10120FFF74AFD74
:10545000002174484175002016E770B588B002A994
:1054600005A8FFF784FD0446032C3ED101A8FEF7F2
:10547000F2FF059805F0A0FD0646019905F02CFE07
:10548000054605F05DFD0590069805F095FD06467C
:10549000019905F021FE054605F052FD069007989A
:1054A00005F08AFD0646019905F016FE054605F051
:1054B00047FD079005A800F054FA6846FEF7E8FF9C
:1054C000BDF80010029848430290BDF80010039800
:1054D00048430390BDF8001004984843049002A884
:1054E00000F0D2FA002008B070BD0120FBE70146B1
:1054F00091F90020002A01DD00201EE091F9002032
:10550000002A01DA042018E091F90120002A01DDC7
:10551000012012E091F90120002A01DA05200CE0B7
:1055200091F90220002A01DD022006E091F9022013
:10553000002A01DA062000E00720704710B5044673
:105540002046FFF7D4FF0346E01CFFF7D0FF43EAF5
:10555000C00083B2A01DFFF7CAFF43EA801083B2E8
:10556000184610BD70B50024FDF7F9FEFEF780FC6B
:10557000002840D17820FEF7D8F8C4B20CB1012041
:1055800070BD7820FEF7C3FAC4B20CB10220F7E771
:105590006420FEF79DFBC4B20CB10320F0E700F0DD
:1055A00045F9C4B20CB10420EAE71F48FFF7C6FF73
:1055B000054600F045F9C4B20CB10520E0E740F221
:1055C000731000F07EFDC4B20CB10620D8E7642051
:1055D00000F0F0FAC4B20CB10720D1E7FFF73DFFAD
:1055E00004460CB10820CBE70120FFF77BFCC4B2D6
:1055F0001CB10920C4E70A20C2E70020C0E72DE95A
:10560000F04F99B004460D4616464FF07E574FF0C6
:1056100000084FF000094FF0000A12A813A918ABB8
:105620000EAA03E03803002064030020CDE9001037
:1056300014A916A800F0A4FE18B1012019B0BDE805
:10564000F08FBDF84C0000F4807000287ED00E98DA
:1056500005F0B2FC83464FF09D4105F07BFB074609
:105660000F9805F0A9FC83464FF09D4105F072FBB1
:105670008046109805F0A0FC83464FF09D4105F050
:1056800069FB8146119805F097FC83464FF09D41D8
:1056900005F060FB824639464FF0804005F01CFD66
:1056A0004946059005F018FD414607904FF04040EF
:1056B00005F012FD5146059005F00EFD0690079984
:1056C00005F0D4FA834605F0A5FACDE9080103F008
:1056D00093FF4FF06632544BCDE90A0104F0C0FF4E
:1056E000CDE90C0104F0F4FC206049464FF0804005
:1056F00005F0F2FC4946029005F0EEFC41460490AC
:105700004FF0404005F0E8FC4146029005F0E4FC13
:105710000390049905F018FE83464FF07E5105F082
:10572000A5FA059005F076FACDE9080139464FF063
:10573000804005F0D1FC4146039005F0CDFC494680
:1057400004904FF0804005F0C7FC00E068E051464F
:10575000039005F0C1FC8346049905F087FA059093
:1057600005F058FACDE90601DDE9082304F08CF9CB
:105770004FF066322C4BCDE90A0104F071FFCDE900
:105780000C0104F0A5FC28605146504605F0A4FC2D
:1057900049460490484605F09FFC41460390404628
:1057A00005F09AFC39460190384605F095FC0090CA
:1057B000019905F05BFA0290039905F0C5FD834657
:1057C000049905F0C1FD059005F024FACDE9080122
:1057D0005146384605F080FC49460490404605F0A5
:1057E0007BFC0390049905F041FA4FF0804105904D
:1057F00005F072FC834605F00DFACDE90601DDE9FE
:10580000082304F041F94FF06632074BCDE90A0155
:1058100004F026FFCDE90C0104F05AFC306001E0F1
:1058200002200BE7002009E766A64C4010B5C8230C
:105830004FF48062F74940F6F630FFF79DFC10BD4B
:1058400010B586B00446F4A000680390F3A0006889
:105850000290F3A000680190F2A00068009004F0AC
:10586000030003A9085C8DF8140003A8C4F3C10168
:10587000405C8DF8150003A8C4F38111405C8DF8DD
:10588000160004F0030002A9085C8DF8100002A8BD
:10589000C4F3C101405C8DF8110002A8C4F381116A
:1058A000405C8DF8120005AA032140F22640FFF764
:1058B000E9FB18B14FF0FF3006B010BD04AA032178
:1058C00040F22A40FFF7DEFB10B14FF0FF30F3E764
:1058D000019805900098049004F0040058B19DF8D8
:1058E000140040F001008DF814009DF8100040F005
:1058F00001008DF8100004F0200058B19DF815004B
:1059000040F001008DF815009DF8110040F00100F5
:105910008DF8110004F4807058B19DF8160040F025
:1059200001008DF816009DF8120040F001008DF87E
:10593000120005AA03214FF48860FFF7A3FB10B102
:105940004FF0FF30B8E704AA032140F23140FFF7DF
:1059500099FB10B14FF0FF30AEE7B348048100204F
:10596000AAE71FB50446B048007A00F0030054F8D7
:1059700020000190AC48007A00F0040010B10198BA
:1059800040420190A848007AC0F3C10054F82000BA
:105990000290A548007A00F0200010B10298404221
:1059A0000290A148007AC0F3811054F820000390BF
:1059B0009D48008900F4807010B103984042039024
:1059C0009A49019880FB0101800F40EA8100019013
:1059D0009649029880FB0110820042EA9170029081
:1059E0009249039880FB0110820042EA9170039073
:1059F0000198000E8DF800000198000C8DF8010050
:105A00000198000A8DF802000198C0B28DF80300D9
:105A10006A4604214FF47470FFF734FB18B14FF05D
:105A2000FF3004B010BD0298000E8DF800000298FF
:105A3000000C8DF801000298000A8DF8020002980F
:105A4000C0B28DF803006A4604214FF47570FFF769
:105A500019FB10B14FF0FF30E3E70398000E8DF80B
:105A600000000398000C8DF801000398000A8DF8DF
:105A700002000398C0B28DF803006A4604214FF477
:105A80007670FFF7FFFACCE770B588B0064601A83C
:105A9000FEF7FEFCBDF804000021C90341EA5045B1
:105AA000C4036148007A00F0030056F82000059016
:105AB0005D48007A00F0040010B10598404205905E
:105AC0005948007AC0F3C10056F8200006905648A5
:105AD000007A00F0200010B106984042069052482B
