:020000040800F2
:10000000600C002055730008691000086B10000890
:100010006D10000871100008751000080000000045
:10002000000000000000000000000000791000083F
:100030007B100008000000007D1000087F10000801
:10004000652200086F7300086F7300086F73000863
:100050006F7300086F7300086F7300086F730008F8
:100060006F7300086F7300086F7300086F730008E8
:100070006F7300086F7300086F7300086F730008D8
:100080006F7300086F7300086F7300086F730008C8
:100090006F7300086F7300086F7300086F730008B8
:1000A0006F7300086F7300086F7300086F730008A8
:1000B0006F7300086F730008051F00086F73000856
:1000C0006F7300086F7300086F7300086F73000888
:1000D0006F7300086F7300086F7300086F73000878
:1000E0006F7300086F7300086F7300086F73000868
:1000F0006F7300086F7300086F7300086F73000858
:100100006F7300086F730008FB1D00086F73000811
:100110006F7300086F7300086F7300086F73000837
:100120006F7300086F7300086F7300086F73000827
:1001300000F002F800F062F80AA090E8000C824497
:100140008344AAF10107DA4501D100F057F8AFF274
:10015000090EBAE80F0013F0010F18BFFB1A43F0A5
:1001600001031847CCC30000ECC300000A444FF061
:10017000000C10F8013B13F0070408BF10F8014B06
:100180001D1108BF10F8015B641E05D010F8016B4B
:10019000641E01F8016BF9D113F0080F1EBF10F8AF
:1001A000014BAD1C0C1B09D16D1E58BF01F801CBD2
:1001B000FAD505E014F8016B01F8016B6D1EF9D555
:1001C0009142D6D37047000000230024002500266A
:1001D000103A28BF78C1FBD8520728BF30C148BFAA
:1001E0000B607047642908F09386782908F0CC8664
:1001F000002070471FB51FBD10B510BD09F020F9D4
:100200001146FFF7F7FF00F009F809F03EF903B4D3
:10021000FFF7F2FF03BC06F075FE00009AB0002065
:1002200018901790169010900F900E9000F09DFF70
:100230004FF4A06007F032FE06F0FAFD472144F6C5
:100240001F6002F017F84FF4FA61FE4808F07CFDD9
:100250004FF4FA61FB4808F079FD4FF4FA61F94870
:1002600008F076FD4FF4FA61F64808F073FD41F2AC
:10027000883006F01AFE4FF47A71F24808F064FDF7
:100280004FF47A71EF4808F061FD4FF47A71ED4850
:1002900008F05EFD4FF47A71EA4808F05BFD40F625
:1002A000B83006F002FE02F0CAFC05E0C82006F0F5
:1002B000FCFDC82006F0F9FD04F0F4FE0028F5D19D
:1002C0004FF47A7006F0F1FD02F0F6FA642006F0C1
:1002D000ECFD02F035F8642006F0E7FD02F040F88E
:1002E0004FF47A7006F0E1FD47214FF6FF7001F000
:1002F00094FD40F2CF21092001F052FD4FF4967099
:1003000006F0D3FDD0480068D0490860ABE0D04A81
:10031000D049D14802F035FD00284DD1CE48B0F982
:1003200000000AF001FF0890CC48016808980AF024
:1003300055FD09900AF026FD0022C94BCDE90A01BE
:100340000AF010FACDE90C0109F072FFC349086008
:10035000C048B0F900000AF0E7FE0890C148016803
:1003600008980AF03BFD09900AF00CFD0022BC4BF6
:10037000CDE90A010AF0F6F9CDE90C0109F058FFC0
:10038000B8490860B248B0F900000AF0CDFE089004
:10039000B548016808980AF021FD09900AF0F2FCBE
:1003A0000022AF4BCDE90A010AF0DCF9CDE90C01DE
:1003B00009F03EFFAC490860AC4AAD49AD4802F0D7
:1003C00008FD00284FD1AB48B0F900000AF0ACFEA0
:1003D0000890A948016808980AF000FD09900AF001
:1003E000D1FC00229E4BCDE90A010AF0BBF9CDE910
:1003F0000C0109F01DFFA04908609D48B0F90000FC
:100400000AF092FE08909D48016808980AF0E6FC00
:1004100009900AF0B7FC0022914BCDE90A010AF0DD
:10042000A1F9CDE90C0109F003FF944908608F4858
:10043000B0F900000AF078FE089091480168089829
:100440000AF0CCFC09900AF09DFC0022844BCDE917
:100450000A010AF087F9CDE90C0109F0E9FE8849A3
:10046000086001F083FA794800680AF0A5FE854922
:100470000A900AF0E9FE84490B900AF0AFFC0D9057
:10048000714800680AF098FE7E490B900AF0DCFE85
:100490000C900D990AF0A4FEFFF439AF6F48006884
:1004A0000AF006FE00B2794908806E4800680AF03A
:1004B000FFFD00B2754948806B4800680AF0F8FDFE
:1004C00000B2724988806C4800680AF0F1FD00B201
:1004D0006F490880694800680AF0EAFD00B26D497A
:1004E00008806D4800680AF0E3FD00B26B4908809F
:1004F0000020119021E0642006F0D7FC01F0B9FF44
:10050000674800680AF010FE08906648016808987D
:100510000AF064FC09900AF035FC0022504BCDE94A
:100520000A010AF01FF9CDE90C0109F081FE5D49CD
:1005300008601198401CC0B2119011981428DADBA1
:10054000584800680AF0B4FD57490860084600683A
:100550000AF0EAFD07900AF015FC0022534BCDE9A2
:10056000080109F053FF4FF0C042514BCDE90A0199
:1005700009F090FECDE90C0109F05AFE4D490860E2
:10058000002011900AE0642006F08FFC01F08DFF3E
:1005900002F046F91198401CC0B21190119814282D
:1005A000F1DB454800684549086008460168424853
:1005B00000680AF087FC4249086002F047F84148A9
:1005C000006841490860109818B1404806F0ACFC3A
:1005D00005E00F9818B14FF4E13006F0A5FC00F0EB
:1005E00045FE01203A49086000203A49C1F88801D7
:1005F000154800680AF0E0FD37490C900AF024FE27
:100600000D900AF071FD354908600F4800680AF046
:10061000D3FD33490C900AF017FE0D900AF064FDEB
:1006200030490860084800680AF0C6FD2E490C9061
:100630000AF00AFE0D900AF057FD2C4908600248A6
:10064000006855E000040040100000208C000020ED
:100650004A000020480000204600002060000020E2
:100660000000E03F640000206800002044000020FB
:10067000420000204000002074000020780000208C
:100680007C0000206F12833A000040405A00002096
:100690006C0000206E000020880100207000002007
:1006A00098000020A8000020A00000200000594071
:1006B000661271402C010020F80100209C000020EF
:1006C00028010020900000203401002020A1070014
:1006D000A001214200802242CDCCCC3D140000205C
:1006E000CDCC4C3D180000200AD7A33C1C000020B4
:1006F0000AF062FDFE490C900AF0A6FD0D900AF08A
:10070000F3FCFC490860FC4800680AF055FDFB4911
:100710000C900AF099FD0D900AF0E6FCF84908608B
:10072000F54800680AF048FDF6490C900AF08CFD87
:100730000D900AF0D9FCF4490860EF4800680AF00F
:100740003BFDF2490C900AF07FFD0D900AF0CCFCC5
:10075000EF490860E84800680AF02EFDED490C906A
:100760000AF072FD0D900AF0BFFCEB490860FBE354
:10077000EA480068401C0AF01FFD0D90DE48006842
:100780000AF01AFDE6490B900AF05EFD0C900D99F7
:100790000AF026FE7ED2D84800680AF00DFDE04936
:1007A0000C900AF051FD0D900AF09EFCDB490860A8
:1007B000DC480068401CDB490860DB4ADB49DC4858
:1007C00002F007FB002856D101F0D0F8CA480068B3
:1007D000D8490968401A08900AF0EEFC09900AF01E
:1007E000D1FAD54AD54BCDE90A0109F0BBFFCDE9D5
:1007F0000C0109F01DFDD2490860BF480068CD49D1
:100800000860CF4800680AF0BDFACDE90601CD487E
:10081000B0F900000AF088FC0090CB48016800980D
:100820000AF040FE01900AF0ADFAC84AC84BCDE983
:10083000020109F097FFCDE90401DDE9062309F083
:1008400091FFCDE90A01C34800680AF09BFACDE99F
:100850000801DDE90A2309F01DFDCDE90C0109F0CD
:10086000E7FCBC490860BC480168BA4800680AF067
:1008700023FEBA490860BA4A911E881E02F081FA26
:1008800040B900F0A2FF0E9820B101F00CFAB54873
:10089000006800E015E00D900AF00AFC00B2B249D1
:1008A0000880B04840680D900AF002FC00B2AF49E1
:1008B0000880AC4880680D900AF0FAFB00B2AC49A1
:1008C0000880AC480068401C0AF076FC0D908A480D
:1008D00000680AF071FCA8490B900AF0B5FC0C9076
:1008E0000D990AF07DFD11D2834800680AF064FC7E
:1008F000A1490C900AF0A8FC0D900AF0F5FB9D4967
:10090000086088484068401C864948609B480068E9
:10091000401C0AF051FC0D90774800680AF04CFC2E
:1009200097490B900AF090FC0C900D990AF058FD35
:100930002ED2714800680AF03FFC91490C900AF0F1
:1009400083FC0D900AF0D0FB8C49086075488068E4
:10095000401C744988608B4A8B498C4804F0EFFB3B
:100960008B480168884800680AF0A6FD894908603C
:1009700089480168854800680AF09EFD874908603B
:10098000874801687F4800680AF096FD854908603D
:1009900058480068401C0AF00FFC0D90564800684B
:1009A0000AF00AFC52490B900AF04EFC0C900D998B
:1009B0000AF016FD7AD2504800680AF0FDFB4C4957
:1009C0000C900AF041FC0D900AF08EFB494908603A
:1009D0005448C068401C5349C860189800287DD00E
:1009E0007148006840F24C41884278D96E480088CE
:1009F00000B213906D48B0F9000040F2E351081ABC
:100A00006B490968884208D86848B0F9000000F2CC
:100A1000E35067490968884218D265480088A0F207
:100A2000E35000B2159015980AF07EFB09900AF089
:100A3000A9F9604A604BCDE90A0109F093FECDE9BE
:100A40000C0109F0F5FB5249086002E00020504912
:100A500008605648B0F9000040F2E451081A5749BE
:100A60000968884208D85148B0F9000000F2E45003
:100A70005249096888421AD25048008840F2E4512D
:100A8000081A00B2149014980AF04EFB09900AF06C
:100A900079F9484A484BCDE90A0109F063FECDE9EE
:100AA0000C0109F0C5FB3C49086003E012E100209D
:100AB000394908603D48B0F9000040F2E351081A96
:100AC0003F490968884208D83848B0F9000000F268
:100AD000E3503B490968884274D201E0BCE08BE0F6
:100AE0003748008840F2E351081A00B212906AE0D9
:100AF0000AD7233C20000020100000200AD7A33B87
:100B0000240000206F12033B280000206F12833A5C
:100B10002C00002017B7D13830000020140000202E
:100B2000CDCCCC3D14040020440000204200002025
:100B30004000002078010020FCA9F1D24D62503F16
:100B400074010020700000208C010020A9D08AB917
:100B5000B596433F94010020980100209C0100209D
:100B60005000002008040020C4000020C60000201F
:100B7000C800002018000020CDCC4C3D1C000020F7
:100B80000AD7A33C3C00002034000020380000209D
:100B9000B8000020AC000020BC000020B000002005
:100BA000C0000020B40000200800002080000020C9
:100BB00000000020F49FDA858B81A23F0400002012
:100BC0000C00002014E012980AF0AEFA09900AF026
:100BD000D9F8E64AE64BCDE90A0109F0C3FDCDE9B3
:100BE0000C0109F025FBE34908600020086011E0D2
:100BF0000020E04908600DE000201390DD49086006
:100C0000DD490860DD49086000231A461946184688
:100C100000F068FBDA48006840F24C41884218D284
:100C2000D8480068884214D2169818B9D648008867
:100C300080B21690D44801681698081A08283CD348
:100C400000201890D14908600120D149C1F8A001C5
:100C500033E00020169030E000201390C549086072
:100C6000C5490860C549086000231A461946184658
:100C700000F038FBC248006840F24C4188421AD26A
:100C8000C048006840F26C71884214D9179818B9AE
:100C9000BD48008880B21790BB4801681798081AB1
:100CA00005280AD301201890B84908600020B849E7
:100CB000C1F8A00101E000201790B148006840F29F
:100CC0004C41884206D900F003FC00F0ABFF1398BA
:100CD00000F03AFBAF480068401C0AF06DFA0D9036
:100CE000AD4800680AF068FAAC490B900AF0ACFA1B
:100CF0000C900D990AF074FB11D2A74800680AF015
:100D00005BFAA6490C900AF09FFA0D900AF0ECF9F4
:100D1000A0490860A2480069401CA1490861A14897
:100D20000068401C0AF048FA0D909B4800680AF0E1
:100D300043FA9D490B900AF087FA0C900D990AF03E
:100D40004FFB7DD2944800680AF036FA96490C9021
:100D50000AF07AFA0D900AF0C7F9924908609048B3
:100D60004069401C8E4948611098002869D08F481E
:100D700000680AF09DF900210091034601910D9051
:100D80008B4802688B4801688B48006805F097FA29
:100D9000002000900190029003908848008880B263
:100DA0000D908748008880B20C908648008880B2F9
:100DB0000B908548008880B20A900BA90EC905F0F7
:100DC000E1FB0020029003900490059000900190B8
:100DD0007E48008880B20D907D48008880B20C90DB
:100DE0006848008880B20B906548008880B20A90FD
:100DF0000BA90EC905F05AFC764800680AF058F9AC
:100E00000D907548806809900AF052F900B20C9074
:100E10007148406809900AF04BF900B20B906E4897
:100E2000006809900AF044F900B20A906B49898879
:100E30006B4A9288891A09B2684A5288684B01E065
:100E400020E01EE05B88D21A12B2644B1B88644C0F
:100E500024881B1B1BB20D98CDE90232CDE904108A
:100E6000DDE90B01CDE900015E48B0F900205E48E4
:100E7000B0F900105D48B0F900000A9B05F0BFFA18
:100E800000E000BF5A480068401C0AF095F90D9038
:100E9000414800680AF090F956490B900AF0D4F9DD
:100EA0000C900D990AF09CFA39D23B4800680AF080
:100EB00083F950490C900AF0C7F90D900AF014F923
:100EC0004B49086036488069401C3549886101F00B
:100ED000ECFA01F0A5FC484801684848006809F0B0
:100EE000F1FF4749086001F0B1FB2B480068454914
:100EF0000968401A0C900AF05FF93E490D900AF01B
:100F0000A3F941490860244800683E49086001F09F
:100F1000FBFB05F072FF254800683C4908601A4851
:100F20000068401C0AF048F90D901B4800680AF060
:100F300043F937490B900AF087F90C900D990AF0A4
:100F40004FFA11D2144800680AF036F930490C9073
:100F50000AF07AF90D900AF0C7F80B4908601048BA
:100F6000C069401C0E49C86102E40000F49FDA85A4
:100F70008B81A23FC0000020BC000020B8000020F0
:100F8000080000200C000020300000208881224250
:100F90000000214224000020100000200AD7A33BBB
:100FA00014040020280000206F12033B9000002052
:100FB0003C00002038000020340000208800002081
:100FC0008600002084000020820000200400002011
:100FD0000000002094000020080400204C000020A5
:100FE0005A000020C8000020C6000020C4000020D5
:100FF0002C0000206F12833A9C000020F801002092
:1010000028010020400100203C0100203801002080
:1010100017B7D13800BF1A4801684FF0E020826945
:10102000174800688142F6D11648006800EB40037B
:10103000C3EBC010C2EBC000124B1B68B0FBF3F057
:1010400001EB4103C3EBC11300EBC300704700B5D4
:1010500085B0684606F04DFC0B490098B0FBF1F0F6
:101060000849086005B000BD7047704700BFFEE743
:1010700000BFFEE700BFFEE770477047704770474C
:101080002C0200203002002040420F000CB500204E
:10109000019000906C48006840F480306A49086014
:1010A00000BF6948006800F4003000900198401CBF
:1010B0000190009818B90198B0F5A06FF1D162487D
:1010C000006800F4003010B10120009001E0002021
:1010D00000900098012843D15C48006840F010005F
:1010E0005A4908600846006820F003000860084676
:1010F000006840F002000860534840685249486068
:101100000846406848600846406840F4806048608F
:101110000846406820F47C1048600846406840F467
:10112000E81048600846006840F08070086000BF22
:101130004548006800F000700028F9D04248406837
:1011400020F00300404948600846406840F0020033
:10115000486000BF3C48406800F00C000828F9D106
:101160000CBD10B5FFF792FF10BD10B536480068F2
:1011700040F001003449086008464068344908409E
:101180003149486008460068324908402E490860E5
:101190000846006820F4802008600846406820F473
:1011A000FE0048604FF41F008860FFF7DAFF4FF041
:1011B00000602949086010BD10B500210020002200
:1011C000214B5B6803F00C0121B1042906D00829EA
:1011D00028D107E0214B224C236027E01F4B204CF5
:1011E000236023E0184B5B6803F47010164B5B68B8
:1011F00003F48032022303EB904022B9194B43439E
:10120000174C23600DE0104B5B6803F4003323B1EF
:10121000144B4343124C236003E0104B4343104CE8
:10122000236003E00D4B0E4C236000BF00BF064B54
:101230005B68C3F303130C4CE15C094B1B68CB40A8
:10124000074C236010BD0000001002400020024047
:101250000000FFF8FFFFF6FE08ED00E000127A0044
:101260003402002000093D003802002008B50121A9
:10127000242006F0ABFB4FF48070ADF80000102086
:101280008DF8030003208DF802006946094806F036
:10129000E1F84FF48071074806F089F90420ADF8B1
:1012A00000006946044806F0D5F80421024806F01B
:1012B0007EF908BD000801400014014002468A4240
:1012C00001DD084670471046FCE703469A4203DA00
:1012D0008B4201DA18467047994201DC0846FAE76A
:1012E0001046F8E730B5B0F5FA6F01DD4FF4FA605B
:1012F000B1F5FA6F01DD4FF4FA61B2F5FA6F01DD75
:101300004FF4FA62B3F5FA6F01DD4FF4FA63B0F50A
:101310007A7F01DA4FF47A70B1F57A7F01DA4FF40F
:101320007A71B2F57A7F01DA4FF47A72B3F57A7F87
:1013300001DA4FF47A73FE4D28802D1D29802D1D72
:101340002A802D1D2B8030BD2DE9F047044640F248
:10135000F4612046FFF7B2FF8146F64A5142F64853
:10136000B0F90000FFF7B1FF09EB000AF34800688D
:1013700009F09EFE0FFA80F96FF01D021E2148460B
:10138000FFF7A3FF8244EE48006809F091FE0FFAD0
:1013900080F96FF01D021E214846FFF796FF50446A
:1013A00005B240F2F4612046FFF788FF8146E14A2A
:1013B0005142E448B0F90000FFF787FF09EB000A4B
:1013C000DE48006809F074FE0FFA80F96FF01D0224
:1013D0001E214846FFF779FF8244D948006809F08A
:1013E00067FE0FFA80F96FF01D021E214846FFF7D5
:1013F0006CFF504406B240F2F4612046FFF75EFFF6
:101400008146CC4A5142D048B0F90000FFF75DFF59
:1014100009EB000AC948006809F04AFE0FFA80F992
:101420006FF01D021E214846FFF74FFF8244C4485B
:10143000006809F03DFE0FFA80F96FF01D021E21D1
:101440004846FFF742FF504407B240F2F46120469D
:10145000FFF734FF8146B74A5142BC48B0F900005B
:10146000FFF733FF09EB000AB448006809F020FEDB
:101470000FFA80F96FF01D021E214846FFF725FF85
:101480008244AF48006809F013FE0FFA80F96FF04C
:101490001D021E214846FFF718FF50440FFA80F83E
:1014A00043463A4631462846FFF71CFFBDE8F08721
:1014B00070B50446204609F065FC05460022134637
:1014C00009F04EFA01D2204670BD84F00040FBE7DF
:1014D0002DE9FF5F9E48B0F9000009F025FE0746A0
:1014E0009C480168384609F0AFFE05469A48B0F9B5
:1014F000000009F019FE814698480168484609F045
:10150000A3FE07469648B0F9000009F00DFE834699
:1015100094480168584609F097FE81469248016850
:101520009248006809F090FE039091480168914844
:10153000006809F089FE02908F4801688F480068B2
:1015400009F082FE0190029909F048FC8346039954
:1015500009F044FC8246494609F040FC8046394681
:1015600009F03CFC0646294609F038FC044609F01F
:101570009FFD00B2704908807548B0F9000009F07D
:10158000D3FD074673480168384609F05DFE0546FD
:101590007148B0F9000009F0C7FD81466F48016845
:1015A000484609F051FE07466D48B0F9000009F0C1
:1015B000BBFD83466B480168584609F045FE8146ED
:1015C000694801686948006809F03EFE0390684870
:1015D00001686848006809F037FE019067480068B4
:1015E00080F0004B64480168584609F02DFE0090D9
:1015F000019909F061FF0290039909F0EFFB82461F
:10160000494609F059FF8046394609F055FF06461C
:10161000294609F0E3FB044609F04AFD00B24949B6
:1016200008804B48B0F9000009F07EFD07464948A4
:101630000168384609F008FE05464748B0F9000041
:1016400009F072FD814645480168484609F0FCFDF5
:1016500007464348B0F9000009F066FD834641485B
:101660000168584609F0F0FD81463F4801683F484F
:10167000006809F0E9FD03903D4801683D480068B5
:1016800009F0E2FD02903D48006880F000400090C3
:1016900039480168009809F0D7FD0190029909F0D6
:1016A0009DFB8346039909F007FF8246494609F0EE
:1016B00003FF8046394609F091FB0646294609F0AA
:1016C000FBFE044609F0F4FC00B21F4908802048E4
:1016D000B0F9000009F028FD07461E4801683846A9
:1016E00009F0B2FD05461C48B0F9000009F01CFDE8
:1016F00081461A480168484609F0A6FD0746184881
:10170000B0F9000009F010FD8346164801685846FC
:1017100009F09AFD8146144801681448006809F0F0
:1017200093FD0390124801681248006828E0000009
:1017300034040040D4FEFFFF820000202402002079
:10174000280200208400002086000020880000205D
:10175000C80000207C020020C60000207802002083
:10176000C40000207402002070020020B400002099
:101770006C020020B000002068020020AC000020B5
:1017800009F062FD0290F9480168F948006809F023
:101790005BFD0190029909F08FFE8346039909F0E1
:1017A0008BFE8246494609F019FB8046394609F00E
:1017B00083FE0646294609F07FFE044609F078FCC0
:1017C00000B2EC490880BDE8FF9F70B500210022FF
:1017D0000023E94C2488E94D2D88641B24B2E84D90
:1017E000E84E367825F81640E34C6488E34D6D8862
:1017F000641B24B2E44DE34E367825F81640DE4CE7
:10180000A488DE4DAD88641B25B2E04CDD4E3678F1
:1018100024F8165000200DE0D94C34F91040214432
:10182000D94C34F910402244D84C34F910402344A8
:10183000441CE0B20628EFDB062491FBF4F424B24A
:10184000D34D2C80062492FBF4F424B2D14D2C808D
:10185000062493FBF4F424B2CF4D2C80C94C247899
:10186000641CC84D2C702C462478062C01D1002411
:101870002C7070BD10B50021C84AB2F90020C84BC9
:10188000C84C247823F81420002005E0C44A32F91B
:1018900010201144421CD0B20628F7DB062291FB2F
:1018A000F2F212B2C04B1A80BE4A1278521CBD4BE3
:1018B0001A701A461278062A01D100221A7010BD39
:1018C0002DE9F04F89B083468A46504609F05AFA0E
:1018D0008046B64AB64B08F045FF02460B46CDE9B6
:1018E00000010020B34908F091FD06460F46584616
:1018F00009F048FA32463B46CDE9020108F0CAFC3D
:10190000CDE90601584609F03DFACDE90401DDE9CB
:10191000062308F07BFD044608F08AFCA64908600F
:1019200009B0BDE8F08F2DE9F0419C49B1F90010F4
:101930009D4AB2F90020881A09F0F6FB07469E4836
:101940000168384609F080FC05469748B0F9000068
:1019500009F0EAFB0646294609F040FA044609F078
:10196000A7FB00B290490880BDE8F08170B59348AC
:10197000006893490860934801689348006809F03B
:101980002DFA91490860914801688F48006809F074
:1019900025FA044621468C48006809F093FA8C49E0
:1019A00008607E48B0F9000009F0BEFB0646844896
:1019B0000168304609F080FD0546854801682846E3
:1019C00009F042FC04467E480168204609F006FA08
:1019D0007A4908607E4801684FF07E5009F06CFD3E
:1019E000044679480168204609F02EFC76490860D3
:1019F00070BD70B57748006877490860774801681E
:101A00007748006809F0EAF9754908607548016887
:101A10007348006809F0E2F90446214670480068FE
:101A200009F050FA704908607048B0F9000009F0F8
:101A30007BFB064668480168304609F03DFD0546D7
:101A400069480168284609F0FFFB044662480168BE
:101A5000204609F0C3F95F490860634801684FF008
:101A60007E5009F029FD04465D480168204609F0D2
:101A7000EBFB5B49086070BD70B55D4800685D496F
:101A800008605D4801685D48006809F0A7F95B4996
:101A900008605B4801685948006809F09FF90446EE
:101AA00021465648006809F00DFA56490860564824
:101AB000B0F9000009F038FB06464E480168304690
:101AC00009F0FAFC05464F480168284609F0BCFBBE
:101AD000044648480168204609F080F944490860F6
:101AE000484801684FF07E5009F0E6FC0446434840
:101AF0000168204609F0A8FB4049086070BD2DE947
:101B0000F0414248008840F2DC51884201DD01206A
:101B100000E0002040F20E61884222DA3C48B0F931
:101B2000000009F001FB074625480168384609F026
:101B3000B9FC064637480168304609F085FB044683
:101B40003548006880F0004634480168304609F0A6
:101B50007BFB0546214609F0AFFC314908600020B7
:101B6000086000202E490860BDE8F081680200206E
:101B7000AC000020880000204C0000205A0000200B
:101B80003C0400209002002048040020540400205F
:101B9000C4000020C6000020C8000020440000202F
:101BA0006004002091020020CA00002097D17E5AD4
:101BB000FB2119400000F03FCC00002088010020EC
:101BC0008C01002080010020900100207C01002079
:101BD00084010020B4010020B8010020AC010020E5
:101BE000BC010020A8010020B0010020420000201C
:101BF000D4010020D8010020CC010020DC0100200D
:101C0000C8010020D0010020400000200800002072
:101C1000700000208C020020880200209C0100201F
:101C2000240200202DE9FE4F4F490988A1F57A7062
:101C300009F07AFA02904D48006809F0A3F80746C7
:101C40004B4A4C4B08F08EFD054608F0F1FA8346EE
:101C500008F08AF800904848006809F093F80746B1
:101C6000434A444B08F07EFD054608F0E1FA8346FE
:101C700008F07AF80446009909F0E6FA81463A49F4
:101C80000988A1F57A7009F04FFA4946019009F0E8
:101C900019F98246029909F00FFC384908600020C2
:101CA0000860BDE8FE8F2DE9F041002400BF56E03A
:101CB000334850F82400334941F82400324A52F89E
:101CC0002410324A52F8240009F088F82F4941F8CC
:101CD00024002F4A52F824102C4A52F8240009F00C
:101CE0007DF80546294951F82400294609F0EAF80B
:101CF000284941F82400284931F91410274A32F9BB
:101D00001420881A09F010FA07461E4850F82410CB
:101D1000384609F0D1FB06461E4850F824103046DC
:101D200009F092FA0546174850F82410284609F0A1
:101D300055F8134941F82400164850F824104FF084
:101D40007E5009F0B9FB0546104850F8241028468B
:101D500009F07AFA0D4941F82400601CC4B2032C42
:101D6000A6DBBDE8F081000008000020BC000020D8
:101D70005F40D42247DF913FB800002028020020B6
:101D8000FC030020080400200C02002018020020A0
:101D900000020020F00300204C0000205A00002028
:101DA0007FB505460C460121082005F01CFEADF864
:101DB0000850ADF804400020ADF80A00ADF8060068
:101DC00001A9EA4806F0CCF901221146E74806F0DD
:101DD0003EFD32208DF8000001208DF8010000202A
:101DE0008DF8020001208DF80300684606F05BF8CC
:101DF0000121DE4806F010FD7FBD10B50121DB4852
:101E000006F0D3FF40B10121D84806F0DFFFD848E3
:101E10000068401CD649086010BD30B585B0054645
:101E20000C460121042005F0DEFD0121082005F00B
:101E3000CDFD4FF47070ADF8100028208DF8130020
:101E400004A9CC4805F006FB4FF47071C94805F0B1
:101E5000B0FBADF80850ADF804400020ADF80A0022
:101E6000ADF8060001A9C44806F07AF90020C3497C
:101E700008804880012088800020C8800881BE48F2
:101E800006F001FC0420BD490880002048800120A4
:101E900088800020C8800881B74806F0F4FB08203D
:101EA000B649088000204880012088800020C88032
:101EB0000881B14806F0E7FB0C20B04908800020FB
:101EC0004880012088800020C8800881AA4806F048
:101ED000DAFB1E208DF8000000208DF801008DF83F
:101EE000020001208DF80300684605F0DCFF0122A6
:101EF0001E21A14806F0ABFC01219F4806F08CFC96
:101F000005B030BD10B59E48007800F08000002874
:101F100046D10221984806F048FF002840D002210F
:101F2000954806F053FF9648007800F0400040B313
:101F3000914806F01BFF93490880084600889249A3
:101F40000988884204DA4FF6FF709049086002E081
:101F500000208E4908608B4800888B490988401A08
:101F60008A49096808448A4908600846006889491E
:101F7000086000208249087000217F4806F0FEFDBD
:101F80000EE07D4806F0F2FE7F4908807C4800782C
:101F900040F040007A4908700221774806F0EEFDD3
:101FA0007D48007800F08000002846D10421724866
:101FB00006F0FBFE002840D004216F4806F006FF23
:101FC0007548007800F0400040B36B4806F0D1FE41
:101FD000724908800846008871490988884204DAF5
:101FE0004FF6FF706F49086002E000206D490860FD
:101FF0006A4800886A490988401A6A490968084499
:10200000694908600846006868490860002062491C
:1020100008700021584806F0C3FD0EE0564806F04F
:10202000A8FE5F4908805C48007840F040005A49AB
:1020300008700221504806F0B3FD5D48007800F0BA
:102040008000002845D108214B4806F0AEFE80B341
:102050000821494806F0BAFE5548007800F04000D3
:1020600040B3454806F088FE52490880084600887B
:1020700051490988884204DA4FF6FF704F490860D9
:1020800002E000204D4908604A4800884A49098812
:10209000401A4A49096808444949086008460068E6
:1020A000484908600020424908700021324806F083
:1020B00091FD0EE0304806F05FFE3F4908803C4845
:1020C000007840F040003A49087002212A4806F0A2
:1020D00081FD3D48007800F08000A8BB1021264813
:1020E00006F063FE80B31021234806F06FFE3648E9
:1020F000007800F0400040B31F4806F040FE33492E
:1021000008800846008832490988884204DA4FF678
:10211000FF703049086002E000202E4908602B481B
:1021200000882B490988401A2A49096808442A4925
:1021300008600846006829490860002022490870A4
:1021400000210D4806F060FD0EE00B4806F017FE7A
:102150001F4908801C48007840F040001A49087068
:102160000221054806F050FD10BD0000000C0040A3
:1021700010000020000C0140000800406C0400200A
:10218000940200209802002096020020BC02002049
:10219000AC020020000000209A0200209E020020D5
:1021A0009C020020C0020020B00200200400002099
:1021B000A0020020A4020020A2020020C4020020ED
:1021C000B402002008000020A6020020AA0200207D
:1021D000A8020020C8020020B80200200C00002045
:1021E00070B505460C4645F2555005F0C5FE28462B
:1021F00005F0C5FE204605F0C5FE05F0C6FE05F05B
:10220000C9FE70BD10B505F0C0FE10BD08B50020B8
:102210008DF8000002208DF8010003208DF80200E7
:10222000684605F040FE08BD70B506460C461546EA
:102230000121C80205F0D7FB284606F0D6FD20464E
:1022400006F0DCFD304606F0F4FD06F0FDFDFFF77C
:10225000DDFF06F0E4FD70BD10B50446204606F033
:10226000E8FD10BD10B57F2006F0DDFD06F0ECFDA9
:1022700010BD000030B589B005460C460121022092
:1022800005F0B1FB0121112005F0A0FB0121294837
:1022900005F0B1F94FF47070ADF8200018208DF8FA
:1022A000230003208DF8220008A9234805F0D2F866
:1022B000ADF81850ADF814400020ADF81A00ADF894
:1022C000160005A91D4805F04BFF6020ADF804007D
:1022D0000120ADF806000020ADF80A00ADF80C00B2
:1022E00001A9164805F079FF0821144806F0C4FB3F
:1022F00001A9124805F0B3FF0821104806F0C5FBFC
:1023000001A90E4805F0F8FF08210C4806F0CAFBA9
:1023100001A90A4806F03BF80821084806F0CBFB63
:102320000121064806F078FB0121044806F074FA02
:1023300009B030BD000C1A0000100140000400403C
:1023400010B500F0D3FAEE2000F088FB00F013FB8C
:102350001E2000F083FB00F00EFB00F0EBFA10BD36
:1023600070B5012433E000F0C1FAEE2000F076FBF6
:1023700000F001FBA02101EB4401C8B200F06EFBAC
:1023800000F0F9FA00F0D6FA052004F06AFD00F03A
:10239000ADFAEF2000F062FB012004F062FD00F0D6
:1023A000EAFA012000F089FB0546012004F059FDFE
:1023B000002000F082FB064600F0BCFA052004F085
:1023C00074FD46EA0520F64921F81400641C062C29
:1023D000C9DDF348008808B9012070BD0020FCE782
:1023E00038B50446002500F081FAEE2000F036FBF7
:1023F00000F0C1FA204600F031FB00F0BCFA00F01A
:1024000099FA092004F051FD642004F02AFD00F03F
:102410006DFAEE2000F022FB00F0ADFA002000F093
:102420001DFB00F0A8FA00F085FA00F05FFAEF203B
:1024300000F014FB00F09FFA012000F03EFB8DF845
:102440000000012000F039FB8DF80100002000F0B1
:1024500034FB8DF8020000F06DFA9DF800000104D5
:102460009DF8010001EB00209DF802104518284658
:1024700038BD10B55820FFF7B3FFCA4908600520E2
:1024800004F0EFFCC6484089C6490968A1EB00206A
:10249000C5490860C2488089096848434FF4FA6119
:1024A00001EBD050C149086010BD2DE9F041482032
:1024B000FFF796FFBE490860052004F0D2FCB8483B
:1024C00080880104B6480089B74A1268504301EB7E
:1024D000D0100021B74A03C2B1484088C103B048B8
:1024E000C088B14A1268504301EB10200021B24A63
:1024F00003C2AF480068083A18CAA0FB032501FBD5
:10250000035100FB0411500D40EAC1234815A949AD
:10251000D1E900219A1A60EB0100410441EAD2306E
:10252000A6490860A1480068B0F5FA6F46DA9E48EF
:1025300000684043C017C117A14A03C29B48006806
:10254000A0F5FA604043401000EB8000C1179D4A9F
:1025500003C296480068A0F5FA604043801000EB83
:102560008000C117984A03C2904800689749884282
:102570002FDA8E48006800F2DC50C0EBC0008B49B7
:10258000096801F2DC514843C1178E4AD2E9003292
:10259000C01851418B4A03C28448006800F2DC50E5
:1025A0004043401000EB400101EBC000C117864BD7
:1025B0000CCB80185941844A03C20AE00021804AAA
:1025C0001160516000207F4A106050607E4A1160A7
:1025D0005160764800687A490968401A7349086072
:1025E0007448D0E900207749D1E90031D21A60EB74
:1025F00001007049C1E900206F48D0E900307249FC
:10260000D1E900219A1A60EB01006B49C1E9002071
:1026100067480068002550C9A0FB041705FB047437
:1026200000FB0644480D40EAC4256015614C12CCFD
:102630006D1A60EB0401E80B40EA4142C9131046F1
:1026400008F08DFD62490860BDE8F0812DE9F04198
:102650006048006807F0FEFC80465F4908F0F4FD22
:10266000064607F03FFC05464FF07E5108F01AFF82
:1026700004465A4801685A4808F0E6FD07462146D4
:1026800008F0E2FD57490860BDE8F08170B5564892
:10269000006856490860564801685648006808F0C6
:1026A0009DFB54490860544801685248006808F08E
:1026B00095FB044621464F48006808F003FC4F494B
:1026C00008604A4801684748006808F0F5FE05467A
:1026D0004A480168284608F0B7FD044643480168A7
:1026E000204608F07BFB40490860444801684FF0F1
:1026F0007E5008F0E1FE04463E480168204608F09E
:10270000A3FD3C49086070BD2DE9F0413C480068DC
:102710003C4908603C4801683C48006808F05EFBA2
:102720003A4908603A4801683848006808F056FBA2
:10273000044621463548006808F0C4FB3549086066
:10274000354801682748006808F0B6FE0746334858
:102750000168384608F0B6FB06462A48016830464C
:1027600008F0AAFE05462B480168284608F06CFDD3
:10277000044624480168204608F030FB20490860E0
:10278000244801684FF07E5008F096FE04461F482A
:102790000168204608F058FD1C490860BDE8F0813A
:1027A00068030020DC000020E000002098000020EA
:1027B000D8000020D0000020F0000020F800002009
:1027C00008010020180100202001002024FAFFFF4A
:1027D000940000202801002041D3423E2C0100201B
:1027E000A1D819439000002050010020540100207E
:1027F0004801002058010020440100204C01002025
:10280000680100206C0100206001002070010020A0
:102810005C01002064010020380100203C01002000
:1028200070B51E4800681E4908601E4801681E48B1
:10283000006808F0D3FA1C4908601C4801681A486F
:10284000006808F0CBFA044621461748006808F0F3
:1028500039FB17490860124801681648006808F0FB
:102860002BFE054612480168284608F0EDFC044698
:102870000B480168204608F0B1FA084908600C4886
:1028800001684FF07E5008F017FE044606480168C4
:10289000204608F0D9FC0449086070BDF40100200E
:1028A000F8010020EC010020FC010020E8010020DC
:1028B000F00100209400002008B50121042005F05B
:1028C00085F84FF4C050ADF8000010208DF80300DB
:1028D00003208DF802006946914804F0BBFD0120F9
:1028E000904908609049C1F8AC0108BD10B58C480A
:1028F000001D006820F470408949091D08600846E1
:10290000006840F44050086001208649091F0860B3
:102910008549C1F8B001042004F0A3FA00208149E0
:10292000091F0860042004F09CFA00207E49C1F8C9
:10293000B00110BD10B57A48001D006820F4704049
:102940007749091D08600846006840F44050086057
:102950000020744908607449C1F8AC01042004F0F7
:1029600080FA01206F4908606F49C1F8AC0104206A
:1029700004F077FA10BD10B500246948001D006806
:1029800020F470406649091D08600846006840F45C
:102990000040086001206349091F086004F061FAE3
:1029A00001206149C1F8B00104F05BFA07E0601C46
:1029B000C4B2FA2C03DDFFF7BDFF012010BD59485A
:1029C000843800680028F2D15649086000BFF5E756
:1029D00010B50020534908605148001D006820F4DC
:1029E00070404F49091D08600846006840F4405097
:1029F000086000204C49C1F8AC01022004F031FA13
:102A0000012048490860022004F02BFA00204649C2
:102A1000C1F8B00110BD10B500204249086040481F
:102A2000001D006820F470403D49091D08600846FB
:102A3000006840F44050086001203B49C1F8AC01F7
:102A4000022004F00EFA012036490860022004F04A
:102A500008FA00203449C1F8B00110BD70B5044631
:102A60002F48001D006820F470402D49091D0860A2
:102A70000846006840F4405008600020294908607A
:102A8000002517E0E0092749091F08606006040EC9
:102A9000022004F0E6F901202349C1F8B001022028
:102AA00004F0DFF900201F490860022004F0D9F982
:102AB000681CC5B2082DE5DB70BD70B50546002465
:102AC0001748001D006820F470401549091D086072
:102AD0000846006840F400400860002616E0002028
:102AE00010490860022004F0BCF901200E49C1F829
:102AF000B0016006040E0B488438006808B1601C01
:102B0000C4B2012004F0ADF9701CC6B2082EE6DB99
:102B100015B9FFF780FF01E0FFF75AFF204670BDAF
:102B200000080140B00121420000214270B5054675
:102B30000C4600F0CDF9D02000F074FA00F005FA50
:102B400018B100F0E3F9012070BD284600F06AFAE0
:102B500000F0FBF9204600F065FA00F0F6F918B134
:102B600000F0D4F90120EFE700F0D0F90020EBE706
:102B700070B504460025BC2C01DB012510E0622C59
:102B800001DB02250CE02A2C01DB032508E0142CD4
:102B900001DB042504E00A2C01DB052500E0062505
:102BA00029461A20FFF7C2FF70BD70B50446B4F580
:102BB0007A7F01DD4FF47A74042C00DA04244FF498
:102BC0007A7090FBF4F0401EC5B229461920FFF739
:102BD000ADFF0546264604EBD671C1F34F00FFF763
:102BE000C7FF70BD70B5044600F072F9D02000F048
:102BF00019FA00F0AAF9204600F014FA00F0A5F93D
:102C000000F066F9D12000F00DFA00F09EF90020E6
:102C100000F031FA054600F079F9284670BD10B58C
:102C20000446E006010E1C20FFF780FF10BD10B522
:102C30000446E006010E1B20FFF778FF10BD10B51B
:102C400000F02DF980216B20FFF770FF642004F065
:102C50002CF900216B20FFF769FF0320FFF7E7FF46
:102C60000020FFF7DCFF3220FFF79FFF0021382014
:102C7000FFF75CFF00216A20FFF758FF00212320A7
:102C8000FFF754FF80213720FFF750FF7520FFF733
:102C9000A9FF0446682C0BD101216B20FFF746FFEA
:102CA00000216C20FFF742FF3220FFF77EFF01E09A
:102CB000012010BD0020FCE72DE9F04106460F463B
:102CC00014461D4600F004F9002141EA4601C8B24D
:102CD00000F0A8F900F039F920B100F017F901204F
:102CE000BDE8F081384600F09DF900F02EF900F0C3
:102CF000EFF8012101EB4601C8B200F093F900F0B2
:102D000024F90DE0012C04D1002000F0B4F9287062
:102D100003E0012000F0AFF92870601EC4B26D1C02
:102D2000002CEFD100F0F2F80020D9E72DE9F84FA0
:102D30006B46022241216820FFF7BEFF9DF801008B
:102D40009DF8001040EA01200FFA80FA504607F083
:102D5000B5FC804600224B4B07F058FB06464A4A1A
:102D60004A4B07F097FA044607F062FA834648494F
:102D7000584608F069FA044608F09AF900B2BDE82E
:102D8000F88F2DE9FC4104460D4616466B46062297
:102D900043216820FFF790FF0746BFB99DF8010067
:102DA0009DF8001040EA012000B220809DF8030049
:102DB0009DF8021040EA012000B228809DF805002D
:102DC0009DF8041040EA012000B230803846BDE88A
:102DD000FC812DE9FC4104460D4616466B46062251
:102DE0003B216820FFF768FF0746BFB99DF8010047
:102DF0009DF8001040EA012000B220809DF80300F9
:102E00009DF8021040EA012000B228809DF80500DC
:102E10009DF8041040EA012000B230803846BDE839
:102E2000FC812DE9F04105460E461746984600F014
:102E30004FF8002141EA4501C8B200F0F3F800F074
:102E400084F820B100F062F80120BDE8F08130463E
:102E500000F0E8F800F079F800240CE018F804001D
:102E600000F0E0F800F071F818B100F04FF8012020
:102E7000EBE7601CC4B2BC42F0DB00F047F8002076
:102E8000E3E7000000407540A4703D0AD74342408C
:102E90000000C84210B5022003F0E3FF10BD08B5E2
:102EA0000121102004F092FD4FF4C050ADF8000055
:102EB00010208DF8030003208DF802006946864833
:102EC00004F0C8FA4FF4C051834804F070FB08BD09
:102ED00010B58148406820F470407F49486008463A
:102EE000406840F44050486001207C4908607C49BB
:102EF000C1F8B001FFF7CEFF002078490860FFF766
:102F0000C9FF00207649C1F8B00110BD10B5724864
:102F1000406820F47040704948600846406840F4BA
:102F20004050486000206D49091D08606C49C1F897
:102F3000AC01FFF7AFFF01206849091D086068492F
:102F4000C1F8AC01FFF7A6FF10BD10B50024624820
:102F5000406820F47040604948600846406840F48A
:102F60000040486001205D490860FFF793FF0120A1
:102F70005B49C1F8B001FFF78DFF07E0601CC4B2E8
:102F8000FA2C03DDFFF7C2FF012010BD5348803843
:102F900000680028F2D15149091D086000BFF4E71C
:102FA00010B500204D49091D08604B48406820F4C9
:102FB0007040494948600846406840F440504860C5
:102FC00000204749C1F8AC01FFF764FF01204349E5
:102FD000091D0860FFF75EFF00204149C1F8B001FC
:102FE00010BD10B500203D49091D08603A484068F1
:102FF00020F47040384948600846406840F440502A
:10300000486001203649C1F8AC01FFF743FF0120B9
:103010003249091D0860FFF73DFF00203049C1F823
:10302000B00110BD70B504462B48406820F47040D4
:10303000294948600846406840F4405048600020F4
:103040002649091D0860002512E0E00923490860AF
:103050006006040E01202249C1F8B001FFF71AFFF3
:1030600000201E49091D0860FFF714FF681CC5B247
:10307000082DEADB70BD70B505460024164840688F
:1030800020F47040144948600846406840F400400D
:103090004860002615E000201049091D0860FFF770
:1030A000F9FE01200E49C1F8B0016006040E0B487C
:1030B0008038006808B1601CC4B2FFF7EBFE701CDA
:1030C000C6B2082EE7DB15B9FFF78BFF01E0FFF76B
:1030D00067FF204670BD000000100140AC01224295
:1030E0000000224238B50446F74890F82400C0B1E9
:1030F00014B10220009001E000200090F24A126812
:10310000D17BF14A526810786B460122FFF789FEA5
:1031100010B14FF0FF3038BD9DF80010EA484174FF
:1031200023E0E948807A10B94FF0FF30F3E724B18B
:10313000E548407C08B10020EDE714B10120009083
:1031400001E000200090E04A1268D17BDE4A52681C
:1031500010786B460122FFF764FE10B14FF0FF308C
:10316000D9E79DF80010D84841740020D3E738B55E
:1031700000241FE0D4480068C07AA04204D0D2489E
:103180000068407DA04200D112E0CF49496808782C
:103190006B4601222146FFF78FFD10B14FF0FF3043
:1031A00038BD9DF800202146C8A005F07DFE00BF77
:1031B000601CC4B2C44840680079A042DADC002038
:1031C000EEE770B504460D46BF480068C07AA042DD
:1031D00004D0BD480068407DA04202D14FF0FF30CE
:1031E00070BDB94840680079A04202DC4FF0FF3062
:1031F000F6E7B549496808782B4601222146FFF7D2
:103200005BFDEDE738B50446AF4890F82300A042D7
:1032100001D1002038BD14B13020009001E0002021
:103220000090A948807C20B19DF8000040F0020089
:103230000090A54890F8220020B19DF8000040F0D1
:1032400080000090A04A1268117D9F4A5268107851
:103250006B460122FFF7E5FD10B14FF0FF30D9E7D3
:10326000994880F823400020D4E738B5044604F09C
:10327000700010B10120009005E014B10020009012
:1032800001E040200090904A1268917C8E4A52687A
:1032900010786B460122FFF7C4FD20B100218A4857
:1032A0008172481E38BD9DF8000020F0400186481C
:1032B00001730020009004F0400020B99DF8000048
:1032C00040F00400009004F0200020B99DF80000B8
:1032D00040F00200009004F0100020B99DF80000BA
:1032E00040F00100009004F0080020B99DF80000B3
:1032F00040F038000090744A1268D17C724A5268DB
:1033000010786B460122FFF78CFD20B100216E483A
:103310008172481EC6E724B1082C02D00020FFF7B6
:1033200071FF6948847200210175322003F0BDFDF0
:103330000020B7E738B504466348807CA04201D13D
:10334000002038BD002C46D05F4A126811795E4AD1
:10335000526810786B460122FFF7AEFC10B14FF0B7
:10336000FF30EEE79DF8000020F020000090564A64
:1033700012681179544A526810786B460122FFF79F
:1033800050FD10B14FF0FF30DBE7032003F08DFD5F
:10339000022000904C4890F8220020B19DF80000D7
:1033A00040F080000090484890F8230020B19DF83C
:1033B000000040F030000090434A1268117D424AFC
:1033C000526810786B460122FFF72BFD002851D080
:1033D0004FF0FF30B5E73C4A126811793A4A52681B
:1033E00010786B460122FFF767FC10B14FF0FF30F9
:1033F000A7E73548807A00F0010028B19DF8000069
:1034000040F02000009004E09DF8000020F0200033
:1034100000902D4A126811792B4A526810786B4639
:103420000122FFF7FEFC10B14FF0FF3089E70320C7
:1034300003F03BFD244890F8220010B1802000905A
:1034400001E000200090204890F8230020B19DF872
:10345000000040F0300000901B4A1268117D1A4AAB
:10346000526810786B460122FFF7DBFC10B14FF079
:10347000FF3066E714488474002062E708B51248FC
:10348000807A10B94FF0FF3008BD002000900E4A3E
:103490001268D17B0C4A526810786B460122FFF704
:1034A000C0FC10B14FF0FF30EEE7074A12685179C7
:1034B000054A526810786B460122FFF7B2FC68B1EA
:1034C0004FF0FF30E0E70000CC02002025233578E4
:1034D0003A20252335780D0A00000000FB4A1268C7
:1034E0001179FA4A526810786B460122FFF799FC6D
:1034F00010B14FF0FF30C7E7F44890F824000028DF
:1035000050D00C200090F14A12681179EF4A5268AD
:1035100010786B460122FFF784FC10B14FF0FF30AA
:10352000B2E7C0200090E948807A00F0010020B1A5
:103530009DF8000040F020000090E44A12681179E4
:10354000E24A526810786B460122FFF76AFC10B11C
:103550004FF0FF3098E7DD48407C10B1022000902A
:1035600001E000200090D94A1268D17BD74A526806
:1035700010786B460122FFF754FC10B14FF0FF307A
:1035800082E700200090D14A12685179CF4A5268F0
:1035900010786B460122FFF744FC002855D04FF00D
:1035A000FF3071E704200090C84A12681179C74AB9
:1035B000526810786B460122FFF733FC10B14FF0D0
:1035C000FF3061E7C148807C20B9C048807A00F0B4
:1035D000010010B94020009001E060200090BB4A3B
:1035E00012681179B94A526810786B460122FFF7C8
:1035F00018FC10B14FF0FF3046E7322003F055FCC5
:10360000B248407C10B10120009001E00020009001
:10361000AE4A1268D17BAD4A526810786B460122DF
:10362000FFF7FFFB10B14FF0FF302DE7A74A1268FC
:103630005179A64A52681078A44B10330122FFF743
:10364000F0FB10B14FF0FF301EE700201CE770B513
:103650000446002624F001049C4890F8240008B198
:10366000002070BD9948807A10B94FF0FF30F8E71C
:103670009648057C807A2040944908740846007C6E
:10368000A04202D04FF0FF3600E0002614B98F4868
:10369000007D18B10120FFF725FD02E00020FFF7B3
:1036A00021FD3CB1FFF7EAFE20B1884805744FF0D8
:1036B000FF30D6E73046D4E738B504468348807AF1
:1036C00010B94FF0FF3038BDBC2C02DB0120009058
:1036D00015E0622C02DB0220009010E02A2C02DBB5
:1036E000032000900BE0142C02DB0420009006E085
:1036F0000A2C02DB0520009001E0062000907348B0
:10370000C07A9DF80010884201D10020DBE76F4AA3
:10371000126891786D4A526810786B460122FFF763
:1037200080FB10B14FF0FF30CDE79DF800106748E7
:10373000C1720020C7E738B50446282C02DD4FF0DF
:10374000FF3038BDDCB90020FFF75CFD00208DF8AC
:10375000000007208DF801005C4A1268917C5B4AEA
:10376000526810786B460222FFF75BFB10B14FF0F6
:10377000FF30E6E70021554801750020E1E7012010
:10378000FFF740FD20208DF80000012C06D100201D
:103790008DF801000520FFF78FFF17E0052C06DCF0
:1037A00001208DF801000520FFF786FF0EE0142CA4
:1037B00006DC02208DF801000A20FFF77DFF05E0FE
:1037C00003208DF801001420FFF776FF9DF801001B
:1037D000072101EB8010C0B28DF801003B4A12684E
:1037E000917C3A4A526810786B460222FFF719FB27
:1037F00010B14FF0FF30A4E7082134488172002156
:103800000173012101750020FFF721FF002098E7D7
:1038100038B504462D48807A10B94FF0FF3038BDD6
:103820002A4890F8240010B14FF0FF30F7E72748FE
:10383000007D50B134B1282C04DCE0B2FFF77BFFEF
:103840000020ECE70020FFF776FF042C01DA0424C7
:1038500004E0B4F57A7F01DD4FF47A744FF47A70A6
:1038600090FBF4F0401EC0B20090184A12685178E4
:10387000164A526810786B460122FFF7D2FA10B14F
:103880004FF0FF30CBE79DF80000401C4FF47A71F9
:1038900091FBF0F081B20D48C1810146C989481001
:1038A000FFF70AFF0020BAE738B504460748807AD8
:1038B00010B94FF0FF3038BD022C09D0042C0AD0CB
:1038C000082C0BD0102C0FD10BE00000CC020020F4
:1038D000002000900BE00820009008E010200090ED
:1038E00005E01820009002E04FF0FF30E3E700BF52
:1038F000F848407A9DF80010B0EBE10F01D10020AC
:10390000D9E7F44A1268D179F24A526810786B46C6
:103910000122FFF786FA10B14FF0FF30CBE79DF898
:103920000000C110EB4841720020C4E738B50446DE
:10393000E848807A10B94FF0FF3038BDFA2C09D032
:10394000B4F5FA7F09D0B4F57A7F09D0B4F5FA6FEF
:103950000CD108E0002000900BE00820009008E067
:103960001020009005E01820009002E04FF0FF309A
:10397000E3E700BFD748007A9DF80010B0EBE10FF5
:1039800001D10020D9E7D34A12689179D14A52680F
:1039900010786B460122FFF744FA10B14FF0FF3068
:1039A000CBE79DF80000C010CA4908720020C4E7A8
:1039B0001CB580208DF80000C64A1268917CC54A6B
:1039C000526810786B460122FFF72BFA10B14FF0C6
:1039D000FF301CBD642003F068FA00208DF8000061
:1039E000BC4A1268917CBB4A526810786B4601222F
:1039F000FFF717FA10B14FF0FF30EAE7B54A126847
:103A0000917DB44A526810786B460622FFF754F94C
:103A100010B14FF0FF30DCE79DF80500C007400F04
:103A20009DF8031001F0010140EA41009DF80110EA
:103A300001F0010140EA010494B1012C03D10121FC
:103A4000A448C17431E0022C03D10021A148C17403
:103A50002BE02146A0A005F027FA4FF0FF30B8E791
:103A60009C4A1268D1789B4A526810786B460122B2
:103A7000FFF722F910B14FF0FF30AAE79DF80000E0
:103A800000F00F042CB99E4805F00EFA4FF0FF30FD
:103A90009FE7042C06D19BA005F006FA01218D4872
:103AA000C17402E000218B48C174FF2189488172F2
:103AB000FF2088490872FF2186484172C1724FF683
:103AC000FF71C181FF21017481740121017380F8AC
:103AD0002210002180F82310417501751630016015
:103AE00041608160163880F8241080F82510C18468
:103AF0004FF4FA60FFF71AFF10B14FF0FF3068E79C
:103B00000220FFF7D1FE10B14FF0FF3061E72A200D
:103B1000FFF7D2FD10B14FF0FF305AE73220FFF728
:103B200077FE10B14FF0FF3053E70020FFF78FFD15
:103B300010B14FF0FF304CE70020FFF7FBFB10B156
:103B40004FF0FF3045E70020FFF78FFB002040E7F4
:103B500070477CB504460D465E48807A00F07000E0
:103B600010B94FF0FF307CBD5A4A1268117B594A98
:103B7000526810786B460622FFF79EF810B14FF09E
:103B8000FF30F0E79DF801009DF8001040EA0120A9
:103B900000B220809DF803009DF8021040EA012049
:103BA00000B260809DF805009DF8041040EA0120F5
:103BB00000B2A08015B12846FFF7CAFF0020D2E767
:103BC0007CB504460D464348807A00F0080010B9E1
:103BD0004FF0FF307CBD3F4A1268517B3D4A52682E
:103BE00010786B460622FFF767F810B14FF0FF30F0
:103BF000F0E79DF801009DF8001040EA012000B2B6
:103C000020809DF803009DF8021040EA012000B2D8
:103C100060809DF805009DF8041040EA012000B284
:103C2000A08015B12846FFF793FF0020D2E72DE9C9
:103C3000FE4F05460C462748807A18B94FF0FF30F2
:103C4000BDE8FE8F234A1268917B224A52681078A1
:103C500002AB0222FFF730F810B14FF0FF30EFE770
:103C60009DF809009DF8081040EA012006B214B141
:103C70002046FFF76DFF17494968C88807F09CFA8E
:103C8000144901904968B1F9080007F04DFA8346DC
:103C9000304607F049FA5946009007F00DFC82467D
:103CA000019907F00FF981461E4907F097F8804601
:103CB0004FF08F4107F0C8FA074607F0F9F928607E
:103CC0000020BDE710B588B004466CBB4FF0FF3054
:103CD00008B010BDCC020020556E737570706F7205
:103CE00074656420736F6674776172652070726F9B
:103CF00064756374207265762025642E0A000000C6
:103D0000E0C4000848616C662073656E736974696D
:103D100076697479207061727420666F756E642E96
:103D20000A00000000000C42FFE7206830B960681C
:103D300020B9A06810B9002008B010BDFA49496840
:103D4000087806AB03221146FEF7B6FF10B14FF01C
:103D5000FF30F1E79DF81800082101EB201000F07A
:103D60000F00ADF800009DF8190001EB201000F0E5
:103D70000F00ADF802009DF81A0001EB201000F0D2
:103D80000F00ADF8040020684100BDF9000040308C
:103D900091FBF0F000B2ADF8100060684100BDF991
:103DA0000200403091FBF0F000B2ADF81200A068C4
:103DB0004100BDF90400403091FBF0F000B2ADF8D5
:103DC0001400D9494968087806AB06221146FEF767
:103DD00073FF10B14FF0FF30AEE79DF819009DF86A
:103DE000181040EA012000B2ADF808009DF81B0051
:103DF0009DF81A1040EA012000B2ADF80A009DF8C3
:103E00001D009DF81C1040EA012000B2ADF80C0026
:103E1000BDF81000BDF80810084400B2ADF810005D
:103E2000BDF81200BDF80A10084400B2ADF8120047
:103E3000BDF81400BDF80C10084400B2ADF8140031
:103E4000BDF81000000A8DF81800BDF81000C0B2CF
:103E50008DF81900BDF81200000A8DF81A00BDF89F
:103E60001200C0B28DF81B00BDF81400000A8DF8D6
:103E70001C00BDF81400C0B28DF81D00AA494968A5
:103E8000087806AB06221146FEF7CBFF10B14FF0C3
:103E9000FF3051E700204FE70146A348007A30B1D8
:103EA000012807D0022809D003280FD10AE0FA2000
:103EB00008800EE04FF4FA7008800AE04FF47A7040
:103EC000088006E04FF4FA60088002E000200880D5
:103ED00000BF00BF0020704701469348407A30B1D0
:103EE000012807D0022808D003280CD108E00220BE
:103EF00008700BE00420087008E00820087005E056
:103F00001020087002E04FF0FF30704700BF864875
:103F1000C07C18B108784006000E08700020F4E755
:103F200001468148C07A082817D2DFE800F017045C
:103F3000070A0D101318BC20088013E062200880C7
:103F400010E02A2008800DE0142008800AE00A20F2
:103F5000088007E00520088004E000BF00BF0020C3
:103F6000088000BF00BF0020704701466E4890F8EF
:103F7000240010B14FF0FF3070476B48C0890880B3
:103F80000020F9E7014600200880401E70470146E6
:103F90004FF0FF30704701466348007A30B1012886
:103FA00007D0022808D003280CD108E05F48086039
:103FB0000BE05F48086008E05E48086005E05E4886
:103FC000086002E04FF0FF30704700BF0020FBE7C1
:103FD00001465548407A30B1012808D002280AD05D
:103FE000032810D10BE04FF4804008800EE041F62A
:103FF0009C7008800AE04FF48050088006E04FF47F
:104000000060088002E04FF0FF30704700BF464874
:10401000C07C10B10888401008800020F5E70146F8
:104020004148007C08700020704701463E48807A75
:1040300010B10120087001E00020087000207047D6
:1040400038B504463848807A10B94FF0FF3038BD93
:10405000354A1268117C344A526810786B46022245
:10406000FEF72AFE10B14FF0FF30F0E79DF8010097
:104070009DF8001040EA012000B220800020E6E711
:104080002DE9FE4F0746884692461D46DDF830B0C2
:1040900000260024244890F8240010B1601EBDE8DA
:1040A000FE8F002028702048807A10B94FF0FF3032
:1040B000F5E71D48007C10B94FF0FF30EFE71A48D4
:1040C000007C00F0400008B1B01CC6B21648007C6D
:1040D00000F0200008B1B01CC6B21348007C00F00C
:1040E000100008B1B01CC6B20F48007C00F00800F8
:1040F00008B1B01DC6B20C4A1268917A0A4A5268D9
:1041000010786B460222FEF7D7FD10B14FF0FF305A
:10411000C5E79DF801009DF8001040EA0129B1456E
:104120000CDA0020BBE70000CC02002000000343B3
:10413000000083423333034233338341FC484068F9
:104140004088B9EB600F17DDF94A1268517CF84AD4
:10415000526810786B460122FEF7AEFD10B14FF0A9
:10416000FF309CE79DF8000000F0100020B1FFF741
:1041700085F96FF0010092E75046FFF7E9FCEC4A41
:104180001268D17AEA4A526810786B463246FEF7D6
:1041900093FD10B14FF0FF3081E799FBF6F0401E20
:1041A0008BF8000000202870B4422AD0E048007C40
:1041B00000F0080028B3601C1DF800001DF8041072
:1041C00040EA012000B2A8F80000E01C1DF8001031
:1041D000A01C1DF8000041EA002000B2A8F802006F
:1041E000601D1DF80010201D1DF8000041EA002090
:1041F00000B2A8F80400287840F008002870A01D3C
:1042000084B2B44213D0CA48007C00F0400070B1C0
:10421000601C1DF800001DF8041040EA012000B2E7
:104220003880287840F040002870A01C84B2B44246
:1042300013D0BF48007C00F0200070B1601C1DF856
:1042400000001DF8041040EA012000B278802878B0
:1042500040F020002870A01C84B2B44213D0B448AF
:10426000007C00F0100070B1601C1DF800001DF80B
:10427000041040EA012000B2B880287840F0100015
:104280002870A01C84B2002009E7F8B504460F4648
:104290001646A74890F8240010B94FF0FF30F8BD3B
:1042A000A348807A10B94FF0FF30F8E7A04A1268AF
:1042B000917A9F4A526810786B460222FEF7FCFC06
:1042C00010B14FF0FF30EAE79DF801009DF80010B3
:1042D00040EA0125A54203DA00203070401EDEE7E7
:1042E000934840684088B5EB600F17DD904A12682C
:1042F000517C8F4A526810786B460122FEF7DCFC35
:1043000010B14FF0FF30CAE79DF8000000F0100038
:1043100020B1FFF7B3F86FF00100C0E7E2B2844BC1
:104320001B68D97A824B5B6818783B46FEF7C4FC61
:1043300010B14FF0FF30B2E795FBF4F0401E307043
:104340000020ACE701467A4880F822100020704730
:104350007CB5054676494968087801AB04220D21F1
:10436000FEF7AAFC08B107207CBD9DF80700C0F34A
:1043700001109DF8041001F0E00140EAE1008DF821
:1043800000009DF80700C0F381009DF8051001F0C2
:10439000E00140EAE1008DF801009DF8070000F01F
:1043A00003009DF8061001F0E00140EAE1008DF8FD
:1043B000020000241CE01DF8040018B9002045F894
:1043C000240013E05B4845F8240006E055F824007B
:1043D000594906F039FF45F824001DF80400401E35
:1043E000C0B20DF804000028F0D100BF601CC4B2B8
:1043F000032CE0DB0020B7E72DE9FE4F06460F4611
:1044000000256846FFF7A4FF002442E056F8240088
:1044100057F82410A0EB010ABAF1000F01DB514656
:1044200001E0CAF10001084606F07EFE83464FF027
:104430008F4106F047FD80465DF82400002106F01C
:1044400003FE16D05DF82410404606F03BFD824680
:104450004FF07E5107F030F8814629F0004A374886
:10446000416A504606F0BCFF12D20120A04005432D
:104470000EE03248C169404606F0B2FE05D32F482F
:10448000016A404606F0ACFF02D20120A04005437D
:10449000641C032CBADB2846BDE8FE8F2DE9FC5FC7
:1044A00006460F46002522494968087801AB0322D9
:1044B0000D21FEF701FC10B10720BDE8FC9F9DF81F
:1044C000040000F01F008DF804009DF8050000F0C6
:1044D0001F008DF805009DF8060000F01F008DF804
:1044E0000600002462E056F8240057F82410A0EBE0
:1044F000010BBBF1000F01DB594601E0CBF10001DC
:10450000084606F011FE4FF08F41009006F0DAFCED
:10451000814601A8005DC0B30849086806F04CFE5A
:1045200083465946064806F0CDFC80460FE0000061
:10453000CC0200207B14AE3E1D5A843F08B7000811
:1045400000B04C45FE49404606F07EFE804601A87C
:10455000005D401EC0B201A908550028F2D14146B5
:10456000484606F0AFFC83464FF07E5106F0A4FFAC
:1045700082462AF0004BF3488169584606F030FF26
:1045800013D20120A04005430FE0FFE7ED48016989
:10459000484606F025FE05D3EA484169484606F03C
:1045A0001FFF02D20120A0400543641C032C9ADBAC
:1045B000284682E72DE9F04F87B005460C46914624
:1045C00001208DF8100000208DF81100DE4A1268DD
:1045D000917CDD4A5268107804AB0222FEF721FC80
:1045E00020B14FF0FF3007B0BDE8F08FC82002F0D7
:1045F0005CFC00208DF81000D34A1268D17BD24AAF
:104600005268107804AB0122FEF70BFC10B14FF09A
:10461000FF30E8E7CC4A12685179CB4A52681078EB
:1046200004AB0122FEF7FDFB10B14FF0FF30DAE7DB
:10463000C54A1268917CC44A5268107804AB0122C2
:10464000FEF7EFFB10B14FF0FF30CCE7BE4A126827
:10465000D17DBD4A5268107804AB0122FEF7E1FB20
:1046600010B14FF0FF30BEE7B74A12681179B64A71
:104670005268107804AB0122FEF7D3FB10B14FF063
:10468000FF30B0E70C208DF81000AF4A12681179A6
:10469000AD4A5268107804AB0122FEF7C2FB10B19C
:1046A0004FF0FF309FE70F2002F0FFFBA648806A23
:1046B000407A8DF81000A44A12689178A24A526894
:1046C000107804AB0122FEF7ACFB10B14FF0FF30C5
:1046D00089E79D48806A007A8DF810009A4A12682E
:1046E0005178994A5268107804AB0122FEF799FB81
:1046F00010B14FF0FF3076E7B9F1000F07D09248C4
:10470000806A807A40F0E0008DF8100004E08E4866
:10471000806A807A8DF810008B4A126891798A4AF3
:104720005268107804AB0122FEF77BFB10B14FF00A
:10473000FF3058E7B9F1000F07D08348806AC07A8C
:1047400040F0E0008DF8100003E07E48C07A8DF85C
:1047500010007D4A1268D1797B4A5268107804AB08
:104760000122FEF75EFB10B14FF0FF303BE7B9F1DD
:10477000000F02D0C82002F098FB40208DF81000F6
:10478000714A12681179704A5268107804AB01229C
:10479000FEF747FB10B14FF0FF3024E778208DF88B
:1047A0001000694A12685179674A5268107804AB60
:1047B0000122FEF736FB10B14FF0FF3013E76149DD
:1047C000888902F072FB00208DF810005E4A1268A2
:1047D00051795D4A5268107804AB0122FEF721FB43
:1047E00010B14FF0FF30FEE6574A1268917A564AF0
:1047F0005268107804AB0222FEF75EFA10B14FF057
:10480000FF30F0E69DF811009DF8101040EA012BF2
:104810000C209BFBF0F0C6B20020A8606860286006
:10482000A06060602060824665E0474A1268D17AE5
:10483000454A5268107804AB0C22FEF73DFA10B1DD
:104840004FF0FF30CFE69DF811009DF8101040EAC0
:10485000012000B2ADF808009DF813009DF8121079
:1048600040EA012000B2ADF80A009DF815009DF85D
:10487000141040EA012000B2ADF80C00BDF9081098
:10488000206808442060BDF90A1060680844606030
:10489000BDF90C10A0680844A0609DF817009DF8B1
:1048A000161040EA012000B2ADF800009DF8190092
:1048B0009DF8181040EA012000B2ADF802009DF802
:1048C0001B009DF81A1040EA012000B2ADF8040068
:1048D000BDF90010286808442860BDF90210686816
:1048E00008446860BDF90410A8680844A8600AF18B
:1048F000010000F0FF0AB24597DB1248D0F800C073
:104900002868C117090441EA1041070462460023E0
:10491000384604F0A4FA32460023CDE9020104F03F
:104920009EFA28600748D0F800C06868C1170904DB
:1049300041EA1041070462460023384606E00000C1
:1049400054E3853F08B70008CC02002004F087FA42
:1049500032460023CDE9020104F081FA6860FE4886
:10496000D0F800C0A868C117090441EA1041070443
:1049700062460023384604F072FA32460023CDE93D
:10498000020104F06CFAA860F348D0F804C0216872
:10499000C817000440EA11480F0462460023384655
:1049A000414604F05CFA32460023CDE9020104F0EE
:1049B00056FA2060E848D0F804C06068C1170904BE
:1049C00041EA1041070462460023384604F047FAE2
:1049D00032460023CDE9020104F041FA6060DE486E
:1049E000D0F804C0A068C117090441EA10410704C7
:1049F00062460023384604F032FA32460023CDE9FD
:104A0000020104F02CFAA060A068002804DDA06870
:104A1000A0F58030A06003E0A06800F58030A060C1
:104A20000020E0E538B50446CC4890F82400A042C8
:104A300001D1002038BD24B3C84890F8250010B932
:104A40004FF0FF30F6E70020FEF74CFB0020FEF7AA
:104A500071FCC249C88CFEF7DBFE00200090BF4904
:104A6000496808786B4601222321FEF7DAF9012113
:104A7000BA4880F824100120FEF734FBFEF7FEFC54
:104A800013E00020FEF72EFBB448007C0090B349F1
:104A9000496808786B4601222321FEF7C2F90021FC
:104AA000AE4880F82410FEF7E9FC0020C2E72DE9AB
:104AB000F04F8DB083460F4602200C90A74890F827
:104AC000240020B10020FFF7ADFF012600E0002602
:104AD00003A8FFF7E1F905A8FFF7FEF901A8FFF722
:104AE0001FFA02A8FFF741FA9C4890F80AA004A810
:104AF000FFF795FA002407E0002239465846FFF7F1
:104B000059FD00B902E0641C022CF5DB00BF022C49
:104B100001D1002528E0002407E0012206A909A808
:104B2000FFF748FD00B902E0641C022CF5DB00BF72
:104B3000022C01D1002517E006A93846FFF75CFCDE
:104B400000F0FF0809A95846FFF7A8FC00F0FF098C
:104B50000025B9F1000F01D145F00105B8F1000FB2
:104B600001D145F0020500BFFF207C490872FF21FA
:104B70007A484172C1724FF6FF71C181FF21817283
:104B8000017401210173BDF80C00FEF7CFFE9DF802
:104B90001400FEF789FEBDF80400FEF78DFDBDF898
:104BA0000800FEF735FE5046FEF75FFB9DF810004B
:104BB000FEF74DFD16B10120FFF734FF28460DB07A
:104BC000BDE8F08FF8B504460D46164616B94FF00D
:104BD000FF30F8BD6148807A10B94FF0FF30F8E738
:104BE00020128DF80000E0B28DF801009DF8010060
:104BF00028445A4949684989884202DD4FF0FF300C
:104C0000E7E7564A1268117E544A526810786B469C
:104C10000222FEF706F910B14FF0FF30D9E7EAB2F1
:104C20004E4B1B68597D4D4B5B6818783346FEF739
:104C3000F8F810B14FF0FF30CBE70020C9E7F8B526
:104C400004460D46164616B94FF0FF30F8BD4348EE
:104C5000807A10B94FF0FF30F8E720128DF800008D
:104C6000E0B28DF801009DF8010028443B494968F5
:104C70004989884202DD4FF0FF30E7E7374A126882
:104C8000117E364A526810786B460222FEF7C9F848
:104C900010B14FF0FF30D9E7EAB2304B1B68597DB5
:104CA0002E4B5B6818783346FEF706F810B14FF0CC
:104CB000FF30CBE70020C9E72DE9F04385B005467A
:104CC0000E4690469946254890F8250020B14FF0B1
:104CD000FF3005B0BDE8F08316B94FF0FF30F8E7BC
:104CE000002423E0281B102801DD102000E0281BF1
:104CF00087B2321939462046FFF764FF10B14FF0F2
:104D0000FF30E6E701AA39462046FFF798FF10B1C9
:104D10004FF0FF30DDE730193A4601A904F0FCF905
:104D200010B16FF00100D4E7E01984B2AC42D9DBD6
:104D30004FEA28208DF8000008F0FF008DF80100F0
:104D4000064A1268917E054A526810786B46022224
:104D5000FEF767F838B103E008B70008CC0200207E
:104D60004FF0FF30B5E70121FE4880F82510A0F88C
:104D700026900020ADE70146FA4890F8240008701C
:104D8000002070474FF0FF30704702464FF0FF3071
:104D9000704701464FF0FF307047F8B505460F46A3
:104DA0001446002C70D0B5F5FF5F01DDFF2605E04D
:104DB000202D01DA012601E0C5F3471607B90127C6
:104DC000282C02DD4FF0FF30F8BDE648407D28BBBF
:104DD000E44890F8240038B10020FFF723FE0121B9
:104DE000E04880F8201003E00021DE4880F8201021
:104DF000DC481630FFF750F8DA481830FFF76CF847
:104E0000D8481A30FFF78CF8D6481C30FFF7ADF8B9
:104E1000D448817A81771F30FFF701F90020FEF72F
:104E200061F90020FEF787FC00208DF80000CD4AD4
:104E300012689178CB4A526810786B460122FDF7D0
:104E4000F0FF10B14FF0FF30BEE740208DF80000BA
:104E5000C44A1268D17BC34A526810786B4601225B
:104E6000FDF7DFFF00B165E08DF800608DF801709F
:104E7000BC4A1268117ABB4A526810786B4602220B
:104E8000FDF7CFFF08B155E047E0052002F00DF82F
:104E9000B448407A072101EBC000C0B28DF8000091
:104EA000B04A1268D179AF4A526810786B46012235
:104EB000FDF7B7FF00B13DE020208DF80000012C88
:104EC00003D100208DF801000EE0052C03DC012049
:104ED0008DF8010008E0142C03DC02208DF801009D
:104EE00002E003208DF801009DF80100072101EB8D
:104EF0008010C0B28DF801009A4A1268917C994ADC
:104F0000526810786B460222FDF78BFF00B111E06A
:104F1000012194484175002056E7924A163200213B
:104F200003E0505C00B105E0491C0C29F9D34FF0B7
:104F3000FF3049E7FF208B490872FF218948417201
:104F4000C1724FF6FF71C181FF218172017401218D
:104F500001730146887FFEF788F98249C88AFEF707
:104F6000E5FC8049087EFEF79FFC7E49488BFEF7F2
:104F7000A3FB7C49888BFEF74BFC7A49C87FFEF780
:104F800066FB784890F8200010B10120FFF74AFD39
:104F9000002174484175002016E770B588B002A959
:104FA00005A8FFF784FD0446032C3ED101A8FEF7B7
:104FB000F2FF059806F0B8F80646019906F044F9A4
:104FC000054606F075F80590069806F0ADF8064619
:104FD000019906F039F9054606F06AF80690079837
:104FE00006F0A2F80646019906F02EF9054606F0ED
:104FF0005FF8079005A800F054FA6846FEF7E8FF4E
:10500000BDF80010029848430290BDF800100398C4
:1050100048430390BDF8001004984843049002A848
:1050200000F0D2FA002008B070BD0120FBE7014675
:1050300091F90020002A01DD00201EE091F90020F6
:10504000002A01DA042018E091F90120002A01DD8C
:10505000012012E091F90120002A01DA05200CE07C
:1050600091F90220002A01DD022006E091F90220D8
:10507000002A01DA062000E00720704710B5044638
:105080002046FFF7D4FF0346E01CFFF7D0FF43EABA
:10509000C00083B2A01DFFF7CAFF43EA801083B2AD
:1050A000184610BD70B50024FDF7F9FEFEF780FC30
:1050B000002840D17820FEF7D8F8C4B20CB1012006
:1050C00070BD7820FEF7C3FAC4B20CB10220F7E736
:1050D0006420FEF79DFBC4B20CB10320F0E700F0A2
:1050E00045F9C4B20CB10420EAE71F48FFF7C6FF38
:1050F000054600F045F9C4B20CB10520E0E740F2E6
:10510000731000F07EFDC4B20CB10620D8E7642015
:1051100000F0F0FAC4B20CB10720D1E7FFF73DFF71
:1051200004460CB10820CBE70120FFF77BFCC4B29A
:105130001CB10920C4E70A20C2E70020C0E72DE91E
:10514000F04F99B004460D4616464FF07E574FF08B
:1051500000084FF000094FF0000A12A813A918AB7D
:105160000EAA03E0CC020020F8020020CDE90010D6
:1051700014A916A800F0A4FE18B1012019B0BDE8CA
:10518000F08FBDF84C0000F4807000287ED00E989F
:1051900005F0CAFF83464FF09D4105F093FE074698
:1051A0000F9805F0C1FF83464FF09D4105F08AFE40
:1051B0008046109805F0B8FF83464FF09D4105F0FA
:1051C00081FE8146119805F0AFFF83464FF09D4167
:1051D00005F078FE824639464FF0804006F034F8FC
:1051E0004946059006F030F8414607904FF04040A0
:1051F00006F02AF85146059006F026F80690079921
:1052000005F0ECFD834605F0BDFDCDE9080104F095
:10521000A3FA4FF06632544BCDE90A0105F0A2FA29
:10522000CDE90C0105F004F8206049464FF08040BC
:1052300006F00AF84946029006F006F84146049046
:105240004FF0404006F000F84146029005F0FCFFA8
:105250000390049906F030F983464FF07E5105F033
:10526000BDFD059005F08EFDCDE9080139464FF0F2
:10527000804005F0E9FF4146039005F0E5FF49460F
:1052800004904FF0804005F0DFFF00E068E05146F9
:10529000039005F0D9FF8346049905F09FFD059022
:1052A00005F070FDCDE90601DDE9082304F09CFC62
:1052B0004FF066322C4BCDE90A0105F053FACDE9E7
:1052C0000C0104F0B5FF28605146504605F0BCFFC4
:1052D00049460490484605F0B7FF414603904046D2
:1052E00005F0B2FF39460190384605F0ADFF009059
:1052F000019905F073FD0290039906F0DDF88346ED
:10530000049906F0D9F8059005F03CFDCDE90801B7
:105310005146384605F098FF49460490404605F04E
:1053200093FF0390049905F059FD4FF080410590DB
:1053300005F08AFF834605F025FDCDE90601DDE98C
:10534000082304F051FC4FF06632074BCDE90A0107
:1053500005F008FACDE90C0104F06AFF306001E0C5
:1053600002200BE7002009E766A64C4010B5C823D1
:105370004FF48062F74940F6F630FFF79DFC10BD10
:1053800010B586B00446F4A000680390F3A000684E
:105390000290F3A000680190F2A00068009004F071
:1053A000030003A9085C8DF8140003A8C4F3C1012D
:1053B000405C8DF8150003A8C4F38111405C8DF8A2
:1053C000160004F0030002A9085C8DF8100002A882
:1053D000C4F3C101405C8DF8110002A8C4F381112F
:1053E000405C8DF8120005AA032140F22640FFF729
:1053F000E9FB18B14FF0FF3006B010BD04AA03213D
:1054000040F22A40FFF7DEFB10B14FF0FF30F3E728
:10541000019805900098049004F0040058B19DF89C
:10542000140040F001008DF814009DF8100040F0C9
:1054300001008DF8100004F0200058B19DF815000F
:1054400040F001008DF815009DF8110040F00100BA
:105450008DF8110004F4807058B19DF8160040F0EA
:1054600001008DF816009DF8120040F001008DF843
:10547000120005AA03214FF48860FFF7A3FB10B1C7
:105480004FF0FF30B8E704AA032140F23140FFF7A4
:1054900099FB10B14FF0FF30AEE7B3480481002014
:1054A000AAE71FB50446B048007A00F0030054F89C
:1054B00020000190AC48007A00F0040010B101987F
:1054C00040420190A848007AC0F3C10054F820007F
:1054D0000290A548007A00F0200010B102984042E6
:1054E0000290A148007AC0F3811054F82000039084
:1054F0009D48008900F4807010B1039840420390E9
:105500009A49019880FB0101800F40EA81000190D7
:105510009649029880FB0110820042EA9170029045
:105520009249039880FB0110820042EA9170039037
:105530000198000E8DF800000198000C8DF8010014
:105540000198000A8DF802000198C0B28DF803009E
:105550006A4604214FF47470FFF734FB18B14FF022
:10556000FF3004B010BD0298000E8DF800000298C4
:10557000000C8DF801000298000A8DF802000298D4
:10558000C0B28DF803006A4604214FF47570FFF72E
:1055900019FB10B14FF0FF30E3E70398000E8DF8D0
:1055A00000000398000C8DF801000398000A8DF8A4
:1055B00002000398C0B28DF803006A4604214FF43C
:1055C0007670FFF7FFFACCE770B588B0064601A801
:1055D000FEF7FEFCBDF804000021C90341EA504576
:1055E000C4036148007A00F0030056F820000590DB
:1055F0005D48007A00F0040010B105984042059023
:105600005948007AC0F3C10056F820000690564869
:10561000007A00F0200010B10698404206905248EF
:10562000007AC0F3811056F8200007904E48008998
:1056300000F4807010B10798404207900598C11798
:10564000A0FB042301FB043100FB0510810041EAAB
:10565000927005900698C117A0FB042301FB04314A
:1056600000FB0510810041EA927006900798C1176F
:10567000A0FB042301FB043100FB0510810041EA7B
:10568000927007900598000E8DF808000598000CA0
:105690008DF809000598000A8DF80A000598C0B237
:1056A0008DF80B000698000E8DF80C000698000C83
:1056B0008DF80D000698000A8DF80E000698C0B20D
:1056C0008DF80F000798000E8DF810000798000C59
:1056D0008DF811000798000A8DF812000798C0B2E3
:1056E0008DF8130002AA0C214FF42570FFF76AFA17
:1056F00008B070BD30B585B004461DA207CA02AB24
:1057000007C3C82C03DD4FF0FF3005B030BDC82003
:1057100090FBF4F0401E85B2280A8DF80000E8B234
:105720008DF801006A46022140F21620FFF74AFA7E
:1057300010B14FF0FF30E8E702AA0C2140F6C1207B
:10574000FFF740FA10B14FF0FF30DEE706488481E2
:105750000020DAE730B700084CCD6C000CC92C00F3
:1057600036567600264666007804002009E3CA0211
:10577000FEF2ABC4AAF1DFDFBBAFDFDF0146FC48BE
:1057800080890880002070472DE9FC4706460F46B7
:1057900006F0070010B1B7F5C86F03DD4FF0FF301A
:1057A000BDE8FC87384605F007FD8146F14905F064
:1057B00089FB80466846FEF78FFB9DF800000228B3
:1057C00006D0042816D0082826D0102848D135E065
:1057D0004FF08D41404605F037FD814605F084FCD1
:1057E00084B2E549404605F02FFD814605F07CFC7A
:1057F00085B238E04FF08C41404605F025FD8146EA
:1058000005F072FC84B2DD49404605F01DFD81467D
:1058100005F06AFC85B226E04FF08B41404605F06A
:1058200013FD814605F060FC84B2D549404605F081
:105830000BFD814605F058FC85B214E04FF08A411B
:10584000404605F001FD814605F04EFC84B2CD498D
:10585000404605F0F9FC814605F046FC85B202E0C1
:105860004FF0FF309CE700BF20128DF80400E0B23B
:105870008DF8050028128DF80600E8B28DF80700B3
:1058800006F00100A0B101AA02214FF4EA70FFF76F
:1058900099F910B14FF0FF3082E70DF106020221B5
:1058A0004FF49270FFF78EF910B14FF0FF3077E7A9
:1058B00006F00200A0B101AA02214FF4EC70FFF73C
:1058C00081F910B14FF0FF306AE70DF106020221B5
:1058D0004FF49470FFF776F910B14FF0FF305FE7A7
:1058E00006F00400A0B101AA02214FF4EE70FFF708
:1058F00069F910B14FF0FF3052E70DF106020221B5
:105900004FF49670FFF75EF910B14FF0FF3047E7A4
:10591000002045E738B504460020009004F001005F
:1059200020B19DF8000040F03000009004F002002B
:1059300020B19DF8000040F00C00009004F004003D
:1059400020B19DF8000040F0030000906A4601215C
:105950004FF4A470FFF736F938BD38B50446012C72
:1059600001DA012402E0042C00DD0424601EC0B230
:1059700000906A46012140F24F10FFF723F938BD2D
:1059800038B50446052094FBF0F085B228128DF856
:105990000000E8B28DF801006A4602214FF4EF7072
:1059A000FFF710F938BD38B50446052094FBF0F038
:1059B00085B228128DF80000E8B28DF801006A4621
:1059C00002214FF4ED70FFF7FDF838BDF8B505463C
:1059D0000E464FF47A7095FBF0F000FB06F4200EB3
:1059E0008DF80000200C8DF80100200A8DF80200CF
:1059F000E0B28DF803006A4604214FF4AE70FFF761
:105A0000E1F8F8BD38B50446052094FBF0F084B207
:105A100020128DF80000E0B28DF801006A460221E4
:105A20004FF4AD70FFF7CEF838BD38B50446052009
:105A300094FBF0F084B220128DF80000E0B28DF8F3
:105A400001006A4602214FF4AC70FFF7BBF838BD85
:105A500038B5044614B94FF0FF3038BD6A4604210A
:105A60004FF45870FFF7EBF810B14FF0FF30F4E748
:105A70009DF8000000069DF8011040EA01409DF8E5
:105A8000021040EA01209DF8031008432060002026
:105A9000E3E738B50446200E8DF80000200C8DF8A1
:105AA0000100200A8DF80200E0B28DF803006A467A
:105AB00004214FF45870FFF785F838BD38B5044617
:105AC00014B94FF0FF3038BD6A4604214FF47170AD
:105AD000FFF7B5F810B14FF0FF30F4E79DF8000084
