:020000040800F2
:10000000080B0020B55800086509000867090008BA
:10001000690900086D090008710900080000000066
:10002000000000000000000000000000750900084A
:100030007709000800000000790900087B09000822
:100040005D160008CF580008CF580008CF580008A8
:10005000CF580008CF580008CF580008CF580008E4
:10006000CF580008CF580008CF580008CF580008D4
:10007000CF580008CF580008CF580008CF580008C4
:10008000CF580008CF580008CF580008CF580008B4
:10009000CF580008CF580008CF580008CF580008A4
:1000A000CF580008CF580008CF580008CF58000894
:1000B000CF580008CF580008FD120008CF5800089C
:1000C000CF580008CF580008CF580008CF58000874
:1000D000CF580008CF580008CF580008CF58000864
:1000E000CF580008CF580008CF580008CF58000854
:1000F000CF580008CF580008CF580008CF58000844
:10010000CF580008CF580008F3110008CF58000856
:10011000CF580008CF580008CF580008CF58000823
:10012000CF580008CF580008CF580008CF58000813
:1001300000F002F800F062F80AA090E8000C824497
:100140008344AAF10107DA4501D100F057F8AFF274
:10015000090EBAE80F0013F0010F18BFFB1A43F0A5
:100160000103184744AD000064AD00000A444FF09D
:10017000000C10F8013B13F0070408BF10F8014B06
:100180001D1108BF10F8015B641E05D010F8016B4B
:10019000641E01F8016BF9D113F0080F1EBF10F8AF
:1001A000014BAD1C0C1B09D16D1E58BF01F801CBD2
:1001B000FAD505E014F8016B01F8016B6D1EF9D555
:1001C0009142D6D37047000000230024002500266A
:1001D000103A28BF78C1FBD8520728BF30C148BFAA
:1001E0000B607047642907F04381782907F07C8110
:1001F000002070471FB51FBD10B510BD07F0D0FB24
:100200001146FFF7F7FF00F009F807F0EEFB03B423
:10021000FFF7F2FF03BC05F025F9000086B00020CF
:1002200005900024002500F01EFC4FF4A06006F0AD
:10023000E5F805F0ADF8472144F61F6001F016FA25
:100240004FF4FA61F94807F02FF84FF4FA61F748D4
:1002500007F02CF84FF4FA61F44807F029F84FF44E
:10026000FA61F24807F026F841F2883005F0CDF83F
:100270004FF47A71ED4807F017F84FF47A71EB48B4
:1002800007F014F84FF47A71E84807F011F84FF4CA
:100290007A71E64807F00EF840F6B83005F0B5F888
:1002A00001F027FE05E0C82005F0AFF8C82005F0F2
:1002B000ACF804F051F80028F5D14FF47A7005F04D
:1002C000A4F801F053FC642005F09FF801F071FAE6
:1002D000642005F09AF801F07CFA4FF47A7005F08A
:1002E00094F847214FF6FF7000F093FF41F61F414D
:1002F000092000F051FF4FF4967005F086F8CC48C5
:100300000068CC490860A3E0CB4ACC49CC4801F056
:1003100092FE00284AD1CA48B0F9000009F00EFC4C
:100320000190C8480168019809F068FA834609F00D
:1003300039FA0022C44BCDE9020108F023FF074639
:1003400008F0F6FBBF490860BC48B0F9000009F0AE
:10035000F5FB0190BD480168019809F04FFA83460A
:1003600009F020FA07460022B74B08F00BFFCDE951
:10037000020108F0DDFBB5490860AF48B0F90000A4
:1003800009F0DCFB0190B2480168019809F036FAE7
:10039000834609F007FA0022AB4BCDE9020108F0D1
:1003A000F1FE074608F0C4FBA9490860A94AAA491A
:1003B000AA4801F068FE00284AD1A848B0F9000018
:1003C00009F0BCFB0190A6480168019809F016FAF3
:1003D000834609F0E7F900229B4BCDE9020108F0C2
:1003E000D1FE074608F0A4FB9D4908609A48B0F981
:1003F000000009F0A3FB01909A480168019809F0F8
:10040000FDF9834609F0CEF9074600228E4B08F02D
:10041000B9FECDE9020108F08BFB924908608D48D6
:10042000B0F9000009F08AFB01908F48016801983B
:1004300009F0E4F9834609F0B5F90022824BCDE9D1
:10044000020108F09FFE074608F072FB864908602B
:100450007848006809F08AFB8449039009F0CEFBD4
:100460008346834909F0CAF907467148006809F0D4
:100470007DFB83467D4909F0C1FB8046394609F082
:1004800089FBFFF441AF6F48006809F01BFB00B225
:10049000784908806D48006809F014FB00B276497D
:1004A00008806B48006809F00DFB00B273490880B2
:1004B0006B48006809F006FB00B271490880694882
:1004C000006809F0FFFA00B26E49088066480068CB
:1004D00009F0F8FA00B26C49088000F045FB0120F1
:1004E0006A49086000206A49C1F88801D6E1059888
:1004F00000287CD06748B0F9000040F24C418842A7
:1005000076DD6448B0F9000004906348B0F900005B
:1005100040F2E351081A6149B1F90010884209DC40
:100520005D48B0F9000000F2E3505C49B1F90010F9
:10053000884216DA59480088A0F2E35006B23046E5
:1005400009F0FCFA834609F02DF9554A554BCDE9DF
:10055000020108F017FE074608F0EAFA524908605F
:1005600002E00020504908604B48B0F9000040F21A
:10057000E451081A4D49B1F90010884209DC464897
:10058000B0F9000000F2E4504849B1F90010884287
:1005900018DA4648008840F2E451081A0FFA80F948
:1005A000484609F0CBFA834609F0FCF807463C4A76
:1005B0003C4B08F0E7FDCDE9020108F0B9FA3C49EF
:1005C000086002E000203A4908603348B0F90000B2
:1005D00040F2E351081A3749B1F9001088420CDCA7
:1005E0002D48B0F9000000F2E350324901E097E0F5
:1005F00068E0B1F90010884260DA2E48008840F2C5
:10060000E351081A0FFA80FA504609F097FA834628
:1006100009F0C8F8224A234BCDE9020108F0B2FDE7
:10062000074608F085FA2449086059E000040040B4
:1006300000000020AC00002032000020300000202C
:100640002E0000203C0000200000E03F4000002081
:10065000440000202C0000202A0000202800002058
:100660005000002054000020580000206F12833AF0
:100670000000404036000020380000203A000020F2
:100680004A0000204C0000204E000020A001214222
:1006900000802242740100208C00002070010020A4
:1006A000F49FDA858B81A23FCC00002072010020EC
:1006B000D000002076010020D400002000207849DE
:1006C00008600DE0002004907549086075490860D5
:1006D0007549086000231A461946184600F06CFA5E
:1006E0007248B0F9000040F24C41884216DA704876
:1006F000B0F90000884211DA15B96E48008885B259
:100700006C480068401B082839D3002005906A49CE
:10071000086001206949C1F8A00130E000252EE001
:10072000002004905E4908605E4908605E490860E8
:1007300000231A461946184600F03EFA5B48B0F905
:10074000000040F24C41884218DA5948B0F90000E4
:1007500040F26C71884211DD14B95648008884B2A9
:1007600054480068001B052809D301200590524910
:10077000086000205149C1F8A00100E00024504861
:100780000068401C09F0F2F980464E48006809F004
:10079000EDF983464C4909F031FA0746414609F024
:1007A000F9FA29D246480068401C45490860474A82
:1007B0004749484801F067FC474A4849484801F022
:1007C0003AFCC8B900F06CFC37480168454800683D
:1007D00009F012FB44490860324801684348006848
:1007E00009F00AFB424908602D4801684148006849
:1007F00009F002FB4049086040480068401C09F0CD
:10080000B5F980462F48006809F0B0F983463C49A5
:1008100009F0F4F90746414609F0BCFA09D2374815
:100820000068401C35490860324A2E492F4803F0C1
:10083000E0FD34480068401C09F098F980462148E2
:10084000006809F093F983462F4909F0D7F9074664
:10085000414609F09FFA09D22A480068401C2949FC
:10086000086000F026FA049800F0D8F911480068F2
:10087000401C09F07BF980461248006809F076F9BF
:100880008346224909F0BAF90746414609F082FA3F
:1008900004D208480068401C0649086027E60000AA
:1008A000D4000020D0000020CC00002074010020E3
:1008B0007601002018000020888122420000214299
:1008C0000800002000000020CDCC4C3E2C00002071
:1008D0002A000020280000203200002030000020E4
:1008E0002E0000201C000020C0000020200000205E
:1008F000C400002024000020C80000200C000020BC
:10090000CDCCCC3D10000020CDCC4C3D6F12833AB5
:1009100000BF1A4801684FF0E0208269174800685C
:100920008142F6D11648006800EB4003C3EBC010CB
:10093000C2EBC000124B1B68B0FBF3F001EB4103AC
:10094000C3EBC11300EBC300704700B585B0684628
:1009500005F07FFA0B490098B0FBF1F008490860F8
:1009600005B000BD7047704700BFFEE700BFFEE75F
:1009700000BFFEE77047704770477047E0000020F7
:10098000E400002040420F000CB5002001900090D0
:100990006C48006840F480306A49086000BF6948CC
:1009A000006800F4003000900198401C019000980D
:1009B00018B90198B0F5A06FF1D16248006800F451
:1009C000003010B10120009001E00020009000985C
:1009D000012843D15C48006840F010005A49086083
:1009E0000846006820F0030008600846006840F0F0
:1009F0000200086053484068524948600846406811
:100A000048600846406840F4806048600846406896
:100A100020F47C1048600846406840F4E8104860C4
:100A20000846006840F08070086000BF45480068D4
:100A300000F000700028F9D04248406820F0030020
:100A4000404948600846406840F00200486000BFE6
:100A50003C48406800F00C000828F9D10CBD10B5E6
:100A6000FFF792FF10BD10B53648006840F0010056
:100A700034490860084640683449084031494860B4
:100A800008460068324908402E4908600846006858
:100A900020F4802008600846406820F4FE0048608A
:100AA0004FF41F008860FFF7DAFF4FF0006029491C
:100AB000086010BD10B5002100200022214B5B68AA
:100AC00003F00C0121B1042906D0082928D107E040
:100AD000214B224C236027E01F4B204C236023E056
:100AE000184B5B6803F47010164B5B6803F480329C
:100AF000022303EB904022B9194B4343174C236068
:100B00000DE0104B5B6803F4003323B1144B4343F7
:100B1000124C236003E0104B4343104C236003E06E
:100B20000D4B0E4C236000BF00BF064B5B68C3F348
:100B300003130C4CE15C094B1B68CB40074C236052
:100B400010BD000000100240002002400000FFF82D
:100B5000FFFFF6FE08ED00E000127A00E80000203A
:100B600000093D00EC00002008B50121242005F01B
:100B7000DDF94FF48070ADF8000010208DF803000F
:100B800003208DF802006946094804F013FF4FF472
:100B90008071074804F0BBFF0420ADF800006946EF
:100BA000044804F007FF0421024804F0B0FF08BD28
:100BB000000801400014014030B5B0F5FA6F01DDC6
:100BC0004FF4FA60B1F5FA6F01DD4FF4FA61B2F556
:100BD000FA6F01DD4FF4FA62B3F5FA6F01DD4FF4FD
:100BE000FA63B0F57A7F01DA4FF47A70B1F57A7F63
:100BF00001DA4FF47A71B2F57A7F01DA4FF47A7242
:100C0000B3F57A7F01DA4FF47A73FE4D28802D1DFB
:100C100029802D1D2A802D1D2B8030BD2DE9F0410E
:100C20000446F9480088204405B2F848008820446A
:100C300006B2F7480088204407B2F64800882044EE
:100C40000FFA80F843463A4631462846FFF7B4FF8C
:100C5000BDE8F0810146B1F5967F02DD4FF4967054
:100C6000704711F5967F01DAEB48F9E70846F7E798
:100C700070B50446204608F095FD0546002213464F
:100C800008F07EFB01D2204670BD84F00040FBE7F7
:100C900010B504464FF07E51204608F07BFF02D28B
:100CA0004FF07E5010BD21464FF07E5008F014FEEC
:100CB000F8E72DE9FF5FD9480068FFF7D9FF05463F
:100CC000FFF7E6FF0446D6480168204608F096FF85
:100CD000D4490860D4480068FFF7CAFF0546FFF70B
:100CE000D7FF0446D1480168204608F087FFD04965
:100CF0000860D048B0F9000008F020FF0746CE4851
:100D00000168384608F07AFF0546CC48B0F9000083
:100D100008F014FF8146C6480168484608F06EFF97
:100D20000746C748B0F9000008F008FF8346BD48F1
:100D30000168584608F062FF8146C2480168C2480F
:100D4000006808F05BFF0390C0480168B64800687F
:100D500008F054FF0290BE480168B048006808F0EF
:100D60004DFF0190029908F049FD8346039908F070
:100D700045FD8246494608F041FD8046394608F067
:100D80003DFD0646294608F039FD044608F09AFE66
:100D900000B29D490880A748B0F9000008F0CEFED7
:100DA0000746A5480168384608F028FF0546A348CD
:100DB000B0F9000008F0C2FE81469D48016848462F
:100DC00008F01CFF07469E48B0F9000008F0B6FE88
:100DD000834694480168584608F010FF81469948B8
:100DE00001689948006808F009FF03909748016876
:100DF0008D48006808F002FF01908848006880F084
:100E0000004B93480168584608F0F8FE009001999D
:100E100008F0F2FF0290039908F0F0FC8246494680
:100E200008F0EAFF8046394608F0E6FF0646294604
:100E300008F0E4FC044608F045FE00B2734908805F
:100E40007C48B0F9000008F079FE07467A4801684E
:100E5000384608F0D3FE05467848B0F9000008F09F
:100E60006DFE814672480168484608F0C7FE074695
:100E70007348B0F9000008F061FE834669480168D4
:100E8000584608F0BBFE81466E4801686E4800680F
:100E900008F0B4FE03906D4801686348006808F0EC
:100EA000ADFE02905D48006880F000400090684808
:100EB0000168009808F0A2FE0190029908F09EFCDB
:100EC0008346039908F098FF8246494608F094FF4C
:100ED0008046394608F092FC0646294608F08CFF09
:100EE000044608F0EFFD00B2494908805148B0F9C6
:100EF000000008F023FE07464F480168384608F016
:100F00007DFE05464D48B0F9000008F017FE814609
:100F100047480168484608F071FE07464848B0F95E
:100F2000000008F00BFE83463E480168584608F072
:100F300065FE8146434801684348006808F05EFE4C
:100F40000390424801683848006808F057FE029054
:100F50003F4801683148006808F050FE019002994E
:100F600008F04AFF8346039908F046FF8246494647
:100F700008F044FC8046394608F03EFF0646294604
:100F800008F03AFF044608F09DFD00B221490880B0
:100F90001D48B0F90000FFF75DFE1B4908801B48A3
:100FA000B0F90000FFF756FE184908801848B0F95C
:100FB0000000FFF74FFE164908801648B0F9000000
:100FC000FFF748FE13490880BDE8FF9F10B50E49A2
:100FD000B1F9001049420D4AB2F9002011440C4AFF
:100FE000B2F9002011440B4AB2F90020881A08F027
:100FF000A5FD184908600449B1F900104942034AA7
:101000002AE00000340400408E0000209000002000
:101010009200002094000020D4FEFFFFC0000020BA
:101020001001002028010020C4000020140100202D
:101030002C010020DC00002030010020DA0000201C
:10104000D800002024010020C8000020200100203A
:101050001C01002098000020B2F9002011443B4AF6
:10106000B2F90020891A3A4AB2F90020881808F02B
:1010700065FD384908603849B1F900104942374ADE
:10108000B2F90020891A314AB2F900201144304ADD
:10109000B2F90020881808F051FD3149086010BDF0
:1010A00070B50021002200232E4C24882E4D2D885F
:1010B000641B24B22D4D2E4E367825F816402D4C4B
:1010C00024882D4D2D88641B24B22C4D284E367853
:1010D00025F816402A4C24882A4D2D88641B25B2F9
:1010E000294C234E367824F8165000200DE01F4C72
:1010F00034F910402144214C34F910402244224C50
:1011000034F910402344441CE0B20628EFDB0624E7
:1011100091FBF4F424B21D4D2C80062492FBF4F4D0
:1011200024B21B4D2C80062493FBF4F424B2194DF9
:101130002C800F4C2478641C0D4D2C702C46247888
:10114000062C01D100242C7070BD000092000020FC
:10115000940000209C0000208E00002090000020C1
:10116000A00000202E000020360000207C0200207D
:1011700034010020300000203800002088020020C8
:10118000320000203A00002094020020D800002005
:10119000DA000020DC0000207FB505460C46012166
:1011A000082004F0D0FEADF80850ADF8044000204F
:1011B000ADF80A00ADF8060001A9EA4805F080FA8A
:1011C00001221146E74805F0F2FD32208DF80000BB
:1011D00001208DF8010000208DF8020001208DF81B
:1011E0000300684605F00FF90121DE4805F0C4FD53
:1011F0007FBD10B50121DB4806F087F840B1012121
:10120000D84806F093F8D8480068401CD6490860D2
:1012100010BD30B585B005460C460121042004F010
:1012200092FE0121082004F081FE4FF47070ADF8A9
:10123000100028208DF8130004A9CC4804F0BAFB54
:101240004FF47071C94804F064FCADF80850ADF873
:1012500004400020ADF80A00ADF8060001A9C4481A
:1012600005F02EFA0020C3490880488001208880BC
:101270000020C8800881BE4805F0B5FC0420BD49A7
:10128000088000204880012088800020C8800881D4
:10129000B74805F0A8FC0820B6490880002048801F
:1012A000012088800020C8800881B14805F09BFC9F
:1012B0000C20B04908800020488001208880002050
:1012C000C8800881AA4805F08EFC1E208DF8000019
:1012D00000208DF801008DF8020001208DF8030038
:1012E000684605F090F801221E21A14805F05FFD37
:1012F00001219F4805F040FD05B030BD10B59E4866
:10130000007800F08000002846D10221984805F0BE
:10131000FCFF002840D00221954806F007F89648C7
:10132000007800F0400040B3914805F0CFFF9349AA
:1013300008800846008892490988884204DA4FF6F6
:10134000FF709049086002E000208E4908608B48D9
:1013500000888B490988401A8A49096808448A49E3
:101360000860084600888949088000208249087082
:1013700000217F4805F0B2FE0EE07D4805F0A6FF93
:101380007F4908807C48007840F040007A49087026
:101390000221774805F0A2FE7D48007800F0800029
:1013A000002846D10421724805F0AFFF002840D044
:1013B00004216F4805F0BAFF7548007800F040003E
:1013C00040B36B4805F085FF7249088008460088E5
:1013D00071490988884204DA4FF6FF706F49086046
:1013E00002E000206D4908606A4800886A4909885F
:1013F000401A6A4909680844694908600846008833
:10140000684908800020624908700021584805F0AA
:1014100077FE0EE0564805F05CFF5F4908805C48A7
:10142000007840F040005A4908700221504805F009
:1014300067FE5D48007800F08000002845D1082153
:101440004B4805F062FF80B30821494805F06EFF64
:101450005548007800F0400040B3454805F03CFF97
:10146000524908800846008851490988884204DAB0
:101470004FF6FF704F49086002E000204D490860B8
:101480004A4800884A490988401A4A490968084474
:1014900049490860084600884849088000204249B8
:1014A00008700021324805F045FE0EE0304805F096
:1014B00013FF3F4908803C48007840F040003A491B
:1014C000087002212A4805F035FE3D48007800F0FA
:1014D0008000A8BB1021264805F017FF80B310211B
:1014E000234805F023FF3648007800F0400040B361
:1014F0001F4805F0F4FE3349088008460088324949
:101500000988884204DA4FF6FF703049086002E02B
:1015100000202E4908602B4800882B490988401A72
:101520002A49096808442A49086008460088294968
:10153000088000202249087000210D4805F014FEA3
:101540000EE00B4805F0CBFE1F4908801C480078D0
:1015500040F040001A4908700221054805F004FED9
:1015600010BD0000000C004000000020000C0140F5
:1015700000080040A0020020380100203C010020AB
:101580003A0100206001002050010020700100207D
:101590003E010020420100204001002064010020A3
:1015A0005401002072010020440100204801002065
:1015B000460100206801002058010020740100202D
:1015C0004A0100204E0100204C0100206C01002047
:1015D0005C0100207601002070B505460C4645F2FE
:1015E000555004F079FF284604F079FF204604F0B6
:1015F00079FF04F07AFF04F07DFF70BD10B504F0B0
:1016000074FF10BD08B500208DF8000002208DF891
:10161000010003208DF80200684604F0F4FE08BDC6
:1016200070B506460C4615460121C80204F08BFC35
:10163000284605F08AFE204605F090FE304605F06B
:10164000A8FE05F0B1FEFFF7DDFF05F098FE70BDC6
:1016500010B50446204605F09CFE10BD10B57F2055
:1016600005F091FE05F0A0FE10BD000030B589B078
:1016700005460C460121022004F065FC01211120E1
:1016800004F054FC0121294804F065FA4FF470700D
:10169000ADF8200018208DF8230003208DF82200DB
:1016A00008A9234804F086F9ADF81850ADF81440A5
:1016B0000020ADF81A00ADF8160005A91D4804F089
:1016C000FFFF6020ADF804000120ADF80600002007
:1016D000ADF80A00ADF80C0001A9164805F02DF888
:1016E0000821144805F078FC01A9124805F067F8B4
:1016F0000821104805F079FC01A90E4805F0ACF866
:1017000008210C4805F07EFC01A90A4805F0EFF815
:101710000821084805F07FFC0121064805F02CFC53
:101720000121044805F028FB09B030BD000C1A0067
:1017300000100140000400402DE9F05F0646082536
:10174000A946EE48046800274FF00008EC4840F82E
:10175000246014E0284608F0F1F98346E84850F880
:101760002410584608F04AFA8246414608F046F8E6
:1017700080462F446D1E641C082C00DB00245FEAA9
:101780000900A9F10109E5D1DC480068401CDB49EA
:10179000086008460068082801DB00200860384619
:1017A00008F0CCF982465146404608F095F8BDE86D
:1017B000F09F10B500F0F4F9EE2000F0A9FA00F067
:1017C00034FA1E2000F0A4FA00F02FFA00F00CFA10
:1017D00010BD70B5012430E000F0E2F9EE2000F019
:1017E00097FA00F022FAA02101EB4401C8B200F000
:1017F0008FFA00F01AFA00F0F7F9052003F0E1FD86
:1018000000F0CEF9EF2000F083FA012003F0D9FDBB
:1018100000F00BFA012000F0AAFA0546012003F0BF
:10182000D0FD002000F0A3FA064600F0DDF946EAFC
:101830000520B44921F81400641C062CCCDDB14805
:10184000008808B9012070BD0020FCE738B50446C7
:10185000002500F0A5F9EE2000F05AFA00F0E5F9B5
:10186000204600F055FA00F0E0F900F0BDF908203C
:1018700003F0CBFD00F094F9EE2000F049FA00F0FF
:10188000D4F9002000F044FA00F0CFF900F0ACF9F0
:1018900000F086F9EF2000F03BFA00F0C6F90120D5
:1018A00000F065FA8DF80000012000F060FA8DF874
:1018B0000100002000F05BFA8DF8020000F094F9BE
:1018C0009DF8000001049DF8010001EB00209DF847
:1018D00002104518284638BD10B55820FFF7B6FF4E
:1018E00089490860874840890968A1EB0020874939
:1018F000086084488089096848434FF4FA6101EB25
:10190000D0508349086010BD2DE9FC5F4820FFF7E7
:101910009DFF804908607B4989880A0479490989C3
:101920007A4B1B68594302EBD11007F0DCFB7A4A73
:1019300003C274484088C1037248C088734A126861
:10194000504301EB10200021744A03C27048006824
:10195000B0F5FA6F40DA6D4800684043C00F704937
:1019600008606B49096801FB01F008F0E7F86D4970
:101970000860084601686C4808F040F9044608F021
:10198000B1FA6A4A03C267480168694808F036F943
:10199000044608F0A7FA674A03C25D480068664932
:1019A0000968401A5A490860604903C907F04AFBB0
:1019B000044659480CC8204607F018FD564A03C291
:1019C0005648D0E900105B4AD2E90032C91A60EBF0
:1019D0000200524AC2E900104E48006800234F4AF4
:1019E000D2E9001CA0FB016E03FB01E100FB0C111E
:1019F0004FF40012304605F0E2FC804607F022FB6F
:101A0000044645480CC8204607F0E2FD8246002205
:101A10004A4B07F07BF9CDE9000107F0CFFA4849BE
:101A200008600846006808F0A1F846490860BDE86B
:101A3000FC9F2DE9F04F85B0002004900021424822
:101A4000006808F00BF830D140480088322813DDD8
:101A50003E48008807F047FB064632460B463C49A5
:101A600003C907F053F9044607F062F836490860E5
:101A70000120384908700BE03248006807F092FEF8
:101A8000044633480CC8204607F084F8304A03C2A5
:101A90002E480088401C2D49088000202E490860EF
:101AA0000846006805B0BDE8F08F27480168254862
:101AB000006807F011FF019007F074FE4FF000522C
:101AC000264BCDE9020106F031FB80460022244B73
:101AD00007F08CFC06460022224B07F053FB04461D
:101AE0004FF08042204B07F04DFB824607F020F874
:101AF0001949086008460068D4E70000EC0100209E
:101B000034030020AC020020880100208C0100205A
:101B1000900100208401002078010020A001002015
:101B2000B80100208001002000002040C0010020FA
:101B30000000A03FC8010020BC0100200000E040E0
:101B4000AC010020E8010020D0010020E0010020CD
:101B5000D8010020E2010020F0010020C05BC83F56
:101B60000000F03F1AE95041E17A843F08B50121B5
:101B7000042004F0DBF94FF4C050ADF80000102051
:101B80008DF8030003208DF802006946914803F0A8
:101B900011FF0120904908609049C1F8AC0108BDCF
:101BA00010B58C48001D006820F470408949091D5B
:101BB00008600846006840F44050086001208649EB
:101BC000091F08608549C1F8B001042003F0F9FB42
:101BD00000208149091F0860042003F0F2FB002067
:101BE0007E49C1F8B00110BD10B57A48001D0068EB
:101BF00020F470407749091D08600846006840F4E9
:101C0000405008600020744908607449C1F8AC0174
:101C1000042003F0D6FB01206F4908606F49C1F82A
:101C2000AC01042003F0CDFB10BD10B500246948C1
:101C3000001D006820F470406649091D08600846D0
:101C4000006840F40040086001206349091F0860F3
:101C500003F0B7FB01206149C1F8B00103F0B1FB0B
:101C600007E0601CC4B2FA2C03DDFFF7BDFF0120C2
:101C700010BD5948843800680028F2D156490860E0
:101C800000BFF5E710B50020534908605148001D1A
:101C9000006820F470404F49091D0860084600683C
:101CA00040F44050086000204C49C1F8AC010220CB
:101CB00003F087FB012048490860022003F081FB04
:101CC00000204649C1F8B00110BD10B500204249BE
:101CD00008604048001D006820F470403D49091D1F
:101CE00008600846006840F44050086001203B4905
:101CF000C1F8AC01022003F064FB01203649086002
:101D0000022003F05EFB00203449C1F8B00110BD91
:101D100070B504462F48001D006820F470402D491E
:101D2000091D08600846006840F440500860002023
:101D300029490860002517E0E0092749091F0860C4
:101D40006006040E022003F03CFB01202349C1F889
:101D5000B001022003F035FB00201F49086002207B
:101D600003F02FFB681CC5B2082DE5DB70BD70B514
:101D7000054600241748001D006820F470401549EE
:101D8000091D08600846006840F40040086000260D
:101D900016E0002010490860022003F012FB012029
:101DA0000E49C1F8B0016006040E0B488438006883
:101DB00008B1601CC4B2012003F003FB701CC6B262
:101DC000082EE6DB15B9FFF780FF01E0FFF75AFFA9
:101DD000204670BD00080140B001214200002142B0
:101DE00070B505460C4600F0CDF9D02000F074FA2D
:101DF00000F005FA18B100F0E3F9012070BD2846A3
:101E000000F06AFA00F0FBF9204600F065FA00F0F5
:101E1000F6F918B100F0D4F90120EFE700F0D0F99D
:101E20000020EBE770B504460025BC2C01DB012542
:101E300010E0622C01DB02250CE02A2C01DB0325DB
:101E400008E0142C01DB042504E00A2C01DB052545
:101E500000E0062529461A20FFF7C2FF70BD70B5C5
:101E60000446B4F57A7F01DD4FF47A74042C00DA6D
:101E700004244FF47A7090FBF4F0401EC5B229465A
:101E80001920FFF7ADFF0546264604EBD671C1F3D6
:101E90004F00FFF7C7FF70BD70B5044600F072F940
:101EA000D02000F019FA00F0AAF9204600F014FA48
:101EB00000F0A5F900F066F9D12000F00DFA00F06D
:101EC0009EF9002000F031FA054600F079F9284625
:101ED00070BD10B50446E006010E1C20FFF780FF20
:101EE00010BD10B50446E006010E1B20FFF778FF79
:101EF00010BD10B500F02DF980216B20FFF770FFA9
:101F0000642003F082FA00216B20FFF769FF0320B1
:101F1000FFF7E7FF0020FFF7DCFF3220FFF79FFF0E
:101F200000213820FFF75CFF00216A20FFF758FFEF
:101F300000212320FFF754FF80213720FFF750FFB7
:101F40007520FFF7A9FF0446682C0BD101216B20F7
:101F5000FFF746FF00216C20FFF742FF3220FFF71A
:101F60007EFF01E0012010BD0020FCE72DE9F041DB
:101F700006460F4614461D4600F004F9002141EACA
:101F80004601C8B200F0A8F900F039F920B100F01C
:101F900017F90120BDE8F081384600F09DF900F006
:101FA0002EF900F0EFF8012101EB4601C8B200F074
:101FB00093F900F024F90DE0012C04D1002000F089
:101FC000B4F9287003E0012000F0AFF92870601E1A
:101FD000C4B26D1C002CEFD100F0F2F80020D9E75C
:101FE0002DE9F84F6B46022241216820FFF7BEFF22
:101FF0009DF801009DF8001040EA01200FFA80FAD8
:10200000504607F008F8804600224B4B06F07EFE53
:1020100006464A4A4A4B06F0BDFD044606F088FDD6
:1020200083464849584607F0E9FD044607F04AFD53
:1020300000B2BDE8F88F2DE9FC4104460D46164676
:102040006B46062243216820FFF790FF0746BFB981
:102050009DF801009DF8001040EA012000B22080A8
:102060009DF803009DF8021040EA012000B228808C
:102070009DF805009DF8041040EA012000B2308070
:102080003846BDE8FC812DE9FC4104460D46164664
:102090006B4606223B216820FFF768FF0746BFB961
:1020A0009DF801009DF8001040EA012000B2208058
:1020B0009DF803009DF8021040EA012000B228803C
:1020C0009DF805009DF8041040EA012000B2308020
:1020D0003846BDE8FC812DE9F04105460E4617461D
:1020E000984600F04FF8002141EA4501C8B200F0DF
:1020F000F3F800F084F820B100F062F80120BDE8A8
:10210000F081304600F0E8F800F079F800240CE0A7
:1021100018F8040000F0E0F800F071F818B100F0D1
:102120004FF80120EBE7601CC4B2BC42F0DB00F0CA
:1021300047F80020E3E7000000407540A4703D0A26
:10214000D74342400000C84210B5022003F039F9DD
:1021500010BD08B50121102003F0E8FE4FF4C05077
:10216000ADF8000010208DF8030003208DF8020068
:102170006946864803F01EFC4FF4C051834803F0C3
:10218000C6FC08BD10B58148406820F470407F4906
:1021900048600846406840F44050486001207C494F
:1021A00008607C49C1F8B001FFF7CEFF00207849F4
:1021B0000860FFF7C9FF00207649C1F8B00110BDE3
:1021C00010B57248406820F4704070494860084675
:1021D000406840F44050486000206D49091D086087
:1021E0006C49C1F8AC01FFF7AFFF01206849091D38
:1021F00008606849C1F8AC01FFF7A6FF10BD10B533
:1022000000246248406820F47040604948600846F5
:10221000406840F40040486001205D490860FFF7D5
:1022200093FF01205B49C1F8B001FFF78DFF07E084
:10223000601CC4B2FA2C03DDFFF7C2FF012010BD01
:102240005348803800680028F2D15149091D0860C0
:1022500000BFF4E710B500204D49091D08604B4848
:10226000406820F47040494948600846406840F49E
:102270004050486000204749C1F8AC01FFF764FFB7
:1022800001204349091D0860FFF75EFF0020414916
:10229000C1F8B00110BD10B500203D49091D08600E
:1022A0003A48406820F47040384948600846406821
:1022B00040F44050486001203649C1F8AC01FFF7B6
:1022C00043FF01203249091D0860FFF73DFF002050
:1022D0003049C1F8B00110BD70B504462B484068C4
:1022E00020F47040294948600846406840F4405056
:1022F000486000202649091D0860002512E0E00919
:10230000234908606006040E01202249C1F8B0018B
:10231000FFF71AFF00201E49091D0860FFF714FF90
:10232000681CC5B2082DEADB70BD70B505460024F7
:102330001648406820F470401449486008464068D8
:1023400040F400404860002615E000201049091DB7
:102350000860FFF7F9FE01200E49C1F8B0016006E0
:10236000040E0B488038006808B1601CC4B2FFF747
:10237000EBFE701CC6B2082EE7DB15B9FFF78BFF2A
:1023800001E0FFF767FF204670BD0000001001402C
:10239000AC0122420000224238B50446F74890F8CA
:1023A0002400C0B114B10220009001E00020009090
:1023B000F24A1268D17BF14A526810786B460122CA
:1023C000FFF789FE10B14FF0FF3038BD9DF80010C7
:1023D000EA48417423E0E948807A10B94FF0FF30B1
:1023E000F3E724B1E548407C08B10020EDE714B1E3
:1023F0000120009001E000200090E04A1268D17BAB
:10240000DE4A526810786B460122FFF764FE10B175
:102410004FF0FF30D9E79DF80010D84841740020F4
:10242000D3E738B500241FE0D4480068C07AA04242
:1024300004D0D2480068407DA04200D112E0CF49CC
:10244000496808786B4601222146FFF78FFD10B1DD
:102450004FF0FF3038BD9DF800202146C8A004F0A1
:10246000D3FF00BF601CC4B2C44840680079A042DA
:10247000DADC0020EEE770B504460D46BF48006880
:10248000C07AA04204D0BD480068407DA04202D17D
:102490004FF0FF3070BDB94840680079A04202DCBF
:1024A0004FF0FF30F6E7B549496808782B4601221E
:1024B0002146FFF75BFDEDE738B50446AF4890F8DD
:1024C0002300A04201D1002038BD14B1302000907B
:1024D00001E000200090A948807C20B19DF8000018
:1024E00040F002000090A54890F8220020B19DF82D
:1024F000000040F080000090A04A1268117D9F4AC1
:10250000526810786B460122FFF7E5FD10B14FF0DD
:10251000FF30D9E7994880F823400020D4E738B548
:10252000044604F0700010B10120009005E014B1E1
:102530000020009001E040200090904A1268917CB9
:102540008E4A526810786B460122FFF7C4FD20B115
:1025500000218A488172481E38BD9DF8000020F095
:102560004001864801730020009004F0400020B92B
:102570009DF8000040F00400009004F0200020B915
:102580009DF8000040F00200009004F0100020B917
:102590009DF8000040F00100009004F0080020B910
:1025A0009DF8000040F038000090744A1268D17C19
:1025B000724A526810786B460122FFF78CFD20B1F9
:1025C00000216E488172481EC6E724B1082C02D053
:1025D0000020FFF771FF69488472002101753220E5
:1025E00002F013FF0020B7E738B504466348807C4B
:1025F000A04201D1002038BD002C46D05F4A1268AD
:1026000011795E4A526810786B460122FFF7AEFCE2
:1026100010B14FF0FF30EEE79DF8000020F02000F1
:102620000090564A12681179544A526810786B46E5
:102630000122FFF750FD10B14FF0FF30DBE7032020
:1026400002F0E3FE022000904C4890F8220020B1F6
:102650009DF8000040F080000090484890F823006A
:1026600020B19DF8000040F030000090434A12680D
:10267000117D424A526810786B460122FFF72BFD0C
:10268000002851D04FF0FF30B5E73C4A126811796D
:102690003A4A526810786B460122FFF767FC10B186
:1026A0004FF0FF30A7E73548807A00F0010028B1ED
:1026B0009DF8000040F02000009004E09DF800002C
:1026C00020F0200000902D4A126811792B4A5268A0
:1026D00010786B460122FFF7FEFC10B14FF0FF307F
:1026E00089E7032002F091FE244890F8220010B1FF
:1026F0008020009001E000200090204890F8230006
:1027000020B19DF8000040F0300000901B4A126894
:10271000117D1A4A526810786B460122FFF7DBFCE4
:1027200010B14FF0FF3066E714488474002062E770
:1027300008B51248807A10B94FF0FF3008BD00206C
:1027400000900E4A1268D17B0C4A526810786B4692
:102750000122FFF7C0FC10B14FF0FF30EEE7074A4F
:1027600012685179054A526810786B460122FFF7CA
:10277000B2FC68B14FF0FF30E0E70000FC01002040
:10278000252335783A20252335780D0A00000000EE
:10279000FB4A12681179FA4A526810786B46012296
:1027A000FFF799FC10B14FF0FF30C7E7F44890F8FD
:1027B0002400002850D00C200090F14A12681179B2
:1027C000EF4A526810786B460122FFF784FC10B183
:1027D0004FF0FF30B2E7C0200090E948807A00F067
:1027E000010020B19DF8000040F020000090E44A74
:1027F00012681179E24A526810786B460122FFF79D
:102800006AFC10B14FF0FF3098E7DD48407C10B112
:102810000220009001E000200090D94A1268D17B8C
:10282000D74A526810786B460122FFF754FC10B16A
:102830004FF0FF3082E700200090D14A12685179B2
:10284000CF4A526810786B460122FFF744FC0028FB
:1028500055D04FF0FF3071E704200090C84A12684D
:102860001179C74A526810786B460122FFF733FC92
:1028700010B14FF0FF3061E7C148807C20B9C048FB
:10288000807A00F0010010B94020009001E0602043
:102890000090BB4A12681179B94A526810786B46A9
:1028A0000122FFF718FC10B14FF0FF3046E732204D
:1028B00002F0ABFDB248407C10B10120009001E075
:1028C00000200090AE4A1268D17BAD4A5268107861
:1028D0006B460122FFF7FFFB10B14FF0FF302DE7F1
:1028E000A74A12685179A64A52681078A44B10334F
:1028F0000122FFF7F0FB10B14FF0FF301EE7002080
:102900001CE770B50446002624F001049C4890F8AA
:10291000240008B1002070BD9948807A10B94FF0AA
:10292000FF30F8E79648057C807A20409449087487
:102930000846007CA04202D04FF0FF3600E000269F
:1029400014B98F48007D18B10120FFF725FD02E082
:102950000020FFF721FD3CB1FFF7EAFE20B18848D7
:1029600005744FF0FF30D6E73046D4E738B504465B
:102970008348807A10B94FF0FF3038BDBC2C02DBA1
:102980000120009015E0622C02DB0220009010E094
:102990002A2C02DB032000900BE0142C02DB042025
:1029A000009006E00A2C02DB0520009001E00620E2
:1029B00000907348C07A9DF80010884201D1002031
:1029C000DBE76F4A126891786D4A526810786B465F
:1029D0000122FFF780FB10B14FF0FF30CDE79DF8EB
:1029E00000106748C1720020C7E738B50446282C9C
:1029F00002DD4FF0FF3038BDDCB90020FFF75CFD91
:102A000000208DF8000007208DF801005C4A126854
:102A1000917C5B4A526810786B460222FFF75BFBA1
:102A200010B14FF0FF30E6E7002155480175002056
:102A3000E1E70120FFF740FD20208DF80000012C88
:102A400006D100208DF801000520FFF78FFF17E069
:102A5000052C06DC01208DF801000520FFF786FF1C
:102A60000EE0142C06DC02208DF801000A20FFF78E
:102A70007DFF05E003208DF801001420FFF776FFAD
:102A80009DF80100072101EB8010C0B28DF8010014
:102A90003B4A1268917C3A4A526810786B4602228F
:102AA000FFF719FB10B14FF0FF30A4E708213448BD
:102AB000817200210173012101750020FFF721FFC0
:102AC000002098E738B504462D48807A10B94FF0B9
:102AD000FF3038BD2A4890F8240010B14FF0FF3085
:102AE000F7E72748007D50B134B1282C04DCE0B270
:102AF000FFF77BFF0020ECE70020FFF776FF042CB8
:102B000001DA042404E0B4F57A7F01DD4FF47A742D
:102B10004FF47A7090FBF4F0401EC0B20090184A57
:102B200012685178164A526810786B460122FFF7F6
:102B3000D2FA10B14FF0FF30CBE79DF80000401CF7
:102B40004FF47A7191FBF0F081B20D48C1810146DA
:102B5000C9894810FFF70AFF0020BAE738B50446D4
:102B60000748807A10B94FF0FF3038BD022C09D0E9
:102B7000042C0AD0082C0BD0102C0FD10BE0000035
:102B8000FC010020002000900BE00820009008E0ED
:102B90001020009005E01820009002E04FF0FF3078
:102BA000E3E700BFF848407A9DF80010B0EBE10F72
:102BB00001D10020D9E7F44A1268D179F24A52686B
:102BC00010786B460122FFF786FA10B14FF0FF3004
:102BD000CBE79DF80000C110EB4841720020C4E72C
:102BE00038B50446E848807A10B94FF0FF3038BD58
:102BF000FA2C09D0B4F5FA7F09D0B4F57A7F09D060
:102C0000B4F5FA6F0CD108E0002000900BE008202A
:102C1000009008E01020009005E01820009002E0ED
:102C20004FF0FF30E3E700BFD748007A9DF800106F
:102C3000B0EBE10F01D10020D9E7D34A12689179B6
:102C4000D14A526810786B460122FFF744FA10B15E
:102C50004FF0FF30CBE79DF80000C010CA49087262
:102C60000020C4E71CB580208DF80000C64A126819
:102C7000917CC54A526810786B460122FFF72BFA07
:102C800010B14FF0FF301CBD642002F0BEFB0020ED
:102C90008DF80000BC4A1268917CBB4A52681078DB
:102CA0006B460122FFF717FA10B14FF0FF30EAE749
:102CB000B54A1268917DB44A526810786B46062274
:102CC000FFF754F910B14FF0FF30DCE79DF8050035
:102CD000C007400F9DF8031001F0010140EA4100D8
:102CE0009DF8011001F0010140EA010494B1012CAA
:102CF00003D10121A448C17431E0022C03D1002189
:102D0000A148C1742BE02146A0A004F07DFB4FF048
:102D1000FF30B8E79C4A1268D1789B4A5268107815
:102D20006B460122FFF722F910B14FF0FF30AAE7FE
:102D30009DF8000000F00F042CB99E4804F064FBDD
:102D40004FF0FF309FE7042C06D19BA004F05CFB02
:102D500001218D48C17402E000218B48C174FF211C
:102D600089488172FF2088490872FF218648417294
:102D7000C1724FF6FF71C181FF210174817401217D
:102D8000017380F82210002180F82310417501752D
:102D90001630016041608160163880F8241080F898
:102DA0002510C1844FF4FA60FFF71AFF10B14FF0FD
:102DB000FF3068E70220FFF7D1FE10B14FF0FF307F
:102DC00061E72A20FFF7D2FD10B14FF0FF305AE73C
:102DD0003220FFF777FE10B14FF0FF3053E70020AD
:102DE000FFF78FFD10B14FF0FF304CE70020FFF7E9
:102DF000FBFB10B14FF0FF3045E70020FFF78FFBE2
:102E0000002040E770477CB504460D465E48807A56
:102E100000F0700010B94FF0FF307CBD5A4A1268C4
:102E2000117B594A526810786B460622FFF79EF8CC
:102E300010B14FF0FF30F0E79DF801009DF8001051
:102E400040EA012000B220809DF803009DF80210A6
:102E500040EA012000B260809DF805009DF8041052
:102E600040EA012000B2A08015B12846FFF7CAFF52
:102E70000020D2E77CB504460D464348807A00F036
:102E8000080010B94FF0FF307CBD3F4A1268517BFB
:102E90003D4A526810786B460622FFF767F810B17A
:102EA0004FF0FF30F0E79DF801009DF8001040EA78
:102EB000012000B220809DF803009DF8021040EA36
:102EC000012000B260809DF805009DF8041040EAE2
:102ED000012000B2A08015B12846FFF793FF002023
:102EE000D2E72DE9FE4F05460C462748807A18B9EF
:102EF0004FF0FF30BDE8FE8F234A1268917B224AD3
:102F00005268107802AB0222FFF730F810B14FF090
:102F1000FF30EFE79DF809009DF8081040EA012016
:102F200006B214B12046FFF76DFF17494968C888FB
:102F300006F01CFE144901904968B1F9080006F03A
:102F4000FDFD8346304606F0F9FD5946009006F037
:102F500053FF8246019906F0BFFC81461E4906F0E8
:102F60004DFC80464FF08F4106F048FE074606F0C4
:102F7000A9FD28600020BDE710B588B004466CBBF1
:102F80004FF0FF3008B010BDFC010020556E737586
:102F900070706F7274656420736F667477617265A8
:102FA0002070726F64756374207265762025642EBC
:102FB0000A00000058AE000848616C662073656E18
:102FC0007369746976697479207061727420666FB0
:102FD000756E642E0A00000000000C42FFE72068B6
:102FE00030B9606820B9A06810B9002008B010BDE1
:102FF000FA494968087806AB03221146FEF7B6FF86
:1030000010B14FF0FF30F1E79DF81800082101EBF7
:10301000201000F00F00ADF800009DF8190001EB42
:10302000201000F00F00ADF802009DF81A0001EB2F
:10303000201000F00F00ADF8040020684100BDF939
:103040000000403091FBF0F000B2ADF81000606875
:103050004100BDF90200403091FBF0F000B2ADF844
:103060001200A0684100BDF90400403091FBF0F06F
:1030700000B2ADF81400D9494968087806AB0622B9
:103080001146FEF773FF10B14FF0FF30AEE79DF829
:1030900019009DF8181040EA012000B2ADF80800B0
:1030A0009DF81B009DF81A1040EA012000B2ADF80F
:1030B0000A009DF81D009DF81C1040EA012000B296
:1030C000ADF80C00BDF81000BDF80810084400B2BF
:1030D000ADF81000BDF81200BDF80A10084400B2A7
:1030E000ADF81200BDF81400BDF80C10084400B291
:1030F000ADF81400BDF81000000A8DF81800BDF8F6
:103100001000C0B28DF81900BDF81200000A8DF849
:103110001A00BDF81200C0B28DF81B00BDF81400F3
:10312000000A8DF81C00BDF81400C0B28DF81D0017
:10313000AA494968087806AB06221146FEF7CBFF7C
:1031400010B14FF0FF3051E700204FE70146A34890
:10315000007A30B1012807D0022809D003280FD106
:103160000AE0FA2008800EE04FF4FA7008800AE0C6
:103170004FF47A70088006E04FF4FA60088002E0AD
:103180000020088000BF00BF002070470146934820
:10319000407A30B1012807D0022808D003280CD18A
:1031A00008E0022008700BE00420087008E0082006
:1031B000087005E01020087002E04FF0FF30704703
:1031C00000BF8648C07C18B108784006000E087021
:1031D0000020F4E701468148C07A082817D2DFE8CA
:1031E00000F01704070A0D101318BC20088013E024
:1031F0006220088010E02A2008800DE0142008805A
:103200000AE00A20088007E00520088004E000BFEB
:1032100000BF0020088000BF00BF002070470146AB
:103220006E4890F8240010B14FF0FF3070476B48A3
:10323000C08908800020F9E7014600200880401E70
:10324000704701464FF0FF30704701466348007AEF
:1032500030B1012807D0022808D003280CD108E09B
:103260005F4808600BE05F48086008E05E4808605F
:1032700005E05E48086002E04FF0FF30704700BF95
:103280000020FBE701465548407A30B1012808D0BC
:1032900002280AD0032810D10BE04FF480400880A8
:1032A0000EE041F69C7008800AE04FF480500880E0
:1032B00006E04FF40060088002E04FF0FF307047F6
:1032C00000BF4648C07C10B108884010088000202C
:1032D000F5E701464148007C087000207047014630
:1032E0003E48807A10B10120087001E0002008708B
:1032F0000020704738B504463848807A10B94FF03E
:10330000FF3038BD354A1268117C344A5268107853
:103310006B460222FEF72AFE10B14FF0FF30F0E7B5
:103320009DF801009DF8001040EA012000B22080C5
:103330000020E6E72DE9FE4F0746884692461D46E7
:10334000DDF830B000260024244890F8240010B1A5
:10335000601EBDE8FE8F002028702048807A10B9DA
:103360004FF0FF30F5E71D48007C10B94FF0FF30FB
:10337000EFE71A48007C00F0400008B1B01CC6B26C
:103380001648007C00F0200008B1B01CC6B21348FB
:10339000007C00F0100008B1B01CC6B20F48007CE1
:1033A00000F0080008B1B01DC6B20C4A1268917A4C
:1033B0000A4A526810786B460222FEF7D7FD10B118
:1033C0004FF0FF30C5E79DF801009DF8001040EA7E
:1033D0000129B1450CDA0020BBE70000FC01002008
:1033E00000000343000083423333034233338341FD
:1033F000FC4840684088B9EB600F17DDF94A126855
:10340000517CF84A526810786B460122FEF7AEFDF7
:1034100010B14FF0FF309CE79DF8000000F0100065
:1034200020B1FFF785F96FF0010092E75046FFF7F2
:10343000E9FCEC4A1268D17AEA4A526810786B4685
:103440003246FEF793FD10B14FF0FF3081E799FB54
:10345000F6F0401E8BF8000000202870B4422AD0FD
:10346000E048007C00F0080028B3601C1DF8000054
:103470001DF8041040EA012000B2A8F80000E01C8A
:103480001DF80010A01C1DF8000041EA002000B249
:10349000A8F80200601D1DF80010201D1DF8000096
:1034A00041EA002000B2A8F80400287840F00800A3
:1034B0002870A01D84B2B44213D0CA48007C00F02A
:1034C000400070B1601C1DF800001DF8041040EAB7
:1034D000012000B23880287840F040002870A01CFD
:1034E00084B2B44213D0BF48007C00F0200070B119
:1034F000601C1DF800001DF8041040EA012000B215
:103500007880287840F020002870A01C84B2B44253
:1035100013D0B448007C00F0100070B1601C1DF89E
:1035200000001DF8041040EA012000B2B88028789D
:1035300040F010002870A01C84B2002009E7F8B504
:1035400004460F461646A74890F8240010B94FF0DD
:10355000FF30F8BDA348807A10B94FF0FF30F8E78C
:10356000A04A1268917A9F4A526810786B460222EC
:10357000FEF7FCFC10B14FF0FF30EAE79DF80100C8
:103580009DF8001040EA0125A54203DA00203070C2
:10359000401EDEE7934840684088B5EB600F17DDBA
:1035A000904A1268517C8F4A526810786B4601220B
:1035B000FEF7DCFC10B14FF0FF30CAE79DF80000C9
:1035C00000F0100020B1FFF7B3F86FF00100C0E782
:1035D000E2B2844B1B68D97A824B5B6818783B4611
:1035E000FEF7C4FC10B14FF0FF30B2E795FBF4F0EA
:1035F000401E30700020ACE701467A4880F8221067
:10360000002070477CB5054676494968087801ABCB
:1036100004220D21FEF7AAFC08B107207CBD9DF80D
:103620000700C0F301109DF8041001F0E00140EA2A
:10363000E1008DF800009DF80700C0F381009DF8BF
:10364000051001F0E00140EAE1008DF801009DF86D
:10365000070000F003009DF8061001F0E00140EAC9
:10366000E1008DF8020000241CE01DF8040018B9E8
:10367000002045F8240013E05B4845F8240006E0EC
:1036800055F82400594906F0B9FA45F824001DF808
:103690000400401EC0B20DF804000028F0D100BFA5
:1036A000601CC4B2032CE0DB0020B7E72DE9FE4F1D
:1036B00006460F4600256846FFF7A4FF002442E0B7
:1036C00056F8240057F82410A0EB010ABAF1000FB5
:1036D00001DB514601E0CAF10001084606F02EFA6E
:1036E00083464FF08F4106F0F7F880465DF82400DE
:1036F000002106F0B3F916D05DF82410404606F01C
:10370000EBF882464FF07E5106F076FB814629F0B9
:10371000004A3748416A504606F03CFB12D201206D
:10372000A04005430EE03248C169404606F032FA37
:1037300005D32F48016A404606F02CFB02D2012037
:10374000A0400543641C032CBADB2846BDE8FE8F6D
:103750002DE9FC5F06460F46002522494968087896
:1037600001AB03220D21FEF701FC10B10720BDE8DB
:10377000FC9F9DF8040000F01F008DF804009DF8E8
:10378000050000F01F008DF805009DF8060000F010
:103790001F008DF80600002462E056F8240057F858
:1037A0002410A0EB010BBBF1000F01DB594601E037
:1037B000CBF10001084606F0C1F94FF08F410090AF
:1037C00006F08AF8814601A8005DC0B30849086880
:1037D00006F0CCF983465946064806F07DF8804647
:1037E0000FE00000FC0100207B14AE3E1D5A843F18
:1037F00084A0000800B04C45FE49404606F0FEF9A2
:10380000804601A8005D401EC0B201A908550028ED
:10381000F2D14146484606F05FF883464FF07E51AC
:1038200006F0EAFA82462AF0004BF34881695846CE
:1038300006F0B0FA13D20120A04005430FE0FFE7E5
:10384000ED480169484606F0A5F905D3EA48416903
:10385000484606F09FFA02D20120A0400543641CAE
:10386000032C9ADB284682E72DE9F04F87B0054606
:103870000C46914601208DF8100000208DF81100B3
:10388000DE4A1268917CDD4A5268107804AB02224D
:10389000FEF721FC20B14FF0FF3007B0BDE8F08FFC
:1038A000C82001F0B2FD00208DF81000D34A126844
:1038B000D17BD24A5268107804AB0122FEF70BFC90
:1038C00010B14FF0FF30E8E7CC4A12685179CB4A8B
:1038D0005268107804AB0122FEF7FDFB10B14FF0E7
:1038E000FF30DAE7C54A1268917CC44A5268107802
:1038F00004AB0122FEF7EFFB10B14FF0FF30CCE735
:10390000BE4A1268D17DBD4A5268107804AB0122CC
:10391000FEF7E1FB10B14FF0FF30BEE7B74A126887
:103920001179B64A5268107804AB0122FEF7D3FB36
:1039300010B14FF0FF30B0E70C208DF81000AF4A07
:1039400012681179AD4A5268107804AB0122FEF773
:10395000C2FB10B14FF0FF309FE70F2001F055FD83
:10396000A648806A407A8DF81000A44A12689178BF
:10397000A24A5268107804AB0122FEF7ACFB10B1EA
:103980004FF0FF3089E79D48806A007A8DF810007B
:103990009A4A12685178994A5268107804AB012209
:1039A000FEF799FB10B14FF0FF3076E7B9F1000F49
:1039B00007D09248806A807A40F0E0008DF81000CD
:1039C00004E08E48806A807A8DF810008B4A126875
:1039D00091798A4A5268107804AB0122FEF77BFB8A
:1039E00010B14FF0FF3058E7B9F1000F07D083480E
:1039F000806AC07A40F0E0008DF8100003E07E4855
:103A0000C07A8DF810007D4A1268D1797B4A5268DD
:103A1000107804AB0122FEF75EFB10B14FF0FF30CF
:103A20003BE7B9F1000F02D0C82001F0EEFC4020C6
:103A30008DF81000714A12681179704A5268107836
:103A400004AB0122FEF747FB10B14FF0FF3024E733
:103A500078208DF81000694A12685179674A5268D7
:103A6000107804AB0122FEF736FB10B14FF0FF30A7
:103A700013E76149888901F0C8FC00208DF8100027
:103A80005E4A126851795D4A5268107804AB01228F
:103A9000FEF721FB10B14FF0FF30FEE6574A1268E7
:103AA000917A564A5268107804AB0222FEF75EFA09
:103AB00010B14FF0FF30F0E69DF811009DF81010A6
:103AC00040EA012B0C209BFBF0F0C6B20020A8605E
:103AD00068602860A06060602060824665E0474AB8
:103AE0001268D17A454A5268107804AB0C22FEF76E
:103AF0003DFA10B14FF0FF30CFE69DF811009DF870
:103B0000101040EA012000B2ADF808009DF8130043
:103B10009DF8121040EA012000B2ADF80A009DF8AD
:103B200015009DF8141040EA012000B2ADF80C0019
:103B3000BDF90810206808442060BDF90A106068CB
:103B400008446060BDF90C10A0680844A0609DF8AE
:103B500017009DF8161040EA012000B2ADF80000F1
:103B60009DF819009DF8181040EA012000B2ADF848
:103B700002009DF81B009DF81A1040EA012000B2D7
:103B8000ADF80400BDF90010286808442860BDF9AC
:103B90000210686808446860BDF90410A868084409
:103BA000A8600AF1010000F0FF0AB24597DB124855
:103BB000D0F800C02868C117090441EA1041070481
:103BC00062460023384603F0FAFB32460023CDE973
:103BD000020103F0F4FB28600748D0F800C06868D1
:103BE000C117090441EA1041070462460023384620
:103BF00006E0000054E3853F84A00008FC0100209B
:103C000003F0DDFB32460023CDE9020103F0D7FBD0
:103C10006860FE48D0F800C0A868C117090441EAEE
:103C20001041070462460023384603F0C8FB3246C1
:103C30000023CDE9020103F0C2FBA860F348D0F8ED
:103C400004C02168C817000440EA11480F04624606
:103C500000233846414603F0B2FB32460023CDE94B
:103C6000020103F0ACFB2060E848D0F804C06068B3
:103C7000C117090441EA104107046246002338468F
:103C800003F09DFB32460023CDE9020103F097FBD0
:103C90006060DE48D0F804C0A068C117090441EA9A
:103CA0001041070462460023384603F088FB324681
:103CB0000023CDE9020103F082FBA060A068002888
:103CC00004DDA068A0F58030A06003E0A06800F5E6
:103CD0008030A0600020E0E538B50446CC4890F87C
:103CE0002400A04201D1002038BD24B3C84890F878
:103CF000250010B94FF0FF30F6E70020FEF74CFB2F
:103D00000020FEF771FCC249C88CFEF7DBFE0020E4
:103D10000090BF49496808786B4601222321FEF7CD
:103D2000DAF90121BA4880F824100120FEF734FBAB
:103D3000FEF7FEFC13E00020FEF72EFBB448007CEB
:103D40000090B349496808786B4601222321FEF7A9
:103D5000C2F90021AE4880F82410FEF7E9FC0020EB
:103D6000C2E72DE9F04F8DB083460F4602200C903C
:103D7000A74890F8240020B10020FFF7ADFF0126EE
:103D800000E0002603A8FFF7E1F905A8FFF7FEF918
:103D900001A8FFF71FFA02A8FFF741FA9C4890F824
:103DA0000AA004A8FFF795FA002407E0002239468C
:103DB0005846FFF759FD00B902E0641C022CF5DB00
:103DC00000BF022C01D1002528E0002407E00122D9
:103DD00006A909A8FFF748FD00B902E0641C022CFF
:103DE000F5DB00BF022C01D1002517E006A93846FB
:103DF000FFF75CFC00F0FF0809A95846FFF7A8FC94
:103E000000F0FF090025B9F1000F01D145F00105CF
:103E1000B8F1000F01D145F0020500BFFF207C4939
:103E20000872FF217A484172C1724FF6FF71C18159
:103E3000FF218172017401210173BDF80C00FEF7AE
:103E4000CFFE9DF81400FEF789FEBDF80400FEF7D2
:103E50008DFDBDF80800FEF735FE5046FEF75FFB0E
:103E60009DF81000FEF74DFD16B10120FFF734FF5D
:103E700028460DB0BDE8F08FF8B504460D4616464D
:103E800016B94FF0FF30F8BD6148807A10B94FF095
:103E9000FF30F8E720128DF80000E0B28DF8010045
:103EA0009DF8010028445A4949684989884202DD41
:103EB0004FF0FF30E7E7564A1268117E544A5268C5
:103EC00010786B460222FEF706F910B14FF0FF3072
:103ED000D9E7EAB24E4B1B68597D4D4B5B681878A9
:103EE0003346FEF7F8F810B14FF0FF30CBE7002073
:103EF000C9E7F8B504460D46164616B94FF0FF302F
:103F0000F8BD4348807A10B94FF0FF30F8E720122F
:103F10008DF80000E0B28DF801009DF80100284402
:103F20003B4949684989884202DD4FF0FF30E7E7A5
:103F3000374A1268117E364A526810786B46022260
:103F4000FEF7C9F810B14FF0FF30D9E7EAB2304BB5
:103F50001B68597D2E4B5B6818783346FEF706F8D0
:103F600010B14FF0FF30CBE70020C9E72DE9F04357
:103F700085B005460E4690469946254890F825009E
:103F800020B14FF0FF3005B0BDE8F08316B94FF017
:103F9000FF30F8E7002423E0281B102801DD102063
:103FA00000E0281B87B2321939462046FFF764FF2C
:103FB00010B14FF0FF30E6E701AA39462046FFF77F
:103FC00098FF10B14FF0FF30DDE730193A4601A9F4
:103FD00003F052FB10B16FF00100D4E7E01984B296
:103FE000AC42D9DB4FEA28208DF8000008F0FF0032
:103FF0008DF80100064A1268917E054A52681078D1
:104000006B460222FEF767F838B103E084A000088F
:10401000FC0100204FF0FF30B5E70121FE4880F899
:104020002510A0F826900020ADE70146FA4890F848
:1040300024000870002070474FF0FF3070470246A0
:104040004FF0FF30704701464FF0FF307047F8B532
:1040500005460F461446002C70D0B5F5FF5F01DD14
:10406000FF2605E0202D01DA012601E0C5F3471601
:1040700007B90127282C02DD4FF0FF30F8BDE648D4
:10408000407D28BBE44890F8240038B10020FFF7B9
:1040900023FE0121E04880F8201003E00021DE48E3
:1040A00080F82010DC481630FFF750F8DA48183056
:1040B000FFF76CF8D8481A30FFF78CF8D6481C3058
:1040C000FFF7ADF8D448817A81771F30FFF701F907
:1040D0000020FEF761F90020FEF787FC00208DF834
:1040E0000000CD4A12689178CB4A526810786B462E
:1040F0000122FDF7F0FF10B14FF0FF30BEE7402086
:104100008DF80000C44A1268D17BC34A5268107807
:104110006B460122FDF7DFFF00B165E08DF800601E
:104120008DF80170BC4A1268117ABB4A5268107847
:104130006B460222FDF7CFFF08B155E047E00520AE
:1041400001F063F9B448407A072101EBC000C0B226
:104150008DF80000B04A1268D179AF4A52681078E1
:104160006B460122FDF7B7FF00B13DE020208DF83E
:104170000000012C03D100208DF801000EE0052C79
:1041800003DC01208DF8010008E0142C03DC022080
:104190008DF8010002E003208DF801009DF8010078
:1041A000072101EB8010C0B28DF801009A4A126815
:1041B000917C994A526810786B460222FDF78BFF7A
:1041C00000B111E0012194484175002056E7924A60
:1041D0001632002103E0505C00B105E0491C0C29B7
:1041E000F9D34FF0FF3049E7FF208B490872FF21D8
:1041F00089484172C1724FF6FF71C181FF218172FE
:104200000174012101730146887FFEF788F9824914
:10421000C88AFEF7E5FC8049087EFEF79FFC7E49D0
:10422000488BFEF7A3FB7C49888BFEF74BFC7A4951
:10423000C87FFEF766FB784890F8200010B1012097
:10424000FFF74AFD002174484175002016E770B55C
:1042500088B002A905A8FFF784FD0446032C3ED1CF
:1042600001A8FEF7F2FF059805F068FC06460199E3
:1042700005F0C4FC054605F025FC0590069805F000
:104280005DFC0646019905F0B9FC054605F01AFCEF
:104290000690079805F052FC0646019905F0AEFC21
:1042A000054605F00FFC079005A800F054FA684693
:1042B000FEF7E8FFBDF80010029848430290BDF8F1
:1042C0000010039848430390BDF800100498484339
:1042D000049002A800F0D2FA002008B070BD0120BE
:1042E000FBE7014691F90020002A01DD00201EE0D5
:1042F00091F90020002A01DA042018E091F9012048
:10430000002A01DD012012E091F90120002A01DAE2
:1043100005200CE091F90220002A01DD022006E0D0
:1043200091F90220002A01DA062000E007207047F8
:1043300010B504462046FFF7D4FF0346E01CFFF704
:10434000D0FF43EAC00083B2A01DFFF7CAFF43EAD3
:10435000801083B2184610BD70B50024FDF7F9FE39
:10436000FEF780FC002840D17820FEF7D8F8C4B2D0
:104370000CB1012070BD7820FEF7C3FAC4B20CB1B5
:104380000220F7E76420FEF79DFBC4B20CB10320C6
:10439000F0E700F045F9C4B20CB10420EAE71F4889
:1043A000FFF7C6FF054600F045F9C4B20CB1052081
:1043B000E0E740F2731000F07EFDC4B20CB10620BD
:1043C000D8E7642000F0F0FAC4B20CB10720D1E7BE
:1043D000FFF73DFF04460CB10820CBE70120FFF7B3
:1043E0007BFCC4B21CB10920C4E70A20C2E700204C
:1043F000C0E72DE9F04F99B004460D4616464FF040
:104400007E574FF000084FF000094FF0000A12A845
:1044100013A918AB0EAA03E0FC010020280200201B
:10442000CDE9001014A916A800F0A4FE18B10120CF
:1044300019B0BDE8F08FBDF84C0000F48070002882
:104440007ED00E9805F07AFB83464FF09D4105F033
:1044500043FA07460F9805F071FB83464FF09D41E4
:1044600005F03AFA8046109805F068FB83464FF055
:104470009D4105F031FA8146119805F05FFB8346B6
:104480004FF09D4105F028FA824639464FF08040B2
:1044900005F0B4FB4946059005F0B0FB4146079096
:1044A0004FF0404005F0AAFB5146059005F0A6FBF1
:1044B0000690079905F0A2F9834605F073F9CDE956
:1044C000080103F02BFB4FF06632544BCDE90A0193
:1044D00004F058FECDE90C0104F02AFB20604946A7
:1044E0004FF0804005F08AFB4946029005F086FBBC
:1044F000414604904FF0404005F080FB4146029059
:1045000005F07CFB0390049905F076FC83464FF0A0
:104510007E5105F073F9059005F044F9CDE90801E5
:1045200039464FF0804005F069FB4146039005F0A5
:1045300065FB494604904FF0804005F05FFB00E0CA
:1045400068E05146039005F059FB8346049905F055
:1045500055F9059005F026F9CDE90601DDE90823B6
:1045600003F024FD4FF066322C4BCDE90A0104F034
:1045700009FECDE90C0104F0DBFA286051465046F3
:1045800005F03CFB49460490484605F037FB4146A0
:104590000390404605F032FB39460190384605F05D
:1045A0002DFB0090019905F029F90290039905F07F
:1045B00023FC8346049905F01FFC059005F0F2F8F2
:1045C000CDE908015146384605F018FB49460490EC
:1045D000404605F013FB0390049905F00FF94FF0E6
:1045E0008041059005F00AFB834605F0DBF8CDE934
:1045F0000601DDE9082303F0D9FC4FF06632074BD2
:10460000CDE90A0104F0BEFDCDE90C0104F090FAF9
:10461000306001E002200BE7002009E766A64C406D
:1046200010B5C8234FF48062F74940F6F630FFF723
:104630009DFC10BD10B586B00446F4A00068039040
:10464000F3A000680290F3A000680190F2A0006857
:10465000009004F0030003A9085C8DF8140003A87F
:10466000C4F3C101405C8DF8150003A8C4F38111A7
:10467000405C8DF8160004F0030002A9085C8DF878
:10468000100002A8C4F3C101405C8DF8110002A81B
:10469000C4F38111405C8DF8120005AA032140F299
:1046A0002640FFF7E9FB18B14FF0FF3006B010BD10
:1046B00004AA032140F22A40FFF7DEFB10B14FF0BD
:1046C000FF30F3E7019805900098049004F004008F
:1046D00058B19DF8140040F001008DF814009DF8C9
:1046E000100040F001008DF8100004F0200058B1D7
:1046F0009DF8150040F001008DF815009DF811009F
:1047000040F001008DF8110004F4807058B19DF85C
:10471000160040F001008DF816009DF8120040F0E0
:1047200001008DF8120005AA03214FF48860FFF7FD
:10473000A3FB10B14FF0FF30B8E704AA032140F209
:104740003140FFF799FB10B14FF0FF30AEE7B348AF
:1047500004810020AAE71FB50446B048007A00F0A3
:10476000030054F820000190AC48007A00F00400E7
:1047700010B1019840420190A848007AC0F3C100EE
:1047800054F820000290A548007A00F0200010B1F3
:10479000029840420290A148007AC0F3811054F878
:1047A000200003909D48008900F4807010B10398A8
:1047B000404203909A49019880FB0101800F40EA32
:1047C000810001909649029880FB0110820042EA24
:1047D000917002909249039880FB0110820042EA96
:1047E000917003900198000E8DF800000198000C64
:1047F0008DF801000198000A8DF802000198C0B2FE
:104800008DF803006A4604214FF47470FFF734FBFF
:1048100018B14FF0FF3004B010BD0298000E8DF8B3
:1048200000000298000C8DF801000298000A8DF833
:1048300002000298C0B28DF803006A4604214FF4CA
:104840007570FFF719FB10B14FF0FF30E3E70398E5
:10485000000E8DF800000398000C8DF801000398FD
:10486000000A8DF802000398C0B28DF803006A4672
:1048700004214FF47670FFF7FFFACCE770B588B0EB
:10488000064601A8FEF7FEFCBDF804000021C9039E
:1048900041EA5045C4036148007A00F0030056F82D
:1048A000200005905D48007A00F0040010B10598E2
:1048B000404205905948007AC0F3C10056F82000E4
:1048C00006905648007A00F0200010B10698404249
:1048D00006905248007AC0F3811056F820000790E5
:1048E0004E48008900F4807010B10798404207904C
:1048F0000598C117A0FB042301FB043100FB051040
:10490000810041EA927005900698C117A0FB04232C
:1049100001FB043100FB0510810041EA9270069012
:104920000798C117A0FB042301FB043100FB05100D
:10493000810041EA927007900598000E8DF80800FA
:104940000598000C8DF809000598000A8DF80A00FA
:104950000598C0B28DF80B000698000E8DF80C007B
:104960000698000C8DF80D000698000A8DF80E00D0
:104970000698C0B28DF80F000798000E8DF8100051
:104980000798000C8DF811000798000A8DF81200A6
:104990000798C0B28DF8130002AA0C214FF42570BD
:1049A000FFF76AFA08B070BD30B585B004461DA2A5
:1049B00007CA02AB07C3C82C03DD4FF0FF3005B0B8
:1049C00030BDC82090FBF4F0401E85B2280A8DF857
:1049D0000000E8B28DF801006A46022140F216207C
:1049E000FFF74AFA10B14FF0FF30E8E702AA0C21B6
:1049F00040F6C120FFF740FA10B14FF0FF30DEE77C
:104A0000064884810020DAE7ACA000084CCD6C0099
:104A10000CC92C003656760026466600540300204A
:104A200009E3CA02FEF2ABC4AAF1DFDFBBAFDFDFEE
:104A30000146FC4880890880002070472DE9FC472A
:104A400006460F4606F0070010B1B7F5C86F03DD44
:104A50004FF0FF30BDE8FC87384605F087F8814607
:104A6000F14904F039FF80466846FEF78FFB9DF858
:104A70000000022806D0042816D0082826D01028C6
:104A800048D135E04FF08D41404605F0B7F88146FA
:104A900005F034F884B2E549404605F0AFF88146A8
:104AA00005F02CF885B238E04FF08C41404605F017
:104AB000A5F8814605F022F884B2DD49404605F0AC
:104AC0009DF8814605F01AF885B226E04FF08B413B
:104AD000404605F093F8814605F010F884B2D549B8
:104AE000404605F08BF8814605F008F885B214E0E1
:104AF0004FF08A41404605F081F8814604F0FEFF00
:104B000084B2CD49404605F079F8814604F0F6FFBD
:104B100085B202E04FF0FF309CE700BF20128DF815
:104B20000400E0B28DF8050028128DF80600E8B206
:104B30008DF8070006F00100A0B101AA02214FF490
:104B4000EA70FFF799F910B14FF0FF3082E70DF1ED
:104B5000060202214FF49270FFF78EF910B14FF068
:104B6000FF3077E706F00200A0B101AA02214FF45E
:104B7000EC70FFF781F910B14FF0FF306AE70DF1EB
:104B8000060202214FF49470FFF776F910B14FF04E
:104B9000FF305FE706F00400A0B101AA02214FF444
:104BA000EE70FFF769F910B14FF0FF3052E70DF1E9
:104BB000060202214FF49670FFF75EF910B14FF034
:104BC000FF3047E7002045E738B504460020009055
:104BD00004F0010020B19DF8000040F0300000908A
:104BE00004F0020020B19DF8000040F00C0000909D
:104BF00004F0040020B19DF8000040F00300009094
:104C00006A4601214FF4A470FFF736F938BD38B574
:104C10000446012C01DA012402E0042C00DD042406
:104C2000601EC0B200906A46012140F24F10FFF7AB
:104C300023F938BD38B50446052094FBF0F085B261
:104C400028128DF80000E8B28DF801006A460221B2
:104C50004FF4EF70FFF710F938BD38B50446052062
:104C600094FBF0F085B228128DF80000E8B28DF8C0
:104C700001006A4602214FF4ED70FFF7FDF838BDE0
:104C8000F8B505460E464FF47A7095FBF0F000FB40
:104C900006F4200E8DF80000200C8DF80100200A8B
:104CA0008DF80200E0B28DF803006A4604214FF44B
:104CB000AE70FFF7E1F8F8BD38B50446052094FB67
:104CC000F0F084B220128DF80000E0B28DF80100FF
:104CD0006A4602214FF4AD70FFF7CEF838BD38B503
:104CE0000446052094FBF0F084B220128DF80000F9
:104CF000E0B28DF801006A4602214FF4AC70FFF774
:104D0000BBF838BD38B5044614B94FF0FF3038BD94
:104D10006A4604214FF45870FFF7EBF810B14FF0DA
:104D2000FF30F4E79DF8000000069DF8011040EA0E
:104D300001409DF8021040EA01209DF8031008434D
:104D400020600020E3E738B50446200E8DF800000F
:104D5000200C8DF80100200A8DF80200E0B28DF8D9
:104D600003006A4604214FF45870FFF785F838BDF8
:104D700038B5044614B94FF0FF3038BD6A460421F7
:104D80004FF47170FFF7B5F810B14FF0FF30F4E752
:104D90009DF8000000069DF8011040EA01409DF8D2
:104DA000021040EA01209DF80310084300EB800048
:104DB000800020600020E0E738B504461420B4FBF2
:104DC000F0F4200E8DF80000200C8DF80100200A70
:104DD0008DF80200E0B28DF803006A4604214FF41A
:104DE0007170FFF749F838BD38B5044664B120202A
:104DF0008DF8000028208DF8010030208DF8020089
:104E000038208DF8030004E0A3220421684602F054
:104E10005FFC6A46042140F69E20FFF72DF8FDF75F
:104E200087FC38BD54030020000048430000404682
:104E30000000C045000040450000C04438B50446AD
:104E400064B1C0208DF80000C2208DF80100C4209C
:104E50008DF80200C6208DF8030004E08B220421A7
:104E6000684602F035FC6A46042140F69820FFF7B8
:104E700003F8FDF75DFC38BD3EB504466CB1FDA1FD
:104E8000D1E900208968CDE9002002916A46092114
:104E90004FF49760FEF7F0FF3EBDF9A2D2E9001093
:104EA0009268CDE9010200916A4609214FF49760AA
:104EB000FEF7E2FFF0E73EB5044602208DF8000061
:104EC000CA208DF80100E3208DF8020009208DF83A
:104ED00003006A4604216820FEF7CEFFA3208DF868
:104EE000000004F0400048B1C0208DF80100C82047
:104EF0008DF80200C2208DF8030006E0A3208DF893
:104F000001008DF802008DF8030004F4C07048B170
:104F1000C4208DF80400CC208DF80500C6208DF843
:104F2000060006E0A3208DF804008DF805008DF83A
:104F30000600A3208DF807008DF808008DF8090001
:104F40006A460A2140F6A720FEF796FF04F0030008
:104F500018B120208DF8000002E0D8208DF8000064
:104F60006A46012140F6B620FEF786FF04F02000D5
:104F700018B10120FFF780FF02E00020FFF77CFF5F
:104F800004F4C07008B304F4807060B1B2208DF8EE
:104F900000008B208DF80100B6208DF802009B20C8
:104FA0008DF803000BE0B0208DF8000080208DF814
:104FB0000100B4208DF8020090208DF803006A46AD
:104FC000042140F6A220FEF757FF04F0010020B3B1
:104FD000F8208DF800006A4601214FF40B60FEF7BF
:104FE0004BFFFA210720FFF729FD0720FFF7ECFD13
:104FF0000120FFF70CFE6420FFF71CFE4FF4FA704F
:10500000FFF72BFEC821A148FFF73AFE2820FFF743
:1050100053FE0A20FFF763FE08E0D8208DF8000059
:105020006A4601214FF40B60FEF726FF04F00200F0
:1050300018B1D9208DF8000002E0D8208DF80000CA
:105040006A46012140F23D70FEF716FF04F00400AD
:1050500018B10120FFF7F2FE02E00020FFF7EEFE9C
:1050600004F0100018B10120FFF7BEFE02E000209E
:10507000FFF7BAFE44F0080085494881FDF758FB68
:1050800000208349887304F0400018B10846807BF3
:10509000801D887304F4C07020B17D48807B801D22
:1050A0007B49887304F0140020B17948807B10306C
:1050B0007749887304F0030020B17548807B001D98
:1050C0007349887300203EBD0146714840890880BD
:1050D000002070472DE9F0410446E07800F0C0065A
:1050E000E07800F03F05607800F0010098B1EF1023
:1050F0002846E91705EB5171C910A5EBC101491C00
:1051000001F0FF086248006820B16148414602682A
:105110003846904700BF607800F0080030B15C4826
:10512000406818B1B0115A4A516888470020BDE85C
:10513000F08110B586B0044656A207CA03AB07C378
:1051400057A207CA8DE80700012C09D0022C0ED106
:1051500003AA0B2140F68220FEF78EFE06B010BD9A
:105160006A460B2140F68220FEF786FEF6E74FF0F6
:10517000FF30F3E72DE9F04F8DB00746884615461E
:105180009946DDE9166B0024002030804049887B79
:105190005A4605A9FEF7D3F918B1601E0DB0BDE857
:1051A000F08F3B48807A00F01400002861D09DF811
:1051B000140000069DF8151040EA01409DF81610F5
:1051C00040EA01209DF81710084328609DF8180058
:1051D00000069DF8191040EA01409DF81A1040EAB7
:1051E00001209DF81B10084368609DF81C00000614
:1051F0009DF81D1040EA01409DF81E1040EA012074
:105200009DF81F100843A8609DF8200000069DF837
:10521000211040EA01409DF8221040EA01209DF84B
:1052200023100843E86004F11000C4B22868001499
:105230000190686800140290A86800140390E86860
:105240000014049001984043029901FB0100039966
:1052500001FB0100049901FB010ABAF1706F02DB46
:10526000BAF1885F22DDFDF763FA00203080401E2E
:1052700094E721E0B8AAB38DB4980D355D00000025
:10528000B8AAAAAAB088C3C5C700000009E3CA0229
:1052900054030020D8B1B9F38BA391B609B4D90057
:1052A000DAB1B9F38BA391B6DAB4DA00B6F900003B
:1052B00040F48070308000BF3448807A00F04000B5
:1052C00020B305A9601C085C095D40EA012000B21A
:1052D000A8F8000005A9E01C095C05AAA01C105C48
:1052E00041EA002000B2A8F8020005A9601D095C8F
:1052F000201D105C41EA002000B2A8F80400A01DA7
:10530000C4B2B6F9000040F0080030801F48408960
:1053100000F4C07008B305A9601C085C095D40EA90
:10532000012000B2388005A9E01C095C05AAA01C78
:10533000105C41EA002000B2788005A9601D095C7C
:10534000201D105C41EA002000B2B880A01DC4B24C
:10535000B6F9000040F0700030800C48807A00F010
:10536000030018B105A90819FFF7B4FE4846FDF778
:1053700049FD002012E70146044801600020704703
:10538000014602484160002070470000540300209D
:1053900010B56FF0040001F080F82E4800682E4927
:1053A000B0FBF1F02D4908700846007800EB400191
:1053B000C1EBC0104FF6FF7101EAC0002849088018
:1053C00010BD0146254A12784A434FF0E0235A6146
:1053D00000229A611A46126942F001021A6100BF66
:1053E0004FF0E022106900F001021AB100F480329F
:1053F000002AF5D04FF0E022126922F001024FF0AE
:10540000E0231A6100229A6170470146144A12880B
:105410004A434FF0E0235A6100229A611A4612690A
:1054200042F001021A6100BF4FF0E022106900F063
:1054300001021AB100F48032002AF5D04FF0E022C8
:10544000126922F001024FF0E0231A6100229A61F2
:1054500070470000E800002000127A0032020020AD
:105460003402002000BF704770B504460D4600BFEF
:105470004021FE4800F068FF0028F9D0E1B2FB4867
:1054800000F0F4FE204670BD10B586B00446012140
:10549000880300F04BFD0121042000F047FD4FF48C
:1054A0000070ADF8040003208DF8060018208DF878
:1054B000070001A9EE4800F07DFA4FF48060ADF8D6
:1054C000040003208DF8060004208DF8070001A9D0
:1054D000E74800F06FFA02940020ADF80C00ADF838
:1054E0000E00ADF81000ADF814000C20ADF812005D
:1054F00002A9DE4800F0C1FD012240F22551DB483F
:1055000000F053FE0121D94800F043FE06B010BD63
:10551000D649098801F4587109B1D4490988D34999
:10552000098801F08001F1B1D0490C31098801F0FE
:105530008001C1B1CF490A780978491CCD4B197057
:10554000CD49895CC94A121D118019460978CB4A98
:105550001278914207D1C5490C31098821F08001A8
:10556000C24A0C321180C149098801F0200100298A
:1055700038D00021C24A1170BC49091D0988C8B23F
:10558000C049097859B98A2816D1BF49BF4A12784B
:1055900001EB421108700121BA4A11700CE0BA49BE
:1055A000BA4A127801EB4211B64A12788854B549CA
:1055B0000978491CB34A1170B2490978202911D1E0
:1055C0000021B04A1170B149097831B10021AF4AC8
:1055D00011700121AE4A117004E00121AB4A117033
:1055E000AC4A1170704710B50446A44801780078A1
:1055F000401CA24A1070A0484454012240F2277176
:105600009A4800F0D2FD00BF9848008800F04000A2
:105610000028F9D09548001D0480204610BD31B502
:10562000002400259DF8012029466D1C9248425413
:105630009DF8002029466D1C4254012240F227713A
:105640008A4800F0B2FD9DF801002044C4B29DF8E4
:1056500000002044C4B200BF8448008800F040002D
:105660000028F9D040F2DC508049091D088020460E
:1056700038BD31B500248849009808600846C178D3
:105680007E4802780078401C7C4B18707A48815420
:1056900081488178184602780078401C1870764856
:1056A00081547D484178184602780078401C187073
:1056B0007148815478480178184602780078401C77
:1056C00018706D488154012240F22771674800F03C
:1056D0006CFD9DF803002044C4B29DF802002044F4
:1056E000C4B29DF801002044C4B29DF800002044DB
:1056F000C4B2204638BD10B504460FE020780D280E
:1057000002D1FFF770FF08E020780A2802D1FFF7E6
:105710006AFF02E02078FFF766FF641C207800280B
:10572000ECD110BD10B50446574800EB441040784A
:105730008A2804D104F13001C8B2FFF754FF10BD2C
:1057400070B55448007898B100205249087000257F
:10575000002404E04C48005D2844C5B2641C1F2CA2
:10576000F8DB4948C07FA84202D10020FFF7DAFFEA
:1057700047480078A8B1002045490870002500245A
:1057800005E041482030005D2844C5B2641C1F2C50
:10579000F7DB3D4890F83F00A84202D10120FFF717
:1057A000C1FF70BD70B504460D4605E02078FFF7D7
:1057B0001AFF641C681EC5B2002DF7D170BD70B50C
:1057C00005460E460024002D38DD072D36DA8820E8
:1057D000FFF709FF2044C4B2AD20FFF704FF2044C7
:1057E000C4B20220FFF7FFFE2044C4B22846FFF7F0
:1057F000FAFE2044C4B22EB90020FFF7F4FE204484
:10580000C4B217E0012E05D10120FFF7ECFE2044C1
:10581000C4B20FE02148405D18B100201F4948552F
:1058200002E001201D4948551C49485DFFF7DBFE99
:105830002044C4B22046FFF7D6FE3AE0062D38DDFC
:105840000D2D36DA8820FFF7CEFE2044C4B2AD20FD
:10585000FFF7C9FE2044C4B20320FFF7C4FE204472
:10586000C4B22846FFF7BFFE204419E000380140CB
:105870000008014058020020640300205902002063
:105880005E0200205B020020630400205A02002018
:105890005D0200205C020020540200205F02002014
:1058A000C4B23046FFF7BBFE2044C4B22046FFF727
:1058B0009AFE70BD0948804709480047FEE7FEE7A9
:1058C000FEE7FEE7FEE7FEE7FEE7FEE7FEE7FEE7B0
:1058D00004480549054A064B70470000670A00085E
:1058E0003101000808050020080B002008070020EF
:1058F0000807002010B50446CC48844208D1012195
:10590000042000F02DFB0021042000F029FB46E0DC
:10591000C748844208D10121082000F021FB002162
:10592000082000F01DFB3AE0C248844208D1012162
:10593000102000F015FB0021102000F011FB2EE0DC
:10594000BD48844208D10121202000F009FB00213C
:10595000202000F005FB22E0B848844208D1012154
:10596000402000F0FDFA0021402000F0F9FA16E096
:10597000B348844208D10121802000F0F1FA0021CF
:10598000802000F0EDFA0AE0AE48844207D1012100
:10599000801500F0E5FA0021A01500F0E1FA10BD35
:1059A00010B50121084600F0DBFA0021012000F0CB
:1059B000D7FA10BD2DE9F04102460025002600204F
:1059C00000230024002791F803C00CF00F0591F884
:1059D00003C00CF0100CBCF1000F03D091F802C012
:1059E0004CEA050591F800C0BCF1000F31D01468F5
:1059F00000202BE04FF0010C0CFA00F3B1F800C0CE
:105A00000CEA03069E4220D183004FF00F0C0CFAE3
:105A100003F7BC4305FA03FC4CEA040491F803C005
:105A2000BCF1280F06D14FF0010C0CFA00FCC2F8B3
:105A300014C00AE091F803C0BCF1480F05D14FF043
:105A4000010C0CFA00FCC2F810C0401C0828D1D38D
:105A50001460B1F800C0BCF1FF0F34DD54680020C1
:105A60002EE000F1080C4FF0010808FA0CF3B1F831
:105A700000C00CEA03069E4221D183004FF00F0CB8
:105A80000CFA03F7BC4305FA03FC4CEA040491F852
:105A900003C0BCF1280F05D100F1080C08FA0CF87E
:105AA000C2F8148091F803C0BCF1480F07D100F18F
:105AB000080C4FF0010808FA0CF8C2F81080401CDE
:105AC0000828CED35460BDE8F0814FF6FF71018005
:105AD000022181700421C170704702460020936842
