:020000040800F2
:10000000600D0020D5790008C9110008CB11000847
:10001000CD110008D1110008D51100080000000022
:10002000000000000000000000000000D9110008DE
:10003000DB11000800000000DD110008DF110008DE
:1000400051280008EF790008EF790008EF790008DF
:10005000EF790008EF790008EF790008EF790008E0
:10006000EF790008EF790008EF790008EF790008D0
:10007000EF790008EF790008EF790008EF790008C0
:10008000EF790008EF790008EF790008EF790008B0
:10009000EF790008EF790008EF790008EF790008A0
:1000A000EF790008EF790008EF790008EF79000890
:1000B000EF790008EF790008F1240008EF790008D3
:1000C000EF790008EF790008EF790008EF79000870
:1000D000EF790008EF790008EF790008EF79000860
:1000E000EF790008EF790008EF790008EF79000850
:1000F000EF790008EF790008EF790008EF79000840
:10010000EF790008EF790008E7230008EF7900088D
:10011000EF790008EF790008EF790008EF7900081F
:10012000EF790008EF790008EF790008EF7900080F
:1001300000F002F800F062F80AA090E8000C824497
:100140008344AAF10107DA4501D100F057F8AFF274
:10015000090EBAE80F0013F0010F18BFFB1A43F0A5
:100160000103184764CA000084CA00000A444FF023
:10017000000C10F8013B13F0070408BF10F8014B06
:100180001D1108BF10F8015B641E05D010F8016B4B
:10019000641E01F8016BF9D113F0080F1EBF10F8AF
:1001A000014BAD1C0C1B09D16D1E58BF01F801CBD2
:1001B000FAD505E014F8016B01F8016B6D1EF9D555
:1001C0009142D6D37047000000230024002500266A
:1001D000103A28BF78C1FBD8520728BF30C148BFAA
:1001E0000B607047642909F0D381782909F00C82EB
:1001F000002070471FB51FBD10B510BD09F060FC91
:100200001146FFF7F7FF00F009F809F07EFC03B490
:10021000FFF7F2FF03BC07F0B5F900009CB0002027
:100220001A901990189017900120119000201090AA
:100230000F900E9001F049F84FF4A06008F06EF9AD
:1002400007F036F9472144F61F6002F009FB4FF42E
:10025000FA61FE4809F0B8F84FF4FA61FB4809F07A
:10026000B5F84FF4FA61F94809F0B2F84FF4FA61C1
:10027000F64809F0AFF841F2883007F056F94FF42C
:100280007A71F24809F0A0F84FF47A71EF4809F05A
:100290009DF84FF47A71ED4809F09AF84FF47A71AD
:1002A000EA4809F097F840F6B83007F03EF903F055
:1002B0000EF805E0C82007F038F9C82007F035F936
:1002C00005F038FA0028F5D14FF47A7007F02DF9CF
:1002D00002F03AFE642007F028F902F027FB6420C0
:1002E00007F023F902F032FB4FF4967007F01DF986
:1002F00000201290AFE0D64AD649D74803F089F8DB
:1003000000284DD1D448B0F900000BF059FA0890FC
:10031000D248016808980BF0ADF809900BF07EF810
:100320000022CF4BCDE90A010AF09EFDCDE90C0178
:100330000AF0BEFAC9490860C648B0F900000BF0DF
:100340003FFA0890C748016808980BF093F80990A5
:100350000BF064F80022C24BCDE90A010AF084FDDB
:10036000CDE90C010AF0A4FABE490860B848B0F91A
:1003700000000BF025FA0890BB48016808980BF0C4
:1003800079F809900BF04AF80022B54BCDE90A0143
:100390000AF06AFDCDE90C010AF08AFAB249086058
:1003A000B24AB349B34803F05CF800284FD1B148D2
:1003B000B0F900000BF004FA0890AF480168089803
:1003C0000BF058F809900BF029F80022A44BCDE966
:1003D0000A010AF049FDCDE90C010AF069FAA649C3
:1003E0000860A348B0F900000BF0EAF90890A348B0
:1003F000016808980BF03EF809900BF00FF8002206
:10040000974BCDE90A010AF02FFDCDE90C010AF066
:100410004FFA9A4908609548B0F900000BF0D0F9FE
:1004200008909748016808980BF024F809900AF0A2
:10043000F5FF00228A4BCDE90A010AF015FDCDE94E
:100440000C010AF035FA8E49086001F091FD12980E
:10045000401CC0B2129012986428FFF64CAF7F483F
:1004600000680BF071F900B2864908807D48006889
:100470000BF06AF900B2834948807B4800680BF0B2
:1004800063F900B27F4988807B4800680BF05CF913
:1004900000B27D490880794800680BF055F900B238
:1004A0007A4908807A4800680BF04EF900B2794921
:1004B00008800020129021E0642007F036F802F056
:1004C000CEFA754800680BF07BF908907348016814
:1004D00008980AF0CFFF09900AF0A0FF0022604BB5
:1004E000CDE90A010AF0C0FCCDE90C010AF0E0F9FF
:1004F0006A4908601298401CC0B2129012981428E1
:10050000DADB664800680BF01FF9654908600846A9
:1005100000680BF055F907900AF080FF0022614B4C
:10052000CDE908010AF0B2FA4FF0C0425E4BCDE9C6
:100530000A010AF0EFF9CDE90C010AF0B9F95B49BB
:100540000860119818B15A4807F02EF805E0109885
:1005500018B14FF4E13007F027F80A2006F0E5FF64
:1005600047214FF6FF7001F04EFF40F2CF210920E6
:1005700001F00CFF0A2006F0D8FF00F027FF012051
:100580004C49086000204C49C1F888010A2006F057
:10059000CCFF4A4800680BF05BF949490C900BF01E
:1005A0009FF90D900BF0ECF846490860434800684D
:1005B0000BF04EF944490C900BF092F90D900BF0B2
:1005C000DFF8424908603D4800680BF041F94049B6
:1005D0000C900BF085F90D900BF0D2F83D490860B6
:1005E000364800680BF034F93B490C900BF078F971
:1005F0000D900BF0C5F839490860304800680BF0E1
:1006000027F937490C900BF06BF90D900BF0B8F807
:1006100034490860294800680BF01AF932490C90F7
:100620000BF05EF90D900BF0ABF8304908602348F1
:1006300000680BF00DF92E490C900BF051F90D905C
:100640000BF09EF82B4908601C4855E00004004060
:1006500072000020700000206E0000208800002042
:100660000000E03F8C000020900000206C00002083
:100670006A000020680000209C000020A0000020EC
:10068000A40000208200002094000020960000209A
:10069000D001002098000020DC000020EC000020A9
:1006A000E4000020000059406612714074010020EF
:1006B00020A10700A001214200802242000000206A
:1006C000CDCCCC3D04000020CDCC4C3D080000201A
:1006D0000AD7A33C0C0000200AD7233C10000020BE
:1006E0000AD7A33B140000206F12033B1800002020
:1006F0006F12833A1C00002000680BF0A9F8FE4935
:100700000C900BF0EDF80D900BF03AF8FB490860F7
:10071000FB4800680BF09CF8FA490C900BF0E0F8ED
:100720000D900BF02DF8F8490860F54800680BF0C3
:100730008FF8F6490C900BF0D3F80D900BF020F8E1
:10074000F3490860EE4800680BF082F8F1490C901C
:100750000BF0C6F80D900BF013F8EF490860E8486D
:1007600000680BF075F8ED490C900BF0B9F80D909E
:100770000BF006F8EA490860E14800680BF068F8F9
:10078000E8490C900BF0ACF80D900AF0F9FFE6493F
:100790000860DB4800680BF05BF8E4490C900BF054
:1007A0009FF80D900AF0ECFFE1490860D44800681A
:1007B0000BF04EF8DF490C900BF092F80D900AF018
:1007C000DFFFDD490860CE4800680BF041F8DB49E7
:1007D0000C900BF085F80D900AF0D2FFD849086014
:1007E000C74800680BF034F8D6490C900BF078F845
:1007F0000D900AF0C5FFD4490860C14800680BF0AD
:1008000027F8D2490C900BF06BF80D900AF0B8FF66
:10081000CF490860F0E3CF480068401C0BF018F89F
:100820000D90B74800680BF013F8CB490B900BF014
:1008300057F80C900D990BF01FF97DD2B048006865
:100840000BF006F8C4490C900BF04AF80D900AF032
:1008500097FFC0490860C14AC149C24802F001FE81
:1008600000284DD101F0D2FA01F082FBA4480068C3
:10087000BD490968401A09900AF0A6FABB4ABC4B68
:10088000CDE90A010AF0F0FACDE90C010AF010F8FE
:10089000B84908609A480068B3490860B5480068DC
:1008A0000AF0BCFDCDE90601B348B0F900000AF03A
:1008B00087FF0090B148016800980BF03FF9019064
:1008C0000AF0ACFDAE4AAF4BCDE902010AF0CCFA1A
:1008D000CDE90401DDE906230AF0C6FACDE90A01F3
:1008E000A94800680AF09AFDCDE90801DDE90A236C
:1008F0000AF010F8CDE90C0109F0DAFFA24908600E
:10090000A24A911E881E02F084FDA8B901F0D6F912
:100910000F9888B101F0BFFC9D4800680D900AF067
:1009200013FF00B29B490880994840680D900AF077
:100930000BFF00B2984900E008E008809448806806
:100940000D900AF001FF00B29449088094480068B5
:10095000401C0AF07DFF0D90694800680AF078FF9E
:1009600090490B900AF0BCFF0C900D990BF084F8A5
:100970000CD2634800680AF06BFF8A490C900AF0B9
:10098000AFFF0D900AF0FCFE8549086086480068BC
:10099000401C0AF05DFF0D90594800680AF058FFAE
:1009A00082490B900AF09CFF0C900D990BF064F8B3
:1009B00029D2534800680AF04BFF7C490C900AF09A
:1009C0008FFF0D900AF0DCFE77490860784A79497C
:1009D000794804F0FCFE79480168764800680BF01D
:1009E000B7F87749086077480168734800680BF0EA
:1009F000AFF875490860754801686D4800680BF0EC
:100A0000A7F87349086073480068401C0AF020FF8B
:100A10000D903B4800680AF01BFF6F490B900AF0ED
:100A20005FFF0C900D990BF027F861D234480068F5
:100A30000AF00EFF68490C900AF052FF0D900AF080
:100A40009FFE644908601A98002852D063480068E5
:100A500040F24C4188424DD96048008800B2149061
:100A60005F48B0F9000040F2E351081A5D49096897
:100A7000884208D85A48B0F9000000F2E3505949BA
:100A80000968884218D257480088A0F2E35000B2A3
:100A9000169016980AF094FE09900AF0BFFC524A8C
:100AA000524BCDE90A010AF0DFF9CDE90C0109F05A
:100AB000FFFE4249086002E00020404908604848C3
:100AC000B0F9000040F2E451081A49490968884227
:100AD00008D84348B0F9000000F2E45044490968DE
:100AE000884208D24248008840F2E451081A81E066
:100AF0003FE1FBE0C9E092E06F12833A2000002062
:100B00000000002017B7D1382400002017B7513853
:100B100028000020ACC5A7372C000020ACC5273723
:100B200030000020ACC5A73634000020BD370636A3
:100B300038000020BD3786353C000020BD37063523
:100B40004000002095BF56344400002095BFD633A6
:100B50004800002004000020CDCCCC3D6C000020DB
:100B60006A00002068000020C00100202D431CEB1B
:100B7000E2361A3FBC01002098000020D40100207A
:100B80007C9285F93C90AE3FDC010020780000208B
:100B9000A0040020080100200A0100200C01002010
:100BA00008000020CDCC4C3D0C0000200AD7A33C0F
:100BB000640000205C00002060000020FC00002099
:100BC000F000002000010020F400002004010020BB
:100BD000F8000020100000200AD7233C5400002019
:100BE000B60000204C000020F49FDA858B81A23FE4
:100BF0005000002000B2159015980AF0E1FD099010
:100C00000AF00CFCFD4AFE4BCDE90A010AF02CF972
:100C1000CDE90C0109F04CFEFA49086002E0002021
:100C2000F8490860F848B0F9000040F2E351081AAA
:100C3000F6490968884208D8F348B0F9000000F284
:100C4000E350F249096888421BD2F048008840F21C
:100C5000E351081A00B2139013980AF0B1FD0990FD
:100C60000AF0DCFBE54AE64BCDE90A010AF0FCF8A4
:100C7000CDE90C0109F01CFEE54908600020086080
:100C800012E00020E24908600EE00020E1490880FF
:100C9000E1490880E1490880E149088000231A46BB
:100CA0001946184600F0CEFBDE48006840F24C4181
:100CB000884218D2D5480068884214D2189818B9CA
:100CC000D948008880B21890D74801681898081A47
:100CD00008283DD300201A90D44908600120D44947
:100CE000C1F8A00134E00020189031E00020C9498B
:100CF0000880C9490880C9490880C949088000237B
:100D00001A461946184600F09DFBC648006840F296
:100D10004C4188421AD2BD48006840F26C7188424A
:100D200014D9199818B9C048008880B21990BE48E3
:100D300001681998081A05280AD301201A90BB499E
:100D400008600020BA49C1F8A00101E00020199014
:100D5000B448006840F24C4188420AD91A9840B120
:100D600000F031FD00F09DFC01F0F0F9149800F066
:100D70009BFBB0480068401C0AF06AFD0D90AE482D
:100D800000680AF065FDAD490B900AF0A9FD0C90D2
:100D90000D990AF071FE0ED2A74800680AF058FDBE
:100DA000A6490C900AF09CFD0D900AF0E9FCA149BF
:100DB000086001F0A6F9A2480068401C0AF048FD4E
:100DC0000D909D4800680AF043FD9E490B900AF083
:100DD00087FD0C900D990AF04FFE7DD29648006871
:100DE0000AF036FD97490C900AF07AFD0D900AF052
:100DF000C7FC93490860119800286ED0924800689B
:100E00000AF0A2FC642148430D901A991798CDE985
:100E100000018E480D9B02688D4801688D4800686E
:100E200005F095FD002000900190029003907C4811
:100E3000008880B20D907948008880B20C90764886
:100E4000008880B20B907348008880B20A900BA98A
:100E50000EC905F0DFFE002002900390049005907B
:100E6000009001907C48008880B20D907B480088FB
:100E700080B20C906548008880B20B906948008869
:100E800080B20A900BA90EC905F058FF6E480068A1
:100E90000AF05AFC642148430D90714800680AF03A
:100EA00053FC00B20C906F48B0F900000AF088FCC7
:100EB00001906D48016801980AF040FE02900AF026
:100EC00043FC00B2039009F068FF684A684BCDE923
:100ED000040109F0C9FF01E02AE028E0CDE906019C
:100EE00009F02CFF00B20B90624800680AF02CFC5D
:100EF00000B20A90604800680AF026FC00B209902F
:100F00000022DDE90C10CDE90212CDE904205B4896
:100F1000B0F900005A49B1F90010CDE90010594864
:100F2000B0F9003009A807C805F0B1FD00E000BF26
:100F300055480068401C0AF08BFC0D903E48006844
:100F40000AF086FC51490B900AF0CAFC0C900D99EE
:100F50000AF092FD27D2384800680AF079FC4B4924
:100F60000C900AF0BDFC0D900AF00AFC464908609E
:100F700001F091FD44480068642815D24448016896
:100F8000444800680AF076FA09900AF047FA00220D
:100F9000414BCDE90A0109F067FFCDE90C0109F0E9
:100FA00087FC3C49086097E03A4801683848006887
:100FB0000AF0D4FA0D9001F03FFE3849086001F0C4
:100FC0005DFE374800683749374A127841F82200F9
:100FD000194800680AF03CFC34490D900AF080FC86
:100FE0003349314A127841F822002F480078401CDA
:100FF0002D49087008465DE0AEE00000F49FDA85F8
:101000008B81A23F00010020B60000205800002084
:1010100004010020880200208A0200208C020020A7
:101020008E020020540000202400002088812242EB
:101030000000214214000020000000200AD7A33B3A
:10104000180000206F12033BD00000206400002035
:10105000600000205C000020500000204C000020B8
:101060008002002098000020D401002008E6E8F16A
:101070007B9BAE3FE4010020DC0100200C0100203E
:101080000A010020080100201C0000206F12833A92
:10109000D8000020E00000200000E03FD400002045
:1010A0009C010020D4040020A802002017B7D138EA
:1010B000F00400200078072807D100200870274896
:1010C000007810B90120254908702448007818B12B
:1010D00001F0D7FE01F010FE21480068401C0AF024
:1010E000B7FB0D901F4800680AF0B2FB1E490B9039
:1010F0000AF0F6FB0C900D990AF0BEFC14D21948C8
:1011000000680AF0A5FB18490C900AF0E9FB0D9065
:101110000AF036FB124908600E98401C0968B0EBD3
:10112000D10F01D206F0B1F910480068401C0AF056
:101130008FFB0D900B4800680AF08AFB0C490B905E
:101140000AF0CEFB0C900D990AF096FC04D20748E9
:101150000068401C05490860FFF75DBBA90200203C
:10116000240000200000002017B7D1382C000020F8
:10117000ACC5A73700BF1A4801684FF0E02082696C
:10118000174800688142F6D11648006800EB40031A
:10119000C3EBC010C2EBC000124B1B68B0FBF3F0F6
:1011A00001EB4103C3EBC11300EBC300704700B573
:1011B00085B0684606F0DDFE0B490098B0FBF1F003
:1011C0000849086005B000BD7047704700BFFEE7E2
:1011D00000BFFEE700BFFEE77047704770477047EB
:1011E000AC020020B002002040420F000CB50020ED
:1011F000019000906C48006840F480306A490860B3
:1012000000BF6948006800F4003000900198401C5D
:101210000190009818B90198B0F5A06FF1D162481B
:10122000006800F4003010B10120009001E00020BF
:1012300000900098012843D15C48006840F01000FD
:101240005A4908600846006820F003000860084614
:10125000006840F002000860534840685249486006
:101260000846406848600846406840F4806048602E
:101270000846406820F47C1048600846406840F406
:10128000E81048600846006840F08070086000BFC1
:101290004548006800F000700028F9D042484068D6
:1012A00020F00300404948600846406840F00200D2
:1012B000486000BF3C48406800F00C000828F9D1A5
:1012C0000CBD10B5FFF792FF10BD10B53648006891
:1012D00040F001003449086008464068344908403D
:1012E0003149486008460068324908402E49086084
:1012F0000846006820F4802008600846406820F412
:10130000FE0048604FF41F008860FFF7DAFF4FF0DF
:1013100000602949086010BD10B50021002000229E
:10132000214B5B6803F00C0121B1042906D0082988
:1013300028D107E0214B224C236027E01F4B204C93
:10134000236023E0184B5B6803F47010164B5B6856
:1013500003F48032022303EB904022B9194B43433C
:10136000174C23600DE0104B5B6803F4003323B18E
:10137000144B4343124C236003E0104B4343104C87
:10138000236003E00D4B0E4C236000BF00BF064BF3
:101390005B68C3F303130C4CE15C094B1B68CB4047
:1013A000074C236010BD00000010024000200240E6
:1013B0000000FFF8FFFFF6FE08ED00E000127A00E3
:1013C000B402002000093D00B802002008B5012148
:1013D000242006F03BFE4FF48070ADF80000102092
:1013E0008DF8030003208DF802006946094806F0D5
:1013F00071FB4FF48071074806F019FC0420ADF82A
:1014000000006946044806F065FB0421024806F026
:101410000EFC08BD000801400014014002468A424B
:1014200001DD084670471046FCE703469A4203DA9E
:101430008B4201DA18467047994201DC0846FAE708
:101440001046F8E730B5B0F5FA6F01DD4FF4FA60F9
:10145000B1F5FA6F01DD4FF4FA61B2F5FA6F01DD13
:101460004FF4FA62B3F5FA6F01DD4FF4FA63B0F5A9
:101470007A7F01DA4FF47A70B1F57A7F01DA4FF4AE
:101480007A71B2F57A7F01DA4FF47A72B3F57A7F26
:1014900001DA4FF47A73FE4D28802D1D29802D1D11
:1014A0002A802D1D2B8030BD70B5044640F2F461BA
:1014B0002046FFF7B3FF05466FF031023221F548B1
:1014C000B0F90000FFF7B1FF0544F34A5142F34879
:1014D000B0F90000FFF7A9FF05446FF01D021E21BF
:1014E000EF48B0F90000FFF7A0FF2E18ED480068A4
:1014F0000AF02AF905B26FF00E020F212846FFF715
:1015000094FF0644E84800680AF01EF905B26FF03F
:101510000E020F212846FFF788FF304400B2E3494E
:10152000088040F2F4612046FFF778FF05466FF02F
:1015300031023221DE48B0F90000FFF776FF0544A2
:10154000D54A5142DB48B0F90000FFF76EFF054471
:101550006FF01D021E21D848B0F90000FFF765FFAB
:101560002E18D04800680AF0EFF805B26FF00E02AE
:101570000F212846FFF759FF0644CB4800680AF0C0
:10158000E3F805B26FF00E020F212846FFF74DFF7A
:10159000304400B2C949088040F2F4612046FFF7A8
:1015A0003DFF05466FF031023221C548B0F9000019
:1015B000FFF73BFF0544B84A5142C248B0F900006A
:1015C000FFF733FF05446FF01D021E21BE48B0F93E
:1015D0000000FFF72AFF2E18B24800680AF0B4F89E
:1015E00005B26FF00E020F212846FFF71EFF0644DA
:1015F000AD4800680AF0A8F805B26FF00E020F219E
:101600002846FFF712FF304400B2B049088040F28C
:10161000F4612046FFF702FF05466FF031023221E8
:10162000AB48B0F90000FFF700FF05449A4A514269
:10163000A848B0F90000FFF7F8FE05446FF01D025E
:101640001E21A548B0F90000FFF7EFFE2E189548BF
:1016500000680AF079F805B26FF00E020F212846F3
:10166000FFF7E3FE0644904800680AF06DF805B203
:101670006FF00E020F212846FFF7D7FE304400B26C
:10168000964908800846B0F900309048B0F900202B
:101690008A48B0F900108548B0F90000FFF7D2FE83
:1016A00070BD2DE9F0478E4801688E4800680AF049
:1016B00017F906468C4801688C4800680AF010F952
:1016C00080468B4801688B4800680AF009F9074694
:1016D000414609F0CFFE0546314609F0CBFE0446EF
:1016E0000AF032F800B26B4908807D4801687D48F5
:1016F00000680AF0F5F880467B4801687B4800687E
:101700000AF0EEF881467B48006880F00047784890
:10171000016838460AF0E4F8064649460AF018FA25
:101720000546414609F0A6FE04460AF00DF800B24F
:101730005F4908806A4801686A4800680AF0D0F882
:10174000804669480168694800680AF0C9F881461E
:101750006848006880F000476548016838460AF02C
:10176000BFF80646494609F085FE054641460AF09F
:10177000EFF9044609F0E8FF00B2514908805848E3
:101780000168584800680AF0ABF8064656480168F8
:10179000564800680AF0A4F80746554801685548BD
:1017A00000680AF09DF8804639460AF0D1F90546EE
:1017B00031460AF0CDF9044609F0C6FF00B24449AB
:1017C0000880BDE8F0872DE9F0474B48B0F90000EC
:1017D00009F0F6FF07464948016838460AF080F8E4
:1017E00005464748B0F9000009F0EAFF8146454840
:1017F000016848460AF074F807464348B0F900000B
:1018000009F0DEFF81464148016848460AF068F861
:101810008046394609F02EFE0646294609F02AFE82
:10182000044609F091FF00B21C4908803248B0F923
:10183000000009F0C5FF07463048016838460AF045
:101840004FF805462E48B0F9000009F0B9FF81466F
:101850002C48016848460AF043F807462A48B0F980
:101860000000404209F0ACFF814628480168484624
:101870000AF036F8804639460AF06AF906462946E3
:1018800009F0F8FD044609F05FFF00B209493FE0A6
:1018900034040040B8000020D4FEFFFFC000002048
:1018A000C80000208402002080020020880200205E
:1018B000BA000020C2000020CA0000208A020020D6
:1018C000BC000020C4000020CC0000208C020020BE
:1018D000BE000020C6000020CE0000208E020020A6
:1018E000E4020020F8000020E0020020F4000020C4
:1018F000DC020020F00000200C010020FC0200208F
:101900000A010020F802002008010020F402002053
:101910000880FE48B0F9000009F052FF0746FC4875
:101920000168384609F0DCFF0546FA48B0F90000C6
:1019300009F046FF8146F8480168484609F0D0FFA3
:101940000746F648B0F90000404209F039FF8146E9
:10195000F3480168484609F0C3FF8046394609F05C
:1019600089FD064629460AF0F3F8044609F0ECFE24
:1019700000B2EC490880E548B0F9000009F020FF0A
:101980000746E3480168384609F0AAFF0446E148E3
:10199000B0F9000009F014FF8146DF4801684846AD
:1019A00009F09EFF0746DD48B0F9000009F008FF86
:1019B0008146DB480168484609F092FF8046394677
:1019C0000AF0C6F8064621460AF0C2F8054609F0B4
:1019D000BBFE00B2D4490880BDE8F0872DE9F04194
:1019E000D249B1F900104942D14AB2F9002011445C
:1019F000CC4AB2F90020891ACB4AB2F9002011442E
:101A0000CC4AB2F90020891ACB4AB2F9002011441D
:101A1000CA4AB2F90020891AC94AB2F900208818C6
:101A200009F0CEFE0746C7480168384609F058FF5E
:101A30000546BE49B1F900104942BD4AB2F900203D
:101A40001144B84AB2F900201144B74AB2F9002053
:101A5000891AB84AB2F90020891AB74AB2F90020A7
:101A60001144B64AB2F900201144B54AB2F9002037
:101A7000881A09F0A5FE0746B3480168384609F000
:101A80002FFF0646294609F0F5FC044609F05CFEE6
:101A900000B2AE490880A549B1F900104942A44AF4
:101AA000B2F9002011449F4AB2F90020891A9E4AD7
:101AB000B2F9002011449F4AB2F90020891A9E4AC7
:101AC000B2F9002011449D4AB2F90020891A9C4ABB
:101AD000B2F90020881809F073FE0746994801689A
:101AE000384609F0FDFE05469049B1F9001049421B
:101AF0008F4AB2F9002011448A4AB2F900201144F9
:101B0000894AB2F90020891A8A4AB2F90020891A52
:101B1000894AB2F900201144884AB2F900201144E0
:101B2000874AB2F90020501A09F04AFE0746864853
:101B30000168384609F0D4FE064629460AF008F83E
:101B4000044609F001FE00B2814908807749B1F9E5
:101B500000104942764AB2F900201144714AB2F9A4
:101B60000020891A704AB2F900201144714AB2F972
:101B70000020891A704AB2F9002011446F4AB2F964
:101B80000020891A6E4AB2F90020881809F018FE60
:101B900007466C480168384609F0A2FE05466349CD
:101BA000B1F900104942624AB2F9002011445D4A7D
:101BB000B2F9002011445C4AB2F90020891A5D4A4A
:101BC000B2F90020891A5C4AB2F9002011445B4A3C
:101BD000B2F9002011445A4AB2F90020501A09F013
:101BE000EFFD074658480168384609F079FE064679
:101BF000294609F03FFC044609F0A6FD00B255490C
:101C000008804A49B1F900104942494AB2F9002016
:101C10001144444AB2F90020891A434AB2F900201B
:101C20001144444AB2F90020891A434AB2F900200B
:101C30001144424AB2F90020891A414AB2F90020FF
:101C4000881809F0BDFD07463E480168384609F08E
:101C500047FE05463549B1F900104942344AB2F908
:101C6000002011442F4AB2F9002011442E4AB2F943
:101C70000020891A2F4AB2F90020891A2E4AB2F997
:101C8000002011442D4AB2F9002011442C4AB2F927
:101C90000020881A09F094FD07462B480168384651
:101CA00009F01EFE0646294609F052FF044609F0D7
:101CB0004BFD00B228490880BDE8F0812DE9F041D4
:101CC0000025002600272549B1F90010244AB2F961
:101CD0000020881A09F074FD2249234A127841F83D
:101CE00022001E49B1F902101D4AB2F90220881AD9
:101CF00009F066FD1D491C4A127841F82200174977
:101D0000B1F90410164AB2F9042031E00C010020A8
:101D1000FC0200200A010020F80200200801002037
:101D2000F4020020C4000020C6000020C0000020F3
:101D3000C2000020B8000020BA000020BC00002033
:101D4000BE000020100300200C030020C80000206B
:101D5000CA000020CC000020CE000020740000202B
:101D6000820000200C050020200300202405002014
:101D7000881A09F025FDFE49FE4A127841F8220032
:101D8000002416E0FC4850F82410284609F072FBA5
:101D90000546FA4850F82410304609F06BFB064619
:101DA000F34850F82410384609F064FB0746601CDD
:101DB000C4B2062CE6DBF249284609F0CFFB804688
:101DC00009F0C2FC00B2EF490880ED49304609F045
:101DD000C5FB804609F0B8FC00B2EB490880E84931
:101DE000384609F0BBFB804609F0AEFC00B2E7497B
:101DF0000880E0480078401CDE49087008460078FA
:101E0000062801D100200870BDE8F08170B50025DA
:101E1000DF49B1F90010DF4AB2F90020881A09F051
:101E2000CFFCDD49DD4A127841F82200002408E0A9
:101E3000D94850F82410284609F01CFB0546601CC0
:101E4000C4B2062CF4DBCE49284609F087FB0646CF
:101E500009F07AFC00B2D2490880D0480078401CD2
:101E6000CE49087008460078062801D10020087085
:101E700070BD70B50025CB480068CB49CB4A1278BD
:101E800041F82200002408E0C74850F824102846F2
:101E900009F0F0FA0546601CC4B2012CF4DB4FF0E7
:101EA0007E51284609F05AFBC1490860BF480078B6
:101EB000401CBE49087008460078012801D1002066
:101EC000087070BD2DE9F04F89B083468A465046B0
:101ED00009F0A4FA8046B74AB74B08F0C5FF02469E
:101EE0000B46CDE900010020B44908F0CFFD0646BD
:101EF0000F46584609F092FA32463B46CDE90201B8
:101F000008F008FDCDE90601584609F087FACDE949
:101F10000401DDE9062308F0B9FD044608F0C8FC19
:101F2000A749086009B0BDE8F08F2DE9F041984954
:101F3000B1F900109A4AB2F90020881A09F040FC61
:101F400007469F480168384609F0CAFC0546944890
:101F5000B0F9000009F034FC0646294609F08AFA77
:101F6000044609F0F1FB00B28D490880BDE8F0811C
:101F700070B5944800689449086094480168944892
:101F8000006809F077FA9249086092480168904821
:101F9000006809F06FFA044621468D48006809F090
:101FA000DDFA8D4908607A48B0F9000009F008FCB4
:101FB000064685480168304609F0CAFD0546864850
:101FC0000168284609F08CFC04467F4801682046D9
:101FD00009F050FA7B4908607F4801684FF07E5055
:101FE00009F0B6FD04467A480168204609F078FCFD
:101FF0007749086070BD70B5784800687849086016
:10200000784801687848006809F034FA7649086031
:10201000764801687448006809F02CFA04462146A5
:102020007148006809F09AFA714908607148B0F97E
:10203000000009F0C5FB064669480168304609F012
:1020400087FD05466A480168284609F049FC0446B0
:1020500063480168204609F00DFA60490860644849
:1020600001684FF07E5009F073FD04465E48016838
:10207000204609F035FC5C49086070BD70B55E48CB
:1020800000685E4908605E4801685E48006809F0C3
:10209000F1F95C4908605C4801685A48006809F039
:1020A000E9F9044621465748006809F057FA5749AC
:1020B00008605748B0F9000009F082FB06464F4817
:1020C0000168304609F044FD05465048016828463D
:1020D00009F006FC044649480168204609F0CAF99F
:1020E00045490860494801684FF07E5009F030FDCD
:1020F000044644480168204609F0F2FB4149086063
:1021000070BD70B54348006809F088F904460022A4
:10211000414B08F06DFE15D24048006809F07EF989
:10212000044600223C4B08F063FE0BD23C4800689A
:1021300080F000443B480168204609F0D1FB3A4951
:10214000086002E000203849086070BD2DE9FE4FAC
:1021500036490988A1F57A7009F032FB02902F48C0
:10216000006809F05BF90746314A324B64E0000031
:102170003C050020200300200C0500202405002041
:102180000000C040080100200A0100200C010020CE
:102190006C0000209800002054050020210300203E
:1021A0000E010020D000002024030020280300207E
:1021B000D400002097D17E5AFB2119400000F03F47
:1021C00010010020D0010020D4010020C80100200F
:1021D000D8010020C4010020CC0100201002002002
:1021E000140200200802002018020020040200202F
:1021F0000C0200206A00002030020020340200207F
:102200002802002038020020240200202C02002096
:1022100068000020FC0000200000E03F00010020DA
:102220001C030020DC01002080020020540000205C
:102230005F40D42247DF913F08F016FE054608F0C4
:1022400037FB834608F0D0F800904348006809F057
:10225000E5F80746414A424B08F006FE054608F0FD
:1022600027FB834608F0C0F80446009909F038FBC4
:1022700081463C490988A1F57A7009F0A1FA4946DE
:10228000019009F06BF98246029909F061FC364928
:102290000860BDE8FE8F2DE9F041002400BF56E044
:1022A000324850F82400324941F82400314A52F8AB
:1022B0002410314A52F8240009F0DCF82E4941F884
:1022C00024002E4A52F824102B4A52F8240009F018
:1022D000D1F80546284951F82400294609F03EF96D
:1022E000274941F82400274931F91410264A32F9C8
:1022F0001420881A09F064FA07461D4850F8241083
:10230000384609F025FC06461D4850F82410304692
:1023100009F0E6FA0546164850F82410284609F058
:10232000A9F8124941F82400154850F824104FF03C
:102330007E5009F00DFC05460F4850F82410284641
:1023400009F0CEFA0C4941F82400601CC4B2032CF9
:10235000A6DBBDE8F0810000FC0000205F40D42235
:1023600047DF913F540000208402002094040020A5
:10237000A004002068020020740200205C020020FB
:102380008804002074000020820000207FB50546EC
:102390000C460121082005F066FEADF80850ADF8A6
:1023A00004400020ADF80A00ADF8060001A9EA4893
:1023B00006F016FA01221146E74806F088FD3220A1
:1023C0008DF8000001208DF8010000208DF802003A
:1023D00001208DF80300684606F0A5F80121DE48CB
:1023E00006F05AFD7FBD10B50121DB4807F01DF84E
:1023F00040B10121D84807F029F8D8480068401CAE
:10240000D649086010BD30B585B005460C4601219F
:10241000042005F028FE0121082005F017FE4FF4E6
:102420007070ADF8100028208DF8130004A9CC4876
:1024300005F050FB4FF47071C94805F0FAFBADF898
:102440000850ADF804400020ADF80A00ADF80600D1
:1024500001A9C44806F0C4F90020C3490880488097
:10246000012088800020C8800881BE4806F04BFC0F
:102470000420BD4908800020488001208880002079
:10248000C8800881B74806F03EFC0820B64908809D
:1024900000204880012088800020C8800881B14841
:1024A00006F031FC0C20B049088000204880012053
:1024B00088800020C8800881AA4806F024FC1E20DD
:1024C0008DF8000000208DF801008DF80200012039
:1024D0008DF80300684606F026F801221E21A14867
:1024E00006F0F5FC01219F4806F0D6FC05B030BD92
:1024F00010B59E48007800F08000002846D10221E7
:10250000984806F092FF002840D00221954806F036
:102510009DFF9648007800F0400040B3914806F0D7
:1025200065FF9349088008460088924909888842D7
:1025300004DA4FF6FF709049086002E000208E49EF
:1025400008608B4800888B490988401A8A490968C5
:1025500008448A49086008460068894908600020E4
:102560008249087000217F4806F048FE0EE07D4851
:1025700006F03CFF7F4908807C48007840F040002E
:102580007A4908700221774806F038FE7D480078C5
:1025900000F08000002846D10421724806F045FF73
:1025A000002840D004216F4806F050FF754800789D
:1025B00000F0400040B36B4806F01BFF72490880F2
:1025C0000846008871490988884204DA4FF6FF708E
:1025D0006F49086002E000206D4908606A48008881
:1025E0006A490988401A6A490968084469490860C3
:1025F00008460068684908600020624908700021A8
:10260000584806F00DFE0EE0564806F0F2FE5F490F
:1026100008805C48007840F040005A490870022168
:10262000504806F0FDFD5D48007800F0800000286D
:1026300045D108214B4806F0F8FE80B308214948EF
:1026400006F004FF5548007800F0400040B34548CC
:1026500006F0D2FE52490880084600885149098890
:10266000884204DA4FF6FF704F49086002E000200C
:102670004D4908604A4800884A490988401A4A4931
:1026800009680844494908600846006848490860E4
:102690000020424908700021324806F0DBFD0EE0C0
:1026A000304806F0A9FE3F4908803C48007840F0D9
:1026B00040003A49087002212A4806F0CBFD3D4807
:1026C000007800F08000A8BB1021264806F0ADFE7F
:1026D00080B31021234806F0B9FE3648007800F098
:1026E000400040B31F4806F08AFE33490880084680
:1026F000008832490988884204DA4FF6FF70304971
:10270000086002E000202E4908602B4800882B4911
:102710000988401A2A49096808442A490860084675
:1027200000682949086000202249087000210D48EE
:1027300006F0AAFD0EE00B4806F061FE1F49088076
:102740001C48007840F040001A49087002210548F2
:1027500006F09AFD10BD0000000C004000000020B3
:10276000000C0140000800406C0500202C030020F4
:10277000300300202E0300205403002044030020D7
:102780004C000020320300203603002034030020D8
:102790005803002048030020500000203803002088
:1027A0003C0300203A0300205C0300204C0300207F
:1027B000540000203E03002042030020400300207C
:1027C00060030020500300205800002070B505462B
:1027D0000C4645F2555005F00FFF284605F00FFF57
:1027E000204605F00FFF05F010FF05F013FF70BD48
:1027F00010B505F00AFF10BD08B500208DF80000E7
:1028000002208DF8010003208DF80200684605F0D3
:102810008AFE08BD70B506460C4615460121C80261
:1028200005F021FC284606F020FE204606F026FE94
:10283000304606F03EFE06F047FEFFF7DDFF06F0ED
:102840002EFE70BD10B50446204606F032FE10BDC7
:1028500010B57F2006F027FE06F036FE10BD000002
:1028600030B589B005460C460121022005F0FBFB7E
:102870000121112005F0EAFB0121294805F0FBF9AF
:102880004FF47070ADF8200018208DF8230003205D
:102890008DF8220008A9234805F01CF9ADF818505E
:1028A000ADF814400020ADF81A00ADF8160005A9E7
:1028B0001D4805F095FF6020ADF804000120ADF83B
:1028C00006000020ADF80A00ADF80C0001A916487A
:1028D00005F0C3FF0821144806F00EFC01A91248B8
:1028E00005F0FDFF0821104806F00FFC01A90E4875
:1028F00006F042F808210C4806F014FC01A90A4829
:1029000006F085F80821084806F015FC0121064864
:1029100006F0C2FB0121044806F0BEFA09B030BD42
:10292000000C1A00001001400004004010B500F037
:1029300025FBEE2000F0DAFB00F065FB1E2000F026
:10294000D5FB00F060FB00F03DFB10BD70B501242D
:1029500033E000F013FBEE2000F0C8FB00F053FB67
:10296000A02101EB4401C8B200F0C0FB00F04BFB1A
:1029700000F028FB052004F0B4FD00F0FFFAEF2082
:1029800000F0B4FB012004F0ACFD00F03CFB0120A2
:1029900000F0DBFB0546012004F0A3FD002000F061
:1029A000D4FB064600F00EFB052004F0BEFD46EA0F
:1029B0000520FE4921F81400641C062CC9DDFB48E3
:1029C000008808B9012070BD0020FCE738B5044636
:1029D000002500F0D3FAEE2000F088FB00F013FB96
:1029E000204600F083FB00F00EFB00F0EBFA09201C
:1029F00004F09BFD642004F074FD00F0BFFAEE20AB
:102A000000F074FB00F0FFFA002000F06FFB00F014
:102A1000FAFA00F0D7FA00F0B1FAEF2000F066FB06
:102A200000F0F1FA012000F090FB8DF80000012089
:102A300000F08BFB8DF80100002000F086FB8DF884
:102A4000020000F0BFFA9DF8000001049DF80100AB
:102A500001EB00209DF802104518284638BD10B53E
:102A60005820FFF7B3FFD2490860052004F039FD74
:102A7000CE484089CE490968A1EB0020CD490860C5
:102A8000CA488089096848434FF4FA6101EBD05085
:102A9000C949086010BD2DE9F0414820FFF796FFB5
:102AA000C6490860052004F01CFDC0488088010468
:102AB000BE480089BF4A1268504301EBD010002184
:102AC000BF4A03C2B9484088C103B848C088B94A60
:102AD0001268504301EB10200021BA4A03C2B748E4
:102AE0000068083A18CAA0FB032501FB035100FB4C
:102AF0000411500D40EAC1234815B149D1E9002124
:102B00009A1A60EB0100410441EAD230AE490860F4
:102B1000A9480068B0F5FA6F46DAA6480068404355
:102B2000C017C117A94A03C2A3480068A0F5FA60FC
:102B30004043401000EB8000C117A54A03C29E48E5
:102B40000068A0F5FA604043801000EB8000C117D8
:102B5000A04A03C2984800689F4988422FDA9648E5
:102B6000006800F2DC50C0EBC0009349096801F234
:102B7000DC514843C117964AD2E90032C01851418E
:102B8000934A03C28C48006800F2DC504043401076
:102B900000EB400101EBC000C1178E4B0CCB80183D
:102BA00059418C4A03C20AE00021884A11605160F1
:102BB0000020874A10605060864A116051607E484C
:102BC000006882490968401A7B4908607C48D0E95E
:102BD00000207F49D1E90031D21A60EB0100784929
:102BE000C1E900207748D0E900307A49D1E90021D5
:102BF0009A1A60EB01007349C1E900206F48006830
:102C0000002550C9A0FB041705FB047400FB064413
:102C1000480D40EAC4256015694C12CC6D1A60EB72
:102C20000401E80B40EA4142C913104608F0E3FDF5
:102C30006A490860BDE8F0812DE9F0470446204666
:102C400007F048FD8146664908F04AFE074607F04E
:102C500089FC06464FF07E5108F070FF054661483A
:102C60000168614808F03CFE8046294608F038FEBD
:102C70005E49086008460068BDE8F08770B55C48AA
:102C800000685C4908605C4801685C48006808F0BE
:102C9000F1FB5A4908605A4801685848006808F032
:102CA000E9FB044621465548006808F057FC5549A1
:102CB0000860504801684D48006808F049FF054623
:102CC00050480168284608F00BFE04464948016850
:102CD000204608F0CFFB464908604A4801684FF09B
:102CE0007E5008F035FF044644480168204608F04D
:102CF000F7FD4249086070BD70B54348006843491C
:102D00000860434801684348006808F0B3FB414944
:102D10000860414801683F48006808F0ABFB044682
:102D200021463C48006808F019FC3C4908603748D7
:102D300001683B48006808F00BFF0546374801680A
:102D4000284608F0CDFD044630480168204608F0CA
:102D500091FB2D490860314801684FF07E5008F022
:102D6000F7FE04462B480168204608F0B9FD2949C2
:102D7000086070BD70B52B4800682B4908602B486F
:102D800001682B48006808F075FB2949086029484C
:102D900001682748006808F06DFB04462146244876
:102DA000006808F0DBFB2449086047E000040020CD
:102DB0002401002028010020DC0000202001002048
:102DC000180100203801002040010020500100209F
:102DD000600100206801002024FAFFFFD8000020D5
:102DE00041D3423E740100207B627046D000002037
:102DF000980100209C01002090010020A0010020EB
:102E00008C01002094010020B0010020B4010020BA
:102E1000A8010020B8010020A4010020AC0100207E
:102E2000E40100205002002054020020480200204B
:102E300058020020440200204C020020384801685B
:102E40003848006808F084FE05463748016828467F
:102E500008F046FD044632480168204608F00AFBA7
:102E600032490860304801684FF07E5008F070FE2B
:102E700004462F480168204608F032FD2C490860BE
:102E800070BD2DE9F05F2B4A5168106808F060FEB4
:102E90008046294A5168106808F05AFE8146274941
:102EA00008F01EFD0746414608F058FB0546214A3A
:102EB0009168906908F04CFE82461F4A91689069BB
:102EC00008F046FE83464FF0834108F009FD814635
:102ED000514608F043FB0746164AD168506908F08E
:102EE00037FE8246144AD168506908F031FE8346A5
:102EF000134908F0F5FC8146514608F02FFB804647
:102F0000394608F0B7FA0646294608F0B3FA0446EF
:102F10004FF0745108F0E4FC0A490860BDE8F09FE6
:102F200054020020D80000204C0200205002002053
:102F300058020020F0040020D40400200000C0400B
:102F400000002041E401002008B50121042005F023
:102F50007DF84FF4C050ADF8000010208DF803004C
:102F600003208DF802006946914804F0B3FD01206A
:102F7000904908609049C1F8AC0108BD10B58C4873
:102F8000001D006820F470408949091D086008464A
:102F9000006840F44050086001208649091F08601D
:102FA0008549C1F8B001042004F09BFA0020814952
:102FB000091F0860042004F094FA00207E49C1F83B
:102FC000B00110BD10B57A48001D006820F47040B3
:102FD0007749091D08600846006840F440500860C1
:102FE0000020744908607449C1F8AC01042004F061
:102FF00078FA01206F4908606F49C1F8AC010420DC
:1030000004F06FFA10BD10B500246948001D006877
:1030100020F470406649091D08600846006840F4C5
:103020000040086001206349091F086004F059FA54
:1030300001206149C1F8B00104F053FA07E0601CB7
:10304000C4B2FA2C03DDFFF7BDFF012010BD5948C3
:10305000843800680028F2D15649086000BFF5E7BF
:1030600010B50020534908605148001D006820F445
:1030700070404F49091D08600846006840F4405000
:10308000086000204C49C1F8AC01022004F029FA84
:10309000012048490860022004F023FA0020464934
:1030A000C1F8B00110BD10B5002042490860404889
:1030B000001D006820F470403D49091D0860084665
:1030C000006840F44050086001203B49C1F8AC0161
:1030D000022004F006FA012036490860022004F0BC
:1030E00000FA00203449C1F8B00110BD70B50446A3
:1030F0002F48001D006820F470402D49091D08600C
:103100000846006840F440500860002029490860E3
:10311000002517E0E0092749091F08606006040E32
:10312000022004F0DEF901202349C1F8B001022099
:1031300004F0D7F900201F490860022004F0D1F9FB
:10314000681CC5B2082DE5DB70BD70B505460024CE
:103150001748001D006820F470401549091D0860DB
:103160000846006840F400400860002616E0002091
:1031700010490860022004F0B4F901200E49C1F89A
:10318000B0016006040E0B488438006808B1601C6A
:10319000C4B2012004F0A5F9701CC6B2082EE6DB0B
:1031A00015B9FFF780FF01E0FFF75AFF204670BD19
:1031B00000080140B00121420000214270B50546DF
:1031C0000C4600F0CDF9D02000F074FA00F005FABA
:1031D00018B100F0E3F9012070BD284600F06AFA4A
:1031E00000F0FBF9204600F065FA00F0F6F918B19E
:1031F00000F0D4F90120EFE700F0D0F90020EBE770
:1032000070B504460025BC2C01DB012510E0622CC2
:1032100001DB02250CE02A2C01DB032508E0142C3D
:1032200001DB042504E00A2C01DB052500E006256E
:1032300029461A20FFF7C2FF70BD70B50446B4F5E9
:103240007A7F01DD4FF47A74042C00DA04244FF401
:103250007A7090FBF4F0401EC5B229461920FFF7A2
:10326000ADFF0546264604EBD671C1F34F00FFF7CC
:10327000C7FF70BD70B5044600F072F9D02000F0B1
:1032800019FA00F0AAF9204600F014FA00F0A5F9A6
:1032900000F066F9D12000F00DFA00F09EF9002050
:1032A00000F031FA054600F079F9284670BD10B5F6
:1032B0000446E006010E1C20FFF780FF10BD10B58C
:1032C0000446E006010E1B20FFF778FF10BD10B585
:1032D00000F02DF980216B20FFF770FF642004F0CF
:1032E00024F900216B20FFF769FF0320FFF7E7FFB8
:1032F0000020FFF7DCFF3220FFF79FFF002138207E
:10330000FFF75CFF00216A20FFF758FF0021232010
:10331000FFF754FF80213720FFF750FF7520FFF79C
:10332000A9FF0446682C0BD101216B20FFF746FF53
:1033300000216C20FFF742FF3220FFF77EFF01E003
:10334000012010BD0020FCE72DE9F04106460F46A4
:1033500014461D4600F004F9002141EA4601C8B2B6
:1033600000F0A8F900F039F920B100F017F90120B8
:10337000BDE8F081384600F09DF900F02EF900F02C
:10338000EFF8012101EB4601C8B200F093F900F01B
:1033900024F90DE0012C04D1002000F0B4F92870CC
:1033A00003E0012000F0AFF92870601EC4B26D1C6C
:1033B000002CEFD100F0F2F80020D9E72DE9F84F0A
:1033C0006B46022241216820FFF7BEFF9DF80100F5
:1033D0009DF8001040EA01200FFA80FA504607F0ED
:1033E000DCFC804600224B4B07F050FB06464A4A65
:1033F0004A4B07F08FFA044607F05AFA83464849C9
:10340000584608F06DFA044608F09EF900B2BDE88F
:10341000F88F2DE9FC4104460D4616466B46062200
:1034200043216820FFF790FF0746BFB99DF80100D0
:103430009DF8001040EA012000B220809DF80300B2
:103440009DF8021040EA012000B228809DF8050096
:103450009DF8041040EA012000B230803846BDE8F3
:10346000FC812DE9FC4104460D4616466B460622BA
:103470003B216820FFF768FF0746BFB99DF80100B0
:103480009DF8001040EA012000B220809DF8030062
:103490009DF8021040EA012000B228809DF8050046
:1034A0009DF8041040EA012000B230803846BDE8A3
:1034B000FC812DE9F04105460E461746984600F07E
:1034C0004FF8002141EA4501C8B200F0F3F800F0DE
:1034D00084F820B100F062F80120BDE8F0813046A8
:1034E00000F0E8F800F079F800240CE018F8040087
:1034F00000F0E0F800F071F818B100F04FF801208A
:10350000EBE7601CC4B2BC42F0DB00F047F80020DF
:10351000E3E7000000407540A4703D0AD7434240F5
:103520000000C84210B5022003F0DBFF10BD08B553
:103530000121102004F08AFD4FF4C050ADF80000C6
:1035400010208DF8030003208DF80200694686489C
:1035500004F0C0FA4FF4C051834804F068FB08BD82
:1035600010B58148406820F470407F4948600846A3
:10357000406840F44050486001207C4908607C4924
:10358000C1F8B001FFF7CEFF002078490860FFF7CF
:10359000C9FF00207649C1F8B00110BD10B57248CE
:1035A000406820F47040704948600846406840F424
:1035B0004050486000206D49091D08606C49C1F801
:1035C000AC01FFF7AFFF01206849091D0860684999
:1035D000C1F8AC01FFF7A6FF10BD10B5002462488A
:1035E000406820F47040604948600846406840F4F4
:1035F0000040486001205D490860FFF793FF01200B
:103600005B49C1F8B001FFF78DFF07E0601CC4B251
:10361000FA2C03DDFFF7C2FF012010BD53488038AC
:1036200000680028F2D15149091D086000BFF4E785
:1036300010B500204D49091D08604B48406820F432
:103640007040494948600846406840F4405048602E
:1036500000204749C1F8AC01FFF764FF012043494E
:10366000091D0860FFF75EFF00204149C1F8B00165
:1036700010BD10B500203D49091D08603A4840685A
:1036800020F47040384948600846406840F4405093
:10369000486001203649C1F8AC01FFF743FF012023
:1036A0003249091D0860FFF73DFF00203049C1F88D
:1036B000B00110BD70B504462B48406820F470403E
:1036C000294948600846406840F44050486000205E
:1036D0002649091D0860002512E0E0092349086019
:1036E0006006040E01202249C1F8B001FFF71AFF5D
:1036F00000201E49091D0860FFF714FF681CC5B2B1
:10370000082DEADB70BD70B50546002416484068F8
:1037100020F47040144948600846406840F4004076
:103720004860002615E000201049091D0860FFF7D9
:10373000F9FE01200E49C1F8B0016006040E0B48E5
:103740008038006808B1601CC4B2FFF7EBFE701C43
:10375000C6B2082EE7DB15B9FFF78BFF01E0FFF7D4
:1037600067FF204670BD000000100140AC012242FE
:103770000000224238B50446F74890F82400C0B152
:1037800014B10220009001E000200090F24A12687B
:10379000D17BF14A526810786B460122FFF789FE0F
:1037A00010B14FF0FF3038BD9DF80010EA48417469
:1037B00023E0E948807A10B94FF0FF30F3E724B1F5
:1037C000E548407C08B10020EDE714B101200090ED
:1037D00001E000200090E04A1268D17BDE4A526886
:1037E00010786B460122FFF764FE10B14FF0FF30F6
:1037F000D9E79DF80010D84841740020D3E738B5C8
:1038000000241FE0D4480068C07AA04204D0D24807
:103810000068407DA04200D112E0CF494968087895
:103820006B4601222146FFF78FFD10B14FF0FF30AC
:1038300038BD9DF800202146C8A005F075FE00BFE8
:10384000601CC4B2C44840680079A042DADC0020A1
:10385000EEE770B504460D46BF480068C07AA04246
:1038600004D0BD480068407DA04202D14FF0FF3037
:1038700070BDB94840680079A04202DC4FF0FF30CB
:10388000F6E7B549496808782B4601222146FFF73B
:103890005BFDEDE738B50446AF4890F82300A04241
:1038A00001D1002038BD14B13020009001E000208B
:1038B0000090A948807C20B19DF8000040F00200F3
:1038C0000090A54890F8220020B19DF8000040F03B
:1038D00080000090A04A1268117D9F4A52681078BB
:1038E0006B460122FFF7E5FD10B14FF0FF30D9E73D
:1038F000994880F823400020D4E738B5044604F006
:10390000700010B10120009005E014B1002000907B
:1039100001E040200090904A1268917C8E4A5268E3
:1039200010786B460122FFF7C4FD20B100218A48C0
:103930008172481E38BD9DF8000020F04001864885
:1039400001730020009004F0400020B99DF80000B1
:1039500040F00400009004F0200020B99DF8000021
:1039600040F00200009004F0100020B99DF8000023
:1039700040F00100009004F0080020B99DF800001C
:1039800040F038000090744A1268D17C724A526844
:1039900010786B460122FFF78CFD20B100216E48A4
:1039A0008172481EC6E724B1082C02D00020FFF720
:1039B00071FF6948847200210175322003F0B5FD62
:1039C0000020B7E738B504466348807CA04201D1A7
:1039D000002038BD002C46D05F4A126811795E4A3B
:1039E000526810786B460122FFF7AEFC10B14FF021
:1039F000FF30EEE79DF8000020F020000090564ACE
:103A000012681179544A526810786B460122FFF708
:103A100050FD10B14FF0FF30DBE7032003F085FDD0
:103A2000022000904C4890F8220020B19DF8000040
:103A300040F080000090484890F8230020B19DF8A5
:103A4000000040F030000090434A1268117D424A65
:103A5000526810786B460122FFF72BFD002851D0E9
:103A60004FF0FF30B5E73C4A126811793A4A526884
:103A700010786B460122FFF767FC10B14FF0FF3062
:103A8000A7E73548807A00F0010028B19DF80000D2
:103A900040F02000009004E09DF8000020F020009D
:103AA00000902D4A126811792B4A526810786B46A3
:103AB0000122FFF7FEFC10B14FF0FF3089E7032031
:103AC00003F033FD244890F8220010B180200090CC
:103AD00001E000200090204890F8230020B19DF8DC
:103AE000000040F0300000901B4A1268117D1A4A15
:103AF000526810786B460122FFF7DBFC10B14FF0E3
:103B0000FF3066E714488474002062E708B5124865
:103B1000807A10B94FF0FF3008BD002000900E4AA7
:103B20001268D17B0C4A526810786B460122FFF76D
:103B3000C0FC10B14FF0FF30EEE7074A1268517930
:103B4000054A526810786B460122FFF7B2FC68B153
:103B50004FF0FF30E0E700006403002025233578B4
:103B60003A20252335780D0A00000000FB4A126830
:103B70001179FA4A526810786B460122FFF799FCD6
:103B800010B14FF0FF30C7E7F44890F82400002848
:103B900050D00C200090F14A12681179EF4A526817
:103BA00010786B460122FFF784FC10B14FF0FF3014
:103BB000B2E7C0200090E948807A00F0010020B10F
:103BC0009DF8000040F020000090E44A126811794E
:103BD000E24A526810786B460122FFF76AFC10B186
:103BE0004FF0FF3098E7DD48407C10B10220009094
:103BF00001E000200090D94A1268D17BD74A526870
:103C000010786B460122FFF754FC10B14FF0FF30E3
:103C100082E700200090D14A12685179CF4A526859
:103C200010786B460122FFF744FC002855D04FF076
:103C3000FF3071E704200090C84A12681179C74A22
:103C4000526810786B460122FFF733FC10B14FF039
:103C5000FF3061E7C148807C20B9C048807A00F01D
:103C6000010010B94020009001E060200090BB4AA4
:103C700012681179B94A526810786B460122FFF731
:103C800018FC10B14FF0FF3046E7322003F04DFC36
:103C9000B248407C10B10120009001E0002000906B
:103CA000AE4A1268D17BAD4A526810786B46012249
:103CB000FFF7FFFB10B14FF0FF302DE7A74A126866
:103CC0005179A64A52681078A44B10330122FFF7AD
:103CD000F0FB10B14FF0FF301EE700201CE770B57D
:103CE0000446002624F001049C4890F8240008B102
:103CF000002070BD9948807A10B94FF0FF30F8E786
:103D00009648057C807A2040944908740846007CD7
:103D1000A04202D04FF0FF3600E0002614B98F48D1
:103D2000007D18B10120FFF725FD02E00020FFF71C
:103D300021FD3CB1FFF7EAFE20B1884805744FF041
:103D4000FF30D6E73046D4E738B504468348807A5A
:103D500010B94FF0FF3038BDBC2C02DB01200090C1
:103D600015E0622C02DB0220009010E02A2C02DB1E
:103D7000032000900BE0142C02DB0420009006E0EE
:103D80000A2C02DB0520009001E006200090734819
:103D9000C07A9DF80010884201D10020DBE76F4A0D
:103DA000126891786D4A526810786B460122FFF7CD
:103DB00080FB10B14FF0FF30CDE79DF80010674851
:103DC000C1720020C7E738B50446282C02DD4FF049
:103DD000FF3038BDDCB90020FFF75CFD00208DF816
:103DE000000007208DF801005C4A1268917C5B4A54
:103DF000526810786B460222FFF75BFB10B14FF060
:103E0000FF30E6E70021554801750020E1E7012079
:103E1000FFF740FD20208DF80000012C06D1002086
:103E20008DF801000520FFF78FFF17E0052C06DC59
:103E300001208DF801000520FFF786FF0EE0142C0D
:103E400006DC02208DF801000A20FFF77DFF05E067
:103E500003208DF801001420FFF776FF9DF8010084
:103E6000072101EB8010C0B28DF801003B4A1268B7
:103E7000917C3A4A526810786B460222FFF719FB90
:103E800010B14FF0FF30A4E70821344881720021BF
:103E90000173012101750020FFF721FF002098E741
:103EA00038B504462D48807A10B94FF0FF3038BD40
:103EB0002A4890F8240010B14FF0FF30F7E7274868
:103EC000007D50B134B1282C04DCE0B2FFF77BFF59
:103ED0000020ECE70020FFF776FF042C01DA042431
:103EE00004E0B4F57A7F01DD4FF47A744FF47A7010
:103EF00090FBF4F0401EC0B20090184A126851784E
:103F0000164A526810786B460122FFF7D2FA10B1B8
:103F10004FF0FF30CBE79DF80000401C4FF47A7162
:103F200091FBF0F081B20D48C1810146C98948106A
:103F3000FFF70AFF0020BAE738B504460748807A41
:103F400010B94FF0FF3038BD022C09D0042C0AD034
:103F5000082C0BD0102C0FD10BE0000064030020C4
:103F6000002000900BE00820009008E01020009056
:103F700005E01820009002E04FF0FF30E3E700BFBB
:103F8000F848407A9DF80010B0EBE10F01D1002015
:103F9000D9E7F44A1268D179F24A526810786B4630
:103FA0000122FFF786FA10B14FF0FF30CBE79DF802
:103FB0000000C110EB4841720020C4E738B5044648
:103FC000E848807A10B94FF0FF3038BDFA2C09D09C
:103FD000B4F5FA7F09D0B4F57A7F09D0B4F5FA6F59
:103FE0000CD108E0002000900BE00820009008E0D1
:103FF0001020009005E01820009002E04FF0FF3004
:10400000E3E700BFD748007A9DF80010B0EBE10F5E
:1040100001D10020D9E7D34A12689179D14A526878
:1040200010786B460122FFF744FA10B14FF0FF30D1
:10403000CBE79DF80000C010CA4908720020C4E711
:104040001CB580208DF80000C64A1268917CC54AD4
:10405000526810786B460122FFF72BFA10B14FF02F
:10406000FF301CBD642003F060FA00208DF80000D2
:10407000BC4A1268917CBB4A526810786B46012298
:10408000FFF717FA10B14FF0FF30EAE7B54A1268B0
:10409000917DB44A526810786B460622FFF754F9B6
:1040A00010B14FF0FF30DCE79DF80500C007400F6E
:1040B0009DF8031001F0010140EA41009DF8011054
:1040C00001F0010140EA010494B1012C03D1012166
:1040D000A448C17431E0022C03D10021A148C1746D
:1040E0002BE02146A0A005F01FFA4FF0FF30B8E703
:1040F0009C4A1268D1789B4A526810786B4601221C
:10410000FFF722F910B14FF0FF30AAE79DF8000049
:1041100000F00F042CB99E4805F006FA4FF0FF306E
:104120009FE7042C06D19BA005F0FEF901218D48E4
:10413000C17402E000218B48C174FF21894881725B
:10414000FF2088490872FF2186484172C1724FF6EC
:10415000FF71C181FF21017481740121017380F815
:104160002210002180F8231041750175163001607E
:1041700041608160163880F8241080F82510C184D1
:104180004FF4FA60FFF71AFF10B14FF0FF3068E705
:104190000220FFF7D1FE10B14FF0FF3061E72A2077
:1041A000FFF7D2FD10B14FF0FF305AE73220FFF792
:1041B00077FE10B14FF0FF3053E70020FFF78FFD7F
:1041C00010B14FF0FF304CE70020FFF7FBFB10B1C0
:1041D0004FF0FF3045E70020FFF78FFB002040E75E
:1041E00070477CB504460D465E48807A00F070004A
:1041F00010B94FF0FF307CBD5A4A1268117B594A02
:10420000526810786B460622FFF79EF810B14FF007
:10421000FF30F0E79DF801009DF8001040EA012012
:1042200000B220809DF803009DF8021040EA0120B2
:1042300000B260809DF805009DF8041040EA01205E
:1042400000B2A08015B12846FFF7CAFF0020D2E7D0
:104250007CB504460D464348807A00F0080010B94A
:104260004FF0FF307CBD3F4A1268517B3D4A526897
:1042700010786B460622FFF767F810B14FF0FF3059
:10428000F0E79DF801009DF8001040EA012000B21F
:1042900020809DF803009DF8021040EA012000B242
:1042A00060809DF805009DF8041040EA012000B2EE
:1042B000A08015B12846FFF793FF0020D2E72DE933
:1042C000FE4F05460C462748807A18B94FF0FF305C
:1042D000BDE8FE8F234A1268917B224A526810780B
:1042E00002AB0222FFF730F810B14FF0FF30EFE7DA
:1042F0009DF809009DF8081040EA012006B214B1AB
:104300002046FFF76DFF17494968C88807F0A0FAF3
:10431000144901904968B1F9080007F051FA834641
:10432000304607F04DFA5946009007F011FC8246DE
:10433000019907F013F981461E4907F09BF8804662
:104340004FF08F4107F0CCFA074607F0FDF92860DF
:104350000020BDE710B588B004466CBB4FF0FF30BD
:1043600008B010BD64030020556E737570706F72D5
:1043700074656420736F6674776172652070726F04
:1043800064756374207265762025642E0A0000002F
:1043900078CB000848616C662073656E7369746938
:1043A00076697479207061727420666F756E642E00
:1043B0000A00000000000C42FFE7206830B9606886
:1043C00020B9A06810B9002008B010BDFA494968AA
:1043D000087806AB03221146FEF7B6FF10B14FF086
:1043E000FF30F1E79DF81800082101EB201000F0E4
:1043F0000F00ADF800009DF8190001EB201000F04F
:104400000F00ADF802009DF81A0001EB201000F03B
:104410000F00ADF8040020684100BDF900004030F5
:1044200091FBF0F000B2ADF8100060684100BDF9FA
:104430000200403091FBF0F000B2ADF81200A0682D
:104440004100BDF90400403091FBF0F000B2ADF83E
:104450001400D9494968087806AB06221146FEF7D0
:1044600073FF10B14FF0FF30AEE79DF819009DF8D3
:10447000181040EA012000B2ADF808009DF81B00BA
:104480009DF81A1040EA012000B2ADF80A009DF82C
:104490001D009DF81C1040EA012000B2ADF80C0090
:1044A000BDF81000BDF80810084400B2ADF81000C7
:1044B000BDF81200BDF80A10084400B2ADF81200B1
:1044C000BDF81400BDF80C10084400B2ADF814009B
:1044D000BDF81000000A8DF81800BDF81000C0B239
:1044E0008DF81900BDF81200000A8DF81A00BDF809
:1044F0001200C0B28DF81B00BDF81400000A8DF840
:104500001C00BDF81400C0B28DF81D00AA4949680E
:10451000087806AB06221146FEF7CBFF10B14FF02C
:10452000FF3051E700204FE70146A348007A30B141
:10453000012807D0022809D003280FD10AE0FA2069
:1045400008800EE04FF4FA7008800AE04FF47A70A9
:10455000088006E04FF4FA60088002E0002008803E
:1045600000BF00BF0020704701469348407A30B139
:10457000012807D0022808D003280CD108E0022027
:1045800008700BE00420087008E00820087005E0BF
:104590001020087002E04FF0FF30704700BF8648DF
:1045A000C07C18B108784006000E08700020F4E7BF
:1045B00001468148C07A082817D2DFE800F01704C6
:1045C000070A0D101318BC20088013E06220088031
:1045D00010E02A2008800DE0142008800AE00A205C
:1045E000088007E00520088004E000BF00BF00202D
:1045F000088000BF00BF0020704701466E4890F859
:10460000240010B14FF0FF3070476B48C08908801C
:104610000020F9E7014600200880401E704701464F
:104620004FF0FF30704701466348007A30B10128EF
:1046300007D0022808D003280CD108E05F480860A2
:104640000BE05F48086008E05E48086005E05E48EF
:10465000086002E04FF0FF30704700BF0020FBE72A
:1046600001465548407A30B1012808D002280AD0C6
:10467000032810D10BE04FF4804008800EE041F693
:104680009C7008800AE04FF48050088006E04FF4E8
:104690000060088002E04FF0FF30704700BF4648DE
:1046A000C07C10B10888401008800020F5E7014662
:1046B0004148007C08700020704701463E48807ADF
:1046C00010B10120087001E0002008700020704740
:1046D00038B504463848807A10B94FF0FF3038BDFD
:1046E000354A1268117C344A526810786B460222AF
:1046F000FEF72AFE10B14FF0FF30F0E79DF8010001
:104700009DF8001040EA012000B220800020E6E77A
:104710002DE9FE4F0746884692461D46DDF830B02B
:1047200000260024244890F8240010B1601EBDE843
:10473000FE8F002028702048807A10B94FF0FF309B
:10474000F5E71D48007C10B94FF0FF30EFE71A483D
:10475000007C00F0400008B1B01CC6B21648007CD6
:1047600000F0200008B1B01CC6B21348007C00F075
:10477000100008B1B01CC6B20F48007C00F0080061
:1047800008B1B01DC6B20C4A1268917A0A4A526842
:1047900010786B460222FEF7D7FD10B14FF0FF30C4
:1047A000C5E79DF801009DF8001040EA0129B145D8
:1047B0000CDA0020BBE70000640300200000034384
:1047C000000083423333034233338341FC48406863
:1047D0004088B9EB600F17DDF94A1268517CF84A3E
:1047E000526810786B460122FEF7AEFD10B14FF013
:1047F000FF309CE79DF8000000F0100020B1FFF7AB
:1048000085F96FF0010092E75046FFF7E9FCEC4AAA
:104810001268D17AEA4A526810786B463246FEF73F
:1048200093FD10B14FF0FF3081E799FBF6F0401E89
:104830008BF8000000202870B4422AD0E048007CA9
:1048400000F0080028B3601C1DF800001DF80410DB
:1048500040EA012000B2A8F80000E01C1DF800109A
:10486000A01C1DF8000041EA002000B2A8F80200D8
:10487000601D1DF80010201D1DF8000041EA0020F9
:1048800000B2A8F80400287840F008002870A01DA5
:1048900084B2B44213D0CA48007C00F0400070B12A
:1048A000601C1DF800001DF8041040EA012000B251
:1048B0003880287840F040002870A01C84B2B442B0
:1048C00013D0BF48007C00F0200070B1601C1DF8C0
:1048D00000001DF8041040EA012000B2788028781A
:1048E00040F020002870A01C84B2B44213D0B44819
:1048F000007C00F0100070B1601C1DF800001DF875
:10490000041040EA012000B2B880287840F010007E
:104910002870A01C84B2002009E7F8B504460F46B1
:104920001646A74890F8240010B94FF0FF30F8BDA4
:10493000A348807A10B94FF0FF30F8E7A04A126818
:10494000917A9F4A526810786B460222FEF7FCFC6F
:1049500010B14FF0FF30EAE79DF801009DF800101C
:1049600040EA0125A54203DA00203070401EDEE750
:10497000934840684088B5EB600F17DD904A126895
:10498000517C8F4A526810786B460122FEF7DCFC9E
:1049900010B14FF0FF30CAE79DF8000000F01000A2
:1049A00020B1FFF7B3F86FF00100C0E7E2B2844B2B
:1049B0001B68D97A824B5B6818783B46FEF7C4FCCB
:1049C00010B14FF0FF30B2E795FBF4F0401E3070AD
:1049D0000020ACE701467A4880F82210002070479A
:1049E0007CB5054676494968087801AB04220D215B
:1049F000FEF7AAFC08B107207CBD9DF80700C0F3B4
:104A000001109DF8041001F0E00140EAE1008DF88A
:104A100000009DF80700C0F381009DF8051001F02B
:104A2000E00140EAE1008DF801009DF8070000F088
:104A300003009DF8061001F0E00140EAE1008DF866
:104A4000020000241CE01DF8040018B9002045F8FD
:104A5000240013E05B4845F8240006E055F82400E4
:104A6000594906F03DFF45F824001DF80400401E9A
:104A7000C0B20DF804000028F0D100BF601CC4B221
:104A8000032CE0DB0020B7E72DE9FE4F06460F467A
:104A900000256846FFF7A4FF002442E056F82400F2
:104AA00057F82410A0EB010ABAF1000F01DB5146C0
:104AB00001E0CAF10001084606F082FE83464FF08D
:104AC0008F4106F04BFD80465DF82400002106F082
:104AD00007FE16D05DF82410404606F03FFD8246E2
:104AE0004FF07E5107F034F8814629F0004A3748EC
:104AF000416A504606F0C0FF12D20120A040054393
:104B00000EE03248C169404606F0B6FE05D32F4894
:104B1000016A404606F0B0FF02D20120A0400543E2
:104B2000641C032CBADB2846BDE8FE8F2DE9FC5F30
:104B300006460F46002522494968087801AB032242
:104B40000D21FEF701FC10B10720BDE8FC9F9DF888
:104B5000040000F01F008DF804009DF8050000F02F
:104B60001F008DF805009DF8060000F01F008DF86D
:104B70000600002462E056F8240057F82410A0EB49
:104B8000010BBBF1000F01DB594601E0CBF1000145
:104B9000084606F015FE4FF08F41009006F0DEFC4F
:104BA000814601A8005DC0B30849086806F050FEC0
:104BB00083465946064806F0D1FC80460FE00000C7
:104BC000640300207B14AE3E1D5A843FA0BD000844
:104BD00000B04C45FE49404606F082FE804601A8E2
:104BE000005D401EC0B201A908550028F2D141461F
:104BF000484606F0B3FC83464FF07E5106F0A8FF0E
:104C000082462AF0004BF3488169584606F034FF8B
:104C100013D20120A04005430FE0FFE7ED480169F2
:104C2000484606F029FE05D3EA484169484606F0A1
:104C300023FF02D20120A0400543641C032C9ADB11
:104C4000284682E72DE9F04F87B005460C4691468D
:104C500001208DF8100000208DF81100DE4A126846
:104C6000917CDD4A5268107804AB0222FEF721FCE9
:104C700020B14FF0FF3007B0BDE8F08FC82002F040
:104C800054FC00208DF81000D34A1268D17BD24A20
:104C90005268107804AB0122FEF70BFC10B14FF004
:104CA000FF30E8E7CC4A12685179CB4A5268107855
:104CB00004AB0122FEF7FDFB10B14FF0FF30DAE745
:104CC000C54A1268917CC44A5268107804AB01222C
:104CD000FEF7EFFB10B14FF0FF30CCE7BE4A126891
:104CE000D17DBD4A5268107804AB0122FEF7E1FB8A
:104CF00010B14FF0FF30BEE7B74A12681179B64ADB
:104D00005268107804AB0122FEF7D3FB10B14FF0CC
:104D1000FF30B0E70C208DF81000AF4A126811790F
:104D2000AD4A5268107804AB0122FEF7C2FB10B105
:104D30004FF0FF309FE70F2002F0F7FBA648806A94
:104D4000407A8DF81000A44A12689178A24A5268FD
:104D5000107804AB0122FEF7ACFB10B14FF0FF302E
:104D600089E79D48806A007A8DF810009A4A126897
:104D70005178994A5268107804AB0122FEF799FBEA
:104D800010B14FF0FF3076E7B9F1000F07D092482D
:104D9000806A807A40F0E0008DF8100004E08E48D0
:104DA000806A807A8DF810008B4A126891798A4A5D
:104DB0005268107804AB0122FEF77BFB10B14FF074
:104DC000FF3058E7B9F1000F07D08348806AC07AF6
:104DD00040F0E0008DF8100003E07E48C07A8DF8C6
:104DE00010007D4A1268D1797B4A5268107804AB72
:104DF0000122FEF75EFB10B14FF0FF303BE7B9F147
:104E0000000F02D0C82002F090FB40208DF8100067
:104E1000714A12681179704A5268107804AB012205
:104E2000FEF747FB10B14FF0FF3024E778208DF8F4
:104E30001000694A12685179674A5268107804ABC9
:104E40000122FEF736FB10B14FF0FF3013E7614946
:104E5000888902F06AFB00208DF810005E4A126813
:104E600051795D4A5268107804AB0122FEF721FBAC
:104E700010B14FF0FF30FEE6574A1268917A564A59
:104E80005268107804AB0222FEF75EFA10B14FF0C0
:104E9000FF30F0E69DF811009DF8101040EA012B5C
:104EA0000C209BFBF0F0C6B20020A8606860286070
:104EB000A06060602060824665E0474A1268D17A4F
:104EC000454A5268107804AB0C22FEF73DFA10B147
:104ED0004FF0FF30CFE69DF811009DF8101040EA2A
:104EE000012000B2ADF808009DF813009DF81210E3
:104EF00040EA012000B2ADF80A009DF815009DF8C7
:104F0000141040EA012000B2ADF80C00BDF9081001
:104F1000206808442060BDF90A1060680844606099
:104F2000BDF90C10A0680844A0609DF817009DF81A
:104F3000161040EA012000B2ADF800009DF81900FB
:104F40009DF8181040EA012000B2ADF802009DF86B
:104F50001B009DF81A1040EA012000B2ADF80400D1
:104F6000BDF90010286808442860BDF9021068687F
:104F700008446860BDF90410A8680844A8600AF1F4
:104F8000010000F0FF0AB24597DB1248D0F800C0DC
:104F90002868C117090441EA10410704624600234A
:104FA000384604F09CFA32460023CDE9020104F0B1
:104FB00096FA28600748D0F800C06868C11709044D
:104FC00041EA1041070462460023384606E000002B
:104FD00054E3853FA0BD00086403002004F07FFA7D
:104FE00032460023CDE9020104F079FA6860FE48F8
:104FF000D0F800C0A868C117090441EA10410704AD
:1050000062460023384604F06AFA32460023CDE9AE
:10501000020104F064FAA860F348D0F804C02168E3
:10502000C817000440EA11480F04624600233846BE
:10503000414604F054FA32460023CDE9020104F05F
:105040004EFA2060E848D0F804C06068C11709042F
:1050500041EA1041070462460023384604F03FFA53
:1050600032460023CDE9020104F039FA6060DE48DF
:10507000D0F804C0A068C117090441EA1041070430
:1050800062460023384604F02AFA32460023CDE96E
:10509000020104F024FAA060A068002804DDA068E2
:1050A000A0F58030A06003E0A06800F58030A0602B
:1050B0000020E0E538B50446CC4890F82400A04232
:1050C00001D1002038BD24B3C84890F8250010B99C
:1050D0004FF0FF30F6E70020FEF74CFB0020FEF714
:1050E00071FCC249C88CFEF7DBFE00200090BF496E
:1050F000496808786B4601222321FEF7DAF901217D
:10510000BA4880F824100120FEF734FBFEF7FEFCBD
:1051100013E00020FEF72EFBB448007C0090B3495A
:10512000496808786B4601222321FEF7C2F9002165
:10513000AE4880F82410FEF7E9FC0020C2E72DE914
:10514000F04F8DB083460F4602200C90A74890F890
:10515000240020B10020FFF7ADFF012600E000266B
:1051600003A8FFF7E1F905A8FFF7FEF901A8FFF78B
:105170001FFA02A8FFF741FA9C4890F80AA004A879
:10518000FFF795FA002407E0002239465846FFF75A
:1051900059FD00B902E0641C022CF5DB00BF022CB3
:1051A00001D1002528E0002407E0012206A909A872
:1051B000FFF748FD00B902E0641C022CF5DB00BFDC
:1051C000022C01D1002517E006A93846FFF75CFC48
:1051D00000F0FF0809A95846FFF7A8FC00F0FF09F6
:1051E0000025B9F1000F01D145F00105B8F1000F1C
:1051F00001D145F0020500BFFF207C490872FF2164
:105200007A484172C1724FF6FF71C181FF218172EC
:10521000017401210173BDF80C00FEF7CFFE9DF86B
:105220001400FEF789FEBDF80400FEF78DFDBDF801
:105230000800FEF735FE5046FEF75FFB9DF81000B4
:10524000FEF74DFD16B10120FFF734FF28460DB0E3
:10525000BDE8F08FF8B504460D46164616B94FF076
:10526000FF30F8BD6148807A10B94FF0FF30F8E7A1
:1052700020128DF80000E0B28DF801009DF80100C9
:1052800028445A4949684989884202DD4FF0FF3075
:10529000E7E7564A1268117E544A526810786B4606
:1052A0000222FEF706F910B14FF0FF30D9E7EAB25B
:1052B0004E4B1B68597D4D4B5B6818783346FEF7A3
:1052C000F8F810B14FF0FF30CBE70020C9E7F8B590
:1052D00004460D46164616B94FF0FF30F8BD434858
:1052E000807A10B94FF0FF30F8E720128DF80000F7
:1052F000E0B28DF801009DF8010028443B4949685F
:105300004989884202DD4FF0FF30E7E7374A1268EB
:10531000117E364A526810786B460222FEF7C9F8B1
:1053200010B14FF0FF30D9E7EAB2304B1B68597D1E
:105330002E4B5B6818783346FEF706F810B14FF035
:10534000FF30CBE70020C9E72DE9F04385B00546E3
:105350000E4690469946254890F8250020B14FF01A
:10536000FF3005B0BDE8F08316B94FF0FF30F8E725
:10537000002423E0281B102801DD102000E0281B5A
:1053800087B2321939462046FFF764FF10B14FF05B
:10539000FF30E6E701AA39462046FFF798FF10B133
:1053A0004FF0FF30DDE730193A4601A904F0F4F977
:1053B00010B16FF00100D4E7E01984B2AC42D9DB40
:1053C0004FEA28208DF8000008F0FF008DF801005A
:1053D000064A1268917E054A526810786B4602228E
:1053E000FEF767F838B103E0A0BD000864030020B1
:1053F0004FF0FF30B5E70121FE4880F82510A0F8F6
:1054000026900020ADE70146FA4890F82400087085
:10541000002070474FF0FF30704702464FF0FF30DA
:10542000704701464FF0FF307047F8B505460F460C
:105430001446002C70D0B5F5FF5F01DDFF2605E0B6
:10544000202D01DA012601E0C5F3471607B901272F
:10545000282C02DD4FF0FF30F8BDE648407D28BB28
:10546000E44890F8240038B10020FFF723FE012122
:10547000E04880F8201003E00021DE4880F820108A
:10548000DC481630FFF750F8DA481830FFF76CF8B0
:10549000D8481A30FFF78CF8D6481C30FFF7ADF823
:1054A000D448817A81771F30FFF701F90020FEF799
:1054B00061F90020FEF787FC00208DF80000CD4A3E
:1054C00012689178CB4A526810786B460122FDF73A
:1054D000F0FF10B14FF0FF30BEE740208DF8000024
:1054E000C44A1268D17BC34A526810786B460122C5
:1054F000FDF7DFFF00B165E08DF800608DF8017009
:10550000BC4A1268117ABB4A526810786B46022274
:10551000FDF7CFFF08B155E047E0052002F005F8A0
:10552000B448407A072101EBC000C0B28DF80000FA
:10553000B04A1268D179AF4A526810786B4601229E
:10554000FDF7B7FF00B13DE020208DF80000012CF1
:1055500003D100208DF801000EE0052C03DC0120B2
:105560008DF8010008E0142C03DC02208DF8010006
:1055700002E003208DF801009DF80100072101EBF6
:105580008010C0B28DF801009A4A1268917C994A45
:10559000526810786B460222FDF78BFF00B111E0D4
:1055A000012194484175002056E7924A16320021A5
:1055B00003E0505C00B105E0491C0C29F9D34FF021
:1055C000FF3049E7FF208B490872FF21894841726B
:1055D000C1724FF6FF71C181FF21817201740121F7
:1055E00001730146887FFEF788F98249C88AFEF771
:1055F000E5FC8049087EFEF79FFC7E49488BFEF75C
:10560000A3FB7C49888BFEF74BFC7A49C87FFEF7E9
:1056100066FB784890F8200010B10120FFF74AFDA2
:10562000002174484175002016E770B588B002A9C2
:1056300005A8FFF784FD0446032C3ED101A8FEF720
:10564000F2FF059806F0BCF80646019906F048F905
:10565000054606F079F80590069806F0B1F806467A
:10566000019906F03DF9054606F06EF80690079898
:1056700006F0A6F80646019906F032F9054606F04E
:1056800063F8079005A800F054FA6846FEF7E8FFB3
:10569000BDF80010029848430290BDF8001003982E
:1056A00048430390BDF8001004984843049002A8B2
:1056B00000F0D2FA002008B070BD0120FBE70146DF
:1056C00091F90020002A01DD00201EE091F9002060
:1056D000002A01DA042018E091F90120002A01DDF6
:1056E000012012E091F90120002A01DA05200CE0E6
:1056F00091F90220002A01DD022006E091F9022042
:10570000002A01DA062000E00720704710B50446A1
:105710002046FFF7D4FF0346E01CFFF7D0FF43EA23
:10572000C00083B2A01DFFF7CAFF43EA801083B216
:10573000184610BD70B50024FDF7F9FEFEF780FC99
:10574000002840D17820FEF7D8F8C4B20CB101206F
:1057500070BD7820FEF7C3FAC4B20CB10220F7E79F
:105760006420FEF79DFBC4B20CB10320F0E700F00B
:1057700045F9C4B20CB10420EAE71F48FFF7C6FFA1
:10578000054600F045F9C4B20CB10520E0E740F24F
:10579000731000F07EFDC4B20CB10620D8E764207F
:1057A00000F0F0FAC4B20CB10720D1E7FFF73DFFDB
:1057B00004460CB10820CBE70120FFF77BFCC4B204
:1057C0001CB10920C4E70A20C2E70020C0E72DE988
:1057D000F04F99B004460D4616464FF07E574FF0F5
:1057E00000084FF000094FF0000A12A813A918ABE7
:1057F0000EAA03E06403002090030020CDE900100E
:1058000014A916A800F0A4FE18B1012019B0BDE833
:10581000F08FBDF84C0000F4807000287ED00E9808
:1058200005F0CEFF83464FF09D4105F097FE0746F9
:105830000F9805F0C5FF83464FF09D4105F08EFEA1
:105840008046109805F0BCFF83464FF09D4105F05F
:1058500085FE8146119805F0B3FF83464FF09D41C8
:1058600005F07CFE824639464FF0804006F038F85D
:105870004946059006F034F8414607904FF0404005
:1058800006F02EF85146059006F02AF80690079982
:1058900005F0F0FD834605F0C1FDCDE9080104F0F7
:1058A0009BFA4FF06632544BCDE90A0105F0DCFA61
:1058B000CDE90C0104F0FCFF206049464FF0804028
:1058C00006F00EF84946029006F00AF841460490A8
:1058D0004FF0404006F004F84146029006F000F810
:1058E0000390049906F034F983464FF07E5105F099
:1058F000C1FD059005F092FDCDE9080139464FF054
:10590000804005F0EDFF4146039005F0E9FF494670
:1059100004904FF0804005F0E3FF00E068E051465E
:10592000039005F0DDFF8346049905F0A3FD059083
:1059300005F074FDCDE90601DDE9082304F094FCCF
:105940004FF066322C4BCDE90A0105F08DFACDE916
:105950000C0104F0ADFF28605146504605F0C0FF31
:1059600049460490484605F0BBFF41460390404637
:1059700005F0B6FF39460190384605F0B1FF0090BA
:10598000019905F077FD0290039906F0E1F883464E
:10599000049906F0DDF8059005F040FDCDE9080119
:1059A0005146384605F09CFF49460490404605F0B4
:1059B00097FF0390049905F05DFD4FF0804105903D
:1059C00005F08EFF834605F029FDCDE90601DDE9EE
:1059D000082304F049FC4FF06632074BCDE90A0179
:1059E00005F042FACDE90C0104F062FF306001E0FD
:1059F00002200BE7002009E766A64C4010B5C8233B
:105A00004FF48062F74940F6F630FFF79DFC10BD79
:105A100010B586B00446F4A000680390F3A00068B7
:105A20000290F3A000680190F2A00068009004F0DA
:105A3000030003A9085C8DF8140003A8C4F3C10196
:105A4000405C8DF8150003A8C4F38111405C8DF80B
:105A5000160004F0030002A9085C8DF8100002A8EB
:105A6000C4F3C101405C8DF8110002A8C4F3811198
:105A7000405C8DF8120005AA032140F22640FFF792
:105A8000E9FB18B14FF0FF3006B010BD04AA0321A6
:105A900040F22A40FFF7DEFB10B14FF0FF30F3E792
:105AA000019805900098049004F0040058B19DF806
:105AB000140040F001008DF814009DF8100040F033
:105AC00001008DF8100004F0200058B19DF8150079
:105AD00040F001008DF815009DF8110040F0010024
