:020000040800F2
:10000000800D00206D7C00082514000827140008CE
:10001000291400082D140008311400080000000005
:10002000000000000000000000000000351400087F
:100030003714000800000000391400083B140008C1
:10004000E92A0008877C0008877C0008877C000874
:10005000877C0008877C0008877C0008877C000874
:10006000877C0008877C0008877C0008877C000864
:10007000877C0008877C0008877C0008877C000854
:10008000877C0008877C0008877C0008877C000844
:10009000877C0008877C0008877C0008877C000834
:1000A000877C0008877C0008877C0008877C000824
:1000B000877C0008877C000889270008877C000867
:1000C000877C0008877C0008877C0008877C000804
:1000D000877C0008877C0008877C0008877C0008F4
:1000E000877C0008877C0008877C0008877C0008E4
:1000F000877C0008877C0008877C0008877C0008D4
:10010000877C0008877C00087F260008877C000821
:10011000877C0008877C0008877C0008877C0008B3
:10012000877C0008877C0008877C0008877C0008A3
:1001300000F002F800F062F80AA090E8000C824497
:100140008344AAF10107DA4501D100F057F8AFF274
:10015000090EBAE80F0013F0010F18BFFB1A43F0A5
:1001600001031847FCCC00001CCD00000A444FF0EE
:10017000000C10F8013B13F0070408BF10F8014B06
:100180001D1108BF10F8015B641E05D010F8016B4B
:10019000641E01F8016BF9D113F0080F1EBF10F8AF
:1001A000014BAD1C0C1B09D16D1E58BF01F801CBD2
:1001B000FAD505E014F8016B01F8016B6D1EF9D555
:1001C0009142D6D37047000000230024002500266A
:1001D000103A28BF78C1FBD8520728BF30C148BFAA
:1001E0000B607047642909F01F83782909F0588350
:1001F000002070471FB51FBD10B510BD09F0ACFD44
:100200001146FFF7F7FF00F009F809F0CAFD03B443
:10021000FFF7F2FF03BC07F001FB0000A4B00020D1
:10022000239022902190209001201A900020199074
:10023000189000BF01F077F94FF4A06008F0BAFA07
:1002400007F082FA472144F61F6002F055FC4FF494
:10025000FA61FE4809F004FA4FF4FA61FB4809F02C
:1002600001FA4FF4FA61F94809F0FEF94FF4FA6126
:10027000F64809F0FBF941F2883007F0A2FA4FF492
:100280007A71F24809F0ECF94FF47A71EF4809F00D
:10029000E9F94FF47A71ED4809F0E6F94FF47A7113
:1002A000EA4809F0E3F940F6B83007F08AFA03F0BB
:1002B0005AF905E0C82007F084FAC82007F081FA4F
:1002C00005F084FB0028F5D14FF47A7007F079FA35
:1002D00002F086FF642007F074FA02F073FC6420D9
:1002E00007F06FFA02F07EFC4FF4967007F069FA9F
:1002F00000201B90AFE0D64AD649D74803F0D5F985
:1003000000284DD1D448B0F900000BF0A5FB1290A5
:10031000D248016812980BF0F9F913900BF0CAF962
:100320000022CF4BCDE914010AF0EAFECDE9160117
:100330000AF00AFCC9490860C648B0F900000BF091
:100340008BFB1290C748016812980BF0DFF91390ED
:100350000BF0B0F90022C24BCDE914010AF0D0FE37
:10036000CDE916010AF0F0FBBE490860B848B0F9C3
:1003700000000BF071FB1290BB48016812980BF063
:10038000C5F913900BF096F90022B54BCDE9140195
:100390000AF0B6FECDE916010AF0D6FBB2490860B4
:1003A000B24AB349B34803F0A8F900284FD1B14885
:1003B000B0F900000BF050FB1290AF4801681298A2
:1003C0000BF0A4F913900BF075F90022A44BCDE9C2
:1003D00014010AF095FECDE916010AF0B5FBA64915
:1003E0000860A348B0F900000BF036FB1290A34858
:1003F000016812980BF08AF913900BF05BF9002258
:10040000974BCDE914010AF07BFECDE916010AF005
:100410009BFB9A4908609548B0F900000BF01CFB63
:1004200012909748016812980BF070F913900BF036
:1004300041F900228A4BCDE914010AF061FECDE9B1
:1004400016010AF081FB8E49086001F098FE1B98A6
:10045000401CC0B21B901B986428FFF64CAF7F482D
:1004600000680BF0BDFA00B2864908807D4800683C
:100470000BF0B6FA00B2834948807B4800680BF065
:10048000AFFA00B27F4988807B4800680BF0A8FA79
:1004900000B27D490880794800680BF0A1FA00B2EB
:1004A0007A4908807A4800680BF09AFA00B27949D4
:1004B000088000201B9021E0642007F082F902F000
:1004C0001AFC754800680BF0C7FA1290734801686F
:1004D00012980BF01BF913900BF0ECF80022604B14
:1004E000CDE914010AF00CFECDE916010AF02CFB4F
:1004F0006A4908601B98401CC0B21B901B981428C6
:10050000DADB664800680BF06BFA6549086008465C
:1005100000680BF0A1FA11900BF0CCF80022614BAF
:10052000CDE912010AF0FEFB4FF0C0425E4BCDE96F
:1005300014010AF03BFBCDE916010AF005FB5B490B
:1005400008601A9818B15A4807F07AF905E0199826
:1005500018B14FF4E13007F073F90A2007F031F9D0
:1005600047214FF6FF7002F09AF840F2CF210920A0
:1005700002F058F80A2007F024F901F055F801209C
:100580004C49086000204C49C1F888010A2007F056
:1005900018F94A4800680BF0A7FA494916900BF081
:1005A000EBFA17900BF038FA4649086043480068A8
:1005B0000BF09AFA444916900BF0DEFA17900BF004
:1005C0002BFA424908603D4800680BF08DFA40491B
:1005D00016900BF0D1FA17900BF01EFA3D49086007
:1005E000364800680BF080FA3B4916900BF0C4FACD
:1005F00017900BF011FA39490860304800680BF089
:1006000073FA374916900BF0B7FA17900BF004FA0B
:1006100034490860294800680BF066FA32491690A0
:100620000BF0AAFA17900BF0F7F93049086023484D
:1006300000680BF059FA2E4916900BF09DFA1790AE
:100640000BF0EAF92B4908601C4855E00004004013
:100650007600002074000020720000208C00002032
:100660000000E03F90000020940000207000002077
:100670006E0000206C000020A0000020A4000020DC
:10068000A800002086000020980000209A0000208A
:10069000D00100209C000020E0000020F00000209D
:1006A000E8000020000059406612714074010020EB
:1006B00020A10700A001214200802242000000206A
:1006C000CDCCCC3D04000020CDCC4C3D080000201A
:1006D0000AD7A33C0C0000200AD7233C10000020BE
:1006E0000AD7A33B140000206F12033B1800002020
:1006F0006F12833A1C00002000680BF0F5F9FE49E8
:1007000016900BF039FA17900BF086F9FB49086048
:10071000FB4800680BF0E8F9FA4916900BF02CFA48
:1007200017900BF079F9F8490860F54800680BF06C
:10073000DBF9F64916900BF01FFA17900BF06CF9E5
:10074000F3490860EE4800680BF0CEF9F1491690C5
:100750000BF012FA17900BF05FF9EF490860E848C8
:1007600000680BF0C1F9ED4916900BF005FA1790EF
:100770000BF052F9EA490860E14800680BF0B4F95F
:10078000E84916900BF0F8F917900BF045F9E64997
:100790000860DB4800680BF0A7F9E44916900BF0FD
:1007A000EBF917900BF038F9E1490860D44800687C
:1007B0000BF09AF9DF4916900BF0DEF917900BF069
:1007C0002BF9DD490860CE4800680BF08DF9DB4954
:1007D00016900BF0D1F917900BF01EF9D84908606C
:1007E000C74800680BF080F9D64916900BF0C4F9A1
:1007F00017900BF011F9D4490860C14800680BF05C
:1008000073F9D24916900BF0B7F917900BF004F971
:10081000CF490860DAE3CF480068401C0BF064F968
:100820001790B74800680BF05FF9CB4915900BF0B3
:10083000A3F9169017990BF06BFA7CD2B0480068B8
:100840000BF052F9C44916900BF096F917900BF083
:10085000E3F8C0490860C1480068401CBF4908600F
:10086000BF4AC049C04802F048FF00287ED101F0CD
:10087000D4FB01F084FCBD480078002877D1239890
:10088000002873D0BA48006820F0004015900AF0A4
:1008900011FF0022B74BCDE916010AF0F5FB65D236
:1008A000B548006820F0004015900AF003FF0022D0
:1008B000B04BCDE916010AF0E7FBF0D2AF48006873
:1008C00020F000404FF07E5117900BF021F9E6D256
:1008D000AB48006820F000404FF07E5117900BF0BD
:1008E00017F9DCD2A7480078E8B9A748B0F90000AA
:1008F0000BF0B2F81790A548B0F900000BF0ACF877
:100900001590A348016815980BF064FA1690179992
:100910000BF0FEF907D29F480068C01C9E49086092
:100920000120984908709D48007818BB9648B0F996
:100930000000404200E0DDE00BF08EF81790934895
:10094000B0F900000BF088F81590914801681598EF
:100950000BF040FA169017990BF0DAF80AD28D488E
:100960000068C01E8E490860012001E01FE01FE002
:100970008A49087083480078002818D08748007892
:100980000028FAD00120794908708348006884491A
:100990000968884291D2804800688249086080488E
:1009A00000687D4908607F4800687D4908608DE0E7
:1009B000534800687C490968401A13900AF050FBBC
:1009C0007A4A7B4BCDE914010AF09AFBCDE9160176
:1009D0000AF0BAF877490860494800687249086027
:1009E000744800680AF066FECDE910017248B0F95B
:1009F00000000AF01EFBCDE908016448B0F90000D0
:100A00000BF02AF804905E48006809F039FE029065
:100A10005A48006809F034FE00905D48016800986B
:100A20000BF0AAF8019002990BF0A6F80390049934
:100A30000BF0DAF905900AF03DFE21F00041CDE916
:100A40000601DDE908230AF01FFB01D200201CE0AB
:100A50004E48B0F900000AF0FFFF0A9048480068CD
:100A600009F00EFE08904548006809F009FE06905E
:100A70004748016806980BF07FF8079008990BF03B
:100A80007BF809900A990BF0AFF90B900AF012FE6F
:100A90004A4A4B4BCDE90C010AF032FBCDE90E017D
:100AA000DDE910230AF02CFBCDE91401454800686C
:100AB0000AF000FECDE91201DDE914230AF076F810
:100AC000CDE916010AF040F83E4908603E4A911E01
:100AD000881E02F0EAFD68B901F0F3F9189848B1F0
:100AE00001F022FD3948006817900AF079FF00B242
:100AF00037496FE07FE000006F12833A200000204A
:100B00000000002017B7D1382400002017B7513853
:100B100028000020ACC5A7372C000020ACC5273723
:100B200030000020ACC5A73634000020BD370636A3
:100B300038000020BD3786353C000020BD37063523
:100B40004000002095BF56344400002095BFD633A6
:100B50004800002004000020CDCCCC3DCC04002077
:100B6000700000206E0000206C000020C0020020F9
:100B7000000100200000E03F04010020640000208C
:100B800060000020BE020020BC0200209C0000206B
:100B9000D401002054000020B0020020BF02002039
:100BA000B4020020B8020020C00100202D431CEB3D
:100BB000E2361A3FBC010020C20200207C9285F977
:100BC0003C90AE3FDC0100207C000020C0040020EF
:100BD0000C0100200880FE48406817900AF000FFD2
:100BE00000B2FC490880FA48806817900AF0F8FEC5
:100BF00000B2F9490880F9480068401C0AF074FF07
:100C00001790F74800680AF06FFFF64915900AF050
:100C1000B3FF169017990BF07BF82ED2F0480068BE
:100C20000AF062FFEF4916900AF0A6FF17900AF04B
:100C3000F3FEEA490860EC488068401CEA49886095
:100C4000EA4AEB49EB4804F00EFFEB480168E8483C
:100C500000680BF0C9F8E9490860E9480168E5480F
:100C600000680BF0C1F8E7490860E7480168DF4811
:100C700000680BF0B9F8E5490860E5480068401CD9
:100C80000AF032FF1790D64800680AF02DFFE149BC
:100C900015900AF071FF169017990BF039F87AD277
:100CA000CF4800680AF020FFDA4916900AF064FF86
:100CB00017900AF0B1FED6490860CB48C068401CC6
:100CC000C949C860239800287ED0D348006840F204
:100CD0004C41884279D9D048008800B21D90CF4855
:100CE000B0F9000040F2E351081ACD490968884282
:100CF00008D8CA48B0F9000000F2E350C8490968B2
:100D0000884218D2C6480088A0F2E35000B21F9073
:100D10001F980AF0A1FE13900AF0CCFCC14AC24B06
:100D2000CDE914010AF0ECF9CDE9160109F00CFF48
:100D3000B149086002E00020AF490860B748B0F947
:100D4000000040F2E451081AB8490968884208D8FE
:100D5000B248B0F9000000F2E450B4490968884292
:100D60001AD2B248008840F2E451081A00B21E902C
:100D70001E980AF071FE13900AF09CFCA94AAA4B37
:100D8000CDE914010AF0BCF9CDE9160109F0DCFE49
:100D90009B49086003E0ACE00020994908609F4847
:100DA000B0F9000040F2E351081AA14909688842ED
:100DB00008D89A48B0F9000000F2E3509C4909684D
:100DC00088421ED29A4801E050E01EE0008840F2BE
:100DD000E351081A00B21C901C980AF03DFE1390D3
:100DE0000AF068FC8F4A904BCDE914010AF088F9AB
:100DF000CDE9160109F0A8FE8349086000200860CB
:100E000012E00020804908600EE000208949088037
:100E100089490880894908808949088000231A4641
:100E20001946184600F03CFC7B48006840F24C41F3
:100E3000884218D27E480068884214D2219818B996
:100E40008048008880B221907E4801682198081A65
:100E500008283DD3002023907B49086001207B496E
:100E6000C1F8A00134E00020219031E00020714958
:100E70000880714908807149088071490880002301
:100E80001A461946184600F00BFC6348006840F209
:100E90004C4188421AD26648006840F26C71884220
:100EA00014D9229818B96748008880B22290654802
:100EB00001682298081A05280AD301202390624964
:100EC000086000206149C1F8A00101E000202290E3
:100ED0005148006840F24C4188420AD9239840B1F9
:100EE00000F07BFD00F0E7FC01F0DFFA1D9800F058
:100EF00009FC57480068401C0AF0F6FD1790384876
:100F000000680AF0F1FD534915900AF035FE16907D
:100F100017990AF0FDFE1BD2314800680AF0E4FD83
:100F20004C4916900AF028FE17900AF075FD4849C2
:100F300008602D480069401C2B490861364800684C
:100F400040F24C41884203D9239808B101F0E0F9FE
:100F500041480068401C0AF0C7FD1790204800680F
:100F60000AF0C2FD3D4915900AF006FE1690179949
:100F70000AF0CEFE2BD21A4800680AF0B5FD3749B8
:100F800016900AF0F9FD17900AF046FD3249086004
:100F900015484069401C144948611A9800287DD0C2
:100FA0002F4800680AF01CFD179023992098CDE97E
:100FB00000010E48179B02680E4801680C48006843
:100FC00005F011FE0020274909784DE0AAE1F3E081
:100FD000C00400200E010020100100200C000020A1
:100FE000000000200AD7A33CCC04002068000020A9
:100FF000600000206400002000010020F4000020B8
:1010000004010020F800002008010020FC0000205E
:10101000100000200AD7233C54000020BA00002012
:101020004C000020F49FDA858B81A23F5000002005
:1010300058000020880200208A0200208C02002034
:101040008E020020240000208881224200002142DC
:10105000140000200AD7A33B180000206F12033BA6
:10106000D4000020C0020020AF4A1278AF4B1B789A
:10107000CDE90032CDE90210AD48008880B217906A
:10108000AC48008880B21690AB48008880B21590BA
:10109000AA48008880B2149015A900E08BE00EC920
:1010A00005F004FF00200290039004900590A448EE
:1010B000008880B2A349098889B2CDE90010A2480E
:1010C000008880B21790A148008880B21690A0488E
:1010D000008880B215909F48008880B2149015A9AE
:1010E0000EC905F077FF9C4800680AF079FC17905C
:1010F0009A4800680AF074FC00B21690984800689C
:101100000AF06EFC00B21590964800680AF068FC80
:1011100000B21490944800680AF062FC00B2139088
:101120009248B0F900000AF097FC0B9090480068D4
:1011300009F0A6FA09908F48006809F0A1FA079013
:101140008D48016807980AF017FD089009990AF080
:1011500013FD0A900B990AF047FE0C900AF040FC30
:1011600000B20D9009F065FF844A854BCDE90E0170
:1011700009F0C6FFCDE9100109F02CFF00B2129072
:10118000DDE91423DDE91610CDE90223CDE90410D1
:101190007C49B1F900101398CDE900107A48B0F9F4
:1011A00000307A48B0F900107948B0F90000129A7E
:1011B00005F0B9FD00E000BF76480068401C0AF069
:1011C00093FC1790744800680AF08EFC73491590E0
:1011D0000AF0D2FC169017990AF09AFD7DD26E485B
:1011E00000680AF081FC6D4916900AF0C5FC179062
:1011F0000AF012FC6749086069488069401C684928
:10120000886101F094FD63480068642815D2654840
:101210000168654800680AF079FA13900AF04AFA02
:101220000022624BCDE9140109F06AFFCDE91601F5
:1012300009F08AFC5C4908604FE05B480168594846
:1012400000680AF0D7FA179001F042FE584908608A
:1012500001F060FE444801685648574A127840F849
:1012600022104D4800680AF03FFC544917900AF0DC
:1012700083FC5349504A127841F822004E480078C6
:10128000401C4D49087008460078072807D1002007
:1012900008704C48007810B901204A490870494844
:1012A0000078D0B101F039FF01F072FE25480068E6
:1012B00028490968884205D32648006820490968FA
:1012C000884205D240480068401C3F49086004E05D
:1012D00006F027FA01203C4908603C480068401CA1
:1012E0000AF002FC17902C4800680AF0FDFB334915
:1012F00015900AF041FC169017990AF009FD11D2D9
:10130000254800680AF0F0FB2C4916900AF034FCDE
:1013100017900AF081FB2D4908602148C069401CE4
:101320001F49C861FFF777BABF020020BE02002044
:101330008E0200208C0200208A02002088020020F9
:10134000B4020020B0020020500000204C00002019
:101350005800002054000020D4000020E4010020A8
:10136000DC010020B40100209C0100209C00002032
:101370006000002064000020D401002008E6E8F1AD
:101380007B9BAE3F0E0100200C0100206E00002070
:101390006C0000201C000020000000206F12833A27
:1013A000CC040020DC000020E40000200000E03F2E
:1013B000D8000020F4040020A802002017B7D1387C
:1013C00010050020A9020020AC020020240000200B
:1013D00000BF1A4801684FF0E02082691748006892
:1013E0008142F6D11648006800EB4003C3EBC01001
:1013F000C2EBC000124B1B68B0FBF3F001EB4103E2
:10140000C3EBC11300EBC300704700B585B068465D
:1014100006F0FBFE0B490098B0FBF1F008490860AC
:1014200005B000BD7047704700BFFEE700BFFEE794
:1014300000BFFEE77047704770477047C402002046
:10144000C802002040420F000CB50020019000901F
:101450006C48006840F480306A49086000BF694801
:10146000006800F4003000900198401C0190009842
:1014700018B90198B0F5A06FF1D16248006800F486
:10148000003010B10120009001E000200090009891
:10149000012843D15C48006840F010005A490860B8
:1014A0000846006820F0030008600846006840F025
:1014B0000200086053484068524948600846406846
:1014C00048600846406840F48060486008464068CC
:1014D00020F47C1048600846406840F4E8104860FA
:1014E0000846006840F08070086000BF454800680A
:1014F00000F000700028F9D04248406820F0030056
:10150000404948600846406840F00200486000BF1B
:101510003C48406800F00C000828F9D10CBD10B51B
:10152000FFF792FF10BD10B53648006840F001008B
:1015300034490860084640683449084031494860E9
:1015400008460068324908402E490860084600688D
:1015500020F4802008600846406820F4FE004860BF
:101560004FF41F008860FFF7DAFF4FF00060294951
:10157000086010BD10B5002100200022214B5B68DF
:1015800003F00C0121B1042906D0082928D107E075
:10159000214B224C236027E01F4B204C236023E08B
:1015A000184B5B6803F47010164B5B6803F48032D1
:1015B000022303EB904022B9194B4343174C23609D
:1015C0000DE0104B5B6803F4003323B1144B43432D
:1015D000124C236003E0104B4343104C236003E0A4
:1015E0000D4B0E4C236000BF00BF064B5B68C3F37E
:1015F00003130C4CE15C094B1B68CB40074C236088
:1016000010BD000000100240002002400000FFF862
:10161000FFFFF6FE08ED00E000127A00CC02002089
:1016200000093D00D002002008B50121242006F069
:1016300059FE4FF48070ADF8000010208DF80300C3
:1016400003208DF802006946094806F08FFB4FF42D
:101650008071074806F037FC0420ADF800006946A9
:10166000044806F083FB0421024806F02CFC08BD68
:10167000000801400014014002468A4201DD08468C
:1016800070471046FCE703469A4203DA8B4201DAC0
:1016900018467047994201DC0846FAE71046F8E719
:1016A00030B5B0F5FA6F01DD4FF4FA60B1F5FA6FBD
:1016B00001DD4FF4FA61B2F5FA6F01DD4FF4FA6221
:1016C000B3F5FA6F01DD4FF4FA63B0F57A7F01DA12
:1016D0004FF47A70B1F57A7F01DA4FF47A71B2F58E
:1016E0007A7F01DA4FF47A72B3F57A7F01DA4FF438
:1016F0007A73FE4D28802D1D29802D1D2A802D1DD9
:101700002B8030BD70B5044640F2F4612046FFF7EF
:10171000B3FF0546F64A5142F648B0F90000FFF71C
:10172000B2FF05446FF031023221F348B0F90000F6
:10173000FFF7A9FF2E18F14800680AF051F905B229
:101740006FF00E020F212846FFF79DFF0644EC487C
:1017500000680AF045F905B26FF009020A2128462F
:10176000FFF791FF304400B2E649088040F2F4618F
:101770002046FFF781FF0546DD4A5142E248B0F9B5
:101780000000FFF780FF05446FF031023221DF488F
:10179000B0F90000FFF777FF2E18D84800680AF06C
:1017A0001FF905B26FF00E020F212846FFF76BFFFD
:1017B0000644D34800680AF013F905B26FF0090235
:1017C0000A212846FFF75FFF304400B2D049088065
:1017D00040F2F4612046FFF74FFF0546C44A5142EC
:1017E000CC48B0F90000FFF74EFF05446FF031021E
:1017F0003221C948B0F90000FFF745FF2E18BF4855
:1018000000680AF0EDF805B26FF00E020F212846CD
:10181000FFF739FF0644BA4800680AF0E1F805B25C
:101820006FF009020A212846FFF72DFF304400B26D
:10183000BA49088040F2F4612046FFF71DFF0546D3
:10184000AB4A5142B648B0F90000FFF71CFF05440F
:101850006FF031023221B348B0F90000FFF713FFF7
:101860002E18A64800680AF0BBF805B26FF00E0209
:101870000F212846FFF707FF0644A14800680AF039
:10188000AFF805B26FF009020A212846FFF7FBFE08
:10189000304400B2A44908800846B0F900309F489F
:1018A000B0F900209A48B0F900109648B0F900004D
:1018B000FFF7F6FE70BD2DE9F0479C4801689C4893
:1018C00000680AF059F906469A4801689A48006883
:1018D0000AF052F9804699480168994800680AF070
:1018E0004BF90746414609F011FF0546314609F01C
:1018F0000DFF04460AF074F800B27F4908808B4857
:1019000001688B4800680AF037F980468948016809
:10191000894800680AF030F981468948006880F0FB
:1019200000478648016838460AF026F906464946C7
:101930000AF05AFA0546414609F0E8FE04460AF064
:101940004FF800B27149088078480168784800680B
:101950000AF012F9804677480168774800680AF073
:101960000BF981467648006880F0004773480168AB
:1019700038460AF001F90646494609F0C7FE054611
:1019800041460AF031FA04460AF02AF800B26249E8
:10199000088066480168664800680AF0EDF8064667
:1019A00064480168644800680AF0E6F8074663483E
:1019B0000168634800680AF0DFF8804639460AF09B
:1019C00013FA054631460AF00FFA04460AF008F801
:1019D00000B254490880BDE8F0872DE9F047594826
:1019E000B0F900000AF038F8074657480168384651
:1019F0000AF0C2F805465548B0F900000AF02CF884
:101A000081465348016848460AF0B6F807465148EF
:101A1000B0F900000AF020F881464F4801684846B6
:101A20000AF0AAF88046394609F070FE06462946B3
:101A300009F06CFE044609F0D3FF00B22D4908807E
:101A40004048B0F900000AF007F807463E48016830
:101A500038460AF091F805463C48B0F9000009F014
:101A6000FBFF81463A48016848460AF085F8074678
:101A70003848B0F90000404209F0EEFF8146364890
:101A8000016848460AF078F8804639460AF0ACF911
:101A90000646294609F03AFE044609F0A1FF00B2C5
:101AA000194908802748B0F9000009F0D5FF07461A
:101AB0002548016838460AF05FF805462348B0F922
:101AC000000009F0C9FF81462148016848460AF034
:101AD00053F807461F48B0F90000404209F0BCFF28
:101AE00081461D480168484638E000003404004043
:101AF000D4FEFFFFC4000020BC00002084020020B0
:101B00008002002088020020C6000020BE000020C5
:101B10008A020020C8000020C00000208C020020A3
:101B2000CA000020C20000208E020020FC0200201B
:101B3000FC000020F8020020F8000020F402002041
:101B4000F400002010010020140300200E010020EA
:101B5000100300200C0100200C0300200AF00CF8F8
:101B60008046394609F0D2FD064629460AF03CF97E
:101B7000044609F035FF00B2FE490880FE48B0F97E
:101B8000000009F069FF0746FC480168384609F083
:101B9000F3FF0446FA48B0F9000009F05DFF814602
:101BA000F8480168484609F0E7FF0746F648B0F9EB
:101BB000000009F051FF8146F4480168484609F0E9
:101BC000DBFF804639460AF00FF9064621460AF047
:101BD0000BF9054609F004FF00B2ED490880BDE8A5
:101BE000F0872DE9F041EB49B1F900104942EA4A8A
:101BF000B2F900201144DF4AB2F90020891AE44A00
:101C0000B2F900201144E54AB2F90020891AE44AE9
:101C1000B2F900201144E34AB2F90020891AE24ADD
:101C2000B2F90020881809F017FF0746DF4801685D
:101C3000384609F0A1FF0546D649B1F900104942DE
:101C4000D54AB2F900201144CA4AB2F90020114421
:101C5000CF4AB2F90020891AD04AB2F90020891A75
:101C6000CF4AB2F900201144CE4AB2F90020114403
:101C7000CD4AB2F90020881A09F0EEFE0746CC489A
:101C80000168384609F078FF0646294609F03EFD0E
:101C9000044609F0A5FE00B2C6490880BD49B1F965
:101CA00000104942BC4AB2F900201144B14AB2F9CD
:101CB0000020891AB64AB2F900201144B74AB2F995
:101CC0000020891AB64AB2F900201144B54AB2F987
:101CD0000020891AB44AB2F90020881809F0BCFE25
:101CE0000746B2480168384609F046FF0546A9494B
:101CF000B1F900104942A84AB2F9002011449D4AA6
:101D0000B2F900201144A24AB2F90020891AA34A6C
:101D1000B2F90020891AA24AB2F900201144A14A5E
:101D2000B2F900201144A04AB2F90020501A09F07B
:101D300093FE07469E480168384609F01DFF064697
:101D400029460AF051F8044609F04AFE00B29A49C1
:101D500008809049B1F9001049428F4AB2F9002039
:101D60001144844AB2F90020891A894AB2F9002044
:101D700011448A4AB2F90020891A894AB2F900202E
:101D80001144884AB2F90020891A874AB2F9002022
:101D9000881809F061FE074684480168384609F052
:101DA000EBFE05467B49B1F9001049427A4AB2F987
:101DB000002011446F4AB2F900201144744AB2F96C
:101DC0000020891A754AB2F90020891A744AB2F9BA
:101DD00000201144734AB2F900201144724AB2F94A
:101DE0000020501A09F038FE07467148016838464D
:101DF00009F0C2FE0646294609F088FC044609F0AF
:101E0000EFFD00B26D4908806249B1F90010494206
:101E1000614AB2F900201144564AB2F90020891AE9
:101E20005B4AB2F9002011445C4AB2F90020891AD9
:101E30005B4AB2F9002011445A4AB2F90020891ACB
:101E4000594AB2F90020881809F006FE074657489B
:101E50000168384609F090FE05464E49B1F9001078
:101E600049424D4AB2F900201144424AB2F90020D9
:101E70001144474AB2F90020891A484AB2F90020B1
:101E8000891A474AB2F900201144464AB2F90020A3
:101E90001144454AB2F90020881A09F0DDFD0746D1
:101EA00043480168384609F067FE0646294609F0AE
:101EB0009BFF044609F094FD00B241490880BDE84B
:101EC000F0812DE9F0410025002600273D49B1F9B8
:101ED00000103D4AB2F90020881A09F0BDFD3B49C7
:101EE0003B4A127841F822003649B1F90210364ACD
:101EF000B2F90220881A09F0AFFD3649344A127847
:101F000041F822002F49B1F904102F4AB2F90420F8
:101F1000881A09F0A1FD30492D4A127841F82200B3
:101F2000002416E0294850F82410284609F0EEFB5A
:101F30000546284850F82410304609F0E7FB0646CD
:101F4000254850F82410384609F0E0FB0746601C8D
:101F5000C4B2062CE6DB2149284609F04BFC80463A
:101F600009F03EFD00B2084908801C49304609F0DE
:101F700041FC35E0C80000201001002014030020BF
:101F80000E010020100300200C0100200C03002093
:101F9000CA000020C4000020C6000020BC000020B1
:101FA000BE000020C0000020C20000202803002046
:101FB00024030020CC000020CE000020D000002010
:101FC000D200002078000020860000202C05002090
:101FD00040030020440500205C0500200000C040B4
:101FE000804609F0FDFC00B2FB490880FB493846F9
:101FF00009F000FC804609F0F3FC00B2F8490880C3
:10200000F8480078401CF749087008460078062810
:1020100001D100200870BDE8F08170B50025F249BB
:10202000B1F90010F14AB2F90020881A09F014FD44
:10203000EF49F04A127841F82200002408E0EC4809
:1020400050F82410284609F061FB0546601CC4B214
:10205000062CF4DBE149284609F0CCFB064609F0E2
:10206000BFFC00B2E4490880E2480078401CE14926
:10207000087008460078062801D10020087070BD5D
:1020800070B50025DD480068DD49DE4A127841F868
:102090002200002408E0DA4850F82410284609F00D
:1020A00035FB0546601CC4B2012CF4DB4FF07E51B9
:1020B000284609F09FFBD4490860D2480078401CAC
:1020C000D049087008460078012801D10020087026
:1020D00070BD2DE9F04F89B083468A46504609F01D
:1020E000E9FA8046C94ACA4B09F00AF802460B468B
:1020F000CDE900010020C74908F014FE06460F464E
:10210000584609F0D7FA32463B46CDE9020108F0BD
:102110004DFDCDE90601584609F0CCFACDE90401A0
:10212000DDE9062308F0FEFD044608F00DFDBA497E
:10213000086009B0BDE8F08F2DE9F041AA49B1F976
:102140000010AD4AB2F90020881A09F085FC074654
:10215000B1480168384609F00FFD0546A648B0F9B8
:10216000000009F079FC0646294609F0CFFA04463A
:1021700009F036FC00B2A0490880BDE8F08170B5D6
:10218000A6480068A6490860A6480168A6480068F5
:1021900009F0BCFAA4490860A4480168A248006894
:1021A00009F0B4FA044621469F48006809F022FB72
:1021B0009F4908608C48B0F9000009F04DFC0646C4
:1021C00097480168304609F00FFE054698480168B7
:1021D000284609F0D1FC044691480168204609F0E0
:1021E00095FA8E490860924801684FF07E5009F0D8
:1021F000FBFD04468C480168204609F0BDFC8A4975
:10220000086070BD70B58B4800688B4908608B48CA
:1022100001688B48006809F079FA894908608948A3
:1022200001688748006809F071FA0446214684482D
:10223000006809F0DFFA844908608448B0F90000BA
:1022400009F00AFC06467C480168304609F0CCFDDE
:1022500005467D480168284609F08EFC044676480C
:102260000168204609F052FA724908607648016810
:102270004FF07E5009F0B8FD0446714801682046D1
:1022800009F07AFC6E49086070BD70B5704800684E
:1022900070490860704801687048006809F036FAB3
:1022A0006E4908606E4801686C48006809F02EFAB3
:1022B000044621466948006809F09CFA69490860AB
:1022C0006948B0F9000009F0C7FB0646614801689B
:1022D000304609F089FD054662480168284609F044
:1022E0004BFC04465B480168204609F00FFA584948
:1022F00008605C4801684FF07E5009F075FD0446A7
:1023000056480168204609F037FC5449086070BD02
:102310002DE9F0415548007800285BD0544800680A
:1023200020F00044204609F0C5F905460022514B33
:1023300008F0AAFE4ED25048006820F00044204623
:1023400009F0B8F9054600224A4B08F09DFE41D23B
:102350004A48006820F000444FF07E51204609F0C2
:10236000D7FB37D24648006820F000444FF07E513A
:10237000204609F0CDFB2DD2424800684249098829
:10238000884227D24048008840490968884221D2C3
:102390001648B0F9000009F05FFB074620480168C5
:1023A000384609F017FD064639480168304609F0FD
:1023B000E3FB04463748006880F000463648016871
:1023C000304609F0D9FB0546214609F00DFD334999
:1023D000086068E064E000000E0100200000C040DA
:1023E0001001002040030020700000209C0000200D
:1023F000740500204103002012010020D4000020B9
:102400004403002048030020D800002097D17E5AC2
:10241000FB2119400000F03F14010020D0010020F2
:10242000D4010020C8010020D8010020C4010020F0
:10243000CC0100201002002014020020080200201D
:1024400018020020040200200C0200206E00002070
:102450003002002034020020280200203802002030
:10246000240200202C0200206C000020C00200206A
:10247000000100200000E03F040100206400002073
:1024800060000020B402002054000020B0020020B0
:102490003C03002034030020DC01002080020020E7
:1024A000002051490860BDE8F0812DE9FE4F4F49F9
:1024B0000988A1F57A7009F0CFFA02904C480068BB
:1024C00009F0F8F807464B4A4B4B08F019FE054651
:1024D00008F03AFB834608F0D3F8009047480068BC
:1024E00009F0E8F80746434A434B08F009FE054661
:1024F00008F02AFB834608F0C3F80446009909F067
:102500003BFB814639490988A1F57A7009F0A4FAA4
:102510004946019009F06EF98246029909F064FC7F
:1025200037490860BDE8FE8F2DE9F041002400BF67
:1025300056E0344850F82400334941F82400334A27
:1025400052F82410324A52F8240009F0DFF83049DA
:1025500041F824002F4A52F824102D4A52F8240042
:1025600009F0D4F805462A4951F82400294609F013
:1025700041F9294941F82400284931F91410284A21
:1025800032F91420881A09F067FA07461E4850F8F5
:102590002410384609F028FC06461F4850F824103D
:1025A000304609F0E9FA0546174850F82410284645
:1025B00009F0ACF8134941F82400174850F82410EA
:1025C0004FF07E5009F010FC0546114850F82410D9
:1025D000284609F0D1FA0E4941F82400601CC4B223
:1025E000032CA6DBBDE8F08180020020540000200F
:1025F000040100205F40D42247DF913F000100200A
:1026000084020020B4040020C004002068020020DE
:10261000740200205C020020A80400207800002042
:10262000860000207FB505460C460121082005F0F4
:1026300066FEADF80850ADF804400020ADF80A0081
:10264000ADF8060001A9EA4806F016FA0122114683
:10265000E74806F088FD32208DF8000001208DF853
:10266000010000208DF8020001208DF8030068466B
:1026700006F0A5F80121DE4806F05AFD7FBD10B531
:102680000121DB4807F01DF840B10121D84807F0CF
:1026900029F8D8480068401CD649086010BD30B5FC
:1026A00085B005460C460121042005F028FE0121D5
:1026B000082005F017FE4FF47070ADF810002820C8
:1026C0008DF8130004A9CC4805F050FB4FF470714D
:1026D000C94805F0FAFBADF80850ADF804400020F9
:1026E000ADF80A00ADF8060001A9C44806F0C4F927
:1026F0000020C34908804880012088800020C880CD
:102700000881BE4806F04BFC0420BD49088000202B
:102710004880012088800020C8800881B74806F0E2
:102720003EFC0820B64908800020488001208880AF
:102730000020C8800881B14806F031FC0C20B04967
:10274000088000204880012088800020C8800881FF
:10275000AA4806F024FC1E208DF8000000208DF809
:1027600001008DF8020001208DF80300684606F094
:1027700026F801221E21A14806F0F5FC01219F4800
:1027800006F0D6FC05B030BD10B59E48007800F0CC
:102790008000002846D10221984806F092FF0028C8
:1027A00040D00221954806F09DFF9648007800F041
:1027B000400040B3914806F065FF93490880084601
:1027C000008892490988884204DA4FF6FF709049E0
:1027D000086002E000208E4908608B4800888B4921
:1027E0000988401A8A49096808448A4908600846E5
:1027F00000688949086000208249087000217F48EC
:1028000006F048FE0EE07D4806F03CFF7F49088058
:102810007C48007840F040007A49087002217748EF
:1028200006F038FE7D48007800F08000002846D190
:102830000421724806F045FF002840D004216F486B
:1028400006F050FF7548007800F0400040B36B4838
:1028500006F01BFF72490880084600887149098804
:10286000884204DA4FF6FF706F49086002E00020EA
:102870006D4908606A4800886A490988401A6A49AF
:1028800009680844694908600846006868490860A2
:102890000020624908700021584806F00DFE0EE045
:1028A000564806F0F2FE5F4908805C48007840F028
:1028B00040005A4908700221504806F0FDFD5D486D
:1028C000007800F08000002845D108214B4806F030
:1028D000F8FE80B30821494806F004FF5548007807
:1028E00000F0400040B3454806F0D2FE524908804F
:1028F0000846008851490988884204DA4FF6FF707B
:102900004F49086002E000204D4908604A480088AD
:102910004A490988401A4A490968084449490860EF
:1029200008460068484908600020424908700021B4
:10293000324806F0DBFD0EE0304806F0A9FE3F49C4
:1029400008803C48007840F040003A490870022175
:102950002A4806F0CBFD3D48007800F08000A8BB77
:102960001021264806F0ADFE80B31021234806F062
:10297000B9FE3648007800F0400040B31F4806F02A
:102980008AFE33490880084600883249098888420F
:1029900004DA4FF6FF703049086002E000202E494B
:1029A00008602B4800882B490988401A2A49096881
:1029B00008442A4908600846006829490860002040
:1029C0002249087000210D4806F0AAFD0EE00B48D0
:1029D00006F061FE1F4908801C48007840F0400066
:1029E0001A4908700221054806F09AFD10BD000042
:1029F000000C004000000020000C014000080040D6
:102A00008C0500204C030020500300204E030020C2
:102A100074030020640300204C00002052030020B7
:102A20005603002054030020780300206803002090
:102A300050000020580300205C0300205A030020AF
:102A40007C0300206C030020540000205E03002063
:102A50006203002060030020800300207003002038
:102A60005800002070B505460C4645F2555005F05B
:102A70000FFF284605F00FFF204605F00FFF05F079
:102A800010FF05F013FF70BD10B505F00AFF10BD73
:102A900008B500208DF8000002208DF80100032009
:102AA0008DF80200684605F08AFE08BD70B506463E
:102AB0000C4615460121C80205F021FC284606F007
:102AC00020FE204606F026FE304606F03EFE06F0CA
:102AD00047FEFFF7DDFF06F02EFE70BD10B5044681
:102AE000204606F032FE10BD10B57F2006F027FE0E
:102AF00006F036FE10BD000030B589B005460C4624
:102B00000121022005F0FBFB0121112005F0EAFB69
:102B10000121294805F0FBF94FF47070ADF8200051
:102B200018208DF8230003208DF8220008A92348DF
:102B300005F01CF9ADF81850ADF814400020ADF8C0
:102B40001A00ADF8160005A91D4805F095FF602094
:102B5000ADF804000120ADF806000020ADF80A0031
:102B6000ADF80C0001A9164805F0C3FF0821144870
:102B700006F00EFC01A9124805F0FDFF08211048DF
:102B800006F00FFC01A90E4806F042F808210C4897
:102B900006F014FC01A90A4806F085F80821084847
:102BA00006F015FC0121064806F0C2FB012104488D
:102BB00006F0BEFA09B030BD000C1A00001001404A
:102BC0000004004010B500F025FBEE2000F0DAFB19
:102BD00000F065FB1E2000F0D5FB00F060FB00F06C
:102BE0003DFB10BD70B5012433E000F013FBEE2077
:102BF00000F0C8FB00F053FBA02101EB4401C8B278
:102C000000F0C0FB00F04BFB00F028FB052004F0B7
:102C1000B4FD00F0FFFAEF2000F0B4FB012004F057
:102C2000ACFD00F03CFB012000F0DBFB0546012081
:102C300004F0A3FD002000F0D4FB064600F00EFBDC
:102C4000052004F0BEFD46EA0520FE4921F81400E7
:102C5000641C062CC9DDFB48008808B9012070BD42
:102C60000020FCE738B50446002500F0D3FAEE203A
:102C700000F088FB00F013FB204600F083FB00F01F
:102C80000EFB00F0EBFA092004F09BFD642004F039
:102C900074FD00F0BFFAEE2000F074FB00F0FFFAC4
:102CA000002000F06FFB00F0FAFA00F0D7FA00F015
:102CB000B1FAEF2000F066FB00F0F1FA012000F01D
:102CC00090FB8DF80000012000F08BFB8DF80100D7
:102CD000002000F086FB8DF8020000F0BFFA9DF89E
:102CE000000001049DF8010001EB00209DF8021096
:102CF0004518284638BD10B55820FFF7B3FFD24914
:102D00000860052004F039FDCE484089CE490968A5
:102D1000A1EB0020CD490860CA4880890968484372
:102D20004FF4FA6101EBD050C949086010BD2DE99C
:102D3000F0414820FFF796FFC6490860052004F0DF
:102D40001CFDC04880880104BE480089BF4A126843
:102D5000504301EBD0100021BF4A03C2B94840885C
:102D6000C103B848C088B94A1268504301EB10202B
:102D70000021BA4A03C2B7480068083A18CAA0FB43
:102D8000032501FB035100FB0411500D40EAC12350
:102D90004815B149D1E900219A1A60EB01004104BC
:102DA00041EAD230AE490860A9480068B0F5FA6F30
:102DB00046DAA64800684043C017C117A94A03C2B3
:102DC000A3480068A0F5FA604043401000EB800083
:102DD000C117A54A03C29E480068A0F5FA604043A7
:102DE000801000EB8000C117A04A03C29848006819
:102DF0009F4988422FDA9648006800F2DC50C0EB09
:102E0000C0009349096801F2DC514843C117964A52
:102E1000D2E90032C0185141934A03C28C4800687D
:102E200000F2DC504043401000EB400101EBC000D9
:102E3000C1178E4B0CCB801859418C4A03C20AE053
:102E40000021884A116051600020874A106050605C
:102E5000864A116051607E48006882490968401ABC
:102E60007B4908607C48D0E900207F49D1E90031E6
:102E7000D21A60EB01007849C1E900207748D0E917
:102E800000307A49D1E900219A1A60EB01007349B8
:102E9000C1E900206F480068002550C9A0FB041755
:102EA00005FB047400FB0644480D40EAC425601588
:102EB000694C12CC6D1A60EB0401E80B40EA414208
:102EC000C913104608F0E3FD6A490860BDE8F081C7
:102ED0002DE9F0470446204607F048FD8146664943
:102EE00008F04AFE074607F089FC06464FF07E517F
:102EF00008F070FF054661480168614808F03CFE33
:102F00008046294608F038FE5E4908600846006899
:102F1000BDE8F08770B55C4800685C4908605C48B3
:102F200001685C48006808F0F1FB5A4908605A489B
:102F300001685848006808F0E9FB044621465548F6
:102F4000006808F057FC55490860504801684D4832
:102F5000006808F049FF054650480168284608F017
:102F60000BFE044649480168204608F0CFFB46495D
:102F700008604A4801684FF07E5008F035FF04466B
:102F800044480168204608F0F7FD4249086070BDDA
:102F900070B54348006843490860434801684348A6
:102FA000006808F0B3FB41490860414801683F48A8
:102FB000006808F0ABFB044621463C48006808F076
:102FC00019FC3C490860374801683B48006808F034
:102FD0000BFF054637480168284608F0CDFD04463A
:102FE00030480168204608F091FB2D4908603148BF
:102FF00001684FF07E5008F0F7FE04462B48016848
:10300000204608F0B9FD2949086070BD70B52B480D
:1030100000682B4908602B4801682B48006808F0BD
:1030200075FB29490860294801682748006808F0AD
:103030006DFB044621462448006808F0DBFB244968
:10304000086047E02004002024010020280100201F
:10305000E00000202001002018010020380100209D
:103060004001002050010020600100206801002084
:1030700024FAFFFFDC00002041D3423E740100200F
:103080007B627046D4000020980100209C01002043
:1030900090010020A00100208C010020940100205C
:1030A000B0010020B4010020A8010020B8010020D8
:1030B000A4010020AC010020E40100205002002007
:1030C0005402002048020020580200204402002040
:1030D0004C020020384801683848006808F084FE37
:1030E000054637480168284608F046FD0446324840
:1030F0000168204608F00AFB324908603048016840
:103100004FF07E5008F070FE04462F4801682046BC
:1031100008F032FD2C49086070BD2DE9F05F2B4AA4
:103120005168106808F060FE8046294A51681068AE
:1031300008F05AFE8146274908F01EFD0746414621
:1031400008F058FB0546214A9168906908F04CFE4A
:1031500082461F4A9168906908F046FE83464FF008
:10316000834108F009FD8146514608F043FB0746BC
:10317000164AD168506908F037FE8246144AD16871
:10318000506908F031FE8346134908F0F5FC81468A
:10319000514608F02FFB8046394608F0B7FA06463C
:1031A000294608F0B3FA04464FF0745108F0E4FCE5
:1031B0000A490860BDE8F09F54020020DC000020AE
:1031C0004C02002050020020580200201005002070
:1031D000F40400200000C04000002041E401002071
:1031E00008B50121042005F07DF84FF4C050ADF87A
:1031F000000010208DF8030003208DF802006946BE
:10320000914804F0B3FD0120904908609049C1F84D
:10321000AC0108BD10B58C48001D006820F470405A
:103220008949091D08600846006840F4405008605C
:1032300001208649091F08608549C1F8B0010420B2
:1032400004F09BFA00208149091F0860042004F063
:1032500094FA00207E49C1F8B00110BD10B57A483B
:10326000001D006820F470407749091D0860084679
:10327000006840F4405008600020744908607449B8
:10328000C1F8AC01042004F078FA01206F4908600D
:103290006F49C1F8AC01042004F06FFA10BD10B5FD
:1032A00000246948001D006820F470406649091D2B
:1032B00008600846006840F4004008600120634947
:1032C000091F086004F059FA01206149C1F8B001F2
:1032D00004F053FA07E0601CC4B2FA2C03DDFFF7D8
:1032E000BDFF012010BD5948843800680028F2D184
:1032F0005649086000BFF5E710B500205349086043
:103300005148001D006820F470404F49091D0860B5
:103310000846006840F44050086000204C49C1F85D
:10332000AC01022004F029FA01204849086002207B
:1033300004F023FA00204649C1F8B00110BD10B5D1
:103340000020424908604048001D006820F4704099
:103350003D49091D08600846006840F44050086077
:1033600001203B49C1F8AC01022004F006FA01201B
:1033700036490860022004F000FA00203449C1F800
:10338000B00110BD70B504462F48001D006820F440
:1033900070402D49091D08600846006840F44050FF
:1033A0000860002029490860002517E0E009274946
:1033B000091F08606006040E022004F0DEF90120F7
:1033C0002349C1F8B001022004F0D7F900201F49B9
:1033D0000860022004F0D1F9681CC5B2082DE5DBB5
:1033E00070BD70B5054600241748001D006820F424
:1033F00070401549091D08600846006840F4004007
:103400000860002616E0002010490860022004F041
:10341000B4F901200E49C1F8B0016006040E0B4852
:103420008438006808B1601CC4B2012004F0A5F91A
:10343000701CC6B2082EE6DB15B9FFF780FF01E06D
:10344000FFF75AFF204670BD00080140B00121423D
:103450000000214270B505460C4600F0CDF9D020A1
:1034600000F074FA00F005FA18B100F0E3F9012059
:1034700070BD284600F06AFA00F0FBF9204600F023
:1034800065FA00F0F6F918B100F0D4F90120EFE781
:1034900000F0D0F90020EBE770B504460025BC2C05
:1034A00001DB012510E0622C01DB02250CE02A2C57
:1034B00001DB032508E0142C01DB042504E00A2CC1
:1034C00001DB052500E0062529461A20FFF7C2FF8B
:1034D00070BD70B50446B4F57A7F01DD4FF47A749F
:1034E000042C00DA04244FF47A7090FBF4F0401EB0
:1034F000C5B229461920FFF7ADFF0546264604EB65
:10350000D671C1F34F00FFF7C7FF70BD70B5044619
:1035100000F072F9D02000F019FA00F0AAF9204664
:1035200000F014FA00F0A5F900F066F9D12000F0DF
:103530000DFA00F09EF9002000F031FA054600F087
:1035400079F9284670BD10B50446E006010E1C202E
:10355000FFF780FF10BD10B50446E006010E1B20EA
:10356000FFF778FF10BD10B500F02DF980216B201A
:10357000FFF770FF642004F024F900216B20FFF7AF
:1035800069FF0320FFF7E7FF0020FFF7DCFF322091
:10359000FFF79FFF00213820FFF75CFF00216A2022
:1035A000FFF758FF00212320FFF754FF8021372029
:1035B000FFF750FF7520FFF7A9FF0446682C0BD1D9
:1035C00001216B20FFF746FF00216C20FFF742FF2F
:1035D0003220FFF77EFF01E0012010BD0020FCE754
:1035E0002DE9F04106460F4614461D4600F004F949
:1035F000002141EA4601C8B200F0A8F900F039F90B
:1036000020B100F017F90120BDE8F081384600F044
:103610009DF900F02EF900F0EFF8012101EB4601D1
:10362000C8B200F093F900F024F90DE0012C04D1A8
:10363000002000F0B4F9287003E0012000F0AFF999
:103640002870601EC4B26D1C002CEFD100F0F2F89F
:103650000020D9E72DE9F84F6B460222412168206E
:10366000FFF7BEFF9DF801009DF8001040EA012021
:103670000FFA80FA504607F0DCFC804600224B4BE4
:1036800007F050FB06464A4A4A4B07F08FFA0446B9
:1036900007F05AFA83464849584608F06DFA04463E
:1036A00008F09EF900B2BDE8F88F2DE9FC41044610
:1036B0000D4616466B46062243216820FFF790FF11
:1036C0000746BFB99DF801009DF8001040EA0120AF
:1036D00000B220809DF803009DF8021040EA01200E
:1036E00000B228809DF805009DF8041040EA0120F2
:1036F00000B230803846BDE8FC812DE9FC4104462B
:103700000D4616466B4606223B216820FFF768FFF0
:103710000746BFB99DF801009DF8001040EA01205E
:1037200000B220809DF803009DF8021040EA0120BD
:1037300000B228809DF805009DF8041040EA0120A1
:1037400000B230803846BDE8FC812DE9F0410546E5
:103750000E461746984600F04FF8002141EA450111
:10376000C8B200F0F3F800F084F820B100F062F87D
:103770000120BDE8F081304600F0E8F800F079F86B
:1037800000240CE018F8040000F0E0F800F071F8F4
:1037900018B100F04FF80120EBE7601CC4B2BC4246
:1037A000F0DB00F047F80020E3E700000040754040
:1037B000A4703D0AD74342400000C84210B5022021
:1037C00003F0DBFF10BD08B50121102004F08AFDD5
:1037D0004FF4C050ADF8000010208DF80300032016
:1037E0008DF802006946864804F0C0FA4FF4C051D3
:1037F000834804F068FB08BD10B58148406820F498
:1038000070407F4948600846406840F44050486036
:1038100001207C4908607C49C1F8B001FFF7CEFF68
:10382000002078490860FFF7C9FF00207649C1F8F9
:10383000B00110BD10B57248406820F47040704966
:1038400048600846406840F44050486000206D4998
:10385000091D08606C49C1F8AC01FFF7AFFF0120FA
:103860006849091D08606849C1F8AC01FFF7A6FF67
:1038700010BD10B500246248406820F470406049D3
:1038800048600846406840F40040486001205D49B7
:103890000860FFF793FF01205B49C1F8B001FFF713
:1038A0008DFF07E0601CC4B2FA2C03DDFFF7C2FFF6
:1038B000012010BD5348803800680028F2D15149DA
:1038C000091D086000BFF4E710B500204D49091D2F
:1038D00008604B48406820F47040494948600846F9
:1038E000406840F44050486000204749C1F8AC01AE
:1038F000FFF764FF01204349091D0860FFF75EFFE1
:1039000000204149C1F8B00110BD10B500203D496B
:10391000091D08603A48406820F470403849486002
:103920000846406840F44050486001203649C1F8DC
:10393000AC01FFF743FF01203249091D0860FFF782
:103940003DFF00203049C1F8B00110BD70B50446FC
:103950002B48406820F47040294948600846406878
:1039600040F44050486000202649091D08600025A9
:1039700012E0E009234908606006040E0120224994
:10398000C1F8B001FFF71AFF00201E49091D0860A9
:10399000FFF714FF681CC5B2082DEADB70BD70B5D7
:1039A000054600241648406820F4704014494860D9
:1039B0000846406840F400404860002615E00020BA
:1039C0001049091D0860FFF7F9FE01200E49C1F8F2
:1039D000B0016006040E0B488038006808B1601C16
:1039E000C4B2FFF7EBFE701CC6B2082EE7DB15B9B8
:1039F000FFF78BFF01E0FFF767FF204670BD000077
:103A000000100140AC0122420000224238B50446B9
:103A1000F74890F82400C0B114B10220009001E0F2
:103A200000200090F24A1268D17BF14A5268107867
:103A30006B460122FFF789FE10B14FF0FF3038BD11
:103A40009DF80010EA48417423E0E948807A10B9F3
:103A50004FF0FF30F3E724B1E548407C08B1002087
:103A6000EDE714B10120009001E000200090E04A51
:103A70001268D17BDE4A526810786B460122FFF74C
:103A800064FE10B14FF0FF30D9E79DF80010D84820
:103A900041740020D3E738B500241FE0D448006803
:103AA000C07AA04204D0D2480068407DA04200D134
:103AB00012E0CF49496808786B4601222146FFF79A
:103AC0008FFD10B14FF0FF3038BD9DF8002021462A
:103AD000C8A005F075FE00BF601CC4B2C4484068B1
:103AE0000079A042DADC0020EEE770B504460D460E
:103AF000BF480068C07AA04204D0BD480068407D3D
:103B0000A04202D14FF0FF3070BDB9484068007943
:103B1000A04202DC4FF0FF30F6E7B549496808786B
:103B20002B4601222146FFF75BFDEDE738B5044641
:103B3000AF4890F82300A04201D1002038BD14B155
:103B40003020009001E000200090A948807C20B146
:103B50009DF8000040F002000090A54890F8220077
:103B600020B19DF8000040F080000090A04A12684B
:103B7000117D9F4A526810786B460122FFF7E5FDE0
:103B800010B14FF0FF30D9E7994880F8234000206A
:103B9000D4E738B5044604F0700010B1012000905D
:103BA00005E014B10020009001E040200090904A10
:103BB0001268917C8E4A526810786B460122FFF79A
:103BC000C4FD20B100218A488172481E38BD9DF88D
:103BD000000020F04001864801730020009004F0AE
:103BE000400020B99DF8000040F00400009004F06F
:103BF000200020B99DF8000040F00200009004F081
:103C0000100020B99DF8000040F00100009004F081
:103C1000080020B99DF8000040F038000090744A78
:103C20001268D17C724A526810786B460122FFF705
:103C30008CFD20B100216E488172481EC6E724B178
:103C4000082C02D00020FFF771FF69488472002120
:103C50000175322003F0B5FD0020B7E738B5044602
:103C60006348807CA04201D1002038BD002C46D0A2
:103C70005F4A126811795E4A526810786B460122D9
:103C8000FFF7AEFC10B14FF0FF30EEE79DF80000FB
:103C900020F020000090564A12681179544A526868
:103CA00010786B460122FFF750FD10B14FF0FF3046
:103CB000DBE7032003F085FD022000904C4890F8DC
:103CC000220020B19DF8000040F08000009048489C
:103CD00090F8230020B19DF8000040F030000090E3
:103CE000434A1268117D424A526810786B4601229D
:103CF000FFF72BFD002851D04FF0FF30B5E73C4ACD
:103D0000126811793A4A526810786B460122FFF71F
:103D100067FC10B14FF0FF30A7E73548807A00F01C
:103D2000010028B19DF8000040F02000009004E060
:103D30009DF8000020F0200000902D4A12681179B3
:103D40002B4A526810786B460122FFF7FEFC10B137
:103D50004FF0FF3089E7032003F033FD244890F84B
:103D6000220010B18020009001E000200090204847
:103D700090F8230020B19DF8000040F03000009042
:103D80001B4A1268117D1A4A526810786B4601224C
:103D9000FFF7DBFC10B14FF0FF3066E71448847486
:103DA000002062E708B51248807A10B94FF0FF3062
:103DB00008BD002000900E4A1268D17B0C4A526860
:103DC00010786B460122FFF7C0FC10B14FF0FF30B6
:103DD000EEE7074A12685179054A526810786B4637
:103DE0000122FFF7B2FC68B14FF0FF30E0E70000BE
:103DF00084030020252335783A20252335780D0AC1
:103E000000000000FB4A12681179FA4A52681078E3
:103E10006B460122FFF799FC10B14FF0FF30C7E766
:103E2000F44890F82400002850D00C200090F14A6B
:103E300012681179EF4A526810786B460122FFF739
:103E400084FC10B14FF0FF30B2E7C0200090E94889
:103E5000807A00F0010020B19DF8000040F02000C1
:103E60000090E44A12681179E24A526810786B4671
:103E70000122FFF76AFC10B14FF0FF3098E7DD48F0
:103E8000407C10B10220009001E000200090D94A4F
:103E90001268D17BD74A526810786B460122FFF72F
:103EA00054FC10B14FF0FF3082E700200090D14A5F
:103EB00012685179CF4A526810786B460122FFF799
:103EC00044FC002855D04FF0FF3071E704200090EB
:103ED000C84A12681179C74A526810786B460122A5
:103EE000FFF733FC10B14FF0FF3061E7C148807C31
:103EF00020B9C048807A00F0010010B9402000903D
:103F000001E060200090BB4A12681179B94A5268FA
:103F100010786B460122FFF718FC10B14FF0FF300C
:103F200046E7322003F04DFCB248407C10B101203E
:103F3000009001E000200090AE4A1268D17BAD4AAB
:103F4000526810786B460122FFF7FFFB10B14FF06B
:103F5000FF302DE7A74A12685179A64A52681078B7
:103F6000A44B10330122FFF7F0FB10B14FF0FF30EC
:103F70001EE700201CE770B50446002624F001046B
:103F80009C4890F8240008B1002070BD9948807AC0
:103F900010B94FF0FF30F8E79648057C807A204052
:103FA000944908740846007CA04202D04FF0FF36C6
:103FB00000E0002614B98F48007D18B10120FFF7FA
:103FC00025FD02E00020FFF721FD3CB1FFF7EAFEEE
:103FD00020B1884805744FF0FF30D6E73046D4E76B
:103FE00038B504468348807A10B94FF0FF3038BDA9
:103FF000BC2C02DB0120009015E0622C02DB0220C9
:10400000009010E02A2C02DB032000900BE0142C1F
:1040100002DB0420009006E00A2C02DB0520009061
:1040200001E0062000907348C07A9DF80010884295
:1040300001D10020DBE76F4A126891786D4A52681F
:1040400010786B460122FFF780FB10B14FF0FF3074
:10405000CDE79DF800106748C1720020C7E738B56A
:104060000446282C02DD4FF0FF3038BDDCB90020BB
:10407000FFF75CFD00208DF8000007208DF801009F
:104080005C4A1268917C5B4A526810786B46022247
:10409000FFF75BFB10B14FF0FF30E6E7002155481A
:1040A00001750020E1E70120FFF740FD20208DF899
:1040B0000000012C06D100208DF801000520FFF73B
:1040C0008FFF17E0052C06DC01208DF8010005208C
:1040D000FFF786FF0EE0142C06DC02208DF80100AD
:1040E0000A20FFF77DFF05E003208DF80100142072
:1040F000FFF776FF9DF80100072101EB8010C0B2A9
:104100008DF801003B4A1268917C3A4A5268107857
:104110006B460222FFF719FB10B14FF0FF30A4E706
:1041200008213448817200210173012101750020AA
:10413000FFF721FF002098E738B504462D48807A24
:1041400010B94FF0FF3038BD2A4890F8240010B164
:104150004FF0FF30F7E72748007D50B134B1282CED
:1041600004DCE0B2FFF77BFF0020ECE70020FFF764
:1041700076FF042C01DA042404E0B4F57A7F01DD33
:104180004FF47A744FF47A7090FBF4F0401EC0B292
:104190000090184A12685178164A526810786B4697
:1041A0000122FFF7D2FA10B14FF0FF30CBE79DF8B4
:1041B0000000401C4FF47A7191FBF0F081B20D4881
:1041C000C1810146C9894810FFF70AFF0020BAE7FC
:1041D00038B504460748807A10B94FF0FF3038BD33
:1041E000022C09D0042C0AD0082C0BD0102C0FD193
:1041F0000BE0000084030020002000900BE008206A
:10420000009008E01020009005E01820009002E0E7
:104210004FF0FF30E3E700BFF848407A9DF8001008
:10422000B0EBE10F01D10020D9E7F44A1268D1794F
:10423000F24A526810786B460122FFF786FA10B1F5
:104240004FF0FF30CBE79DF80000C110EB48417202
:104250000020C4E738B50446E848807A10B94FF02A
:10426000FF3038BDFA2C09D0B4F5FA7F09D0B4F587
:104270007A7F09D0B4F5FA6F0CD108E000200090E5
:104280000BE00820009008E01020009005E01820C6
:10429000009002E04FF0FF30E3E700BFD748007A1C
:1042A0009DF80010B0EBE10F01D10020D9E7D34A0F
:1042B00012689179D14A526810786B460122FFF753
:1042C00044FA10B14FF0FF30CBE79DF80000C0106A
:1042D000CA4908720020C4E71CB580208DF8000090
:1042E000C64A1268917CC54A526810786B46012212
:1042F000FFF72BFA10B14FF0FF301CBD642003F024
:1043000060FA00208DF80000BC4A1268917CBB4A1C
:10431000526810786B460122FFF717FA10B14FF080
:10432000FF30EAE7B54A1268917DB44A52681078C6
:104330006B460622FFF754F910B14FF0FF30DCE76F
:104340009DF80500C007400F9DF8031001F0010122
:1043500040EA41009DF8011001F0010140EA01042A
:1043600094B1012C03D10121A448C17431E0022C85
:1043700003D10021A148C1742BE02146A0A005F083
:104380001FFA4FF0FF30B8E79C4A1268D1789B4A79
:10439000526810786B460122FFF722F910B14FF0F6
:1043A000FF30AAE79DF8000000F00F042CB99E48EA
:1043B00005F006FA4FF0FF309FE7042C06D19BA0D2
:1043C00005F0FEF901218D48C17402E000218B48FF
:1043D000C174FF2189488172FF2088490872FF213A
:1043E00086484172C1724FF6FF71C181FF2101748D
:1043F00081740121017380F82210002180F82310BC
:10440000417501751630016041608160163880F891
:10441000241080F82510C1844FF4FA60FFF71AFFCA
:1044200010B14FF0FF3068E70220FFF7D1FE10B166
:104430004FF0FF3061E72A20FFF7D2FD10B14FF0B7
:10444000FF305AE73220FFF777FE10B14FF0FF3010
:1044500053E70020FFF78FFD10B14FF0FF304CE71E
:104460000020FFF7FBFB10B14FF0FF3045E70020C5
:10447000FFF78FFB002040E770477CB504460D46F0
:104480005E48807A00F0700010B94FF0FF307CBDBC
:104490005A4A1268117B594A526810786B460622B4
:1044A000FFF79EF810B14FF0FF30F0E79DF80100E4
:1044B0009DF8001040EA012000B220809DF8030022
:1044C0009DF8021040EA012000B260809DF80500CE
:1044D0009DF8041040EA012000B2A08015B12846E2
:1044E000FFF7CAFF0020D2E77CB504460D464348DB
:1044F000807A00F0080010B94FF0FF307CBD3F4AD1
:104500001268517B3D4A526810786B460622FFF7CD
:1045100067F810B14FF0FF30F0E79DF801009DF80B
:10452000001040EA012000B220809DF803009DF8B1
:10453000021040EA012000B260809DF805009DF85D
:10454000041040EA012000B2A08015B12846FFF710
:1045500093FF0020D2E72DE9FE4F05460C46274881
:10456000807A18B94FF0FF30BDE8FE8F234A1268F9
:10457000917B224A5268107802AB0222FFF730F892
:1045800010B14FF0FF30EFE79DF809009DF80810DB
:1045900040EA012006B214B12046FFF76DFF17492B
:1045A0004968C88807F0A0FA144901904968B1F930
:1045B000080007F051FA8346304607F04DFA594695
:1045C000009007F011FC8246019907F013F981462B
:1045D0001E4907F09BF880464FF08F4107F0CCFA58
:1045E000074607F0FDF928600020BDE710B588B048
:1045F00004466CBB4FF0FF3008B010BD84030020B0
:10460000556E737570706F7274656420736F667425
:10461000776172652070726F64756374207265765D
:104620002025642E0A00000010CE000848616C6648
:104630002073656E7369746976697479207061722C
:104640007420666F756E642E0A00000000000C4234
:10465000FFE7206830B9606820B9A06810B9002071
:1046600008B010BDFA494968087806AB0322114624
:10467000FEF7B6FF10B14FF0FF30F1E79DF81800DC
:10468000082101EB201000F00F00ADF800009DF8AC
:10469000190001EB201000F00F00ADF802009DF8AA
:1046A0001A0001EB201000F00F00ADF804002068A4
:1046B0004100BDF90000403091FBF0F000B2ADF8D0
:1046C000100060684100BDF90200403091FBF0F03D
:1046D00000B2ADF81200A0684100BDF904004030FE
:1046E00091FBF0F000B2ADF81400D94949680878A0
:1046F00006AB06221146FEF773FF10B14FF0FF30F4
:10470000AEE79DF819009DF8181040EA012000B2AC
:10471000ADF808009DF81B009DF81A1040EA012032
:1047200000B2ADF80A009DF81D009DF81C1040EA8B
:10473000012000B2ADF80C00BDF81000BDF8081063
:10474000084400B2ADF81000BDF81200BDF80A1020
:10475000084400B2ADF81200BDF81400BDF80C100A
:10476000084400B2ADF81400BDF81000000A8DF83E
:104770001800BDF81000C0B28DF81900BDF8120085
:10478000000A8DF81A00BDF81200C0B28DF81B00A7
:10479000BDF81400000A8DF81C00BDF81400C0B26A
:1047A0008DF81D00AA494968087806AB0622114613
:1047B000FEF7CBFF10B14FF0FF3051E700204FE77D
:1047C0000146A348007A30B1012807D0022809D059
:1047D00003280FD10AE0FA2008800EE04FF4FA70A7
:1047E00008800AE04FF47A70088006E04FF4FA601F
:1047F000088002E00020088000BF00BF0020704752
:1048000001469348407A30B1012807D0022808D0E9
:1048100003280CD108E0022008700BE00420087087
:1048200008E00820087005E01020087002E04FF052
:10483000FF30704700BF8648C07C18B1087840063A
:10484000000E08700020F4E701468148C07A08286D
:1048500017D2DFE800F01704070A0D101318BC2068
:10486000088013E06220088010E02A2008800DE014
:10487000142008800AE00A20088007E0052008804C
:1048800004E000BF00BF0020088000BF00BF002080
:10489000704701466E4890F8240010B14FF0FF3089
:1048A00070476B48C08908800020F9E70146002066
:1048B0000880401E704701464FF0FF3070470146A8
:1048C0006348007A30B1012807D0022808D00328B5
:1048D0000CD108E05F4808600BE05F48086008E022
:1048E0005E48086005E05E48086002E04FF0FF3077
:1048F000704700BF0020FBE701465548407A30B1C1
:10490000012808D002280AD0032810D10BE04FF468
:10491000804008800EE041F69C7008800AE04FF469
:104920008050088006E04FF40060088002E04FF0FD
:10493000FF30704700BF4648C07C10B10888401067
:1049400008800020F5E701464148007C08700020FF
:10495000704701463E48807A10B10120087001E09E
:10496000002008700020704738B504463848807A27
:1049700010B94FF0FF3038BD354A1268117C344A07
:10498000526810786B460222FEF72AFE10B14FF0F3
:10499000FF30F0E79DF801009DF8001040EA01208B
:1049A00000B220800020E6E72DE9FE4F074688464A
:1049B00092461D46DDF830B000260024244890F8C9
:1049C000240010B1601EBDE8FE8F00202870204832
:1049D000807A10B94FF0FF30F5E71D48007C10B920
:1049E0004FF0FF30EFE71A48007C00F0400008B1BC
:1049F000B01CC6B21648007C00F0200008B1B01C04
:104A0000C6B21348007C00F0100008B1B01CC6B25A
:104A10000F48007C00F0080008B1B01DC6B20C4A77
:104A20001268917A0A4A526810786B460222FEF7A1
:104A3000D7FD10B14FF0FF30C5E79DF801009DF89C
:104A4000001040EA0129B1450CDA0020BBE7000064
:104A500084030020000003430000834233330342F9
:104A600033338341FC4840684088B9EB600F17DD61
:104A7000F94A1268517CF84A526810786B46012254
:104A8000FEF7AEFD10B14FF0FF309CE79DF800003F
:104A900000F0100020B1FFF785F96FF0010092E7F8
:104AA0005046FFF7E9FCEC4A1268D17AEA4A5268AC
:104AB00010786B463246FEF793FD10B14FF0FF3091
:104AC00081E799FBF6F0401E8BF80000002028706B
:104AD000B4422AD0E048007C00F0080028B3601CF3
:104AE0001DF800001DF8041040EA012000B2A8F8EB
:104AF0000000E01C1DF80010A01C1DF8000041EA99
:104B0000002000B2A8F80200601D1DF80010201D52
:104B10001DF8000041EA002000B2A8F8040028783F
:104B200040F008002870A01D84B2B44213D0CA48D7
:104B3000007C00F0400070B1601C1DF800001DF802
:104B4000041040EA012000B23880287840F040008C
:104B50002870A01C84B2B44213D0BF48007C00F07F
:104B6000200070B1601C1DF800001DF8041040EA20
:104B7000012000B27880287840F020002870A01C26
:104B800084B2B44213D0B448007C00F0100070B17D
:104B9000601C1DF800001DF8041040EA012000B25E
:104BA000B880287840F010002870A01C84B2002043
:104BB00009E7F8B504460F461646A74890F82400C2
:104BC00010B94FF0FF30F8BDA348807A10B94FF00C
:104BD000FF30F8E7A04A1268917A9F4A526810782D
:104BE0006B460222FEF7FCFC10B14FF0FF30EAE703
:104BF0009DF801009DF8001040EA0125A54203DA66
:104C000000203070401EDEE7934840684088B5EBD6
:104C1000600F17DD904A1268517C8F4A52681078F5
:104C20006B460122FEF7DCFC10B14FF0FF30CAE703
:104C30009DF8000000F0100020B1FFF7B3F86FF00E
:104C40000100C0E7E2B2844B1B68D97A824B5B68F3
:104C500018783B46FEF7C4FC10B14FF0FF30B2E7C6
:104C600095FBF4F0401E30700020ACE701467A4816
:104C700080F82210002070477CB5054676494968C7
:104C8000087801AB04220D21FEF7AAFC08B1072029
:104C90007CBD9DF80700C0F301109DF8041001F0E1
:104CA000E00140EAE1008DF800009DF80700C0F344
:104CB00081009DF8051001F0E00140EAE1008DF867
:104CC00001009DF8070000F003009DF8061001F0B8
:104CD000E00140EAE1008DF8020000241CE01DF82C
:104CE000040018B9002045F8240013E05B4845F89B
:104CF000240006E055F82400594906F03DFF45F828
:104D000024001DF80400401EC0B20DF80400002865
:104D1000F0D100BF601CC4B2032CE0DB0020B7E779
:104D20002DE9FE4F06460F4600256846FFF7A4FF13
:104D3000002442E056F8240057F82410A0EB010AA2
:104D4000BAF1000F01DB514601E0CAF1000108464B
:104D500006F082FE83464FF08F4106F04BFD804601
:104D60005DF82400002106F007FE16D05DF824103F
:104D7000404606F03FFD82464FF07E5107F034F882
:104D8000814629F0004A3748416A504606F0C0FF84
:104D900012D20120A04005430EE03248C1694046CE
:104DA00006F0B6FE05D32F48016A404606F0B0FF74
:104DB00002D20120A0400543641C032CBADB284624
:104DC000BDE8FE8F2DE9FC5F06460F46002522490F
:104DD0004968087801AB03220D21FEF701FC10B1F0
:104DE0000720BDE8FC9F9DF8040000F01F008DF82F
:104DF00004009DF8050000F01F008DF805009DF8E7
:104E0000060000F01F008DF80600002462E056F84E
:104E1000240057F82410A0EB010BBBF1000F01DBBD
:104E2000594601E0CBF10001084606F015FE4FF0AF
:104E30008F41009006F0DEFC814601A8005DC0B302
:104E40000849086806F050FE83465946064806F0B1
:104E5000D1FC80460FE00000840300207B14AE3EAE
:104E60001D5A843F38C0000800B04C45FE494046FA
:104E700006F082FE804601A8005D401EC0B201A976
:104E800008550028F2D14146484606F0B3FC834657
:104E90004FF07E5106F0A8FF82462AF0004BF348FF
:104EA0008169584606F034FF13D20120A040054323
:104EB0000FE0FFE7ED480169484606F029FE05D3FB
:104EC000EA484169484606F023FF02D20120A0408B
:104ED0000543641C032C9ADB284682E72DE9F04F3A
:104EE00087B005460C46914601208DF81000002041
:104EF0008DF81100DE4A1268917CDD4A5268107804
:104F000004AB0222FEF721FC20B14FF0FF3007B0C6
:104F1000BDE8F08FC82002F054FC00208DF810008E
:104F2000D34A1268D17BD24A5268107804AB01226E
:104F3000FEF70BFC10B14FF0FF30E8E7CC4A1268E7
:104F40005179CB4A5268107804AB0122FEF7FDFB81
:104F500010B14FF0FF30DAE7C54A1268917CC44ABD
:104F60005268107804AB0122FEF7EFFB10B14FF04E
:104F7000FF30CCE7BE4A1268D17DBD4A5268107836
:104F800004AB0122FEF7E1FB10B14FF0FF30BEE7AA
:104F9000B74A12681179B64A5268107804AB0122F8
:104FA000FEF7D3FB10B14FF0FF30B0E70C208DF8C7
:104FB0001000AF4A12681179AD4A5268107804ABFC
:104FC0000122FEF7C2FB10B14FF0FF309FE70F2028
:104FD00002F0F7FBA648806A407A8DF81000A44AD8
:104FE00012689178A24A5268107804AB0122FEF749
:104FF000ACFB10B14FF0FF3089E79D48806A007A22
:105000008DF810009A4A12685178994A52681078BF
:1050100004AB0122FEF799FB10B14FF0FF3076E7A9
:10502000B9F1000F07D09248806A807A40F0E00022
:105030008DF8100004E08E48806A807A8DF81000A8
:105040008B4A126891798A4A5268107804AB01221F
:10505000FEF77BFB10B14FF0FF3058E7B9F1000FBE
:1050600007D08348806AC07A40F0E0008DF81000D5
:1050700003E07E48C07A8DF810007D4A1268D1792D
:105080007B4A5268107804AB0122FEF75EFB10B138
:105090004FF0FF303BE7B9F1000F02D0C82002F01B
:1050A00090FB40208DF81000714A12681179704A07
:1050B0005268107804AB0122FEF747FB10B14FF0A5
:1050C000FF3024E778208DF81000694A1268517982
:1050D000674A5268107804AB0122FEF736FB10B124
:1050E0004FF0FF3013E76149888902F06AFB002026
:1050F0008DF810005E4A126851795D4A5268107846
:1051000004AB0122FEF721FB10B14FF0FF30FEE6A9
:10511000574A1268917A564A5268107804AB0222B4
:10512000FEF75EFA10B14FF0FF30F0E69DF8110087
:105130009DF8101040EA012B0C209BFBF0F0C6B24A
:105140000020A86068602860A060606020608246DF
:1051500065E0474A1268D17A454A5268107804AB34
:105160000C22FEF73DFA10B14FF0FF30CFE69DF86C
:1051700011009DF8101040EA012000B2ADF80800BF
:105180009DF813009DF8121040EA012000B2ADF81E
:105190000A009DF815009DF8141040EA012000B2A5
:1051A000ADF80C00BDF90810206808442060BDF976
:1051B0000A10606808446060BDF90C10A0680844DB
:1051C000A0609DF817009DF8161040EA012000B27B
:1051D000ADF800009DF819009DF8181040EA012074
:1051E00000B2ADF802009DF81B009DF81A1040EACD
:1051F000012000B2ADF80400BDF900102868084491
:105200002860BDF90210686808446860BDF90410A0
:10521000A8680844A8600AF1010000F0FF0AB2453E
:1052200097DB1248D0F800C02868C117090441EA8A
:105230001041070462460023384604F09CFA3246C7
:105240000023CDE9020104F096FA28600748D0F85F
:1052500000C06868C117090441EA104107046246AA
:105260000023384606E0000054E3853F38C00008BC
:105270008403002004F07FFA32460023CDE90201C6
:1052800004F079FA6860FE48D0F800C0A868C11739
:10529000090441EA1041070462460023384604F03D
:1052A0006AFA32460023CDE9020104F064FAA860EC
:1052B000F348D0F804C02168C817000440EA114838
:1052C0000F04624600233846414604F054FA324641
:1052D0000023CDE9020104F04EFA2060E848D0F83E
:1052E00004C06068C117090441EA1041070462461E
:1052F0000023384604F03FFA32460023CDE902018C
:1053000004F039FA6060DE48D0F804C0A068C11724
:10531000090441EA1041070462460023384604F0BC
:105320002AFA32460023CDE9020104F024FAA060F3
:10533000A068002804DDA068A0F58030A06003E02C
:10534000A06800F58030A0600020E0E538B5044694
:10535000CC4890F82400A04201D1002038BD24B3ED
:10536000C84890F8250010B94FF0FF30F6E700204C
:10537000FEF74CFB0020FEF771FCC249C88CFEF71B
:10538000DBFE00200090BF49496808786B46012287
:105390002321FEF7DAF90121BA4880F82410012010
:1053A000FEF734FBFEF7FEFC13E00020FEF72EFBB9
:1053B000B448007C0090B349496808786B460122E4
:1053C0002321FEF7C2F90021AE4880F82410FEF731
:1053D000E9FC0020C2E72DE9F04F8DB083460F466F
:1053E00002200C90A74890F8240020B10020FFF77D
:1053F000ADFF012600E0002603A8FFF7E1F905A8AC
:10540000FFF7FEF901A8FFF71FFA02A8FFF741FA1C
:105410009C4890F80AA004A8FFF795FA002407E03A
:10542000002239465846FFF759FD00B902E0641CD6
:10543000022CF5DB00BF022C01D1002528E000245E
:1054400007E0012206A909A8FFF748FD00B902E01C
:10545000641C022CF5DB00BF022C01D1002517E0F3
:1054600006A93846FFF75CFC00F0FF0809A958467A
:10547000FFF7A8FC00F0FF090025B9F1000F01D1EA
:1054800045F00105B8F1000F01D145F0020500BF5C
:10549000FF207C490872FF217A484172C1724FF6A1
:1054A000FF71C181FF218172017401210173BDF877
:1054B0000C00FEF7CFFE9DF81400FEF789FEBDF844
:1054C0000400FEF78DFDBDF80800FEF735FE5046DE
:1054D000FEF75FFB9DF81000FEF74DFD16B10120B1
:1054E000FFF734FF28460DB0BDE8F08FF8B504464D
:1054F0000D46164616B94FF0FF30F8BD6148807A68
:1055000010B94FF0FF30F8E720128DF80000E0B23C
:105510008DF801009DF8010028445A4949684989DD
:10552000884202DD4FF0FF30E7E7564A1268117EED
:10553000544A526810786B460222FEF706F910B101
:105540004FF0FF30D9E7EAB24E4B1B68597D4D4B07
:105550005B6818783346FEF7F8F810B14FF0FF306B
:10556000CBE70020C9E7F8B504460D46164616B944
:105570004FF0FF30F8BD4348807A10B94FF0FF304C
:10558000F8E720128DF80000E0B28DF801009DF8D8
:10559000010028443B4949684989884202DD4FF0AF
:1055A000FF30E7E7374A1268117E364A52681078B2
:1055B0006B460222FEF7C9F810B14FF0FF30D9E771
:1055C000EAB2304B1B68597D2E4B5B681878334626
:1055D000FEF706F810B14FF0FF30CBE70020C9E727
:1055E0002DE9F04385B005460E469046994625487C
:1055F00090F8250020B14FF0FF3005B0BDE8F083F2
:1056000016B94FF0FF30F8E7002423E0281B1028DC
:1056100001DD102000E0281B87B2321939462046F0
:10562000FFF764FF10B14FF0FF30E6E701AA3946FB
:105630002046FFF798FF10B14FF0FF30DDE730193B
:105640003A4601A904F0F4F910B16FF00100D4E773
:10565000E01984B2AC42D9DB4FEA28208DF8000073
:1056600008F0FF008DF80100064A1268917E054A95
:10567000526810786B460222FEF767F838B103E0F3
:1056800038C00008840300204FF0FF30B5E7012147
:10569000FE4880F82510A0F826900020ADE70146CE
:1056A000FA4890F824000870002070474FF0FF304F
:1056B000704702464FF0FF30704701464FF0FF3011
:1056C0007047F8B505460F461446002C70D0B5F566
:1056D000FF5F01DDFF2605E0202D01DA012601E054
:1056E000C5F3471607B90127282C02DD4FF0FF301C
:1056F000F8BDE648407D28BBE44890F8240038B166
:105700000020FFF723FE0121E04880F8201003E08D
:105710000021DE4880F82010DC481630FFF750F8F2
:10572000DA481830FFF76CF8D8481A30FFF78CF8D1
:10573000D6481C30FFF7ADF8D448817A81771F3006
:10574000FFF701F90020FEF761F90020FEF787FC62
:1057500000208DF80000CD4A12689178CB4A52683B
:1057600010786B460122FDF7F0FF10B14FF0FF30CB
:10577000BEE740208DF80000C44A1268D17BC34ABE
:10578000526810786B460122FDF7DFFF00B165E03B
:105790008DF800608DF80170BC4A1268117ABB4A1E
:1057A000526810786B460222FDF7CFFF08B155E032
:1057B00047E0052002F005F8B448407A072101EBE4
:1057C000C000C0B28DF80000B04A1268D179AF4A6B
:1057D000526810786B460122FDF7B7FF00B13DE03B
:1057E00020208DF80000012C03D100208DF801004D
:1057F0000EE0052C03DC01208DF8010008E0142CDC
:1058000003DC02208DF8010002E003208DF8010086
:105810009DF80100072101EB8010C0B28DF8010056
:105820009A4A1268917C994A526810786B46022213
:10583000FDF78BFF00B111E0012194484175002074
:1058400056E7924A1632002103E0505C00B105E0B1
:10585000491C0C29F9D34FF0FF3049E7FF208B4951
:105860000872FF2189484172C1724FF6FF71C181F0
:10587000FF2181720174012101730146887FFEF7C7
:1058800088F98249C88AFEF7E5FC8049087EFEF760
:105890009FFC7E49488BFEF7A3FB7C49888BFEF773
:1058A0004BFC7A49C87FFEF766FB784890F82000E9
:1058B00010B10120FFF74AFD002174484175002016
:1058C00016E770B588B002A905A8FFF784FD044665
:1058D000032C3ED101A8FEF7F2FF059806F0BCF8B4
:1058E0000646019906F048F9054606F079F8059054
:1058F000069806F0B1F80646019906F03DF905460E
:1059000006F06EF80690079806F0A6F8064601998C
:1059100006F032F9054606F063F8079005A800F096
:1059200054FA6846FEF7E8FFBDF8001002984843B5
:105930000290BDF80010039848430390BDF8001092
:1059400004984843049002A800F0D2FA002008B05E
:1059500070BD0120FBE7014691F90020002A01DD1E
:1059600000201EE091F90020002A01DA042018E04E
:1059700091F90120002A01DD012012E091F90120B6
:10598000002A01DA05200CE091F90220002A01DD4D
:10599000022006E091F90220002A01DA062000E048
:1059A0000720704710B504462046FFF7D4FF034692
:1059B000E01CFFF7D0FF43EAC00083B2A01DFFF751
:1059C000CAFF43EA801083B2184610BD70B50024A8
:1059D000FDF7F9FEFEF780FC002840D17820FEF7A5
:1059E000D8F8C4B20CB1012070BD7820FEF7C3FA1C
:1059F000C4B20CB10220F7E76420FEF79DFBC4B2ED
:105A00000CB10320F0E700F045F9C4B20CB104205A
:105A1000EAE71F48FFF7C6FF054600F045F9C4B2A4
:105A20000CB10520E0E740F2731000F07EFDC4B237
:105A30000CB10620D8E7642000F0F0FAC4B20CB133
:105A40000720D1E7FFF73DFF04460CB10820CBE764
:105A50000120FFF77BFCC4B21CB10920C4E70A2077
:105A6000C2E70020C0E72DE9F04F99B004460D468B
:105A700016464FF07E574FF000084FF000094FF0E8
:105A8000000A12A813A918AB0EAA03E08403002091
:105A9000B0030020CDE9001014A916A800F0A4FE60
:105AA00018B1012019B0BDE8F08FBDF84C0000F42A
:105AB000807000287ED00E9805F0CEFF83464FF010
:105AC0009D4105F097FE07460F9805F0C5FF8346F8
:105AD0004FF09D4105F08EFE8046109805F0BCFF0A
